:020000040000FA
:0600000002103A0205BFE8
:03001B000205E1FA
:03002B00020E05BD
:03003300020BC3FA
:03004300020CD3D9
:030053000204F4B0
:03006B00020B9DE8
:030073000206364C
:10008300020553010000000000F8FF07FFFF000016
:100093000504000000030001FF0020FD000206FF2D
:1000A300FF1E1410270000FFFF2200FF00FF00FFC8
:1000B30000FF00FF000104010C0002010E8505266C
:1000C300840204010C000200000002F08401040019
:1000D300002819000000E8030000FFFF79190188D8
:1000E300130000E803000064006400B801A0BB0D26
:1000F30000A0BB0D00020202070401051E02051E3B
:10010300020A0A010108080103B80B02803E01023A
:10011300FEFFE8030A050001FFFF020A011401E0E4
:10012300050301010F0300030003000300030003A1
:100133000003000300030005000A00140028004F19
:10014300009E000000872A00000000BD2900000077
:1001530000FF000000FF0012104A601D12105970CA
:1001630005191919801A120F15701F120EEDC3709D
:1001730003E66733191919400718181822080808E5
:1001830074FFF618F618F618F622120EED60171221
:1001930010E7702192F01210F07019501720F0142C
:1001A300080808090909E7F61819E7F61819E7F620
:1001B3001819E7F6221210F060E6E869701F0808C4
:1001C300E62480F608E436F618547FB47F0CE65430
:1001D300806007F6E418F618F622181822E9C6CC50
:1001E30008C6CD08C6CE08C6CFC0E0E8C0E0EAC066
:1001F300E0EBC0E009E9F809E7FA09E7FBE6F918DB
:10020300E6F8C3EC98ED99EE9AEBC2E7F5F0EFC28E
:10021300E795F0500E600CEBCFFBEACEFAE9CDF98F
:10022300E8CCF8EAA2E7D2E7FAEB33FB13F5F0EEFA
:10023300A2E7D2E7FEEF33FFC5F013A2E730E601F2
:10024300B313C5F0C3C0E0C0F07F00C39BFB605E87
:100253009418600F401D14601AD0E023F9D0E0F821
:1002630002033B8AF0E9486003D2F0E4AFF0FAF905
:10027300F8803BEB30E40D89F0EA6003D2F0E4AFA1
:10028300F0F9CAF8EB30E30D88F0EF6002D2F0AF7B
:10029300F0E4CAC9F8EB54076014FBC3EA13FAE9A4
:1002A30013F9E813F8EF135002D2E0FFDBEDD0E0CF
:1002B300C0E030E739C3E49FFFF5F0EC98FC42F06F
:1002C300ED99FD42F0EE9AFE42F0D0E0F9D0E0F86D
:1002D300E5F0607AE923F9EE20E742D8028067C3AC
:1002E300EF33FFEC33FCED33FDEE33FE80EAEC2815
:1002F300FCED39FDEE3AFED0E023F9D0E0F8400200
:10030300801BC3EE13FEED13FDEC13FCEF13500241
:10031300D2E0FF08B800067F7F74FF802EEF3350D2
:10032300178CF020F00260100CBC000C0DBD00080F
:100333000EBE000408E860DFE933E813FFEE231381
:10034300FE4F4D4C8008E95480FFE4FEFDFCEE3384
:10035300EF33F47004FCFD7E80D0E0FBD0E0FAD0F4
:10036300E0F8D0E0CFC618CEC618CDC618CCC6F973
:10037300220012104A604F1210596012E75480662F
:10038300F6120F1570111210E7703B090909F4F604
:1003930018F618F618F622120EED70151210F00862
:1003A300080860EAE6447FF618768018E4F618F643
:1003B300221210F060161210E77012E4F608F60825
:1003C300F608E65480F609090918181822EAC0E06D
:1003D300EBC0E0ECC0E0EDC0E0E687F0A4FBACF0DE
:1003E30008E687F0A42CFCE435F0FA1809E687F058
:1003F300A42C4B60027401CA35F0FCE433FB09E61C
:1004030087F0D2F7A42CCB35F0FC1908E687F0A4CB
:100413002BCC35F0FBE433FD0819E687F0D2E7A4D3
:100423002C4ACB35F0CD3400FC09E687F0D2E7A4A3
:100433002DCC35F0FDE433FA0918E687F0D2F7A4A2
:100443002CCD35F0CA3400FC08E687F0D2E7D2F7AA
:10045300A42ACC35F07A7E20E70B0ACB33CBCD33FD
:10046300CDCC33CC33CB3350147004ED30E00ED20B
:10047300F1E4CD3DCDCC3CCC3B5005DA05C2F1EBEC
:10048300547FC63308E63392F0FBE73309E733C3FF
:100493009A502D2B70190C0D4C4D70151806E6084B
:1004A300C333700D20F10AA2F013F6E418800B4059
:1004B30024E4F630F002768018F618F618F6802455
:1004C300D33B14501074FFA2F013F6187680E4188F
:1004D300F618F6800FA2F013F618E63303F618ECBD
:1004E300F618EDF6D0E0FDD0E0FCD0E0FBD0E0FA6A
:1004F30022C0E074F112090AA2AFE433F509D2AFC6
:1005030085A708AFA1EF5508FE74105E60061213AD
:10051300CC75A1EF74085E60081213D275A1F78041
:1005230024EFA2E092F0E508A2E082F05017906178
:1005330098E0F8900924E0C398A2D265D033500222
:10054300E8F075A1FEE509A2E092AF7F020209C6B9
:10055300C0E074F212090AA2AFE433FED2AF906195
:10056300A4E0F8759B00E59158540860087591F76D
:100573001214208023E59158541060087591EF12EE
:1005830014268014E591A2E092F0E8A2E082F050F4
:1005930007E0C2E0F01215709061A3E0F8E5E958B6
:1005A3005404600E12154675E9FB906193E0A2E6D0
:1005B30040F2EEA2E092AF7F010209C6C0E074F2FE
:1005C30012090AA2AFE433FED2AF9061A5E0F8E5C9
:1005D300BF585404600675BFFB12158880D4C0E071
:1005E300C0D0E8C0E0E9C0E0C082C083A8F9E8C099
:1005F300E0900891E0F8741028F582E43408F5835C
:10060300D0E0F0900890E0F8A3E0687006E59590DC
:100613000893F0900891E004F0C394804002E4F062
:10062300A374C6F0D083D082D0E0F9D0E0F8D0D064
:10063300D0E032C0E0C0D0E8C0E0E9C0E0C082C092
:1006430083900914E0F8A3E0687008539AF7A37441
:10065300018022C2EA900914E0F8740128F074942E
:1006630028F582E43408F583E0F5F9900914E0C332
:1006730094804002E4F080ACC3E498F8E499F91262
:1006830006BC8026C3E49AFAE49BFBE920E7E9125F
:1006930006BCE498F8E499F922C3E498F8E499F9DC
:1006A3001206BCE498F8E499F9C3E49AFAE49BFBD4
:1006B30022EB20E7CFE920E7E0B90010BB0008E810
:1006C3008AF084F8AAF022E4FBC8FA22EB70227BBA
:1006D30010C833C8C933C9335007C39AC3DBF28088
:1006E300069A50012ADBEAC833F4C8C933F4C9FABD
:1006F3002275F008E4C833C8C933C933C99AC99B02
:100703005004C92AC93BD5F0ECFBC833F4C8E4C98B
:10071300FA2212076030F0391207A58034120760FD
:1007230020F01430E72B74FFFCFBFA747F8022E483
:10073300FCFBFA7480801AB48008BC00F2BB00EFA3
:10074300800F50EBF9E4C39AFAE49BFBE49CFCE4CE
:1007530099C6CC18C6CB18C6CA18C6F922E4C9C6AE
:1007630008CAC608CBC6D3330308CCC63392F0C33A
:10077300947F402E94184019C9B90704CACBCC22E0
:100783005025C309CA33CACB33CBCC33CC33D9F4CA
:1007930022F4600DC9CCC313CB13CBCA13CAD9F649
:1007A300CC22E4FCFBFA2214FCFBFA22080808EA38
:1007B300C0E0EBC0E086F0E7A4FA180986F0E7A4EE
:1007C3002AFA180986F0E7A42AFA180986F0E7A49A
:1007D3002AFA1986F0E7A4FBE5F02AFA190886F04D
:1007E300E7A42BFBE5F03AFA190886F0E7A42BFB04
:1007F300E5F03AFA18180986F0E7A4C5F02BFBE4F4
:100803003AFA1908E7C5F0C6A426F6E5F03BFBE47F
:100813003AFA1886F0E7A4F6E5F00826F6E43B0872
:10082300F6E43A08F6D0E0FBD0E0FA22E4CFC0E0E9
:10083300E4CEC0E0E4CDC0E0E4CCC0E075F020E657
:1008430026F608E633F608E633F608E633F6181814
:1008530018EC33FCED33FDEE33FEEF33FFC3EC97BF
:1008630009ED9709EE9709EF97191919400FFFEC56
:1008730097FC09ED97FD09EE97FE191906D5F0BF10
:10088300ECF709EDF709EEF709EFF7191919D0E0BD
:10089300FCD0E0FDD0E0FED0E0FF222521C582C0E0
:1008A300E0E52234FFC583C0E0E521C3958224F847
:1008B30010AF088583228582218008858322858263
:1008C30021D2AFCEF0A3E520F0A37808E608F0A389
:1008D300DEFAEFF0A3E58124FAF8E608F0A3E608D0
:1008E300F0A3E608F0A30808E608F0A3E608F0A3DF
:1008F30015811581D0E0FED0E0F8158115811581B1
:10090300E8C0E0EEC0E022C0D02521C582C0E0E50A
:100913002234FFC583C0E0E521C3958224F310AFE1
:10092300088583228582218008858322858221D2BE
:10093300AFC8F0A3E9F0A3EAF0A3EBF0A37908E7CB
:1009430009F0A3D8FAECF0A3EDF0A3EEF0A3EFF0D7
:10095300A3D0E0F0A3D0E0F0A3D0E0F0A3E520F033
:10096300A3E5F0F0A322E9799EC608CAC608CBC660
:1009730008CCC6C370207996CACBCC7019798ECBBC
:10098300CC70137986CC700EF9802ACA33CACB3364
:10099300CBCC33CC331930E7F2CCCBCA3350147001
:1009A30004EA30E00DE4CA3ACACB3BCBCC3CCC5092
:1009B3000209C3E913C6CC182313C6CB18C6CA1839
:1009C300C6F922852283852182E0C0E0A3E0F9A352
:1009D300E0FAA3E0FBA37808E0F608A3DFFAE0FC63
:1009E300A3E0FDA3E0FEA3E0FFA3E0C0E0A3E0C01B
:1009F300E0A3E0F5D0A3E0F520A3E0A3F5F010AF6A
:100A0300088583228582218008858322858221D2DD
:100A1300AFD082D083D0E0F8D0E0321210D2B90048
:100A230003020A5DE49003017814791A8002F0A3AB
:100A3300D8FCD9FA7A147B1C90008678D57901808A
:100A430015E493A3AD82AE838A828B83F0A3AA823B
:100A5300AB838D828E83D8E9D9E77582F47583CA17
:100A63007404120D967582F87583267400120D9620
:100A7300FF75F0108E238F24858228858327852197
:100A830082852283E0CEA3E0CF852882852783EB6E
:100A9300C9EAC8EDCBECCAC3E833C8E933C9EA33C2
:100AA300CAEB33CBC3EA9EF526EB9FF525B350047F
:100AB300AB25AA26EC33CCED33CDD5F0DAAE23AF9C
:100AC3002422D083D082ECC0E0EDC0E0E493A3FC09
:100AD300E493A3FDED4C600D120BE1EC24FFFCED60
:100AE30034FFFD80EFE493A3FCE493A3FDED4C609E
:100AF3000D120C7EEC24FFFCED34FFFD80EFD0E003
:100B0300FDD0E0FCE493A3C0E0E493C0E02285229F
:100B130083852182E0A3FEE0A3F5207808E0A3F615
:100B230008DFFAE0A3FFE0A3C0E0E0A3C0E0E0A396
:100B3300C0E0E0A3C0E0E0A3C0E010AF08858221DD
:100B43008583228008858221858322D2AFD083D0FA
:100B530082020D9CD083D082E9C0E0E493A3C386D4
:100B6300F0C5F095F0F908E493A386F0C5F095F08D
:100B7300700BE493A3C3994005E9048002A3E475D1
:100B8300F002A42582F582E5F03583F583D0E0F900
:100B9300E493A3C0E0E493C0E022C0E074F212093E
:100BA3000AA2AFE433FED2AFE589A2E150031212E9
:100BB300EE758900C2C5EEA2E092AF7F010209C6BD
:100BC300C0E074F212090AA2AFE433FED2AFE58BA0
:100BD300A2E050031212EE758B00C2E880D8C0E089
:100BE300C3E49396087401939618400FE4936670D8
:100BF3000808740193661870007019A3A3C3E493E3
:100C030096087401939618A3A3400DD0E0D0E0D0CA
:100C1300E0020B01A3A3A3A3A3A3D0E02274048047
:100C23000474028000CCC0E0EDC0E0E521C39CCC9D
:100C3300AD2250011D10AF068C218D2280068C2120
:100C43008D22D2AF120D18D0E0FDD0E0FC22740249
:100C53008000CCC0E0EDC0E0E521C39CCCAD2250C8
:100C6300011D10AF068C218D2280068C218D22D28E
:100C7300AF120CF6D0E0FDD0E0FC22C0E0C0F0885B
:100C8300F0E4936670080874019366187000A8F086
:100C9300A3A3700BD0F0D0E0D0E0D0E0020B01A30F
:100CA300A3D0F0D0E022D083D082CCC0E0E493A3E1
:100CB3006006120D581470FAE493A36006120E989E
:100CC3001470FAD0E0FCE493A3C0E0E493C0E02204
:100CD300C0E074F212090AA2AFE433FED2AFC2C07D
:100CE300E5D1A2E45003121336EEA2E092AF7F01E6
:100CF3000209C6CAC0E0E493A3C582CCC582C583FA
:100D0300CDC583F0A3C582CCC582C583CDC583DAA7
:100D1300E5D0E0CA22CAC0E0E0A3C582CCC582C543
:100D230083CDC583F0A3C582CCC582C583CDC583DE
:100D3300DAE6D0E0CA2270090808082260161818FB
:100D430018C6C333C608C633C608C633C608C63377
:100D5300C6D5E0EA22C0E0E493A3D39C5010E49309
:100D6300A3C39C400AD0E0D0E0D0E0020CC6A3A30A
:100D7300A3D0E022C008C3E096F50808A3E096429A
:100D83000808A3E096420808A3E09645087001D33B
:100D9300D00822C09FF59FE473D09F22D083D082D6
:100DA300C09FE493C0E0740193C0E0740293F59F85
:100DB300227404800A74038006740280027401C0E2
:100DC300E0F404120DCFD0E0121095222521F58214
:100DD30010AF08F521400C15228008F521400215BB
:100DE30022D2AF8522832200C0D0252110AF08F57F
:100DF30021500C05228008F52150020522D2AFD0E4
:100E0300D022C0E0C0D0E8C0E0A8A8D2AFC2C7E8F3
:100E1300A2E792AFD0E0F8D0D0D0E032BB0102E736
:100E230022C082C08389828A83BB0003E08002E4FC
:100E330093D083D082226016080808C6C313C6184D
:100E4300C613C618C613C618C613C6D5E0EA2225AC
:100E530021F8E43522F9222521FAE43522FB222563
:100E630021FCE43522FD22C3E0C696F608A3E0C6C2
:100E730096F608A3E0C696F608A3E0C696F62225E2
:100E83002110AF08F521400C15228008F5214002FE
:100E93001522D2AF22C0E0E493A36C7009D0E0D056
:100EA300E0D0E0020CC6A3A3D0E022E766701008EE
:100EB30009E766700A0809E76670040809E766220D
:100EC300E066701008A3E066700A08A3E066700489
:100ED30008A3E06622C3E09608A3E09608A3E09681
:100EE30008A3E096A2D265D03322191919E709475E
:100EF300097009E727097005E733F4220922C3E0E3
:100F030096F008A3E096F008A3E096F008A3E09615
:100F1300F022181818E60846087009E62608700536
:100F2300E633F4220822C3E49396087401939608E7
:100F330074029396087403939622C3E697F60809FE
:100F4300E697F60809E697F60809E697F622E026FB
:100F5300F608A3E036F608A3E036F608A3E036F673
:100F630022E627F60809E637F60809E637F6080900
:100F7300E637F622E056F608A3E056F608A3E05655
:100F8300F608A3E056F622E056F008A3E056F00870
:100F9300A3E056F008A3E056F022E647F60809E678
:100FA30047F60809E647F60809E647F622700422E1
:100FB300600D18C6C333C608C633C6D5E0F418227D
:100FC300E026F008A3E036F008A3E036F008A3E03B
:100FD30036F022E657F60809E657F60809E657F60B
:100FE3000809E657F622E4C396F608E496F608E401
:100FF30096F608E496F622C3E7960809E7960809E9
:10100300E7960809E79622600D08C6A2E713C618FB
:10101300C613C6D5E0F322C6F4C608C6F4C608C68E
:10102300F4C608C6F4C622C3E09608A3E09608A354
:10103300E09608A3E0962275D00075813F752101E3
:1010430075220300020A1EE6084608C31346083346
:101053006002E633F422E7094709C3134709336003
:1010630002E733F422600C08C6C313C618C613C6BE
:10107300D5E0F422E6F008A3E6F008A3E6F008A31F
:10108300E6F022E0F608A3E0F608A3E0F608A3E002
:10109300F622CAC0E0E6F0A308DAFAD0E0FA22E0CA
:1010A300FAA3E0FBA3E0FCA3E0FD22EAF0A3EBF04C
:1010B300A3ECF0A3EDF022E0F8A3E0F9A3E0FAA398
:1010C300E0FB22E8F0A3E9F0A3EAF0A3EBF022E5CA
:1010D300C754F84401F5C77901222521F582E43587
:1010E30022F58322E72719471947194722E62618CD
:1010F300461846184622C2AF75D69F020000221238
:101103000D9FBFC802120D9F08CC02120D9F75CE12
:1011130002120D9F21CF02120D9F51CF02120D9F7C
:10112300B1CF02120D9F4FD002120D9F00D10212B8
:101133000D9F51D102120D9F95D102120D9F2FD2F7
:1011430002120D9F93D202120D9FC2D202120D9F63
:10115300C8D302120D9FE8D302120D9F3CD4021292
:101163000D9F10D502120D9F3ED702120D9FECD793
:1011730002120D9F5ADA02120D9FDFDA02120D9F3F
:10118300E2DD02120D9F26DE02120D9F77DF0212AF
:101193000D9F8ADF02120D9FC7DF02120D9FA8DA8F
:1011A30004120D9FE7DA04120D9F51D703120D9F0E
:1011B300CDD703120D9F00D803120D9F2ED8031213
:1011C3000D9F6CD803120D9FA9DA03120D9FC8DA85
:1011D30003120D9F0DDB03120D9FA3DB03120D9F63
:1011E300EFDB03120D9F83DC03120D9F5CDD031203
:1011F3000D9FB8DD03120D9F16DE03120D9F89DECE
:1012030003120D9FCDDE03120D9F25DF03120D9FE9
:1012130047DF03120D9FD7DF03120D9F68E0031210
:101223000D9FB4E003120D9FE0E003120D9F21E137
:1012330003120D9FB7E203120D9FA3E303120D9F49
:101243007EE403120D9FCFD504120D9FD2D5041255
:101253000D9F30D604120D9F84D604120D9FA6D67F
:1012630004120D9FD9CC04120D9FF4CC04120D9FD0
:1012730043CD04120D9F93CD04120D9FCECD0412C6
:101283000D9FBCD704120D9FCDD704120D9F6BD8B1
:1012930004120D9F76D804120D9F90D804120D9F4F
:1012A300FC7F00120D9FE5DC04120D9F9FD80412F2
:1012B3000D9FAFD804120D9FC7D804120D9F2FD9CD
:1012C30004120D9FCAD304120D9F4ED404120D9F16
:1012D300B6D404120D9FE6CF04120D9F05D004125D
:1012E3000D9F6BD004120D9FACD004120D9F09D13A
:1012F30004120D9F0AB704120D9F18B704120D9F15
:1013030091B704120D9F6AB804120D9F2DBA0412EF
:101313000D9F63DC04120D9F9A9A04120D9F069B86
:1013230004120D9FA49B04120D9F919C04120D9F08
:10133300069E04120D9F6D9E04120D9FBA9E041209
:101343000D9F549F04120D9FD89F04120D9F0DA053
:1013530004120D9F2BA004120D9FB1A004120D9F28
:10136300D0A004120D9F377A00120D9F637A0012EA
:101373000D9FCD7C00120D9F0D7D00120D9F497DA9
:1013830000120D9F5D7D00120D9F767D00120D9F53
:10139300687E00120D9F1B7F00120D9F2F7F00128E
:1013A3000D9F84CE04120D9FA8CE04120D9FC1CEB3
:1013B30004120D9FFFCE04120D9F2FCF04120D9F19
:1013C3005CCF04120D9FC2CF04120D9FC5CF041230
:1013D3000D9FCFCF04120D9FDCCF04120D9FBAC314
:1013E30004120D9FDAC304120D9F19C404120D9F3A
:1013F30037C404120D9F52C404120D9FB8C40412C3
:101403000D9FC4C404120D9F21C504120D9F30C546
:1014130004120D9F54C504120D9F15C604120D9F8F
:1014230022C604120D9F33C604120D9FBCD90412A9
:101433000D9F04DA04120D9F30DA04120D9F9BFBFB
:1014430003120D9FF5FC03120D9F03FD03120D9F65
:1014530016FD03120D9F2BFD03120D9F40FD03127A
:101463000D9F53FD03120D9FCFFD03120D9F34FEFD
:1014730003120D9FCAFE03120D9FA3FF03120D9FBC
:10148300B3FF03120D9FC2FF03120D9F4A7F001289
:101493000D9F6E7F00120D9F967F00120D9FBE7FE2
:1014A30000120D9F61C604120D9F88C604120D9F82
:1014B300A6C604120D9F15C704120D9FE7C00412A0
:1014C3000D9F00C104120D9F0CC104120D9F20C17A
:1014D30004120D9F3EC104120D9F48C104120D9FBB
:1014E30052C104120D9F65C104120D9FEBC104127A
:1014F3000D9F60C204120D9F8FC204120D9FDDC2A7
:1015030004120D9F2CC304120D9F47C304120D9F99
:1015130051C304120D9F62C304120D9FA5C304128D
:101523000D9F89DB04120D9F2B8A04120D9F578A8E
:1015330004120D9F748A04120D9F878A04120D9F53
:10154300A28A04120D9FFC8A04120D9F2A8B041297
:101553000D9F3A8F04120D9F989004120D9FCA900D
:1015630004120D9F2D9104120D9F999204120D9F49
:10157300C19204120D9FD69204120D9FE69204129B
:101583000D9F269304120D9F689304120D9F789369
:1015930004120D9F9AD204120D9FB4D204120D9F10
:1015A300DCD204120D9FF5D204120D9F19D304123D
:1015B3000D9F37D304120D9F4ED304120D9F7CD37E
:1015C30004120D9F97D304120D9F1FDC04120D9F6D
:1015D30081B304120D9F91B304120D9F96B40412AC
:1015E3000D9FC8B404120D9FF8B404120D9F1BB5D0
:1015F30004120D9F32B504120D9F6CB504120D9F9A
:10160300D1B504120D9F13B604120D9F5AB60412DE
:101613000D9F87B604120D9FB2B604120D9F44D1DD
:1016230004120D9F56D104120D9F6AD204120D9F0E
:101633006DD204120D9FCED604120D9F04D704124F
:101643000D9F1CD704120D9F5ED704120D9F6ED7FA
:1016530004120D9FB2D704120D9FA89304120D9F7D
:10166300EB9304120D9F509404120D9F6F94041278
:101673000D9F119504120D9F1A9504120D9F6B95E2
:1016830004120D9F949504120D9FA19504120D9FB2
:10169300139604120D9FA19604120D9FE696041251
:1016A3000D9F1F9704120D9F849704120D9FAD97F2
:1016B30004120D9F249804120D9F739804120D9F1A
:1016C300B09804120D9FE59804120D9FF798041229
:1016D3000D9F099904120D9F289904120D9F3199AA
:1016E30004120D9FED9904120D9F309A04120D9F61
:1016F3006E9A04120D9FD4DB04120D9FBBFE0112E0
:101703000D9FB6C804120D9FECC804120D9F34C977
:1017130004120D9F8DCA04120D9F36C303120D9F31
:101723005CC403120D9F98C403120D9F56C6031287
:101733000D9F84C603120D9FEEC803120D9F2EC981
:1017430003120D9FD0CA03120D9F66CB03120D9F88
:10175300C0CB03120D9F50CC03120D9F94CC0312E8
:101763000D9FD6CC03120D9F3BCE03120D9FBBCF13
:1017730003120D9FFCD103120D9F2AD203120D9F5A
:1017830056D203120D9F5FD203120D9FBCD20312D8
:101793000D9F55D303120D9F6CD603120D9FF2D6E6
:1017A30003120D9F15DB04120D9F2BDB04120D9FFB
:1017B3007CAF04120D9F92AF04120D9F36B004123A
:1017C3000D9F75B004120D9F92B004120D9FC3B00C
:1017D30004120D9F10B104120D9F44B104120D9F0A
:1017E3007FB104120D9F74B304120D9FCFD4041262
:1017F3000D9F2ED504120D9F6CD504120D9FADD5F0
:1018030004120D9FB9A502120D9FC5A502120D9FCB
:1018130027A602120D9F31A602120D9FBEA6021229
:101823000D9FFAA602120D9FF6A702120D9F54A850
:1018330002120D9FF4A802120D9F74A902120D9FAC
:1018430043AB02120D9F85AD02120D9FCCAE021267
:101853000D9F09B102120D9F71B202120D9F1DB3AC
:1018630002120D9F0CB802120D9F02B902120D9FB6
:101873009AB902120D9FBFB902120D9F57BA0212F5
:101883000D9F75BA02120D9FECBA02120D9F0BBB8E
:1018930002120D9F38BB02120D9FD0BC02120D9F86
:1018A300F1BC02120D9F97BD02120D9FDEBD021205
:1018B3000D9F52BE02120D9FE0BE02120D9F3DBF4F
:1018C30002120D9FB6BF02120D9F38C102120D9F67
:1018D3009CC302120D9F25C402120D9F53C4021212
:1018E3000D9FDDA004120D9FBAA104120D9FDAA172
:1018F30004120D9FFAA104120D9F41A304120D9F20
:10190300CCA504120D9F4CA604120D9FE37F001279
:101913000D9F7CBA04120D9F3BBB04120D9FA1BB0C
:1019230004120D9F50BC04120D9F14AE03120D9FA1
:1019330043AE03120D9FBBAE03120D9FCAAF03123A
:101943000D9F26B003120D9F93B103120D9FAFB1EC
:1019530003120D9F01B203120D9F3FB203120D9F9D
:1019630052B203120D9FAAB203120D9F6CB303125E
:101973000D9FE8B303120D9F1FB403120D9F57B4BD
:1019830003120D9FDFB503120D9FBEB603120D9F09
:101993000CB803120D9FEFB803120D9F7BB903120E
:1019A3000D9FBBB903120D9FDAB903120D9F25BA20
:1019B30003120D9F45BA03120D9FDEBA03120D9F4A
:1019C30064BB03120D9FBFBB03120D9FFFBB03122A
:1019D3000D9F95BE03120D9FAEBF03120D9FF4BF63
:1019E30003120D9FE9C003120D9F11C103120D9F36
:1019F30014C103120D9F1EC103120D9F3AC103129E
:101A03000D9FB4C103120D9FEDC103120D9F19C2A7
:101A130003120D9F40C203120D9F64C203120D9F58
:101A2300D5C203120D9FE8C203120D9F17C3031201
:101A33000D9F33DA04120D9F3FDA04120D9F73DA00
:101A430004120D9FF97F00120D9FE59703120D9F5E
:101A5300089803120D9F559903120D9F9E99031227
:101A63000D9F0A9A03120D9F689A03120D9F6B9A9A
:101A730003120D9FBC9A03120D9F319B03120D9FFE
:101A8300B69B03120D9FB99B03120D9F3A9C031241
:101A93000D9F7B9C03120D9F67A003120D9F11A244
:101AA30003120D9F61A203120D9FE8A503120D9F60
:101AB3001BA703120D9F95A803120D9F32A90312B2
:101AC3000D9F1DAA03120D9F72AC03120D9F52EEC0
:101AD30001120D9FFCEE01120D9F67EF01120D9F86
:101AE30082EF01120D9F07F001120D9F61F00112A9
:101AF3000D9FA8F001120D9F0FF101120D9F8EF2A1
:101B030001120D9FBDF301120D9F45F401120D9FAC
:101B13004EF601120D9FFBF601120D9FF88504127C
:101B23000D9F70F801120D9F2BFA01120D9FC3FB3D
:101B330001120D9F56FC01120D9F7CFD01120D9F9A
:101B4300C8E102120D9F2BE202120D9F73E20212F3
:101B53000D9FB7E202120D9F12E302120D9F6FE376
:101B630002120D9FAAE302120D9F2CE402120D9F95
:101B730086E402120D9F04E602120D9F84E6021210
:101B83000D9FDFE602120D9FF9E602120D9F1AE781
:101B930002120D9F13C802120D9FF0E902120D9F4E
:101BA3000FEA02120D9FFFEA02120D9F32EC02129E
:101BB3000D9FB1EC02120D9FEDEC02120D9F5CED37
:101BC30002120D9F11EE02120D9FE9EF02120D9FFB
:101BD300F0F002120D9F68F202120D9F5EF40212E2
:101BE3000D9FD4F602120D9FAEF802120D9F6FF9EE
:101BF30002120D9FE7F902120D9FFEF902120D9FCB
:101C0300F5FA02120D9FE9FB02120D9F58FC021216
:101C13000D9FFBFC02120D9F52FE02120D9F11FF3E
:101C230002120D9F79FF02120D9FC2BD04120D9F78
:101C3300DDBD04120D9F21BE04120D9F47BE041289
:101C43000D9F6EBE04120D9F86BE04120D9F28BF0A
:101C530004120D9F3DBF04120D9F60C004120D9F1F
:101C630069C004120D9F72C004120D9F7BC0041241
:101C73000D9F85C004120D9FCAA604120D9FD6AAFC
:101C830004120D9FDBAA04120D9FDDAA04120D9FFF
:101C930066CB04120D9F9BDC04120D9F44AB041210
:101CA3000D9FC7DC04120D9F39D904120D9F63D910
:101CB30004120D9F008002120D9F338002120D9FAC
:101CC3009F8002120D9F3A8102120D9FD78102124B
:101CD3000D9F1C8202120D9F3E8202120D9F57829E
:101CE30002120D9F7D8202120D9F9F8202120D9F91
:101CF300DD8202120D9F218302120D9F4383021284
:101D03000D9FA58302120D9F6C8402120D9F2385E4
:101D130002120D9F958502120D9F608602120D9F80
:101D2300B38602120D9F198702120D9F5387021269
:101D33000D9FA58702120D9F138802120D9F7E88A7
:101D430002120D9F818802120D9F028902120D9FBC
:101D5300998902120D9F198A02120D9F388A021265
:101D63000D9F9C8B02120D9FA98B02120D9FB58CA8
:101D730002120D9FC28C02120D9FCB8C02120D9F7B
:101D8300A38E02120D9FBD8F02120D9F3690021279
:101D93000D9FA89002120D9FCA9002120D9F5E9193
:101DA30002120D9F329302120D9F099702120D9F8B
:101DB3001D9702120D9F2D9702120D9F3797021246
:101DC3000D9F409702120D9F499702120D9F539743
:101DD30002120D9F809702120D9FA99702120D9F69
:101DE300B49702120D9FD89702120D9FFC9702120F
:101DF3000D9F669802120D9FAC9802120D9FC99811
:101E030002120D9F469902120D9F7D9902120D9F9A
:101E1300BC9902120D9F099A02120D9F8F9A02120A
:101E23000D9F5D9C02120D9FE09C02120D9FC49DAD
:101E330002120D9F2BA002120D9F84A002120D9F70
:101E4300CEA002120D9F29A202120D9F5EA20212C2
:101E53000D9FB0A202120D9F65A302120D9F14A441
:101E630002120D9F51A402120D9FE6A402120D9FB0
:101E730052A502120D9F7A2D00120D9FAC2D001258
:101E83000D9FDA2D00120D9FB02F00120D9F903081
:101E930000120D9FE83000120D9F233200120D9F98
:101EA3006F3200120D9F983500120D9F8B38001270
:101EB3000D9FDB3900120D9F713A00120D9F7D3A81
:101EC30000120D9FAF3A00120D9F323C00120D9F7E
:101ED300E33D00120D9F773E00120D9FBA3E0012A4
:101EE3000D9F383F00120D9F553F00120D9F853FF8
:101EF30000120D9FBA3F00120D9F8A4000120D9FE2
:101F0300334100120D9FB94300120D9FD9440012B3
:101F13000D9FC44500120D9F464600120D9F7A4A3D
:101F230000120D9FB74A00120D9F0F4B00120D9F19
:101F3300424B00120D9FAC4B00120D9FE24B00125F
:101F43000D9F6D4C00120D9FC54C00120D9F9C4DB3
:101F530000120D9F554E00120D9FF04E00120D9F63
:101F6300F85100120D9F145300120D9FB756001223
:101F73000D9FAB5700120D9FAE5700120D9FDD57FB
:101F830000120D9FE35900120D9FBC5A00120D9FC2
:101F9300FF5A00120D9F555C00120D9F945C0012B6
:101FA3000D9F1D5D00120D9F515D00120D9F165E6A
:101FB30000120D9F2E6000120D9F9F6000120D9F57
:101FC300DF6000120D9F6D6100120D9F8F62001282
:101FD3000D9F516300120D9F586500120D9F706590
:101FE30000120D9F846500120D9FBC6500120D9FAA
:101FF300EA6500120D9F696700120D9F8E6800123B
:102003000D9FEB6800120D9F9D6900120D9FC4691F
:1020130000120D9F8B6A00120D9F236B00120D9F00
:10202300496D00120D9F7E6D00120D9FE16D001230
:102033000D9F106F00120D9FB86F00120D9FE96F77
:1020430000120D9F017000120D9F907000120D9FE2
:10205300447300120D9F1C7500120D9F38750012FA
:102063000D9F547500120D9F227600120D9F157A55
:1020730000120D9F268501120D9F588501120D9F99
:10208300478901120D9F938901120D9FD98901126E
:102093000D9F7B8A01120D9FD78A01120D9F1C8B06
:1020A30001120D9F638C01120D9F778D01120D9FFD
:1020B300669101120D9FEA9101120D9FF792011291
:1020C3000D9F539301120D9F439501120D9FB895D8
:1020D30001120D9FC29501120D9FCF9501120D9F05
:1020E300FA9501120D9FE19601120D9F8B97011234
:1020F3000D9F099801120D9F299801120D9F529867
:1021030001120D9F749801120D9FD49A01120D9F15
:102113009A9B01120D9FDF9B01120D9F5C9C011284
:102123000D9F0D9D01120D9F3F9D01120D9F859DDA
:1021330001120D9FC19D01120D9F119E01120D9F52
:10214300659E01120D9FBB9E01120D9F079F0112F9
:102153000D9F749F01120D9FEF9F01120D9FBAA156
:1021630001120D9FBAA201120D9FDFA301120D9F51
:102173001EA701120D9F31AA01120D9FEEAA011293
:102183000D9F32AB01120D9FE2AC01120D9FF6AC15
:1021930001120D9F00AD01120D9F0AAD01120D9F9B
:1021A30016AD01120D9F32AD01120D9FDDAD01126F
:1021B3000D9F1CAE01120D9F26AE01120D9F30AE76
:1021C30001120D9FA0AE01120D9FEBAE01120D9FE8
:1021D30000B001120D9F5CB001120D9FDDB0011222
:1021E3000D9F9CB101120D9FA5B201120D9FD9B392
:1021F30001120D9FC7B401120D9FDFB401120D9F91
:102203003AB501120D9F58B501120D9FA0B50112E9
:102213000D9FC7B501120D9F62B601120D9F28B71E
:1022230001120D9FBAB701120D9F34B801120D9F11
:102233004EB901120D9FFBB901120D9F23BB011271
:102243000D9F73BB01120D9FD7BB01120D9F39BCAC
:1022530001120D9F67BC01120D9F8BBC01120D9FD4
:10226300C0BC01120D9FF1BC01120D9F24BD0112D0
:102273000D9F44BD01120D9FACBD01120D9FA0BE69
:1022830001120D9FFBBE01120D9F24BF01120D9F72
:10229300ACBF01120D9F2FC001120D9F5AC0011236
:1022A3000D9F3FC101120D9F58E503120D9F90E54D
:1022B30003120D9FB1E503120D9FF3E503120D9F6A
:1022C30055E603120D9F5FE603120D9F6FE603129F
:1022D3000D9FAAE603120D9F8AEA03120D9F77EC66
:1022E30003120D9F5DEE03120D9FF4EE03120D9F7B
:1022F30096EF03120D9F41C301120D9FBFC301123D
:102303000D9F1BC401120D9F66C401120D9F81C452
:1023130001120D9FACC401120D9FC9C401120D9F80
:10232300D5C401120D9F6CC601120D9F85C6011203
:102333000D9F0AC701120D9F1DC701120D9F3CC7B8
:1023430001120D9FE0C701120D9F61C901120D9F7C
:1023530014CB01120D9FAACB01120D9FADCB01121D
:102363000D9F1DCC01120D9F3BCC01120D9FD2CCB2
:1023730001120D9F1ACD01120D9F1DCD01120D9F4C
:10238300E3CD01120D9F50CE01120D9F76CE0112A7
:102393000D9F01CF01120D9F1FCF01120D9F65CF1E
:1023A30001120D9F19D001120D9F63D001120D9FD1
:1023B30092D001120D9FEFD001120D9F24D1011273
:1023C3000D9F50D101120D9F5ED101120D9FABD114
:1023D30001120D9F1BD201120D9F64D201120D9F9A
:1023E300B0D201120D9FDCD201120D9FE7D2011270
:1023F3000D9F05D301120D9FF0D301120D9FFAD348
:1024030001120D9F35D401120D9F45D401120D9F6A
:102413004ED401120D9FA2D401120D9FB6D4011206
:102423000D9FE5D501120D9FFAD501120D9F88D698
:1024330001120D9FCDD601120D9F59D701120D9F89
:1024430064D701120D9FA6D801120D9FC1D80112A6
:102453000D9F0DD901120D9F7CD901120D9FB5D986
:1024630001120D9FCFD901120D9F11DA01120D9F99
:10247300E1DC01120D9F8EDD01120D9FFBDD0112C8
:102483000D9F3BE001120D9F53E001120D9F56E09B
:1024930001120D9F62E001120D9F76E001120D9F64
:1024A3007EE001120D9FB1E001120D9FB3E1011215
:1024B3000D9F3AE201120D9FAAE201120D9F2CE338
:1024C30001120D9FEDE301120D9F0CE401120D9F0C
:1024D300ADE401120D9F0AE501120D9F0DE50112F6
:1024E3000D9F81E501120D9FD0E601120D9FD6E7E6
:1024F30001120D9F61E801120D9F7CE901120D9FEE
:1025030044EA01120D9F75EA01120D9F98EA011228
:102513000D9FA1EA01120D9FD0EA01120D9F60EBFE
:1025230001120D9F16EC01120D9F8BEC01120D9FF2
:1025330032ED01120D9FA7ED01120D9FDEED011289
:102543000D9F1CEE01120D9F558504120D9F55849E
:1025530004120D9F6E8304120D9F5E8104120D9F62
:102563006C8004120D9F0A8004120D9FD1970312F1
:102573000D9FC79703120D9F5C9703120D9F8D95B7
:1025830003120D9F70C702120D9F2AC702120D9FDF
:102593004B9503120D9F4F9403120D9FF5C6021224
:1025A3000D9FC2C602120D9F239403120D9FDA934F
:1025B30003120D9F1B9303120D9F079003120D9F90
:1025C300C88D03120D9F958D03120D9F3C8D031231
:1025D3000D9FCF8C03120D9F8E8C03120D9FC78B03
:1025E30003120D9F618B03120D9F008B03120D9F2E
:1025F300A08A03120D9F778903120D9F0B89031283
:102603000D9F638803120D9F5E8803120D9F5288EE
:1026130003120D9FADC602120D9F82C602120D9FBB
:10262300E58904120D9FB18904120D9F5A89041282
:102633000D9FC88704120D9F1A8704120D9F85846E
:1026430003120D9F5F8403120D9FFD8303120D9FE1
:102653009E8303120D9F7D8604120D9F5F830312D9
:102663000D9F4C8303120D9F418303120D9F108313
:1026730003120D9F738604120D9FFD8003120D9F9D
:1026830074E702120D9F708003120D9F2C800312BA
:102693000D9F008003120D9FF3FA03120D9FC6FADC
:1026A30003120D9F93FA03120D9F6BFA03120D9FF2
:1026B3000CFA03120D9FECF903120D9FB7F90312E5
:1026C3000D9F63F603120D9F4BF403120D9F35F21A
:1026D30003120D9FB5F103120D9F0C8604120D9F7B
:1026E30061F103120D9F15F103120D9F6DF003129B
:1026F3000D9F9FF70100000080FBE4738F00010032
:10270300AD1C87000100AB1C35000400741C2500C0
:102713000200781C260002007A1C270002007C1CA1
:1027230028000100861C29000100871C8400040086
:10273300041A86000100221C2A000100881C2B00B9
:102743000100891C2C0001008D1C2D000800101AAB
:102753002E0001008E1C2F0001008F1C3000010091
:10276300901C31000100911C32000100181A330043
:102773000100191A34000100921C360001001A1AD4
:1027830038000100931C390001008C1C83000200F7
:10279300A91C63000100261A640001008A1C65005D
:1027A30001008B1C6D000100271A71000800081A34
:1027B30066000100A81C43000100991C44000200AC
:1027C3009A1C450001009C1C460002009D1C47000A
:1027D30008001E1A480001009F1C4B000100A01CAA
:1027E30004000100AC1CA1000100B01C3700010073
:1027F300AF1C88000100AE1C3C0001001B1A3D0009
:102803000100941C49000200A11C67000100281A62
:102813004D000200A31C4E000100A51C4F00020046
:10282300A61C3E000100981C510001001C1A520016
:102833000100961C53000100971C540001001D1A4F
:1028430000000000000000000100200122850000BC
:1028530002002001218500000300200120850000E3
:1028630000002001248500000400420130840000A0
:10287300050042010B84000007003001258500009C
:10288300FDFF21010485000006004201BD83000015
:10289300004020012285010020002005381C010092
:1028A30021002005391C000400002105441C0004FC
:1028B3000100210110850004020021010A850204A0
:1028C300000021053A1C02040100210106850204CF
:1028D3000200210108850304000021053C1C0304B8
:1028E300010021010C850304020021011E8505045A
:1028F300000021053E1C0504010021011C8505047F
:10290300020021011A85000136360101000102018E
:10291300000103010001040106060502000007018E
:1029230000340801000F090401010D0100FF0E0826
:10293300000017020000190100FF1A0100011B012A
:1029430000FE1C0100081D0200001F010001200100
:102953000001210200002301000F240200002601D0
:10296300000127010008280200FF2A0100072B01AC
:1029730002402C0100002D0100012E0100012F0156
:1029830000FF30010B1D310800003A0100083B0134
:10299300000F3C0100013D0100FF3E040000420422
:1029A3000000460400004A0400004E0400005204E4
:1029B3000000560400005A040000010371030103E0
:1029C30001030103010301032203020301031003B3
:1029D300000300030003000300030003000342039A
:1029E3000003240306030003000304031203250367
:1029F3002303250323030403040300030003000349
:102A0300440300030003230300036503210035038C
:102A130081030003050300030003000300032503F0
:102A230023030101710101010101110101013101BF
:102A3300010101018001100161013B0014006301E8
:102A430073017201620143010001130106013D019B
:102A5300350004011201000100010001000104011D
:102A63000401330133013C0144013201360000010A
:102A730000016501000135008101000105018201AA
:102A83008301000103007100300160001100700038
:102A93003102200350048000100061000000140084
:102AA300630073007200620043000000130006001D
:102AB30000000000040012000000000000000000FD
:102AC30004000400370037003C024400000000000B
:102AD30000000000650000003500810000000500D3
:102AE3000000830000000302710230016002110242
:102AF30070020102020202028002100261023A0025
:102B03004100630273027202620243020002130273
:102B13003800000200020402120200020002000256
:102B2300000204020402370037003C0244020002A0
:102B33003900000200026502000235028102000230
:102B43000502820283020002360001000600000033
:102B53000F0000000000000000000000000003FF61
:102B6300FF00000403FFFF0000FFFF0FF401000557
:102B7300C4040320000100000B000000000000005B
:102B83000003010F0000000000000000000000002F
:102B93000000000000000000000000000000000032
:102BA300000000000000BE18DC18C4182218000042
:102BB3000000000000000000000000000000CA1830
:102BC300221800000000D0182218000000000000A6
:102BD3000000D618221800000000000000000000CA
:102BE30000000000000000000000000000000000E2
:102BF30000000000000000000000000000000000D2
:102C030000000000F81A0100F81A02006E1A028090
:102C1300681A0300741A04007A1A0480801A0500E3
:102C2300861A0600921A3100A41A3300AA1A340035
:102C3300B01AFFFF0000020400002905421C020431
:102C430001002101148502040200210112850504FB
:102C530000002105401C050401002101188505041D
:102C63000200210116850300030004000800100080
:102C73001F003E007B00F600EC01D703AF075D0F9A
:102C8300B91E713D000007ECFDFDFDECDCDCCCBCA6
:102C9300ACAC9C9C8C7C7C6C6C5C5C5C4C4C3C3C21
:102CA3002C2C1C1C03EAF5E5D5D5C5B5A595958552
:102CB30085757565655555454535352525151505C1
:102CC3000AEC2002B62005C22007BC200C9E200D72
:102CD300AA20FF000000160F00000B150B020002D4
:102CE300220F3300000E0FD0D1D2D3D4D5D6D7D8EC
:102CF300D9DADBDCDDDEDF5A6967426565416C6C7E
:102D030069616E63653039303016181920231A1C37
:102D13001E3000034D4C4651181A250502000119B7
:102D23001618161618230300303017181921301BF4
:102D33001D1F30003C40423A3F3F392F47300C0EB5
:102D4300020B040B0A0708000F0204020101010130
:102D5300090200BE040AE80300000E00010003009C
:102D6300E80304090618031E10030A0C041E0828AE
:102D7300020C0508150404C082C0831211AA901A1C
:102D830051748EF0A3741EF0901A537494F0A374CC
:102D93001EF0901A55749AF0A3741EF0901A57748B
:102DA300A0F0A3741EF0025AB574F712089E901A8D
:102DB30045E4F0E9901A44F07C1E7D1A7A467B1AAA
:102DC3001217FE901C9FE0901A4EF0901A4F740851
:102DD300F0A3741A023D4274F012089EEAFEEBFF60
:102DE30054807003022F4B901A44123DD770030294
:102DF3002F44EA241B125642707CEA241F125642C7
:102E030064137002A3E0706E8A828B83122F9990F1
:102E13001A5F124BD4750A00750B00800D123C1813
:102E2300126CB4121714AA0EAB0FEA4B60488A82D5
:102E33008B83E0650C7004A3E0650D702C8A828B94
:102E430083A3A3A3A3E0F50EA3E0F50FE50A450BC7
:102E53008A828B83A3A3A3A360C3123F1A850A822A
:102E6300850B83A3A3A3A380B78A0A8B0B8A828BC8
:102E730083124BD080B4E508242A125642FCE5089D
:102E83002402F8E43509F9E8FAE9FB901A5F1230F5
:102E930080A3A3E06402703C8A828B83124BD480AC
:102EA3000B88828983A3A3A3A3123F1AE849601F57
:102EB30088828983E06A7003A3E06B70E488828967
:102EC30083A3A3E06C70DA901CA5125972806BEC9B
:102ED300F9121ECA850882850983E06401704FE5F3
:102EE300082418122F82120DC012625C120C20E506
:102EF300082412122F82120DC0E508123DCB120DC9
:102F0300BCE508240B126260120C24E50824171296
:102F13003D68E5082402FCE43509FDE5082419FAB7
:102F2300E43509FB1226CE740A120DEA800CE06424
:102F3300027007AA08AB09121FA8AA08AB09121648
:102F43007EEEFAEF6480802DEA5402600C901CB48C
:102F53007401F0EA6402FA8023EA5408601A121E2C
:102F6300C4EA4B700B901A611261377A08122F8FE3
:102F7300EE6408FAEFFB80047A007B000268E6F552
:102F830082E43509F583E0F50A780A22FB901A44B6
:102F9300E0F91217D422A3A3E0F50CA3E0F50D2268
:102FA3007B00901A44E0F91217C874042274F412D7
:102FB300089E8A088B098A828B83A3A3A31249CC18
:102FC300123D7338F583E02409FA12687E70030218
:102FD30030738A828B837402124A41850882850981
:102FE30083123080E8F0A3E91264F88A828B83A30A
:102FF300A3A3A3A3A3A3A3F0E5082403F8E435093B
:10300300123075123D733AF583E08E828B83A3A34E
:10301300A3A3F0EE2409FAE43FFB8E828F83A3A3DC
:10302300125C24F5838882E0A2E58E828F83A3A3BA
:10303300A3A3A3500474018001E4F0E5082403F57D
:10304300828983124BD4EA1251553BF583126845AA
:10305300120DB8123D723B125D168E828F83A3A3AD
:103063001279F4120DEAEEFAEFFB901A441268CBD0
:103073008016F98882F583E0FAA3E0CA22124D7123
:10308300A3A3227402120DEA7F04020B1174F2123D
:10309300089E8A088B09ECFAEDFB740E1210DDE032
:1030A300FC1211E08A0C8B0DAE0CAF0DEA4F6030B1
:1030B300AC08AD091211CEE96026AC08AD09EEFAF1
:1030C300EFFB1211D4E970148E828F83123F07FA3B
:1030D300EFFB1211C8AA08AB091211F8790080029C
:1030E30079B4024CC074F012089E74F6120E82EA90
:1030F300FEEBFF8C088D09750FB385218285228332
:10310300E4F0750E008002050E902D78E493F8E547
:103113000EC398400302320FAA0E7B0012121C8AC0
:103123000A8B0BEA4B60E08A828B83A3A3123216CD
:1031330028F0F8C3EE98EF940050CC7C157D00790D
:1031430000AA08AB09121666850A82850B83A3A31E
:10315300A3A3126CF1E0F8EEC3982925E0F8E43359
:10316300F9E50A28F582E50B39F583A3A3A3A3A305
:10317300A3123D7DA31257998A0C8B0DAC0CAD0D98
:10318300AA08AB091217FE850A82850B83A3E064A4
:1031930001700A12625C7401123D8F804474011243
:1031A3000E62850A82850B83124BD2121204E960E8
:1031B3003D74091210DDE0C0E012625CD0E0F074EF
:1031C300091210DDE0640370137401120E62E50846
:1031D300240BFAE43509FB1217FE80127401121056
:1031E300DD123F1AE50812577F3509126CB2850AC2
:1031F30082850B83126268123D8FA3A3E0C0E0E5D2
:10320300082414126260D0E0F0750F00A90F740A4D
:103213000268E3A3A3A3E0F8852182852283E02249
:1032230074F712089EE9FE8A828B83A3A3A3A3A348
:10323300A3E0540860338A828B83A3A3A3A3A3A32D
:10324300E0540260218A828B83A3A3A3A3A3A3A335
:10325300A3A3E06406600F74E96E600A74CD6E6028
:103263000574F06E7003121EAC0245BF74F01208B1
:103273009E74EF120E82740F1210DD12601B74081D
:103283001210DDE9F0ECFEEDFF74051210DD1243C0
:10329300871245ABA3E0F91211EC74061210DD128C
:1032A300601B74061210DD1251E6700302352A12F8
:1032B3003DB7E0FA74061210DDE0F9121DEC123589
:1032C3008AF8A3E0F9E849700302352AEE2403F5EE
:1032D3000AE43FF50BEE2406F508E43FF5097C000C
:1032E300850882F583124BD4850A82850B83E0F926
:1032F3001211F274031210DD12601B850A82850B12
:1033030083E0C0E0852182852283123583D0E012D9
:1033130052FBF9852182852283123C1F124E4D12E6
:103323003219FAA3E0CA2407F582E43AF583E8F0F8
:10333300A3E41260262406F582E438F583E4126CD4
:10334300BE1249C0120DB8EE123D733F125D1674E2
:10335300031210DD1249CC24091279EE120DEA741E
:10336300291210DD126CEB12307A12530E3A126CE2
:10337300B2742B1210DDE0C0E08521828522831216
:1033830051ADD0E0F074021210DDE4F07425121098
:10339300DD780812108602348174031210DD125C8A
:1033A300DE8882F583123572A3A3A31257A4FB12FE
:1033B300120A850E82850F83A3EAF0A3EBF0740350
:1033C3001210DD123583A31235721259B3A2E650DF
:1033D3000F850E82850F83A3A3A3A3A3E0D2E1F0FD
:1033E30074051210DDE0706B850E82850F83A312C6
:1033F3003F1A901A9FE0687003A3E0697055850E29
:1034030082850F83A3A3A3123D52750C00780C127F
:103413000DC07808120DB474291210DDE0F50C7894
:103423000C120DC074271210DD120C24901AAC126A
:103433000C24790074191210DD124BA4121FF074BE
:103443000A120DEA850E82850F83A3A3A3A3A3E02B
:103453004405F074021210DDE004FC8E828F8312A7
:103463004BCE8E828F83A3A3A3E0F91211F27403D0
:103473001210DD12601B74021210DDE004F07403FD
:103483001210DD1251E6606774021210DDE0FA7467
:10349300061210DD123F1AC3EA98E49950517402E0
:1034A3001210DD12385C852182852283E028F8A37F
:1034B300E039F9E8240FF50EE439F50F850E82F5AE
:1034C30083E4F074031210DD12357D64016003029E
:1034D300339C74051210DD74011268D1F074031269
:1034E30010DD125AA512387FE8F0A3E90233C08534
:1034F3002182852283124BD4121DF28521828522DB
:1035030083120C2474261210DDE0FD74251210DDE5
:10351300E0FC740A1210DDE0F9EEFAEFFB121EA6CE
:103523007402120DEA80438E828F83A3A3A3E0C0AB
:10353300E0740C1210DDD0E0F012673AE0C0E074E2
:103543000D1210DDD0E0F074061210DD1251E6709A
:1035530009740E1210DD74B98007740E1210DD7435
:1035630010F07409120E5A121FEA74110268E3E094
:10357300850E82850F83A3A3A322E01252D3E022F8
:10358300E01252D3A3A322852182852283EAF0A3EA
:10359300EB1251EF2274F012089E74E1120E827442
:1035A300041210DDE9F074031210DDECF074021262
:1035B30010DDEDF08A0E8B0F742F1210DD122F9B8E
:1035C300AA0CFB121DE074011210DDE9F0AA0CAB8A
:1035D3000D121DE674011210DDE0700302385785E9
:1035E3002182852283E480158E828F83A3A3A3A3E4
:1035F300A3E0D2E3F0852182852283E004126829C7
:10360300F8852182852283E0C398400302384E74F3
:10361300011210DDE0700302384E8521828522837A
:1036230012385CE50C28F8E50D39F9E8240FFEE4BF
:1036330039FF8E82F583A3A3A3A3A3E0A2E040B541
:10364300750800750A08750B0074021210DDE0603E
:10365300037508207C087D0079007405120E5A1248
:1036630016668E828F83E0603E901AEFE0640170ED
:103673001AE508D2E3F508750B1012386C1210DD49
:10368300E8F0A3E912569774FF807643080C750A95
:103693000C8E828F83A3123877126CB474051210C8
:1036A300DD74FFF0A3805A74041210DDE06009E5B5
:1036B30008D2E6F508750A0A8E828F83A3E064FEBA
:1036C3007003A3E0F4703074121210DD74041262FC
:1036D30086F8741D1210DDE8124A417412120E5A54
:1036E300121D0E7D007C00790074151210DDAA8274
:1036F300AB83121AE0800B12386C1210DDE8F0A3D2
:10370300E9F074071210DDE508F0123DAEC0E07475
:10371300091210DDD0E0F0740A1210DD7401F074A8
:1037230005120E5A121FAE74111210DDE06003026F
:10373300382C740D1210DD1252F68E828F83A3A3E0
:10374300A3A3F0740D1210DD124A0FE50AF0A3E5EE
:103753000BF074031210DDE0C0E01249A0D0E012B8
:1037630059B36011901AEFE0C0E0740D1210DD122E
:1037730049EAD0E0F0740D1210DD123F1A850C8275
:10378300850D83A3A3A3A3A3123865241C1260157C
:10379300126CCE12386712596539126759C0E0129C
:1037A3004987D0E012681EC0E0740D1210DD124488
:1037B300CDD0E012651FC0E0740D1210DD1244C3BA
:1037C300D0E0F0740D1210DD123877123865242A18
:1037D300126015850E82850F83A3A3A3A3A3A3A3BE
:1037E300A3E012600E123D9DC0E01244AFD0E0F0A2
:1037F300740D1210DD124BD4850E82850F8312686F
:10380300342428F582E43B126CB2123DA6126845BB
:10381300120DB8125D0FEA125FA73B1279F2120D77
:10382300EA7405120E5A121FB48E828F83A3A3A3C8
:10383300A3A3E0D2E0F074111210DDE060030235BF
:10384300EB74011210DDE0140235F77900AA0CAB1A
:103853000D121EB2741F0268E3E075F007A4F8A905
:10386300F022A3A3124BD8E8228E828F83A3123FA8
:103873001E740522E012387FA3A3A322F8A3E0F964
:10388300850E82850F83A32274F012089E74E812BA
:103893000E82E9852182852283F08A0E8B0F8A822C
:1038A3008B83A3A3A3A3A3A3A3A3E0F9121E0A8A52
:1038B300088B09EA4B7003023968E50E125169124D
:1038C3003DC6123D5D852182852283E06003023976
:1038D3006B7C04850E82850F83A3A3A3A3A3A3A359
:1038E300A3E0F9121E10EE4F607B8E828F83A3A399
:1038F300A3A3123F1A74071210DD12614C123F1A70
:1039030074091210DD124A71C0E074111210DDD077
:10391300E01264FDA3A3A3A3A3A3A3123F1A740FEE
:103923001210DD126CB474121210DDE41268D9C8DF
:10393300241FF582E438F583125CDAC413135403AD
:10394300FC70027C048E828F83E0F97808120DBC30
:10395300742059FD744059F97403120E5A121EA6AD
:103963007402120DEA0268E17C08850E82850F83DA
:10397300A3A3A3A3A3A3A3A3E0F9121E108B0BEA93
:103983004B70030238E9EE4F60DB85218285228389
:10399300E0F50C780C120DC0850882850983A3A37A
:1039A300A3A3A3A3A3E0F50C780C120DC08A828B0A
:1039B30083A3A3A3E0FB8A82850B831275118A82FA
:1039C300850B83E0FA8E828F83A3A3E0F91226D4BA
:1039D3007402120DEA0238ED74F712089E74FA129B
:1039E3000E82E9FE780179017F00800379000F12CE
:1039F3004D50E0FCEFC39C5026EF75F007A4FC8507
:103A0300F008AD08EA2CFCEB3DFD12433FE0A2E0D9
:103A130050DA540C60D6E0A2E250D3780080CF8A0B
:103A2300828B83A3A3A3A3A3A3E0703DE9A2E040F9
:103A33000574016E70338A828B83A3A3A3A3A3A30C
:103A43007401123D2FE0C0E074031210DDD0E012C8
:103A5300439EE0C0E074041210DDD0E0F074051260
:103A630010DDE8125C79121FEA74060245BCC082BD
:103A7300C0837901121EB2025AB574F412089EEA89
:103A83004B901CB46019E4F08A088B09F50AF50B16
:103A93007808120DB47A02122FA3120DEA800A7469
:103AA30001F07A027B00122F9002308B74F012081F
:103AB3009E74F3120E8274031210DDE4F0A3F090EF
:103AC3001A5F123D5D74011210DDE4F0A3124A4641
:103AD30004F0901A99E0A2E35003023BA2123D23A3
:103AE30074091210DD1210C674091210DD78081261
:103AF3001086901A617808120E6A74051210DD7828
:103B030008121077123C2674051210DD7808121083
:103B13002A50077A017B00023C1374051210DD78EA
:103B23000C121086901CA4E0F509780C7908120891
:103B33002FA80CA90D901CA5E0C398E4995003E0AD
:103B43008001E8852182852283F074091210DD78D3
:103B530008121086C008C009C00AC00B74051210F1
:103B6300DD780C121086123C26780C790812082F87
:103B7300E4F50AF50BD00FD00ED00DD00C780C79EC
:103B830008120F3D901A61780C1210778011123CC5
:103B930018126CB4EEFAEFFB121714AE08AF09EE6D
:103BA3004F60658E828F83123216C398502DEE2498
:103BB30003F8E43FF9E0FA88828983E0C39AF0606E
:103BC3002374031210DD12408074011210DDEEF035
:103BD300A3EF126167FEA3E0FF80C48E828F83A3ED
:103BE300A3A3E4F08E828F831279AB74011210DDEC
:103BF3001251E68E828F83A3A3A3A3609112614027
:103C03001210DD123C1F808974031210DD124BD495
:103C1300740D0268E3123F1E901A5F22125D05A322
:103C2300A3A322901CA31279B3E4F50AF50B227423
:103C3300F012089E8A088B09890A78007900901A85
:103C43005F123D5DFBEE4B601E088E828F83A3A344
:103C5300A3A3124B9E601008E87001098E828F8324
:103C6300123D59EA4F70E3901CA6124BD4C3E89A55
:103C7300E99B4003023D167A06123D19A80CA90DD3
:103C8300EA497003023D168A828B83E508F0A3E5B7
:103C930009123D38E50AF0901CA5124D58123D2F2C
:103CA300A3E4F0A3F0901A5F124B9E600D8E828FF7
:103CB30083A3A3A3A3126CB48017901A5F126CB4EE
:103CC300901A99E0A2E34009123D23901A61121061
:103CD300C6901A99E0A2E3503A7A087B00901A44FE
:103CE300E0F91217DAEA4B4C4D7028901CA3E0F56B
:103CF30008A3E085080CF50DE4F50EF50F780C121A
:103D03000DB47A087B00901A44E0F91217CE7404BC
:103D1300120DEA0268E67B0012170E8A0C8B0D2245
:103D23001217E6EAF8EBF9ECFAEDFB22123D332227
:103D3300123D38A322F08A828B83A3A322E508F0E5
:103D43000245BFF08E828F83A3A3A3A3A3A3221252
:103D53005650A3A3F022A3A3A3A3E0FEA3E0FF2254
:103D63007F05020B11F582E43509F583E0F922EAB8
:103D7300123D77222410F582E422123D85A3A3A3EA
:103D8300A322123F2285088285098322123D9322B2
:103D9300F0850A82850B83A3A322E50E2411123D2D
:103DA300C3E022E50E240E123DC322E50E241012B9
:103DB3003DC3E022123DBB22EE123D773FF5832245
:103DC300F582E4350FF58322240FF50AE43509F56E
:103DD3000B780A22E0F91216908A088B09EA4B2223
:103DE30074F212089E890B8A088B098A828B8312CC
:103DF3004BD4121ED6EA4B600479B8806A121EE2D5
:103E0300E9F8902D6BE493F9E8C399400479B28003
:103E1300567A15123D19AE0CAF0DEA4F70047910A6
:103E230080458A828B83E4F0A3123D38E50BF0755D
:103E33000A007808120DB87C127D00EA2403126789
:103E4300F0120DEA901A651251E67008901A658017
:103E53000C123F1A88828983123E6D70F4EEF0A330
:103E6300EFF0121EF47900024CC0124BD8EA4B88D3
:103E730082898322C082C083901A6580048C828DDC
:103E830083127512EC4D60288C828D83A3A3E069A5
:103E9300600574FF6970E68C828D83A3A3A3E06A37
:103EA3007003A3E06B70D6EC2403FAE43DFB8004BB
:103EB3007A007B00025AB574F712089EE9FD74FE7E
:103EC3006D70047C0180027C00901A6580096D701E
:103ED300027C01888289831251E6601F888289836C
:103EE300A3A3A3E06A7003A3E06B70E7ECA2E088EE
:103EF300828983A3A3E050D6F9800279FE0245BFED
:103F0300EEF9800CA3A31279B3EE227402120DEA28
:103F13007F02020B11F583123F1E22123F2222E081
:103F2300F8A3E0F922123F228E828F8322120DEA38
:103F33007F03020B11C082C0837900901A65800150
:103F430009E0FAA3E08A82F583E582458370F102F2
:103F53005AB574F612089EE4F508F5097808120DAF
:103F6300BC902D6BE49375F013A4A9F01240751265
:103F73006D12120DEAE9FE74096E7003121EEE0251
:103F83003F0374F612089E74FE120E828521828509
:103F93002283E4F0A3F0A821A922880889097808DC
:103FA300120DBC7508027509007808120DBC126960
:103FB30083120DEA023F0E74F512089E74EB120E83
:103FC30082852182852283E4F0A3F0901A658074B0
:103FD3008E828F83A3A3E0C0E074021210DDD0E0D1
:103FE300125697A982AA8389088A09750A00780854
:103FF300120DB87C127D0074061210DD126CD712FC
:104003000DEA7402120E52880889097808120DBC51
:104013007508137509007808120DBC74041210DDBD
:1040230012518975F013A4F8AAF075F013E9124040
:104033007112698B120DEA852182852283124080D9
:104043008E828F83123D5DEE4F7085A821A9228851
:104053000889097808120DBC7508027509007808EB
:10406300120DBC126983120DEA7415023F30A42AA3
:10407300F9E82402FCE439FD7A427B0022E02401C2
:10408300F0A3E03400F02274F412089E74EB120ED5
:10409300827E007F00A821A9228808890978081256
:1040A3000DBC7508028E097808120DBC7C007D00DA
:1040B3007A42126D1E120DEAE9706C8E08805674F6
:1040C30002120E52880A890B780A120DBC750A1364
:1040D300750B00780A120DBCE50875F013A4F8AA55
:1040E300F075F013E509124071126D20120DEAE923
:1040F300701B74031210DDAA82AB8374021210DDED
:10410300E0F9121ED0E970050EEE70010F0508E507
:104113000870020509852182852283123F1AC3E5AF
:104123000898E509994098EEFAEFFB741502308878
:1041330074F612089E8C828D83A3A312438CF0EA3B
:10414300125FAD3BF583E0C0E0124349D0E0F0EAF3
:10415300241DF582E43B123F1812432D124387F0CE
:10416300A3F0EA241FF582E43BF583123D5DEC12D4
:1041730043203DF583EEF0A3EFF01243263BF58396
:10418300124357A3A3A3A3A3A3EEF0A3EF125C08C8
:10419300FE8C828D8312439674035EFEC3940340A8
:1041A30003024313EE600874026E60030242388C0C
:1041B300828D83E0540CFE740C6E7003024277E030
:1041C300A2E4400D88828983E08C828D83A312430D
:1041D300AC74086E60030242771243377401F08AAD
:1041E300828B83A3A3A3A3A312565D70148C828D29
:1041F30083E0440C12439EA3A3124357EEF0A3EFB4
:10420300F08C828D83E0A2E4402B888212436512F6
:10421300437A500109F582124365A3A3A3A3A3A381
:10422300F0A3EF1243A68C828D83A3A3A3F0E8240B
:1042330003F850010988828983E0C0E0EC2411F57A
:1042430082E43DF583D0E01243968C828D83E0A215
:10425300E7507588828983E0FE8C828D831243AC9C
:1042630074FC5E700C8C828D83A3E0540364037032
:104273001E024313124337E4F0740C6E60030241D1
:10428300E2888212436B12437A5001090242048C82
:10429300828D83A3E05403603288828983E0C0E087
:1042A300EC1243513DF583D0E01243AD8C828D83F4
:1042B300E054036402701488828983E0C0E01243EF
:1042C3003FD0E01243AD8003A3E4F0EC1251553D1F
:1042D300126CB2EC2410FEE43DFFEA241DF582E4E7
:1042E3003BF583E0F5088E828F83E0C3982508F5BC
:1042F30008F0EA2417F8E43BF98882F583E0C395D4
:1043030008C0E012432DD0E0125C08C39508500AA0
:1043130012432DE4F0124349E4F0023F132415F550
:1043230082E422EA240DF582E422EC240DF582E4F2
:104333003DF58322EC12530E3DF58322EC2414F554
:1043430082E43DF58322EC123D773DF5832224136D
:10435300F582E422E0FEA3E0FF8C828D83A3A3A376
:10436300A32212436BA3A3228983E0F508A3E0FFF2
:10437300E5088C828D8322A3A3A3A3F0A3EFF0E827
:104383002402F82212438CA322E4F08C828D83A3AF
:10439300A3A3221243B4A882A98322123D33A3A369
:1043A300A3A3221243B4A3E022A31243B408A98314
:1043B30022125C11A32274F412089E74F3120E826B
:1043C3008A0A8B0BECFEEDFF8C82F583E0540CF52F
:1043D30008E0A2E75006E508D2E7F508E508D2E1D0
:1043E300F50812565D7006E508D2E4F508E0A2E58B
:1043F3005006E508D2E5F5087C087D007900AA217E
:10440300AB2212166674021210DDE508126CB8C0F6
:10441300E074031210DDD0E0124A46E50AF0A3E58A
:104423000BF074051210DD1265241210DDE07077B5
:1044330074081210DD1249CC125BFA3812653FC0C2
:10444300E074081210DD1244CDD0E012651FC0E005
:1044530074081210DD1244C3D0E0F074081210DDAA
:104463001244B9E01249F4124A7512600EEE241197
:10447300125629C0E01244AFD0E0F0EE24141256D5
:1044830029C0E074081210DD1249CC2435F582E40A
:1044930038F583D0E0124A19C0E074081210DD1217
:1044A30049D0D0E0126278740D023088E82432F5E6
:1044B30082E439F58322123F28A3A3A3A3A3A32253
:1044C3001249E012671E38F583221249E02426F5CB
:1044D30082E438F5832274F712089E7E008A828B69
:1044E30083A3A3A3A3A3A3A3A3A3E06404600302DE
:1044F300459B125306E0600302459B1251683B1231
:1045030051E4700302459B88828983E0540360036E
:1045130002459BE812530E39F583E0FA8C828D83B2
:10452300A3A3E0FBA3E0CB2411F582E43BF583E0F6
:104533006A706588828983A3A3A3A3A3A3A3A3A368
:1045430012459FE06A7003A3E06B704C88828983F5
:10455300A3A31245ABE0FFA3E0CF24061256296ABA
:104563007003A3E06B703188828983A3A3E0F88C86
:10457300828D83A3A3E0F9A3E0F5838982A3A3E05B
:104583006860138C828D83A3A3A3E0F5838982E003
:10459300540C640470027E01EEF980201245A322BC
:1045A300124BDC8C828D8322A3A31245A3A3A322E7
:1045B300740C1210DDE0F9740D120DEA7F01020B89
:1045C3001174F612089E74FC120E82EAFEEBFFECE5
:1045D300FAEDFB8C82F583A3E054036016901A5B1B
:1045E3001251E660597900EEFCEFFD125E051226CA
:1045F300FD804B852182852283EEF0A3EFF07402C8
:104603001210DD124A3BAC21AD227A0C7B1F122122
:10461300348A088B09A808A909EA4960218A828B90
:1046230083A3A3A3A3A3A3A3A3A37406F07A0088DD
:10463300828B831249CC125FCEE0F912209274046C
:10464300023F1074F212089E74F3120E82EAFEEB1C
:10465300FF8A82F583A3A3A3A3A3A3A3A3A3A3E096
:10466300F50A901CB4E0700579BA02498475080113
:10467300750900750C00750D007C087D007900AA92
:1046830021AB2212166674051210DD7401124A4E14
:104693005404601274021210DDE0D2E6124A4E5442
:1046A300087003750803E05410600674404508F56C
:1046B30008E05408602274021210DDE044C0124A7C
:1046C3004E5420600A74031210DDE0D2E0800874B7
:1046D300031210DDE0D2E1F0EE241512562912493F
:1046E300B47003740169700674084508F5088E8276
:1046F3008F83A3A3A3A3A3A3A3A3E0701612218E66
:1047030085218285228312601B74021210DDE0D2A0
:10471300E28030640F701074021210DD124A567476
:10472300044508F508807F8E828F83A3A3A3A3A3E8
:10473300A3A3A3E064028E828F83700A126CEBE85A
:10474300F0A3E9F08060A3A3A3A3A3A3A3A3E064BE
:1047530003700DAC21AD22EEFAEFFB121F4280462F
:104763008E828F83A3A3A3A3A3A3A3A3E064017057
:1047730035901AEFE0601074021210DD124A56757C
:104783000910750AFF801874021210DDE0440C1240
:104793004A4674FDF0A374FFF074044508F5088ECF
:1047A300828F83122F9BEE2415125629A2E0503FCD
:1047B30074021210DDE0540C701B8E828F83124B37
:1047C300D4121BACE9700579BB0249847402121040
:1047D300DDE0D2E5F0EE2415125629A2E050107464
:1047E300021210DDE0540C64047004E0D2E5F0EE34
:1047F3002411125629C0E074041210DDD0E01265B2
:10480300261210DDE0600302497D74081210DD12E8
:104813004A0FE508F0A3E509F01249AAE0C0E01247
:1048230049A0D0E0F0124991E0C0E074081210DD15
:104833001249CC12435138F583D0E0124A75640112
:104843007011901AEFE0C0E074081210DD1249EA0B
:10485300D0E0F074081210DD124A0A12499BFAE8FC
:10486300241CF582E439F583EA124A41EE2415FA51
:10487300E43FFB8A82F583127512E812596539F514
:1048830083124A3BEE241C125629C0E0124987D0FA
:10489300E0125AAB1249B4700374016970137408BF
:1048A3001210DD1252F6FAEE241D125629F9121EC9
:1048B300168E828F83A3A3A3A3A3A3A3A3A3E0C062
:1048C300E074081210DD1244CDD0E0F07408121029
:1048D300DD1244C3E50AF074081210DD1251892475
:1048E30028F582E439F583E50CF0A3E50D124A219E
:1048F3001249F41256A212600EEE12499BC0E0E870
:104903002433F582E439F583D0E0F0EE241B12560C
:1049130029C0E074081210DD1249D0D0E0F0EE2473
:104923001A125629C0E074081210DD1249CC243241
:10493300F582E438F583D0E0124A191249C0120D0A
:10494300B8126724127512740B1210DD1249CC24AD
:104953002F1279EE120DEAEE2415125629544060F7
:1049630012901A7B1251E6600AAA21AB22125E054D
:104973001226FDAA21AB22121FB4740C1210DDE023
:10498300F9024CBBE82420F582E439F58322EE24B6
:1049930019F582E43FF58322126733E022E82412FB
:1049A300F582E439F58322EE2418F582E43FF5839A
:1049B300225480F8A3E05401F974806822F508A317
:1049C300E0F509750A007808221249E0221249E04D
:1049D3002434F582E438F58322A3A3A3A31249E484
:1049E30022E0F8A3E0C8221249E012432038F583FD
:1049F30022FAA3E0FBE8242AF582E439F583EAF0FE
:104A0300A3EB22A3A3A3A3123F1EEE2212518D12E6
:104A1300516D39F58322F0EE24131256AA22F0EEDB
:104A2300240D1256AA22E0FC8A828B83E02CFCA37D
:104A3300E03400FD8A828B83ECF0A3EDF022F0A337
:104A4300E4F022F085218285228322F0EE241512E0
:104A530056AA22E0D2E3F0124A5E228E828F83129C
:104A63003F22852182852283E8F0A3E9F022E8F042
:104A7300A3E9126161E02274F712089E8A828B8394
:104A8300A3E0640170047E6380027E648A828B8368
:104A9300E060087905124AAE24F3FE901A97E060AD
:104AA30007F9124AAE24F2FE02459B12205CE9F894
:104AB300EEC3982274F612089E74FE120E828521AC
:104AC3008285228312601BE9FEECFAEDFB900381E1
:104AD3001251E66032A821A92288088909780812B0
:104AE3000DBC7D01740E1210DDE0FCEEF990038124
:104AF300125FEF1226FD7402120DEAEA4B6004798D
:104B030000800679B2800279B6023F0E74F712086C
:104B13009EE9FE901A511251E6601F74091210DDCE
:104B2300E0F5087808120DC0EEF9901A51125FEF04
:104B33001226FD7401120DEA800279B60245BF7494
:104B4300F712089E8908ECFEEDFF79B5E508245EAF
:104B5300602014600624F86034803D900383124B78
:104B63009E6035126D2F1226FD8E828F8312601B7D
:104B73008024901A53127512EC4D601CEEFCEFFD6D
:104B8300901A53125FEF1226FDE9F9800B901A4F2A
:104B9300124BA41217FE79000245BF124BD8EA4B01
:104BA30022127516EEFAEFFB2274F712089EE9FE45
:104BB30079B574AB6E700B901A4F124BD41217FE6B
:104BC30079000245BF8E828F83A3A3A3A3A3A3A3CC
:104BD300A3124BD822124BDC22E0FAA3E0FB22748F
:104BE300F112089EEAFEEBFF8C0A8D0B750801900B
:104BF3001A9FE06E7003A3E06F700C124CAFAA0A09
:104C0300AB0B1217FE805E122194EE6A7002EF6BFB
:104C13007009AA0AAB0B12219A804AAC0AAD0BEEBB
:104C2300FAEFFB121CEAE9F508901CABE0703612B0
:104C33002608E97030E508702C901A6FE06E700357
:104C4300A3E06F7020EE4F601C750C67750D1A752D
:104C53000E00780C120DB87C087D00AA0AAB0B126B
:104C63006CDB120DEAA90802760E74F212089EEAB2
:104C7300FEEBFF8C088D09750A01124CAFEEFAEFBB
:104C8300FB1217F8E964017011901A9F123F1A85FD
:104C93000882850983126CB4800EAC08AD09EEFA64
:104CA300EFFB121CF0E9F50AA90A80111221888A88
:104CB3000C8B0DAC0CAD0D22740D120DEA7F0602A8
:104CC3000B1174F612089EEAFEEBFF7A0D7B0012BD
:104CD300170EEA4B6062EE24241269B8F0EE242525
:104CE3001269B8A3124D7D1269BEA3A312675112B4
:104CF3004D58F0EE124D3E124D6DE8F0A3E9124D02
:104D030094124D65126CB4EE124D47126814A3A3AE
:104D1300A3A3F0EE2433125629C0E0124D50D0E085
:104D2300126543124D65A3A3A3E8F0A3E9124D8CCA
:104D3300C0E0125306D0E0F0023F13242AF582E4C8
:104D43003FF58322242EF582E43FF58322EA1257AE
:104D53007F3BF58322124D5C22E08A828B83A3A3DF
:104D6300A322126873A3A3A3A322124D7122123F9D
:104D7300228A828B83A3A3A3A322F0124D8222EE65
:104D83002426F582E43FF58322F0EE24321256AA5C
:104D930022F0EE242C1256AA2274F412089E74FEFA
:104DA300120E82ECFEEDFFEC2416125629640570F8
:104DB30010EC2406FCE43FFD121F3CE97003024E95
:104DC30048AC21AD22126A6D121BB2852182852265
:104DD300831251E6606B8E828F83E064017058E822
:104DE30075F009A4F8AAF075F009E9A42AF974C8C2
:104DF30028F8740739F9E8FAE9FB8882F58378081B
:104E0300121086EE124EEA12102A4027852182855F
:104E13002283124A0A125637124E4D780812108610
:104E23009084847808120F518A828B837808121039
:104E330077800A79A28010EE240F126CAE7900807D
:104E43000679A1800279C8023086124A6BEE126796
:104E53003F2274F212089E8A0C8B0DECFEEDFFECE0
:104E6300125637E4F0A3F09084747808121086EC9D
:104E7300124EEA120EC36067EC240E1256307034E1
:104E830078B3901A96E07028901AC8E064017020F5
:104E9300EC2411125629F91220448B09A909EE12A8
:104EA30051693F126019EA4960047800800278A1D1
:104EB3008808802EE060046402700A121F4EE9F530
:104EC300087007801DE064037010EEFCEFFDAA0C70
:104ED300AB0D121BD6E9F50880087508A180037590
:104EE30008A3A908024CC012673F78082274F01285
:104EF300089E74F5120E82EAFEEBFFEA240AFCE434
:104F03003F8C82F5831279AF1251737403120E62D0
:104F13008A828B83125E0FE97003024FD9740112E8
:104F23000E627403120E5A121BB274011210DD12B8
:104F330051E67003024FD9E875F009A4F8AAF07599
:104F4300F009E9A42AF974C428FC740739FDE508BB
:104F5300240E126260E4F0041210DD123F1AE50819
:104F63001251693509126CB28C828D831210BAE525
:104F73000824121262601210C690848478081210FA
:104F8300868C828D837808120FC38C828D83780C74
:104F93001210869084907808121086780C79081283
:104FA300082FE5084509450A450B702A74011210BC
:104FB300DD12518975F009A4F8AAF075F009E9A486
:104FC3002AF974CC28F582740739F5837401F07AD1
:104FD300007B081251968E828F83A3A3A3A3A3A35E
:104FE300A3A3A3A3E02406FCA3E03400FD8E828FD9
:104FF30083125E0F126531603EEE240A12515B127A
:105003004A0F7468124A41E812515539F583740204
:10501300F0901A811210BA8C828D83126008125B91
:10502300FA3CF5831210C690848478081210869097
:105033001A817808120FC31251D1705D901A4F1262
:105043005181A3A3A3A3A3A3A3A3A3A3125C30127D
:1050530017F8E97010125BEE901A4F125C0070059E
:1050630012653160348E828F83A3A3A3A3A3A3A36A
:10507300A3A3A3125181124BD4121BDCE960118E3E
:10508300828F83A3A3A3A3A3A31251BDE4F0A3F030
:105093008E828F831251A3E4F01251D16003025127
:1050A300508E828F83A3A3A3A3A3A31279AB901AD9
:1050B30096E06003025145901AC8E0640160030260
:1050C3005145750A3A750B00780A120DBC74021229
:1050D3000E52880A890B780A120DBC126FAA120DA0
:1050E300EAE9705BE508240E12626074011251EB69
:1050F300C0E0E5082411126260D0E0F0E508240F57
:10510300126260743A124A41901A7D1210BAE5088D
:1051130024121262601210C69084847808121086DA
:10512300901A7D7808120FC3908484780812108631
:10513300901A7D7808120EC37008125192800312E0
:1051430051731251D17006125AF174A1F0740B020B
:1051530068E3240EF582E422F8E43FF9E8FCE9FD74
:105163008882F58322EA12516D22240FF582E4220C
:10517300E50812516D3509F583E4F0A3F0221275A9
:10518300168E828F832212518D22123F22E8227AB9
:10519300007B02901928E0F91216BA228A828B83C7
:1051A300A3A3A3A3A3A3A3A3A3A31251B12212490D
:1051B300E4240EF582E438F58322A3A3A3A31251BA
:1051C300C5221249E4240FF582E438F583228E8246
:1051D3008F83A3A3A3A3A3A31249DC240FF582E423
:1051E30038F58312518D49221251EF22F085218225
:1051F300852283E02274F612089EEAFEEBFF7A23EF
:105203007B0012170EEE240AF508E43FF509850822
:10521300821260197C237D0079001216668508824C
:105223008509831251E670030252B9EEFAEFFB12BD
:105233001F5A1251D160748E828F831252EC640113
:105243008E828F83A3A3A3A3A3A370071252E27436
:105253000E80211251E67010126531700B8E828F11
:1052630083A3A3E0A2E050071252D8740D80051265
:1052730052D874051265435403640170071252C077
:105283007405800B901A97E0C0E01252C0D0E01270
:1052930052FBF5838882125656850882850983124C
:1052A30049CC125FAD38F583E9800E850882850904
:1052B300831260928003125FD5F0023F138E828FB8
:1052C30083A3A3A3A3A3A3A3A3A3A31252D222E0C2
:1052D300125FF4A3228E828F83A3A3A3A3A3A3129B
:1052E30049DC125FB338F58322A3A3A3A3A3A3A32B
:1052F300A3A3A31251B1E0221252FF22126A82F831
:10530300A3E022EA12530E3BF58322240CF582E438
:105313002274F112089E74E4120E828A0C8B0D8C97
:10532300088D097A237B0012170E8A0A8B0BAE0AAB
:10533300AF0BEA4F7003025611125FB9E50824154B
:10534300125642687003A3E0698E828F83700474DF
:105353000280027401F0E508240DF8E43509F988A8
:1053630082F583E0FAC3E49AFA95E0FB12563E2AEB
:10537300FAA3E03BFB8E828F83A3A3A3A3125C1744
:105383008E828F83A3A3F0EE2420F582E43FF5837E
:10539300E4F0EE2421F582E43FF583E4F0EEFAEF46
:1053A300FB12200E85088285098312565D70098ED3
:1053B300828F83A374058006901A9712564BF0EEE2
:1053C3002417F50AE43FF50B8E828F83125656E9B4
:1053D300850A82850B83F0EE2416F8E43FF9E5088D
:1053E300240EFAE43509FB88828983124A29E508E9
:1053F3002410FAE43509FB850A82850B83E0FC88D7
:10540300828983E0F88A828B83E0C398C39CF81275
:105413005697F0EEFCEFFDAA0CAB0D121F54E9F505
:105423000B8E828F83E064027006125BEE12561BB2
:10543300E50B6003025608750C00750D00901CAB5C
:10544300E064016005E06402703F12562D6008EECF
:10545300242112563070328E828F83A3A3A3125F4E
:10546300DB125663EE241612562912568CFAE439CF
:10547300FB123D1BEA4B601112683D120DB8125628
:1054830071AA0C126CDB120DEAEEFAEFFB12201A72
:10549300E9F50B901CABE064016008E06402600373
:1054A3000255FBE970030255FBE50C450D70030241
:1054B30056088003850E0B12562D600BEE24211225
:1054C30056306003025601850B0E850C08850D09C5
:1054D300750A007808120DB81256718E828F83A355
:1054E300A3A3A31279F4120DEAEE24201256296025
:1054F3000D1256367468124A41EE24208015EE24AC
:105503002112562960151256367403F0A37401F064
:10551300EE2421F582E43FF583E4F0EEFAEFFB128B
:10552300201AE9F50B70907C137D00790074091241
:105533000E5A121666741A1210DD74011256A26402
:10554300687002A3E0704F8E828F831251BDE064B6
:105553000560030254B77C0879FF8E828F83A3A36F
:10556300A3A3E0242A125C331216F0E97003025459
:10557300B77C087D0079FF7401120E5A1216667407
:1055830001120E627A007B0079AB121F3674191276
:1055930010DD74FC8015125636E064037004A3E03A
:1055A3006401700874191210DD74FFF0E4F508F556
:1055B300097808120DBC7402120E6274131210DD06
:1055C300AA82AB83126118120DEA85218285228398
:1055D300E0602B7409120E52880889097808120DAD
:1055E300BC7508137509007808120DBC7C007D009A
:1055F30012698B120DEA8006E50C450D6007AA0CB3
:10560300AB0D121714EEFAEFFB1217148003750B90
:1056130010A90B741C02760BEE2406FAE43FFB126E
:1056230017FE22EE240C1256AA22EE24201256AAAA
:10563300640122EE12516D3FF58322E508240EF535
:1056430082E43509F583E022125650A322E08E82CC
:105653008F8322A3E0F912205C22E0540364012229
:1056630012566722E0FAE82AF8E43400F9228E821F
:105673008F83A3A3A3125FDF125667EE241612567D
:10568300AA12568CFCE439FD22FAE82AF8E439F927
:10569300E824042212569B22126552A3A3A322F0EC
:1056A3001256A722EE240FF582E43FF583E0227918
:1056B30001020D9C74F412089EEAFEEBFF8A82F548
:1056C30083A3A3A3A3A3A3A3A31249CC2424F58256
:1056D300E438F58312565D702E8A828B831252EC66
:1056E3007025125785E06405701D125785A3E0F8F5
:1056F3007401686005740668700712519F74028014
:105703000512519F7403F0EA240A126086125FEFB8
:10571300E4F0EA2408F8E43F1230752431F582E41A
:105723003AF583E0C0E0126D26A3A3D0E01257A49C
:10573300CA242EF582E43AF583E0C0E0126D26A375
:10574300A3A3D0E0125CCAC812577F38123F1812C5
:105753006D261257998A0A8B0BAC0AAD0B8508820A
:10576300850983125C301217FE850882850983122E
:105773004BD412201A126081F002308B240BF58275
:10578300E4228A828B83A3A3A3A3A3A3A3A3126567
:1057930018F583888222A3A3A3A3124A6B1221883C
:1057A30022125C0CFAA3E0220256B2C082C083909C
:1057B3001A717460F0A3741FF0901A73746CF0A3E1
:1057C300741FF0901A757472F0A3741FF0901A7717
:1057D3007466F0A3741FF0025AB574F412089EEABB
:1057E3002408FEE43BFF8E82F583125189125FC5C4
:1057F300E0F50874035508F509125C2BF8A3E0885B
:1058030082F583E508F0A3A882A983E509600974FA
:1058130002650960030258CA740C5508FC600A74D7
:10582300086C600574046C7026740265097006E5E3
:1058330008A2E4401A8A828B83A3A3A3A3A3A3A3EE
:10584300A31259D012671E3D12596BA308A9837482
:105853000C6C701C1259CC24281259B82428F582D8
:10586300E43DF583A312634CF0E82402F8500109E8
:10587300740265097006E508A2E4404B1259CC2472
:105883002A1259B8242AF582E43DF583A312597AE2
:105893001259D612634C1259D6A3125972E8240432
:1058A300F8500109EC600F74086C600A740C6C60AA
:1058B3000574046C7011125FFC2426F582E43C121B
:1058C300596BA3A882A9838A828B83A3A3A3A3A3CF
:1058D300A3A3A312599A54037014E508A2E1400E3E
:1058E300125FFC1259653CF583E05480600812593D
:1058F3008012596D8019901A45E0C0E0125980D08A
:10590300E01259AD888289831259AD04125C11A348
:10591300A882A983E508A2E750458E828F83125996
:105923009A888289831259B312599F5403603012A3
:105933005FFC2434F582E43C12634AF0E508A2E1FB
:10594300501D8A828B83A3A3A3A3A3A3A3A3123073
:105953007A2435F582E43A12634AA3F0E824030279
:10596300308B241EF582E422F58312597AF0221239
:10597300597AA3A3A3F022E088828983228A828BA7
:1059830083A3A3A3A3A3A3A3A3E0FCA3E0CC2432F8
:10599300F582E43CF58322E012599F22FCA3E0CC7C
:1059A3002425F582E43CF583E022F0901A45E022B9
:1059B30012654EE022F582E43DF58312597A1259BD
:1059C300C5221265521259D0228E828F83E0FDA325
:1059D300E0CD22A31259C5242CF582E43DF58322A0
:1059E300C082C0838A828B83125AA5FC74035CF93C
:1059F3008A828B83A3A37401F0E960057402697042
:105A030061740C5CF8600A7408686005740468705B
:105A1300137402697005ECA2E440098A828B83A3A4
:105A2300A37402F0740C68700A8A828B83A3A3E0C8
:105A33002402F07402697005ECA2E440258A828B8B
:105A430083A3A3E02404F0E8600F740868600A7479
:105A53000C68600574046870098A828B83A3A3E0D1
:105A630004F0ECA2E7502A8A828B83A3A3E00412FA
:105A73005AAB123584E0540360178A828B83A3A345
:105A8300E004F0ECA2E150098A828B83A3A3E00433
:105A9300F08A828B83A3A3E004F08016852182859C
:105AA30022831252D2A3E022F08A828B83E0221255
:105AB3000DEAD083D082020D9CC082C0838A828B80
:105AC30083A3A3A3A3A3A3A3A3A3A31251E6600940
:105AD3008A828B83A3A3125ADE80D7A3A3A3A3A393
:105AE300A3A3A3125AEA22124BDC12171422125A4E
:105AF300F522EE240CF582E43FF5832274F61208B6
:105B03009E74F4120E82125C3AFCA3E0F5838C823D
:105B1300A3E0C0E074021210DDD0E0125CE8125C76
