:020000040000FA
:060000000210DE0205E023
:03001B00020736A3
:03002B00020EAE14
:030033000209704F
:03004300020D6249
:030053000205158E
:03006B0002092B5C
:0300730002078BF6
:03007B0002095126
:10008300020574010000000000F8FF07FFFF0000F5
:100093000504000000030001FF0020FD000206FF2D
:1000A300FF1E1410270000FFFF22002200FF00FFA5
:1000B300000104010C000201DF840509840204012C
:1000C3000C000200000001E3840104000027190072
:1000D3000000E8030000FFFF78190188130000E81F
:1000E30003000064006400B801A0BB0D00A0BB0DB9
:1000F30000020202070401051E02051E020A0A018C
:100103000108080103B80B02803E0102FEFFE80369
:100113000A050001FFFF020A011401E005030101C2
:100123000F030003000300030003000300030003A5
:1001330000030005000A00140028004F009E000081
:1001430000FB2A00000000312A00000000FF00002D
:1001530000FF001210FD60461210EE603DE968706A
:1001630008F618F618F618F622748067F712018A53
:10017300090909748067F7221210EE601D1210FD41
:100183007005191919801A120FCD701F120F91C320
:100193007003E6673319191940071818182208085D
:1001A3000874FFF618F618F618F622120F91601766
:1001B30012118B702192F01211947019501720F0C4
:1001C30014080808090909E7F61819E7F61819E7E2
:1001D300F61819E7F62212119460E6E869701F0811
:1001E30008E62480F608E436F618547FB47F0CE65C
:1001F30054806007F6E418F618F622181822E9C6A8
:10020300CC08C6CD08C6CE08C6CFC0E0E8C0E0EA39
:10021300C0E0EBC0E009E9F809E7FA09E7FBE6F912
:1002230018E6F8C3EC98ED99EE9AEBC2E7F5F0EF18
:10023300C2E795F0500E600CEBCFFBEACEFAE9CDA6
:10024300F9E8CCF8EAA2E7D2E7FAEB33FB13F5F0CF
:10025300EEA2E7D2E7FEEF33FFC5F013A2E730E6E5
:1002630001B313C5F0C3C0E0C0F07F00C39BFB60C4
:100273005E9418600F401D14601AD0E023F9D0E09B
:10028300F802035C8AF0E9486003D2F0E4AFF0FAC5
:10029300F9F8803BEB30E40D89F0EA6003D2F0E437
:1002A300AFF0F9CAF8EB30E30D88F0EF6002D2F05B
:1002B300AFF0E4CAC9F8EB54076014FBC3EA13FABE
:1002C300E913F9E813F8EF135002D2E0FFDBEDD0A6
:1002D300E0C0E030E739C3E49FFFF5F0EC98FC425F
:1002E300F0ED99FD42F0EE9AFE42F0D0E0F9D0E055
:1002F300F8E5F0607AE923F9EE20E742D802806757
:10030300C3EF33FFEC33FCED33FDEE33FE80EAEC59
:1003130028FCED39FDEE3AFED0E023F9D0E0F840B9
:1003230002801BC3EE13FEED13FDEC13FCEF135021
:1003330002D2E0FF08B800067F7F74FF802EEF3300
:1003430050178CF020F00260100CBC000C0DBD00A7
:10035300080EBE000408E860DFE933E813FFEE236C
:1003630013FE4F4D4C8008E95480FFE4FEFDFCEE84
:1003730033EF33F47004FCFD7E80D0E0FBD0E0FA71
:10038300D0E0F8D0E0CFC618CEC618CDC618CCC67C
:10039300F922001210EE604F1210FD6012E7548034
:1003A30066F6120FCD701112118B703B090909F417
:1003B300F618F618F618F622120F9170151211940A
:1003C30008080860EAE6447FF618768018E4F61811
:1003D300F622121194601612118B7012E4F608F6CD
:1003E30008F608E65480F609090918181822EAC025
:1003F300E0EBC0E0ECC0E0EDC0E0E687F0A4FBACCE
:10040300F008E687F0A42CFCE435F0FA1809E68737
:10041300F0A42C4B60027401CA35F0FCE433FB09F1
:10042300E687F0D2F7A42CCB35F0FC1908E687F069
:10043300A42BCC35F0FBE433FD0819E687F0D2E7B3
:10044300A42C4ACB35F0CD3400FC09E687F0D2E783
:10045300A42DCC35F0FDE433FA0918E687F0D2F782
:10046300A42CCD35F0CA3400FC08E687F0D2E7D2DD
:10047300F7A42ACC35F07A7E20E70B0ACB33CBCD19
:1004830033CDCC33CC33CB3350147004ED30E00E8A
:10049300D2F1E4CD3DCDCC3CCC3B5005DA05C2F1E5
:1004A300EB547FC63308E63392F0FBE73309E733B7
:1004B300C39A502D2B70190C0D4C4D70151806E670
:1004C30008C333700D20F10AA2F013F6E418800B71
:1004D3004024E4F630F002768018F618F618F68019
:1004E30024D33B14501074FFA2F013F6187680E463
:1004F30018F618F6800FA2F013F618E63303F61871
:10050300ECF618EDF6D0E0FDD0E0FCD0E0FBD0E057
:10051300FA22C0E074F112098EA2AFE433F509D2D6
:10052300AF85A708AFA1EF5508FE74105E600612F1
:10053300145275A1EF74085E600812145875A1F780
:100543008024EFA2E092F0E508A2E082F050179039
:100553006198E0F8900923E0C398A2D265D03350A4
:1005630002E8F075A1FEE509A2E092AF7F02020A5C
:100573004AC0E074F212098EA2AFE433FED2AF9008
:1005830061A4E0F8759B00E59158540860087591E3
:10059300F71214A68023E59158541060087591EF63
:1005A3001214AC8014E591A2E092F0E8A2E082F08C
:1005B3005007E0C2E0F01215F69061A3E0F8E5E918
:1005C300585404600E1215CC75E9FB906193E0A2B8
:1005D300E640F2EEA2E092AF7F01020A4AC0E07465
:1005E300F212098EA2AFE433FED2AF9061A5E0F818
:1005F300E5BF585404600675BFFB12160E80D41273
:10060300064D30F039120692803412064D20F01454
:1006130030E72B74FFFCFBFA747F8022E4FCFBFAC7
:100623007480801AB48008BC00F2BB00EF800F50C6
:10063300EBF9E4C39AFAE49BFBE49CFCE499C6CC93
:1006430018C6CB18C6CA18C6F922E4C9C608CAC652
:1006530008CBC6D3330308CCC63392F0C3947F4090
:100663002E94184019C9B90704CACBCC225025C30C
:1006730009CA33CACB33CBCC33CC33D9F422F4609D
:100683000DC9CCC313CB13CBCA13CAD9F6CC22E4FE
:10069300FCFBFA2214FCFBFA22C3E498F8E499F970
:1006A3001206DD8026C3E49AFAE49BFBE920E7E91E
:1006B3001206DDE498F8E499F922C3E498F8E49982
:1006C300F91206DDE498F8E499F9C3E49AFAE49B95
:1006D300FB22EB20E7CFE920E7E0B90010BB0008DD
:1006E300E88AF084F8AAF022E4FBC8FA22EB70222D
:1006F3007B10C833C8C933C9335007C39AC3DBF26D
:1007030080069A50012ADBEAC833F4C8C933F4C916
:10071300FA2275F008E4C833C8C933C933C99AC982
:100723009B5004C92AC93BD5F0ECFBC833F4C8E499
:10073300C9FA22C0E0C0D0E8C0E0E9C0E0C082C08E
:1007430083A8F9E8C0E0900890E0F8740F28F582D8
:10075300E43408F583D0E0F090088FE0F8A3E06874
:100763007006E595900892F0900890E004F0C39429
:10077300804002E4F0A374C6F0D083D082D0E0F9C5
:10078300D0E0F8D0D0D0E032C0E0C0D0E8C0E0E99B
:10079300C0E0C082C083900913E0F8A3E06870084A
:1007A300539AF7A374018022C2EA900913E0F87404
:1007B3000128F0749328F582E43408F583E0F5F911
:1007C300900913E0C394804002E4F080AC08080869
:1007D300EAC0E0EBC0E086F0E7A4FA180986F0E788
:1007E300A42AFA180986F0E7A42AFA180986F0E77A
:1007F300A42AFA1986F0E7A4FBE5F02AFA19088679
:10080300F0E7A42BFBE5F03AFA190886F0E7A42BEE
:10081300FBE5F03AFA18180986F0E7A4C5F02BFBBC
:10082300E43AFA1908E7C5F0C6A426F6E5F03BFB5F
:10083300E43AFA1886F0E7A4F6E5F00826F6E43B76
:1008430008F6E43A08F6D0E0FBD0E0FA22E4CFC0A1
:10085300E0E4CEC0E0E4CDC0E0E4CCC0E075F0203D
:10086300E626F608E633F608E633F608E633F61826
:100873001818EC33FCED33FDEE33FEEF33FFC3EC1E
:100883009709ED9709EE9709EF97191919400FFF8B
:10089300EC97FC09ED97FD09EE97FE191906D5F0C3
:1008A300BFECF709EDF709EEF709EFF7191919D0BE
:1008B300E0FCD0E0FDD0E0FED0E0FF222521C582A0
:1008C300C0E0E52234FFC583C0E0E521C39582245F
:1008D300F810AF08858322858221800885832285CD
:1008E3008221D2AFCEF0A3E520F0A37808E608F08A
:1008F300A3DEFAEFF0A3E58124FAF8E608F0A3E615
:1009030008F0A3E608F0A30808E608F0A3E608F059
:10091300A315811581D0E0FED0E0F815811581156E
:1009230081E8C0E0EEC0E022C0E074F212098EA2BA
:10093300AFE433FED2AFE589A2E15003121374533F
:1009430089FDC2C5EEA2E092AF7F01020A4AC0E070
:10095300C0D0E8C0E0A8A8D2AFE58A858A8AC2EBF6
:10096300E8A2E792AFD0E0F8D0D0D0E032C0E07494
:10097300F212098EA2AFE433FED2AFE58BA2E050B0
:1009830003121374538BFEC2E880B9C0D02521C56E
:1009930082C0E0E52234FFC583C0E0E521C3958230
:1009A30024F310AF08858322858221800885832262
:1009B300858221D2AFC8F0A3E9F0A3EAF0A3EBF05C
:1009C300A37908E709F0A3D8FAECF0A3EDF0A3EEBE
:1009D300F0A3EFF0A3D0E0F0A3D0E0F0A3D0E0F0D9
:1009E300A3E520F0A3E5F0F0A322E9799EC608CAA7
:1009F300C608CBC608CCC6C370207996CACBCC70C8
:100A030019798ECBCC70137986CC700EF9802ACAF3
:100A130033CACB33CBCC33CC331930E7F2CCCBCA8C
:100A23003350147004EA30E00DE4CA3ACACB3BCB2E
:100A3300CC3CCC500209C3E913C6CC182313C6CB54
:100A430018C6CA18C6F922852283852182E0C0E030
:100A5300A3E0F9A3E0FAA3E0FBA37808E0F608A378
:100A6300DFFAE0FCA3E0FDA3E0FEA3E0FFA3E0C008
:100A7300E0A3E0C0E0A3E0F5D0A3E0F520A3E0A36A
:100A8300F5F010AF088583228582218008858322B3
:100A9300858221D2AFD082D083D0E0F8D0E0321269
:100AA3001176B90003020AE1E49003017813791A7D
:100AB3008002F0A3D8FCD9FA7A137B1C90008678C5
:100AC300D179018015E493A3AD82AE838A828B83AF
:100AD300F0A3AA82AB838D828E83D8E9D9E775828E
:100AE3008D7583CF7404120E2575828475832774E4
:100AF30000120E25FF75F0108E238F248582288522
:100B03008327852182852283E0CEA3E0CF852882B7
:100B1300852783EBC9EAC8EDCBECCAC3E833C8E940
:100B230033C9EA33CAEB33CBC3EA9EF526EB9FF511
:100B330025B35004AB25AA26EC33CCED33CDD5F049
:100B4300DAAE23AF24221210EE601C1210FD6017E0
:100B5300121194700712118B7001D322C0D012119D
:100B63008B7006D0D0B322C32233D0D0501430E0E0
:100B7300F6C3E7960809E7960809E7960809E79692
:100B8300B32220E0D5E6970809E6970809E6970817
:100B930009E697B322D083D082ECC0E0EDC0E0E455
:100BA30093A3FCE493A3FDED4C600D120C70EC24B5
:100BB300FFFCED34FFFD80EFE493A3FCE493A3FD7E
:100BC300ED4C600D120D0DEC24FFFCED34FFFD80A8
:100BD300EFD0E0FDD0E0FCE493A3C0E0E493C0E0F9
:100BE30022D083D082E9C0E0E493A3C386F0C5F0AA
:100BF30095F0F908E493A386F0C5F095F0700BE443
:100C030093A3C3994005E9048002A3E475F002A409
:100C13002582F582E5F03583F583D0E0F9E493A3EB
:100C2300C0E0E493C0E022852283852182E0A3FE15
:100C3300E0A3F5207808E0A3F608DFFAE0A3FFE0DD
:100C4300A3C0E0E0A3C0E0E0A3C0E0E0A3C0E0E015
:100C5300A3C0E010AF0885822185832280088582A6
:100C630021858322D2AFD083D082020E2BC0E0C372
:100C7300E49396087401939618400FE49366700802
:100C830008740193661870007019A3A3C3E49396C4
:100C9300087401939618A3A3400DD0E0D0E0D0E0F0
:100CA300020BD4A3A3A3A3A3A3D0E02274048004C0
:100CB30074028000CCC0E0EDC0E0E521C39CCCAD64
:100CC3002250011D10AF068C218D2280068C218DB0
:100CD30022D2AF120DA7D0E0FDD0E0FC2274028037
:100CE30000CCC0E0EDC0E0E521C39CCCAD225001B7
:100CF3001D10AF068C218D2280068C218D22D2AF50
:100D0300120D85D0E0FDD0E0FC22C0E0C0F088F0F9
:100D1300E4936670080874019366187000A8F0A342
:100D2300A3700BD0F0D0E0D0E0D0E0020BD4A3A3AB
:100D3300D0F0D0E022D083D082CCC0E0E493A36093
:100D430006120DE71470FAE493A36006120F27143A
:100D530070FAD0E0FCE493A3C0E0E493C0E022C0C7
:100D6300E074F212098EA2AFE433FED2AFC2C0E543
:100D7300D1A2E450031213BCEEA2E092AF7F0102B2
:100D83000A4ACAC0E0E493A3C582CCC582C583CD19
:100D9300C583F0A3C582CCC582C583CDC583DAE5FF
:100DA300D0E0CA22CAC0E0E0A3C582CCC582C58315
:100DB300CDC583F0A3C582CCC582C583CDC583DAF7
:100DC300E6D0E0CA22C008C3E096F50808A3E0967F
:100DD300420808A3E096420808A3E096450870017C
:100DE300D3D00822C0E0E493A3D39C5010E493A390
:100DF300C39C400AD0E0D0E0D0E0020D55A3A3A3EA
:100E0300D0E0227009080808226016181818C6C313
:100E130033C608C633C608C633C608C633C6D5E0CC
:100E2300EA22C09FF59FE473D09F22D083D082C073
:100E33009FE493C0E0740193C0E0740293F59F2292
:100E43002521F58210AF08F521400C15228008F505
:100E53002140021522D2AF852283227404800A74B2
:100E6300038006740280027401C0E0F404120E438E
:100E7300D0E01211392200C0D0252110AF08F5218E
:100E8300500C05228008F52150020522D2AFD0D0A4
:100E930022BB0102E722C082C08389828A83BB000E
:100EA30003E08002E493D083D08222C0E0C0D0E884
:100EB300C0E0A8A8D2AFC2C7E8A2E792AFD0E0F8DB
:100EC300D0D0D0E0326016080808C6C313C618C6CF
:100ED30013C618C613C618C613C6D5E0EA22C3E064
:100EE300C696F608A3E0C696F608A3E0C696F608EB
:100EF300A3E0C696F6222521F8E43522F92225211E
:100F0300FAE43522FB222521FCE43522FD222521AA
:100F130010AF08F521400C15228008F52140021579
:100F230022D2AF22C0E0E493A36C7009D0E0D0E0FA
:100F3300D0E0020D55A3A3D0E022E76670100809A4
:100F4300E766700A0809E76670040809E76622E0A5
:100F530066701008A3E066700A08A3E066700408D0
:100F6300A3E06622C3E7960809E7960809E796080F
:100F730009E796A2D265D03322C3E09608A3E09690
:100F830008A3E09608A3E096A2D265D033221919EC
:100F930019E70947097009E727097005E733F422C0
:100FA3000922C3E096F008A3E096F008A3E096F0C8
:100FB30008A3E096F022C3E697F60809E697F60839
:100FC30009E697F60809E697F622181818E6084680
:100FD300087009E626087005E633F4220822C3E404
:100FE3009396087401939608740293960874039376
:100FF3009622E026F608A3E036F608A3E036F608C4
:10100300A3E036F622E627F60809E637F60809E6EE
:1010130037F60809E637F622700422600D18C6C3B6
:1010230033C608C633C6D5E0F41822E647F60809E6
:10103300E647F60809E647F60809E647F622E657C3
:10104300F60809E657F60809E657F60809E657F6DB
:1010530022E026F008A3E036F008A3E036F008A368
:10106300E036F022E056F608A3E056F608A3E05671
:10107300F608A3E056F622E056F008A3E056F0087F
:10108300A3E056F008A3E056F022E4C396F608E482
:1010930096F608E496F608E496F622600D08C6A2D2
:1010A300E713C618C613C6D5E0F322C6F4C608C6AE
:1010B300F4C608C6F4C608C6F4C622C3E09608A35D
:1010C300E09608A3E09608A3E09622C3E7960809F2
:1010D300E7960809E7960809E7962275D000758117
:1010E3003F75210175220300020AA2E6084608C3E0
:1010F300134608336002E633F422E7094709C313B2
:101103004709336002E733F422600C08C6C313C6F1
:1011130018C613C6D5E0F422E6F008A3E6F008A348
:10112300E6F008A3E6F022E0F608A3E0F608A3E061
:10113300F608A3E0F622CAC0E0E6F0A308DAFAD084
:10114300E0FA22E0FAA3E0FBA3E0FCA3E0FD22EA3D
:10115300F0A3EBF0A3ECF0A3EDF022E0F8A3E0F9A9
:10116300A3E0FAA3E0FB22E8F0A3E9F0A3EAF0A3EB
:10117300EBF022E5C754F84401F5C7790122252194
:10118300F582E43522F58322E727194719471947E2
:1011930022E62618461846184622C2AF75D69F0285
:1011A300000022120E2E96CE02120E2E42CF0212F3
:1011B3000E2E72CF02120E2ED7CF02120E2E6BD02E
:1011C30002120E2E1ED102120E2E6FD102120E2EFD
:1011D300B3D102120E2E4DD202120E2EBAD2021229
:1011E3000E2EE9D202120E2EEFD302120E2E13D4BC
:1011F30002120E2E67D402120E2E3BD502120E2EB1
:1012030066D702120E2E14D802120E2E89DA02129B
:101213000E2E0EDB02120E2E85DD02120E2EBBDF0A
:1012230002120E2EFFDF02120E2E58E102120E2EB4
:101233006BE102120E2EB0E102120E2E7CE30212BB
:101243000E2E30DC04120E2E6FDC04120E2E9FDAEB
:1012530003120E2E1BDB03120E2E4EDB03120E2E79
:101263007CDB03120E2EBADB03120E2EF7DD031204
:101273000E2E16DE03120E2E5BDE03120E2EF1DE91
:1012830003120E2E3DDF03120E2ED1DF03120E2E9C
:10129300AAE003120E2E06E103120E2E64E10312DE
:1012A3000E2ED7E103120E2E1BE203120E2E73E253
:1012B30003120E2E95E203120E2E25E303120E2EB9
:1012C300B6E303120E2E02E403120E2E2EE40312D3
:1012D3000E2E6FE403120E2E05E603120E2EF1E618
:1012E30003120E2ECCE703120E2EE7D504120E2E98
:1012F300EAD504120E2E48D604120E2E9CD60412E2
:101303000E2EBED604120E2ED4D704120E2EE5D7FF
:1013130004120E2E83D804120E2E8ED804120E2E13
:10132300A8D804120E2EF27F00120E2E12DE041223
:101333000E2E27DA04120E2E37DA04120E2E4FDA8F
:1013430004120E2EB7DA04120E2EE2D304120E2E5E
:1013530066D404120E2ECED404120E2EB7D8041265
:101363000E2EDBD804120E2E01D904120E2E12D922
:1013730004120E2E5CD904120E2E84BB04120E2E00
:1013830092BB04120E2E0BBC04120E2EE4BC0412EC
:101393000E2EA7BE04120E2E98DD04120E2E9A9A5C
:1013A30004120E2E069B04120E2EA49B04120E2E64
:1013B300919C04120E2E069E04120E2E6D9E041294
:1013C3000E2EBA9E04120E2E549F04120E2ED89F78
:1013D30004120E2E0DA004120E2E2BA004120E2E9C
:1013E300B1A004120E2ED0A004120E2E937A001276
:1013F3000E2EBF7A00120E2E297D00120E2E697D4D
:1014030000120E2EA57D00120E2EB97D00120E2E97
:10141300D27D00120E2EC47E00120E2E777F001294
:101423000E2E8B7F00120E2E8CFE01120E2EB0FE9E
:1014330001120E2EC9FE01120E2E07FF01120E2EEF
:1014430037FF01120E2E64FF01120E2ECAFF011286
:101453000E2ECDFF01120E2ED7FF01120E2EE4FF2A
:1014630001120E2E53C804120E2E73C804120E2E30
:10147300B2C804120E2ED0C804120E2EEBC80412EA
:101483000E2E51C904120E2E5DC904120E2EBAC9B6
:1014930004120E2EC9C904120E2EEDC904120E2E0B
:1014A300AECA04120E2EBBCA04120E2ECCCA0412EC
:1014B3000E2E44DB04120E2E8CDB04120E2EB8DB30
:1014C30004120E2EECA604120E2E46A804120E2EA3
:1014D30054A804120E2E67A804120E2E7CA8041220
:1014E3000E2E91A804120E2EA4A804120E2E20A9CB
:1014F30004120E2E85A904120E2E1BAA04120E2E00
:10150300F4AA04120E2E04AB04120E2E13AB041213
:101513000E2E8ED904120E2EB2D904120E2EDAD943
:1015230004120E2E02DA04120E2EFACA04120E2E22
:1015330021CB04120E2E3FCB04120E2EAECB04127F
:101543000E2E18FD02120E2E31FD02120E2E3DFD3F
:1015530002120E2E51FD02120E2E6FFD02120E2EDE
:1015630079FD02120E2E83FD02120E2E96FD02123B
:101573000E2E1CFE02120E2E91FE02120E2EC0FE25
:1015830002120E2E0EFF02120E2E5DFF02120E2EFF
:1015930078FF02120E2E82FF02120E2E93FF02120A
:1015A3000E2ED6FF02120E2EA77F00120E2E2B8AAE
:1015B30004120E2E578A04120E2E748A04120E2E53
:1015C300878A04120E2EA28A04120E2EFC8A04129B
:1015D3000E2E2A8B04120E2E3A8F04120E2E989082
:1015E30004120E2ECA9004120E2E2D9104120E2EEA
:1015F300999204120E2EC19204120E2ED692041248
:101603000E2EE69204120E2E269304120E2E6893CB
:1016130004120E2E789304120E2EB2D204120E2E42
:10162300CCD204120E2EF4D204120E2E0DD30412B9
:101633000E2E31D304120E2E4FD304120E2E66D368
:1016430004120E2E94D304120E2EAFD304120E2EB8
:1016530054DD04120E2EFBB704120E2E0BB8041227
:101663000E2E10B904120E2E42B904120E2E72B9A8
:1016730004120E2E95B904120E2EACB904120E2EBE
:10168300E6B904120E2E4BBA04120E2E8DBA0412B2
:101693000E2ED4BA04120E2E01BB04120E2E2CBB36
:1016A30004120E2EA7FE03120E2EB9FE03120E2EE7
:1016B300CDFF03120E2ED0FF03120E2EE6D6041218
:1016C3000E2E1CD704120E2E34D704120E2E76D7EC
:1016D30004120E2E86D704120E2ECAD704120E2E13
:1016E300A89304120E2EEB9304120E2E50940412A0
:1016F3000E2E6F9404120E2E119504120E2E1A95AF
:1017030004120E2E6B9504120E2E949504120E2EB7
:10171300A19504120E2E139604120E2EA1960412F6
:101723000E2EE69604120E2E1F9704120E2E849789
:1017330004120E2EAD9704120E2E249804120E2EB0
:10174300739804120E2EB09804120E2EE59804120C
:101753000E2EF79804120E2E099904120E2E2899B4
:1017630004120E2E319904120E2EED9904120E2E30
:10177300309A04120E2E6E9A04120E2E09DD0412F4
:101783000E2E72D104120E2E4FCD04120E2E85CDC5
:1017930004120E2ECDCD04120E2E26CF04120E2EC1
:1017A30084C603120E2EAAC703120E2EE6C7031217
:1017B3000E2EA4C903120E2ED2C903120E2E3CCC38
:1017C30003120E2E7CCC03120E2E1ECE03120E2EEF
:1017D300B4CE03120E2E0ECF03120E2E9ECF031283
:1017E3000E2EE2CF03120E2E24D003120E2E89D119
:1017F30003120E2E09D303120E2E4AD503120E2EF8
:1018030078D503120E2EA4D503120E2EADD50312D6
:101813000E2E0AD603120E2EA3D603120E2EBAD9FB
:1018230003120E2E40DA03120E2E9DDC04120E2E2E
:10183300B3DC04120E2EF6B304120E2E0CB40412F3
:101843000E2EB0B404120E2EEFB404120E2E0CB5ED
:1018530004120E2E3DB504120E2E8AB504120E2E5E
:10186300BEB504120E2EF9B504120E2EEEB70412F5
:101873000E2EE7D404120E2E46D504120E2E84D556
:1018830004120E2EC5D504120E2EB9A502120E2E69
:10189300C5A502120E2E27A602120E2E31A6021283
:1018A3000E2EBEA602120E2EFAA602120E2EF6A7B8
:1018B30002120E2E54A802120E2EF4A802120E2E9D
:1018C30074A902120E2E43AB02120E2E85AD021224
:1018D3000E2ECCAE02120E2E09B102120E2E71B2D2
:1018E30002120E2E1DB302120E2E0CB802120E2E71
:1018F30002B902120E2E9AB902120E2EBFB90212AB
:101903000E2E57BA02120E2E75BA02120E2EECBA12
:1019130002120E2E0BBB02120E2E38BB02120E2E1B
:10192300D0BC02120E2EF1BC02120E2E97BD021273
:101933000E2EDEBD02120E2E52BE02120E2EE0BE7F
:1019430002120E2E3DBF02120E2EB6BF02120E2E33
:1019530038C102120E2E9CC302120E2E25C402128F
:101963000E2E53C402120E2EDDA004120E2EBAA1A7
:1019730004120E2EDAA104120E2EFAA104120E2E58
:1019830041A304120E2E2AA604120E2EFCDD04120D
:101993000E2EECBE04120E2EABBF04120E2E11C07F
:1019A30004120E2EC0C004120E2E62B103120E2EAC
:1019B30091B103120E2E09B203120E2E18B30312A5
:1019C3000E2E74B303120E2EE1B403120E2EFDB4C9
:1019D30003120E2E4FB503120E2E8DB503120E2ECB
:1019E300A0B503120E2EF8B503120E2EBAB60312CB
:1019F3000E2E36B703120E2E6DB703120E2EA5B799
:101A030003120E2E2DB903120E2E0CBA03120E2E34
:101A13005ABB03120E2E3DBC03120E2EC9BC031279
:101A23000E2E09BD03120E2E28BD03120E2E73BDFA
:101A330003120E2E93BD03120E2E2CBE03120E2E76
:101A4300B2BE03120E2E0DBF03120E2E4DBF031294
:101A53000E2EE3C103120E2EFCC203120E2E42C33E
:101A630003120E2E37C403120E2E5FC403120E2E62
:101A730062C403120E2E6CC403120E2E88C403120A
:101A83000E2E02C503120E2E3BC503120E2E67C582
:101A930003120E2E8EC503120E2EB2C503120E2E86
:101AA30023C603120E2E36C603120E2E65C603126C
:101AB3000E2EBBDB04120E2EC7DB04120E2EFBDB35
:101AC30004120E2EF57F00120E2E339B03120E2EE0
:101AD300569B03120E2EA39C03120E2EEC9C031294
:101AE3000E2E589D03120E2EB69D03120E2EB99D77
:101AF30003120E2E0A9E03120E2E7F9E03120E2E2B
:101B0300049F03120E2E079F03120E2E889F0312AB
:101B13000E2EC99F03120E2EB5A303120E2E5FA520
:101B230003120E2EAFA503120E2E36A903120E2E8C
:101B330069AA03120E2EE3AB03120E2E80AC03121E
:101B43000E2E6BAD03120E2EC0AF03120E2E23EE1C
:101B530001120E2ECDEE01120E2E38EF01120E2EB3
:101B630053EF01120E2ED8EF01120E2E32F0011296
:101B73000E2E79F001120E2EE0F001120E2E5FF2FE
:101B830001120E2E8EF301120E2E16F401120E2EDA
:101B93001FF601120E2ECCF601120E2E70F7011253
:101BA3000E2E41F801120E2EFCF901120E2E738631
:101BB30004120E2E27FC01120E2E4DFD01120E2EC5
:101BC300008003120E2E638003120E2EAB800312CD
:101BD3000E2EEF8003120E2E4A8103120E2EA781C2
:101BE30003120E2EE28103120E2E648203120E2EB6
:101BF300BE8203120E2E3C8403120E2EBC840312EB
:101C03000E2E178503120E2E318503120E2E5285CA
:101C130003120E2EAC8503120E2E288803120E2EED
:101C2300478803120E2E378903120E2E18CC021288
:101C33000E2EE98A03120E2E258B03120E2E948B81
:101C430003120E2E498C03120E2E218E03120E2E1A
:101C5300288F03120E2EA09003120E2E96920312BB
:101C63000E2E0C9503120E2EE69603120E2EA79738
:101C730003120E2E1F9803120E2E369803120E2EE9
:101C83002D9903120E2E219A03120E2E909A0312EF
:101C93000E2E57C504120E2EAEC604120E2E6DC79D
:101CA30004120E2ED5C704120E2E32C204120E2EAB
:101CB3004DC204120E2E91C204120E2EB7C204128C
:101CC3000E2EDEC204120E2EF6C204120E2E98C37E
:101CD30004120E2EADC304120E2ED0C404120E2E07
:101CE300D9C404120E2EE2C404120E2EEBC4041245
:101CF3000E2EF5C404120E2E44AB04120E2E50AF5A
:101D030004120E2E55AF04120E2E57AF04120E2ED0
:101D1300FFCF04120E2ED0DD04120E2EBEAF04121E
:101D23000E2EE1FF02120E2EC1DA04120E2EEBDA92
:101D330004120E2E008002120E2E338002120E2E7B
:101D43009F8002120E2E3A8102120E2ED7810212AA
:101D53000E2E1C8202120E2E3E8202120E2E57826D
:101D630002120E2E7D8202120E2E9F8202120E2E60
:101D7300DD8202120E2E218302120E2E43830212E3
:101D83000E2EA58302120E2E6C8402120E2E2385B4
:101D930002120E2E958502120E2E608602120E2E50
:101DA300B38602120E2E198702120E2E53870212C9
:101DB3000E2EA58702120E2E138802120E2E7E8877
:101DC30002120E2E818802120E2E028902120E2E8C
:101DD300998902120E2E198A02120E2E388A0212C5
:101DE3000E2E9C8B02120E2EA98B02120E2EB58C78
:101DF30002120E2EC28C02120E2ECB8C02120E2E4B
:101E0300A38E02120E2EBD8F02120E2E36900212D8
:101E13000E2EA89002120E2ECA9002120E2E5E9162
:101E230002120E2E329302120E2E099702120E2E5A
:101E33001D9702120E2E2D9702120E2E37970212A5
:101E43000E2E409702120E2E499702120E2E539712
:101E530002120E2E809702120E2EA99702120E2E38
:101E6300B49702120E2ED89702120E2EFC9702126E
:101E73000E2E669802120E2EAC9802120E2EC998E0
:101E830002120E2E469902120E2E7D9902120E2E6A
:101E9300BC9902120E2E099A02120E2E8F9A02126A
:101EA3000E2E5D9C02120E2EE09C02120E2EC49D7D
:101EB30002120E2E2BA002120E2E84A002120E2E40
:101EC300CEA002120E2E29A202120E2E5EA2021222
:101ED3000E2EB0A202120E2E65A302120E2E14A411
:101EE30002120E2E51A402120E2EE6A402120E2E80
:101EF30052A502120E2ED62D00120E2E082E0012FF
:101F03000E2E362E00120E2E0C3000120E2EEC303A
:101F130000120E2E443100120E2E7F3200120E2EAE
:101F2300CB3200120E2EF43500120E2EE7380012BB
:101F33000E2E373A00120E2ECD3A00120E2ED93A3B
:101F430000120E2E0B3B00120E2E8E3C00120E2E94
:101F53003F3E00120E2ED33E00120E2E163F0012ED
:101F63000E2E943F00120E2EB13F00120E2EE13FB3
:101F730000120E2E164000120E2EE64000120E2EF8
:101F83008F4100120E2E154400120E2E35450012FD
:101F93000E2E204600120E2EA24600120E2ED64AF8
:101FA30000120E2E134B00120E2E6B4B00120E2E30
:101FB3009E4B00120E2E084C00120E2E3E4C0012A9
:101FC3000E2EC94C00120E2E214D00120E2EF84D6E
:101FD30000120E2EB14E00120E2E4C4F00120E2E7A
:101FE300545200120E2E705300120E2E135700126D
:101FF3000E2E075800120E2E0A5800120E2E3958B4
:1020030000120E2E3F5A00120E2E185B00120E2ED7
:102013005B5B00120E2EB15C00120E2EF05C001200
:102023000E2E795D00120E2EAD5D00120E2E725E25
:1020330000120E2E8A6000120E2EFB6000120E2E6E
:102043003B6100120E2EC96100120E2EEB620012CC
:102053000E2EAD6300120E2EB46500120E2ECC654B
:1020630000120E2EE06500120E2E186600120E2EC0
:10207300466600120E2EC56700120E2EEA68001285
:102083000E2E476900120E2EF96900120E2E206AD9
:1020930000120E2EE76A00120E2E7F6B00120E2E18
:1020A300A56D00120E2EDA6D00120E2E3D6E00127B
:1020B3000E2E6C6F00120E2E147000120E2E457031
:1020C30000120E2E5D7000120E2EEC7000120E2EFA
:1020D300A07300120E2E787500120E2E9475001246
:1020E3000E2EB07500120E2E7E7600120E2E717A11
:1020F30000120E2EF78401120E2E298501120E2EC8
:10210300188901120E2E648901120E2EAA8901125A
:102113000E2E4C8A01120E2EA88A01120E2EED8A63
:1021230001120E2E348C01120E2E488D01120E2E2A
:10213300379101120E2EBB9101120E2EC89201127D
:102143000E2E249301120E2E149501120E2E899534
:1021530001120E2E939501120E2EA09501120E2E32
:10216300CB9501120E2EB29601120E2E5C97011220
:102173000E2EDA9701120E2EFA9701120E2E2398C5
:1021830001120E2E459801120E2EA59A01120E2E43
:102193006B9B01120E2EB09B01120E2E2D9C011271
:1021A3000E2EDE9C01120E2E109D01120E2E569D38
:1021B30001120E2E929D01120E2EE29D01120E2E81
:1021C300369E01120E2E8C9E01120E2ED89E0112E7
:1021D3000E2E459F01120E2EC09F01120E2E8BA1B3
:1021E30001120E2E8BA201120E2EB0A301120E2E7F
:1021F300EFA601120E2E02AA01120E2EBFAA011281
:102203000E2E03AB01120E2EB3AC01120E2EC7AC71
:1022130001120E2ED1AC01120E2EDBAC01120E2ECA
:10222300E7AC01120E2E03AD01120E2EAEAD01125C
:102233000E2EEDAD01120E2EF7AD01120E2E01AED4
:1022430001120E2E71AE01120E2EBCAE01120E2E15
:10225300D1AF01120E2E2DB001120E2EAEB001120F
:102263000E2E6DB101120E2E76B201120E2EAAB3EE
:1022730001120E2E98B401120E2EB0B401120E2EBE
:102283000BB501120E2E29B501120E2E71B50112D6
:102293000E2E98B501120E2E33B601120E2EF9B67C
:1022A30001120E2E8BB701120E2E05B801120E2E3F
:1022B3001FB901120E2ECCB901120E2EF4BA01125F
:1022C3000E2E44BB01120E2EA8BB01120E2E0ABC09
:1022D30001120E2E38BC01120E2E5CBC01120E2E02
:1022E30091BC01120E2EC2BC01120E2EF5BC0112BE
:1022F3000E2E15BD01120E2E7DBD01120E2E71BEC6
:1023030001120E2ECCBE01120E2EF5BE01120E2EA0
:102313007DBF01120E2E00C001120E2E2BC0011222
:102323000E2E10C101120E2EA6E803120E2EDEE8A9
:1023330003120E2EFFE803120E2E41E903120E2E96
:10234300A3E903120E2EADE903120E2EBDE903120B
:102353000E2EF8E903120E2ED8ED03120E2EC5EF42
:1023630003120E2EABF103120E2E42F203120E2EA7
:10237300E4F203120E2E12C301120E2E90C30112A9
:102383000E2EECC301120E2E37C401120E2E52C4B0
:1023930001120E2E7DC401120E2E9AC401120E2EAE
:1023A300A6C401120E2E3DC601120E2E56C60112F0
:1023B3000E2EDBC601120E2EEEC601120E2E0DC717
:1023C30001120E2EB1C701120E2E32C901120E2EAA
:1023D300E5CA01120E2E7BCB01120E2E7ECB01120B
:1023E3000E2EEECB01120E2E0CCC01120E2EA3CC10
:1023F30001120E2EEBCC01120E2EEECC01120E2E7C
:10240300B4CD01120E2E21CE01120E2E47CE011293
:102413000E2ED2CE01120E2EF0CE01120E2E36CF7C
:1024230001120E2EEACF01120E2E34D001120E2EFF
:1024330063D001120E2EC0D001120E2EF5D0011260
:102443000E2E21D101120E2E2FD101120E2E7CD170
:1024530001120E2EECD101120E2E35D201120E2EC8
:1024630081D201120E2EADD201120E2EB8D201125C
:102473000E2ED6D201120E2EC1D301120E2ECBD3A5
:1024830001120E2E06D401120E2E16D401120E2E98
:102493001FD401120E2E73D401120E2E87D40112F3
:1024A3000E2EB6D501120E2ECBD501120E2E59D6F5
:1024B30001120E2E9ED601120E2E2AD701120E2EB7
:1024C30035D701120E2E77D801120E2E92D8011293
:1024D3000E2EDED801120E2E4DD901120E2E86D9E4
:1024E30001120E2EA0D901120E2EE2D901120E2EC8
:1024F300B2DC01120E2E5FDD01120E2ECCDD0112B5
:102503000E2E0CE001120E2E24E001120E2E27E0F7
:1025130001120E2E33E001120E2E47E001120E2E91
:102523004FE001120E2E82E001120E2E84E1011201
:102533000E2E0BE201120E2E7BE201120E2EFDE295
:1025430001120E2EBEE301120E2EDDE301120E2E3A
:102553007EE401120E2EDBE401120E2EDEE40112E4
:102563000E2E52E501120E2EA1E601120E2EA7E742
:1025730001120E2E32E801120E2E4DE901120E2E1B
:1025830015EA01120E2E46EA01120E2E69EA011215
:102593000E2E72EA01120E2EA1EA01120E2E31EB5B
:1025A30001120E2EE7EB01120E2E5CEC01120E2E21
:1025B30003ED01120E2E78ED01120E2EAFED011276
:1025C3000E2EEDED01120E2E0C8604120E2EF88542
:1025D30004120E2E558504120E2E558404120E2E4F
:1025E3006E8304120E2E5E8104120E2E6C80041272
:1025F3000E2E0A8004120E2E04FD02120E2EFAFC79
:1026030002120E2E8FFC02120E2EBFC802120E2EC5
:1026130013C802120E2EC0FA02120E2E7EFA0212F6
:102623000E2E70C702120E2E2AC702120E2E82F928
:1026330002120E2E56F902120E2E0DF902120E2E52
:102643004EF802120E2E3AF502120E2EFBF2021271
:102653000E2EC8F202120E2E6FF202120E2E02F28C
:1026630002120E2EC1F102120E2EFAF002120E2EDB
:1026730094F002120E2E33F002120E2ED3EF02123A
:102683000E2EAAEE02120E2E3EEE02120E2E96ED24
:1026930002120E2E91ED02120E2E85ED02120E2E57
:1026A300F5C602120E2EC2C602120E2EADC60212BD
:1026B3000E2E82C602120E2EE58904120E2EB18949
:1026C30004120E2E5A8904120E2EB8E902120E2E8F
:1026D30092E902120E2E30E902120E2ED1E80212F6
:1026E3000E2EC88704120E2E92E802120E2E7FE8D9
:1026F30002120E2E74E802120E2E43E802120E2E60
:102703001A8704120E2E30E602120E2E6A8A031264
:102713000E2EA3E502120E2E5FE502120E2E33E5F6
:1027230002120E2E41FE03120E2E14FE03120E2E63
:10273300E1FD03120E2EB9FD03120E2E5AFD0312F4
:102743000E2E3AFD03120E2E05FD03120E2EB1F9C5
:1027530003120E2E99F703120E2E83F503120E2E7B
:1027630003F503120E2E7D8604120E2EAFF4031210
:102773000E2E63F403120E2EBBF303120E2E94FBE4
:102783000100000080FBE4738F000100A81C870098
:102793000100A61C350004006F1C25000200731CF9
:1027A30026000200751C27000200771C2800010088
:1027B300811C29000100821C84000400031A860086
:1027C3000100211C2A000100831C2B000100841C32
:1027D3002C000100881C2D0008000F1A2E00010098
:1027E300891C2F0001008A1C300001008B1C310062
:1027F30001008C1C32000100171A33000100181A63
:10280300340001008D1C36000100191A3800010044
:102813008E1C39000100871C83000200A41C630086
:102823000100251A64000100851C65000100861C57
:102833006D000100261A71000800071A66000100E6
:10284300A31C43000100941C44000200951C450096
:102853000100971C46000200981C470008001D1A3F
:10286300480001009A1C4B0001009B1C040001005E
:10287300A71CA1000100AB1C37000100AA1C8800A3
:102883000100A91C3C0001001A1A3D0001008F1C25
:10289300490002009C1C67000100271A4D0002003A
:1028A3009E1C4E000100A01C4F000200A11C3E0014
:1028B3000100931C510001001B1A52000100911CDE
:1028C30053000100921C540001001C1A0000000078
:1028D300000000013636010100010201000103017D
:1028E3000001040106060502000007010034080187
:1028F300000F090401010D0100FF0E08000017027B
:102903000000190100FF1A0100011B0100FE1C0158
:1029130000081D0200001F01000120010001210227
:1029230000002301000F24020000260100012701FB
:102933000008280200FF2A0100072B0102402C0196
:1029430000002D0100012E0100012F0100FF3001C5
:102953000B1D310800003A0100083B01000F3C0148
:1029630000013D0100FF3E04000042040000460454
:1029730000004A0400004E04000052040000560404
:1029830000005A040000000001002001F38400004D
:1029930002002001F584000003002001F6840000FA
:1029A30000002001F18400000400420113840000B0
:1029B30005004201EE83000007003001F2840000AD
:1029C300FDFF2101DB84000006004201B18300000A
:1029D30000402001F384010020002005371C010082
:1029E30021002005381C020400002905391C0204BB
:1029F30001002901DD84020402002901E1840304AA
:102A0300000029053D1C030401002901ED84030492
:102A130002002901EB840504000029053F1C05047D
:102A230001002901E984050402002901E784010367
:102A330071030103010301030103010322030203E1
:102A4300010310030003000300030003000300035A
:102A530000034203000324030603000300030403EB
:102A630012032503230325032303040304030003A1
:102A7300000300034403000300032303000365036F
:102A83002100350381030003050300030003000352
:102A93000003250323030101710101010101110158
:102AA30001013101010101018001100161013B00BC
:102AB30014006301730172016201430100011301F8
:102AC30006013D013500040112010001000100016E
:102AD300000104010401330133013C0144013201CB
:102AE300360000010001650100013500810100018C
:102AF30005018201830100010300710030016000C0
:102B030011007000310220035004800010006100A6
:102B130000001400630073007200620043000000B1
:102B23001300060000000000040012000000000073
:102B33000000000004000400370037003C0244009A
:102B43000000000000000000650000003500810067
:102B53000000050000008300000003027102300141
:102B630060021102700201020202020280021002DC
:102B730061023A004100630273027202620243027D
:102B830000021302380000020002040212020002D3
:102B930000020002000204020402370037003C0274
:102BA30044020002390000020002650200023502FD
:102BB3008102000205028202830200023600010044
:102BC300060000000F0000000000000000000000ED
:102BD300000003FFFF00000403FFFF0000FFFF0FDF
:102BE300F4010005C4040320000100000B000000F1
:102BF300000000000003010F0000000000000000BF
:102C030000000000000000000000000000000000C1
:102C130000000000000000000000441962194A1976
:102C2300A8180000000000000000000000000000E1
:102C330000005019A818000000005619A818000039
:102C43000000000000005C19A8180000000000004C
:102C53000000000000000000000000000000000071
:102C63000000000000000000000000000000000061
:102C73000000000000000000781B0100781B020028
:102C8300EE1A0280E81A0300F41A0400FA1A048008
:102C9300001B0500061B0600121B3100241B33001A
:102CA3002A1B3400301BFFFF000003000300040055
:102CB300080010001F003E007B00F600EC01D70364
:102CC300AF075D0FB91E713D000007ECFDFDFDEC84
:102CD300DCDCCCBCACAC9C9C8C7C7C6C6C5C5C5CB1
:102CE3004C4C3C3C2C2C1C1C03EAF5E5D5D5C5B556
:102CF300A595958585757565655555454535352581
:102D0300251515050204000029053B1C02040100DA
:102D13002901E584020402002901EF840A6C2102DF
:102D23003621054221073C210C1E210D2A21FF00DB
:102D33000000160F00000B150B020002220F3300D8
:102D4300000E0FD0D1D2D3D4D5D6D7D8D9DADBDC85
:102D5300DDDEDF5A6967426565416C6C69616E63EC
:102D6300653039303016181920231A1C1E30000321
:102D73004D4C4651181A250502000119161816164E
:102D830018230300303017181921301B1D1F300082
:102D93003C40423A3F3F392F47300C0E020B040BA5
:102DA3000A0708000F02040201010101090200BE23
:102DB300040AE80300000E0001000300E80304090D
:102DC3000315031E10030A0C041E0828020C050831
:102DD300150404C082C08312124E901A50740EF070
:102DE300A3741FF0901A527414F0A3741FF0901A76
:102DF30054741AF0A3741FF0901A567420F0A3743D
:102E03001FF0025B1174F71208BF901A44E4F0E953
:102E1300901A43F07C1D7D1A7A457B1A1218849010
:102E23001C9AE0901A4DF0901A4E7407F0A3741A8E
:102E3300023D9E74F01208BFEAFEEBFF548070035C
:102E4300022FA7901A43123E337003022FA0EA24E5
:102E53001B12569E707CEA241F12569E6413700246
:102E6300A3E0706E8A828B83122FF5901A5E124C48
:102E730030750A00750B00800D123C74126D101230
:102E8300179AAA0EAB0FEA4B60488A828B83E065E0
:102E93000C7004A3E0650D702C8A828B83A3A3A31B
:102EA300A3E0F50EA3E0F50FE50A450B8A828B83B9
:102EB300A3A3A3A360C3123F76850A82850B83A3D2
:102EC300A3A3A380B78A0A8B0B8A828B83124C2C11
:102ED30080B4E508242A12569EFCE5082402F8E48F
:102EE3003509F9E8FAE9FB901A5E1230DCA3A3E096
:102EF3006402703C8A828B83124C30800B888289F7
:102F030083A3A3A3A3123F76E849601F8882898322
:102F1300E06A7003A3E06B70E488828983A3A3E073
:102F23006C70DA901CA01259CE806BECF9121F4A18
:102F3300850882850983E06401704FE5082418122F
:102F43002FDE120E6A1262B8120CAFE508241212B9
:102F53002FDE120E6AE508123E27120E66E50824DC
:102F63000B1262BC120CB3E5082417123DC4E5082A
:102F73002402FCE43509FDE5082419FAE43509FBCC
:102F830012275A740A120E79800CE064027007AAA1
:102F930008AB09122028AA08AB09121704EEFAEFAE
:102FA3006480802DEA5402600C901CAF7401F0EA37
:102FB3006402FA8023EA5408601A121F44EA4B7031
:102FC3000B901A601261937A08122FEBEE6408FAE1
:102FD300EFFB80047A007B00026942F582E4350945
:102FE300F583E0F50A780A22FB901A43E0F91218F8
:102FF3005A22A3A3E0F50CA3E0F50D227B00901A5F
:1030030043E0F912184E74042274F41208BF8A08BC
:103013008B098A828B83A3A3A3124A28123DCF383C
:10302300F583E02409FA1268DA70030230CF8A824A
:103033008B837402124A9D8508828509831230DCD2
:10304300E8F0A3E91265548A828B83A3A3A3A3A305
:10305300A3A3A3F0E5082403F8E435091230D11241
:103063003DCF3AF583E08E828B83A3A3A3A3F0EE37
:103073002409FAE43FFB8E828F83A3A3125C80F5BD
:10308300838882E0A2E58E828F83A3A3A3A3A350A8
:103093000474018001E4F0E5082403F582898312B6
:1030A3004C30EA1251B13BF5831268A1120E621241
:1030B3003DCE3B125D728E828F83A3A3127A501290
:1030C3000E79EEFAEFFB901A431269278016F988FE
:1030D30082F583E0FAA3E0CA22124DCDA3A32274A2
:1030E30002120E797F04020C2A74F21208BF8A08B6
:1030F3008B09ECFAEDFB740E121181E0FC121284C1
:103103008A0C8B0DAE0CAF0DEA4F6030AC08AD09E5
:10311300121272E96026AC08AD09EEFAEFFB121247
:1031230078E970148E828F83123F63FAEFFB1212D9
:103133006CAA08AB0912129C7900800279B4024D83
:103143001C74F01208BF74F6120F11EAFEEBFF8C29
:10315300088D09750FB3852182852283E4F0750EEE
:10316300008002050E902DD4E493F8E50EC3984039
:103173000302326BAA0E7B001212C08A0A8B0BEA7F
:103183004B60E08A828B83A3A312327228F0F8C3C8
:10319300EE98EF940050CC7C157D007900AA08AB23
:1031A300091216EC850A82850B83A3A3A3A3126DD0
:1031B3004DE0F8EEC3982925E0F8E433F9E50A2851
:1031C300F582E50B39F583A3A3A3A3A3A3123DD9EA
:1031D300A31257F58A0C8B0DAC0CAD0DAA08AB09E5
:1031E300121884850A82850B83A3E06401700A1296
:1031F30062B87401123DEB80447401120F09850A11
:1032030082850B83124C2E1212A8E9603D740912B9
:103213001181E0C0E01262B8D0E0F07409121181AC
:10322300E0640370137401120F09E508240BFAE438
:103233003509FB12188480127401121181123F7632
:10324300E5081257DB3509126D0E850A82850B835B
:103253001262C4123DEBA3A3E0C0E0E508241412FC
:1032630062BCD0E0F0750F00A90F740A02693FA396
:10327300A3A3E0F8852182852283E02274F7120854
:10328300BFE9FE8A828B83A3A3A3A3A3A3E054086D
:1032930060338A828B83A3A3A3A3A3A3E054026016
:1032A300218A828B83A3A3A3A3A3A3A3A3A3E064E1
:1032B30006600F74E96E600A74CD6E600574F06E7B
:1032C3007003121F2C02461B74F01208BF74EF1216
:1032D3000F11740F1211811260777408121181E9B2
:1032E300F0ECFEEDFF74051211811243E312460761
:1032F300A3E0F9121290740612118112607774061A
:103303001211811252427003023586123E13E0FA03
:103313007406121181E0F9121E6C1235E6F8A3E06F
:10332300F9E8497003023586EE2403F50AE43FF514
:103333000BEE2406F508E43FF5097C00850882F5C9
:1033430083124C30850A82850B83E0F9121296743E
:1033530003121181126077850A82850B83E0C0E036
:103363008521828522831235DFD0E0125357F985F8
:103373002182852283123C7B124EA9123275FAA355
:10338300E0CA2407F582E43AF583E8F0A3E4126087
:10339300822406F582E438F583E4126D1A124A1C7E
:1033A300120E62EE123DCF3F125D72740312118151
:1033B300124A282409127A4A120E797429121181A9
:1033C300126D471230D612536A3A126D0E742B12D5
:1033D3001181E0C0E0852182852283125209D0E069
:1033E300F07402121181E4F074251211817808122D
:1033F300112A0234DD7403121181125D3A8882F5B9
:10340300831235CEA3A3A3125800FB1212AE850E6E
:1034130082850F83A3EAF0A3EBF0740312118112E8
:1034230035DFA31235CE125A0FA2E6500F850E8256
:10343300850F83A3A3A3A3A3E0D2E1F07405121124
:1034430081E0706B850E82850F83A3123F76901AFD
:103453009EE0687003A3E0697055850E82850F8333
:10346300A3A3A3123DAE750C00780C120E6A780864
:10347300120E5E7429121181E0F50C780C120E6A9B
:103483007427121181120CB3901AAB120CB379008A
:103493007419121181124C00122070740A120E79E1
:1034A300850E82850F83A3A3A3A3A3E04405F07431
:1034B30002121181E004FC8E828F83124C2A8E82C9
:1034C3008F83A3A3A3E0F91212967403121181123E
:1034D30060777402121181E004F0740312118112F7
:1034E300524260677402121181E0FA74061211816C
:1034F300123F76C3EA98E499505174021211811273
:1035030038B8852182852283E028F8A3E039F9E8D9
:10351300240FF50EE439F50F850E82F583E4F0747C
:10352300031211811235D9640160030233F8740563
:10353300121181740112692DF07403121181125B4F
:10354300011238DBE8F0A3E902341C8521828522CD
:1035530083124C30121E72852182852283120CB392
:103563007426121181E0FD7425121181E0FC740AA6
:10357300121181E0F9EEFAEFFB121F267402120E0C
:103583007980438E828F83A3A3A3E0C0E0740C12DF
:103593001181D0E0F0126796E0C0E0740D12118142
:1035A300D0E0F074061211811252427009740E12A7
:1035B300118174B98007740E1211817410F07409AB
:1035C300120F0112206A741102693FE0850E828591
:1035D3000F83A3A3A322E012532FE022E012532F61
:1035E300A3A322852182852283EAF0A3EB12524B07
:1035F3002274F01208BF74E1120F117404121181C6
:10360300E9F07403121181ECF07402121181EDF0F0
:103613008A0E8B0F742F121181122FF7AA0CFB1233
:103623001E607401121181E9F0AA0CAB0D121E6623
:103633007401121181E070030238B385218285225F
:1036430083E480158E828F83A3A3A3A3A3E0D2E395
:10365300F0852182852283E004126885F885218222
:10366300852283E0C39840030238AA7401121181B2
:10367300E070030238AA8521828522831238B8E5D7
:103683000C28F8E50D39F9E8240FFEE439FF8E82A2
:10369300F583A3A3A3A3A3E0A2E040B57508007537
:1036A3000A08750B007402121181E060037508208B
:1036B3007C087D0079007405120F011216EC8E82CE
:1036C3008F83E0603E901AEEE06401701AE508D241
:1036D300E3F508750B101238C8121181E8F0A3E95D
:1036E3001256F374FF807643080C750A0C8E828F92
:1036F30083A31238D3126D10740512118174FFF075
:10370300A3805A7404121181E06009E508D2E6F53A
:1037130008750A0A8E828F83A3E064FE7003A3E018
:10372300F47030741212118174041262E2F8741D81
:10373300121181E8124A9D7412120F01121D8E7D1F
:10374300007C0079007415121181AA82AB83121BCD
:1037530060800B1238C8121181E8F0A3E9F07407F6
:10376300121181E508F0123E0AC0E07409121181BA
:10377300D0E0F0740A1211817401F07405120F0184
:1037830012202E7411121181E06003023888740D27
:103793001211811253528E828F83A3A3A3A3F074B9
:1037A3000D121181124A6BE50AF0A3E50BF07403C5
:1037B300121181E0C0E01249FCD0E0125A0F6011EF
:1037C300901AEEE0C0E0740D121181124A46D0E067
:1037D300F0740D121181123F76850C82850D83A33F
:1037E300A3A3A3A31238C1241C126071126D2A1261
:1037F30038C31259C1391267B5C0E01249E3D0E0AA
:1038030012687AC0E0740D121181124529D0E012BA
:10381300657BC0E0740D12118112451FD0E0F07476
:103823000D1211811238D31238C1242A1260718506
:103833000E82850F83A3A3A3A3A3A3A3A3E0126074
:103843006A123DF9C0E012450BD0E0F0740D12117D
:1038530081124C30850E82850F831268902428F5DF
:1038630082E43B126D0E123E021268A1120E621226
:103873005D6BEA1260033B127A4E120E79740512E5
:103883000F011220348E828F83A3A3A3A3A3E0D2BC
:10389300E0F07411121181E06003023647740112E3
:1038A3001181E0140236537900AA0CAB0D121F32BA
:1038B300741F02693FE075F007A4F8A9F022A3A3DF
:1038C300124C34E8228E828F83A3123F7A7405222E
:1038D300E01238DBA3A3A322F8A3E0F9850E8285C7
:1038E3000F83A32274F01208BF74E8120F11E98545
:1038F3002182852283F08A0E8B0F8A828B83A3A376
:10390300A3A3A3A3A3A3E0F9121E8A8A088B09EA3F
:103913004B70030239C4E50E1251C5123E22123D0B
:10392300B9852182852283E060030239C77C04853F
:103933000E82850F83A3A3A3A3A3A3A3A3E0F912DA
:103943001E90EE4F607B8E828F83A3A3A3A3123FAF
:103953007674071211811261A8123F76740912114D
:1039630081124ACDC0E07411121181D0E012655961
:10397300A3A3A3A3A3A3A3123F76740F12118112CF
:103983006D107412121181E4126935C8241FF58277
:10399300E438F583125D36C413135403FC70027CC0
:1039A300048E828F83E0F97808120E66742059FD25
:1039B300744059F97403120F01121F267402120E78
:1039C3007902693D7C08850E82850F83A3A3A3A397
:1039D300A3A3A3A3E0F9121E908B0BEA4B7003027F
:1039E3003945EE4F60DB852182852283E0F50C7833
:1039F3000C120E6A850882850983A3A3A3A3A3A33C
:103A0300A3E0F50C780C120E6A8A828B83A3A3A31E
:103A1300E0FB8A82850B8312756D8A82850B83E0B6
:103A2300FA8E828F83A3A3E0F91227607402120E29
:103A33007902394974F71208BF74FA120F11E9FEBB
:103A4300780179017F00800379000F124DACE0FC0F
:103A5300EFC39C5026EF75F007A4FC85F008AD0872
:103A6300EA2CFCEB3DFD12439BE0A2E050DA540C40
:103A730060D6E0A2E250D3780080CF8A828B83A302
:103A8300A3A3A3A3A3E0703DE9A2E0400574016EE4
:103A930070338A828B83A3A3A3A3A3A37401123DD0
:103AA3008BE0C0E07403121181D0E01243FAE0C04E
:103AB300E07404121181D0E0F07405121181E81250
:103AC3005CD512206A7406024618C082C08379014D
:103AD300121F32025B1174F41208BFEA4B901CAF41
:103AE3006019E4F08A088B09F50AF50B7808120EC1
:103AF3005E7A02122FFF120E79800A7401F07A02A5
:103B03007B00122FEC0230E774F01208BF74F3123B
:103B13000F117403121181E4F0A3F0901A5E123DA9
:103B2300B97401121181E4F0A3124AA204F0901AAD
:103B330098E0A2E35003023BFE123D7F7409121189
:103B43008112116A7409121181780812112A901ACC
:103B5300607808120EE17405121181780812111BA6
:103B6300123C82740512118178081210BE50077A34
:103B7300017B00023C6F7405121181780C12112A2B
:103B8300901C9FE0F509780C7908120850A80CA93D
:103B93000D901CA0E0C398E4995003E08001E885F0
:103BA3002182852283F07409121181780812112A67
:103BB300C008C009C00AC00B7405121181780C1229
:103BC300112A123C82780C7908120850E4F50AF5A0
:103BD3000BD00FD00ED00DD00C780C7908120FB982
:103BE300901A60780C12111B8011123C74126D1024
:103BF300EEFAEFFB12179AAE08AF09EE4F60658E2F
:103C0300828F83123272C398502DEE2403F8E43F5F
:103C1300F9E0FA88828983E0C39AF060237403127F
:103C230011811240DC7401121181EEF0A3EF1261D5
:103C3300C3FEA3E0FF80C48E828F83A3A3A3E4F01B
:103C43008E828F83127A0774011211811252428E6F
:103C5300828F83A3A3A3A3609112619C121181128B
:103C63003C7B80897403121181124C30740D0269FC
:103C73003F123F7A901A5E22125D61A3A3A32290A2
:103C83001C9E127A0FE4F50AF50B2274F01208BF9A
:103C93008A088B09890A78007900901A5E123DB967
:103CA300FBEE4B601E088E828F83A3A3A3A3124B4C
:103CB300FA601008E87001098E828F83123DB5EA1D
:103CC3004F70E3901CA1124C30C3E89AE99B400368
:103CD300023D727A06123D75A80CA90DEA497003DC
:103CE300023D728A828B83E508F0A3E509123D94B5
:103CF300E50AF0901CA0124DB4123D8BA3E4F0A38F
:103D0300F0901A5E124BFA600D8E828F83A3A3A3E9
:103D1300A3126D108017901A5E126D10901A98E01E
:103D2300A2E34009123D7F901A6012116A901A981B
:103D3300E0A2E3503A7A087B00901A43E0F91218A4
:103D430060EA4B4C4D7028901C9EE0F508A3E0857B
:103D5300080CF50DE4F50EF50F780C120E5E7A08DB
:103D63007B00901A43E0F91218547404120E79027E
:103D730069427B001217948A0C8B0D2212186CEA8D
:103D8300F8EBF9ECFAEDFB22123D8F22123D94A3DE
:103D930022F08A828B83A3A322E508F002461BF05C
:103DA3008E828F83A3A3A3A3A3A3221256ACA3A3A0
:103DB300F022A3A3A3A3E0FEA3E0FF227F05020C4E
:103DC3002AF582E43509F583E0F922EA123DD3228C
:103DD3002410F582E422123DE1A3A3A3A322123F00
:103DE3007E85088285098322123DEF22F0850A82AF
:103DF300850B83A3A322E50E2411123E1FE022E5C7
:103E03000E240E123E1F22E50E2410123E1FE02246
:103E1300123E1722EE123DD33FF58322F582E4359D
:103E23000FF58322240FF50AE43509F50B780A22EE
:103E3300E0F91217168A088B09EA4B2274F212086A
:103E4300BF890B8A088B098A828B83124C30121F1D
:103E530056EA4B600479B8806A121F62E9F8902D24
:103E6300C7E493F9E8C399400479B280567A1512EE
:103E73003D75AE0CAF0DEA4F7004791080458A8210
:103E83008B83E4F0A3123D94E50BF0750A007808E8
:103E9300120E627C127D00EA240312684C120E7922
:103EA300901A641252427008901A64800C123F7682
:103EB30088828983123EC970F4EEF0A3EFF0121FDB
:103EC300747900024D1C124C34EA4B888289832298
:103ED300C082C083901A6480048C828D8312756EB5
:103EE300EC4D60288C828D83A3A3E069600574FF89
:103EF3006970E68C828D83A3A3A3E06A7003A3E0B9
:103F03006B70D6EC2403FAE43DFB80047A007B005B
:103F1300025B1174F71208BFE9FD74FE6D70047C37
:103F23000180027C00901A6480096D70027C018814
:103F3300828983125242601F88828983A3A3A3E0EC
:103F43006A7003A3E06B70E7ECA2E088828983A325
:103F5300A3E050D6F9800279FE02461BEEF9800CED
:103F6300A3A3127A0FEE227402120E797F02020CBF
:103F73002AF583123F7A22123F7E22E0F8A3E0F96A
:103F830022123F7E8E828F8322120E797F03020CD0
:103F93002AC082C0837900901A64800109E0FAA3E1
:103FA300E08A82F583E582458370F1025B1174F642
:103FB3001208BFE4F508F5097808120E66902DC7BC
:103FC300E49375F013A4A9F01240D1126D6E120E92
:103FD30079E9FE74096E7003121F6E023F5F74F677
:103FE3001208BF74FE120F11852182852283E4F02B
:103FF300A3F0A821A922880889097808120E6675FA
:1040030008027509007808120E661269DF120E792C
:10401300023F6A74F51208BF74EB120F11852182F7
:10402300852283E4F0A3F0901A6480748E828F83D8
:10403300A3A3E0C0E07402121181D0E01256F3A9E9
:1040430082AA8389088A09750A007808120E627C9D
:10405300127D007406121181126D33120E797402EF
:10406300120EF9880889097808120E667508137507
:1040730009007808120E6674041211811251E57555
:10408300F013A4F8AAF075F013E91240CD1269E712
:10409300120E798521828522831240DC8E828F83E2
:1040A300123DB9EE4F7085A821A9228808890978A5
:1040B30008120E667508027509007808120E66125A
:1040C30069DF120E797415023F8CA42AF9E82402E1
:1040D300FCE439FD7A427B0022E02401F0A3E034C2
:1040E30000F02274F41208BF74EB120F117E007FEC
:1040F30000A821A922880889097808120E66750884
:10410300028E097808120E667C007D007A42126DD9
:104113007A120E79E9706C8E0880567402120EF9C9
:10412300880A890B780A120E66750A13750B0078D4
:104133000A120E66E50875F013A4F8AAF075F013D9
:10414300E5091240CD126D7C120E79E9701B7403E0
:10415300121181AA82AB837402121181E0F9121F3A
:1041630050E970050EEE70010F0508E508700205B1
:1041730009852182852283123F76C3E50898E509E4
:10418300994098EEFAEFFB74150230E474F61208C6
:10419300BF8C828D83A3A31243E8F0EA1260093B2C
:1041A300F583E0C0E01243A5D0E0F0EA241DF582D8
:1041B300E43B123F741243891243E3F0A3F0EA2471
:1041C3001FF582E43BF583123DB9EC12437C3DF5C8
:1041D30083EEF0A3EFF01243823BF5831243B3A3C4
:1041E300A3A3A3A3A3EEF0A3EF125C64FE8C828DC2
:1041F300831243F274035EFEC39403400302436FCE
:10420300EE600874026E60030242948C828D83E038
:10421300540CFE740C6E70030242D3E0A2E4400D12
:1042230088828983E08C828D83A312440874086E8C
:1042330060030242D31243937401F08A828B83A3F7
:10424300A3A3A3A31256B970148C828D83E0440CEC
:104253001243FAA3A31243B3EEF0A3EFF08C828DC3
:1042630083E0A2E4402B88821243C11243D650015B
:1042730009F5821243C1A3A3A3A3A3A3F0A3EF123F
:1042830044028C828D83A3A3A3F0E82403F8500196
:104293000988828983E0C0E0EC2411F582E43DF5CE
:1042A30083D0E01243F28C828D83E0A2E7507588BD
:1042B300828983E0FE8C828D8312440874FC5E70D5
:1042C3000C8C828D83A3E054036403701E02436F3E
:1042D300124393E4F0740C6E600302423E88821230
:1042E30043C71243D65001090242608C828D83A3D7
:1042F300E05403603288828983E0C0E0EC1243AD6E
:104303003DF583D0E01244098C828D83E05403642D
:1043130002701488828983E0C0E012439BD0E012CC
:1043230044098003A3E4F0EC1251B13D126D0EEC8D
:104333002410FEE43DFFEA241DF582E43BF583E00F
:10434300F5088E828F83E0C3982508F508F0EA24E8
:1043530017F8E43BF98882F583E0C39508C0E012BF
:104363004389D0E0125C64C39508500A124389E480
:10437300F01243A5E4F0023F6F2415F582E422EA2C
:10438300240DF582E422EC240DF582E43DF583222D
:10439300EC12536A3DF58322EC2414F582E43DF5D7
:1043A3008322EC123DD33DF583222413F582E422CC
:1043B300E0FEA3E0FF8C828D83A3A3A3A322124379
:1043C300C7A3A3228983E0F508A3E0FFE5088C8255
:1043D3008D8322A3A3A3A3F0A3EFF0E82402F82282
:1043E3001243E8A322E4F08C828D83A3A3A32212B9
:1043F3004410A882A98322123D8FA3A3A3A3221250
:104403004410A3E022A312441008A98322125C6D76
:10441300A32274F41208BF74F3120F118A0A8B0BD0
:10442300ECFEEDFF8C82F583E0540CF508E0A2E787
:104433005006E508D2E7F508E508D2E1F50812567B
:10444300B97006E508D2E4F508E0A2E55006E508F0
:10445300D2E5F5087C087D007900AA21AB2212166B
:10446300EC7402121181E508126D14C0E07403129A
:104473001181D0E0124AA2E50AF0A3E50BF074051E
:10448300121181126580121181E070777408121184
:1044930081124A28125C563812659BC0E0740812D8
:1044A3001181124529D0E012657BC0E07408121116
:1044B3008112451FD0E0F07408121181124515E0F6
:1044C300124A50124AD112606AEE2411125685C064
:1044D300E012450BD0E0F0EE2414125685C0E074D0
:1044E30008121181124A282435F582E438F583D065
:1044F300E0124A75C0E07408121181124A2CD0E010
:104503001262D4740D0230E4E82432F582E439F502
:104513008322123F84A3A3A3A3A3A322124A3C1280
:10452300677A38F58322124A3C2426F582E438F56B
:10453300832274F71208BF7E008A828B83A3A3A30E
:10454300A3A3A3A3A3A3E0640460030245F7125348
:1045530062E060030245F71251C43B1252407003FC
:104563000245F788828983E0540360030245F7E834
:1045730012536A39F583E0FA8C828D83A3A3E0FB9F
:10458300A3E0CB2411F582E43BF583E06A706588F0
:10459300828983A3A3A3A3A3A3A3A3A31245FBE09D
:1045A3006A7003A3E06B704C88828983A3A31246CD
:1045B30007E0FFA3E0CF24061256856A7003A3E049
:1045C3006B703188828983A3A3E0F88C828D83A3E7
:1045D300A3E0F9A3E0F5838982A3A3E06860138CC9
:1045E300828D83A3A3A3E0F5838982E0540C640442
:1045F30070027E01EEF980201245FF22124C388CA6
:10460300828D8322A3A31245FFA3A322740C12114C
:1046130081E0F9740D120E797F01020C2A74F612EF
:1046230008BF74FC120F11EAFEEBFFECFAEDFB8CF2
:1046330082F583A3E054036016901A5A1252426023
:10464300597900EEFCEFFD125E61122789804B85DC
:104653002182852283EEF0A3EFF0740212118112FE
:104663004A97AC21AD227A8C7B1F1221B48A088B26
:1046730009A808A909EA4960218A828B83A3A3A315
:10468300A3A3A3A3A3A37406F07A0088828B831247
:104693004A2812602AE0F91221127404023F6C7452
:1046A300F21208BF74F3120F11EAFEEBFF8A82F5D0
:1046B30083A3A3A3A3A3A3A3A3A3A3E0F50A901C8B
:1046C300AFE0700579BA0249E07508017509007514
:1046D3000C00750D007C087D007900AA21AB221225
:1046E30016EC74051211817401124AAA5404601263
:1046F3007402121181E0D2E6124AAA5408700375BB
:104703000803E05410600674404508F508E05408B7
:1047130060227402121181E044C0124AAA5420603C
:104723000A7403121181E0D2E0800874031211812C
:10473300E0D2E1F0EE2415125685124A107003748C
:104743000169700674084508F5088E828F83A3A358
:10475300A3A3A3A3A3A3E0701612220E852182852F
:1047630022831260777402121181E0D2E2803064F6
:104773000F70107402121181124AB274044508F5C5
:1047830008807F8E828F83A3A3A3A3A3A3A3A3E005
:1047930064028E828F83700A126D47E8F0A3E9F0FA
:1047A3008060A3A3A3A3A3A3A3A3E06403700DAC9E
:1047B30021AD22EEFAEFFB121FC280468E828F8359
:1047C300A3A3A3A3A3A3A3A3E064017035901AEE4C
:1047D300E060107402121181124AB2750910750A51
:1047E300FF80187402121181E0440C124AA274FD76
:1047F300F0A374FFF074044508F5088E828F8312CA
:104803002FF7EE2415125685A2E0503F74021211C1
:1048130081E0540C701B8E828F83124C3012270C54
:10482300E9700579BB0249E07402121181E0D2E517
:10483300F0EE2415125685A2E05010740212118175
:10484300E0540C64047004E0D2E5F0EE2411125637
:1048530085C0E07404121181D0E0126582121181C7
:10486300E060030249D97408121181124A6BE5080A
:10487300F0A3E509F0124A06E0C0E01249FCD0E0DB
:10488300F01249EDE0C0E07408121181124A2812B7
:1048930043AD38F583D0E0124AD164017011901A08
:1048A300EEE0C0E07408121181124A46D0E0F074C1
:1048B30008121181124A661249F7FAE8241CF5829C
:1048C300E439F583EA124A9DEE2415FAE43FFB8AA4
:1048D30082F58312756EE81259C139F583124A972E
:1048E300EE241C125685C0E01249E3D0E0125B07A8
:1048F300124A107003740169701374081211811243
:104903005352FAEE241D125685F9121E968E828F8B
:1049130083A3A3A3A3A3A3A3A3A3E0C0E074081248
:104923001181124529D0E0F0740812118112451F3C
:10493300E50AF074081211811251E52428F582E486
:1049430039F583E50CF0A3E50D124A7D124A5012A6
:1049530056FE12606AEE1249F7C0E0E82433F5828E
:10496300E439F583D0E0F0EE241B125685C0E074E1
:1049730008121181124A2CD0E0F0EE241A12568547
:10498300C0E07408121181124A282432F582E438F7
:10499300F583D0E0124A75124A1C120E6212678028
:1049A30012756E740B121181124A28242F127A4A3F
:1049B300120E79EE241512568554406012901A7A1D
:1049C300125242600AAA21AB22125E61122789AAFF
:1049D30021AB22122034740C121181E0F9024D171D
:1049E300E82420F582E439F58322EE2419F582E4E4
:1049F3003FF5832212678FE022E82412F582E4391F
:104A0300F58322EE2418F582E43FF583225480F8DF
:104A1300A3E05401F974806822F508A3E0F5097551
:104A23000A00780822124A3C22124A3C2434F582B6
:104A3300E438F58322A3A3A3A3124A4022E0F8A3F8
:104A4300E0C822124A3C12437C38F58322FAA3E0E1
:104A5300FBE8242AF582E439F583EAF0A3EB22A3E9
:104A6300A3A3A3123F7AEE221251E91251C939F5D9
:104A73008322F0EE241312570622F0EE240D125770
:104A83000622E0FC8A828B83E02CFCA3E03400FD49
:104A93008A828B83ECF0A3EDF022F0A3E4F022F002
:104AA30085218285228322F0EE241512570622E007
:104AB300D2E3F0124ABA228E828F83123F7E85217F
:104AC30082852283E8F0A3E9F022E8F0A3E91261EA
:104AD300BDE02274F71208BF8A828B83A3E06401CE
:104AE30070047E6380027E648A828B83E06008792F
:104AF30005124B0A24F3FE901A96E06007F9124B55
:104B03000A24F2FE0245F71220DCE9F8EEC39822EC
:104B130074F61208BF74FE120F1185218285228359
:104B2300126077E9FEECFAEDFB90038112524260CA
:104B330032A821A922880889097808120E667D0106
:104B4300740E121181E0FCEEF990038112604B1296
:104B530027897402120E79EA4B6004790080067982
:104B6300B2800279B6023F6A74F71208BFE9FE9079
:104B73001A50125242601F7409121181E0F508782D
:104B830008120E6AEEF9901A5012604B12278974BC
:104B930001120E79800279B602461B74F71208BF20
:104BA3008908ECFEEDFF79B5E508245E602014600A
:104BB3000624F86034803D900383124BFA6035126B
:104BC3006D8B1227898E828F831260778024901ACF
:104BD3005212756EEC4D601CEEFCEFFD901A5212F2
:104BE300604B122789E9F9800B901A4E124C001280
:104BF3001884790002461B124C34EA4B2212757258
:104C0300EEFAEFFB2274F71208BFE9FE79B574AB35
:104C13006E700B901A4E124C3012188479000246B3
:104C23001B8E828F83A3A3A3A3A3A3A3A3124C349A
:104C330022124C3822E0FAA3E0FB2274F11208BFDF
:104C4300EAFEEBFF8C0A8D0B750801901A9EE06E4D
:104C53007003A3E06F700C124D0BAA0AAB0B121872
:104C630084805E122214EE6A7002EF6B7009AA0A46
:104C7300AB0B12221A804AAC0AAD0BEEFAEFFB1211
:104C83001D6AE9F508901CA6E07036122694E970B7
:104C930030E508702C901A6EE06E7003A3E06F701D
:104CA30020EE4F601C750C66750D1A750E00780C9E
:104CB300120E627C087D00AA0AAB0B126D37120E2E
:104CC30079A90802766A74F21208BFEAFEEBFF8C38
:104CD300088D09750A01124D0BEEFAEFFB12187ECF
:104CE300E964017011901A9E123F76850882850946
:104CF30083126D10800EAC08AD09EEFAEFFB121DA6
:104D030070E9F50AA90A80111222088A0C8B0DACEE
:104D13000CAD0D22740D120E797F06020C2A74F667
:104D23001208BFEAFEEBFF7A0D7B00121794EA4BE1
:104D33006062EE2424126A14F0EE2425126A14A38E
:104D4300124DD9126A1AA3A31267AD124DB4F0EE35
:104D5300124D9A124DC9E8F0A3E9124DF0124DC15C
:104D6300126D10EE124DA3126870A3A3A3A3F0EE6D
:104D73002433125685C0E0124DACD0E012659F1269
:104D83004DC1A3A3A3E8F0A3E9124DE8C0E0125379
:104D930062D0E0F0023F6F242AF582E43FF58322DC
:104DA300242EF582E43FF58322EA1257DB3BF58399
:104DB30022124DB822E08A828B83A3A3A322126816
:104DC300CFA3A3A3A322124DCD22123F7E8A828BAF
:104DD30083A3A3A3A322F0124DDE22EE2426F582A1
:104DE300E43FF58322F0EE243212570622F0EE243C
:104DF3002C1257062274F41208BF74FE120F11EC22
:104E0300FEEDFFEC241612568564057010EC2406A3
:104E1300FCE43FFD121FBCE97003024EA4AC21ADBC
:104E230022126AC9121C32852182852283125242C0
:104E3300606B8E828F83E064017058E875F009A47B
:104E4300F8AAF075F009E9A42AF974C728F87407D9
:104E530039F9E8FAE9FB8882F583780812112AEE1A
:104E6300124F461210BE4027852182852283124AA3
:104E730066125693124EA9780812112A90848B78E1
:104E830008120FF58A828B83780812111B800A7926
:104E9300A28010EE240F126D0A7900800679A1809A
:104EA3000279C80230E2124AC7EE12679B2274F2FB
:104EB3001208BF8A0C8B0DECFEEDFFEC125693E447
:104EC300F0A3F090845F780812112AEC124F461277
:104ED3000F526067EC240E12568C703478B3901A1C
:104EE30095E07028901AC7E064017020EC24111239
:104EF3005685F91220C48B09A909EE1251C53F1238
:104F03006075EA4960047800800278A18808802EE1
:104F1300E060046402700A121FCEE9F5087007808E
:104F23001DE064037010EEFCEFFDAA0CAB0D121C28
:104F330056E9F50880087508A180037508A3A90838
:104F4300024D1C12679B78082274F01208BF74F597
:104F5300120F11EAFEEBFFEA240AFCE43F8C82F510
:104F630083127A0B1251CF7403120F098A828B8337
:104F7300125E6BE970030250357401120F0974035A
:104F8300120F01121C32740112118112524270036A
:104F9300025035E875F009A4F8AAF075F009E9A400
:104FA3002AF974C328FC740739FDE508240E12623C
:104FB300BCE4F004121181123F76E5081251C535A5
:104FC30009126D0E8C828D8312115EE50824121274
:104FD30062BC12116A90848B780812112A8C828D1C
:104FE3008378081210548C828D83780C12112A90C6
:104FF300846B780812112A780C7908120850E50896
:105003004509450A450B702A74011211811251E5B5
:1050130075F009A4F8AAF075F009E9A42AF974CB8C
:1050230028F582740739F5837401F07A007B08123E
:1050330051F28E828F83A3A3A3A3A3A3A3A3A3A3AA
:10504300E02406FCA3E03400FD8E828F83125E6BA6
:1050530012658D603EEE240A1251B7124A6B7468D2
:10506300124A9DE81251B139F5837402F0901A8007
:1050730012115E8C828D83126064125C563CF58340
:1050830012116A90848B780812112A901A8078087A
:1050930012105412522D705D901A4E1251DDA3A3BB
:1050A300A3A3A3A3A3A3A3A3125C8C12187EE970EA
:1050B30010125C4A901A4E125C5C700512658D608A
:1050C300348E828F83A3A3A3A3A3A3A3A3A3A31217
:1050D30051DD124C30121C5CE960118E828F83A368
:1050E300A3A3A3A3A3125219E4F0A3F08E828F8388
:1050F3001251FFE4F012522D60030251AC8E828FE5
:1051030083A3A3A3A3A3A3127A07901A95E0600332
:105113000251A1901AC7E0640160030251A1750A0C
:105123003A750B00780A120E667402120EF9880A99
:10513300890B780A120E66127006120E79E9705BFB
:10514300E508240E1262BC7401125247C0E0E50860
:1051530024111262BCD0E0F0E508240F1262BC7483
:105163003A124A9D901A7C12115EE50824121262CB
:10517300BC12116A90848B780812112A901A7C78D9
:105183000812105490848B780812112A901A7C7894
:1051930008120F5270081251EE80031251CF1252AF
:1051A3002D7006125B4D74A1F0740B02693F240E3F
:1051B300F582E422F8E43FF9E8FCE9FD8882F5830F
:1051C30022EA1251C922240FF582E422E508125182
:1051D300C93509F583E4F0A3F0221275728E828F2C
:1051E30083221251E922123F7EE8227A007B029049
:1051F3001927E0F9121740228A828B83A3A3A3A362
:10520300A3A3A3A3A3A312520D22124A40240EF573
:1052130082E438F58322A3A3A3A312522122124AC4
:1052230040240FF582E438F583228E828F83A3A373
:10523300A3A3A3A3124A38240FF582E438F58312FB
:1052430051E9492212524B22F0852182852283E0C3
:105253002274F61208BFEAFEEBFF7A237B001217D3
:1052630094EE240AF508E43FF50985088212607577
:105273007C237D0079001216EC8508828509831250
:1052830052427003025315EEFAEFFB121FDA125269
:105293002D60748E828F8312534864018E828F83B4
:1052A300A3A3A3A3A3A3700712533E740E802112DA
:1052B3005242701012658D700B8E828F83A3A3E010
:1052C300A2E05007125334740D8005125334740551
:1052D30012659F54036401700712531C7405800BFD
:1052E300901A96E0C0E012531CD0E0125357F58396
:1052F30088821256B2850882850983124A28126071
:105303000938F583E9800E8508828509831260EEEA
:105313008003126031F0023F6F8E828F83A3A3A3B9
:10532300A3A3A3A3A3A3A312532E22E0126050A30B
:10533300228E828F83A3A3A3A3A3A3124A3812604E
:105343000F38F58322A3A3A3A3A3A3A3A3A3A31209
:10535300520DE02212535B22126ADEF8A3E022EA26
:1053630012536A3BF58322240CF582E42274F11272
:1053730008BF74E4120F118A0C8B0D8C088D097A07
:10538300237B001217948A0A8B0BAE0AAF0BEA4FEA
:10539300700302566D126015E508241512569E68B7
:1053A3007003A3E0698E828F837004740280027499
:1053B30001F0E508240DF8E43509F98882F583E066
:1053C300FAC3E49AFA95E0FB12569A2AFAA3E03B51
:1053D300FB8E828F83A3A3A3A3125C738E828F831E
:1053E300A3A3F0EE2420F582E43FF583E4F0EE245A
:1053F30021F582E43FF583E4F0EEFAEFFB12208E11
:105403008508828509831256B970098E828F83A31A
:1054130074058006901A961256A7F0EE2417F50A23
:10542300E43FF50B8E828F831256B2E9850A82859B
:105433000B83F0EE2416F8E43FF9E508240EFAE4B2
:105443003509FB88828983124A85E5082410FAE42A
:105453003509FB850A82850B83E0FC88828983E01A
:10546300F88A828B83E0C398C39CF81256F3F0EE5C
:10547300FCEFFDAA0CAB0D121FD4E9F50B8E828F46
:1054830083E064027006125C4A125677E50B6003F0
:10549300025664750C00750D00901CA6E064016053
:1054A30005E06402703F1256896008EE242112560B
:1054B3008C70328E828F83A3A3A31260371256BFE0
:1054C300EE24161256851256E8FAE439FB123D779C
:1054D300EA4B6011126899120E621256CDAA0C1291
:1054E3006D37120E79EEFAEFFB12209AE9F50B9065
:1054F3001CA6E064016008E064026003025657E9F9
:105503007003025657E50C450D7003025664800381
:10551300850E0B125689600BEE242112568C600304
:1055230002565D850B0E850C08850D09750A0078FA
:1055330008120E621256CD8E828F83A3A3A3A312E9
:105543007A50120E79EE2420125685600D1256926F
:105553007468124A9DEE24208015EE24211256858C
:1055630060151256927403F0A37401F0EE2421F532
:1055730082E43FF583E4F0EEFAEFFB12209AE9F5BB
:105583000B70907C137D0079007409120F011216C1
:10559300EC741A12118174011256FE64687002A32E
:1055A300E0704F8E828F83125219E064056003020C
:1055B30055137C0879FF8E828F83A3A3A3A3E024D2
:1055C3002A125C8F121776E970030255137C087D4B
:1055D3000079FF7401120F011216EC7401120F0906
:1055E3007A007B0079AB121FB6741912118174FC17
:1055F3008015125692E064037004A3E064017008FE
:10560300741912118174FFF0E4F508F50978081292
:105613000E667402120F097413121181AA82AB83EE
:10562300126174120E79852182852283E0602B74C6
:1056330009120EF9880889097808120E667508138D
:105643007509007808120E667C007D001269E71266
:105653000E798006E50C450D6007AA0CAB0D1217F9
:105663009AEEFAEFFB12179A8003750B10A90B74CD
:105673001C027667EE2406FAE43FFB12188422EE3E
:10568300240C12570622EE2420125706640122EE40
:105693001251C93FF58322E508240EF582E435094A
:1056A300F583E0221256ACA322E08E828F8322A3DD
:1056B300E0F91220DC22E054036401221256C322D3
:1056C300E0FAE82AF8E43400F9228E828F83A3A358
:1056D300A312603B1256C3EE24161257061256E865
:1056E300FCE439FD22FAE82AF8E439F9E824042233
:1056F3001256F7221265AEA3A3A322F01257032278
:10570300EE240FF582E43FF583E0227901020E2BAC
:1057130074F41208BFEAFEEBFF8A82F583A3A3A306
:10572300A3A3A3A3A3124A282424F582E438F58370
:105733001256B9702E8A828B8312534870251257E2
:10574300E1E06405701D1257E1A3E0F8740168609D
:105753000574066870071251FB740280051251FB31
:105763007403F0EA240A1260E212604BE4F0EA24C4
:1057730008F8E43F1230D12431F582E43AF583E0AE
:10578300C0E0126D82A3A3D0E0125800CA242EF504
:1057930082E43AF583E0C0E0126D82A3A3A3D0E0D4
:1057A300125D26C81257DB38123F74126D821257EE
:1057B300F58A0A8B0BAC0AAD0B8508828509831227
:1057C3005C8C121884850882850983124C30122060
:1057D3009A1260DDF00230E7240BF582E4228A821C
:1057E3008B83A3A3A3A3A3A3A3A3126574F58388A5
:1057F3008222A3A3A3A3124AC712220822125C681F
:10580300FAA3E02202570EC082C083901A7074E09C
:10581300F0A3741FF0901A7274ECF0A3741FF0904D
:105823001A7474F2F0A3741FF0901A7674E6F0A35E
:10583300741FF0025B1174F41208BFEA2408FEE43B
:105843003BFF8E82F5831251E5126021E0F5087467
:10585300035508F509125C87F8A3E08882F583E510
:1058630008F0A3A882A983E50960097402650960A9
:1058730003025926740C5508FC600A74086C600511
:1058830074046C7026740265097006E508A2E4408E
:105893001A8A828B83A3A3A3A3A3A3A3A3125A2C21
:1058A30012677A3D1259C7A308A983740C6C701C44
:1058B300125A282428125A142428F582E43DF58329
:1058C300A31263A8F0E82402F850010974026509E1
:1058D3007006E508A2E4404B125A28242A125A14EF
:1058E300242AF582E43DF583A31259D6125A3212C3
:1058F30063A8125A32A31259CEE82404F8500109BE
:10590300EC600F74086C600A740C6C600574046CB2
:1059130070111260582426F582E43C1259C7A3A8DB
:1059230082A9838A828B83A3A3A3A3A3A3A3A31282
:1059330059F654037014E508A2E1400E12605812A0
:1059430059C13CF583E0548060081259DC1259C9EF
:105953008019901A44E0C0E01259DCD0E0125A09D1
:1059630088828983125A0904125C6DA3A882A983D1
:10597300E508A2E750458E828F831259F688828903
:1059830083125A0F1259FB540360301260582434A7
:10599300F582E43C1263A6F0E508A2E1501D8A8279
:1059A3008B83A3A3A3A3A3A3A3A31230D62435F568
:1059B30082E43A1263A6A3F0E824030230E7241E2C
:1059C300F582E422F5831259D6F0221259D6A3A305
:1059D300A3F022E088828983228A828B83A3A3A3F4
:1059E300A3A3A3A3A3E0FCA3E0CC2432F582E43C6D
:1059F300F58322E01259FB22FCA3E0CC2425F58297
:105A0300E43CF583E022F0901A44E0221265AAE018
:105A130022F582E43DF5831259D6125A21221265EA
:105A2300AE125A2C228E828F83E0FDA3E0CD22A3F7
:105A3300125A21242CF582E43DF58322C082C083CF
:105A43008A828B83125B01FC74035CF98A828B83E9
:105A5300A3A37401F0E960057402697061740C5CBE
:105A6300F8600A7408686005740468701374026946
:105A73007005ECA2E440098A828B83A3A37402F02D
:105A8300740C68700A8A828B83A3A3E02402F074E7
:105A930002697005ECA2E440258A828B83A3A3E00C
:105AA3002404F0E8600F740868600A740C686005E9
:105AB30074046870098A828B83A3A3E004F0ECA2C8
:105AC300E7502A8A828B83A3A3E004125B07123573
:105AD300E0E0540360178A828B83A3A3E004F0EC15
:105AE300A2E150098A828B83A3A3E004F08A828B0C
:105AF30083A3A3E004F080168521828522831253B9
:105B03002EA3E022F08A828B83E022120E79D083C7
:105B1300D082020E2BC082C0838A828B83A3A3A36D
