:020000040000FA
:060000000210B00205DB56
:03002B00020E249E
:03003300020A15A9
:0300530002050A99
:03006B000209CABD
:03007B000209F384
:1000830002056C01010000000000F8FF07FFFF00FC
:10009300000504000000030001FF0020FD0002062C
:1000A300FFFF1E000000000000000002010000FF2F
:1000B300FF0C010400009D15000000E8030000FF91
:1000C300FFEE150188130000E803000064006400DC
:1000D300B801A0BB0D00A0BB0D0002020207040182
:1000E300051E02051E020A0A010108080103B80BD6
:1000F30002803E0102FEFFE8030A050001FFFF0242
:100103000A011401E08096184B0000803F020000B2
:1001130000050301010F03000300030003000300B4
:10012300030003000300030005000A001400280075
:100133004F009E000000D32A00000000A729000002
:100143000000FF000000FF001210CF60461210C035
:10015300603DE9687008F618F618F618F622748000
:1001630067F712017F090909748067F7221210C02B
:10017300601D1210CF7005191919801A120F88709B
:100183001F120F9CC37003E6673319191940071830
:1001930018182208080874FFF618F618F618F6223D
:1001A300120F9C601712115D702192F0121166708C
:1001B30019501720F014080808090909E7F6181957
:1001C300E7F61819E7F61819E7F62212116660E642
:1001D300E869701F0808E62480F608E436F6185428
:1001E3007FB47F0CE654806007F6E418F618F62215
:1001F300181822E9C6CC08C6CD08C6CE08C6CFC09B
:10020300E0E8C0E0EAC0E0EBC0E009E9F809E7FA9A
:1002130009E7FBE6F918E6F8C3EC98ED99EE9AEBDB
:10022300C2E7F5F0EFC2E795F0500E600CEBCFFBA1
:10023300EACEFAE9CDF9E8CCF8EAA2E7D2E7FAEB9D
:1002430033FB13F5F0EEA2E7D2E7FEEF33FFC5F081
:1002530013A2E730E601B313C5F0C3C0E0C0F07FDB
:1002630000C39BFB605E9418600F401D14601AD09E
:10027300E023F9D0E0F80203518AF0E9486003D2A1
:10028300F0E4AFF0FAF9F8803BEB30E40D89F0EAE3
:100293006003D2F0E4AFF0F9CAF8EB30E30D88F075
:1002A300EF6002D2F0AFF0E4CAC9F8EB5407601470
:1002B300FBC3EA13FAE913F9E813F8EF135002D278
:1002C300E0FFDBEDD0E0C0E030E739C3E49FFFF5AA
:1002D300F0EC98FC42F0ED99FD42F0EE9AFE42F00C
:1002E300D0E0F9D0E0F8E5F0607AE923F9EE20E711
:1002F30042D8028067C3EF33FFEC33FCED33FDEEEE
:1003030033FE80EAEC28FCED39FDEE3AFED0E02323
:10031300F9D0E0F84002801BC3EE13FEED13FDECB1
:1003230013FCEF135002D2E0FF08B800067F7F747E
:10033300FF802EEF3350178CF020F00260100CBCBE
:10034300000C0DBD00080EBE000408E860DFE933B1
:10035300E813FFEE2313FE4F4D4C8008E95480FF52
:10036300E4FEFDFCEE33EF33F47004FCFD7E80D03D
:10037300E0FBD0E0FAD0E0F8D0E0CFC618CEC61844
:10038300CDC618CCC6F922001210C0604F1210CF90
:100393006012E7548066F6120F88701112115D70B7
:1003A3003B090909F4F618F618F618F622120F9C01
:1003B300701512116608080860EAE6447FF618769D
:1003C3008018E4F618F622121166601612115D7099
:1003D30012E4F608F608F608E65480F60909091847
:1003E300181822EAC0E0EBC0E0ECC0E0EDC0E0E6A4
:1003F30087F0A4FBACF008E687F0A42CFCE435F00E
:10040300FA1809E687F0A42C4B60027401CA35F090
:10041300FCE433FB09E687F0D2F7A42CCB35F0FCE0
:100423001908E687F0A42BCC35F0FBE433FD08195B
:10043300E687F0D2E7A42C4ACB35F0CD3400FC0993
:10044300E687F0D2E7A42DCC35F0FDE433FA0918A2
:10045300E687F0D2F7A42CCD35F0CA3400FC08E6C9
:1004630087F0D2E7D2F7A42ACC35F07A7E20E70BC7
:100473000ACB33CBCD33CDCC33CC33CB3350147009
:1004830004ED30E00ED2F1E4CD3DCDCC3CCC3B507D
:1004930005DA05C2F1EB547FC63308E63392F0FB6D
:1004A300E73309E733C39A502D2B70190C0D4C4DCC
:1004B30070151806E608C333700D20F10AA2F01375
:1004C300F6E418800B4024E4F630F002768018F648
:1004D30018F618F68024D33B14501074FFA2F013BF
:1004E300F6187680E418F618F6800FA2F013F618C3
:1004F300E63303F618ECF618EDF6D0E0FDD0E0FC99
:10050300D0E0FBD0E0FA22C0E074F112096BA2AF95
:10051300E433F509D2AF85A708AFA1EF5508FE7400
:10052300105E600612140C75A1EF74085E60081269
:10053300141275A1F78024EFA2E092F0E508A2E07F
:1005430082F05017906198E0F890040EE0C398A2EF
:10055300D265D0335002E8F075A1FE752300E5099A
:10056300A2E092AF7F02020A29C0E074F212096B83
:10057300A2AFE433FED2AF9061A4E0F8759B00E52F
:100583009158540860087591F71214608023E5911F
:1005930058541060087591EF1214668014E591A207
:1005A300E092F0E8A2E082F05007E0C2E0F012151A
:1005B300BC9061A3E0F8E5E9585404600E1215926B
:1005C30075E9FB906193E0A2E640F2752300EEA289
:1005D300E092AF7F01020A29C0E074F212096BA214
:1005E300AFE433FED2AF9061A5E0F8E5BF58540401
:1005F300600675BFFB1215D480D1C3E498F8E49963
:10060300F912063E8026C3E49AFAE49BFBE920E74D
:10061300E912063EE498F8E499F922C3E498F8E471
:1006230099F912063EE498F8E499F9C3E49AFAE4D6
:100633009BFB22EB20E7CFE920E7E0B90010BB00EA
:1006430008E88AF084F8AAF022E4FBC8FA22EB70E7
:10065300227B10C833C8C933C9335007C39AC3DBDD
:10066300F280069A50012ADBEAC833F4C8C933F48E
:10067300C9FA2275F008E4C833C8C933C933C99A23
:10068300C99B5004C92AC93BD5F0ECFBC833F4C855
:10069300E4C9FA228A088B098C0A8D0B78081206A2
:1006A300E120F01430E72B74FFFCFBFA747F802207
:1006B300E4FCFBFA7480801AB48008BC00F2BB002F
:1006C300EF800F50EBF9E4C39AFAE49BFBE49CFC44
:1006D300E499C6CC18C6CB18C6CA18C6F922E4C911
:1006E300C608CAC608CBC6D3330308CCC63392F0B8
:1006F300C3947F402E94184019C9B90704CACBCCC0
:10070300225025C309CA33CACB33CBCC33CC33D91C
:10071300F422F4600DC9CCC313CB13CBCA13CAD9CB
:10072300F6CC22E4FCFBFA2214FCFBFA22080808AC
:10073300EAC0E0EBC0E086F0E7A4FA180986F0E728
:10074300A42AFA180986F0E7A42AFA180986F0E71A
:10075300A42AFA1986F0E7A4FBE5F02AFA19088619
:10076300F0E7A42BFBE5F03AFA190886F0E7A42B8F
:10077300FBE5F03AFA18180986F0E7A4C5F02BFB5D
:10078300E43AFA1908E7C5F0C6A426F6E5F03BFB00
:10079300E43AFA1886F0E7A4F6E5F00826F6E43B17
:1007A30008F6E43A08F6D0E0FBD0E0FA220808089D
:1007B300E630E711120F601207C8080808C6448024
:1007C300C618181822181818E9799EC608CAC60848
:1007D300CBC608CCC6C370207996CACBCC70197926
:1007E3008ECBCC70137986CC700EF9802ACA33CAAB
:1007F300CB33CBCC33CC331930E7F2CCCBCA335029
:10080300147004EA30E00DE4CA3ACACB3BCBCC3CCB
:10081300CC500209C3E913C6CC182313C6CB18C6A0
:10082300CA18C6F922E4CFC0E0E4CEC0E0E4CDC0EC
:10083300E0E4CCC0E075F020E626F608E633F608DF
:10084300E633F608E633F6181818EC33FCED33FDFF
:10085300EE33FEEF33FFC3EC9709ED9709EE9709EB
:10086300EF97191919400FFFEC97FC09ED97FD0954
:10087300EE97FE191906D5F0BFECF709EDF709EE6F
:10088300F709EFF7191919D0E0FCD0E0FDD0E0FE2D
:10089300D0E0FF222521C582C0E0E52234FFC583D5
:1008A300C0E0E521C3958224F810AF088583228533
:1008B30082218008858322858221D2AFCEF0A3E5F1
:1008C30020F0A37808E608F0A3DEFAEFF0A3E581B1
:1008D30024FAF8E608F0A3E608F0A3E608F0A30874
:1008E30008E608F0A3E608F0A315811581D0E0FE21
:1008F300D0E0F8158115811581E8C0E0EEC0E02253
:10090300121148B90003020955E49003017889796B
:10091300168002F0A3D8FCD9FA78239000867A01D6
:10092300BA00028007E493A3F608DAF97A897B1800
:1009330090008778C579018015E493A3AD82AE83D7
:100943008A828B83F0A3AA82AB838D828E83D8E9BC
:10095300D9E77582B17583CB7404120E067582A430
:100963007583277400120E06C0D02521C582C0E00E
:10097300E52234FFC583C0E0E521C3958224F3104B
:10098300AF08858322858221800885832285822181
:10099300D2AFC8F0A3E9F0A3EAF0A3EBF0A3790880
:1009A300E709F0A3D8FAECF0A3EDF0A3EEF0A3EF80
:1009B300F0A3D0E0F0A3D0E0F0A3D0E0F0A3E520D3
:1009C300F0A3E5F0F0A322C0E074F212096BA2AF2A
:1009D300E433FED2AFE589541C6003121334538908
:1009E300E3C2C5752300EEA2E092AF7F01020A299C
:1009F300C0E0C0D0E8C0E0A8A8D2AFE58A858A8A63
:100A0300C2EB752300E8A2E792AFD0E0F8D0D0D0D4
:100A1300E032C0E0C0D0E8C0E0A8A8D2AFE58B8543
:100A23008B8BC2E880DC852283852182E0C0E0A332
:100A3300E0F9A3E0FAA3E0FBA37808E0F608A3DF5C
:100A4300FAE0FCA3E0FDA3E0FEA3E0FFA3E0C0E027
:100A5300A3E0C0E0A3E0F5D0A3E0F520A3E0A3F575
:100A6300F010AF0885832285822180088583228543
:100A73008221D2AFD082D083D0E0F8D0E032E473C9
:100A8300FF75F0108E248F25858229858328852183
:100A930082852283E0CEA3E0CF852982852883EB5C
:100AA300C9EAC8EDCBECCAC3E833C8E933C9EA33B2
:100AB300CAEB33CBC3EA9EF527EB9FF526B350046D
:100AC300AB26AA27EC33CCED33CDD5F0DAAE24AF89
:100AD30025221210C0601C1210CF6017121166700D
:100AE3000712115D7001D322C0D012115D7006D0C0
:100AF300D0B322C32233D0D0501430E0F6C3E796EC
:100B03000809E7960809E7960809E796B32220E063
:100B1300D5E6970809E6970809E6970809E697B323
:100B230022D083D082ECC0E0EDC0E0E493A3FCE4E8
:100B330093A3FDED4C600D120C48EC24FFFCED3447
:100B4300FFFD80EFE493A3FCE493A3FDED4C600D64
:100B5300120D11EC24FFFCED34FFFD80EFD0E0FD1E
:100B6300D0E0FCE493A3C0E0E493C0E0221210C001
:100B7300601B1210CF6016121166700712115D60B0
:100B83000CB322C0D012115D7005D0D022C3223322
:100B9300D0D0501330E0EBC3E7960809E796080975
:100BA300E7960809E7962220E0E4E6970809E69726
:100BB3000809E6970809E69722852283852182E0C2
:100BC300A3FEE0A3F5207808E0A3F608DFFAE0A38C
:100BD300FFE0A3C0E0E0A3C0E0E0A3C0E0E0A3C067
:100BE300E0E0A3C0E010AF0885822185832280085E
:100BF300858221858322D2AFD083D082020E0CD08E
:100C030083D082E9C0E0E493A3C386F0C5F095F0F6
:100C1300F908E493A386F0C5F095F0700BE493A371
:100C2300C3994005E9048002A3E475F002A4258278
:100C3300F582E5F03583F583D0E0F9E493A3C0E0D2
:100C4300E493C0E022C0E0C3E49396087401939652
:100C530018400FE4936670080874019366187000D7
:100C63007019A3A3C3E49396087401939618A3A3DE
:100C7300400DD0E0D0E0D0E0020B60A3A3A3A3A378
:100C8300A3D0E0227404800474028000CCC0E0EDA1
:100C9300C0E0E521C39CCCAD2250011D10AF068CF2
:100CA300218D2280068C218D22D2AF120D88D0E0B7
:100CB300FDD0E0FC2274028000CCC0E0EDC0E0E592
:100CC30021C39CCCAD2250011D10AF068C218D2277
:100CD30080068C218D22D2AF120D66D0E0FDD0E0CC
:100CE300FC221210C060251210CF60201211667012
:100CF3000302115D080808E76670101819E76670AB
:100D03000A1819E76670041819E76622F422C0E08E
:100D1300C0F088F0E4936670080874019366187055
:100D230000A8F0A3A3700BD0F0D0E0D0E0D0E00295
:100D33000B60A3A3D0F0D0E022D083D082CCC0E05C
:100D4300E493A36006120DC81470FAE493A360063B
:100D5300120EF51470FAD0E0FCE493A3C0E0E49320
:100D6300C0E022CAC0E0E493A3C582CCC582C58398
:100D7300CDC583F0A3C582CCC582C583CDC583DA37
:100D8300E5D0E0CA22CAC0E0E0A3C582CCC582C5D3
:100D930083CDC583F0A3C582CCC582C583CDC5836E
:100DA300DAE6D0E0CA22700908080822601618188B
:100DB30018C6C333C608C633C608C633C608C63307
:100DC300C6D5E0EA22C0E0E493A3D39C5010E49399
:100DD300A3C39C400AD0E0D0E0D0E0020D59A3A306
:100DE300A3D0E022C008C3E096F50808A3E096422A
:100DF3000808A3E096420808A3E09645087001D3CB
:100E0300D00822C09FF59FE473D09F22D083D08265
:100E1300C09FE493C0E0740193C0E0740293F59F14
:100E230022C0E0C0D0E8C0E0A8A8D2AFC2C77523F3
:100E330000E8A2E792AFD0E0F8D0D0D0E03225218D
:100E4300F58210AF08F521400C15228008F52140EA
:100E5300021522D2AF852283227404800A74038090
:100E630006740280027401C0E0F404120E41D0E063
:100E730012110B2200C0D0252110AF08F521500C10
:100E830005228008F52150020522D2AFD0D022BB23
:100E93000102E722C082C08389828A83BB0003E008
:100EA3008002E493D083D082226016080808C6C368
:100EB30013C618C613C618C613C618C613C6D5E07C
:100EC300EA222521F8E43522F9222521FAE4352204
:100ED300FB222521FCE43522FD22C3E0C696F60859
:100EE300A3E0C696F608A3E0C696F608A3E0C69666
:100EF300F622C0E0E493A36C7009D0E0D0E0D0E028
:100F0300020D59A3A3D0E022252110AF08F52140FB
:100F13000C15228008F52140021522D2AF22C3E02E
:100F23009608A3E09608A3E09608A3E096A2D265EC
:100F3300D03322E76670100809E766700A0809E7EC
:100F43006670040809E76622E066701008A3E0668D
:100F5300700A08A3E066700408A3E0662218181854
:100F6300E4C396F608E496F608E496F608E496F6E3
:100F730022C3E096F008A3E096F008A3E096F008F9
:100F8300A3E096F022181818E60846087009E6262A
:100F9300087005E633F4220822191919E7094709ED
:100FA3007009E727097005E733F4220922C3E6979E
:100FB300F60809E697F60809E697F60809E697F6AC
:100FC30022C3E493960874019396087402939608D7
:100FD3007403939622E627F60809E637F60809E62E
:100FE30037F60809E637F622700422600D18C6C3E7
:100FF30033C608C633C6D5E0F41822E657F6080907
:10100300E657F60809E657F60809E657F622E056CA
:10101300F008A3E056F008A3E056F008A3E056F06A
:1010230022E026F608A3E036F608A3E036F608A386
:10103300E036F622E026F008A3E036F008A3E03617
:10104300F008A3E036F022E647F60809E647F6087B
:1010530009E647F60809E647F622E056F608A3E054
:1010630056F608A3E056F608A3E056F622600D08EC
:10107300C6A2E713C618C613C6D5E0F322C6F4C644
:1010830008C6F4C608C6F4C608C6F4C622C3E79663
:101093000809E7960809E7960809E79622C3E09648
:1010A30008A3E09608A3E09608A3E0962275D00073
:1010B30075813F75210175220300020903E6084685
:1010C30008C3134608336002E633F422E7094709ED
:1010D300C3134709336002E733F422600C08C6C325
:1010E30013C618C613C6D5E0F422E6F008A3E6F04B
:1010F30008A3E6F008A3E6F022E0F608A3E0F6086A
:10110300A3E0F608A3E0F622CAC0E0E6F0A308DAFB
:10111300FAD0E0FA22E0FAA3E0FBA3E0FCA3E0FDAF
:1011230022EAF0A3EBF0A3ECF0A3EDF022E0F8A3A6
:10113300E0F9A3E0FAA3E0FB22E8F0A3E9F0A3EAD5
:10114300F0A3EBF022E5C754F84401F5C779012277
:101153002521F582E43522F58322E727194719472C
:10116300194722E62618461846184622C2AF75D6F6
:101173009F02000022120E0F4BE702120E0FC9E965
:1011830002120E0F75EA02120E0FA5EA02120E0FDB
:101193000AEB02120E0F9EEB02120E0F51EC02121B
:1011A3000E0FA2EC02120E0FE6EC02120E0F80EDF0
:1011B30002120E0FEDED02120E0F1CEE02120E0FB5
:1011C30022EF02120E0F46EF02120E0F9AEF0212D7
:1011D3000E0F6EF002120E0F99F202120E0F47F36A
:1011E30002120E0FBCF502120E0F41F602120E0F81
:1011F300C1F802120E0F05F902120E0F5EFA021267
:101203000E0F71FA02120E0FB6FA02120E0F60D70A
:1012130003120E0FDCD703120E0F0FD803120E0F9B
:101223003DD803120E0F7BD803120E0FB8DA031248
:101233000E0FD7DA03120E0F1CDB03120E0FB2DBF5
:1012430003120E0FFEDB03120E0F92DC03120E0FBE
:101253006BDD03120E0FC7DD03120E0F25DE031223
:101263000E0F98DE03120E0FDCDE03120E0F34DFB7
:1012730003120E0F56DF03120E0FE6DF03120E0FDB
:1012830077E003120E0FC3E003120E0FEFE0031219
:101293000E0F30E103120E0FC6E203120E0FB2E37C
:1012A30003120E0F8DE403120E0F12D704120E0F4A
:1012B30015D704120E0F73D704120E0FC7D70412DB
:1012C3000E0FE9D704120E0FFFD804120E0F10D918
:1012D30004120E0FAED904120E0FB9D904120E0F59
:1012E300D3D904120E0FF7FF01120E0FD9DE041229
:1012F3000E0FE2D904120E0FF2D904120E0F07DA01
:1013030004120E0FBBDA04120E0F0DD504120E0FCA
:1013130091D504120E0FF9D504120E0FB2FE01126D
:101323000E0FDAFE01120E0FFDFE01120E0F55FF16
:1013330001120E0F9FFF01120E0FCAFF01120E0FB3
:10134300E1FF01120E0F7CB504120E0F8AB50412D1
:101353000E0F03B604120E0FDCB604120E0F9FB865
:1013630004120E0FE4B804120E0F09B904120E0F83
:10137300F87F00120E0FA4C904120E0FDCC9041269
:101383000E0F2ACB04120E0FAECB04120E0FECDE9F
:1013930004120E0FEFDE04120E0FFBDE04120E0F0B
:1013A300C4A204120E0FF0A204120E0F5AA50412C7
:1013B3000E0F9AA504120E0FD6A504120E0FEAA55E
:1013C30004120E0F03A604120E0FF5A604120E0F3D
:1013D300A8A704120E0FBCA704120E0F96CD041279
:1013E3000E0FBACD04120E0FD3CD04120E0F11CE71
:1013F30004120E0F41CE04120E0F6ECE04120E0F06
:1014030078CE04120E0FDECE04120E0FE1CE0412BC
:101413000E0FEBCE04120E0FF8CE04120E0F6AC29B
:1014230004120E0F8AC204120E0FC9C204120E0F49
:10143300E7C204120E0F02C304120E0F68C3041294
:101443000E0F74C304120E0FD1C304120E0FE0C3A8
:1014530004120E0F04C404120E0FC5C404120E0F9F
:10146300D2C404120E0FE3C404120E0FB8DD04122B
:101473000E0F00DE04120E0F2CDE04120E0F12A844
:1014830004120E0F6CA904120E0F7AA904120E0F88
:101493008DA904120E0FA2A904120E0FB7A90412EC
:1014A3000E0FCAA904120E0F46AA04120E0FABAAFE
:1014B30004120E0F33AB04120E0FABAB04120E0F5C
:1014C30084AC04120E0F94AC04120E0FA3AC0412DE
:1014D3000E0F1DDC04120E0F41DC04120E0F69DC2B
:1014E30004120E0F91DC04120E0F11C504120E0F1D
:1014F30038C504120E0F56C504120E0FC5C50412CB
:101503000E0F97BF04120E0FB0BF04120E0FBCBF15
:1015130004120E0FD0BF04120E0FEEBF04120E0FF3
:10152300F8BF04120E0F02C004120E0F15C00412EE
:101533000E0F9BC004120E0F10C104120E0F3FC1F9
:1015430004120E0F8DC104120E0FDCC104120E0F14
:10155300F7C104120E0F01C204120E0F12C20412BD
:101563000E0F55C204120E0F37DE04120E0F82DE69
:1015730004120E0F2B8A04120E0F578A04120E0F39
:10158300748A04120E0F878A04120E0FA28A0412A1
:101593000E0FFC8A04120E0F2A8B04120E0F3A8FC1
:1015A30004120E0F989004120E0FCA9004120E0F1D
:1015B3002D9104120E0F999204120E0FC192041270
:1015C3000E0FD69204120E0FE69204120E0F2693FC
:1015D30004120E0F689304120E0F789304120E0F69
:1015E300A9D104120E0FC3D104120E0FEBD10412B2
:1015F3000E0F04D204120E0F28D204120E0F46D27D
:1016030004120E0F5DD204120E0F8BD204120E0FB2
:10161300A6D204120E0FC1DA04120E0F05DB041258
:101623000E0F1CB904120E0F2CB904120E0F31BA8F
:1016330004120E0F63BA04120E0F93BA04120E0FA4
:10164300B6BA04120E0FCDBA04120E0F07BB041262
:101653000E0F6CBB04120E0FAEBB04120E0FF5BBC4
:1016630004120E0F22BC04120E0F4DBC04120E0FF7
:1016730002CF04120E0F14CF04120E0F28D004123F
:101683000E0F2BD004120E0F11D804120E0F47D8D1
:1016930004120E0F5FD804120E0FA1D804120E0FFE
:1016A300B1D804120E0FF5D804120E0FCD9B0412FD
:1016B3000E0F109C04120E0F759C04120E0F949CB7
:1016C30004120E0F369D04120E0F3F9D04120E0FCF
:1016D300909D04120E0FB99D04120E0FC69D0412A5
:1016E3000E0F389E04120E0FC69E04120E0F0B9F90
:1016F30004120E0F449F04120E0FA99F04120E0F23
:10170300D29F04120E0F49A004120E0F98A00412C8
:101713000E0FD5A004120E0F0AA104120E0F1CA166
:1017230004120E0F2EA104120E0F4DA104120E0F60
:1017330056A104120E0F17A204120E0F5AA204127E
:101743000E0F98A204120E0F58D004120E0F98D148
:1017530004120E0F8EDE04120E0F66C704120E0F54
:101763009CC704120E0FE4C704120E0F3DC90412E6
:101773000E0F45C303120E0F6BC403120E0FA7C443
:1017830003120E0F65C603120E0F93C603120E0F3C
:10179300FDC803120E0F3DC903120E0FDFCA031259
:1017A3000E0F75CB03120E0FCFCB03120E0F5FCCB0
:1017B30003120E0FA3CC03120E0FE5CC03120E0F70
:1017C3004ACE03120E0FCACF03120E0F0BD203120F
:1017D3000E0F39D203120E0F65D203120E0F6ED203
:1017E30003120E0FCBD203120E0F64D303120E0F8C
:1017F3007BD603120E0F01D703120E0F73DB0412F5
:101803000E0F8BDB04120E0F95DB04120E0FEBDBB6
:1018130004120E0FD4AC04120E0FEAAC04120E0F16
:101823008BAD04120E0FCAAD04120E0FE7AD0412F6
:101833000E0F18AE04120E0F65AE04120E0F99AE02
:1018430004120E0FD4AE04120E0FD1B004120E0FF9
:1018530037B104120E0F12D604120E0F71D60412F2
:101863000E0FAFD604120E0FF0D604120E0FB9A549
:1018730002120E0FC5A502120E0F27A602120E0F9B
:1018830031A602120E0FBEA602120E0FFAA6021204
:101893000E0FF6A702120E0F54A802120E0FF4A891
:1018A30002120E0F74A902120E0F43AB02120E0F97
:1018B30085AD02120E0FCCAE02120E0F09B1021249
:1018C3000E0F71B202120E0F1DB302120E0F0CB8DF
:1018D30002120E0F02B902120E0F9AB902120E0F64
:1018E300BFB902120E0F57BA02120E0F75BA0212C7
:1018F3000E0FECBA02120E0F0BBB02120E0F38BB07
:1019030002120E0FD0BC02120E0FF1BC02120E0F08
:1019130097BD02120E0FDEBD02120E0F52BE02124F
:101923000E0FE0BE02120E0F3DBF02120E0FB6BF26
:1019330002120E0F38C102120E0F9CC302120E0FB9
:1019430025C402120E0F53C402120E0FA8930412E1
:101953000E0F6B9404120E0FA19504120E0FDB965B
:1019630004120E0FD19804120E0F4A9904120E0F8F
:10197300129A04120E0F909A04120E0FF7D3041248
:101983000E0FA9D404120E0F387A00120E0FC57A67
:1019930000120E0F3E7B00120E0FD97B00120E0FAA
:1019A300FA7B00120E0FCE7C00120E0F487E00123F
:1019B3000E0F14AE03120E0F43AE03120E0FBBAE87
:1019C30003120E0FCAAF03120E0F26B003120E0F2F
:1019D30093B103120E0FAFB103120E0F01B2031234
:1019E3000E0F44B203120E0F57B203120E0FAFB213
:1019F30003120E0F71B303120E0FEDB303120E0F8A
:101A030024B403120E0F5CB403120E0FEEB50312CF
:101A13000E0FCDB603120E0F1BB803120E0FFEB836
:101A230003120E0F8AB903120E0FCAB903120E0F57
:101A3300E9B903120E0F34BA03120E0F54BA03128C
:101A43000E0FEDBA03120E0F73BB03120E0FCEBBB4
:101A530003120E0F0EBC03120E0FA4BE03120E0FC1
:101A6300BDBF03120E0F03C003120E0FF8C0031203
:101A73000E0F20C103120E0F23C103120E0F2DC12F
:101A830003120E0F49C103120E0FC3C103120E0F2F
:101A9300FCC103120E0F28C203120E0F4FC2031212
:101AA3000E0F73C203120E0FE4C203120E0FF7C21E
:101AB30003120E0F26C303120E0F39DD04120E0F8D
:101AC30045DD04120E0F83DD04120E0FFAFF01121F
:101AD3000E0FE59703120E0F089803120E0F559978
:101AE30003120E0F9E9903120E0F0A9A03120E0F82
:101AF300689A03120E0F6B9A03120E0FBC9A03120D
:101B03000E0F319B03120E0FB69B03120E0FB99BE0
:101B130003120E0F3A9C03120E0F7B9C03120E0F3F
:101B230067A003120E0F11A203120E0F61A203127C
:101B33000E0FE8A503120E0F1BA703120E0F95A895
:101B430003120E0F32A903120E0F1DAA03120E0F5A
:101B530072AC03120E0F49EE01120E0FF3EE0112D7
:101B63000E0F5EEF01120E0F79EF01120E0FFEEF53
:101B730001120E0F58F001120E0F9FF001120E0FFB
:101B830006F101120E0F85F201120E0FB4F30112CA
:101B93000E0F3CF401120E0F45F601120E0FF2F672
:101BA30001120E0F96F701120E0F0C8604120E0F80
:101BB30022FA01120E0FBAFB01120E0F4DFC011295
:101BC3000E0F73FD01120E0F82C602120E0FE5C631
:101BD30002120E0F2DC702120E0F71C702120E0F43
:101BE300CCC702120E0F29C802120E0F64C80212CC
:101BF3000E0FE6C802120E0F40C902120E0FBECA24
:101C030002120E0F3ECB02120E0F99CB02120E0FD1
:101C1300B3CB02120E0FD4CB02120E0F2ECC021234
:101C23000E0FAACE02120E0FC9CE02120E0FF2E34E
:101C330002120E0FECD002120E0F6BD102120E0F16
:101C4300A7D102120E0F16D202120E0FCBD202121E
:101C53000E0FA3D402120E0FAAD502120E0F22D713
:101C630002120E0F18D902120E0F8EDB02120E0F84
:101C730068DD02120E0F29DE02120E0FA1DE021220
:101C83000E0FB8DE02120E0FAFDF02120E0FA3E02B
:101C930002120E0F12E102120E0FA5BC04120E0F58
:101CA300FCBD04120E0FBBBE04120E0F23BF0412A1
:101CB3000E0FB5FC02120E0FD0FC02120E0F14FD14
:101CC30002120E0F3AFD02120E0F61FD02120E0FE9
:101CD30079FD02120E0F1BFE02120E0F30FE0212CE
:101CE3000E0F53FF02120E0F5CFF02120E0F65FF61
:101CF30002120E0F6EFF02120E0F68FB03120E0F7D
:101D030074FF03120E0F79FF03120E0F7BFF0312F2
:101D13000E0F23CC04120E0FE5FF02120E0FD9D2C1
:101D230004120E0FB9FF02120E0F44B104120E0F6C
:101D3300E2FF03120E0FB6DC04120E0FE0DC0412F6
:101D43000E0F008002120E0F338002120E0F9F80BF
:101D530002120E0F3A8102120E0FD78102120E0FDA
:101D63001C8202120E0F3E8202120E0F57820212C3
:101D73000E0F7D8202120E0F9F8202120E0FDD8262
:101D830002120E0F218302120E0F438302120E0F53
:101D9300A58302120E0F6C8402120E0F238502120A
:101DA3000E0F958502120E0F608602120E0FB38678
:101DB30002120E0F198702120E0F538702120E0F13
:101DC300A58702120E0F138802120E0F7E880212CD
:101DD3000E0F818802120E0F028902120E0F9989CB
:101DE30002120E0F198A02120E0F388A02120E0FF8
:101DF3009C8B02120E0FA98B02120E0FB58C0212CE
:101E03000E0FC28C02120E0FCB8C02120E0FA38E7A
:101E130002120E0FBD8F02120E0F369002120E0F1A
:101E2300A89002120E0FCA9002120E0F5E910212B8
:101E33000E0F329302120E0F099702120E0F1D9707
:101E430002120E0F2D9702120E0F379702120E0F6A
:101E5300409702120E0F499702120E0F5397021268
:101E63000E0F809702120E0FA99702120E0FB4974E
:101E730002120E0FD89702120E0FFC9702120E0FCA
:101E8300669802120E0FAC9802120E0FC998021236
:101E93000E0F469902120E0F7D9902120E0FBC9976
:101EA30002120E0F099A02120E0F8F9A02120E0FD0
:101EB3005D9C02120E0FE09C02120E0FC49D0212D3
:101EC3000E0F2BA002120E0F84A002120E0FCEA033
:101ED30002120E0F29A202120E0F5EA202120E0FA1
:101EE300B0A202120E0F65A302120E0F14A4021267
:101EF3000E0F51A402120E0FE6A402120E0F52A5EA
:101F030002120E0F7B2D00120E0FAD2D00120E0FBD
:101F1300DB2D00120E0FB12F00120E0F91300012A5
:101F23000E0FE93000120E0F243200120E0F703222
:101F330000120E0F993500120E0F8C3800120E0F7F
:101F4300DC3900120E0F723A00120E0F7E3A0012A5
:101F53000E0FB03A00120E0F333C00120E0FE43D89
:101F630000120E0F783E00120E0FBB3E00120E0F32
:101F7300393F00120E0F563F00120E0F863F00121C
:101F83000E0FBB3F00120E0F8B4000120E0F344199
:101F930000120E0FBA4300120E0FDA4400120E0F96
:101FA300C54500120E0F474600120E0F7B4A001262
:101FB3000E0FB84A00120E0F104B00120E0F434BB8
:101FC30000120E0FAD4B00120E0FE34B00120E0F5B
:101FD3006E4C00120E0FC64C00120E0F9D4D0012D8
:101FE3000E0F564E00120E0FF14E00120E0FF95146
:101FF30000120E0F155300120E0FB85600120E0FDB
:10200300AC5700120E0FAF5700120E0FDE5700121F
:102013000E0FE45900120E0FBD5A00120E0F005B93
:1020230000120E0F565C00120E0F955C00120E0F7D
:102033001E5D00120E0F525D00120E0F175E00128E
:102043000E0F2F6000120E0FA06000120E0FE06043
:1020530000120E0F6E6100120E0F906200120E0F2F
:10206300526300120E0F596500120E0F71650012B4
:102073000E0F856500120E0FBD6500120E0FEB6586
:1020830000120E0F6A6700120E0F8F6800120E0FF8
:10209300EC6800120E0F9E6900120E0FC569001244
:1020A3000E0F8C6A00120E0F246B00120E0F4A6D76
:1020B30000120E0F7F6D00120E0FE26D00120E0F55
:1020C300116F00120E0FB96F00120E0FEA6F00129C
:1020D3000E0F027000120E0F917000120E0F457357
:1020E30000120E0F1D7500120E0F397500120E0F20
:1020F300557500120E0F237600120E0F167A00127A
:102103000E0F678401120E0F998401120E0F888837
:1021130001120E0FD48801120E0F1A8901120E0F2D
:10212300BC8901120E0F188A01120E0F5D8A01126B
:102133000E0FA48B01120E0FB88C01120E0FA79075
:1021430001120E0F2B9101120E0F389201120E0F76
:10215300949201120E0F849401120E0FF99401123E
:102163000E0F039501120E0F109501120E0F3B95E2
:1021730001120E0F229601120E0FCC9601120E0FB2
:102183004A9701120E0F6A9701120E0F93970112CD
:102193000E0FB59701120E0F159A01120E0FDB9A4F
:1021A30001120E0F209B01120E0F9D9B01120E0FA9
:1021B3004E9C01120E0F809C01120E0FC69C011241
:1021C3000E0F029D01120E0F529D01120E0FA69DBE
:1021D30001120E0FFC9D01120E0F489E01120E0FED
:1021E300B59E01120E0F309F01120E0FFBA00112BC
:1021F3000E0FFBA101120E0F20A301120E0F5FA6FB
:1022030001120E0F72A901120E0F2FAA01120E0F47
:1022130073AA01120E0F23AC01120E0F37AC011279
:102223000E0F41AC01120E0F4BAC01120E0F57AC47
:1022330001120E0F73AC01120E0F1EAD01120E0F21
:102243005DAD01120E0F67AD01120E0F71AD0112DC
:102253000E0FE1AD01120E0F2CAE01120E0F41AFA6
:1022630001120E0F9DAF01120E0F1EB001120E0FC1
:10227300DDB001120E0FE6B101120E0F1AB30112F7
:102283000E0F08B401120E0F20B401120E0F7BB40F
:1022930001120E0F99B401120E0FE1B401120E0FC9
:1022A30008B501120E0FA3B501120E0F69B6011284
:1022B3000E0FFBB601120E0F75B701120E0F8FB87A
:1022C30001120E0F3CB901120E0F64BA01120E0F68
:1022D300B4BA01120E0F18BB01120E0F7ABB011212
:1022E3000E0FA8BB01120E0FCCBB01120E0F01BCC7
:1022F30001120E0F32BC01120E0F65BC01120E0F3C
:1023030085BC01120E0FEDBC01120E0FE1BD0112CF
:102313000E0F3CBE01120E0F65BE01120E0FEDBE75
:1023230001120E0F70BF01120E0F9BBF01120E0F91
:1023330080C001120E0F67E503120E0F9FE5031213
:102343000E0FC0E503120E0F02E603120E0F64E632
:1023530003120E0F6EE603120E0F7EE603120E0F2C
:10236300B9E603120E0F99EA03120E0F86EC03125D
:102373000E0F6CEE03120E0F03EF03120E0FA5EFF9
:1023830003120E0F82C201120E0F00C301120E0FB1
:102393005CC301120E0FA7C301120E0FC2C30112B9
:1023A3000E0FEDC301120E0F0AC401120E0F16C455
:1023B30001120E0FADC501120E0FC6C501120E0F8D
:1023C3004BC601120E0F5EC601120E0F7DC601121F
:1023D3000E0F21C701120E0FA2C801120E0F55CA0C
:1023E30001120E0FEBCA01120E0FEECA01120E0FED
:1023F3005ECB01120E0F7CCB01120E0F13CC011218
:102403000E0F5BCC01120E0F5ECC01120E0F24CD0A
:1024130001120E0F91CD01120E0FB7CD01120E0F47
:1024230042CE01120E0F60CE01120E0FA6CE011284
:102433000E0F5ACF01120E0FA4CF01120E0FD3CFDE
:1024430001120E0F30D001120E0F65D001120E0FC4
:1024530091D001120E0F9FD001120E0FECD001127A
:102463000E0F5CD101120E0FA5D101120E0FF1D187
:1024730001120E0F1DD201120E0F28D201120E0FE0
:1024830046D201120E0F31D301120E0F3BD30112AC
:102493000E0F76D301120E0F86D301120E0F8FD3B8
:1024A30001120E0FE3D301120E0FF7D301120E0F19
:1024B30026D501120E0F3DD501120E0F52D5011272
:1024C3000E0FE0D501120E0F25D601120E0FB1D655
:1024D30001120E0FBCD601120E0FFED701120E0F02
:1024E30019D801120E0F65D801120E0FD4D801129C
:1024F3000E0F0DD901120E0F27D901120E0F69D934
:1025030001120E0F39DC01120E0FE6DC01120E0F61
:1025130053DD01120E0F93DF01120E0FABDF011219
:102523000E0FAEDF01120E0FBADF01120E0FCEDF58
:1025330001120E0FD6DF01120E0F09E001120E0F6A
:102543000BE101120E0F92E101120E0F02E20112D2
:102553000E0F84E201120E0F45E301120E0F64E326
:1025630001120E0F05E401120E0F62E401120E0FA9
:1025730065E401120E0F92E401120E0FA7E401129B
:102583000E0F1BE501120E0F6AE601120E0F70E724
:1025930001120E0FFBE701120E0F16E901120E0FC7
:1025A300DEE901120E0F0FEA01120E0F32EA0112D9
:1025B3000E0F3BEA01120E0F6AEA01120E0FFAEA3E
:1025C30001120E0FB0EB01120E0F25EC01120E0FCC
:1025D300CCEC01120E0F41ED01120E0F78ED01123A
:1025E3000E0FB6ED01120E0FECED01120E0FF88572
:1025F30004120E0F558504120E0F558404120E0F8C
:102603006E8304120E0F5E8104120E0F6C8004128F
:102613000E0F0A8004120E0FD19703120E0FC797E5
:1026230003120E0F5C9703120E0F46E302120E0FF6
:10263300A3E202120E0F8D9503120E0F4B95031298
:102643000E0F5DE202120E0F28E202120E0F4F94DC
:1026530003120E0F239403120E0FDA9303120E0FBD
:102663001B9303120E0F079003120E0FC88D031254
:102673000E0F958D03120E0F3C8D03120E0FCF8C90
:1026830003120E0F8E8C03120E0FC78B03120E0F45
:10269300618B03120E0F008B03120E0FA08A03121D
:1026A3000E0F778903120E0F0B8903120E0F638827
:1026B30003120E0F5E8803120E0F528803120E0FC1
:1026C300858403120E0F5F8403120E0FF5E10212CD
:1026D3000E0FE0E102120E0FB5E102120E0FE589B3
:1026E30004120E0FB18904120E0F5A8904120E0F31
:1026F300C88704120E0FFD8303120E0F9E8303126D
:102703000E0F5F8303120E0F4C8303120E0F1A87F3
:1027130004120E0F418303120E0F108303120E0FC8
:10272300FD8003120E0F708003120E0F7D860412BC
:102733000E0F2C8003120E0FB9CF02120E0F008062
:1027430003120E0F02FB03120E0FD5FA03120E0F24
:10275300A2FA03120E0F7AFA03120E0F1BFA0312D8
:102763000E0FFBF903120E0FC6F903120E0F72F6CA
:1027730003120E0F5AF403120E0F44F203120E0F3C
:10278300C4F103120E0F70F103120E0F24F10312A2
:102793000E0F738604120E0F7CF003120E0F67F8F0
:1027A3000100000080FB8F00010006198700010073
:1027B300041935000400CD1825000200D1182600A5
:1027C3000200D31827000200D51828000100DF18E3
:1027D30029000100E0188400040079168600010036
:1027E30097182A000100E1182B000100E2182C00C1
:1027F3000100E6182D00080085162E000100E718D9
:102803002F000100E81830000100E9183100010031
:10281300EA18320001008D16330001008E163400D1
:102823000100EB18360001008F1638000100EC1888
:1028330039000100E518830002000219630001005A
:102843009B1664000100E31865000100E4186D00A5
:1028530001009C16710008007D1666000100011935
:1028630043000100F21844000200F3184500010080
:10287300F51846000200F6184700080093164800B2
:102883000100F8184B000100F918040001000519B4
:10289300A10001000919370001000819880001008F
:1028A30007193C00010090163D000100ED18490096
:1028B3000200FA18670001009D164D000200FC1883
:1028C3004E000100FE184F000200FF183E000100F9
:1028D300F11851000100911652000100EF18530046
:1028E3000100F018540001009216000000000000DF
:1028F300000136360101000102010001030100015C
:102903000401060605020000070100340801000F58
:10291300090401010D0100FF0E0800001702000069
:10292300190100FF1A0100011B0100FE1C01000830
:102933001D0200001F01000120010001210200000F
:102943002301000F240200002601000127010008D3
:10295300280200FF2A0100072B0102402C0100007E
:102963002D0100012E0100012F0100FF30010B1D7D
:10297300310800003A0100083B01000F3C0100014F
:102983003D0100FF3E040000420400004604000035
:102993004A0400004E0400005204000056040000E4
:1029A3005A0400000103710301030103010301033E
:1029B30001032203020301031003000300030003C6
:1029C3000003000300030003420300032403060380
:1029D3000003000304031203250323032503230336
:1029E3000403040300030003000344030003000380
:1029F300230300036503210035038103000305035B
:102A030000030003000300032503230303027102F1
:102A1300300160021102700201020202020280020E
:102A2300100261023A004100630273027202620201
:102A330043020002130238000002000204021202E1
:102A43000002000200020002040204023700370001
:102A53003C02440200023900000200026502000247
:102A63003502810200020502820283020002010193
:102A73007101010101011101010131010101010193
:102A83008001100161013B001400630173017201B5
:102A9300620143010001130106013D0135000401F8
:102AA30012010001000100010001040104013301CE
:102AB30033013C014401320136000001000165018C
:102AC300000135008101000105018201830100013C
:102AD3000300710030016000110070003102200317
:102AE30050048000100061000000140063007300B4
:102AF30072006200430000001300060000000000A3
:102B030004001200000000000000000004000400A4
:102B1300370037003C0244000000000000000000C2
:102B230065000000350081000000050000008300FF
:102B3300000036000100060000000F000000000046
:102B4300000000000000000003FFFF00000403FF7B
:102B5300FF0000FFFF0FF4010005C4040320000180
:102B630000000B000000000000000003010F000044
:102B73000000000000000000000000000000000052
:102B83000000000000000000000000000000000042
:102B9300281946192E198C180000000000000000A7
:102BA300000000000000000034198C180000000031
:102BB3003A198C18000000000000000040198C181E
:102BC3000000000000000000000000000000000002
:102BD30000000000000000000000000000000000F2
:102BE30000000000000000000000000000000300DF
:102BF30020016384000000002001658400000400BC
:102C0300420175830000050042014B830000070069
:102C1300300166840000FDFF21015F84000006008F
:102C230042012A83010020002001B4180100210081
:102C33002001B5180000801B0100801B0200F61A5A
:102C43000280F01A0300FC1A0400021B0480081B14
:102C530005000E1B06001A1B31002C1B3300321B10
:102C63003400381BFFFF00000300030004000800CA
:102C730010001F003E007B00F600EC01D703AF07F6
:102C83005D0FB91E713D000007ECFDFDFDECDCDCC2
:102C9300CCBCACAC9C9C8C7C7C6C6C5C5C5C4C4C11
:102CA3003C3C2C2C1C1C03EAF5E5D5D5C5B5A595F4
:102CB30095858575756565555545453535252515C1
:102CC30015050A7A21024421055021074A210C2CBB
:102CD300210D3821FF000000160F00000B150B0219
:102CE3000002220F3300000E0FD0D1D2D3D4D5D699
:102CF300D7D8D9DADBDCDDDEDF5A696742656541A7
:102D03006C6C69616E636530393030161819202395
:102D13001A1C1E3000034D4C4651181A250502009B
:102D23000119161816161823030030301718192125
:102D3300301B1D1F30003C40423A3F3F392F473084
:102D43000C0E020B040B0A0708000F020402010118
:102D530001010902E803000000BE040A01000E009D
:102D63000300E803040909031004030A0C041E0802
:102D730028020C0508151E14C082C08312120E907F
:102D830016C6741CF0A3741FF09016C87422F0A327
:102D9300741FF09016CA7428F0A3741FF09016CC19
:102DA300742EF0A3741FF0025AB674F712089790AA
:102DB30016BAE4F0E99016B9F07C937D167ABB7BE2
:102DC300161218689018F8E09016C3F09016C474A1
:102DD3007DF0A37416023D4374F0120897EAFEEBEC
:102DE300FF54807003022F4C9016B9123DD8700324
:102DF300022F45EA241B125643707CEA241F125605
:102E03004364137002A3E0706E8A828B83122F9A3D
:102E13009016D4124BD5750A00750B00800D123C29
:102E230019126CB512176CAA0EAB0FEA4B60488AE5
:102E3300828B83E0650C7004A3E0650D702C8A829D
:102E43008B83A3A3A3A3E0F50EA3E0F50FE50A4547
:102E53000B8A828B83A3A3A3A360C3123F1B850AA0
:102E630082850B83A3A3A3A380B78A0A8B0B8A82D1
:102E73008B83124BD180B4E508242A125643FCE518
:102E8300082402F8E43509F9E8FAE9FB9016D412AC
:102E93003081A3A3E06402703C8A828B83124BD5FA
:102EA300800B88828983A3A3A3A3123F1BE84960F5
:102EB3001F88828983E06A7003A3E06B70E48882D1
:102EC3008983A3A3E06C70DA9018FE125973806BA8
:102ED300ECF9121F58850882850983E06401704F5D
:102EE300E5082418122F83120E6812625D120C87F4
:102EF300E5082412122F83120E68E508123DCC1246
:102F03000E64E508240B126261120C8BE50824178A
:102F1300123D69E5082402FCE43509FDE50824199E
:102F2300FAE43509FB12277A740A120E77800CE053
:102F330064027007AA08AB09122036AA08AB09126B
:102F430016D0EEFAEF6480802DEA5402600C9019DB
:102F5300197401F0EA6402FA8023EA5408601A1231
:102F63001F52EA4B700B9016D61261387A08122F53
:102F730090EE6408FAEFFB80047A007B000268E7B6
:102F8300F582E43509F583E0F50A780A22FB901609
:102F9300B9E0F912183822A3A3E0F50CA3E0F50D6C
:102FA300227B009016B9E0F912182C74042274F4F1
:102FB3001208978A088B098A828B83A3A3A31249D9
:102FC300CD123D7438F583E02409FA12687F70034B
:102FD3000230748A828B837402124A428508828586
:102FE3000983123081E8F0A3E91264F98A828B83A2
:102FF300A3A3A3A3A3A3A3A3F0E5082403F8E435A1
:1030030009123076123D743AF583E08E828B83A3E6
:10301300A3A3A3F0EE2409FAE43FFB8E828F83A3DC
:10302300A3125C25F5838882E0A2E58E828F83A3B9
:10303300A3A3A3A3500474018001E4F0E5082403CF
:10304300F5828983124BD5EA1251563BF5831268F8
:1030530046120E60123D733B125D178E828F83A35F
:10306300A31279F5120E77EEFAEFFB9016B91268F8
:10307300CC8016F98882F583E0FAA3E0CA22124DC8
:1030830072A3A3227402120E777F04020BBC74F2A4
:103093001208978A088B09ECFAEDFB740E12115390
:1030A300E0FC1212448A0C8B0DAE0CAF0DEA4F609C
:1030B30030AC08AD09121232E96026AC08AD09EE56
:1030C300FAEFFB121238E970148E828F83123F08D5
:1030D300FAEFFB12122CAA08AB0912125C790080DA
:1030E3000279B4024CC174F012089774F6120F0BF4
:1030F300EAFEEBFF8C088D09750FB38521828522CB
:1031030083E4F0750E008002050E902D7AE493F8A7
:10311300E50EC3984003023210AA0E7B0012128000
:103123008A0A8B0BEA4B60E08A828B83A3A3123259
:103133001728F0F8C3EE98EF940050CC7C157D006F
:103143007900AA08AB091216B8850A82850B83A3F6
:10315300A3A3A3126CF2E0F8EEC3982925E0F8E4E8
:1031630033F9E50A28F582E50B39F583A3A3A3A375
:10317300A3A3123D7EA312579A8A0C8B0DAC0CAD00
:103183000DAA08AB09121868850A82850B83A3E090
:103193006401700A12625D7401123D9080447401EF
:1031A300120ED5850A82850B83124BD3121268E95E
:1031B300603D7409121153E0C0E012625DD0E0F08B
:1031C3007409121153E0640370137401120ED5E5F0
:1031D30008240BFAE43509FB1218688012740112F3
:1031E3001153123F1BE5081257803509126CB38542
:1031F3000A82850B83126269123D90A3A3E0C0E0AB
:10320300E5082414126261D0E0F0750F00A90F7471
:103213000A0268E4A3A3A3E0F8852182852283E060
:103223002274F7120897E9FE8A828B83A3A3A3A3D0
:10323300A3A3E0540860338A828B83A3A3A3A3A32D
:10324300A3E0540260218A828B83A3A3A3A3A3A335
:10325300A3A3A3E06406600F74E96E600A74CD6EE5
:10326300600574F06E7003121F3A0245C074F012C9
:10327300089774EF120F0B740F12115312601C7422
:1032830008121153E9F0ECFEEDFF7405121153120D
:1032930043881245ACA3E0F912125074061211537D
:1032A30012601C74061211531251E7700302352B7E
:1032B300123DB8E0FA7406121153E0F9121E7A12A5
:1032C300358BF8A3E0F9E849700302352BEE2403AC
:1032D300F50AE43FF50BEE2406F508E43FF5097C17
:1032E30000850882F583124BD5850A82850B83E01E
:1032F300F9121256740312115312601C850A828547
:103303000B83E0C0E0852182852283123584D0E0DF
:103313001252FCF9852182852283123C20124E4EE3
:1033230012321AFAA3E0CA2407F582E43AF583E8D5
:10333300F0A3E41260272406F582E438F583E4124F
:103343006CBF1249C1120E60EE123D743F125D173D
:1033530074031211531249CD24091279EF120E7717
:103363007429121153126CEC12307B12530F3A1260
:103373006CB3742B121153E0C0E085218285228344
:103383001251AED0E0F07402121153E4F07425121E
:10339300115378081210FC02348274031211531271
:1033A3005CDF8882F583123573A3A3A31257A5FBB1
:1033B30012126E850E82850F83A3EAF0A3EBF074DD
:1033C30003121153123584A31235731259B4A2E6B2
:1033D300500F850E82850F83A3A3A3A3A3E0D2E19D
:1033E300F07405121153E0706B850E82850F83A371
:1033F300123F1B901714E0687003A3E069705585B2
:103403000E82850F83A3A3A3123D53750C00780C82
:10341300120E687808120E5C7429121153E0F50C31
:10342300780C120E687427121153120C8B9017210B
:10343300120C8B79007419121153124BA512207EB2
:10344300740A120E77850E82850F83A3A3A3A3A309
:10345300E04405F07402121153E004FC8E828F8362
:10346300124BCF8E828F83A3A3A3E0F9121256745B
:103473000312115312601C7402121153E004F0740E
:10348300031211531251E760677402121153E0FAE9
:103493007406121153123F1BC3EA98E499505174F6
:1034A3000212115312385D852182852283E028F8A8
:1034B300A3E039F9E8240FF50EE439F50F850E8200
:1034C300F583E4F0740312115312357E6401600333
:1034D30002339D740512115374011268D2F0740300
:1034E300121153125AA6123880E8F0A3E90233C12D
:1034F300852182852283124BD5121E8085218285E8
:103503002283120C8B7426121153E0FD74251211C1
:1035130053E0FC740A121153E0F9EEFAEFFB121FA9
:10352300347402120E7780438E828F83A3A3A3E0A9
:10353300C0E0740C121153D0E0F012673BE0C0E01E
:10354300740D121153D0E0F074061211531251E7A7
:103553007009740E12115374B98007740E1211534B
:103563007410F07409120ECD12207874110268E4FD
:10357300E0850E82850F83A3A3A322E01252D4E039
:1035830022E01252D4A3A322852182852283EAF06A
:10359300A3EB1251F02274F012089774E1120F0B8F
:1035A3007404121153E9F07403121153ECF0740212
:1035B300121153EDF08A0E8B0F742F121153122F29
:1035C3009CAA0CFB121E6E7401121153E9F0AA0C93
:1035D300AB0D121E747401121153E07003023858BC
:1035E300852182852283E480158E828F83A3A3A302
:1035F300A3A3E0D2E3F0852182852283E00412684D
:103603002AF8852182852283E0C398400302384F3C
:103613007401121153E0700302384F852182852211
:103623008312385DE50C28F8E50D39F9E8240FFE1F
:10363300E439FF8E82F583A3A3A3A3A3E0A2E04012
:10364300B5750800750A08750B007402121153E072
:1036530060037508207C087D0079007405120ECD87
:103663001216B88E828F83E0603E901764E0640187
:10367300701AE508D2E3F508750B1012386D1211B4
:1036830053E8F0A3E912569874FF807643080C754B
:103693000A0C8E828F83A3123878126CB5740512CC
:1036A300115374FFF0A3805A7404121153E060099C
:1036B300E508D2E6F508750A0A8E828F83A3E064D3
:1036C300FE7003A3E0F470307412121153740412E9
:1036D3006287F8741D121153E8124A427412120ED3
:1036E300CD121D9C7D007C0079007415121153AA24
:1036F30082AB83121B68800B12386D121153E8F0F2
:10370300A3E9F07407121153E508F0123DAFC0E0CE
:103713007409121153D0E0F0740A1211537401F0BA
:103723007405120ECD12203C7411121153E0600384
:1037330002382D740D1211531252F78E828F83A308
:10374300A3A3A3F0740D121153124A10E50AF0A3B8
:10375300E50BF07403121153E0C0E01249A1D0E06D
:103763001259B46011901764E0C0E0740D12115344
:103773001249EBD0E0F0740D121153123F1B850C6C
:1037830082850D83A3A3A3A3A3123866241C12600E
:1037930016126CCF1238681259663912675AC0E094
:1037A300124988D0E012681FC0E0740D1211531241
:1037B30044CED0E0126520C0E0740D1211531244C0
:1037C300C4D0E0F0740D1211531238781238662405
:1037D3002A126016850E82850F83A3A3A3A3A3A336
:1037E300A3A3E012600F123D9EC0E01244B0D0E0EC
:1037F300F0740D121153124BD5850E82850F83126F
:1038030068352428F582E43B126CB3123DA7126895
:1038130046120E60125D10EA125FA83B1279F31292
:103823000E777405120ECD1220428E828F83A3A3CE
:10383300A3A3A3E0D2E0F07411121153E0600302DA
:1038430035EC7401121153E0140235F87900AA0C17
:10385300AB0D121F40741F0268E4E075F007A4F873
:10386300A9F022A3A3124BD9E8228E828F83A3123D
:103873003F1F740522E0123880A3A3A322F8A3E01C
:10388300F9850E82850F83A32274F012089774E8DA
:10389300120F0BE9852182852283F08A0E8B0F8A12
:1038A300828B83A3A3A3A3A3A3A3A3E0F9121E98CC
:1038B3008A088B09EA4B7003023969E50E12516AD3
:1038C300123DC7123D5E852182852283E06003029B
:1038D300396C7C04850E82850F83A3A3A3A3A3A3C2
:1038E300A3A3E0F9121E9EEE4F607B8E828F83A30B
:1038F300A3A3A3123F1B740712115312614D123F6E
:103903001B7409121153124A72C0E074111211533D
:10391300D0E01264FEA3A3A3A3A3A3A3123F1B742B
:103923000F121153126CB57412121153E41268DAA8
:10393300C8241FF582E438F583125CDBC4131354E7
:1039430003FC70027C048E828F83E0F97808120EE8
:1039530064742059FD744059F97403120ECD121F7B
:10396300347402120E770268E27C08850E82850F9A
:1039730083A3A3A3A3A3A3A3A3E0F9121E9E8B0B6C
:10398300EA4B70030238EAEE4F60DB852182852221
:1039930083E0F50C780C120E68850882850983A3F1
:1039A300A3A3A3A3A3A3E0F50C780C120E688A8249
:1039B3008B83A3A3A3E0FB8A82850B831275128AF0
:1039C30082850B83E0FA8E828F83A3A3E0F912270B
:1039D300807402120E770238EE74F712089774FAA5
:1039E300120F0BE9FE780179017F00800379000F44
:1039F300124D51E0FCEFC39C5026EF75F007A4FC79
:103A030085F008AD08EA2CFCEB3DFD124340E0A233
:103A1300E050DA540C60D6E0A2E250D3780080CFB5
:103A23008A828B83A3A3A3A3A3A3E0703DE9A2E0AF
:103A3300400574016E70338A828B83A3A3A3A3A36F
:103A4300A37401123D30E0C0E07403121153D0E0BF
:103A530012439FE0C0E07404121153D0E0F07405E8
:103A6300121153E8125C7A12207874060245BDC025
:103A730082C0837901121F40025AB674F412089768
:103A8300EA4B9019196019E4F08A088B09F50AF5D5
:103A93000B7808120E5C7A02122FA4120E77800A9A
:103AA3007401F07A027B00122F9102308C74F012B1
:103AB300089774F3120F0B7403121153E4F0A3F07D
:103AC3009016D4123D5E7401121153E4F0A3124A0E
:103AD3004704F090170EE0A2E35003023BA3123D0C
:103AE30024740912115312113C74091211537808EA
:103AF3001210FC9016D67808120EDD7405121153BD
:103B030078081210ED123C2774051211537808122D
:103B130010A050077A017B00023C14740512115364
:103B2300780C1210FC9018FDE0F509780C79081256
:103B33000828A80CA90D9018FEE0C398E499500337
:103B4300E08001E8852182852283F07409121153F4
:103B530078081210FCC008C009C00AC00B74051213
:103B63001153780C1210FC123C27780C79081208B8
:103B730028E4F50AF50BD00FD00ED00DD00C780C3D
:103B83007908120FB09016D6780C1210ED8011122E
:103B93003C19126CB5EEFAEFFB12176CAE08AF09C5
:103BA300EE4F60658E828F83123217C398502DEECD
:103BB3002403F8E43FF9E0FA88828983E0C39AF0AA
:103BC300602374031211531240817401121153EED6
:103BD300F0A3EF126168FEA3E0FF80C48E828F839F
:103BE300A3A3A3E4F08E828F831279AC7401121124
:103BF300531251E78E828F83A3A3A3A36091126113
:103C030041121153123C2080897403121153124B39
:103C1300D5740D0268E4123F1F9016D422125D067C
:103C2300A3A3A3229018FC1279B4E4F50AF50B229E
:103C330074F01208978A088B09890A780079009032
:103C430016D4123D5EFBEE4B601E088E828F83A35B
:103C5300A3A3A3124B9F601008E87001098E828F03
:103C630083123D5AEA4F70E39018FF124BD5C3E815
:103C73009AE99B4003023D177A06123D1AA80CA944
:103C83000DEA497003023D178A828B83E508F0A38E
:103C9300E509123D39E50AF09018FE124D59123D1F
:103CA30030A3E4F0A3F09016D4124B9F600D8E82E4
:103CB3008F83A3A3A3A3126CB580179016D4126CA1
:103CC300B590170EE0A2E34009123D249016D612D8
:103CD300113C90170EE0A2E3503A7A087B0090164D
:103CE300B9E0F912183EEA4B4C4D70289018FCE0ED
:103CF300F508A3E085080CF50DE4F50EF50F780C37
:103D0300120E5C7A087B009016B9E0F9121832742F
:103D130004120E770268E77B001217668A0C8B0D7C
:103D230022121850EAF8EBF9ECFAEDFB22123D34BB
:103D330022123D39A322F08A828B83A3A322E508B2
:103D4300F00245C0F08E828F83A3A3A3A3A3A32273
:103D5300125651A3A3F022A3A3A3A3E0FEA3E0FF63
:103D6300227F05020BBCF582E43509F583E0F922D5
:103D7300EA123D78222410F582E422123D86A3A3A1
:103D8300A3A322123F2385088285098322123D942F
:103D930022F0850A82850B83A3A322E50E24111248
:103DA3003DC4E022E50E240E123DC422E50E24108C
:103DB300123DC4E022123DBC22EE123D783FF58352
:103DC30022F582E4350FF58322240FF50AE4350941
:103DD300F50B780A22E0F91216E28A088B09EA4BFE
:103DE3002274F2120897890B8A088B098A828B83C3
:103DF300124BD5121F64EA4B600479B8806A121F14
:103E030070E9F8902D6BE493F9E8C399400479B213
:103E130080567A15123D1AAE0CAF0DEA4F70047935
:103E23001080458A828B83E4F0A3123D39E50BF0C1
:103E3300750A007808120E607C127D00EA240312D2
:103E430067F1120E779016DA1251E770089016DABE
:103E5300800C123F1B88828983123E6E70F4EEF051
:103E6300A3EFF0121F827900024CC1124BD9EA4B27
:103E73008882898322C082C0839016DA80048C8270
:103E83008D83127513EC4D60288C828D83A3A3E080
:103E930069600574FF6970E68C828D83A3A3A3E038
:103EA3006A7003A3E06B70D6EC2403FAE43DFB8055
:103EB300047A007B00025AB674F7120897E9FD747E
:103EC300FE6D70047C0180027C009016DA80096D1F
:103ED30070027C01888289831251E7601F8882897E
:103EE30083A3A3A3E06A7003A3E06B70E7ECA2E0F3
:103EF30088828983A3A3E050D6F9800279FE024524
:103F0300C0EEF9800CA3A31279B4EE227402120E50
:103F1300777F02020BBCF583123F1F22123F23223D
:103F2300E0F8A3E0F922123F238E828F8322120E40
:103F3300777F03020BBCC082C08379009016DA80BE
:103F43000109E0FAA3E08A82F583E582458370F1F3
:103F5300025AB674F6120897E4F508F509780812C0
:103F63000E64902D6BE49375F013A4A9F0124076C0
:103F7300126D13120E77E9FE74096E7003121F7C23
:103F8300023F0474F612089774FE120F0B85218208
:103F9300852283E4F0A3F0A821A92288088909785F
:103FA30008120E647508027509007808120E64126F
:103FB3006984120E77023F0F74F512089774EB129F
:103FC3000F0B852182852283E4F0A3F09016DA801B
:103FD300748E828F83A3A3E0C0E07402121153D0C6
:103FE300E0125698A982AA8389088A09750A00787B
:103FF30008120E607C127D007406121153126CD8E5
:10400300120E777402120EC5880889097808120EF9
:10401300647508137509007808120E64740412118C
:104023005312518A75F013A4F8AAF075F013E9122C
:10403300407212698C120E77852182852283124089
:10404300818E828F83123D5EEE4F7085A821A92257
:10405300880889097808120E6475080275090078C2
:1040630008120E64126984120E777415023F31A48C
:104073002AF9E82402FCE439FD7A427B0022E02499
:1040830001F0A3E03400F02274F412089774EB12E9
:104093000F0B7E007F00A821A922880889097808D0
:1040A300120E647508028E097808120E647C007D76
:1040B300007A42126D1F120E77E9706C8E088056DB
:1040C3007402120EC5880A890B780A120E64750AE7
:1040D30013750B00780A120E64E50875F013A4F843
:1040E300AAF075F013E509124072126D21120E77D2
:1040F300E9701B7403121153AA82AB837402121169
:1041030053E0F9121F5EE970050EEE70010F05080A
:10411300E50870020509852182852283123F1BC3AE
:10412300E50898E509994098EEFAEFFB741502301B
:104133008974F61208978C828D83A3A312438DF0A2
:10414300EA125FAE3BF583E0C0E012434AD0E0F0F1
:10415300EA241DF582E43B123F1912432E124388D1
:10416300F0A3F0EA241FF582E43BF583123D5EECF5
:104173001243213DF583EEF0A3EFF01243273BF505
:1041830083124358A3A3A3A3A3A3EEF0A3EF125C4C
:1041930009FE8C828D8312439774035EFEC39403DE
:1041A3004003024314EE600874026E600302423956
:1041B3008C828D83E0540CFE740C6E700302427883
:1041C300E0A2E4400D88828983E08C828D83A31270
:1041D30043AD74086E60030242781243387401F0F1
:1041E3008A828B83A3A3A3A3A312565E70148C822B
:1041F3008D83E0440C12439FA3A3124358EEF0A314
:10420300EFF08C828D83E0A2E4402B888212436618
:1042130012437B500109F582124366A3A3A3A3A310
:10422300A3F0A3EF1243A78C828D83A3A3A3F0E88B
:104233002403F850010988828983E0C0E0EC24114B
:10424300F582E43DF583D0E01243978C828D83E0C1
:10425300A2E7507588828983E0FE8C828D831243A6
:10426300AD74FC5E700C8C828D83A3E054036403F5
:10427300701E024314124338E4F0740C6E600302A0
:1042830041E3888212436C12437B500109024205C9
:104293008C828D83A3E05403603288828983E0C0DB
:1042A300E0EC1243523DF583D0E01243AE8C828D95
:1042B30083E054036402701488828983E0C0E012AF
:1042C3004340D0E01243AE8003A3E4F0EC12515616
:1042D3003D126CB3EC2410FEE43DFFEA241DF5828D
:1042E300E43BF583E0F5088E828F83E0C3982508CD
:1042F300F508F0EA2417F8E43BF98882F583E0C374
:104303009508C0E012432ED0E0125C09C395085013
:104313000A12432EE4F012434AE4F0023F14241538
:10432300F582E422EA240DF582E422EC240DF582E1
:10433300E43DF58322EC12530F3DF58322EC241464
:10434300F582E43DF58322EC123D783DF58322248A
:1043530013F582E422E0FEA3E0FF8C828D83A3A306
:10436300A3A32212436CA3A3228983E0F508A3E04D
:10437300FFE5088C828D8322A3A3A3A3F0A3EFF010
:10438300E82402F82212438DA322E4F08C828D8369
:10439300A3A3A3221243B5A882A98322123D34A367
:1043A300A3A3A3221243B5A3E022A31243B508A9F2
:1043B3008322125C12A32274F412089774F3120F6F
:1043C3000B8A0A8B0BECFEEDFF8C82F583E0540C19
:1043D300F508E0A2E75006E508D2E7F508E508D2BC
:1043E300E1F50812565E7006E508D2E4F508E0A28E
:1043F300E55006E508D2E5F5087C087D007900AABA
:1044030021AB221216B87402121153E508126CB9CB
:10441300C0E07403121153D0E0124A47E50AF0A337
:10442300E50BF07405121153126525121153E07058
:104433007774081211531249CD125BFB3812654091
:10444300C0E074081211531244CED0E0126520C0AC
:10445300E074081211531244C4D0E0F0740812112E
:10446300531244BAE01249F5124A7612600FEE2451
:104473001112562AC0E01244B0D0E0F0EE24141218
:10448300562AC0E074081211531249CD2435F5821F
:10449300E438F583D0E0124A1AC0E07408121153CD
:1044A3001249D1D0E0126279740D023089E82432C6
:1044B300F582E439F58322123F29A3A3A3A3A3A37F
:1044C300221249E112671F38F583221249E124269B
:1044D300F582E438F5832274F71208977E008A8206
:1044E3008B83A3A3A3A3A3A3A3A3A3E06404600355
:1044F30002459C125307E0600302459C1251693B3D
:104503001251E5700302459C88828983E05403605D
:104513000302459CE812530F39F583E0FA8C828D30
:1045230083A3A3E0FBA3E0CB2411F582E43BF58353
:10453300E06A706588828983A3A3A3A3A3A3A3A32B
:10454300A31245A0E06A7003A3E06B704C888289D4
:1045530083A3A31245ACE0FFA3E0CF240612562A9F
:104563006A7003A3E06B703188828983A3A3E0F8A8
:104573008C828D83A3A3E0F9A3E0F5838982A3A3AF
:10458300E06860138C828D83A3A3A3E0F583898203
:10459300E0540C640470027E01EEF980201245A4FD
:1045A30022124BDD8C828D8322A3A31245A4A3A3E5
:1045B30022740C121153E0F9740D120E777F01026D
:1045C3000BBC74F612089774FC120F0BEAFEEBFF98
:1045D300ECFAEDFB8C82F583A3E05403601690168E
:1045E300D01251E760597900EEFCEFFD125E06121E
:1045F3000A81804B852182852283EEF0A3EFF0743C
:1046030002121153124A3CAC21AD227A9A7B1F123B
:1046130021C28A088B09A808A909EA4960218A826C
:104623008B83A3A3A3A3A3A3A3A3A37406F07A00DA
:1046330088828B831249CD125FCFE0F91221207457
:1046430004023F1174F212089774F3120F0BEAFE7F
:10465300EBFF8A82F583A3A3A3A3A3A3A3A3A3A38B
:10466300E0F50A901919E0700579BA0249857508D1
:1046730001750900750C00750D007C087D0079003B
:10468300AA21AB221216B874051211537401124AEF
:104693004F540460127402121153E0D2E6124A4FCF
:1046A30054087003750803E054106006744045080D
:1046B300F508E0540860227402121153E044C0125A
:1046C3004A4F5420600A7403121153E0D2E0800869
:1046D3007403121153E0D2E1F0EE241512562A129C
:1046E30049B57003740169700674084508F5088EAE
:1046F300828F83A3A3A3A3A3A3A3A3E07016122271
:104703001C85218285228312601C7402121153E0DE
:10471300D2E28030640F70107402121153124A57A0
:1047230074044508F508807F8E828F83A3A3A3A317
:10473300A3A3A3A3E064028E828F83700A126CEC9E
:10474300E8F0A3E9F08060A3A3A3A3A3A3A3A3E03A
:104753006403700DAC21AD22EEFAEFFB121FD08083
:10476300468E828F83A3A3A3A3A3A3A3A3E0640181
:104773007035901764E060107402121153124A5797
:10478300750910750AFF80187402121153E0440C66
:10479300124A4774FDF0A374FFF074044508F5084A
:1047A3008E828F83122F9CEE241512562AA2E0507C
:1047B3003F7402121153E0540C701B8E828F8312CC
:1047C3004BD5121C34E9700579BB0249857402127A
:1047D3001153E0D2E5F0EE241512562AA2E0501050
:1047E3007402121153E0540C64047004E0D2E5F037
:1047F300EE241112562AC0E07404121153D0E012B1
:104803006527121153E0600302497E7408121153A5
:10481300124A10E508F0A3E509F01249ABE0C0E045
:104823001249A1D0E0F0124992E0C0E074081211DD
:10483300531249CD12435238F583D0E0124A7664BD
:10484300017011901764E0C0E0740812115312490B
:10485300EBD0E0F07408121153124A0B12499CFA80
:10486300E8241CF582E439F583EA124A42EE241562
:10487300FAE43FFB8A82F583127513E8125966390D
:10488300F583124A3CEE241C12562AC0E0124988D2
:10489300D0E0125AAC1249B57003740169701374F5
:1048A300081211531252F7FAEE241D12562AF91266
:1048B3001EA48E828F83A3A3A3A3A3A3A3A3A3E076
:1048C300C0E074081211531244CED0E0F074081201
:1048D30011531244C4E50AF0740812115312518A99
:1048E3002428F582E439F583E50CF0A3E50D124A9B
:1048F300221249F51256A312600FEE12499CC0E032
:10490300E82433F582E439F583D0E0F0EE241B127A
:10491300562AC0E074081211531249D1D0E0F0EEC8
:10492300241A12562AC0E074081211531249CD24D6
:1049330032F582E438F583D0E0124A1A1249C112E3
:104943000E60126725127513740B1211531249CDA1
:10495300242F1279EF120E77EE241512562A5440A3
:1049630060129016F01251E7600AAA21AB22125E80
:1049730006120A81AA21AB22122042740C1211538F
:10498300E0F9024CBCE82420F582E439F58322EEF9
:104993002419F582E43FF58322126734E022E824E8
:1049A30012F582E439F58322EE2418F582E43FF50B
:1049B30083225480F8A3E05401F974806822F50837
:1049C300A3E0F509750A007808221249E122124989
:1049D300E12434F582E438F58322A3A3A3A3124987
:1049E300E522E0F8A3E0C8221249E112432138F599
:1049F3008322FAA3E0FBE8242AF582E439F583EA6B
:104A0300F0A3EB22A3A3A3A3123F1FEE2212518E06
:104A130012516E39F58322F0EE24131256AB22F0B5
:104A2300EE240D1256AB22E0FC8A828B83E02CFC31
:104A3300A3E03400FD8A828B83ECF0A3EDF022F037
:104A4300A3E4F022F085218285228322F0EE24154F
:104A53001256AB22E0D2E3F0124A5F228E828F839A
:104A6300123F23852182852283E8F0A3E9F022E81F
:104A7300F0A3E9126162E02274F71208978A828B2D
:104A830083A3E0640170047E6380027E648A828B68
:104A930083E060087905124AAF24F3FE90170CE017
:104AA3006007F9124AAF24F2FE02459C1220EAE99C
:104AB300F8EEC3982274F612089774FE120F0B8552
:104AC300218285228312601CE9FEECFAEDFB900340
:104AD300811251E76032A821A92288088909780840
:104AE300120E647D01740E121153E0FCEEF9900373
:104AF30081125FF0120A817402120E77EA4B60048E
:104B03007900800679B2800279B6023F0F74F712FA
:104B13000897E9FE9016C61251E7601F7409121137
:104B230053E0F5087808120E68EEF99016C6125F86
:104B3300F0120A817401120E77800279B60245C021
:104B430074F71208978908ECFEEDFF79B5E50824A0
:104B53005E602014600624F86034803D9003831265
:104B63004B9F6035126D30120A818E828F831260E3
:104B73001C80249016C8127513EC4D601CEEFCEFDC
:104B8300FD9016C8125FF0120A81E9F9800B9016A6
:104B9300C4124BA512186879000245C0124BD9EA1A
:104BA3004B22127517EEFAEFFB2274F7120897E9FE
:104BB300FE79B574AB6E700B9016C4124BD51218F8
:104BC3006879000245C08E828F83A3A3A3A3A3A306
:104BD300A3A3124BD922124BDD22E0FAA3E0FB225E
:104BE30074F1120897EAFEEBFF8C0A8D0B7508012E
:104BF300901714E06E7003A3E06F700C124CB0AA10
:104C03000AAB0B121868805E122222EE6A7002EF62
:104C13006B7009AA0AAB0B122228804AAC0AAD0BAF
:104C2300EEFAEFFB121D78E9F508901904E07036EF
:104C33001226B4E97030E508702C9016E4E06E702B
:104C430003A3E06F7020EE4F601C750CDC750D162E
:104C5300750E00780C120E607C087D00AA0AAB0B5F
:104C6300126CDC120E77A90802760F74F212089701
:104C7300EAFEEBFF8C088D09750A01124CB0EEFABF
:104C8300EFFB121862E964017011901714123F1BB5
:104C9300850882850983126CB5800EAC08AD09EED8
:104CA300FAEFFB121D7EE9F50AA90A8011122216FA
:104CB3008A0C8B0DAC0CAD0D22740D120E777F0692
:104CC300020BBC74F6120897EAFEEBFF7A0D7B0029
:104CD300121766EA4B6062EE24241269B9F0EE24DF
:104CE300251269B9A3124D7E1269BFA3A31267529D
:104CF300124D59F0EE124D3F124D6EE8F0A3E9123A
:104D03004D95124D66126CB5EE124D48126815A3FF
:104D1300A3A3A3F0EE243312562AC0E0124D51D0C0
:104D2300E0126544124D66A3A3A3E8F0A3E9124D74
:104D33008DC0E0125307D0E0F0023F14242AF5821D
:104D4300E43FF58322242EF582E43FF58322EA1221
:104D530057803BF58322124D5D22E08A828B83A329
:104D6300A3A322126874A3A3A3A322124D72221237
:104D73003F238A828B83A3A3A3A322F0124D832212
:104D8300EE2426F582E43FF58322F0EE2432125618
:104D9300AB22F0EE242C1256AB2274F41208977453
:104DA300FE120F0BECFEEDFFEC241612562A6405DF
:104DB3007010EC2406FCE43FFD121FCAE9700302E5
:104DC3004E49AC21AD22126A6E121C3A85218285AE
:104DD30022831251E7606B8E828F83E064017058E7
:104DE300E875F009A4F8AAF075F009E9A42AF974A2
:104DF3003D28F8740439F9E8FAE9FB8882F58378E9
:104E0300081210FCEE124EEB1210A04027852182EF
:104E1300852283124A0B125638124E4E780812100E
:104E2300FC90843D78081210248A828B83780812C0
:104E330010ED800A79A28010EE240F126CAF790076
:104E4300800679A1800279C8023087124A6CEE127B
:104E530067402274F21208978A0C8B0DECFEEDFF6B
:104E6300EC125638E4F0A3F09083E578081210FCB6
:104E7300EC124EEB120F4B6067EC240E125631709E
:104E83003478B390170BE0702890173DE0640170FD
:104E930020EC241112562AF91220D28B09A909EE0B
:104EA30012516A3F12601AEA49600478008002785E
:104EB300A18808802EE060046402700A121FDCE9F6
:104EC300F5087007801DE064037010EEFCEFFDAA87
:104ED3000CAB0D121C5EE9F50880087508A1800370
:104EE3007508A3A908024CC112674078082274F020
:104EF30012089774F5120F0BEAFEEBFFEA240AFC83
:104F0300E43F8C82F5831279B01251747403120E4C
:104F1300D58A828B83125E10E97003024FDA740123
:104F2300120ED57403120ECD121C3A7401121153D2
:104F33001251E77003024FDAE875F009A4F8AAF0FA
:104F430075F009E9A42AF9743928FC740439FDE5DC
:104F530008240E126261E4F004121153123F1BE5A0
:104F63000812516A3509126CB38C828D8312113089
:104F7300E508241212626112113C90843D780812F4
:104F830010FC8C828D8378081210378C828D837885
:104F93000C1210FC9083D578081210FC780C790859
:104FA300120828E5084509450A450B702A740112C1
:104FB300115312518A75F009A4F8AAF075F009E9A2
:104FC300A42AF9744128F582740439F5837401F035
:104FD3007A007B081251978E828F83A3A3A3A3A386
:104FE300A3A3A3A3A3E02406FCA3E03400FD8E82C5
:104FF3008F83125E10126532603EEE240A12515CFA
:10500300124A107468124A42E812515639F58374F1
:1050130002F09016F61211308C828D831260091201
:105023005BFB3CF58312113C90843D78081210FC25
:105033009016F678081210371251D2705D9016C48C
:10504300125182A3A3A3A3A3A3A3A3A3A3125C317B
:10505300121862E97010125BEF9016C4125C0170B3
:105063000512653260348E828F83A3A3A3A3A3A307
:10507300A3A3A3A3125182124BD5121C64E960119E
:105083008E828F83A3A3A3A3A3A31251BEE4F0A391
:10509300F08E828F831251A4E4F01251D260030286
:1050A30051518E828F83A3A3A3A3A3A31279AC90A0
:1050B300170BE0600302514690173DE06401600363
:1050C300025146750A3A750B00780A120E6474028F
:1050D300120EC5880A890B780A120E64126FAB127E
:1050E3000E77E9705BE508240E12626174011251B8
:1050F300ECC0E0E5082411126261D0E0F0E5082479
:105103000F126261743A124A429016F2121130E59C
:1051130008241212626112113C90843D7808121027
:10512300FC9016F2780812103790843D780812101C
:10513300FC9016F27808120F4B70081251938003FB
:105143001251741251D27006125AF274A1F0740BF8
:105153000268E4240EF582E422F8E43FF9E8FCE96E
:10516300FD8882F58322EA12516E22240FF582E430
:1051730022E50812516E3509F583E4F0A3F02212FB
:1051830075178E828F832212518E22123F23E822BB
:105193007A007B0290159DE0F912170C228A828B0C
:1051A30083A3A3A3A3A3A3A3A3A3A31251B22212D2
:1051B30049E5240EF582E438F58322A3A3A3A312C1
:1051C30051C6221249E5240FF582E438F583228E75
:1051D300828F83A3A3A3A3A3A31249DD240FF58284
:1051E300E438F58312518E49221251F022F08521C1
:1051F30082852283E02274F6120897EAFEEBFF7A97
:10520300237B00121766EE240AF508E43FF50985AF
:10521300088212601A7C237D0079001216B8850873
:10522300828509831251E770030252BAEEFAEFFB4B
:10523300121FE81251D260748E828F831252ED6472
:10524300018E828F83A3A3A3A3A3A370071252E3A8
:10525300740E80211251E77010126532700B8E822A
:105263008F83A3A3E0A2E050071252D9740D8005E7
:105273001252D97405126544540364017007125223
:10528300C17405800B90170CE0C0E01252C1D0E04E
:105293001252FCF58388821256578508828509834A
:1052A3001249CD125FAE38F583E9800E85088285F9
:1052B30009831260938003125FD6F0023F148E823B
:1052C3008F83A3A3A3A3A3A3A3A3A3A31252D32212
:1052D300E0125FF5A3228E828F83A3A3A3A3A3A3CC
:1052E3001249DD125FB438F58322A3A3A3A3A3A3BA
:1052F300A3A3A3A31251B2E02212530022126A8382
:10530300F8A3E022EA12530F3BF58322240CF58223
:10531300E42274F112089774E4120F0B8A0C8B0DBC
:105323008C088D097A237B001217668A0A8B0BAED1
:105333000AAF0BEA4F7003025612125FBAE5082454
:1053430015125643687003A3E0698E828F8370043D
:10535300740280027401F0E508240DF8E43509F9BC
:105363008882F583E0FAC3E49AFA95E0FB12563F8C
:105373002AFAA3E03BFB8E828F83A3A3A3A3125C31
:10538300188E828F83A3A3F0EE2420F582E43FF5E9
:1053930083E4F0EE2421F582E43FF583E4F0EEFAB2
:1053A300EFFB12209C85088285098312565E7009E3
:1053B3008E828F83A37405800690170C12564CF0CF
:1053C300EE2417F50AE43FF50B8E828F83125657AE
:1053D300E9850A82850B83F0EE2416F8E43FF9E5AC
:1053E30008240EFAE43509FB88828983124A2AE5E8
:1053F300082410FAE43509FB850A82850B83E0FC57
:1054030088828983E0F88A828B83E0C398C39CF8FF
:10541300125698F0EEFCEFFDAA0CAB0D121FE2E959
:10542300F50B8E828F83E064027006125BEF1256D7
:105433001CE50B6003025609750C00750D009019ED
:1054430004E064016005E06402703F12562E6008B8
:10545300EE242112563170328E828F83A3A3A312BE
:105463005FDC125664EE241612562A12568DFAE4A5
:1054730039FB123D1CEA4B601112683E120E60129A
:105483005672AA0C126CDC120E77EEFAEFFB1220A6
:10549300A8E9F50B901904E064016008E064026078
:1054A300030255FCE970030255FCE50C450D70033E
:1054B3000256098003850E0B12562E600BEE242133
:1054C3001256316003025602850B0E850C08850DBA
:1054D30009750A007808120E601256728E828F8345
:1054E300A3A3A3A31279F5120E77EE242012562A52
:1054F300600D1256377468124A42EE24208015EE6E
:10550300242112562A60151256377403F0A374012E
:10551300F0EE2421F582E43FF583E4F0EEFAEFFBAD
:105523001220A8E9F50B70907C137D0079007409B3
:10553300120ECD1216B8741A12115374011256A317
:1055430064687002A3E0704F8E828F831251BEE0B5
:10555300640560030254B87C0879FF8E828F83A3AD
:10556300A3A3A3E0242A125C34121742E9700302B6
:1055730054B87C087D0079FF7401120ECD1216B861
:105583007401120ED57A007B0079AB121FC4741913
:1055930012115374FC8015125637E064037004A390
:1055A300E064017008741912115374FFF0E4F508F4
:1055B300F5097808120E647402120ED574131211D1
:1055C30053AA82AB83126119120E77852182852239
:1055D30083E0602B7409120EC588088909780812C4
:1055E3000E647508137509007808120E647C007D3B
:1055F3000012698C120E778006E50C450D6007AA30
:105603000CAB0D12176CEEFAEFFB12176C800375DF
:105613000B10A90B741C02760CEE2406FAE43FFB74
:1056230012186822EE240C1256AB22EE24201256D6
:10563300AB640122EE12516E3FF58322E508240E7E
:10564300F582E43509F583E022125651A322E08E58
:10565300828F8322A3E0F91220EA22E0540364013B
:105663002212566822E0FAE82AF8E43400F9228E7E
:10567300828F83A3A3A3125FE0125668EE2416124F
:1056830056AB12568DFCE439FD22FAE82AF8E439C8
:10569300F9E824042212569C22126553A3A3A322E1
:1056A300F01256A822EE240FF582E43FF583E022A0
:1056B3007901020E0C74F4120897EAFEEBFF8A825A
:1056C300F583A3A3A3A3A3A3A3A31249CD2424F5E2
:1056D30082E438F58312565E702E8A828B831252CF
:1056E300ED7025125786E06405701D125786A3E0FE
:1056F300F8740168600574066870071251A074029B
:1057030080051251A07403F0EA240A126087125F25
:10571300F0E4F0EA2408F8E43F1230762431F5820D
:10572300E43AF583E0C0E0126D27A3A3D0E012575B
:10573300A5CA242EF582E43AF583E0C0E0126D2772
:10574300A3A3A3D0E0125CCBC812578038123F1931
:10575300126D2712579A8A0A8B0BAC0AAD0B850878
:1057630082850983125C3112186885088285098352
:10577300124BD51220A8126082F002308C240BF554
:1057830082E4228A828B83A3A3A3A3A3A3A3A3124A
:105793006519F583888222A3A3A3A3124A6C12225C
:1057A3001622125C0DFAA3E0220256B3C082C08314
:1057B3009016E674EEF0A3741FF09016E874FAF0F6
:1057C300A3741FF09016EA7400F0A37420F09016EF
:1057D300EC74F4F0A3741FF0025AB674F412089731
:1057E300EA2408FEE43BFF8E82F58312518A125F9E
:1057F300C6E0F50874035508F509125C2CF8A3E01C
:105803008882F583E508F0A3A882A983E5096009E6
:105813007402650960030258CB740C5508FC600AD6
:1058230074086C600574046C702674026509700654
:10583300E508A2E4401A8A828B83A3A3A3A3A3A3AC
:10584300A3A31259D112671F3D12596CA308A98350
:10585300740C6C701C1259CD24281259B92428F5E4
:1058630082E43DF583A312634DF0E82402F850016E
:1058730009740265097006E508A2E4404B1259CD8C
:10588300242A1259B9242AF582E43DF583A3125937
:105893007B1259D712634D1259D7A3125973E824B7
:1058A30004F8500109EC600F74086C600A740C6C06
:1058B300600574046C7011125FFD2426F582E43CCC
:1058C30012596CA3A882A9838A828B83A3A3A3A35F
:1058D300A3A3A3A312599B54037014E508A2E140A8
:1058E3000E125FFD1259663CF583E0548060081286
:1058F300598112596E80199016BAE0C0E01259818D
:10590300D0E01259AE888289831259AE04125C1218
:10591300A3A882A983E508A2E750458E828F83124C
:10592300599B888289831259B41259A05403603059
:10593300125FFD2434F582E43C12634BF0E508A2C8
:10594300E1501D8A828B83A3A3A3A3A3A3A3A312C2
:10595300307B2435F582E43A12634BA3F0E8240349
:1059630002308C241EF582E422F58312597BF02247
:1059730012597BA3A3A3F022E088828983228A821F
:105983008B83A3A3A3A3A3A3A3A3E0FCA3E0CC249F
:1059930032F582E43CF58322E01259A022FCA3E015
:1059A300CC2425F582E43CF583E022F09016BAE09E
:1059B3002212654FE022F582E43DF58312597B12F2
:1059C30059C6221265531259D1228E828F83E0FD6C
:1059D300A3E0CD22A31259C6242CF582E43DF5831E
:1059E30022C082C0838A828B83125AA6FC74035C12
:1059F300F98A828B83A3A37401F0E96005740269B9
:105A03007061740C5CF8600A74086860057404685B
:105A130070137402697005ECA2E440098A828B83D7
:105A2300A3A37402F0740C68700A8A828B83A3A305
:105A3300E02402F07402697005ECA2E440258A8236
:105A43008B83A3A3E02404F0E8600F740868600A62
:105A5300740C68600574046870098A828B83A3A33D
:105A6300E004F0ECA2E7502A8A828B83A3A3E0042C
:105A7300125AAC123585E0540360178A828B83A3D4
:105A8300A3E004F0ECA2E150098A828B83A3A3E094
:105A930004F08A828B83A3A3E004F080168521821D
:105AA3008522831252D3A3E022F08A828B83E022E1
:105AB300120E77D083D082020E0CC082C0838A82FA
:105AC3008B83A3A3A3A3A3A3A3A3A3A31251E760BD
:105AD300098A828B83A3A3125ADF80D7A3A3A3A32C
:105AE300A3A3A3A3125AEB22124BDD12176C2212AB
:105AF3005AF622EE240CF582E43FF5832274F61263
:105B0300089774F4120F0B125C3BFCA3E0F5838C33
:105B130082A3E0C0E07402121153D0E0125CE912D8
:105B23005CD27404121153126CB57402121153E057
