:020000040000FA
:060000000210360205E4C7
:03002B00020D982B
:030033000209A718
:0300530002051390
:03006B0002095C2B
:03007B00020985F2
:1000830002057501010000000000F8FF07FFFF00F3
:10009300000504000000030001FF0020FD0002062C
:1000A300FFFF1E1410270000381900000000000095
:1000B300000000000000000000000000000000003D
:1000C300FFFF14010400002717000000E8030000ED
:1000D300FFFF78170188130000E803000064006441
:1000E30000B801A0BB0D00A0BB0D00020202070473
:1000F30001051E02051E020A0A010108080103B8D0
:100103000B02803E0102FEFFE8030A050001FFFF28
:10011300020A011401E002000000050301010F03BC
:1001230000030003000300030003000300030003B4
:100133000005000A00140028004F009E0000006D17
:100143002C00000000412B00000000FF000000FF16
:10015300001210556046121046603DE9687008F6BB
:1001630018F618F618F622748067F7120188090941
:1001730009748067F722121046601D12105570052E
:10018300191919801A120F25701F120EE9C3700373
:10019300E667331919194007181818220808087454
:1001A300FFF618F618F618F622120EE96017121069
:1001B300E3702192F01210EC7019501720F014081C
:1001C3000808090909E7F61819E7F61819E7F618F0
:1001D30019E7F6221210EC60E6E869701F0808E6DA
:1001E3002480F608E436F618547FB47F0CE6548076
:1001F3006007F6E418F618F622181822E9C6CC08A8
:10020300C6CD08C6CE08C6CFC0E0E8C0E0EAC0E06D
:10021300EBC0E009E9F809E7FA09E7FBE6F918E6B4
:10022300F8C3EC98ED99EE9AEBC2E7F5F0EFC2E76D
:1002330095F0500E600CEBCFFBEACEFAE9CDF9E86E
:10024300CCF8EAA2E7D2E7FAEB33FB13F5F0EEA220
:10025300E7D2E7FEEF33FFC5F013A2E730E601B3C1
:1002630013C5F0C3C0E0C0F07F00C39BFB605E9486
:1002730018600F401D14601AD0E023F9D0E0F80293
:10028300035A8AF0E9486003D2F0E4AFF0FAF9F8D0
:10029300803BEB30E40D89F0EA6003D2F0E4AFF089
:1002A300F9CAF8EB30E30D88F0EF6002D2F0AFF05B
:1002B300E4CAC9F8EB54076014FBC3EA13FAE91361
:1002C300F9E813F8EF135002D2E0FFDBEDD0E0C002
:1002D300E030E739C3E49FFFF5F0EC98FC42F0ED22
:1002E30099FD42F0EE9AFE42F0D0E0F9D0E0F8E555
:1002F300F0607AE923F9EE20E742D8028067C3EF82
:1003030033FFEC33FCED33FDEE33FE80EAEC28FCE7
:10031300ED39FDEE3AFED0E023F9D0E0F84002805B
:100323001BC3EE13FEED13FDEC13FCEF135002D2CF
:10033300E0FF08B800067F7F74FF802EEF3350176D
:100343008CF020F00260100CBC000C0DBD00080EF8
:10035300BE000408E860DFE933E813FFEE2313FE71
:100363004F4D4C8008E95480FFE4FEFDFCEE33EF73
:1003730033F47004FCFD7E80D0E0FBD0E0FAD0E0E3
:10038300F8D0E0CFC618CEC618CDC618CCC6F92211
:1003930000121046604F1210556012E7548066F643
:1003A300120F2570111210E3703B090909F4F618B6
:1003B300F618F618F622120EE970151210EC08085A
:1003C3000860EAE6447FF618768018E4F618F62209
:1003D3001210EC60161210E37012E4F608F608F639
:1003E30008E65480F609090918181822EAC0E0EB58
:1003F300C0E0ECC0E0EDC0E0E687F0A4FBACF008A1
:10040300E687F0A42CFCE435F0FA1809E687F0A49B
:100413002C4B60027401CA35F0FCE433FB09E68718
:10042300F0D2F7A42CCB35F0FC1908E687F0A42B07
:10043300CC35F0FBE433FD0819E687F0D2E7A42CB2
:100443004ACB35F0CD3400FC09E687F0D2E7A42D82
:10045300CC35F0FDE433FA0918E687F0D2F7A42C83
:10046300CD35F0CA3400FC08E687F0D2E7D2F7A412
:100473002ACC35F07A7E20E70B0ACB33CBCD33CDB4
:10048300CC33CC33CB3350147004ED30E00ED2F1C7
:10049300E4CD3DCDCC3CCC3B5005DA05C2F1EB5469
:1004A3007FC63308E63392F0FBE73309E733C39A99
:1004B300502D2B70190C0D4C4D70151806E608C302
:1004C30033700D20F10AA2F013F6E418800B4024D8
:1004D300E4F630F002768018F618F618F68024D386
:1004E3003B14501074FFA2F013F6187680E418F64C
:1004F30018F6800FA2F013F618E63303F618ECF69D
:1005030018EDF6D0E0FDD0E0FCD0E0FBD0E0FA221D
:10051300C0E074F11208FDA2AFE433F509D2AF8550
:10052300A708AFA1EF5508FE74105E60061213B062
:1005330075A1EF74085E60081213B675A1F78024E5
:10054300EFA2E092F0E508A2E082F05017906198E4
:10055300E0F890040EE0C398A2D265D0335002E8CD
:10056300F075A1FE752300E509A2E092AF7F0202B8
:100573000A18C0E074F21208FDA2AFE433FED2AF52
:100583009061A4E0F8759B00E591585408600875E4
:1005930091F71214048023E5915854106008759163
:1005A300EF12140A8014E591A2E092F0E8A2E0822F
:1005B300F05007E0C2E0F01215609061A3E0F8E5A7
:1005C300E9585404600E12153675E9FB906193E007
:1005D300A2E640F2752300EEA2E092AF7F01020A89
:1005E30018C0E074F21208FDA2AFE433FED2AF905C
:1005F30061A5E0F8E5BF585404600675BFFB12150A
:100603007880D1C3E498F8E499F91206478026C3A9
:10061300E49AFAE49BFBE920E7E9120647E498F839
:10062300E499F922C3E498F8E499F9120647E498A7
:10063300F8E499F9C3E49AFAE49BFB22EB20E7CFB1
:10064300E920E7E0B90010BB0008E88AF084F8AAC3
:10065300F022E4FBC8FA22EB70227B10C833C8C92E
:1006630033C9335007C39AC3DBF280069A50012A79
:10067300DBEAC833F4C8C933F4C9FA2275F008E4D5
:10068300C833C8C933C933C99AC99B5004C92AC9D5
:100693003BD5F0ECFBC833F4C8E4C9FA221206EBED
:1006A30030F03912073080341206EB20F01430E7B3
:1006B3002B74FFFCFBFA747F8022E4FCFBFA74804A
:1006C300801AB48008BC00F2BB00EF800F50EBF936
:1006D300E4C39AFAE49BFBE49CFCE499C6CC18C6F9
:1006E300CB18C6CA18C6F922E4C9C608CAC608CBBD
:1006F300C6D3330308CCC63392F0C3947F402E9401
:10070300184019C9B90704CACBCC225025C309CA5A
:1007130033CACB33CBCC33CC33D9F422F4600DC9F9
:10072300CCC313CB13CBCA13CAD9F6CC22E4FCFB3C
:10073300FA2214FCFBFA22080808EAC0E0EBC0E046
:1007430086F0E7A4FA180986F0E7A42AFA180986BE
:10075300F0E7A42AFA180986F0E7A42AFA1986F022
:10076300E7A4FBE5F02AFA190886F0E7A42BFBE5DA
:10077300F03AFA190886F0E7A42BFBE5F03AFA18E9
:10078300180986F0E7A4C5F02BFBE43AFA1908E749
:10079300C5F0C6A426F6E5F03BFBE43AFA1886F06A
:1007A300E7A4F6E5F00826F6E43B08F6E43A08F693
:1007B300D0E0FBD0E0FA22E4CFC0E0E4CEC0E0E436
:1007C300CDC0E0E4CCC0E075F020E626F608E633C1
:1007D300F608E633F608E633F6181818EC33FCEDA2
:1007E30033FDEE33FEEF33FFC3EC9709ED9709EECC
:1007F3009709EF97191919400FFFEC97FC09ED972B
:10080300FD09EE97FE191906D5F0BFECF709EDF7D0
:1008130009EEF709EFF7191919D0E0FCD0E0FDD084
:10082300E0FED0E0FF222521C582C0E0E52234FFAF
:10083300C583C0E0E521C3958224F810AF08858302
:10084300228582218008858322858221D2AFCEF042
:10085300A3E520F0A37808E608F0A3DEFAEFF0A3FF
:10086300E58124FAF8E608F0A3E608F0A3E608F029
:10087300A30808E608F0A3E608F0A315811581D0C4
:10088300E0FED0E0F8158115811581E8C0E0EEC0E7
:10089300E0221210CEB900030208E7E490030178C6
:1008A3001379188002F0A3D8FCD9FA782390008634
:1008B3007A01BA00028007E493A3F608DAF97A13FF
:1008C3007B1A90008778CE79018015E493A3AD82DB
:1008D300AE838A828B83F0A3AA82AB838D828E83BD
:1008E300D8E9D9E77582177583FE7401120D7A75FD
:1008F300829C7583277400120D7AC0D02521C5828E
:10090300C0E0E52234FFC583C0E0E521C39582241E
:10091300F310AF0885832285822180088583228591
:100923008221D2AFC8F0A3E9F0A3EAF0A3EBF0A3CE
:100933007908E709F0A3D8FAECF0A3EDF0A3EEF001
:10094300A3EFF0A3D0E0F0A3D0E0F0A3D0E0F0A3B6
:10095300E520F0A3E5F0F0A322C0E074F21208FD55
:10096300A2AFE433FED2AFE589547C60031212D800
:10097300538983C2C5752300EEA2E092AF7F0102C3
:100983000A18C0E0C0D0E8C0E0A8A8D2AFE58A85C5
:100993008A8AC2EB752300E8A2E792AFD0E0F8D0D1
:1009A300D0D0E032C0E0C0D0E8C0E0A8A8D2AFE524
:1009B3008B858B8BC2E880DCE9799EC608CAC608A2
:1009C300CBC608CCC6C370207996CACBCC70197934
:1009D3008ECBCC70137986CC700EF9802ACA33CAB9
:1009E300CB33CBCC33CC331930E7F2CCCBCA335037
:1009F300147004EA30E00DE4CA3ACACB3BCBCC3CDA
:100A0300CC500209C3E913C6CC182313C6CB18C6AE
:100A1300CA18C6F922852283852182E0C0E0A3E0BB
:100A2300F9A3E0FAA3E0FBA37808E0F608A3DFFA52
:100A3300E0FCA3E0FDA3E0FEA3E0FFA3E0C0E0A38E
:100A4300E0C0E0A3E0F5D0A3E0F520A3E0A3F5F038
:100A530010AF0885832285822180088583228582C1
:100A630021D2AFD082D083D0E0F8D0E03275F0103D
:100A73008E248F258582298583288521828522835B
:100A8300E0CEA3E0CF852982852883EBC9EAC8EDB0
:100A9300CBECCAC3E833C8E933C9EA33CAEB33CB77
:100AA300C3EA9EF527EB9FF526B35004AB26AA278E
:100AB300EC33CCED33CDD5F0DAAE24AF25221210D2
:100AC30046601C12105560171210EC70071210E3E9
:100AD3007001D322C0D01210E37006D0D0B322C36A
:100AE3002233D0D0501430E0F6C3E7960809E796D6
:100AF3000809E7960809E796B32220E0D5E69708A8
:100B030009E6970809E6970809E697B322D083D048
:100B130082ECC0E0EDC0E0E493A3FCE493A3FDED1D
:100B23004C600D120BE8EC24FFFCED34FFFD80EF6D
:100B3300E493A3FCE493A3FDED4C600D120C85EC50
:100B430024FFFCED34FFFD80EFD0E0FDD0E0FCE4BA
:100B530093A3C0E0E493C0E022852283852182E051
:100B6300A3FEE0A3F5207808E0A3F608DFFAE0A3EC
:100B7300FFE0A3C0E0E0A3C0E0E0A3C0E0E0A3C0C7
:100B8300E0E0A3C0E010AF088582218583228008BE
:100B9300858221858322D2AFD083D082020D80D07B
:100BA30083D082E9C0E0E493A3C386F0C5F095F057
:100BB300F908E493A386F0C5F095F0700BE493A3D2
:100BC300C3994005E9048002A3E475F002A42582D9
:100BD300F582E5F03583F583D0E0F9E493A3C0E033
:100BE300E493C0E022C0E0C3E493960874019396B3
:100BF30018400FE493667008087401936618700038
:100C03007019A3A3C3E49396087401939618A3A33E
:100C1300400DD0E0D0E0D0E0020B4CA3A3A3A3A3EC
:100C2300A3D0E0227404800474028000CCC0E0ED01
:100C3300C0E0E521C39CCCAD2250011D10AF068C52
:100C4300218D2280068C218D22D2AF120CFCD0E0A4
:100C5300FDD0E0FC2274028000CCC0E0EDC0E0E5F2
:100C630021C39CCCAD2250011D10AF068C218D22D7
:100C730080068C218D22D2AF120CDAD0E0FDD0E0B9
:100C8300FC22C0E0C0F088F0E493667008087401A9
:100C93009366187000A8F0A3A3700BD0F0D0E0D037
:100CA300E0D0E0020B4CA3A3D0F0D0E022D083D05D
:100CB30082CCC0E0E493A36006120D5B1470FAE4E7
:100CC30093A36006120E7F1470FAD0E0FCE493A3A2
:100CD300C0E0E493C0E022CAC0E0E493A3C582CCA1
:100CE300C582C583CDC583F0A3C582CCC582C58328
:100CF300CDC583DAE5D0E0CA22CAC0E0E0A3C5824D
:100D0300CCC582C583CDC583F0A3C582CCC582C5BE
:100D130083CDC583DAE6D0E0CA2270090808082229
:100D23006016181818C6C333C608C633C608C633B8
:100D3300C608C633C6D5E0EA22C008C3E096F50864
:100D430008A3E096420808A3E096420808A3E096A9
:100D530045087001D3D00822C0E0E493A3D39C508C
:100D630010E493A3C39C400AD0E0D0E0D0E0020C8F
:100D7300CDA3A3A3D0E022C09FF59FE473D09F220D
:100D8300D083D082C09FE493C0E0740193C0E07429
:100D93000293F59F22C0E0C0D0E8C0E0A8A8D2AF7C
:100DA300C2C7752300E8A2E792AFD0E0F8D0D0D055
:100DB300E0327404800A74038006740280027401B2
:100DC300C0E0F404120DEBD0E01210912200C0D069
:100DD300252110AF08F521500C05228008F521507C
:100DE300020522D2AFD0D0222521F58210AF08F51B
:100DF30021400C15228008F52140021522D2AF852F
:100E0300228322BB0102E722C082C08389828A83B4
:100E1300BB0003E08002E493D083D08222601608F3
:100E23000808C6C313C618C613C618C613C618C601
:100E330013C6D5E0EA22C3E0C696F608A3E0C69639
:100E4300F608A3E0C696F608A3E0C696F622252187
:100E5300F8E43522F9222521FAE43522FB22252163
:100E6300FCE43522FD22252110AF08F521400C15A5
:100E7300228008F52140021522D2AF22C0E0E4937C
:100E8300A36C7009D0E0D0E0D0E0020CCDA3A3D0D6
:100E9300E022E066701008A3E066700A08A3E0662B
:100EA300700408A3E06622C3E09608A3E09608A3B3
:100EB300E09608A3E096A2D265D03322C3E7960852
:100EC30009E7960809E7960809E796A2D265D033A1
:100ED30022E76670100809E766700A0809E766707A
:100EE300040809E76622191919E70947097009E790
:100EF30027097005E733F4220922C3E096F008A31B
:100F0300E096F008A3E096F008A3E096F022C3E68B
:100F130097F60809E697F60809E697F60809E697AB
:100F2300F622181818E60846087009E62608700520
:100F3300E633F4220822C3E49396087401939608D7
:100F430074029396087403939622E026F608A3E0AE
:100F530036F608A3E036F608A3E036F622E627F6CF
:100F63000809E637F60809E637F60809E637F622F0
:100F7300700422600D18C6C333C608C633C6D5E055
:100F8300F41822E056F008A3E056F008A3E056F068
:100F930008A3E056F022E657F60809E657F60809D3
:100FA300E657F60809E657F622E026F008A3E036EE
:100FB300F008A3E036F008A3E036F022E056F60886
:100FC300A3E056F608A3E056F608A3E056F622E699
:100FD30047F60809E647F60809E647F60809E6472B
:100FE300F622E4C396F608E496F608E496F608E4D7
:100FF30096F622600D08C6A2E713C618C613C6D517
:10100300E0F322C6F4C608C6F4C608C6F4C608C68A
:10101300F4C622C3E09608A3E09608A3E09608A3CB
:10102300E09622C3E7960809E7960809E7960809B8
:10103300E7962275D00075813F7521017522030063
:10104300020895E6084608C3134608336002E633F0
:10105300F422E7094709C3134709336002E733F46E
:1010630022600C08C6C313C618C613C6D5E0F42203
:10107300E6F008A3E6F008A3E6F008A3E6F022E012
:10108300F608A3E0F608A3E0F608A3E0F622CAC038
:10109300E0E6F0A308DAFAD0E0FA22E0FAA3E0FBF4
:1010A300A3E0FCA3E0FD22EAF0A3EBF0A3ECF0A3A2
:1010B300EDF022E0F8A3E0F9A3E0FAA3E0FB22E8D5
:1010C300F0A3E9F0A3EAF0A3EBF022E5C754F84458
:1010D30001F5C77901222521F582E43522F5832222
:1010E300E72719471947194722E6261846184618CD
:1010F3004622C2AF75D69F02000022120D8394D4FC
:1011030002120D83EDD702120D836BDA02120D83E7
:1011130017DB02120D8347DB02120D83ACDB0212D5
:101123000D8340DC02120D83F3DC02120D8344DDD8
:1011330002120D8388DD02120D8322DE02120D835B
:101143008FDE02120D83BEDE02120D83C4DF021294
:101153000D83E8DF02120D833CE002120D8310E1E0
:1011630002120D833BE302120D83E9E302120D83A6
:101173005EE602120D83E3E602120D835AE90212C0
:101183000D8390EB02120D83D4EB02120D832DED30
:1011930002120D8340ED02120D8385ED02120D83C1
:1011A30051EF02120D831BF304120D835AF3041241
:1011B3000D8310F001120D838CF001120D83BFF02B
:1011C30001120D83EDF001120D832BF101120D833A
:1011D30068F301120D8387F301120D83CCF301121F
:1011E3000D8362F401120D83AEF401120D8342F5F7
:1011F30001120D831BF601120D8377F601120D8385
:10120300D5F601120D8348F701120D838CF70112F5
:101213000D83E4F701120D8306F801120D8396F88E
:1012230001120D8327F901120D8373F901120D8346
:101233009FF901120D83E0F901120D8376FB011270
:101243000D8362FC01120D833DFD01120D83FEEB44
:1012530004120D8301EC04120D835FEC04120D8361
:10126300B3EC04120D83D5EC04120D83EBED0412E1
:101273000D83FCED04120D839AEE04120D83A5EE8B
:1012830004120D83BFEE04120D83F27F00120D834F
:10129300DBFF02120D83CEEE04120D83DEEE041289
:1012A3000D83F3EE04120D83A7EF04120D83F9E906
:1012B30004120D837DEA04120D83E5EA04120D8303
:1012C300C0E404120D83E8E404120D830BE5041259
:1012D3000D8380E504120D83CAE504120D83F5E541
:1012E30004120D830CE604120D831DFC02120D8300
:1012F3002BFC02120D83A4FC02120D837DFD02124E
:101303000D8340FF02120D8385FF02120D83AAFF96
:1013130002120D83F87F00120D83C8DF04120D83C0
:1013230000E004120D834EE104120D83D2E1041296
:101333000D83EEFF02120D83F1FF02120D83FDFFF9
:1013430002120D8376BB04120D83A2BB04120D831C
:101353000CBE04120D834CBE04120D8388BE04120E
:101363000D839CBE04120D83B5BE04120D83A7BF6B
:1013730004120D835AC004120D836EC004120D8330
:1013830054E304120D8378E304120D8391E30412F2
:101393000D83CFE304120D83FFE304120D832CE4CA
:1013A30004120D8336E404120D839CE404120D83AE
:1013B3009FE404120D83A9E404120D83B6E404121E
:1013C3000D83E3DA04120D8303DB04120D8342DB86
:1013D30004120D8360DB04120D837BDB04120D8387
:1013E300E1DB04120D83EDDB04120D834ADC0412EE
:1013F3000D8359DC04120D837DDC04120D833EDD65
:1014030004120D834BDD04120D835CDD04120D8386
:10141300A4F204120D83ECF204120D8318F30412E8
:101423000D83C4C004120D831EC204120D832CC28B
:1014330004120D833FC204120D8354C204120D83A0
:1014430069C204120D837CC204120D83F8C2041214
:101453000D835DC304120D83E5C304120D835DC4C4
:1014630004120D8336C504120D8346C504120D8381
:1014730055C504120D8309F104120D832DF10412D5
:101483000D8355F104120D837DF104120D837FFD4D
:1014930003120D83A6FD03120D83C4FD03120D83F6
:1014A30033FE03120D8310D804120D8329D80412BE
:1014B3000D8335D804120D8349D804120D8367D8E0
:1014C30004120D8371D804120D837BD804120D838B
:1014D3008ED804120D8314D904120D8389D90412F2
:1014E3000D83B8D904120D8306DA04120D8355DA7D
:1014F30004120D8370DA04120D837ADA04120D8359
:101503008BDA04120D83CEDA04120D8390F30412E6
:101513000D83DBF304120D8344A504120D8370A520
:1015230004120D838DA504120D83A0A504120D834F
:10153300BBA504120D8315A604120D8343A6041242
:101543000D8353AA04120D83B1AB04120D83E3ABD5
:1015530004120D8346AC04120D83B2AD04120D8345
:10156300DAAD04120D83EFAD04120D83FFAD041247
:101573000D833FAE04120D8381AE04120D8391AE31
:1015830004120D83C9E804120D83E3E804120D83EA
:101593000BE904120D8324E904120D8348E90412B4
:1015A3000D8366E904120D837DE904120D83ABE913
:1015B30004120D83C6E904120D83ADEF04120D83EB
:1015C300F1EF04120D8370CE04120D8380CE04124A
:1015D3000D8385CF04120D83B7CF04120D83E7CF9C
:1015E30004120D830AD004120D8321D004120D833B
:1015F3005BD004120D83C0D004120D8302D10412F8
:101603000D8349D104120D8376D104120D83A1D128
:1016130004120D8322E604120D8334E604120D83B3
:1016230048E704120D834BE704120D83FDEC04120B
:101633000D8333ED04120D834BED04120D838DEDF9
:1016430004120D839DED04120D83E1ED04120D834D
:10165300C1AE04120D8304AF04120D8369AF0412EB
:101663000D8388AF04120D832AB004120D8333B0A7
:1016730004120D8384B004120D83ADB004120D83E4
:10168300BAB004120D832CB104120D83BAB1041243
:101693000D83FFB104120D8338B204120D839DB282
:1016A30004120D83C6B204120D833DB304120D83DD
:1016B3008CB304120D83C9B304120D83FEB3041259
:1016C3000D8310B404120D8322B404120D8341B4AC
:1016D30004120D834AB404120D830BB504120D8357
:1016E3004EB504120D838CB504120D8378E70412F2
:1016F3000D83B8E804120D83E7F304120D838ADD2A
:1017030004120D83C0DD04120D8308DE04120D8361
:1017130061DF04120D8378DE03120D839EDF031253
:101723000D83DADF03120D8398E103120D83C6E103
:1017330003120D8330E403120D8370E403120D834F
:1017430012E603120D83A8E603120D8302E70312C8
:101753000D8392E703120D83D6E703120D8318E876
:1017630003120D837DE903120D83FDEA03120D833A
:101773003EED03120D836CED03120D8398ED0312FE
:101783000D83A1ED03120D83FEED03120D8397EE7E
:1017930003120D83AEF103120D8334F203120D8392
:1017A3005FF004120D8377F004120D8381F00412AD
:1017B3000D83D7F004120D8300CA04120D8316CAD9
:1017C30004120D83B7CA04120D83F6CA04120D83E3
:1017D30013CB04120D8344CB04120D8391CB04125B
:1017E3000D83C5CB04120D8300CC04120D83FDCDF4
:1017F30004120D8363CE04120D83FEEA04120D83DB
:101803005DEB04120D839BEB04120D83DCEB0412DE
:101813000D83008002120D830C8002120D836E80F3
:1018230002120D83788002120D83078102120D8349
:10183300438102120D833C8202120D8399820212AC
:101843000D83278302120D83788302120D83F8839D
:1018530002120D83BA8502120D83BF8702120D8314
:10186300B98802120D83EB8902120D833D8C02129B
:101873000D83808D02120D83258E02120D83D39268
:1018830002120D83C99302120D835F9402120D831A
:10189300849402120D83219502120D833E95021248
:1018A3000D835E9502120D83CC9502120D83E9958B
:1018B30002120D83179602120D83AF9702120D8346
:1018C300D09702120D83769802120D83BE980212EE
:1018D3000D831C9902120D83BF9902120D83249A62
:1018E30002120D83839A02120D83359B02120D831C
:1018F300A49B02120D83DF9B02120D83539C0212E1
:101903000D839E9D02120D832E9F02120D83CD9F88
:1019130002120D830DA202120D836FA202120D8318
:101923009DA202120D83C0A402120D836AA70212A4
:101933000D837DA802120D83699004120D837390A9
:1019430004120D83BA9004120D83A59204120D8321
:10195300C59204120D83E59204120D833094041290
:101963000D83D59504120D83C49804120D835199E8
:1019730004120D83999A04120D83D5E104120D8389
:1019830082E204120D8324E304120D83B8B504121A
:101993000D8345B604120D83BEB604120D8359B7E9
:1019A30004120D837AB704120D834EB804120D830B
:1019B300C8B904120D8347C903120D8376C90312F4
:1019C3000D83EEC903120D83FDCA03120D8359CB98
:1019D30003120D83C6CC03120D83E2CC03120D83D5
:1019E30034CD03120D8377CD03120D838ACD0312F9
:1019F3000D83E2CD03120D83A4CE03120D8320CFFA
:101A030003120D8357CF03120D838FCF03120D8360
:101A130021D103120D8300D203120D834ED303127F
:101A23000D8331D403120D83BDD403120D83FDD472
:101A330003120D831CD503120D8367D503120D8387
:101A430087D503120D8320D603120D83A6D6031266
:101A53000D8301D703120D8341D703120D83D7D909
:101A630003120D83F0DA03120D8336DB03120D83A9
:101A73002BDC03120D8353DC03120D8356DC03129C
:101A83000D8360DC03120D837CDC03120D83F6DC13
:101A930003120D832FDD03120D835BDD03120D8310
:101AA30082DD03120D83A6DD03120D8317DE0312FD
:101AB3000D832ADE03120D8359DE03120D8325F2F3
:101AC30004120D8331F204120D836FF204120D839D
:101AD300EF7F00120D8318B303120D833BB3031280
:101AE3000D8388B403120D83D1B403120D833DB566
:101AF30003120D839BB503120D839EB503120D8351
:101B0300EFB503120D8364B603120D83E9B6031216
:101B13000D83ECB603120D836DB703120D83AEB7BD
:101B230003120D839ABB03120D8344BD03120D836D
:101B330094BD03120D831BC103120D834EC2031206
:101B43000D83C8C303120D8365C403120D8350C5EF
:101B530003120D83A5C703120D83008004120D83A6
:101B6300AA8004120D83158104120D8311A104129E
:101B73000D83B58104120D830F8204120D835682E7
:101B830004120D83BD8204120D833C8404120D8361
:101B93006B8504120D83F38504120D83FC870412F5
:101BA3000D83A98804120D834D8904120D831E8AA7
:101BB30004120D83D98B04120D83718D04120D83CE
:101BC300048E04120D832A8F04120D8300800312E6
:101BD3000D83638003120D83AB8003120D83EF80AB
:101BE30003120D834A8103120D83E8D302120D837E
:101BF300E28103120D83648203120D83BE820312FA
:101C03000D833C8403120D83BC8403120D8317855B
:101C130003120D83318503120D83528503120D8345
:101C2300AC8503120D83288803120D8347880312A2
:101C33000D83378903120D836A8A03120D83E98AA0
:101C430003120D83258B03120D83948B03120D83D3
:101C5300498C03120D83218E03120D83288F0312E7
:101C63000D83A09003120D83969203120D830C959E
:101C730003120D83E69603120D83A79703120D83B8
:101C83001F9803120D83369803120D832D990312A7
:101C93000D83219A03120D83909A03120D831ED58F
:101CA30004120D8375D604120D8334D704120D83E9
:101CB3009CD704120D83F9D104120D8314D204129C
:101CC3000D8358D204120D837ED204120D83A5D244
:101CD30004120D83BDD204120D835FD304120D834E
:101CE30074D304120D8397D404120D83A0D4041269
:101CF3000D83A9D404120D83B2D404120D83BCD472
:101D030004120D8386C504120D8392C904120D8338
:101D130097C904120D8399C904120D8389FE011218
:101D23000D83C37F00120D838B7B00120D83BDFFD8
:101D330002120D83A2F104120D83CCF104120D8360
:101D43009EAC02120D83D1AC02120D833DAD021283
:101D53000D83D8AD02120D8375AE02120D83BAAE98
:101D630002120D83DCAE02120D83F5AE02120D8357
:101D73001BAF02120D833DAF02120D837BAF021224
:101D83000D83BFAF02120D83E1AF02120D8343B087
:101D930002120D830AB102120D83C1B102120D8327
:101DA30033B202120D83FEB202120D8351B302123B
:101DB3000D83B7B302120D83F1B302120D8343B443
:101DC30002120D83B1B402120D831CB502120D83EE
:101DD3001FB502120D83A0B502120D8337B602128E
:101DE3000D83B7B602120D83D6B602120D833AB82D
:101DF30002120D8347B802120D8353B902120D83E9
:101E030060B902120D8369B902120D8341BB02123C
:101E13000D835BBC02120D83D4BC02120D8346BD3D
:101E230002120D8368BD02120D83FCBD02120D83E5
:101E3300D0BF02120D83A7C302120D83BBC30212CC
:101E43000D83CBC302120D83D5C302120D83DEC3F0
:101E530002120D83E7C302120D83F1C302120D8335
:101E63001EC402120D8347C402120D8352C4021210
:101E73000D8376C402120D839AC402120D8304C526
:101E830002120D834AC502120D8367C502120D8328
:101E9300E4C502120D831BC602120D835AC6021239
:101EA3000D83A7C602120D832DC702120D83FBC833
:101EB30002120D837EC902120D8362CA02120D83C0
:101EC300C9CC02120D8322CD02120D836CCD0212F6
:101ED3000D83C7CE02120D83FCCE02120D834ECFAB
:101EE30002120D8303D002120D83B2D002120D83AE
:101EF300EFD002120D8384D102120D83F0D10212AE
:101F03000D83CE2E00120D83002F00120D832E2F72
:101F130000120D83043100120D83E43100120D838E
:101F23003C3200120D83773300120D83C33300124A
:101F33000D83EC3600120D83DF3900120D832F3B26
:101F430000120D83C53B00120D83D13B00120D839C
:101F5300033C00120D83863D00120D83373F0012B0
:101F63000D83CB3F00120D830E4000120D838C4076
:101F730000120D83A94000120D83D94000120D8376
:101F83000E4100120D83DE4100120D8387420012C1
:101F93000D830D4500120D832D4600120D83184746
:101FA30000120D839A4700120D83CE4B00120D834E
:101FB3000B4C00120D83634C00120D83964C0012E0
:101FC3000D83004D00120D83364D00120D83C14D5C
:101FD30000120D83194E00120D83F04E00120D8373
:101FE300A94F00120D83445000120D834C5300126D
:101FF3000D83685400120D830B5800120D83FF5894
:1020030000120D83025900120D83315900120D8302
:10201300375B00120D83105C00120D83535C0012BA
:102023000D83A95D00120D83E85D00120D83715EBF
:1020330000120D83A55E00120D836A5F00120D83EB
:10204300826100120D83F36100120D83336200126B
:102053000D83C16200120D83E36300120D83A56437
:1020630000120D83AC6600120D83C46600120D834B
:10207300D86600120D83106700120D833E670012AD
:102083000D83BD6800120D83E26900120D833F6A60
:1020930000120D83F16A00120D83186B00120D8379
:1020A300DF6B00120D83776C00120D839D6E00129F
:1020B3000D83D26E00120D83356F00120D83647091
:1020C30000120D830C7100120D833D7100120D83FC
:1020D300557100120D83E47100120D839874001280
:1020E3000D83707600120D838C7600120D83A87613
:1020F30000120D83767700120D83697B00120D8326
:102103002E8601120D83608601120D834F8A011200
:102113000D839B8A01120D83E18A01120D83838B48
:1021230001120D83DF8B01120D83248C01120D83A9
:102133006B8D01120D837F8E01120D836E9201123E
:102143000D83F29201120D83FF9301120D835B94B1
:1021530001120D834B9601120D83C09601120D835C
:10216300CA9601120D83D79601120D8302970112AD
:102173000D83E99701120D83939801120D83119931
:1021830001120D83319901120D835A9901120D83A6
:102193007C9901120D83DC9B01120D83A29C011219
:1021A3000D83E79C01120D83649D01120D83159E1F
:1021B30001120D83479E01120D838D9E01120D8323
:1021C300C99E01120D83199F01120D836D9F011288
:1021D3000D83C39F01120D830FA001120D837CA0F9
:1021E30001120D83F7A001120D83C2A201120D8308
:1021F300C2A301120D83E7A401120D8326A80112C5
:102203000D8339AB01120D83F6AB01120D833AAC8A
:1022130001120D83EAAD01120D83FEAD01120D8390
:1022230008AE01120D8312AE01120D831EAE011210
:102233000D833AAE01120D83E5AE01120D8324AF77
:1022430001120D832EAF01120D8338AF01120D83DE
:10225300A8AF01120D83F3AF01120D8308B1011270
:102263000D8364B101120D83E5B101120D83A4B294
:1022730001120D83ADB301120D83E1B401120D837D
:10228300CFB501120D83E7B501120D8342B60112DA
:102293000D8360B601120D83A8B601120D83CFB66C
:1022A30001120D836AB701120D8330B801120D8339
:1022B300C2B801120D833CB901120D8356BA011243
:1022C3000D8303BB01120D832BBC01120D837BBC59
:1022D30001120D83DFBC01120D8341BD01120D8379
:1022E3006FBD01120D8393BD01120D83C8BD011291
:1022F3000D83F9BD01120D832CBE01120D834CBE5B
:1023030001120D83B4BE01120D83A8BF01120D8308
:1023130003C001120D832CC001120D83B4C001123E
:102323000D8337C101120D8362C101120D8347C2B0
:1023330001120D8308F102120D8340F102120D8385
:1023430061F102120D83A3F102120D8305F2021251
:102353000D830FF202120D831FF202120D835AF244
:1023630002120D833AF602120D8327F802120D832F
:102373000DFA02120D83A4FA02120D8346FB021218
:102383000D8349C401120D83C7C401120D8323C5F4
:1023930001120D836EC501120D8389C501120D83D0
:1023A300B4C501120D83D1C501120D83DDC5011220
:1023B3000D8374C701120D838DC701120D8312C8DB
:1023C30001120D8325C801120D8344C801120D8328
:1023D300E8C801120D8369CA01120D831CCC0112D6
:1023E3000D83B2CC01120D83B5CC01120D8325CD23
:1023F30001120D8343CD01120D83DACD01120D833A
:1024030022CE01120D8325CE01120D83EBCE0112D4
:102413000D8358CF01120D837ECF01120D8309D096
:1024230001120D8327D001120D836DD001120D838C
:1024330021D101120D836BD101120D839AD10112A7
:102443000D83F7D101120D832CD201120D8358D2C3
:1024530001120D8366D201120D83B3D201120D83D3
:1024630023D301120D836CD301120D83B8D3011250
:102473000D83E4D301120D83EFD301120D830DD429
:1024830001120D83F8D401120D8302D501120D83BD
:102493003DD501120D834DD501120D8356D5011281
:1024A3000D83AAD501120D83BED501120D83EDD67E
:1024B30001120D8304D701120D8319D701120D8365
:1024C300A7D701120D83ECD701120D8378D801121F
:1024D3000D8383D801120D83C5D901120D83E0D971
:1024E30001120D832CDA01120D839BDA01120D8385
:1024F300D4DA01120D83EEDA01120D8330DB0112FF
:102503000D8300DE01120D83ADDE01120D831ADF90
:1025130001120D835AE101120D8372E101120D8341
:1025230075E101120D8381E101120D8395E1011221
:102533000D839DE101120D83D0E101120D83D2E2DF
:1025430001120D8359E301120D83C9E301120D83B7
:102553004BE401120D830CE501120D832BE50112EF
:102563000D83CCE501120D8329E601120D832CE6C0
:1025730001120D8359E601120D836EE601120D83DC
:10258300E2E601120D8331E801120D8337E90112EE
:102593000D83C2E901120D83DDEA01120D83A5EB60
:1025A30001120D83D6EB01120D83F9EB01120D839A
:1025B30002EC01120D8331EC01120D83C1EC011207
:1025C3000D8377ED01120D83ECED01120D8393EE74
:1025D30001120D8308EF01120D833FEF01120D83EA
:1025E3007DEF01120D83B3EF01120D836EA0041270
:1025F3000D836E9F04120D83879E04120D83779CB7
:1026030004120D83859B04120D83239B04120D83F7
:1026130004B303120D83FAB203120D838FB20312B4
:102623000D83C0B003120D837EB003120D8345D317
:1026330002120D83FFD202120D8382AF03120D83A8
:1026430056AF03120D83CAD202120D8397D2021220
:102653000D830DAF03120D834EAE03120D833AAB00
:1026630003120D83FBA803120D83C8A803120D8365
:102673006FA803120D8302A803120D83C1A70312CF
:102683000D83FAA603120D8394A603120D8333A6BA
:1026930003120D83D3A503120D83AAA403120D8382
:1026A3003EA403120D8396A303120D8391A3031279
:1026B3000D8385A303120D83B89F03120D83929F8D
:1026C30003120D8382D202120D8357D202120D839D
:1026D300FEA404120D83CAA404120D8373A404126E
:1026E3000D83E1A204120D8333A204120D83309FE4
:1026F30003120D83D19E03120D83929E03120D8349
:102703007F9E03120D8396A104120D83749E031200
:102713000D83439E03120D83309C03120D83A39BF1
:1027230003120D838CA104120D835F9B03120D838F
:10273300A78103120D83339B03120D8319FD03122B
:102743000D83ECFC03120D83B9FC03120D8391FC82
:1027530003120D8332FC03120D8312FC03120D834B
:10276300DDFB03120D8389F803120D8371F6031247
:102773000D835BF403120D83DBF303120D8387F3E5
:1027830003120D833BF303120D8325A104120D8362
:1027930093F203120D8330810400000080FBE47385
:1027A3008F000100A11A870001009F1A3500040061
:1027B300681A250002006C1A260002006E1A270010
:1027C3000200701A280001007A1A290001007B1AFE
:1027D30084000400031886000100211A2A00010066
:1027E3007C1A2B0001007D1A2C000100811A2D0098
:1027F30008000F182E000100821A2F000100831A0F
:1028030030000100841A31000100851A32000100F2
:10281300171833000100181834000100861A360017
:102823000100191838000100871A39000100801AC5
:10283300830002009D1A6300010025186400010053
:102843007E1A650001007F1A6D00010026187100D1
:1028530008000718660001009C1A430001008D1A46
:10286300440002008E1A45000100901A460002003F
:10287300911A470008001D1848000100931A4B00E5
:102883000100941A04000100A01AA1000100A41A77
:1028930037000100A31A88000100A21A3C000100BE
:1028A3001A183D000100881A49000200951A6700B2
:1028B300010027184D000200971A4E000100991AD3
:1028C3004F0002009A1A3E0001008C1A51000100C9
:1028D3001B18520001008A1A530001008B1A54007E
:1028E30001001C1800000000000007000000302356
:1028F300F815070010003023E4150700000030230B
:10290300F915070010003023E515070000003023F8
:10291300FA15070010003023E615070000003023E6
:10292300FB15070010003023E715070000003023D4
:10293300FC15070010003023E815070000003023C2
:10294300FD15070010003023E915070000003023B0
:10295300FE15070010003023EA150700000030239E
:10296300FF15070010003023EB150700000030238C
:102973000016070010003023EC1507000000302379
:102983000116070010003023ED1507000000302367
:102993000216070010003023EE1507000000302355
:1029A3000316070010003023EF1507000000302343
:1029B3000416070010003023F01507000000302331
:1029C3000516070010003023F1150700000030231F
:1029D3000616070010003023F2150700000030230D
:1029E3000716070010003023F315070000003023FB
:1029F3000816070010003023F415070000003023E9
:102A03000916070010003023F515070000003023D6
:102A13000A16070010003023F615000136360101AF
:102A23000001020100010301000104010606050281
:102A33000000070100340801000F090401010D0122
:102A430000FF0E08000017020000190100FF1A0121
:102A530000011B0100FE1C0100081D0200001F01F4
:102A6300000120010001210200002301000F2402C4
:102A730000002601000127010008280200FF2A01A7
:102A830000072B0102402C0100002D0100012E0143
:102A930000012F0100FF30010B1D310800003A0136
:102AA30000083B01000F3C0100013D0100FF3E0413
:102AB300000042040000460400004A0400004E04E3
:102AC300000052040000560400005A0400000000F5
:102AD300010020012D86000002002001288600004D
:102AE3000300200129860000000020012C8600003D
:102AF300040042012885000005004201FE84000015
:102B0300070030012A860000FDFF21012486000012
:102B130006004201CC840000004020012D86010004
:102B2300200020054F1A010021002005501A07003C
:102B330000003023F715070010003023E3150103CD
:102B430071030103010301030103010322030203D0
:102B53000103100300030003000300030003000349
:102B630000034203000324030603000300030403DA
:102B73001203250323032503230304030403000390
:102B8300000300034403000300032303000365035E
:102B93002100350381030003050300030003000341
:102BA3000003250323030101710101010101110147
:102BB30001013101010101018001100161013B00AB
:102BC30014006301730172016201430100011301E7
:102BD30006013D013500040112010001000100015D
:102BE300000104010401330133013C0144013201BA
:102BF300360000010001650100013500810100017B
:102C030005018201830100010302710230016002A8
:102C1300110270020102020202028002100261022A
:102C23003A0041006302730272026202430200022D
:102C33001302380000020002040212020002000222
:102C43000002000204020402370037003C0244027F
:102C5300000239000002000265020002350281020F
:102C630000020502820283020002030071003001A8
:102C73006000110070003102200350048000100036
:102C830061000000140063007300720062004300DF
:102C93000000130006000000000004001200000002
:102CA30000000000000004000400370037003C026D
:102CB3004400000000000000000065000000350033
:102CC30081000000050000008300000036000100C1
:102CD300060000000F0000000000000000000000DC
:102CE300000003FFFF00000403FFFF0000FFFF0FCE
:102CF300F4010005C4040320000100000B000000E0
:102D0300000000000003010F0000000000000000AD
:102D130000000000000000000000000000000000B0
:102D230000000000000000000000F6182019FC1845
:102D33003018021926190219321908193018021904
:102D430026190E193018000000001419301800005D
:102D53000000000000001A193018000000000000F5
:102D63000000000000000000000000000000000060
:102D73000000000000000000000000000000000050
:102D83000000000000000000841B0100841B0200FF
:102D9300FA1A0280F41A0300001B0400061B0480C5
:102DA3000C1B0500121B06001E1B3100301B3300D9
:102DB300361B34003C1BFFFF00000300030004002C
:102DC300080010001F003E007B00F600EC01D70353
:102DD300AF075D0FB91E713D000007ECFDFDFDEC73
:102DE300DCDCCCBCACAC9C9C8C7C7C6C6C5C5C5CA0
:102DF3004C4C3C3C2C2C1C1C03EAF5E5D5D5C5B545
:102E0300A59595858575756565555545453535256F
:102E1300251515050A7821024221054E210748216F
:102E23000C2A210D3621FF000000160F00000B15A0
:102E33000B020002220F3300000E0F5A696742652E
:102E430065416C6C69616E63653039D0D1D2D3D47E
:102E5300D5D6D7D8D9DADBDCDDDEDF30301618196A
:102E630020231A1C1E3000034D4C4651181A250509
:102E7300020001191618161618230300303017180C
:102E83001921301B1D1F30003C40423A3F3F392F70
:102E930047300C0E020B040B0A0708000F02040252
:102EA300010101010902E803000000BE040A0E004B
:102EB30001000300E803FF04090E031E1E03100CA8
:102EC30004280828020C0508150A04C082C08312CE
:102ED30011B2901850741AF0A3741FF09018527422
:102EE30020F0A3741FF09018547426F0A3741FF0FD
:102EF300901856742CF0A3741FF0025C0974F71237
:102F03000829901844E4F0E9901843F07C1D7D18DB
:102F13007A457B1812180C901A93E090184DF09094
:102F2300184E7407F0A37418023E9674F012082921
:102F3300EAFEEBFF5480700302309F901843123F68
:102F43002B7003023098EA241B125796707CEA24F4
:102F53001F12579664137002A3E0706E8A828B83EC
:102F63001230ED90185E124D28750A00750B008023
:102F73000D123D6C126E08121710AA0EAB0FEA4B1E
:102F830060488A828B83E0650C7004A3E0650D7052
:102F93002C8A828B83A3A3A3A3E0F50EA3E0F50FF2
:102FA300E50A450B8A828B83A3A3A3A360C31240C4
:102FB3006E850A82850B83A3A3A3A380B78A0A8B9A
:102FC3000B8A828B83124D2480B4E508242A12577E
:102FD30096FCE5082402F8E43509F9E8FAE9FB90E0
:102FE300185E1231D4A3A3E06402703C8A828B83FF
:102FF300124D28800B88828983A3A3A3A312406E5A
:10300300E849601F88828983E06A7003A3E06B70DC
:10301300E488828983A3A3E06C70DA901A99125A28
:10302300C6806BECF9121F56850882850983E0641C
:1030330001704FE50824181230D6120DC11263B087
:10304300120C27E50824121230D6120DC1E508121E
:103053003F1F120DBDE508240B1263B4120C2BE5C0
:10306300082417123EBCE5082402FCE43509FDE5FB
:10307300082419FAE43509FB122772740A120DD0D9
:10308300800CE064027007AA08AB09122034AA0876
:10309300AB09121674EEFAEF6480802DEA540260D5
:1030A3000C901AAC7401F0EA6402FA8023EA540823
:1030B300601A121F50EA4B700B90186012628B7AE1
:1030C300081230E3EE6408FAEFFB80047A007B0019
:1030D300026A3AF582E43509F583E0F50A780A22B3
:1030E300FB901843E0F91217DC22A3A3E0F50CA32D
:1030F300E0F50D227B00901843E0F91217D0740419
:103103002274F41208298A088B098A828B83A3A369
:10311300A3124B20123EC738F583E02409FA126943
:10312300D270030231C78A828B837402124B958556
:1031330008828509831231D4E8F0A3E912664C8A28
:10314300828B83A3A3A3A3A3A3A3A3F0E5082403D0
:10315300F8E435091231C9123EC73AF583E08E828D
:103163008B83A3A3A3A3F0EE2409FAE43FFB8E828F
:103173008F83A3A3125D78F5838882E0A2E58E8214
:103183008F83A3A3A3A3A3500474018001E4F0E5F8
:10319300082403F5828983124D28EA1252A93BF5CC
:1031A30083126999120DB9123EC63B125E6A8E8272
:1031B3008F83A3A3127B48120DD0EEFAEFFB901876
:1031C30043126A1F8016F98882F583E0FAA3E0CAE6
:1031D30022124EC5A3A3227402120DD07F04020B48
:1031E3005C74F21208298A088B09ECFAEDFB740E61
:1031F3001210D9E0FC1211E88A0C8B0DAE0CAF0D46
:10320300EA4F6030AC08AD091211D6E96026AC086C
:10321300AD09EEFAEFFB1211DCE970148E828F8395
:1032230012405BFAEFFB1211D0AA08AB091212008D
:103233007900800279B4024E1474F012082974F6EE
:10324300120E69EAFEEBFF8C088D09750FB3852119
:1032530082852283E4F0750E008002050E902EC451
:10326300E493F8E50EC3984003023363AA0E7B0090
:103273001212248A0A8B0BEA4B60E08A828B83A3A7
:10328300A312336A28F0F8C3EE98EF940050CC7C75
:10329300157D007900AA08AB0912165C850A8285A0
:1032A3000B83A3A3A3A3126E45E0F8EEC3982925CD
:1032B300E0F8E433F9E50A28F582E50B39F583A351
:1032C300A3A3A3A3A3123ED1A31258ED8A0C8B0D83
:1032D300AC0CAD0DAA08AB0912180C850A82850B3C
:1032E30083A3E06401700A1263B07401123EE380A9
:1032F300447401120E61850A82850B83124D2612D6
:10330300120CE9603D74091210D9E0C0E01263B0F9
:10331300D0E0F074091210D9E06403701374011241
:103323000E61E508240BFAE43509FB12180C801230
:1033330074011210D912406EE5081258D3350912E0
:103343006E06850A82850B831263BC123EE3A3A338
:10335300E0C0E0E50824141263B4D0E0F0750F0078
:10336300A90F740A026A37A3A3A3E0F88521828513
:103373002283E02274F7120829E9FE8A828B83A351
:10338300A3A3A3A3A3E0540860338A828B83A3A3DC
:10339300A3A3A3A3E0540260218A828B83A3A3A3E4
:1033A300A3A3A3A3A3A3E06406600F74E96E600A5A
:1033B30074CD6E600574F06E7003121F38024713EC
:1033C30074F012082974EF120E69740F1210D912D7
:1033D300616F74081210D9E9F0ECFEEDFF74051269
:1033E30010D91244DB1246FFA3E0F91211F474065C
:1033F3001210D912616F74061210D912533A700366
:1034030002367E123F0BE0FA74061210D9E0F9126D
:103413001E781236DEF8A3E0F9E849700302367E1F
:10342300EE2403F50AE43FF50BEE2406F508E43F2A
:10343300F5097C00850882F583124D28850A82856B
:103443000B83E0F91211FA74031210D912616F851C
:103453000A82850B83E0C0E08521828522831236B0
:10346300D7D0E012544FF9852182852283123D7310
:10347300124FA112336DFAA3E0CA2407F582E43A8E
:10348300F583E8F0A3E412617A2406F582E438F5C3
:1034930083E4126E12124B14120DB9EE123EC73FA3
:1034A300125E6A74031210D9124B202409127B4254
:1034B300120DD074291210D9126E3F1231CE12544C
:1034C300623A126E06742B1210D9E0C0E085218295
:1034D300852283125301D0E0F074021210D9E4F074
:1034E30074251210D978081210820235D57403128C
:1034F30010D9125E328882F5831236C6A3A3A312B3
:1035030058F8FB121212850E82850F83A3EAF0A3EB
:10351300EBF074031210D91236D7A31236C6125B1E
:1035230007A2E6500F850E82850F83A3A3A3A3A34F
:10353300E0D2E1F074051210D9E0706B850E82853C
:103543000F83A312406E90189EE0687003A3E06996
:103553007055850E82850F83A3A3A3123EA6750C17
:1035630000780C120DC17808120DB574291210D908
:10357300E0F50C780C120DC174271210D9120C2B24
:103583009018AB120C2B790074191210D9124CF845
:1035930012207C740A120DD0850E82850F83A3A39B
:1035A300A3A3A3E04405F074021210D9E004FC8E37
:1035B300828F83124D228E828F83A3A3A3E0F912FD
:1035C30011FA74031210D912616F74021210D9E048
:1035D30004F074031210D912533A60677402121084
:1035E300D9E0FA74061210D912406EC3EA98E4992E
:1035F300505174021210D91239B085218285228369
:10360300E028F8A3E039F9E8240FF50EE439F50FC3
:10361300850E82F583E4F074031210D91236D16457
:103623000160030234F074051210D97401126A2583
:10363300F074031210D9125BF91239D3E8F0A3E93D
:10364300023514852182852283124D28121E7E8520
:103653002182852283120C2B74261210D9E0FD746B
:10366300251210D9E0FC740A1210D9E0F9EEFAEF32
:10367300FB121F327402120DD080438E828F83A3FC
:10368300A3A3E0C0E0740C1210D9D0E0F012688E4E
:10369300E0C0E0740D1210D9D0E0F074061210D916
:1036A30012533A7009740E1210D974B98007740E4C
:1036B3001210D97410F07409120E59122076741175
:1036C300026A37E0850E82850F83A3A3A322E0124B
:1036D3005427E022E0125427A3A3228521828522C6
:1036E30083EAF0A3EB1253432274F012082974E126
:1036F300120E6974041210D9E9F074031210D9EC94
:10370300F074021210D9EDF08A0E8B0F742F121081
:10371300D91230EFAA0CFB121E6C74011210D9E9F6
:10372300F0AA0CAB0D121E7274011210D9E07003D3
:103733000239AB852182852283E480158E828F83B3
:10374300A3A3A3A3A3E0D2E3F0852182852283E090
:103753000412697DF8852182852283E0C3984003A2
:103763000239A274011210D9E070030239A2852133
:10377300828522831239B0E50C28F8E50D39F9E882
:10378300240FFEE439FF8E82F583A3A3A3A3A3E052
:10379300A2E040B5750800750A08750B00740212A3
:1037A30010D9E060037508207C087D00790074055A
:1037B300120E5912165C8E828F83E0603E9018EED3
:1037C300E06401701AE508D2E3F508750B101239AD
:1037D300C01210D9E8F0A3E91257EB74FF807643C7
:1037E300080C750A0C8E828F83A31239CB126E08D4
:1037F30074051210D974FFF0A3805A74041210D9FF
:10380300E06009E508D2E6F508750A0A8E828F831F
:10381300A3E064FE7003A3E0F4703074121210D9B5
:1038230074041263DAF8741D1210D9E8124B9574FC
:1038330012120E59121D9A7D007C00790074151224
:1038430010D9AA82AB83122796800B1239C01210AB
:10385300D9E8F0A3E9F074071210D9E508F0123F94
:1038630002C0E074091210D9D0E0F0740A1210D922
:103873007401F07405120E5912203A74111210D902
:10388300E06003023980740D1210D912544A8E82FB
:103893008F83A3A3A3A3F0740D1210D9124B63E576
:1038A3000AF0A3E50BF074031210D9E0C0E0124A4A
:1038B300F4D0E0125B0760119018EEE0C0E0740DE5
:1038C3001210D9124B3ED0E0F0740D1210D91240F1
:1038D3006E850C82850D83A3A3A3A3A31239B924F8
:1038E3001C126169126E221239BB125AB93912685D
:1038F300ADC0E0124ADBD0E0126972C0E0740D1271
:1039030010D9124621D0E0126673C0E0740D121074
:10391300D9124617D0E0F0740D1210D91239CB1218
:1039230039B9242A126169850E82850F83A3A3A363
:10393300A3A3A3A3A3E0126162123EF1C0E0124667
:1039430003D0E0F0740D1210D9124D28850E828534
:103953000F831269882428F582E43B126E06123E17
:10396300FA126999120DB9125E63EA1260FB3B12F7
:103973007B46120DD07405120E591220408E828F91
:1039830083A3A3A3A3A3E0D2E0F074111210D9E0A0
:10399300600302373F74011210D9E01402374B79E8
:1039A30000AA0CAB0D121F3E741F026A37E075F0BC
:1039B30007A4F8A9F022A3A3124D2CE8228E828F2C
:1039C30083A3124072740522E01239D3A3A3A32266
:1039D300F8A3E0F9850E82850F83A32274F0120801
:1039E3002974E8120E69E9852182852283F08A0E03
:1039F3008B0F8A828B83A3A3A3A3A3A3A3A3E0F91F
:103A0300121E968A088B09EA4B7003023ABCE50E34
:103A13001252BD123F1A123EB1852182852283E0E4
:103A23006003023ABF7C04850E82850F83A3A3A3A0
:103A3300A3A3A3A3A3E0F9121E9CEE4F607B8E8287
:103A43008F83A3A3A3A312406E74071210D912622B
:103A5300A012406E74091210D9124BC5C0E0741144
:103A63001210D9D0E0126651A3A3A3A3A3A3A31258
:103A7300406E740F1210D9126E0874121210D9E42A
:103A8300126A2DC8241FF582E438F583125E2EC412
:103A930013135403FC70027C048E828F83E0F97845
:103AA30008120DBD742059FD744059F97403120EA8
:103AB30059121F327402120DD0026A357C08850E2A
:103AC30082850F83A3A3A3A3A3A3A3A3E0F9121E39
:103AD3009C8B0BEA4B7003023A3DEE4F60DB852172
:103AE30082852283E0F50C780C120DC1850882854E
:103AF3000983A3A3A3A3A3A3A3E0F50C780C120D3E
:103B0300C18A828B83A3A3A3E0FB8A82850B8312E2
:103B130076658A82850B83E0FA8E828F83A3A3E086
:103B2300F91227787402120DD0023A4174F7120881
:103B33002974FA120E69E9FE780179017F00800386
:103B430079000F124EA4E0FCEFC39C5026EF75F0F2
:103B530007A4FC85F008AD08EA2CFCEB3DFD1244FC
:103B630093E0A2E050DA540C60D6E0A2E250D3789E
:103B73000080CF8A828B83A3A3A3A3A3A3E0703D7A
:103B8300E9A2E0400574016E70338A828B83A3A39C
:103B9300A3A3A3A37401123E83E0C0E07403121035
:103BA300D9D0E01244F2E0C0E074041210D9D0E09E
:103BB300F074051210D9E8125DCD12207674060256
:103BC3004710C082C0837901121F3E025C0974F45E
:103BD300120829EA4B901AAC6019E4F08A088B09A1
:103BE300F50AF50B7808120DB57A021230F7120DAB
:103BF300D0800A7401F07A027B001230E40231DFD4
:103C030074F012082974F3120E6974031210D9E4C4
:103C1300F0A3F090185E123EB174011210D9E4F0D3
:103C2300A3124B9A04F0901898E0A2E35003023CCD
:103C3300F6123E7774091210D91210C274091210C9
:103C4300D978081210829018607808120E3974051A
:103C53001210D97808121073123D7A74051210D914
:103C6300780812101650077A017B00023D6774052D
:103C73001210D9780C121082901A98E0F509780C7A
:103C830079081207BAA80CA90D901A99E0C398E411
:103C9300995003E08001E8852182852283F074092D
:103CA3001210D97808121082C008C009C00AC00BCC
:103CB30074051210D9780C121082123D7A780C799F
:103CC300081207BAE4F50AF50BD00FD00ED00DD0C9
:103CD3000C780C7908120F11901860780C1210737D
:103CE3008011123D6C126E08EEFAEFFB121710AE44
:103CF30008AF09EE4F60658E828F8312336AC398D3
:103D0300502DEE2403F8E43FF9E0FA88828983E03A
:103D1300C39AF0602374031210D91241D4740112B0
:103D230010D9EEF0A3EF1262BBFEA3E0FF80C48EB6
:103D3300828F83A3A3A3E4F08E828F83127AFF740E
:103D4300011210D912533A8E828F83A3A3A3A360C7
:103D5300911262941210D9123D7380897403121068
:103D6300D9124D28740D026A3712407290185E22E0
:103D7300125E59A3A3A322901A97127B07E4F50AB4
:103D8300F50B2274F01208298A088B09890A780036
:103D9300790090185E123EB1FBEE4B601E088E82D6
:103DA3008F83A3A3A3A3124CF2601008E870010948
:103DB3008E828F83123EADEA4F70E3901A9A124DB2
:103DC30028C3E89AE99B4003023E6A7A06123E6DD5
:103DD300A80CA90DEA497003023E6A8A828B83E527
:103DE30008F0A3E509123E8CE50AF0901A99124EE9
:103DF300AC123E83A3E4F0A3F090185E124CF26081
:103E03000D8E828F83A3A3A3A3126E08801790182D
:103E13005E126E08901898E0A2E34009123E779074
:103E230018601210C2901898E0A2E3503A7A087B07
:103E330000901843E0F91217E2EA4B4C4D702890BA
:103E43001A97E0F508A3E085080CF50DE4F50EF5E7
:103E53000F780C120DB57A087B00901843E0F91225
:103E630017D67404120DD0026A3A7B0012170A8A1D
:103E73000C8B0D221217F4EAF8EBF9ECFAEDFB22A6
:103E8300123E8722123E8CA322F08A828B83A3A345
:103E930022E508F0024713F08E828F83A3A3A3A326
:103EA300A3A3221257A4A3A3F022A3A3A3A3E0FED8
:103EB300A3E0FF227F05020B5CF582E43509F5835D
:103EC300E0F922EA123ECB222410F582E422123ECC
:103ED300D9A3A3A3A322124076850882850983224E
:103EE300123EE722F0850A82850B83A3A322E50E07
:103EF3002411123F17E022E50E240E123F1722E58C
:103F03000E2410123F17E022123F0F22EE123ECB77
:103F13003FF58322F582E4350FF58322240FF50A5A
:103F2300E43509F50B780A22E0F91216868A088B24
:103F330009EA4B2274F2120829890B8A088B098A31
:103F4300828B83124D28121F62EA4B600479B8807A
:103F53006A121F6EE9F8902EC1E493F9E8C3994001
:103F63000479B280567A15123E6DAE0CAF0DEA4F4E
:103F73007004791080458A828B83E4F0A3123E8C0F
:103F8300E50BF0750A007808120DB97C127D00EA82
:103F93002403126944120DD090186412533A700826
:103FA300901864800C12406E88828983123FC1701E
:103FB300F4EEF0A3EFF0121F807900024E14124DBD
:103FC3002CEA4B8882898322C082C0839018648044
:103FD300048C828D83127666EC4D60288C828D83EF
:103FE300A3A3E069600574FF6970E68C828D83A3E7
:103FF300A3A3E06A7003A3E06B70D6EC2403FAE496
:104003003DFB80047A007B00025C0974F7120829E7
:10401300E9FD74FE6D70047C0180027C00901864DD
:1040230080096D70027C018882898312533A601F74
:1040330088828983A3A3A3E06A7003A3E06B70E77C
:10404300ECA2E088828983A3A3E050D6F9800279A9
:10405300FE024713EEF9800CA3A3127B07EE227432
:1040630002120DD07F02020B5CF583124072221202
:10407300407622E0F8A3E0F9221240768E828F8305
:1040830022120DD07F03020B5CC082C083790090A3
:104093001864800109E0FAA3E08A82F583E582458A
:1040A3008370F1025C0974F6120829E4F508F50936
:1040B3007808120DBD902EC1E49375F013A4A9F0F6
:1040C3001241C9126E66120DD0E9FE74096E7003B7
:1040D300121F7A02405774F612082974FE120E69F1
:1040E300852182852283E4F0A3F0A821A9228808F0
:1040F30089097808120DBD75080275090078081240
:104103000DBD126AD7120DD002406274F512082950
:1041130074EB120E69852182852283E4F0A3F0906B
:10412300186480748E828F83A3A3E0C0E0740212AC
:1041330010D9D0E01257EBA982AA8389088A09759E
:104143000A007808120DB97C127D0074061210D98A
:10415300126E2B120DD07402120E51880889097841
:1041630008120DBD7508137509007808120DBD748A
:10417300041210D91252DD75F013A4F8AAF075F0E9
:1041830013E91241C5126ADF120DD08521828522FF
:10419300831241D48E828F83123EB1EE4F7085A875
:1041A30021A922880889097808120DBD75080275AE
:1041B30009007808120DBD126AD7120DD0741502CA
:1041C3004084A42AF9E82402FCE439FD7A427B0006
:1041D30022E02401F0A3E03400F02274F412082951
:1041E30074EB120E697E007F00A821A9228808893A
:1041F300097808120DBD7508028E097808120DBDE5
:104203007C007D007A42126E72120DD0E9706C8EC2
:104213000880567402120E51880A890B780A120D0F
:10422300BD750A13750B00780A120DBDE50875F00C
:1042330013A4F8AAF075F013E5091241C5126E74C0
:10424300120DD0E9701B74031210D9AA82AB8374C8
:10425300021210D9E0F9121F5CE970050EEE70012D
:104263000F0508E50870020509852182852283125E
:10427300406EC3E50898E509994098EEFAEFFB74A0
:10428300150231DC74F61208298C828D83A3A312E4
:1042930044E0F0EA1261013BF583E0C0E012449D83
:1042A300D0E0F0EA241DF582E43B12406C12448115
:1042B3001244DBF0A3F0EA241FF582E43BF58312FA
:1042C3003EB1EC1244743DF583EEF0A3EFF01244DB
:1042D3007A3BF5831244ABA3A3A3A3A3A3EEF0A35A
:1042E300EF125D5CFE8C828D831244EA74035EFEE2
:1042F300C394034003024467EE600874026E6003D4
:1043030002438C8C828D83E0540CFE740C6E70031C
:104313000243CBE0A2E4400D88828983E08C828D46
:1043230083A312450074086E60030243CB12448BCF
:104333007401F08A828B83A3A3A3A3A31257B17042
:10434300148C828D83E0440C1244F2A3A31244AB79
:10435300EEF0A3EFF08C828D83E0A2E4402B888201
:104363001244B91244CE500109F5821244B9A3A3F1
:10437300A3A3A3A3F0A3EF1244FA8C828D83A3A378
:10438300A3F0E82403F850010988828983E0C0E0A0
:10439300EC2411F582E43DF583D0E01244EA8C82EB
:1043A3008D83E0A2E7507588828983E0FE8C828D3D
:1043B3008312450074FC5E700C8C828D83A3E054E1
:1043C300036403701E02446712448BE4F0740C6EA2
:1043D300600302433688821244BF1244CE5001095F
:1043E3000243588C828D83A3E05403603288828910
:1043F30083E0C0E0EC1244A53DF583D0E012450113
:104403008C828D83E054036402701488828983E074
:10441300C0E0124493D0E01245018003A3E4F0EC22
:104423001252A93D126E06EC2410FEE43DFFEA246D
:104433001DF582E43BF583E0F5088E828F83E0C3AC
:10444300982508F508F0EA2417F8E43BF98882F583
:1044530083E0C39508C0E0124481D0E0125D5CC3E1
:104463009508500A124481E4F012449DE4F002409E
:10447300672415F582E422EA240DF582E422EC2474
:104483000DF582E43DF58322EC1254623DF583225F
:10449300EC2414F582E43DF58322EC123ECB3DF58A
:1044A30083222413F582E422E0FEA3E0FF8C828DB5
:1044B30083A3A3A3A3221244BFA3A3228983E0F56A
:1044C30008A3E0FFE5088C828D8322A3A3A3A3F0B6
:1044D300A3EFF0E82402F8221244E0A322E4F08CD4
:1044E300828D83A3A3A322124508A882A983221243
:1044F3003E87A3A3A3A322124508A3E022A3124548
:104503000808A98322125D65A32274F41208297492
:10451300F3120E698A0A8B0BECFEEDFF8C82F58396
:10452300E0540CF508E0A2E75006E508D2E7F508E9
:10453300E508D2E1F5081257B17006E508D2E4F5B3
:1045430008E0A2E55006E508D2E5F5087C087D0001
:104553007900AA21AB2212165C74021210D9E50865
:10456300126E0CC0E074031210D9D0E0124B9AE51E
:104573000AF0A3E50BF074051210D9126678121035
:10458300D9E0707774081210D9124B20125D4E389F
:10459300126693C0E074081210D9124621D0E012BB
:1045A3006673C0E074081210D9124617D0E0F07495
:1045B300081210D912460DE0124B48124BC9126172
:1045C30062EE241112577DC0E0124603D0E0F0EEF4
:1045D300241412577DC0E074081210D9124B202402
:1045E30035F582E438F583D0E0124B6DC0E07408F2
:1045F3001210D9124B24D0E01263CC740D0231DCBB
:10460300E82432F582E439F5832212407CA3A3A384
:10461300A3A3A322124B3412687238F58322124BE0
:10462300342426F582E438F5832274F71208297EB0
:10463300008A828B83A3A3A3A3A3A3A3A3A3E0645E
:104643000460030246EF12545AE060030246EF127D
:1046530052BC3B12533870030246EF88828983E0D1
:10466300540360030246EFE812546239F583E0FA1B
:104673008C828D83A3A3E0FBA3E0CB2411F582E41A
:104683003BF583E06A706588828983A3A3A3A3A310
:10469300A3A3A3A31246F3E06A7003A3E06B704CD9
:1046A30088828983A3A31246FFE0FFA3E0CF2406F9
:1046B30012577D6A7003A3E06B703188828983A3EC
:1046C300A3E0F88C828D83A3A3E0F9A3E0F58389AB
:1046D30082A3A3E06860138C828D83A3A3A3E0F578
:1046E300838982E0540C640470027E01EEF9802019
:1046F3001246F722124D308C828D8322A3A31246D9
:10470300F7A3A322740C1210D9E0F9740D120DD083
:104713007F01020B5C74F612082974FC120E69EA1D
:10472300FEEBFFECFAEDFB8C82F583A3E054036010
:104733001690185A12533A60597900EEFCEFFD12A5
:104743005F591227A1804B852182852283EEF0A336
:10475300EFF074021210D9124B8FAC21AD227A986C
:104763007B1F1221C08A088B09A808A909EA49609E
:10477300218A828B83A3A3A3A3A3A3A3A3A37406C6
:10478300F07A0088828B83124B20126122E0F912A7
:10479300211E740402406474F212082974F3120E89
:1047A30069EAFEEBFF8A82F583A3A3A3A3A3A3A3D2
:1047B300A3A3A3E0F50A901AACE0700579BA024A04
:1047C300D8750801750900750C00750D007C087D0E
:1047D300007900AA21AB2212165C74051210D97459
:1047E30001124BA25404601274021210D9E0D2E6F3
:1047F300124BA254087003750803E054106006744A
:10480300404508F508E05408602274021210D9E00C
:1048130044C0124BA25420600A74031210D9E0D290
:10482300E0800874031210D9E0D2E1F0EE241512EF
:10483300577D124B087003740169700674084508AC
:10484300F5088E828F83A3A3A3A3A3A3A3A3E070DE
:104853001612221A85218285228312616F74021235
:1048630010D9E0D2E28030640F701074021210D9B4
:10487300124BAA74044508F508807F8E828F83A3A8
:10488300A3A3A3A3A3A3A3E064028E828F83700ACE
:10489300126E3FE8F0A3E9F08060A3A3A3A3A3A350
:1048A300A3A3E06403700DAC21AD22EEFAEFFB127B
:1048B3001FCE80468E828F83A3A3A3A3A3A3A3A308
:1048C300E0640170359018EEE0601074021210D9A4
:1048D300124BAA750910750AFF801874021210D9B9
:1048E300E0440C124B9A74FDF0A374FFF07404457A
:1048F30008F5088E828F831230EFEE241512577D50
:10490300A2E0503F74021210D9E0540C701B8E8247
:104913008F83124D28121C38E9700579BB024AD8DF
:1049230074021210D9E0D2E5F0EE241512577DA2DD
:10493300E0501074021210D9E0540C64047004E0C7
:10494300D2E5F0EE241112577DC0E074041210D9A1
:10495300D0E012667A1210D9E06003024AD17408DB
:104963001210D9124B63E508F0A3E509F0124AFED1
:10497300E0C0E0124AF4D0E0F0124AE5E0C0E0748F
:10498300081210D9124B201244A538F583D0E01237
:104993004BC9640170119018EEE0C0E07408121066
:1049A300D9124B3ED0E0F074081210D9124B5E12AC
:1049B3004AEFFAE8241CF582E439F583EA124B95B1
:1049C300EE2415FAE43FFB8A82F583127666E81239
:1049D3005AB939F583124B8FEE241C12577DC0E070
:1049E300124ADBD0E0125BFF124B087003740169BB
:1049F300701374081210D912544AFAEE241D125778
:104A03007DF9121EA28E828F83A3A3A3A3A3A3A3C4
:104A1300A3A3E0C0E074081210D9124621D0E0F03D
:104A230074081210D9124617E50AF074081210D947
:104A33001252DD2428F582E439F583E50CF0A3E571
:104A43000D124B75124B481257F6126162EE124A61
:104A5300EFC0E0E82433F582E439F583D0E0F0EEEB
:104A6300241B12577DC0E074081210D9124B24D0B6
:104A7300E0F0EE241A12577DC0E074081210D91228
:104A83004B202432F582E438F583D0E0124B6D12CB
:104A93004B14120DB9126878127666740B1210D982
:104AA300124B20242F127B42120DD0EE24151257E5
:104AB3007D5440601290187A12533A600AAA21ABCF
:104AC30022125F591227A1AA21AB22122040740C93
:104AD3001210D9E0F9024E0FE82420F582E439F5EB
:104AE3008322EE2419F582E43FF58322126887E0DE
:104AF30022E82412F582E439F58322EE2418F582A4
:104B0300E43FF583225480F8A3E05401F9748068EC
:104B130022F508A3E0F509750A00780822124B3440
:104B230022124B342434F582E438F58322A3A3A361
:104B3300A3124B3822E0F8A3E0C822124B341244EC
:104B43007438F58322FAA3E0FBE8242AF582E439DA
:104B5300F583EAF0A3EB22A3A3A3A3124072EE22F0
:104B63001252E11252C139F58322F0EE2413125787
:104B7300FE22F0EE240D1257FE22E0FC8A828B8384
:104B8300E02CFCA3E03400FD8A828B83ECF0A3EDE0
:104B9300F022F0A3E4F022F085218285228322F023
:104BA300EE24151257FE22E0D2E3F0124BB2228E0E
:104BB300828F83124076852182852283E8F0A3E9E0
:104BC300F022E8F0A3E91262B5E02274F712082993
:104BD3008A828B83A3E0640170047E6380027E6417
:104BE3008A828B83E060087905124C0224F3FE90DD
:104BF3001896E06007F9124C0224F2FE0246EF1207
:104C030020E8E9F8EEC3982274F612082974FE121C
:104C13000E6985218285228312616FE9FEECFAED2C
:104C2300FB90038112533A6032A821A92288088994
:104C3300097808120DBD7D01740E1210D9E0FCEE47
:104C4300F99003811261431227A17402120DD0EA75
:104C53004B60047900800679B2800279B602406223
:104C630074F7120829E9FE90185012533A601F7422
:104C7300091210D9E0F5087808120DC1EEF9901861
:104C8300501261431227A17401120DD0800279B62C
:104C930002471374F71208298908ECFEEDFF79B572
:104CA300E508245E602014600624F86034803D909B
:104CB3000383124CF26035126E831227A18E828F0A
:104CC3008312616F8024901852127666EC4D601C3B
:104CD300EEFCEFFD9018521261431227A1E9F9800F
:104CE3000B90184E124CF812180C7900024713124D
:104CF3004D2CEA4B2212766AEEFAEFFB2274F7127E
:104D03000829E9FE79B574AB6E700B90184E124DFD
:104D13002812180C79000247138E828F83A3A3A352
:104D2300A3A3A3A3A3124D2C22124D3022E0FAA376
:104D3300E0FB2274F1120829EAFEEBFF8C0A8D0BCB
:104D430075080190189EE06E7003A3E06F700C125B
:104D53004E03AA0AAB0B12180C805E122220EE6AD5
:104D63007002EF6B7009AA0AAB0B122226804AACC1
:104D73000AAD0BEEFAEFFB121D76E9F508901A9FC8
:104D8300E070361226ACE97030E508702C90186E8E
:104D9300E06E7003A3E06F7020EE4F601C750C662D
:104DA300750D18750E00780C120DB97C087D00AADC
:104DB3000AAB0B126E2F120DD0A90802776274F2A0
:104DC300120829EAFEEBFF8C088D09750A01124EC1
:104DD30003EEFAEFFB121806E96401701190189EB6
:104DE30012406E850882850983126E08800EAC0816
:104DF300AD09EEFAEFFB121D7CE9F50AA90A801151
:104E03001222148A0C8B0DAC0CAD0D22740D120DF5
:104E1300D07F06020B5C74F6120829EAFEEBFF7AD8
:104E23000D7B0012170AEA4B6062EE2424126B0C0E
:104E3300F0EE2425126B0CA3124ED1126B12A3A316
:104E43001268A5124EACF0EE124E92124EC1E8F06B
:104E5300A3E9124EE8124EB9126E08EE124E9B12DF
:104E63006968A3A3A3A3F0EE243312577DC0E01215
:104E73004EA4D0E0126697124EB9A3A3A3E8F0A301
:104E8300E9124EE0C0E012545AD0E0F00240672429
:104E93002AF582E43FF58322242EF582E43FF5834D
:104EA30022EA1258D33BF58322124EB022E08A82C3
:104EB3008B83A3A3A3221269C7A3A3A3A322124E86
:104EC300C5221240768A828B83A3A3A3A322F01266
:104ED3004ED622EE2426F582E43FF58322F0EE241B
:104EE300321257FE22F0EE242C1257FE2274F412D3
:104EF300082974FE120E69ECFEEDFFEC241612571E
:104F03007D64057010EC2406FCE43FFD121FC8E924
:104F13007003024F9CAC21AD22126BC1121C3E8563
:104F2300218285228312533A606B8E828F83E064E1
:104F3300017058E875F009A4F8AAF075F009E9A41E
:104F43002AF974C728F8740539F9E8FAE9FB888265
:104F5300F5837808121082EE12503E121016402785
:104F6300852182852283124B5E12578B124FA178C3
:104F73000812108290858C7808120F4D8A828B83D9
:104F83007808121073800A79A28010EE240F126E33
:104F9300027900800679A1800279C80231DA124BC6
:104FA300BFEE1268932274F21208298A0C8B0DEC5F
:104FB300FEEDFFEC12578BE4F0A3F09085F8780830
:104FC300121082EC12503E120E956067EC240E1202
:104FD3005784703478B3901895E070289018C7E020
:104FE30064017020EC241112577DF91220D08B0933
:104FF300A909EE1252BD3F12616DEA4960047800BF
:10500300800278A18808802EE060046402700A128E
:105013001FDAE9F5087007801DE064037010EEFCE9
:10502300EFFDAA0CAB0D121C62E9F50880087508A8
:10503300A180037508A3A908024E14126893780887
:105043002274F012082974F5120E69EAFEEBFFEAE6
:10505300240AFCE43F8C82F583127B031252C7744B
:1050630003120E618A828B83125F63E9700302511C
:105073002D7401120E617403120E59121C3E740139
:105083001210D912533A700302512DE875F009A496
:10509300F8AAF075F009E9A42AF974C328FC740589
:1050A30039FDE508240E1263B4E4F0041210D9129A
:1050B300406EE5081252BD3509126E068C828D834F
:1050C3001210B6E50824121263B41210C290858C34
:1050D30078081210828C828D837808120FAC8C8230
:1050E3008D83780C12108290858078081210827854
:1050F3000C79081207BAE5084509450A450B702AD9
:1051030074011210D91252DD75F009A4F8AAF075D2
:10511300F009E9A42AF974CB28F582740539F583DB
:105123007401F07A007B081252EA8E828F83A3A364
:10513300A3A3A3A3A3A3A3A3E02406FCA3E0340097
:10514300FD8E828F83125F63126685603EEE240AB2
:105153001252AF124B637468124B95E81252A9397D
:10516300F5837402F09018801210B68C828D83122E
:10517300615C125D4E3CF5831210C290858C7808F9
:105183001210829018807808120FAC125325705DAC
:1051930090184E1252D5A3A3A3A3A3A3A3A3A3A37F
:1051A300125D84121806E97010125D4290184E12B7
:1051B3005D54700512668560348E828F83A3A3A32A
:1051C300A3A3A3A3A3A3A31252D5124D28121C6811
:1051D300E960118E828F83A3A3A3A3A3A312531108
:1051E300E4F0A3F08E828F831252F7E4F01253257A
:1051F30060030252A48E828F83A3A3A3A3A3A3124B
:105203007AFF901895E060030252999018C7E06402
:10521300016003025299750A3A750B00780A120D60
:10522300BD7402120E51880A890B780A120DBD1241
:1052330070FE120DD0E9705BE508240E1263B4749E
:105243000112533FC0E0E50824111263B4D0E0F02B
:10525300E508240F1263B4743A124B9590187C122C
:1052630010B6E50824121263B41210C290858C782C
:105273000812108290187C7808120FAC90858C78F5
:105283000812108290187C7808120E95700812523A
:10529300E680031252C71253257006125C4574A1AF
:1052A300F0740B026A37240EF582E422F8E43FF926
:1052B300E8FCE9FD8882F58322EA1252C122240F19
:1052C300F582E422E5081252C13509F583E4F0A31F
:1052D300F02212766A8E828F83221252E1221240CA
:1052E30076E8227A007B02901727E0F91216B022A3
:1052F3008A828B83A3A3A3A3A3A3A3A3A3A31253CE
:105303000522124B38240EF582E438F58322A3A339
:10531300A3A312531922124B38240FF582E438F554
:1053230083228E828F83A3A3A3A3A3A3124B302430
:105333000FF582E438F5831252E1492212534322D6
:10534300F0852182852283E02274F6120829EAFE81
:10535300EBFF7A237B0012170AEE240AF508E43FD9
:10536300F50985088212616D7C237D007900121690
:105373005C85088285098312533A700302540DEE4B
:10538300FAEFFB121FE612532560748E828F83128D
:10539300544064018E828F83A3A3A3A3A3A37007A6
:1053A300125436740E802112533A701012668570AF
:1053B3000B8E828F83A3A3E0A2E0500712542C74B8
:1053C3000D800512542C7405126697540364017002
:1053D300071254147405800B901896E0C0E0125421
:1053E30014D0E012544FF58388821257AA8508829D
:1053F300850983124B2012610138F583E9800E85FC
:1054030008828509831261E68003126129F0024054
:10541300678E828F83A3A3A3A3A3A3A3A3A3A31290
:10542300542622E0126148A3228E828F83A3A3A372
:10543300A3A3A3124B3012610738F58322A3A3A3BE
:10544300A3A3A3A3A3A3A3125305E022125453229D
:10545300126BD6F8A3E022EA1254623BF5832224AE
:105463000CF582E42274F112082974E4120E698A9D
:105473000C8B0D8C088D097A237B0012170A8A0A7C
:105483008B0BAE0AAF0BEA4F700302576512610D27
:10549300E5082415125796687003A3E0698E828F7E
:1054A300837004740280027401F0E508240DF8E4AB
:1054B3003509F98882F583E0FAC3E49AFA95E0FBAB
:1054C3001257922AFAA3E03BFB8E828F83A3A3A3F6
:1054D300A3125D6B8E828F83A3A3F0EE2420F5824B
:1054E300E43FF583E4F0EE2421F582E43FF583E421
:1054F300F0EEFAEFFB12209A850882850983125792
:10550300B170098E828F83A374058006901896125A
:10551300579FF0EE2417F50AE43FF50B8E828F8335
:105523001257AAE9850A82850B83F0EE2416F8E464
:105533003FF9E508240EFAE43509FB8882898312D2
:105543004B7DE5082410FAE43509FB850A82850BB7
:1055530083E0FC88828983E0F88A828B83E0C398A6
:10556300C39CF81257EBF0EEFCEFFDAA0CAB0D1247
:105573001FE0E9F50B8E828F83E064027006125DF3
:105583004212576FE50B600302575C750C00750DF3
:1055930000901A9FE064016005E06402703F1257B7
:1055A300816008EE242112578470328E828F83A388
:1055B300A3A312612F1257B7EE241612577D125769
:1055C300E0FAE439FB123E6FEA4B60111269911263
:1055D3000DB91257C5AA0C126E2F120DD0EEFAEFA9
:1055E300FB1220A6E9F50B901A9FE064016008E026
:1055F3006402600302574FE9700302574FE50C45FD
:105603000D700302575C8003850E0B125781600BEC
:10561300EE24211257846003025755850B0E850C27
:1056230008850D09750A007808120DB91257C58E41
:10563300828F83A3A3A3A3127B48120DD0EE242051
:1056430012577D600D12578A7468124B95EE242011
:105653008015EE242112577D601512578A7403F0CA
:10566300A37401F0EE2421F582E43FF583E4F0EE28
:10567300FAEFFB1220A6E9F50B70907C137D0079FD
:10568300007409120E5912165C741A1210D974019F
:105693001257F664687002A3E0704F8E828F8312F4
:1056A3005311E06405600302560B7C0879FF8E8278
:1056B3008F83A3A3A3A3E0242A125D871216E6E92E
:1056C300700302560B7C087D0079FF7401120E599A
:1056D30012165C7401120E617A007B0079AB121F03
:1056E300C274191210D974FC801512578AE064032E
:1056F3007004A3E06401700874191210D974FFF0E8
:10570300E4F508F5097808120DBD7402120E6174F0
:10571300131210D9AA82AB8312626C120DD08521A9
:1057230082852283E0602B7409120E51880889094F
:105733007808120DBD7508137509007808120DBDA0
:105743007C007D00126ADF120DD08006E50C450D4A
:105753006007AA0CAB0D121710EEFAEFFB1217102D
:105763008003750B10A90B741C02775FEE2406FAF5
:10577300E43FFB12180C22EE240C1257FE22EE24F7
:10578300201257FE640122EE1252C13FF58322E537
:1057930008240EF582E43509F583E0221257A4A309
:1057A30022E08E828F8322A3E0F91220E822E054C4
:1057B300036401221257BB22E0FAE82AF8E434001A
:1057C300F9228E828F83A3A3A31261331257BBEEF8
:1057D30024161257FE1257E0FCE439FD22FAE82A98
:1057E300F8E439F9E82404221257EF221266A6A33B
:1057F300A3A322F01257FB22EE240FF582E43FF518
:1058030083E0227901020D8074F4120829EAFEEB89
:10581300FF8A82F583A3A3A3A3A3A3A3A3124B206D
:105823002424F582E438F5831257B1702E8A828BD3
:105833008312544070251258D9E06405701D125824
:10584300D9A3E0F874016860057406687007125202
:10585300F3740280051252F37403F0EA240A12610E
:10586300DA126143E4F0EA2408F8E43F1231C92470
:1058730031F582E43AF583E0C0E0126E7AA3A3D057
:10588300E01258F8CA242EF582E43AF583E0C0E02A
:10589300126E7AA3A3A3D0E0125E1EC81258D338A7
:1058A30012406C126E7A1258ED8A0A8B0BAC0AAD59
:1058B3000B850882850983125D8412180C85088282
:1058C300850983124D281220A61261D5F00231DF1B
:1058D300240BF582E4228A828B83A3A3A3A3A3A32D
:1058E300A3A312666CF583888222A3A3A3A3124BFE
:1058F300BF12221422125D60FAA3E022025806C0EE
:1059030082C08390187074ECF0A3741FF090187227
:1059130074F8F0A3741FF090187474FEF0A3741F4E
:10592300F090187674F2F0A3741FF0025C0974F41B
:10593300120829EA2408FEE43BFF8E82F583125203
:10594300DD126119E0F50874035508F509125D7F4E
:10595300F8A3E08882F583E508F0A3A882A983E58C
:10596300096009740265096003025A1E740C550824
:10597300FC600A74086C600574046C70267402651C
:10598300097006E508A2E4401A8A828B83A3A3A3C5
:10599300A3A3A3A3A3125B241268723D125ABFA34D
:1059A30008A983740C6C701C125B202428125B0CF6
:1059B3002428F582E43DF583A31264A0F0E82402D1
:1059C300F8500109740265097006E508A2E4404B2A
:1059D300125B20242A125B0C242AF582E43DF58312
:1059E300A3125ACE125B2A1264A0125B2AA3125A84
:1059F300C6E82404F8500109EC600F74086C600ACF
:105A0300740C6C600574046C70111261502426F5DB
:105A130082E43C125ABFA3A882A9838A828B83A300
:105A2300A3A3A3A3A3A3A3125AEE54037014E508DC
:105A3300A2E1400E126150125AB93CF583E0548042
:105A43006008125AD4125AC18019901844E0C0E079
:105A5300125AD4D0E0125B0188828983125B01045D
:105A6300125D65A3A882A983E508A2E750458E824B
:105A73008F83125AEE88828983125B07125AF3547A
:105A83000360301261502434F582E43C12649EF0CA
:105A9300E508A2E1501D8A828B83A3A3A3A3A3A33A
:105AA300A3A31231CE2435F582E43A12649EA3F007
:105AB300E824030231DF241EF582E422F583125A1F
:105AC300CEF022125ACEA3A3A3F022E088828983C8
:105AD300228A828B83A3A3A3A3A3A3A3A3E0FCA3F0
:105AE300E0CC2432F582E43CF58322E0125AF3221F
:105AF300FCA3E0CC2425F582E43CF583E022F0907E
:105B03001844E0221266A2E022F582E43DF58312F6
:105B13005ACE125B19221266A6125B24228E828F42
:105B230083E0FDA3E0CD22A3125B19242CF582E4CC
