:020000040000FA
:0600000002110A02060DC8
:03001B0002076376
:03002B00020EDAE8
:0300330002099D22
:03004300020D8E1D
:0300530002054261
:03006B000209582F
:030073000207B8C9
:03007B0002097EF9
:100083000205A1010000000000F8FF07FFFF0000C8
:100093000D04000000030001FF0D5EC05EE10201DC
:1000A30053870155870D00AD03000000FF1214189C
:1000B300141E1400000000000024142A1430143607
:1000C300143C14421448140020FD000206FFFFFFF5
:1000D300FF1E14102700003A1C000000000000005F
:1000E300000000000000000000000000000000FF0E
:1000F300FF0201040000541A000000E8030000FF9F
:10010300FFA51A0188130000E803000064006400DF
:10011300B801A0BB0D00A0BB0D0002020207040141
:10012300051E02051E020A0A010108080103B80B95
:1001330002803E0102FEFFE8030A050001FFFF0201
:100143000A011401E002000000050301010F03008E
:100153000300030003000300030003000300030084
:1001630005000A00140028004F009E0000002B2EFB
:1001730000000000612D00000000FF000000FF00F0
:10018300121129604612111A603DE9687008F618C9
:10019300F618F618F622748067F71201B7090909F1
:1001A300748067F72212111A601D12112970051944
:1001B3001919801A120FF9701F120FBDC37003E6CD
:1001C300673319191940071818182208080874FF0B
:1001D300F618F618F618F622120FBD60171211B7AB
:1001E300702192F01211C07019501720F0140808F2
:1001F30008090909E7F61819E7F61819E7F61819AF
:10020300E7F6221211C060E6E869701F0808E624C9
:1002130080F608E436F618547FB47F0CE654806009
:1002230007F6E418F618F622181822E9C6CC08C611
:10023300CD08C6CE08C6CFC0E0E8C0E0EAC0E0EB18
:10024300C0E009E9F809E7FA09E7FBE6F918E6F877
:10025300C3EC98ED99EE9AEBC2E7F5F0EFC2E795A0
:10026300F0500E600CEBCFFBEACEFAE9CDF9E8CC07
:10027300F8EAA2E7D2E7FAEB33FB13F5F0EEA2E7D5
:10028300D2E7FEEF33FFC5F013A2E730E601B31365
:10029300C5F0C3C0E0C0F07F00C39BFB605E941851
:1002A300600F401D14601AD0E023F9D0E0F8020378
:1002B300898AF0E9486003D2F0E4AFF0FAF9F880F4
:1002C3003BEB30E40D89F0EA6003D2F0E4AFF0F9E0
:1002D300CAF8EB30E30D88F0EF6002D2F0AFF0E440
:1002E300CAC9F8EB54076014FBC3EA13FAE913F91C
:1002F300E813F8EF135002D2E0FFDBEDD0E0C0E0EB
:1003030030E739C3E49FFFF5F0EC98FC42F0ED9938
:10031300FD42F0EE9AFE42F0D0E0F9D0E0F8E5F0CD
:10032300607AE923F9EE20E742D8028067C3EF330E
:10033300FFEC33FCED33FDEE33FE80EAEC28FCEDFD
:1003430039FDEE3AFED0E023F9D0E0F84002801BFD
:10035300C3EE13FEED13FDEC13FCEF135002D2E0DA
:10036300FF08B800067F7F74FF802EEF3350178C91
:10037300F020F00260100CBC000C0DBD00080EBE96
:10038300000408E860DFE933E813FFEE2313FE4FB0
:100393004D4C8008E95480FFE4FEFDFCEE33EF335F
:1003A300F47004FCFD7E80D0E0FBD0E0FAD0E0F8EE
:1003B300D0E0CFC618CEC618CDC618CCC6F92200D9
:1003C30012111A604F1211296012E7548066F61257
:1003D3000FF970111211B7703B090909F4F618F6F9
:1003E30018F618F622120FBD70151211C00808086E
:1003F30060EAE6447FF618768018E4F618F62212CF
:1004030011C060161211B77012E4F608F608F60868
:10041300E65480F609090918181822EAC0E0EBC06F
:10042300E0ECC0E0EDC0E0E687F0A4FBACF008E64A
:1004330087F0A42CFCE435F0FA1809E687F0A42C25
:100443004B60027401CA35F0FCE433FB09E687F024
:10045300D2F7A42CCB35F0FC1908E687F0A42BCCFB
:1004630035F0FBE433FD0819E687F0D2E7A42C4A04
:10047300CB35F0CD3400FC09E687F0D2E7A42DCCD0
:1004830035F0FDE433FA0918E687F0D2F7A42CCD52
:1004930035F0CA3400FC08E687F0D2E7D2F7A42A85
:1004A300CC35F07A7E20E70B0ACB33CBCD33CDCCE2
:1004B30033CC33CB3350147004ED30E00ED2F1E47F
:1004C300CD3DCDCC3CCC3B5005DA05C2F1EB547F9E
:1004D300C63308E63392F0FBE73309E733C39A5098
:1004E3002D2B70190C0D4C4D70151806E608C333EF
:1004F300700D20F10AA2F013F6E418800B4024E4F7
:10050300F630F002768018F618F618F68024D33BFE
:1005130014501074FFA2F013F6187680E418F6183E
:10052300F6800FA2F013F618E63303F618ECF6186C
:10053300EDF6D0E0FDD0E0FCD0E0FBD0E0FA22C045
:10054300E074F11209BBA2AFE433F509D2AF85A77A
:1005530008AFA1EF5508FE74105E6006121682758F
:10056300A1EF74085E600812168875A1F78024EF66
:10057300A2E092F0E508A2E082F05017906198E0C3
:10058300F8900A2CE0C398A2D265D0335002E8F069
:1005930075A1FEE509A2E092AF7F02020A77C0E0EF
:1005A30074F21209BBA2AFE433FED2AF9061A4E0B0
:1005B300F8759B00E59158540860087591F7121679
:1005C300D68023E59158541060087591EF1216DC1C
:1005D3008014E591A2E092F0E8A2E082F05007E0F7
:1005E300C2E0F01218269061A3E0F8E5E95854043C
:1005F300600E1217FC75E9FB906193E0A2E640F2EE
:10060300EEA2E092AF7F01020A77C0E074F2120912
:10061300BBA2AFE433FED2AF9061A5E0F8E5BF58CB
:100623005404600675BFFB12183E80D412067A305C
:10063300F0391206BF803412067A20F01430E72B0B
:1006430074FFFCFBFA747F8022E4FCFBFA74808065
:100653001AB48008BC00F2BB00EF800F50EBF9E442
:10066300C39AFAE49BFBE49CFCE499C6CC18C6CB82
:1006730018C6CA18C6F922E4C9C608CAC608CBC632
:10068300D3330308CCC63392F0C3947F402E94181F
:100693004019C9B90704CACBCC225025C309CA33B0
:1006A300CACB33CBCC33CC33D9F422F4600DC9CCD1
:1006B300C313CB13CBCA13CAD9F6CC22E4FCFBFA7F
:1006C3002214FCFBFA22C3E498F8E499F912070A0E
:1006D3008026C3E49AFAE49BFBE920E7E912070AC0
:1006E300E498F8E499F922C3E498F8E499F9120735
:1006F3000AE498F8E499F9C3E49AFAE49BFB22EB41
:1007030020E7CFE920E7E0B90010BB0008E88AF052
:1007130084F8AAF022E4FBC8FA22EB70227B10C80B
:1007230033C8C933C9335007C39AC3DBF280069A6F
:1007330050012ADBEAC833F4C8C933F4C9FA227575
:10074300F008E4C833C8C933C933C99AC99B5004F4
:10075300C92AC93BD5F0ECFBC833F4C8E4C9FA2273
:10076300C0E0C0D0E8C0E0E9C0E0C082C083A8F91F
:10077300E8C0E0900999E0F8741828F582E4340998
:10078300F583D0E0F0900998E0F8A3E0687006E5FF
:100793009590099BF0900999E004F0C3948040027E
:1007A300E4F0A374C6F0D083D082D0E0F9D0E0F8AF
:1007B300D0D0D0E032C0E0C0D0E8C0E0E9C0E0C0B3
:1007C30082C083900A1CE0F8A3E0687008539AF78C
:1007D300A374018022C2EA900A1CE0F8740128F095
:1007E300749C28F582E43409F583E0F5F9900A1C3A
:1007F300E0C394804002E4F080AC080808EAC0E05B
:10080300EBC0E086F0E7A4FA180986F0E7A42AFA19
:10081300180986F0E7A42AFA180986F0E7A42AFA49
:100823001986F0E7A4FBE5F02AFA190886F0E7A495
:100833002BFBE5F03AFA190886F0E7A42BFBE5F069
:100843003AFA18180986F0E7A4C5F02BFBE43AFA44
:100853001908E7C5F0C6A426F6E5F03BFBE43AFA2F
:100863001886F0E7A4F6E5F00826F6E43B08F6E47C
:100873003A08F6D0E0FBD0E0FA22E4CFC0E0E4CEC1
:10088300C0E0E4CDC0E0E4CCC0E075F020E626F69D
:1008930008E633F608E633F608E633F6181818ECDC
:1008A30033FCED33FDEE33FEEF33FFC3EC9709ED7D
:1008B3009709EE9709EF97191919400FFFEC97FC69
:1008C30009ED97FD09EE97FE191906D5F0BFECF770
:1008D30009EDF709EEF709EFF7191919D0E0FCD084
:1008E300E0FDD0E0FED0E0FF222521C582C0E0E597
:1008F3002234FFC583C0E0E521C3958224F810AFFD
:10090300088583228582218008858322858221D2DE
:10091300AFCEF0A3E520F0A37808E608F0A3DEFA53
:10092300EFF0A3E58124FAF8E608F0A3E608F0A3C4
:10093300E608F0A30808E608F0A3E608F0A315818B
:100943001581D0E0FED0E0F8158115811581E8C04E
:10095300E0EEC0E022C0E074F21209BBA2AFE433C0
:10096300FED2AFE589A2E150031215A45389FDC25B
:10097300C5EEA2E092AF7F01020A77C0E0C0D0E8E3
:10098300C0E0A8A8D2AFE58A858A8AC2EBE8A2E7CD
:1009930092AFD0E0F8D0D0D0E032C0E074F21209C8
:1009A300BBA2AFE433FED2AFE58BA2E05003121536
:1009B300A4538BFEC2E880B9C0D02521C582C0E014
:1009C300E52234FFC583C0E0E521C3958224F310FB
:1009D300AF08858322858221800885832285822131
:1009E300D2AFC8F0A3E9F0A3EAF0A3EBF0A3790830
:1009F300E709F0A3D8FAECF0A3EDF0A3EEF0A3EF30
:100A0300F0A3D0E0F0A3D0E0F0A3D0E0F0A3E52082
:100A1300F0A3E5F0F0A322E9799EC608CAC608CB85
:100A2300C608CCC6C370207996CACBCC7019798E10
:100A3300CBCC70137986CC700EF9802ACA33CACB1B
:100A430033CBCC33CC331930E7F2CCCBCA3350148D
:100A53007004EA30E00DE4CA3ACACB3BCBCC3CCCC1
:100A6300500209C3E913C6CC182313C6CB18C6CA50
:100A730018C6F922852283852182E0C0E0A3E0F92C
:100A8300A3E0FAA3E0FBA37808E0F608A3DFFAE00B
:100A9300FCA3E0FDA3E0FEA3E0FFA3E0C0E0A3E02E
:100AA300C0E0A3E0F5D0A3E0F520A3E0A3F5F010A8
:100AB300AF08858322858221800885832285822150
:100AC300D2AFD082D083D0E0F8D0E0321211A2B9F5
:100AD3000003020B0EE49003017841791B8002F0BE
:100AE300A3D8FCD9FA7A417B1D90008678FE790160
:100AF3008015E493A3AD82AE838A828B83F0A3AA8D
:100B030082AB838D828E83D8E9D9E77582C97583D9
:100B13007D7400120E517582EC75832A7400120ED7
:100B23005175F0108E238F24858228858327852194
:100B330082852283E0CEA3E0CF852882852783EBBD
:100B4300C9EAC8EDCBECCAC3E833C8E933C9EA3311
:100B5300CAEB33CBC3EA9EF526EB9FF525B35004CE
:100B6300AB25AA26EC33CCED33CDD5F0DAAE23AFEB
:100B7300242212111A601C12112960171211C0705D
:100B8300071211B77001D322C0D01211B77006D06B
:100B9300D0B322C32233D0D0501430E0F6C3E7964B
:100BA3000809E7960809E7960809E796B32220E0C3
:100BB300D5E6970809E6970809E6970809E697B383
:100BC30022D083D082ECC0E0EDC0E0E493A3FCE448
:100BD30093A3FDED4C600D120C9CEC24FFFCED3453
:100BE300FFFD80EFE493A3FCE493A3FDED4C600DC4
:100BF300120D39EC24FFFCED34FFFD80EFD0E0FD56
:100C0300D0E0FCE493A3C0E0E493C0E022D083D01F
:100C130082E9C0E0E493A3C386F0C5F095F0F90838
:100C2300E493A386F0C5F095F0700BE493A3C39906
:100C33004005E9048002A3E475F002A42582F5824D
:100C4300E5F03583F583D0E0F9E493A3C0E0E493C2
:100C5300C0E022852283852182E0A3FEE0A3F52064
:100C63007808E0A3F608DFFAE0A3FFE0A3C0E0E022
:100C7300A3C0E0E0A3C0E0E0A3C0E0E0A3C0E010B5
:100C8300AF0885822185832280088582218583227E
:100C9300D2AFD083D082020E57C0E0C3E49396084C
:100CA3007401939618400FE49366700808740193D7
:100CB300661870007019A3A3C3E493960874019394
:100CC3009618A3A3400DD0E0D0E0D0E0020C00A31F
:100CD300A3A3A3A3A3D0E02274048004740280001E
:100CE300CCC0E0EDC0E0E521C39CCCAD2250011D9A
:100CF30010AF068C218D2280068C218D22D2AF125B
:100D03000DD3D0E0FDD0E0FC2274028000CCC0E023
:100D1300EDC0E0E521C39CCCAD2250011D10AF0610
:100D23008C218D2280068C218D22D2AF120DB1D061
:100D3300E0FDD0E0FC22C0E0C0F088F0E4936670F0
:100D4300080874019366187000A8F0A3A3700BD071
:100D5300F0D0E0D0E0D0E0020C00A3A3D0F0D0E0CC
:100D630022D083D082CCC0E0E493A36006120E139A
:100D73001470FAE493A36006120F531470FAD0E0D0
:100D8300FCE493A3C0E0E493C0E022C0E074F21259
:100D930009BBA2AFE433FED2AFC2C0E5D1A2E45097
:100DA300031215ECEEA2E092AF7F01020A77CAC0EC
:100DB300E0E493A3C582CCC582C583CDC583F0A3EC
:100DC300C582CCC582C583CDC583DAE5D0E0CA220E
:100DD300CAC0E0E0A3C582CCC582C583CDC583F07C
:100DE300A3C582CCC582C583CDC583DAE6D0E0CA6C
:100DF30022C008C3E096F50808A3E096420808A3BA
:100E0300E096420808A3E09645087001D3D0082273
:100E1300C0E0E493A3D39C5010E493A3C39C400A83
:100E2300D0E0D0E0D0E0020D81A3A3A3D0E02270F4
:100E330009080808226016181818C6C333C608C65E
:100E430033C608C633C608C633C6D5E0EA22C09FF8
:100E5300F59FE473D09F22D083D082C09FE493C0D8
:100E6300E0740193C0E0740293F59F222521F5827B
:100E730010AF08F521400C15228008F5214002151A
:100E830022D2AF852283227404800A7403800674FD
:100E93000280027401C0E0F404120E6FD0E012115C
:100EA300652200C0D0252110AF08F521500C052282
:100EB3008008F52150020522D2AFD0D022BB010217
:100EC300E722C082C08389828A83BB0003E0800259
:100ED300E493D083D08222C0E0C0D0E8C0E0A8A8C9
:100EE300D2AFC2C7E8A2E792AFD0E0F8D0D0D0E04B
:100EF300326016080808C6C313C618C613C618C638
:100F030013C618C613C6D5E0EA22C3E0C696F60890
:100F1300A3E0C696F608A3E0C696F608A3E0C69635
:100F2300F6222521F8E43522F9222521FAE4352297
:100F3300FB222521FCE43522FD22252110AF08F5F3
:100F430021400C15228008F52140021522D2AF2240
:100F5300C0E0E493A36C7009D0E0D0E0D0E0020DD0
:100F630081A3A3D0E022E76670100809E766700A40
:100F73000809E76670040809E76622E0667010084E
:100F8300A3E066700A08A3E066700408A3E0662283
:100F9300C3E7960809E7960809E7960809E796A2C2
:100FA300D265D03322C3E09608A3E09608A3E09667
:100FB30008A3E096A2D265D03322191919E709478D
:100FC300097009E727097005E733F4220922C3E012
:100FD30096F008A3E096F008A3E096F008A3E09645
:100FE300F022C3E697F60809E697F60809E697F6AE
:100FF3000809E697F622181818E60846087009E665
:1010030026087005E633F4220822C3E49396087495
:101013000193960874029396087403939622E0262C
:10102300F608A3E036F608A3E036F608A3E036F6A2
:1010330022E627F60809E637F60809E637F608092F
:10104300E637F622700422600D18C6C333C608C6FD
:1010530033C6D5E0F41822E647F60809E647F60852
:1010630009E647F60809E647F622E657F60809E6D1
:1010730057F60809E657F60809E657F622E026F080
:1010830008A3E036F008A3E036F008A3E036F02228
:10109300E056F608A3E056F608A3E056F608A3E0E8
:1010A30056F622E056F008A3E056F008A3E056F007
:1010B30008A3E056F022E4C396F608E496F608E4A3
:1010C30096F608E496F622600D08C6A2E713C61842
:1010D300C613C6D5E0F322C6F4C608C6F4C608C6CE
:1010E300F4C608C6F4C622C3E09608A3E09608A394
:1010F300E09608A3E09622C3E7960809E796080955
:10110300E7960809E7962275D00075813F7521019E
:1011130075220300020ACFE6084608C313460833C4
:101123006002E633F422E7094709C3134709336032
:1011330002E733F422600C08C6C313C618C613C6ED
:10114300D5E0F422E6F008A3E6F008A3E6F008A34E
:10115300E6F022E0F608A3E0F608A3E0F608A3E031
:10116300F622CAC0E0E6F0A308DAFAD0E0FA22E0F9
:10117300FAA3E0FBA3E0FCA3E0FD22EAF0A3EBF07B
:10118300A3ECF0A3EDF022E0F8A3E0F9A3E0FAA3C7
:10119300E0FB22E8F0A3E9F0A3EAF0A3EBF022E5F9
:1011A300C754F84401F5C77901222521F582E435B6
:1011B30022F58322E72719471947194722E62618FC
:1011C300461846184622C2AF75D69F020000221267
:1011D3000E5A83D802120E5A01DB02120E5AADDBED
:1011E30002120E5ADDDB02120E5A42DC02120E5AB2
:1011F300D6DC02120E5A89DD02120E5ADADD021211
:101203000E5A1EDE02120E5AB8DE02120E5A25DFE5
:1012130002120E5A54DF02120E5A5AE002120E5AEA
:101223007EE002120E5AD2E002120E5AA6E1021218
:101233000E5AD1E302120E5A7FE402120E5AF4E65A
:1012430002120E5A79E702120E5AF0E902120E5AEE
:1012530026EC02120E5A6AEC02120E5AC3ED021267
:101263000E5AD6ED02120E5A1BEE02120E5AE7EF79
:1012730002120E5A9BB703120E5ADAB703120E5A12
:1012830046B803120E5ACCB803120E5A4EB90312C3
:101293000E5AB1B903120E5A28BB03120E5A0ABDD5
:1012A30003120E5ACCBD03120E5A8DBF03120E5AEF
:1012B3001DC103120E5A1DC203120E5A75C2031228
:1012C3000E5A49C303120E5A11C403120E5A29C5EA
:1012D30003120E5A24C603120E5A8CC703120E5A57
:1012E3006FCA03120E5A8ACB03120E5ACDCC0312C5
:1012F3000E5AAECD03120E5A54CF03120E5AF7D024
:1013030003120E5A4AAA04120E5A67AB04120E5A5B
:10131300BCAB04120E5A0EAC04120E5A7DAC04126E
:101323000E5A79AD04120E5A02AE04120E5A34AE9E
:1013330004120E5A5BAE04120E5A82AE04120E5AF7
:10134300E4AE04120E5AB6AF04120E5A48B0041299
:101353000E5A79B104120E5AA5B104120E5AACB149
:1013630004120E5A01B204120E5A2EB204120E5A6D
:10137300ECB204120E5A34B304120E5A5DB40412C2
:101383000E5A9DB404120E5ADEB404120E5A1AB544
:1013930004120E5A07B604120E5A2CB604120E5A31
:1013A30052B604120E5A93B604120E5AAEB6041273
:1013B3000E5A08B704120E5A0FB904120E5A55B931
:1013C30004120E5A83B904120E5AE7B904120E5AC4
:1013D30004BB04120E5A008003120E5A65800312D6
:1013E3000E5A6F8003120E5A648103120E5AD38170
:1013F30003120E5A4E8203120E5AB98203120E5A68
:10140300248B03120E5A778B03120E5AAD8D0312DF
:101413000E5AC08D03120E5A938E03120E5ADD8E8E
:1014230003120E5A2D8F03120E5A8F9003120E5A67
:101433000B9103120E5AB19203120E5AAA9403127D
:101443000E5AF39403120E5A769503120E5AFF9511
:1014530003120E5A269603120E5ABA9603120E5A06
:10146300F29703120E5AE49903120E5A4F9C031279
:101473000E5A7CCC05120E5ABBCC05120E5AE2F161
:1014830001120E5A5EF201120E5A91F201120E5A15
:10149300BFF201120E5AFDF201120E5A3AF5011271
:1014A3000E5A59F501120E5A9EF501120E5A34F6D0
:1014B30001120E5A80F601120E5A14F701120E5A37
:1014C300EDF701120E5A49F801120E5AA7F801124C
:1014D3000E5A1AF901120E5A5EF901120E5AB6F992
:1014E30001120E5AD8F901120E5A68FA01120E5A55
:1014F300F9FA01120E5A45FB01120E5A71FB011241
:101503000E5AB2FB01120E5A48FD01120E5A34FE56
:1015130001120E5A0FFF01120E5A30C505120E5A50
:1015230033C505120E5A91C505120E5AE5C50512AB
:101533000E5A07C605120E5AF0C805120E5A01C9F3
:1015430005120E5A9FC905120E5AAAC905120E5A40
:10155300C4C905120E5AF27F00120E5AE9FF011296
:101563000E5A73CA05120E5A83CA05120E5A9BCA23
:1015730005120E5A03CB05120E5A2BC305120E5A2F
:10158300AFC305120E5A17C405120E5A2BFF0412CD
:101593000E5A4FFF04120E5A75FF04120E5A86FF9D
:1015A30004120E5AD0FF04120E5A07AD05120E5A3A
:1015B30015AD05120E5A8EAD05120E5A67AE051201
:1015C3000E5A2AB005120E5AC2FF03120E5AF286A1
:1015D30005120E5A5E8705120E5AFC8705120E5A23
:1015E300E98805120E5A5E8A05120E5AC58A05123B
:1015F3000E5A128B05120E5AAC8B05120E5A308CF2
:1016030005120E5A658C05120E5A838C05120E5A5A
:10161300098D05120E5A288D05120E5A21930512B3
:101623000E5A4D9305120E5AB79505120E5AF79599
:1016330005120E5A339605120E5A479605120E5A84
:10164300609605120E5A529705120E5A0598051206
:101653000E5A199805120E5A77FE02120E5A9BFE65
:1016630002120E5AB4FE02120E5AF2FE02120E5A61
:1016730022FF02120E5A4FFF02120E5AB5FF021238
:101683000E5AB8FF02120E5AC2FF02120E5ACFFFB1
:1016930002120E5A70B905120E5A90B905120E5A5B
:1016A300CFB905120E5AEDB905120E5A08BA051232
:1016B3000E5A6EBA05120E5A7ABA05120E5AD7BAD4
:1016C30005120E5AE6BA05120E5A0ABB05120E5A35
:1016D300CBBB05120E5AD8BB05120E5AE9BB051235
:1016E3000E5A90CB05120E5AD8CB05120E5A04CCC3
:1016F30005120E5A6F9805120E5AC99905120E5A01
:10170300D79905120E5AEA9905120E5AFF99051236
:101713000E5A149A05120E5A279A05120E5AA39AB4
:1017230005120E5A089B05120E5A9E9B05120E5A5D
:10173300779C05120E5A879C05120E5A969C051229
:101743000E5ADAC905120E5AFEC905120E5A26CAD6
:1017530005120E5A4ECA05120E5A17BC05120E5A1E
:101763003EBC05120E5A5CBC05120E5ACBBC0512C8
:101773000E5A9DB605120E5AB6B605120E5AC2B6C9
:1017830005120E5AD6B605120E5AF4B605120E5AA3
:10179300FEB605120E5A08B705120E5A1BB70512EC
:1017A3000E5AA1B705120E5A16B805120E5A45B8AD
:1017B30005120E5A93B805120E5AE2B805120E5AC4
:1017C300FDB805120E5A07B905120E5A18B90512BB
:1017D3000E5A5BB905120E5AB2CD05120E5AD3EC4E
:1017E30004120E5AFFEC04120E5A1CED04120E5A88
:1017F3002FED04120E5A4AED04120E5AA4ED0412F0
:101803000E5AD2ED04120E5AE2F104120E5A40F3AC
:1018130004120E5A72F304120E5AD5F304120E5A1E
:1018230041F504120E5A69F504120E5A7EF504129C
:101833000E5A8EF504120E5ACEF504120E5A10F6F5
:1018430004120E5A20F604120E5AFBC105120E5A48
:1018530015C205120E5A3DC205120E5A56C2051282
:101863000E5A7AC205120E5A98C205120E5AAFC208
:1018730005120E5ADDC205120E5AF8C205120E5A8F
:10188300AE7F00120E5A7EA905120E5A8EA90512BA
:101893000E5A93AA05120E5AC5AA05120E5AF5AA94
:1018A30005120E5A18AB05120E5A2FAB05120E5A1B
:1018B30069AB05120E5ACEAB05120E5A10AC0512C7
:1018C3000E5A57AC05120E5A84AC05120E5AAFAC21
:1018D30005120E5AD5FD04120E5AE7FD04120E5AD4
:1018E300FBFE04120E5AFEFE04120E5A1EC7051208
:1018F3000E5A54C705120E5A6CC705120E5AAEC7BC
:1019030005120E5ABEC705120E5A02C805120E5A08
:10191300008005120E5A438005120E5AA880051244
:101923000E5AC78005120E5A698105120E5A72812A
:1019330005120E5AC38105120E5AEC8105120E5A76
:10194300F98105120E5A6B8205120E5AF98205129D
:101953000E5A3E8305120E5A778305120E5ADC8304
:1019630005120E5A058405120E5A7C8405120E5A6E
:10197300CB8405120E5A088505120E5A3D850512B1
:101983000E5A4F8505120E5A618505120E5A80852F
:1019930005120E5A898505120E5A458605120E5AEE
:1019A300888605120E5AC68605120E5AAAC005125B
:1019B3000E5AEAC105120E5A55CD05120E5A6CBEC7
:1019C30005120E5AA2BE05120E5AEABE05120E5A8F
:1019D30043C005120E5A2F9604120E5A559704123D
:1019E3000E5A919704120E5A4F9904120E5A7D996A
:1019F30004120E5AE79B04120E5A279C04120E5A25
:101A0300C99D04120E5A5F9E04120E5AB99E041207
:101A13000E5A499F04120E5A8D9F04120E5ACF9FDD
:101A230004120E5A34A104120E5AB4A204120E5A0E
:101A3300F5A404120E5A23A504120E5A4FA504123C
:101A43000E5A58A504120E5AB5A504120E5A4EA6E4
:101A530004120E5A65A904120E5AEBA904120E5A67
:101A6300E9CC05120E5AFFCC05120E5A79A50512C0
:101A73000E5A8FA505120E5A33A605120E5A72A6D8
:101A830005120E5A8FA605120E5AC0A605120E5A3B
:101A93000DA705120E5A41A705120E5A7CA705126F
:101AA3000E5A71A905120E5A30C405120E5A8FC46C
:101AB30005120E5ACDC405120E5A0EC505120E5A42
:101AC30050F604120E5A66F604120E5A1AF704124E
:101AD3000E5A49F804120E5A0FF904120E5AACF9B1
:101AE30004120E5AE7F904120E5AF7F904120E5AA9
:101AF3001EFA04120E5A70FA04120E5AD9FB04127B
:101B03000E5ADEFB04120E5A00FC04120E5AC9C40C
:101B130001120E5AD5C401120E5A37C501120E5ABC
:101B230041C501120E5AD0C501120E5A0CC601123C
:101B33000E5AFEC601120E5A11C701120E5A6EC773
:101B430001120E5AFCC701120E5A4DC801120E5A49
:101B5300CDC801120E5AB1CA01120E5AB6CC0112E7
:101B63000E5AB0CD01120E5AE2CE01120E5A34D1E2
:101B730001120E5A77D201120E5A1CD301120E5AB9
:101B830013D801120E5A09D901120E5A9FD9011204
:101B93000E5AC4D901120E5A61DA01120E5A7EDAB4
:101BA30001120E5A9EDA01120E5A0CDB01120E5A62
:101BB30029DB01120E5A57DB01120E5AEFDC011218
:101BC3000E5A10DD01120E5AB6DD01120E5AFEDD59
:101BD30001120E5A5EDE01120E5A05DF01120E5A71
:101BE3006ADF01120E5ACFDF01120E5A80E0011292
:101BF3000E5AEFE001120E5A2AE101120E5A9EE12B
:101C030001120E5AE9E201120E5A79E401120E5A38
:101C130018E501120E5A58E701120E5ABAE70112DB
:101C23000E5AE8E701120E5A01EA01120E5AAEECFF
:101C330001120E5AC1ED01120E5A9EF102120E5AF2
:101C4300B2F102120E5AF9F102120E5AF0F3021215
:101C53000E5A10F402120E5A30F402120E5A7BF589
:101C630002120E5A6AF802120E5A06FB02120E5A9A
:101C730093FB02120E5A59FD02120E5AD9FD02129B
:101C83000E5A66FE02120E5A2FC605120E5AEBC6E4
:101C930005120E5A01C705120E5A358D05120E5A3A
:101CA300C28D05120E5A3B8E05120E5AD68E0512A0
:101CB3000E5A268F05120E5AFA8F05120E5A739179
:101CC30005120E5A29C805120E5A23EA03120E5A98
:101CD30052EA03120E5ACAEA03120E5AD9EB03123E
:101CE3000E5A35EC03120E5ABBED03120E5AD7ED02
:101CF30003120E5A29EE03120E5A67EE03120E5AFE
:101D03007AEE03120E5AD2EE03120E5A94EF031216
:101D13000E5A10F003120E5A47F003120E5A7FF0B8
:101D230003120E5A07F203120E5AE6F203120E5A68
:101D330034F403120E5A17F503120E5AA3F50312C5
:101D43000E5AE3F503120E5A02F603120E5A4DF61B
:101D530003120E5A63F603120E5A7AF603120E5A40
:101D630013F703120E5A99F703120E5AF4F70312DC
:101D73000E5A34F803120E5AB4E804120E5AE3FB57
:101D830003120E5A29FC03120E5A1EFD03120E5A99
:101D930046FD03120E5A49FD03120E5A53FD031258
:101DA3000E5A6FFD03120E5AE9FD03120E5A22FE5C
:101DB30003120E5A3EFE03120E5A6AFE03120E5A05
:101DC30091FE03120E5AB5FE03120E5A26FF03129A
:101DD3000E5A39FF03120E5A53FF03120E5A74FFA1
:101DE30003120E5AA3FF03120E5A07CC05120E5A02
:101DF30013CC05120E5A2AD502120E5AF57F001281
:101E03000E5A008004120E5A238004120E5A708157
:101E130004120E5AB98104120E5A258204120E5A64
:101E2300838204120E5A868204120E5AD782041237
:101E33000E5A4C8304120E5AD18304120E5AD483C1
:101E430004120E5A558404120E5A968404120E5A22
:101E5300828804120E5A2C8A04120E5A7C8A0412A7
:101E63000E5A038E04120E5A368F04120E5AB09075
:101E730004120E5A4D9104120E5A389204120E5A3D
:101E83008D9404120E5A0FBB04120E5AB9BB0412DE
:101E93000E5A24BC04120E5A3FBC04120E5AC4BC80
:101EA30004120E5A1EBD04120E5A65BD04120E5AB8
:101EB300CCBD04120E5A4BBF04120E5A7AC0041240
:101EC3000E5A02C104120E5A0BC304120E5AB8C39F
:101ED30004120E5A5CC404120E5A2DC504120E5A73
:101EE300E8C604120E5A80C804120E5A13C904120B
:101EF3000E5A39CA04120E5A689C03120E5ACB9C0E
:101F030003120E5A139D03120E5A579D03120E5AB3
:101F1300B29D03120E5A0F9E03120E5A4A9E0312CB
:101F23000E5ACC9E03120E5A269F03120E5AA4A0D9
:101F330003120E5A24A103120E5A7FA103120E5A42
:101F430099A103120E5ABAA103120E5A14A2031234
:101F53000E5A90A403120E5AAFA403120E5A9FA551
:101F630003120E5AD2A603120E5A51A703120E5A87
:101F73008DA703120E5AFCA703120E5AB1A803121F
:101F83000E5A89AA03120E5A90AB03120E5A08ADC9
:101F930003120E5AFEAE03120E5A74B103120E5AF6
:101FA3004EB303120E5A0FB403120E5A87B4031220
:101FB3000E5A9EB403120E5A95B503120E5A89B6E1
:101FC30003120E5AF8B603120E5AABB305120E5A89
:101FD30002B505120E5AC1B505120E5A29B60512DD
:101FE3000E5A6FB005120E5A8AB005120E5ACEB0B1
:101FF30005120E5AF4B005120E5A1BB105120E5AF1
:1020030033B105120E5AD5B105120E5AEAB10512B3
:102013000E5AFFB205120E5A1AB305120E5A23B303
:1020230005120E5A2CB305120E5A35B305120E5A69
:102033003FB305120E5A65B305120E5AC79C05121B
:102043000E5AD3A005120E5AD8A005120E5ADAA0C2
:1020530005120E5A3B7E00120E5AFDCD05120E5A82
:1020630041A105120E5AD9FF02120E5A0DCB0512C9
:102073000E5A37CB05120E5A48AC02120E5A7BACDD
:1020830002120E5AE7AC02120E5A82AD02120E5A17
:102093001FAE02120E5A64AE02120E5A86AE02121E
:1020A3000E5A9FAE02120E5AC5AE02120E5AE7AE78
:1020B30002120E5A25AF02120E5A69AF02120E5ABD
:1020C3008BAF02120E5AEDAF02120E5AB4B00212C7
:1020D3000E5A6BB102120E5ADDB102120E5AA8B299
:1020E30002120E5AFBB202120E5A61B302120E5AB8
:1020F3009BB302120E5AEDB302120E5A5BB40212D4
:102103000E5AC6B402120E5AC9B402120E5A4AB576
:1021130002120E5AE1B502120E5A42B602120E5ABA
:1021230032B702120E5A51B702120E5AB5B8021242
:102133000E5AC2B802120E5ACEB902120E5ADBB9A7
:1021430002120E5AE4B902120E5ABCBB02120E5A04
:10215300D6BC02120E5A4FBD02120E5AC1BD021254
:102163000E5AE3BD02120E5A77BE02120E5A4BC02C
:1021730002120E5A22C402120E5A36C402120E5A08
:1021830046C402120E5A50C402120E5A59C4021205
:102193000E5A62C402120E5A6CC402120E5A99C429
:1021A30002120E5AC2C402120E5ACDC402120E5AA1
:1021B300F1C402120E5A15C502120E5A7FC502123D
:1021C3000E5AC5C502120E5AE2C502120E5A5FC656
:1021D30002120E5A96C602120E5AD5C602120E5A91
:1021E30022C702120E5AA8C702120E5A76C9021249
:1021F3000E5A0BCA02120E5AEFCA02120E5A56CDCB
:1022030002120E5AAFCD02120E5AF9CD02120E5A15
:1022130054CF02120E5A92CF02120E5AE4CF021278
:102223000E5A99D002120E5A48D102120E5A85D173
:1022330002120E5A1AD202120E5A86D202120E5AE3
:10224300FE3000120E5A303100120E5A5E31001267
:102253000E5A343300120E5A143400120E5A6C34D0
:1022630000120E5AA73500120E5AF33500120E5AF9
:102273001C3900120E5A0F3C00120E5A5F3D001219
:102283000E5AF53D00120E5A013E00120E5A333E0D
:1022930000120E5AB63F00120E5A674100120E5A30
:1022A300FB4100120E5A3E4200120E5ABC4200126B
:1022B3000E5AD94200120E5A094300120E5A3E43D7
:1022C30000120E5A0E4400120E5AB74400120E5A50
:1022D3003D4700120E5A5D4800120E5A484900123B
:1022E3000E5ACA4900120E5AFE4D00120E5A3B4EA8
:1022F30000120E5A934E00120E5AC64E00120E5A78
:10230300304F00120E5A664F00120E5AF14F001250
:102313000E5A495000120E5A205100120E5AD9512A
:1023230000120E5A745200120E5A7C5500120E5AA5
:10233300985600120E5A3B5A00120E5A2F5B001287
:102343000E5A325B00120E5A615B00120E5A675D21
:1023530000120E5A405E00120E5A835E00120E5A8D
:10236300D95F00120E5A186000120E5AA1600012B3
:102373000E5AD56000120E5A9A6100120E5AB263B9
:1023830000120E5A236400120E5A636400120E5A8E
:10239300F16400120E5A136600120E5AD56600122B
:1023A3000E5ADC6800120E5AF46800120E5A0869BD
:1023B30000120E5A406900120E5A6E6900120E5A2C
:1023C300ED6A00120E5A126C00120E5A6F6C001254
:1023D3000E5A216D00120E5A486D00120E5A0F6EDE
:1023E30000120E5AA76E00120E5ACD7000120E5A2A
:1023F300027100120E5A657100120E5A9472001285
:102403000E5A3C7300120E5A6D7300120E5A8573E6
:1024130000120E5A147400120E5AC87600120E5A85
:10242300A07800120E5ABC7800120E5AD878001207
:102433000E5AA67900120E5A997D00120E5AA77DE4
:1024430000120E5A618701120E5A938701120E5A17
:10245300828B01120E5ACE8B01120E5A148C01126A
:102463000E5AB68C01120E5A128D01120E5A578D46
:1024730001120E5A9E8E01120E5AB28F01120E5A7B
:10248300A19301120E5A259401120E5A329501128C
:102493000E5A8E9501120E5A7E9701120E5AF39719
:1024A30001120E5AFD9701120E5A0A9801120E5A82
:1024B300359801120E5A1C9901120E5AC69901122F
:1024C3000E5A449A01120E5A699A01120E5A929A9E
:1024D30001120E5AB49A01120E5A149D01120E5A89
:1024E300DA9D01120E5A1F9E01120E5A9C9E011272
:1024F3000E5A4D9F01120E5A7F9F01120E5AC59F0D
:1025030001120E5A01A001120E5A51A001120E5AC5
:10251300A5A001120E5AFBA001120E5A47A10112E7
:102523000E5AB4A101120E5A2FA201120E5AFAA387
:1025330001120E5AFAA401120E5A1FA601120E5AC4
:102543005EA901120E5A71AC01120E5A2EAD011280
:102553000E5A72AD01120E5A22AF01120E5A36AF45
:1025630001120E5A40AF01120E5A4AAF01120E5A0F
:1025730056AF01120E5A72AF01120E5A1DB001125C
:102583000E5A5CB001120E5A66B001120E5A70B0A8
:1025930001120E5AE0B001120E5A2BB101120E5A5B
:1025A30040B201120E5A9CB201120E5A1DB301120F
:1025B3000E5ADCB301120E5AE5B401120E5A19B6C3
:1025C30001120E5A07B701120E5A1FB701120E5A03
:1025D3007AB701120E5A84B701120E5AA2B701122A
:1025E3000E5AEAB701120E5A11B801120E5AACB8BC
:1025F30001120E5A72B901120E5A04BA01120E5A7E
:102603007EBA01120E5A98BB01120E5A45BC011232
:102613000E5AC1BC01120E5ACFBD01120E5A1FBE73
:1026230001120E5A83BE01120E5AE5BE01120E5A52
:1026330013BF01120E5A37BF01120E5A6CBF01129B
:102643000E5A9DBF01120E5AD0BF01120E5AF0BF8F
:1026530001120E5A58C001120E5A4CC101120E5AE1
:10266300A7C101120E5AD0C101120E5A58C201124B
:102673000E5ADBC201120E5A06C301120E5AEBC3E5
:1026830001120E5A61D704120E5A99D704120E5A28
:10269300BAD704120E5AFCD704120E5A5ED804128B
:1026A3000E5A68D804120E5A78D804120E5AB3D8A8
:1026B30004120E5AE5D804120E5AC5DC04120E5A3F
:1026C300B2DE04120E5A98E004120E5A2FE10412DD
:1026D3000E5AD1E104120E5A248102120E5AA2811B
:1026E30002120E5AFE8102120E5A498202120E5A29
:1026F300648202120E5A8F8202120E5AAC820212A6
:102703000E5AB88202120E5A4F8402120E5A68846D
:1027130002120E5AED8402120E5A008502120E5A4C
:102723001F8502120E5AC38502120E5A44870212E3
:102733000E5AF78802120E5A8D8902120E5A908988
:1027430002120E5A008A02120E5A1E8A02120E5AE0
:10275300B58A02120E5AFD8A02120E5A008B021219
:102763000E5AC68B02120E5A338C02120E5A598C11
:1027730002120E5AE48C02120E5A028D02120E5AE3
:10278300488D02120E5AFC8D02120E5A468E021208
:102793000E5A758E02120E5AD28E02120E5A078FDD
:1027A30002120E5A338F02120E5A418F02120E5A20
:1027B3008E8F02120E5AFE8F02120E5A4790021289
:1027C3000E5A939002120E5ABF9002120E5ACA90DA
:1027D30002120E5AE89002120E5AD39102120E5AA6
:1027E300DD9102120E5A189202120E5A2892021208
:1027F3000E5A319202120E5A859202120E5A999271
:1028030002120E5AC89302120E5ADB9302120E5A88
:10281300F09302120E5A7E9402120E5AC3940212BD
:102823000E5A4F9502120E5A5A9502120E5A9C9640
:1028330002120E5AB79602120E5A039702120E5A3A
:10284300729702120E5AAB9702120E5AC5970212D2
:102853000E5A079802120E5AD79A02120E5A849BE6
:1028630002120E5AF19B02120E5A319E02120E5A96
:10287300499E02120E5A4C9E02120E5A589E021282
:102883000E5A6C9E02120E5A749E02120E5AA79E84
:1028930002120E5AA99F02120E5A30A002120E5AA9
:1028A300A0A002120E5A22A102120E5AE3A1021292
:1028B3000E5A02A202120E5AA3A202120E5A00A329
:1028C30002120E5A03A302120E5A77A302120E5AD1
:1028D300C6A402120E5ACCA502120E5A57A6021211
:1028E3000E5A72A702120E5A3AA802120E5A6BA877
:1028F30002120E5A8EA802120E5A97A802120E5AEC
:10290300C6A802120E5A56A902120E5A0CAA021295
:102913000E5A81AA02120E5A28AB02120E5A9DAB0E
:1029230002120E5AD4AB02120E5A12AC02120E5AF3
:10293300A0E804120E5AFDE704120E5AFDE6041233
:102943000E5A16E604120E5A06E404120E5A14E343
:1029530004120E5AB2E204120E5A0FEA03120E5A6E
:10296300E0E903120E5AD6E903120E5A6BE9031279
:102973000E5A7ED402120E5ADBD302120E5A9CE771
:1029830003120E5A5AE703120E5A95D302120E5A25
:1029930060D302120E5A5EE603120E5A32E6031297
:1029A3000E5AE9E503120E5A2AE503120E5A16E2ED
:1029B30003120E5A88DF03120E5A55DF03120E5A02
:1029C300FCDE03120E5A8FDE03120E5A4EDE031282
:1029D3000E5A87DD03120E5A21DD03120E5AC0DC94
:1029E30003120E5A60DC03120E5A37DB03120E5A1F
:1029F300CBDA03120E5A23DA03120E5A1EDA03122B
:102A03000E5A12DA03120E5A2DD302120E5A18D38B
:102A130002120E5AEDD202120E5A8DEC04120E5A05
:102A230059EC04120E5A02EC04120E5A70EA041204
:102A33000E5A45D603120E5A13D603120E5ABDD59B
:102A430003120E5A5ED503120E5AC2E904120E5A2D
:102A53001FD503120E5A02D503120E5AF7D40312CE
:102A63000E5AC6D403120E5A25E904120E5AA8D2DE
:102A730003120E5A47CC05120E5A1BD203120E5ADA
:102A8300D7D103120E5AA8D103120E5AFBD6041241
:102A93000E5ACED604120E5AA5D604120E5A7DD65D
:102AA30004120E5A14D604120E5AF4D504120E5AF6
:102AB300BFD504120E5A33D204120E5A17D0041281
:102AC3000E5AFECD04120E5A71CD04120E5A1BE992
:102AD30004120E5A27CD04120E5AD5CC04120E5AE4
:102AE30078CB04120E5ACAFA0300000080FBE47389
:102AF3008F000100FF1D87000100FD1D350004004C
:102B0300C61D25000200CA1D26000200CC1D270099
:102B13000200CE1D28000100D81D29000100D91D87
:102B230084000400301B860001004F1D2A000100B1
:102B3300DA1D2B000100DB1D2C000100DF1D2D0021
:102B430008003C1B2E000100E01D2F000100E11DC9
:102B530030000100E21D31000100E31D32000100DD
:102B6300441B33000100451B34000100E41D360003
:102B73000100461B38000100E51D39000100DE1D80
:102B830083000200FB1D63000100531B640001006E
:102B9300DC1D65000100DD1D6D000100541B71008B
:102BA3000800341B66000100FA1D43000100EB1D01
:102BB30044000200EC1D45000100EE1D460002002A
:102BC300EF1D470008004B1B48000100F11D4B009F
:102BD3000100F21D04000100FE1DA1000100021E00
:102BE30037000100011E88000100001E3C000100A7
:102BF300471B3D000100E61D49000200F31D67006D
:102C03000100551B4D000200F51D4E000100F71D8C
:102C13004F000200F81D3E000100EA1D51000100B3
:102C2300481B52000100E81D53000100E91D540038
:102C33000100491B000000000000000136360101BD
:102C4300000102010001030100010401060605025F
:102C53000000070100340801000F090401010D0100
:102C630000FF0E08000017020000190100FF1A01FF
:102C730000011B0100FE1C0100081D0200001F01D2
:102C8300000120010001210200002301000F2402A2
:102C930000002601000127010008280200FF2A0185
:102CA30000072B0102402C0100002D0100012E0121
:102CB30000012F0100FF30010B1D310800003A0114
:102CC30000083B01000F3C0100013D0100FF3E04F1
:102CD300000042040000460400004A0400004E04C1
:102CE300000052040000560400005A0400000000D3
:102CF300010020015B870000020020015D870000C6
:102D0300030020015F8700000000200160870000AE
:102D130004004201598600000500420115860000A7
:102D2300070030015E870000FDFF21015787000087
:102D330006004201B3850000004020015B870100CB
:102D430020002005AD1D010021002005AE1D070058
:102D5300000030230E1A0700100030230C1A010361
:102D630071030103010301030103010322030203AE
:102D73000103100300030003000300030003000327
:102D830000034203000324030603000300030403B8
:102D9300120325032303250323030403040300036E
:102DA300000300034403000300032303000365033C
:102DB300210035038103000305030003000300031F
:102DC3000003250323030101710101010101110125
:102DD30001013101010101018001100161013B0089
:102DE30014006301730172016201430100011301C5
:102DF30006013D013500040112010001000100013B
:102E0300000104010401330133013C014401320197
:102E13003600000100016501000135008101000158
:102E2300050182018301000103007100300160008C
:102E33001100700031022003500480001000610073
:102E4300000014006300730072006200430000007E
:102E53001300060000000000040012000000000040
:102E63000000000004000400370037003C02440067
:102E73000000000000000000650000003500810034
:102E8300000005000000830000000302710230010E
:102E930060021102700201020202020280021002A9
:102EA30061023A004100630273027202620243024A
:102EB30000021302380000020002040212020002A0
:102EC30000020002000204020402370037003C0241
:102ED30044020002390000020002650200023502CA
:102EE3008102000205028202830200023600010011
:102EF300060000000F0000000000000000000000BA
:102F0300000003FFFF00000403FFFF0000FFFF0FAB
:102F1300F4010005C4040320000100000B000000BD
:102F2300000000000003010F00000000000000008B
:102F3300000000000000000000000000000000008E
:102F430000000000000000000000F81B221CFE1B14
:102F53002C1B041C281C041C341C0A1C2C1B041CC6
:102F6300281C101C2C1B00000000161C2C1B00002E
:102F73000000000000001C1C2C1B000000000000CF
:102F8300000000000000000000000000000000003E
:102F9300000000000000000000000000000000002E
:102FA3000000000000000000B01E0100B01E02007F
:102FB300261E0280201E03002C1E0400321E0480E5
:102FC300381E05003E1E06004A1E31005C1E3300FB
:102FD300621E3400681EFFFF0000030003000400AC
:102FE300080010001F003E007B00F600EC01D70331
:102FF300AF075D0FB91E713D000007ECFDFDFDEC51
:10300300DCDCCCBCACAC9C9C8C7C7C6C6C5C5C5C7D
:103013004C4C3C3C2C2C1C1C03EAF5E5D5D5C5B522
:10302300A59595858575756565555545453535254D
:10303300251515050ABC24028624059224078C2431
:103043000C6E240D7A24FF000000160F00000B15F0
:103053000B020002220F3300000E0F0700000030A6
:10306300230F1A0700100030230D1AD0D1D2D3D466
:10307300D5D6D7D8D9DADBDCDDDEDF5A696742651E
:1030830065416C6C69616E636530393030161819AF
:1030930020231A1C1E3000034D4C4651181A2505D7
:1030A30002000119161816161823030030301718DA
:1030B3001921301B1D1F30003C40423A3F3F392F3E
:1030C30047300C0E020B040B0A0708000F02040220
:1030D300010101010902E803000000BE040A0E0019
:1030E30001000300E803FF04090E031E1E03100C76
:1030F30004040828020C0508150A04C082C08312C0
:10310300147E901B7E7458F0A37422F0901B80747D
:103113005EF0A37422F0901B827464F0A37422F017
:10312300901B84746AF0A37422F0025E3974F71260
:1031330008EC901B72E4F0E9901B71F07C4B7D1B53
:103143007A737B1B121ABA901DF1E0901B7BF090EF
:103153001B7C7434F0A3741B0240C674F01208EC99
:10316300EAFEEBFF548070030232CF901B711241D1
:103173005B70030232C8EA241B1259C6707CEA242E
:103183001F1259C664137002A3E0706E8A828B8388
:1031930012331D901B8C124F58750A00750B00805B
:1031A3000D123F9C1270381219D0AA0EAB0FEA4BC6
:1031B30060488A828B83E0650C7004A3E0650D7020
:1031C3002C8A828B83A3A3A3A3E0F50EA3E0F50FC0
:1031D300E50A450B8A828B83A3A3A3A360C3124290
:1031E3009E850A82850B83A3A3A3A380B78A0A8B38
:1031F3000B8A828B83124F5480B4E508242A125918
:10320300C6FCE5082402F8E43509F9E8FAE9FB907D
:103213001B8C123404A3A3E06402703C8A828B8368
:10322300124F58800B88828983A3A3A3A312429EC3
:10323300E849601F88828983E06A7003A3E06B70AA
:10324300E488828983A3A3E06C70DA901DF7125C93
:10325300F6806BECF9122294850882850983E06479
:1032630001704FE5082418123306120E961265E01A
:10327300120CDBE5082412123306120E96E508122F
:10328300414F120E92E508240B1265E4120CDFE5A0
:103293000824171240ECE5082402FCE43509FDE597
:1032A300082419FAE43509FB122AC2740A120EA57E
:1032B300800CE064027007AA08AB09122372AA0803
:1032C300AB09121934EEFAEF6480802DEA540260E0
:1032D3000C901E0A7401F0EA6402FA8023EA54088F
:1032E300601A12228EEA4B700B901B8E1264BB7A0B
:1032F30008123313EE6408FAEFFB80047A007B00B4
:10330300026C6AF582E43509F583E0F50A780A224E
:10331300FB901B71E0F9121A9022A3A3E0F50CA312
:10332300E0F50D227B00901B71E0F9121A847404FE
:103333002274F41208EC8A088B098A828B83A3A374
:10334300A3124D501240F738F583E02409FA126CAA
:103353000270030233F78A828B837402124DC58590
:103363000882850983123404E8F0A3E912687C8A91
:10337300828B83A3A3A3A3A3A3A3A3F0E50824039E
:10338300F8E435091233F91240F73AF583E08E82F7
:103393008B83A3A3A3A3F0EE2409FAE43FFB8E825D
:1033A3008F83A3A3125FA8F5838882E0A2E58E82B0
:1033B3008F83A3A3A3A3A3500474018001E4F0E5C6
:1033C300082403F5828983124F58EA1254D93BF536
:1033D30083126BC9120E8E1240F63B12609A8E82D4
:1033E3008F83A3A3127D78120EA5EEFAEFFB901B39
:1033F30071126C4F8016F98882F583E0FAA3E0CA54
:10340300221250F5A3A3227402120EA57F04020C0C
:103413005674F21208EC8A088B09ECFAEDFB740E71
:103423001211ADE0FC1214B48A0C8B0DAE0CAF0D6F
:10343300EA4F6030AC08AD091214A2E96026AC086B
:10344300AD09EEFAEFFB1214A8E970148E828F8394
:1034530012428BFAEFFB12149CAA08AB091214CC8C
:103463007900800279B402504474F01208EC74F6C7
:10347300120F3DEAFEEBFF8C088D09750FB3852112
:1034830082852283E4F0750E008002050E9030F4ED
:10349300E493F8E50EC3984003023593AA0E7B002C
:1034A3001214F08A0A8B0BEA4B60E08A828B83A3A7
:1034B300A312359A28F0F8C3EE98EF940050CC7C11
:1034C300157D007900AA08AB0912191C850A8285AB
:1034D3000B83A3A3A3A3127075E0F8EEC398292569
:1034E300E0F8E433F9E50A28F582E50B39F583A31F
:1034F300A3A3A3A3A3124101A3125B1D8A0C8B0DEB
:10350300AC0CAD0DAA08AB09121ABA850A82850B59
:1035130083A3E06401700A1265E074011241138011
:10352300447401120F35850A82850B83124F56129C
:1035330014D8E9603D74091211ADE0C0E01265E0F2
:10354300D0E0F074091211ADE0640370137401123A
:103553000F35E508240BFAE43509FB121ABA801279
:1035630074011211AD12429EE508125B0335091274
:103573007036850A82850B831265EC124113A3A36F
:10358300E0C0E0E50824141265E4D0E0F0750F0014
:10359300A90F740A026C67A3A3A3E0F885218285AF
:1035A3002283E02274F71208ECE9FE8A828B83A35C
:1035B300A3A3A3A3A3E0540860338A828B83A3A3AA
:1035C300A3A3A3A3E0540260218A828B83A3A3A3B2
:1035D300A3A3A3A3A3A3E06406600F74E96E600A28
:1035E30074CD6E600574F06E700312227602494347
:1035F30074F01208EC74EF120F3D740F1211AD1238
:10360300639F74081211ADE9F0ECFEEDFF7405122F
:1036130011AD12470B12492FA3E0F91214C074061F
:103623001211AD12639F74061211AD12556A700325
:103633000238AE12413BE0FA74061211ADE0F91202
:1036430021B612390EF8A3E0F9E84970030238AE47
:10365300EE2403F50AE43FF50BEE2406F508E43FF8
:10366300F5097C00850882F583124F58850A828507
:103673000B83E0F91214C674031211AD12639F8514
:103683000A82850B83E0C0E085218285228312397B
:1036930007D0E012567FF9852182852283123FA34A
:1036A3001251D112359DFAA3E0CA2407F582E43AF8
:1036B300F583E8F0A3E41263AA2406F582E438F55F
:1036C30083E4127042124D44120E8EEE1240F73F05
:1036D30012609A74031211AD124D502409127D72B7
:1036E300120EA574291211AD12706F1233FE125609
:1036F300923A127036742B1211ADE0C0E08521822C
:10370300852283125531D0E0F074021211ADE4F03A
:1037130074251211AD78081211560238057403127C
:1037230011AD1260628882F5831238F6A3A3A31247
:103733005B28FB1214DE850E82850F83A3EAF0A3B8
:10374300EBF074031211AD123907A31238F6125DB0
:1037530037A2E6500F850E82850F83A3A3A3A3A3ED
:10376300E0D2E1F074051211ADE0706B850E828535
:103773000F83A312429E901BCCE0687003A3E06901
:103783007055850E82850F83A3A3A31240D6750CB3
:1037930000780C120E967808120E8A74291211AD55
:1037A300E0F50C780C120E9674271211AD120CDF93
:1037B300901BD9120CDF790074191211AD124F2826
:1037C3001223BA740A120EA5850E82850F83A3A352
:1037D300A3A3A3E04405F074021211ADE004FC8E30
:1037E300828F83124F528E828F83A3A3A3E0F91299
:1037F30014C674031211AD12639F74021211ADE06B
:1038030004F074031211AD12556A60677402121149
:10381300ADE0FA74061211AD12429EC3EA98E49920
:10382300505174021211AD123BE08521828522832F
:10383300E028F8A3E039F9E8240FF50EE439F50F91
:10384300850E82F583E4F074031211AD123901641D
:1038530001600302372074051211AD7401126C5517
:10386300F074031211AD125E29123C03E8F0A3E9D0
:10387300023744852182852283124F581221BC8549
:103883002182852283120CDF74261211ADE0FD74B0
:10389300251211ADE0FC740A1211ADE0F9EEFAEF56
:1038A300FB1222707402120EA580438E828F83A3B3
:1038B300A3A3E0C0E0740C1211ADD0E0F0126ABE15
:1038C300E0C0E0740D1211ADD0E0F074061211AD3A
:1038D30012556A7009740E1211AD74B98007740E13
:1038E3001211AD7410F07409120F2D1223B4741158
:1038F300026C67E0850E82850F83A3A3A322E012E7
:103903005657E022E0125657A3A32285218285222F
:1039130083EAF0A3EB1255732274F01208EC74E1FE
:10392300120F3D74041211ADE9F074031211ADECE2
:10393300F074021211ADEDF08A0E8B0F742F121179
:10394300AD12331FAA0CFB1221AA74011211ADE9A7
:10395300F0AA0CAB0D1221B074011211ADE070038B
:10396300023BDB852182852283E480158E828F834F
:10397300A3A3A3A3A3E0D2E3F0852182852283E05E
:1039830004126BADF8852182852283E0C39840033E
:10399300023BD274011211ADE07003023BD28521C8
:1039A30082852283123BE0E50C28F8E50D39F9E81E
:1039B300240FFEE439FF8E82F583A3A3A3A3A3E020
:1039C300A2E040B5750800750A08750B0074021271
:1039D30011ADE060037508207C087D007900740553
:1039E300120F2D12191C8E828F83E0603E901C1CD7
:1039F300E06401701AE508D2E3F508750B10123B79
:103A0300F01211ADE8F0A3E9125A1B74FF8076435C
:103A1300080C750A0C8E828F83A3123BFB1270383D
:103A230074051211AD74FFF0A3805A74041211AD22
:103A3300E06009E508D2E6F508750A0A8E828F83ED
:103A4300A3E064FE7003A3E0F4703074121211ADAE
:103A5300740412660AF8741D1211ADE8124DC57490
:103A630012120F2D1220D27D007C007900741512E2
:103A730011ADAA82AB83121E98800B123BF0121178
:103A8300ADE8F0A3E9F074071211ADE508F01241B7
:103A930032C0E074091211ADD0E0F0740A1211AD16
:103AA3007401F07405120F2D12237874111211ADE5
:103AB300E06003023BB0740D1211AD12567A8E8290
:103AC3008F83A3A3A3A3F0740D1211AD124D93E53D
:103AD3000AF0A3E50BF074031211ADE0C0E0124D40
:103AE30024D0E0125D376011901C1CE0C0E0740D1F
:103AF3001211AD124D6ED0E0F0740D1211AD1242E1
:103B03009E850C82850D83A3A3A3A3A3123BE92463
:103B13001C126399127052123BEB125CE939126A60
:103B2300DDC0E0124D0BD0E0126BA2C0E0740D12A9
:103B330011AD124851D0E01268A3C0E0740D121108
:103B4300AD124847D0E0F0740D1211AD123BFB12D9
:103B53003BE9242A126399850E82850F83A3A3A3CD
:103B6300A3A3A3A3A3E0126392124121C0E01248CE
:103B730033D0E0F0740D1211AD124F58850E8285CB
:103B83000F83126BB82428F582E43B12703612417E
:103B93002A126BC9120E8E126093EA12632B3B1228
:103BA3007D76120EA57405120F2D12237E8E828F41
:103BB30083A3A3A3A3A3E0D2E0F074111211ADE099
:103BC300600302396F74011211ADE01402397B797D
:103BD30000AA0CAB0D12227C741F026C67E075F017
:103BE30007A4F8A9F022A3A3124F5CE8228E828FC8
:103BF30083A31242A2740522E0123C03A3A3A322CF
:103C0300F8A3E0F9850E82850F83A32274F01208CE
:103C1300EC74E8120F3DE9852182852283F08A0E38
:103C23008B0F8A828B83A3A3A3A3A3A3A3A3E0F9EC
:103C33001221D48A088B09EA4B7003023CECE50E8F
:103C43001254ED12414A1240E1852182852283E01C
:103C53006003023CEF7C04850E82850F83A3A3A33C
:103C6300A3A3A3A3A3E0F91221DAEE4F607B8E8214
:103C73008F83A3A3A3A312429E74071211AD1264F0
:103C8300D012429E74091211AD124DF5C0E07411A9
:103C93001211ADD0E0126881A3A3A3A3A3A3A3121F
:103CA300429E740F1211AD12703874121211ADE4EA
:103CB300126C5DC8241FF582E438F58312605EC47C
:103CC30013135403FC70027C048E828F83E0F97813
:103CD30008120E92742059FD744059F97403120F9F
:103CE3002D1222707402120EA5026C657C08850EDB
:103CF30082850F83A3A3A3A3A3A3A3A3E0F9122104
:103D0300DA8B0BEA4B7003023C6DEE4F60DB8521CF
:103D130082852283E0F50C780C120E968508828545
:103D23000983A3A3A3A3A3A3A3E0F50C780C120E0A
:103D3300968A828B83A3A3A3E0FB8A82850B8312DB
:103D430078958A82850B83E0FA8E828F83A3A3E022
:103D5300F9122AC87402120EA5023C7174F71208F4
:103D6300EC74FA120F3DE9FE780179017F008003BC
:103D730079000F1250D4E0FCEFC39C5026EF75F08E
:103D830007A4FC85F008AD08EA2CFCEB3DFD1246C8
:103D9300C3E0A2E050DA540C60D6E0A2E250D3783C
:103DA3000080CF8A828B83A3A3A3A3A3A3E0703D48
:103DB300E9A2E0400574016E70338A828B83A3A36A
:103DC300A3A3A3A374011240B3E0C0E074031211D0
:103DD300ADD0E0124722E0C0E074041211ADD0E090
:103DE300F074051211ADE8125FFD1223B4740602DC
:103DF3004940C082C083790112227C025E3974F487
:103E03001208ECEA4B901E0A6019E4F08A088B0949
:103E1300F50AF50B7808120E8A7A02123327120E6E
:103E2300A5800A7401F07A027B0012331402340F66
:103E330074F01208EC74F3120F3D74031211ADE425
:103E4300F0A3F0901B8C1240E174011211ADE4F069
:103E5300A3124DCA04F0901BC6E0A2E35003023F35
:103E6300261240A774091211AD121196740912118A
:103E7300AD7808121156901B8E7808120F0D740539
:103E83001211AD7808121147123FAA74051211AD31
:103E930078081210EA50077A017B00023F977405F5
:103EA3001211AD780C121156901DF6E0F509780C3D
:103EB300790812087DA80CA90D901DF7E0C398E4BA
:103EC300995003E08001E8852182852283F07409FB
:103ED3001211AD7808121156C008C009C00AC00BF0
:103EE30074051211AD780C121156123FAA780C7991
:103EF3000812087DE4F50AF50BD00FD00ED00DD0D3
:103F03000C780C7908120FE5901B8E780C12114770
:103F13008011123F9C127038EEFAEFFB1219D0AEEB
:103F230008AF09EE4F60658E828F8312359AC3986E
:103F3300502DEE2403F8E43FF9E0FA88828983E008
:103F4300C39AF0602374031211AD12440474011276
:103F530011ADEEF0A3EF1264EBFEA3E0FF80C48E7D
:103F6300828F83A3A3A3E4F08E828F83127D2F74A9
:103F7300011211AD12556A8E828F83A3A3A3A3608E
:103F8300911264C41211AD123FA3808974031211FC
:103F9300AD124F58740D026C671242A2901B8C2213
:103FA300126089A3A3A322901DF5127D37E4F50ABD
:103FB300F50B2274F01208EC8A088B09890A780041
:103FC3007900901B8C1240E1FBEE4B601E088E8241
:103FD3008F83A3A3A3A3124F22601008E8700109E3
:103FE3008E828F831240DDEA4F70E3901DF8124FEB
:103FF30058C3E89AE99B400302409A7A0612409D0F
:10400300A80CA90DEA49700302409A8A828B83E5C2
:1040130008F0A3E5091240BCE50AF0901DF7125021
:10402300DC1240B3A3E4F0A3F0901B8C124F226088
:104033000D8E828F83A3A3A3A31270388017901BC6
:104043008C127038901BC6E0A2E340091240A7907F
:104053001B8E121196901BC6E0A2E3503A7A087B9E
:1040630000901B71E0F9121A96EA4B4C4D702890A0
:104073001DF5E0F508A3E085080CF50DE4F50EF554
:104083000F780C120E8A7A087B00901B71E0F912EC
:104093001A8A7404120EA5026C6A7B001219CA8A6A
:1040A3000C8B0D22121AA2EAF8EBF9ECFAEDFB22C3
:1040B3001240B7221240BCA322F08A828B83A3A3AF
:1040C30022E508F0024943F08E828F83A3A3A3A3C2
:1040D300A3A3221259D4A3A3F022A3A3A3A3E0FE74
:1040E300A3E0FF227F05020C56F582E43509F58330
:1040F300E0F922EA1240FB222410F582E422124165
:1041030009A3A3A3A3221242A685088285098322B9
:1041130012411722F0850A82850B83A3A322E50EA1
:104123002411124147E022E50E240E12414722E5F5
:104133000E2410124147E02212413F22EE1240FBAF
:104143003FF58322F582E4350FF58322240FF50A28
:10415300E43509F50B780A22E0F91219468A088B2F
:1041630009EA4B2274F21208EC890B8A088B098A3C
:10417300828B83124F581222A0EA4B600479B880D5
:104183006A1222ACE9F89030F1E493F9E8C399405C
:104193000479B280567A1512409DAE0CAF0DEA4FEA
:1041A3007004791080458A828B83E4F0A31240BCAB
:1041B300E50BF0750A007808120E8E7C127D00EA7A
:1041C3002403126B74120EA5901B9212556A700889
:1041D300901B92800C12429E888289831241F17057
:1041E300F4EEF0A3EFF01222BE7900025044124F16
:1041F3005CEA4B8882898322C082C083901B9280B1
:10420300048C828D83127896EC4D60288C828D838A
:10421300A3A3E069600574FF6970E68C828D83A3B4
:10422300A3A3E06A7003A3E06B70D6EC2403FAE463
:104233003DFB80047A007B00025E3974F71208ECC0
:10424300E9FD74FE6D70047C0180027C00901B927A
:1042530080096D70027C018882898312556A601F10
:1042630088828983A3A3A3E06A7003A3E06B70E74A
:10427300ECA2E088828983A3A3E050D6F980027977
:10428300FE024943EEF9800CA3A3127D37EE22749C
:1042930002120EA57F02020C56F5831242A22212CD
:1042A30042A622E0F8A3E0F9221242A68E828F836F
:1042B30022120EA57F03020C56C082C083790090A0
:1042C3001B92800109E0FAA3E08A82F583E5824527
:1042D3008370F1025E3974F61208ECE4F508F5090F
:1042E3007808120E929030F1E49375F013A4A9F0BC
:1042F3001243F9127096120EA5E9FE74096E70034B
:104303001222B802428774F61208EC74FE120F3DB3
:10431300852182852283E4F0A3F0A821A9228808BD
:1043230089097808120E9275080275090078081237
:104333000E92126D07120EA502429274F51208EC4A
:1043430074EB120F3D852182852283E4F0A3F09064
:104353001B9280748E828F83A3A3E0C0E074021249
:1043630011ADD0E0125A1BA982AA8389088A097564
:104373000A007808120E8E7C127D0074061211ADAD
:1043830012705B120EA57402120F25880889097832
:1043930008120E927508137509007808120E9274AC
:1043A300041211AD12550D75F013A4F8AAF075F0AF
:1043B30013E91243F5126D0F120EA5852182852292
:1043C300831244048E828F831240E1EE4F7085A8DE
:1043D30021A922880889097808120E9275080275A6
:1043E30009007808120E92126D07120EA5741502B9
:1043F30042B4A42AF9E82402FCE439FD7A427B00A2
:1044030022E02401F0A3E03400F02274F41208EC5B
:1044130074EB120F3D7E007F00A821A92288088932
:10442300097808120E927508028E097808120E9206
:104433007C007D007A421270A2120EA5E9706C8E88
:104443000880567402120F25880A890B780A120E07
:1044530092750A13750B00780A120E92E50875F02F
:1044630013A4F8AAF075F013E5091243F51270A42A
:10447300120EA5E9701B74031211ADAA82AB8374EB
:10448300021211ADE0F912229AE970050EEE7001E5
:104493000F0508E50870020509852182852283122C
:1044A300429EC3E50898E509994098EEFAEFFB743C
:1044B3001502340C74F61208EC8C828D83A3A312BC
:1044C3004710F0EA1263313BF583E0C0E01246CDBA
:1044D300D0E0F0EA241DF582E43B12429C1246B17F
:1044E30012470BF0A3F0EA241FF582E43BF5831295
:1044F30040E1EC1246A43DF583EEF0A3EFF0124643
:10450300AA3BF5831246DBA3A3A3A3A3A3EEF0A3C5
:10451300EF125F8CFE8C828D8312471A74035EFE4A
:10452300C394034003024697EE600874026E60036F
:104533000245BC8C828D83E0540CFE740C6E7003B8
:104543000245FBE0A2E4400D88828983E08C828DE2
:1045530083A312473074086E60030245FB1246BB07
:104563007401F08A828B83A3A3A3A3A31259E170DE
:10457300148C828D83E0440C124722A3A31246DBE2
:10458300EEF0A3EFF08C828D83E0A2E4402B8882CF
:104593001246E91246FE500109F5821246E9A3A329
:1045A300A3A3A3A3F0A3EF12472A8C828D83A3A313
:1045B300A3F0E82403F850010988828983E0C0E06E
:1045C300EC2411F582E43DF583D0E012471A8C8286
:1045D3008D83E0A2E7507588828983E0FE8C828D0B
:1045E3008312473074FC5E700C8C828D83A3E0547D
:1045F300036403701E0246971246BBE4F0740C6E0C
:10460300600302456688821246EF1246FE50010996
:104613000245888C828D83A3E054036032888289AB
:1046230083E0C0E0EC1246D53DF583D0E01247317C
:104633008C828D83E054036402701488828983E042
:10464300C0E01246C3D0E01247318003A3E4F0EC8C
:104653001254D93D127036EC2410FEE43DFFEA24D7
:104663001DF582E43BF583E0F5088E828F83E0C37A
:10467300982508F508F0EA2417F8E43BF98882F551
:1046830083E0C39508C0E01246B1D0E0125F8CC34B
:104693009508500A1246B1E4F01246CDE4F0024206
:1046A300972415F582E422EA240DF582E422EC2412
:1046B3000DF582E43DF58322EC1256923DF58322FB
:1046C300EC2414F582E43DF58322EC1240FB3DF526
:1046D30083222413F582E422E0FEA3E0FF8C828D83
:1046E30083A3A3A3A3221246EFA3A3228983E0F506
:1046F30008A3E0FFE5088C828D8322A3A3A3A3F084
:10470300A3EFF0E82402F822124710A322E4F08C6E
:10471300828D83A3A3A322124738A882A9832212DE
:1047230040B7A3A3A3A322124738A3E022A31247AF
:104733003808A98322125F95A32274F41208EC743B
:10474300F3120F3D8A0A8B0BECFEEDFF8C82F5838F
:10475300E0540CF508E0A2E75006E508D2E7F508B7
:10476300E508D2E1F5081259E17006E508D2E4F54F
:1047730008E0A2E55006E508D2E5F5087C087D00CF
:104783007900AA21AB2212191C74021211ADE5089B
:1047930012703CC0E074031211ADD0E0124DCAE5B3
:1047A3000AF0A3E50BF074051211AD1268A81211FB
:1047B300ADE0707774081211AD124D50125F7E3860
:1047C3001268C3C0E074081211AD124851D0E01250
:1047D30068A3C0E074081211AD124847D0E0F0742A
:1047E300081211AD12483DE0124D78124DF91263D3
:1047F30092EE24111259ADC0E0124833D0E0F0EE2E
:1048030024141259ADC0E074081211AD124D502496
:1048130035F582E438F583D0E0124D9DC0E074088D
:104823001211AD124D54D0E01265FC740D02340C1C
:10483300E82432F582E439F583221242ACA3A3A320
:10484300A3A3A322124D64126AA238F58322124D48
:10485300642426F582E438F5832274F71208EC7E8B
:10486300008A828B83A3A3A3A3A3A3A3A3A3E0642C
:1048730004600302491F12568AE0600302491F12B3
:1048830054EC3B125568700302491F88828983E008
:104893005403600302491FE812569239F583E0FA84
:1048A3008C828D83A3A3E0FBA3E0CB2411F582E4E8
:1048B3003BF583E06A706588828983A3A3A3A3A3DE
:1048C300A3A3A3A3124923E06A7003A3E06B704C74
:1048D30088828983A3A312492FE0FFA3E0CF240694
:1048E3001259AD6A7003A3E06B703188828983A388
:1048F300A3E0F88C828D83A3A3E0F9A3E0F5838979
:1049030082A3A3E06860138C828D83A3A3A3E0F545
:10491300838982E0540C640470027E01EEF98020E6
:1049230012492722124F608C828D8322A3A312493E
:1049330027A3A322740C1211ADE0F9740D120EA576
:104943007F01020C5674F61208EC74FC120F3DEA58
:10495300FEEBFFECFAEDFB8C82F583A3E0540360DE
:1049630016901B8812556A60597900EEFCEFFD1210
:104973006189122AF1804B852182852283EEF0A37F
:10498300EFF074021211AD124DBFAC21AD227AD6F5
:104993007B221225048A088B09A808A909EA496021
:1049A300218A828B83A3A3A3A3A3A3A3A3A3740694
:1049B300F07A0088828B83124D50126352E0F91211
:1049C3002462740402429474F21208EC74F3120F1A
:1049D3003DEAFEEBFF8A82F583A3A3A3A3A3A3A3CC
:1049E300A3A3A3E0F50A901E0AE0700579BA024D6D
:1049F30008750801750900750C00750D007C087DAC
:104A0300007900AA21AB2212191C74051211AD748E
:104A130001124DD25404601274021211ADE0D2E6B9
:104A2300124DD254087003750803E05410600674E5
:104A3300404508F508E05408602274021211ADE005
:104A430044C0124DD25420600A74031211ADE0D257
:104A5300E0800874031211ADE0D2E1F0EE241512E8
:104A630059AD124D38700374016970067408450816
:104A7300F5088E828F83A3A3A3A3A3A3A3A3E070AC
:104A83001612255E85218285228312639F7402128A
:104A930011ADE0D2E28030640F701074021211ADD8
:104AA300124DDA74044508F508807F8E828F83A344
:104AB300A3A3A3A3A3A3A3E064028E828F83700A9C
:104AC30012706FE8F0A3E9F08060A3A3A3A3A3A3EC
:104AD300A3A3E06403700DAC21AD22EEFAEFFB1249
:104AE300230C80468E828F83A3A3A3A3A3A3A3A394
:104AF300E064017035901C1CE0601074021211AD6B
:104B0300124DDA750910750AFF801874021211AD7F
:104B1300E0440C124DCA74FDF0A374FFF074044515
:104B230008F5088E828F8312331FEE24151259ADB8
:104B3300A2E0503F74021211ADE0540C701B8E8240
:104B43008F83124F58121F64E9700579BB024D0819
:104B530074021211ADE0D2E5F0EE24151259ADA2A4
:104B6300E0501074021211ADE0540C64047004E0C0
:104B7300D2E5F0EE24111259ADC0E074041211AD68
:104B8300D0E01268AA1211ADE06003024D0174086F
:104B93001211AD124D93E508F0A3E509F0124D2E65
:104BA300E0C0E0124D24D0E0F0124D15E0C0E074F7
:104BB300081211AD124D501246D538F583D0E012CC
:104BC3004DF964017011901C1CE0C0E074081211CF
:104BD300AD124D6ED0E0F074081211AD124D8E126D
:104BE3004D1FFAE8241CF582E439F583EA124DC51A
:104BF300EE2415FAE43FFB8A82F583127896E812D5
:104C03005CE939F583124DBFEE241C1259ADC0E0A7
:104C1300124D0BD0E0125E2F124D387003740169F0
:104C2300701374081211AD12567AFAEE241D12593C
:104C3300ADF91221E08E828F83A3A3A3A3A3A3A321
:104C4300A3A3E0C0E074081211AD124851D0E0F004
:104C530074081211AD124847E50AF074081211AD39
:104C630012550D2428F582E439F583E50CF0A3E50C
:104C73000D124DA5124D78125A26126392EE124D63
:104C83001FC0E0E82433F582E439F583D0E0F0EE89
:104C9300241B1259ADC0E074081211AD124D54D04B
:104CA300E0F0EE241A1259ADC0E074081211AD12EF
:104CB3004D502432F582E438F583D0E0124D9D1235
:104CC3004D44120E8E126AA8127896740B1211AD0F
:104CD300124D50242F127D72120EA5EE2415125977
:104CE300AD54406012901BA812556A600AAA21AB0A
:104CF30022126189122AF1AA21AB2212237E740C9B
:104D03001211ADE0F902503FE82420F582E439F5B1
:104D13008322EE2419F582E43FF58322126AB7E079
:104D230022E82412F582E439F58322EE2418F58271
:104D3300E43FF583225480F8A3E05401F9748068BA
:104D430022F508A3E0F509750A00780822124D64DC
:104D530022124D642434F582E438F58322A3A3A3FD
:104D6300A3124D6822E0F8A3E0C822124D64124654
:104D7300A438F58322FAA3E0FBE8242AF582E43978
:104D8300F583EAF0A3EB22A3A3A3A31242A2EE228C
:104D93001255111254F139F58322F0EE2413125AED
:104DA3002E22F0EE240D125A2E22E0FC8A828B83EF
:104DB300E02CFCA3E03400FD8A828B83ECF0A3EDAE
:104DC300F022F0A3E4F022F085218285228322F0F1
:104DD300EE2415125A2E22E0D2E3F0124DE2228E77
:104DE300828F831242A6852182852283E8F0A3E97C
:104DF300F022E8F0A3E91264E5E02274F71208EC6C
:104E03008A828B83A3E0640170047E6380027E64E4
:104E13008A828B83E060087905124E3224F3FE9078
:104E23001BC4E06007F9124E3224F2FE02491F123E
:104E33002426E9F8EEC3982274F61208EC74FE12E5
:104E43000F3D85218285228312639FE9FEECFAEDF3
:104E5300FB90048A12556A6032A821A92288088926
:104E6300097808120E927D01740E1211ADE0FCEE6A
:104E7300F990048A126373122AF17402120EA5EADE
:104E83004B60047900800679B2800279B6024292BF
:104E930074F71208ECE9FE901B7E12556A601F74CA
:104EA300091211ADE0F5087808120E96EEF9901B81
:104EB3007E126373122AF17401120EA5800279B671
:104EC30002494374F71208EC8908ECFEEDFF79B54B
:104ED300E508245E602014600624F86034803D9069
:104EE300048C124F2260351270B3122AF18E828F16
:104EF3008312639F8024901B80127896EC4D601C74
:104F0300EEFCEFFD901B80126373122AF1E9F98026
:104F13000B901B7C124F28121ABA790002494312D4
:104F23004F5CEA4B2212789AEEFAEFFB2274F712E7
:104F330008ECE9FE79B574AB6E700B901B7C124FD5
:104F430058121ABA79000249438E828F83A3A3A30E
:104F5300A3A3A3A3A3124F5C22124F6022E0FAA3E0
:104F6300E0FB2274F11208ECEAFEEBFF8C0A8D0BD6
:104F7300750801901BCCE06E7003A3E06F700C12F8
:104F83005033AA0AAB0B121ABA805E122564EE6A7A
:104F93007002EF6B7009AA0AAB0B12256A804AAC48
:104FA3000AAD0BEEFAEFFB1220AEE9F508901DFDFA
:104FB300E070361229FCE97030E508702C901B9CD8
:104FC300E06E7003A3E06F7020EE4F601C750C94CD
:104FD300750D1B750E00780C120E8E7C087D00AAD1
:104FE3000AAB0B12705F120EA5A90802799274F234
:104FF3001208ECEAFEEBFF8C088D09750A011250CA
:1050030033EEFAEFFB121AB4E964017011901BCC72
:1050130012429E850882850983127038800EAC087F
:10502300AD09EEFAEFFB1220B4E9F50AA90A8011E3
:105033001225588A0C8B0DAC0CAD0D22740D120E7B
:10504300A57F06020C5674F61208ECEAFEEBFF7A13
:105053000D7B001219CAEA4B6062EE2424126D3CE8
:10506300F0EE2425126D3CA3125101126D42A3A34D
:10507300126AD51250DCF0EE1250C21250F1E8F071
:10508300A3E91251181250E9127038EE1250CB12E4
:105093006B98A3A3A3A3F0EE24331259ADC0E0127F
:1050A30050D4D0E01268C71250E9A3A3A3E8F0A339
:1050B300E9125110C0E012568AD0E0F00242972460
:1050C3002AF582E43FF58322242EF582E43FF5831B
:1050D30022EA125B033BF583221250E022E08A822C
:1050E3008B83A3A3A322126BF7A3A3A3A322125020
:1050F300F5221242A68A828B83A3A3A3A322F012D2
:10510300510622EE2426F582E43FF58322F0EE24B5
:1051130032125A2E22F0EE242C125A2E2274F4123A
:1051230008EC74FE120F3DECFEEDFFEC2416125951
:10513300AD64057010EC2406FCE43FFD122306E980
:1051430070030251CCAC21AD22126DF1121F6A859E
:10515300218285228312556A606B8E828F83E0647D
:10516300017058E875F009A4F8AAF075F009E9A4EC
:105173002AF974F428F8740839F9E8FAE9FB888203
:10518300F5837808121156EE12526E1210EA402778
:10519300852182852283124D8E1259BB1251D178FB
:1051A300081211569086B378081210218A828B83D5
:1051B3007808121147800A79A28010EE240F12702A
:1051C300327900800679A1800279C802340A124D2F
:1051D300EFEE126AC32274F21208EC8A0C8B0DEC08
:1051E300FEEDFFEC1259BBE4F0A3F09086D37808F0
:1051F300121156EC12526E120F7E6067EC240E12DF
:1052030059B4703478B3901BC3E07028901BF5E059
:1052130064017020EC24111259ADF912240E8B098C
:10522300A909EE1254ED3F12639DEA496004780028
:10523300800278A18808802EE060046402700A125C
:105243002318E9F5087007801DE064037010EEFC75
:10525300EFFDAA0CAB0D121F8EE9F5088008750847
:10526300A180037508A3A908025044126AC37808F1
:105273002274F01208EC74F5120F3DEAFEEBFFEA1C
:10528300240AFCE43F8C82F583127D331254F774B5
:1052930003120F358A828B83126193E970030253E1
:1052A3005D7401120F357403120F2D121F6A7401FE
:1052B3001211AD12556A700302535DE875F009A42B
:1052C300F8AAF075F009E9A42AF974F028FC740827
:1052D30039FDE508240E1265E4E4F0041211AD1261
:1052E300429EE5081254ED35091270368C828D8387
:1052F30012118AE50824121265E41211969086B3FE
:1053030078081211568C828D8378081210808C8253
:105313008D83780C1211569086CF78081211567827
:105323000C790812087DE5084509450A450B702AE2
:1053330074011211AD12550D75F009A4F8AAF07598
:10534300F009E9A42AF974F828F582740839F58379
:105353007401F07A007B0812551A8E828F83A3A3FF
:10536300A3A3A3A3A3A3A3A3E02406FCA3E0340065
:10537300FD8E828F831261931268B5603EEE240A1C
:105383001254DF124D937468124DC5E81254D93983
:10539300F5837402F0901BAE12118A8C828D8312F6
:1053A300638C125F7E3CF5831211969086B3780866
:1053B300121156901BAE7808121080125555705D6D
:1053C300901B7C125505A3A3A3A3A3A3A3A3A3A3E9
:1053D300125FB4121AB4E97010125F72901B7C1240
:1053E3005F8470051268B560348E828F83A3A3A394
:1053F300A3A3A3A3A3A3A3125505124F58121F944B
:10540300E960118E828F83A3A3A3A3A3A3125541A3
:10541300E4F0A3F08E828F83125527E4F0125555E2
:1054230060030254D48E828F83A3A3A3A3A3A312E6
:105433007D2F901BC3E060030254C9901BF5E06409
:105443000160030254C9750A3A750B00780A120EFB
:10545300927402120F25880A890B780A120E92128F
:10546300732E120EA5E9705BE508240E1265E47431
:105473000112556FC0E0E50824111265E4D0E0F095
:10548300E508240F1265E4743A124DC5901BAA1265
:10549300118AE50824121265E41211969086B378F6
:1054A30008121156901BAA78081210809086B378C0
:1054B30008121156901BAA7808120F7E7008125515
:1054C3001680031254F71255557006125E7574A1B7
:1054D300F0740B026C67240EF582E422F8E43FF9C2
:1054E300E8FCE9FD8882F58322EA1254F122240FB5
:1054F300F582E422E5081254F13509F583E4F0A3BB
:10550300F02212789A8E828F832212551122124230
:10551300A6E8227A007B02901A54E0F9121970224D
:105523008A828B83A3A3A3A3A3A3A3A3A3A3125599
:105533003522124D68240EF582E438F58322A3A3A5
:10554300A3A312554922124D68240FF582E438F5BE
:1055530083228E828F83A3A3A3A3A3A3124D6024CC
:105563000FF582E438F5831255114922125573223F
:10557300F0852182852283E02274F61208ECEAFE8C
:10558300EBFF7A237B001219CAEE240AF508E43FE5
:10559300F50985088212639D7C237D007900121929
:1055A3001C85088285098312556A700302563DEEF5
:1055B300FAEFFB12232412555560748E828F8312E7
:1055C300567064018E828F83A3A3A3A3A3A3700742
:1055D300125666740E802112556A70101268B570E7
:1055E3000B8E828F83A3A3E0A2E0500712565C7454
:1055F3000D800512565C74051268C754036401706C
:10560300071256447405800B901BC4E0C0E0125689
:1056130044D0E012567FF58388821259DA850882D6
:10562300850983124D5012633138F583E9800E8565
:1056330008828509831264168003126359F00242BB
:10564300978E828F83A3A3A3A3A3A3A3A3A3A3122E
:10565300565622E0126378A3228E828F83A3A3A3DC
:10566300A3A3A3124D6012633738F58322A3A3A328
:10567300A3A3A3A3A3A3A3125535E0221256832207
:10568300126E06F8A3E022EA1256923BF583222417
:105693000CF582E42274F11208EC74E4120F3D8AD3
:1056A3000C8B0D8C088D097A237B001219CA8A0A88
:1056B3008B0BAE0AAF0BEA4F700302599512633D91
:1056C300E50824151259C6687003A3E0698E828F1A
:1056D300837004740280027401F0E508240DF8E479
:1056E3003509F98882F583E0FAC3E49AFA95E0FB79
:1056F3001259C22AFAA3E03BFB8E828F83A3A3A392
:10570300A3125F9B8E828F83A3A3F0EE2420F582E6
:10571300E43FF583E4F0EE2421F582E43FF583E4EE
:10572300F0EEFAEFFB1223D885088285098312591C
:10573300E170098E828F83A374058006901BC412C7
:1057430059CFF0EE2417F50AE43FF50B8E828F83D1
:105753001259DAE9850A82850B83F0EE2416F8E400
:105763003FF9E508240EFAE43509FB8882898312A0
:105773004DADE5082410FAE43509FB850A82850B53
:1057830083E0FC88828983E0F88A828B83E0C39874
:10579300C39CF8125A1BF0EEFCEFFDAA0CAB0D12E2
:1057A300231EE9F50B8E828F83E064027006125F7D
:1057B3007212599FE50B600302598C750C00750D2D
:1057C30000901DFDE064016005E06402703F125922
:1057D300B16008EE24211259B470328E828F83A3F4
:1057E300A3A312635F1259E7EE24161259AD125A9E
:1057F30010FAE439FB12409FEA4B6011126BC1129D
:105803000E8E1259F5AA0C12705F120EA5EEFAEF66
:10581300FB1223E4E9F50B901DFDE064016008E051
:105823006402600302597FE9700302597FE50C4566
:105833000D700302598C8003850E0B1259B1600B56
:10584300EE24211259B46003025985850B0E850C91
:1058530008850D09750A007808120E8E1259F58E07
:10586300828F83A3A3A3A3127D78120EA5EE242017
:105873001259AD600D1259BA7468124DC5EE242049
:105883008015EE24211259AD60151259BA7403F034
:10589300A37401F0EE2421F582E43FF583E4F0EEF6
:1058A300FAEFFB1223E4E9F50B70907C137D00798A
:1058B300007409120F2D12191C741A1211AD740100
:1058C300125A2664687002A3E0704F8E828F83128F
:1058D3005541E06405600302583B7C0879FF8E82E2
:1058E3008F83A3A3A3A3E0242A125FB71219A6E907
:1058F300700302583B7C087D0079FF7401120F2D61
:1059030012191C7401120F357A007B0079AB122334
:105913000074191211AD74FC80151259BAE06403B6
:105923007004A3E06401700874191211AD74FFF0E0
:10593300E4F508F5097808120E927402120F357413
:10594300131211ADAA82AB8312649C120EA585219A
:1059530082852283E0602B7409120F258808890948
:105963007808120E927508137509007808120E92C2
:105973007C007D00126D0F120EA58006E50C450D0F
:105983006007AA0CAB0D1219D0EEFAEFFB1219D077
:105993008003750B10A90B741C02798FEE2406FA91
:1059A300E43FFB121ABA22EE240C125A2E22EE24E2
:1059B30020125A2E640122EE1254F13FF58322E5A0
:1059C30008240EF582E43509F583E0221259D4A3A5
:1059D30022E08E828F8322A3E0F912242622E05450
:1059E300036401221259EB22E0FAE82AF8E43400B6
:1059F300F9228E828F83A3A3A31263631259EBEE62
:105A03002416125A2E125A10FCE439FD22FAE82AFF
:105A1300F8E439F9E8240422125A1F221268D6A3A3
:105A2300A3A322F0125A2B22EE240FF582E43FF5B2
:105A330083E0227901020E5774F41208ECEAFEEBBC
:105A4300FF8A82F583A3A3A3A3A3A3A3A3124D5009
:105A53002424F582E438F5831259E1702E8A828B6F
:105A6300831256707025125B09E06405701D125B8A
:105A730009A3E0F87401686005740668700712559D
:105A830023740280051255237403F0EA240A126476
:105A93000A126373E4F0EA2408F8E43F1233F924AA
:105AA30031F582E43AF583E0C0E01270AAA3A3D0F3
:105AB300E0125B28CA242EF582E43AF583E0C0E0C5
:105AC3001270AAA3A3A3D0E012604EC8125B0338DE
:105AD30012429C1270AA125B1D8A0A8B0BAC0AAD90
:105AE3000B850882850983125FB4121ABA8508826E
:105AF300850983124F581223E4126405F002340F10
:105B0300240BF582E4228A828B83A3A3A3A3A3A3FA
:105B1300A3A312689CF583888222A3A3A3A3124D97
