:020000040000FA
:060000000210DA0205DD2A
:03001B00020733A6
:03002B00020EAA18
:0300330002096D52
:03004300020D5E4D
:0300530002051291
:03006B000209285F
:03007300020788F9
:03007B0002094E29
:10008300020571010000000000F8FF07FFFF0000F8
:100093000504000000030001FF0020FD000206FF2D
:1000A300FF1E1410270000B219000000000000001A
:1000B300000000000000000000000000000000FF3E
:1000C300FF02010400004819000000E8030000FFDC
:1000D300FF99190188130000E8030000640064001D
:1000E300B801A0BB0D00A0BB0D0002020207040172
:1000F300051E02051E020A0A010108080103B80BC6
:1001030002803E0102FEFFE8030A050001FFFF0231
:100113000A011401E002000000050301010F0300BE
:1001230003000300030003000300030003000300B4
:1001330005000A00140028004F009E000000492B10
:10014300000000007F2A00000000FF000000FF0005
:100153001210F960461210EA603DE9687008F6185B
:10016300F618F618F622748067F712018709090951
:10017300748067F7221210EA601D1210F9700519D6
:100183001919801A120FC9701F120F8DC37003E65D
:10019300673319191940071818182208080874FF3B
:1001A300F618F618F618F622120F8D60171211873B
:1001B300702192F01211907019501720F014080852
:1001C30008090909E7F61819E7F61819E7F61819DF
:1001D300E7F62212119060E6E869701F0808E6242A
:1001E30080F608E436F618547FB47F0CE65480603A
:1001F30007F6E418F618F622181822E9C6CC08C642
:10020300CD08C6CE08C6CFC0E0E8C0E0EAC0E0EB48
:10021300C0E009E9F809E7FA09E7FBE6F918E6F8A7
:10022300C3EC98ED99EE9AEBC2E7F5F0EFC2E795D0
:10023300F0500E600CEBCFFBEACEFAE9CDF9E8CC37
:10024300F8EAA2E7D2E7FAEB33FB13F5F0EEA2E705
:10025300D2E7FEEF33FFC5F013A2E730E601B31395
:10026300C5F0C3C0E0C0F07F00C39BFB605E941881
:10027300600F401D14601AD0E023F9D0E0F80203A8
:10028300598AF0E9486003D2F0E4AFF0FAF9F88054
:100293003BEB30E40D89F0EA6003D2F0E4AFF0F910
:1002A300CAF8EB30E30D88F0EF6002D2F0AFF0E470
:1002B300CAC9F8EB54076014FBC3EA13FAE913F94C
:1002C300E813F8EF135002D2E0FFDBEDD0E0C0E01B
:1002D30030E739C3E49FFFF5F0EC98FC42F0ED9969
:1002E300FD42F0EE9AFE42F0D0E0F9D0E0F8E5F0FE
:1002F300607AE923F9EE20E742D8028067C3EF333F
:10030300FFEC33FCED33FDEE33FE80EAEC28FCED2D
:1003130039FDEE3AFED0E023F9D0E0F84002801B2D
:10032300C3EE13FEED13FDEC13FCEF135002D2E00A
:10033300FF08B800067F7F74FF802EEF3350178CC1
:10034300F020F00260100CBC000C0DBD00080EBEC6
:10035300000408E860DFE933E813FFEE2313FE4FE0
:100363004D4C8008E95480FFE4FEFDFCEE33EF338F
:10037300F47004FCFD7E80D0E0FBD0E0FAD0E0F81E
:10038300D0E0CFC618CEC618CDC618CCC6F9220009
:100393001210EA604F1210F96012E7548066F612E9
:1003A3000FC97011121187703B090909F4F618F689
:1003B30018F618F622120F8D7015121190080808FE
:1003C30060EAE6447FF618768018E4F618F62212FF
:1003D300119060161211877012E4F608F608F608F9
:1003E300E65480F609090918181822EAC0E0EBC0A0
:1003F300E0ECC0E0EDC0E0E687F0A4FBACF008E67B
:1004030087F0A42CFCE435F0FA1809E687F0A42C55
:100413004B60027401CA35F0FCE433FB09E687F054
:10042300D2F7A42CCB35F0FC1908E687F0A42BCC2B
:1004330035F0FBE433FD0819E687F0D2E7A42C4A34
:10044300CB35F0CD3400FC09E687F0D2E7A42DCC00
:1004530035F0FDE433FA0918E687F0D2F7A42CCD82
:1004630035F0CA3400FC08E687F0D2E7D2F7A42AB5
:10047300CC35F07A7E20E70B0ACB33CBCD33CDCC12
:1004830033CC33CB3350147004ED30E00ED2F1E4AF
:10049300CD3DCDCC3CCC3B5005DA05C2F1EB547FCE
:1004A300C63308E63392F0FBE73309E733C39A50C8
:1004B3002D2B70190C0D4C4D70151806E608C3331F
:1004C300700D20F10AA2F013F6E418800B4024E427
:1004D300F630F002768018F618F618F68024D33B2F
:1004E30014501074FFA2F013F6187680E418F6186F
:1004F300F6800FA2F013F618E63303F618ECF6189D
:10050300EDF6D0E0FDD0E0FCD0E0FBD0E0FA22C075
:10051300E074F112098BA2AFE433F509D2AF85A7DA
:1005230008AFA1EF5508FE74105E600612144E75F5
:10053300A1EF74085E600812145475A1F78024EFCC
:10054300A2E092F0E508A2E082F05017906198E0F3
:10055300F8900923E0C398A2D265D0335002E8F0A3
:1005630075A1FEE509A2E092AF7F02020A47C0E04F
:1005730074F212098BA2AFE433FED2AF9061A4E010
:10058300F8759B00E59158540860087591F71214AB
:10059300A28023E59158541060087591EF1214A8B6
:1005A3008014E591A2E092F0E8A2E082F05007E027
:1005B300C2E0F01215F29061A3E0F8E5E9585404A3
:1005C300600E1215C875E9FB906193E0A2E640F254
:1005D300EEA2E092AF7F01020A47C0E074F2120973
:1005E3008BA2AFE433FED2AF9061A5E0F8E5BF582C
:1005F3005404600675BFFB12160A80D412064A30F3
:10060300F03912068F803412064A20F01430E72B9B
:1006130074FFFCFBFA747F8022E4FCFBFA74808095
:100623001AB48008BC00F2BB00EF800F50EBF9E472
:10063300C39AFAE49BFBE49CFCE499C6CC18C6CBB2
:1006430018C6CA18C6F922E4C9C608CAC608CBC662
:10065300D3330308CCC63392F0C3947F402E94184F
:100663004019C9B90704CACBCC225025C309CA33E0
:10067300CACB33CBCC33CC33D9F422F4600DC9CC01
:10068300C313CB13CBCA13CAD9F6CC22E4FCFBFAAF
:100693002214FCFBFA22C3E498F8E499F91206DA6F
:1006A3008026C3E49AFAE49BFBE920E7E91206DA21
:1006B300E498F8E499F922C3E498F8E499F9120666
:1006C300DAE498F8E499F9C3E49AFAE49BFB22EBA1
:1006D30020E7CFE920E7E0B90010BB0008E88AF083
:1006E30084F8AAF022E4FBC8FA22EB70227B10C83C
:1006F30033C8C933C9335007C39AC3DBF280069AA0
:1007030050012ADBEAC833F4C8C933F4C9FA2275A5
:10071300F008E4C833C8C933C933C99AC99B500424
:10072300C92AC93BD5F0ECFBC833F4C8E4C9FA22A3
:10073300C0E0C0D0E8C0E0E9C0E0C082C083A8F94F
:10074300E8C0E0900890E0F8740F28F582E43408DC
:10075300F583D0E0F090088FE0F8A3E0687006E539
:1007630095900892F0900890E004F0C394804002C2
:10077300E4F0A374C6F0D083D082D0E0F9D0E0F8DF
:10078300D0D0D0E032C0E0C0D0E8C0E0E9C0E0C0E3
:1007930082C083900913E0F8A3E0687008539AF7C6
:1007A300A374018022C2EA900913E0F8740128F0CF
:1007B300749328F582E43408F583E0F5F99009137E
:1007C300E0C394804002E4F080AC080808EAC0E08B
:1007D300EBC0E086F0E7A4FA180986F0E7A42AFA4A
:1007E300180986F0E7A42AFA180986F0E7A42AFA7A
:1007F3001986F0E7A4FBE5F02AFA190886F0E7A4C6
:100803002BFBE5F03AFA190886F0E7A42BFBE5F099
:100813003AFA18180986F0E7A4C5F02BFBE43AFA74
:100823001908E7C5F0C6A426F6E5F03BFBE43AFA5F
:100833001886F0E7A4F6E5F00826F6E43B08F6E4AC
:100843003A08F6D0E0FBD0E0FA22E4CFC0E0E4CEF1
:10085300C0E0E4CDC0E0E4CCC0E075F020E626F6CD
:1008630008E633F608E633F608E633F6181818EC0C
:1008730033FCED33FDEE33FEEF33FFC3EC9709EDAD
:100883009709EE9709EF97191919400FFFEC97FC99
:1008930009ED97FD09EE97FE191906D5F0BFECF7A0
:1008A30009EDF709EEF709EFF7191919D0E0FCD0B4
:1008B300E0FDD0E0FED0E0FF222521C582C0E0E5C7
:1008C3002234FFC583C0E0E521C3958224F810AF2D
:1008D300088583228582218008858322858221D20F
:1008E300AFCEF0A3E520F0A37808E608F0A3DEFA84
:1008F300EFF0A3E58124FAF8E608F0A3E608F0A3F5
:10090300E608F0A30808E608F0A3E608F0A31581BB
:100913001581D0E0FED0E0F8158115811581E8C07E
:10092300E0EEC0E022C0E074F212098BA2AFE43320
:10093300FED2AFE589A2E150031213705389FDC2C1
:10094300C5EEA2E092AF7F01020A47C0E0C0D0E843
:10095300C0E0A8A8D2AFE58A858A8AC2EBE8A2E7FD
:1009630092AFD0E0F8D0D0D0E032C0E074F21209F8
:100973008BA2AFE433FED2AFE58BA2E05003121398
:1009830070538BFEC2E880B9C0D02521C582C0E078
:10099300E52234FFC583C0E0E521C3958224F3102B
:1009A300AF08858322858221800885832285822161
:1009B300D2AFC8F0A3E9F0A3EAF0A3EBF0A3790860
:1009C300E709F0A3D8FAECF0A3EDF0A3EEF0A3EF60
:1009D300F0A3D0E0F0A3D0E0F0A3D0E0F0A3E520B3
:1009E300F0A3E5F0F0A322E9799EC608CAC608CBB6
:1009F300C608CCC6C370207996CACBCC7019798E41
:100A0300CBCC70137986CC700EF9802ACA33CACB4B
:100A130033CBCC33CC331930E7F2CCCBCA335014BD
:100A23007004EA30E00DE4CA3ACACB3BCBCC3CCCF1
:100A3300500209C3E913C6CC182313C6CB18C6CA80
:100A430018C6F922852283852182E0C0E0A3E0F95C
:100A5300A3E0FAA3E0FBA37808E0F608A3DFFAE03B
:100A6300FCA3E0FDA3E0FEA3E0FFA3E0C0E0A3E05E
:100A7300C0E0A3E0F5D0A3E0F520A3E0A3F5F010D8
:100A8300AF08858322858221800885832285822180
:100A9300D2AFD082D083D0E0F8D0E032121172B955
:100AA3000003020ADEE49003017834791A8002F02D
:100AB300A3D8FCD9FA7A347B1C90008678CE7901CE
:100AC3008015E493A3AD82AE838A828B83F0A3AABD
:100AD30082AB838D828E83D8E9D9E77582287583AB
:100AE300E17404120E2175820A7583287400120EB4
:100AF3002175F0108E238F248582288583278521F5
:100B030082852283E0CEA3E0CF852882852783EBED
:100B1300C9EAC8EDCBECCAC3E833C8E933C9EA3341
:100B2300CAEB33CBC3EA9EF526EB9FF525B35004FE
:100B3300AB25AA26EC33CCED33CDD5F0DAAE23AF1B
:100B430024221210EA601C1210F96017121190701F
:100B5300071211877001D322C0D01211877006D0FB
:100B6300D0B322C32233D0D0501430E0F6C3E7967B
:100B73000809E7960809E7960809E796B32220E0F3
:100B8300D5E6970809E6970809E6970809E697B3B3
:100B930022D083D082ECC0E0EDC0E0E493A3FCE478
:100BA30093A3FDED4C600D120C6CEC24FFFCED34B3
:100BB300FFFD80EFE493A3FCE493A3FDED4C600DF4
:100BC300120D09EC24FFFCED34FFFD80EFD0E0FDB6
:100BD300D0E0FCE493A3C0E0E493C0E022D083D050
:100BE30082E9C0E0E493A3C386F0C5F095F0F90869
:100BF300E493A386F0C5F095F0700BE493A3C39937
:100C03004005E9048002A3E475F002A42582F5827D
:100C1300E5F03583F583D0E0F9E493A3C0E0E493F2
:100C2300C0E022852283852182E0A3FEE0A3F52094
:100C33007808E0A3F608DFFAE0A3FFE0A3C0E0E052
:100C4300A3C0E0E0A3C0E0E0A3C0E0E0A3C0E010E5
:100C5300AF088582218583228008858221858322AE
:100C6300D2AFD083D082020E27C0E0C3E4939608AC
:100C73007401939618400FE4936670080874019307
:100C8300661870007019A3A3C3E4939608740193C4
:100C93009618A3A3400DD0E0D0E0D0E0020BD0A380
:100CA300A3A3A3A3A3D0E02274048004740280004E
:100CB300CCC0E0EDC0E0E521C39CCCAD2250011DCA
:100CC30010AF068C218D2280068C218D22D2AF128B
:100CD3000DA3D0E0FDD0E0FC2274028000CCC0E084
:100CE300EDC0E0E521C39CCCAD2250011D10AF0641
:100CF3008C218D2280068C218D22D2AF120D81D0C2
:100D0300E0FDD0E0FC22C0E0C0F088F0E493667020
:100D1300080874019366187000A8F0A3A3700BD0A1
:100D2300F0D0E0D0E0D0E0020BD0A3A3D0F0D0E02D
:100D330022D083D082CCC0E0E493A36006120DE3FB
:100D43001470FAE493A36006120F231470FAD0E030
:100D5300FCE493A3C0E0E493C0E022C0E074F21289
:100D6300098BA2AFE433FED2AFC2C0E5D1A2E450F7
:100D7300031213B8EEA2E092AF7F01020A47CAC082
:100D8300E0E493A3C582CCC582C583CDC583F0A31C
:100D9300C582CCC582C583CDC583DAE5D0E0CA223E
:100DA300CAC0E0E0A3C582CCC582C583CDC583F0AC
:100DB300A3C582CCC582C583CDC583DAE6D0E0CA9C
:100DC30022C008C3E096F50808A3E096420808A3EA
:100DD300E096420808A3E09645087001D3D00822A4
:100DE300C0E0E493A3D39C5010E493A3C39C400AB4
:100DF300D0E0D0E0D0E0020D51A3A3A3D0E0227055
:100E030009080808226016181818C6C333C608C68E
:100E130033C608C633C608C633C6D5E0EA22C09F28
:100E2300F59FE473D09F22D083D082C09FE493C008
:100E3300E0740193C0E0740293F59F222521F582AB
:100E430010AF08F521400C15228008F5214002154A
:100E530022D2AF852283227404800A74038006742D
:100E63000280027401C0E0F404120E3FD0E01211BC
:100E7300352200C0D0252110AF08F521500C0522E2
:100E83008008F52150020522D2AFD0D022BB010247
:100E9300E722C082C08389828A83BB0003E0800289
:100EA300E493D083D08222C0E0C0D0E8C0E0A8A8F9
:100EB300D2AFC2C7E8A2E792AFD0E0F8D0D0D0E07B
:100EC300326016080808C6C313C618C613C618C668
:100ED30013C618C613C6D5E0EA22C3E0C696F608C1
:100EE300A3E0C696F608A3E0C696F608A3E0C69666
:100EF300F6222521F8E43522F9222521FAE43522C8
:100F0300FB222521FCE43522FD22252110AF08F523
:100F130021400C15228008F52140021522D2AF2270
:100F2300C0E0E493A36C7009D0E0D0E0D0E0020D00
:100F330051A3A3D0E022E76670100809E766700AA0
:100F43000809E76670040809E76622E0667010087E
:100F5300A3E066700A08A3E066700408A3E06622B3
:100F6300C3E7960809E7960809E7960809E796A2F2
:100F7300D265D03322C3E09608A3E09608A3E09697
:100F830008A3E096A2D265D03322191919E70947BD
:100F9300097009E727097005E733F4220922C3E042
:100FA30096F008A3E096F008A3E096F008A3E09675
:100FB300F022C3E697F60809E697F60809E697F6DE
:100FC3000809E697F622181818E60846087009E695
:100FD30026087005E633F4220822C3E493960874C6
:100FE3000193960874029396087403939622E0265D
:100FF300F608A3E036F608A3E036F608A3E036F6D3
:1010030022E627F60809E637F60809E637F608095F
:10101300E637F622700422600D18C6C333C608C62D
:1010230033C6D5E0F41822E647F60809E647F60882
:1010330009E647F60809E647F622E657F60809E601
:1010430057F60809E657F60809E657F622E026F0B0
:1010530008A3E036F008A3E036F008A3E036F02258
:10106300E056F608A3E056F608A3E056F608A3E018
:1010730056F622E056F008A3E056F008A3E056F037
:1010830008A3E056F022E4C396F608E496F608E4D3
:1010930096F608E496F622600D08C6A2E713C61872
:1010A300C613C6D5E0F322C6F4C608C6F4C608C6FE
:1010B300F4C608C6F4C622C3E09608A3E09608A3C4
:1010C300E09608A3E09622C3E7960809E796080985
:1010D300E7960809E7962275D00075813F752101CF
:1010E30075220300020A9FE6084608C31346083325
:1010F3006002E633F422E7094709C3134709336063
:1011030002E733F422600C08C6C313C618C613C61D
:10111300D5E0F422E6F008A3E6F008A3E6F008A37E
:10112300E6F022E0F608A3E0F608A3E0F608A3E061
:10113300F622CAC0E0E6F0A308DAFAD0E0FA22E029
:10114300FAA3E0FBA3E0FCA3E0FD22EAF0A3EBF0AB
:10115300A3ECF0A3EDF022E0F8A3E0F9A3E0FAA3F7
:10116300E0FB22E8F0A3E9F0A3EAF0A3EBF022E529
:10117300C754F84401F5C77901222521F582E435E6
:1011830022F58322E72719471947194722E626182C
:10119300461846184622C2AF75D69F020000221297
:1011A3000E2A02DA02120E2AAEDA02120E2ADEDA50
:1011B30002120E2A43DB02120E2AD7DB02120E2A78
:1011C3008ADC02120E2ADBDC02120E2A1FDD021257
:1011D3000E2AB9DD02120E2A26DE02120E2A55DE6F
:1011E30002120E2A5BDF02120E2A7FDF02120E2A80
:1011F300D3DF02120E2AA7E002120E2AD2E2021253
:101203000E2A80E302120E2AF5E502120E2A7AE66E
:1012130002120E2AF1E802120E2A27EB02120E2AFC
:101223006BEB02120E2AC4EC02120E2AD7EC021246
:101233000E2A1CED02120E2AE8EE02120E2A28F0E4
:1012430004120E2A67F004120E2A9FF002120E2ACD
:101253001BF102120E2A4EF102120E2A7CF1021227
:101263000E2ABAF102120E2AF7F302120E2A16F40C
:1012730002120E2A5BF402120E2AF1F402120E2A53
:101283003DF502120E2AD1F502120E2AAAF6021217
:101293000E2A06F702120E2A64F702120E2AD7F755
:1012A30002120E2A1BF802120E2A73F802120E2AD9
:1012B30095F802120E2A25F902120E2AB6F9021225
:1012C3000E2A02FA02120E2A2EFA02120E2A6FFABE
:1012D30002120E2A05FC02120E2AF1FC02120E2A39
:1012E300CCFD02120E2AF5E804120E2AF8E80412C5
:1012F3000E2A56E904120E2AAAE904120E2ACCE990
:1013030004120E2AE2EA04120E2AF3EA04120E2A47
:1013130091EB04120E2A9CEB04120E2AB6EB041274
:101323000E2AFA7F00120E2AE57F00120E2A15EE0E
:1013330004120E2A25EE04120E2A3DEE04120E2A82
:10134300A5EE04120E2AF0E604120E2A74E7041224
:101353000E2ADCE704120E2AA5EC04120E2AC9ECAD
:1013630004120E2AEFEC04120E2A00ED04120E2AC8
:101373004AED04120E2AF1CF04120E2AFFCF0412F3
:101383000E2A78D004120E2A51D104120E2A14D335
:1013930004120E2A98F104120E2A16AF04120E2A12
:1013A30082AF04120E2A20B004120E2A0DB10412C9
:1013B3000E2A82B204120E2AE9B204120E2A36B39E
:1013C30004120E2AD0B304120E2A54B404120E2AA5
:1013D30089B404120E2AA7B404120E2A2DB50412DE
:1013E3000E2A4CB504120E2AD97A00120E2A057B56
:1013F30000120E2A6F7D00120E2AAF7D00120E2AF4
:10140300EB7D00120E2AFF7D00120E2A187E0012B9
:101413000E2A0A7F00120E2ABD7F00120E2AD17FE8
:1014230000120E2A0DE304120E2A31E304120E2ACF
:101433004AE304120E2A88E304120E2AB8E30412C4
:101443000E2AE5E304120E2A4BE404120E2A4EE49C
:1014530004120E2A58E404120E2A65E404120E2A1A
:1014630043DC04120E2A63DC04120E2AA2DC0412EB
:101473000E2AC0DC04120E2ADBDC04120E2A41DD24
:1014830004120E2A4DDD04120E2AAADD04120E2ABE
:10149300B9DD04120E2ADDDD04120E2A9EDE0412CB
:1014A3000E2AABDE04120E2ABCDE04120E2AB1EFA2
:1014B30004120E2AF9EF04120E2A25F004120E2A42
:1014C30059BB04120E2AB3BC04120E2AC1BC041267
:1014D3000E2AD4BC04120E2AE9BC04120E2AFEBC46
:1014E30004120E2A11BD04120E2A8DBD04120E2AF7
:1014F300F2BD04120E2A88BE04120E2A61BF041222
:101503000E2A71BF04120E2A80BF04120E2A7CED2C
:1015130004120E2AA0ED04120E2AC8ED04120E2A9C
:10152300F0ED04120E2A99FD03120E2AC0FD0312D8
:101533000E2ADEFD03120E2A4DFE03120E2A70D967
:1015430004120E2A89D904120E2A95D904120E2ADE
:10155300A9D904120E2AC7D904120E2AD1D904120A
:101563000E2ADBD904120E2AEED904120E2A74DADB
:1015730004120E2AE9DA04120E2A18DB04120E2AC8
:1015830066DB04120E2AB5DB04120E2AD0DB04122A
:101593000E2ADADB04120E2AEBDB04120E2A2EDCEF
:1015A30004120E2A09F104120E2AA79E04120E2A0F
:1015B300D39E04120E2AF09E04120E2A039F0412D5
:1015C3000E2A1E9F04120E2A789F04120E2AA69F2B
:1015D30004120E2AB6A304120E2A14A504120E2A0C
:1015E30046A504120E2AA9A504120E2A15A7041251
:1015F3000E2A3DA704120E2A52A704120E2A62A72E
:1016030004120E2AA2A704120E2AE4A704120E2A19
:10161300F4A704120E2AC0E504120E2ADAE5041216
:101623000E2A02E604120E2A1BE604120E2A3FE6D5
:1016330004120E2A5DE604120E2A74E604120E2A20
:10164300A2E604120E2ABDE604120E2A54F1041275
:101653000E2A68CC04120E2A78CC04120E2A7DCDF1
:1016630004120E2AAFCD04120E2ADFCD04120E2A65
:1016730002CE04120E2A19CE04120E2A53CE0412DD
:101683000E2AB8CE04120E2AFACE04120E2A41CF25
:1016930004120E2A6ECF04120E2A99CF04120E2AB8
:1016A300A6FE02120E2AB8FE02120E2ACCFF021266
:1016B3000E2ACFFF02120E2AF4E904120E2A2AEA96
:1016C30004120E2A42EA04120E2A84EA04120E2A93
:1016D30094EA04120E2AD8EA04120E2A24A8041249
:1016E3000E2A67A804120E2ACCA804120E2AEBA80D
:1016F30004120E2A8DA904120E2A96A904120E2A88
:10170300E7A904120E2A10AA04120E2A1DAA041213
:101713000E2A8FAA04120E2A1DAB04120E2A62ABE4
:1017230004120E2A9BAB04120E2A00AC04120E2ADA
:1017330029AC04120E2AA0AC04120E2AEFAC041238
:101743000E2A2CAD04120E2A61AD04120E2A73ADBB
:1017530004120E2A85AD04120E2AA4AD04120E2A19
:10176300ADAD04120E2A69AE04120E2AACAE0412F9
:101773000E2AEAAE04120E2A6FE404120E2AAFE513
:1017830004120E2AAEFF01120E2AEADE04120E2AFA
:1017930020DF04120E2A68DF04120E2AC1E00412AD
:1017A3000E2A69DE03120E2A8FDF03120E2ACBDF05
:1017B30003120E2A89E103120E2AB7E103120E2A3D
:1017C30021E403120E2A61E403120E2A03E6031234
:1017D3000E2A99E603120E2AF3E603120E2A83E772
:1017E30003120E2AC7E703120E2A09E803120E2A70
:1017F3006EE903120E2AEEEA03120E2A2FED0312EC
:101803000E2A5DED03120E2A89ED03120E2A92EDC4
:1018130003120E2AEFED03120E2A88EE03120E2A8C
:101823009FF103120E2A25F203120E2A95F00412D9
:101833000E2AABF004120E2A63C804120E2A79C8CA
:1018430004120E2A1DC904120E2A5CC904120E2AA0
:1018530079C904120E2AAAC904120E2AF7C904125E
:101863000E2A2BCA04120E2A66CA04120E2A5BCC55
:1018730004120E2AF5E704120E2A54E804120E2A63
:1018830092E804120E2AD3E804120E2AA7C2011208
:101893000E2AB3C201120E2A15C301120E2A1FC348
:1018A30001120E2AAEC301120E2AEAC301120E2A36
:1018B300E3C401120E2A40C501120E2ACEC501123D
:1018C3000E2A1FC601120E2A9FC601120E2A61C8D4
:1018D30001120E2A66CA01120E2A60CB01120E2AC9
:1018E30092CC01120E2AE4CE01120E2A27D0011245
:1018F3000E2ACCD001120E2A7AD501120E2A70D6E6
:1019030001120E2A06D701120E2A2BD701120E2A14
:10191300C8D701120E2AE5D701120E2A05D80112E3
:101923000E2A73D801120E2A90D801120E2ABED89D
:1019330001120E2A56DA01120E2A77DA01120E2A42
:101943001DDB01120E2A65DB01120E2AC3DB011215
:101953000E2A66DC01120E2ACBDC01120E2A2ADDC6
:1019630001120E2ADCDD01120E2A4BDE01120E2AB1
:1019730086DE01120E2AFADE01120E2A45E001125A
:101983000E2AD5E101120E2A74E201120E2AB4E4E2
:1019930001120E2A16E501120E2A44E501120E2A3F
:1019A30067E701120E2A11EA01120E2A24EB011233
:1019B3000E2A179504120E2A219504120E2A6895F1
:1019C30004120E2AB99604120E2AD99604120E2A6C
:1019D300F99604120E2A449804120E2AE999041265
:1019E3000E2A569C04120E2AE39C04120E2A279EEA
:1019F30004120E2AC5EB04120E2A72EC04120E2AEC
:101A030088EC04120E2A59B504120E2AE6B5041204
:101A13000E2A5FB604120E2AFAB604120E2A1BB758
:101A230004120E2AEFB704120E2A69B904120E2A01
:101A330047C903120E2A76C903120E2AEEC90312EE
:101A43000E2AFDCA03120E2A59CB03120E2AC6CC44
:101A530003120E2AE2CC03120E2A34CD03120E2AED
:101A630072CD03120E2A85CD03120E2ADDCD031289
:101A73000E2A9FCE03120E2A1BCF03120E2A52CF19
:101A830003120E2A8ACF03120E2A12D103120E2A30
:101A9300F1D103120E2A3FD303120E2A22D40312CA
:101AA3000E2AAED403120E2AEED403120E2A0DD53B
:101AB30003120E2A58D503120E2A78D503120E2AC2
:101AC30011D603120E2A97D603120E2AF2D6031248
:101AD3000E2A32D703120E2AC8D903120E2AE1DACC
:101AE30003120E2A27DB03120E2A1CDC03120E2A12
:101AF30044DC03120E2A47DC03120E2A51DC0312C4
:101B03000E2A6DDC03120E2AE7DC03120E2A20DDF7
:101B130003120E2A4CDD03120E2A73DD03120E2A62
:101B230097DD03120E2A08DE03120E2A1BDE0312B0
:101B33000E2A4ADE03120E2A32EF04120E2A3EEF59
:101B430004120E2A7CEF04120E2AFD7F00120E2AC5
:101B530018B303120E2A3BB303120E2A88B40312DE
:101B63000E2AD1B403120E2A3DB503120E2A9BB5D9
:101B730003120E2A9EB503120E2AEFB503120E2A84
:101B830064B603120E2AE9B603120E2AECB6031248
:101B93000E2A6DB703120E2AAEB703120E2A9ABB92
:101BA30003120E2A44BD03120E2A94BD03120E2AF9
:101BB3001BC103120E2A4EC203120E2AC8C30312FC
:101BC3000E2A65C403120E2A50C503120E2AA5C796
:101BD30003120E2A45EF01120E2AEFEF01120E2A0D
:101BE3005AF001120E2A75F001120E2AFAF00112B0
:101BF3000E2A5F9104120E2A9BF101120E2A02F2A1
:101C030001120E2A81F301120E2AB0F401120E2AD8
:101C130038F501120E2A41F701120E2AEEF70112CE
:101C23000E2A92F801120E2A63F901120E2A1EFBE4
:101C330001120E2AB6FC01120E2A49FD01120E2AC8
:101C43006FFE01120E2A008003120E2A6380031214
:101C53000E2AAB8003120E2AEF8003120E2A4A814A
:101C630003120E2AA78103120E2AE28103120E2AFF
:101C730084D702120E2ABE8203120E2A3C84031258
:101C83000E2ABC8403120E2A178503120E2A3185ED
:101C930003120E2A528503120E2AAC8503120E2A52
:101CA300288803120E2A478803120E2A3789031243
:101CB3000E2A6A8A03120E2AE98A03120E2A258B38
:101CC30003120E2A948B03120E2A498C03120E2A36
:101CD300218E03120E2A288F03120E2AA0900312BC
:101CE3000E2A969203120E2A0C9503120E2AE696DA
:101CF30003120E2AA79703120E2A1F9803120E2A05
:101D0300369803120E2A2D9903120E2A219A0312D2
:101D13000E2A909A03120E2A7ED604120E2AD5D7C3
:101D230004120E2A94D804120E2AFCD804120E2A86
:101D330059D304120E2A74D304120E2AB8D30412F0
:101D43000E2ADED304120E2A05D404120E2A1DD441
:101D530004120E2ABFD404120E2AD4D404120E2A5B
:101D6300F7D504120E2A00D604120E2A09D604123D
:101D73000E2A12D604120E2A1CD604120E2AB1BF42
:101D830004120E2ABDC304120E2AC2C304120E2A61
:101D9300C4C304120E2A9AE104120E2AD0F10412CB
:101DA3000E2A2BC404120E2AFCF104120E2AAFEEE3
:101DB30004120E2AD9EE04120E2A35AC02120E2A90
:101DC30068AC02120E2AD4AC02120E2A6FAD0212B4
:101DD3000E2A0CAE02120E2A51AE02120E2A73AE56
:101DE30002120E2A8CAE02120E2AB2AE02120E2A72
:101DF300D4AE02120E2A12AF02120E2A56AF0212EC
:101E03000E2A78AF02120E2ADAAF02120E2AA1B0FE
:101E130002120E2A58B102120E2ACAB102120E2A57
:101E230095B202120E2AE8B202120E2A4EB3021221
:101E33000E2A88B302120E2ADAB302120E2A48B40B
:101E430002120E2AB3B402120E2AB6B402120E2ADA
:101E530037B502120E2ACEB502120E2A4EB6021260
:101E63000E2A6DB602120E2AD1B702120E2ADEB75F
:101E730002120E2AEAB802120E2AF7B802120E2A2A
:101E830000B902120E2AD8BA02120E2AF2BB0212AB
:101E93000E2A6BBC02120E2ADDBC02120E2AFFBCF4
:101EA30002120E2A93BD02120E2A67BF02120E2AD5
:101EB3003EC302120E2A52C302120E2A62C3021238
:101EC3000E2A6CC302120E2A75C302120E2A7EC397
:101ED30002120E2A88C302120E2AB5C302120E2A58
:101EE300DEC302120E2AE9C302120E2A0DC4021225
:101EF3000E2A31C402120E2A9BC402120E2AE1C416
:101F030002120E2AFEC402120E2A7BC502120E2AE8
:101F1300B2C502120E2AF1C502120E2A3EC60212E1
:101F23000E2AC4C602120E2A92C802120E2A15C91C
:101F330002120E2AF9C902120E2A60CC02120E2ACC
:101F4300B9CC02120E2A03CD02120E2A5ECE021261
:101F53000E2A93CE02120E2AE5CE02120E2A9ACF31
:101F630002120E2A49D002120E2A86D002120E2A1B
:101F73001BD102120E2A87D102120E2A1C2E001226
:101F83000E2A4E2E00120E2A7C2E00120E2A5230DA
:101F930000120E2A323100120E2A8A3100120E2A42
:101FA300C53200120E2A113300120E2A3A360012DD
:101FB3000E2A2D3900120E2A7D3A00120E2A133BE7
:101FC30000120E2A1F3B00120E2A513B00120E2A4A
:101FD300D43C00120E2A853E00120E2A193F00122D
:101FE3000E2A5C3F00120E2ADA3F00120E2AF73F38
:101FF30000120E2A274000120E2A5C4000120E2AFD
:102003002C4100120E2AD54100120E2A5B44001205
:102013000E2A7B4500120E2A664600120E2AE84657
:1020230000120E2A1C4B00120E2A594B00120E2AC4
:10203300B14B00120E2AE44B00120E2A4E4C001232
:102043000E2A844C00120E2A0F4D00120E2A674DE1
:1020530000120E2A3E4E00120E2AF74E00120E2ACE
:10206300924F00120E2A9A5200120E2AB6530012F1
:102073000E2A595700120E2A4D5800120E2A505894
:1020830000120E2A7F5800120E2A855A00120E2AB9
:102093005E5B00120E2AA15B00120E2AF75C00128F
:1020A3000E2A365D00120E2ABF5D00120E2AF35D62
:1020B30000120E2AB85E00120E2AD06000120E2AF9
:1020C300416100120E2A816100120E2A0F62001272
:1020D3000E2A316300120E2AF36300120E2AFA65E8
:1020E30000120E2A126600120E2A266600120E2A0B
:1020F3005E6600120E2A8C6600120E2A0B6800120E
:102103000E2A306900120E2A8D6900120E2A3F6AC8
:1021130000120E2A666A00120E2A2D6B00120E2A76
:10212300C56B00120E2AEB6D00120E2A206E0012F0
:102133000E2A836E00120E2AB26F00120E2A5A70F4
:1021430000120E2A8B7000120E2AA37000120E2AA0
:10215300327100120E2AE67300120E2ABE750012A7
:102163000E2ADA7500120E2AF67500120E2AC476AC
:1021730000120E2AB77A00120E2AB08501120E2A17
:10218300E28501120E2AD18901120E2A1D8A01123B
:102193000E2A638A01120E2A058B01120E2A618B05
:1021A30001120E2AA68B01120E2AED8C01120E2AA1
:1021B300018E01120E2AF09101120E2A749201125D
:1021C3000E2A819301120E2ADD9301120E2ACD9558
:1021D30001120E2A429601120E2A4C9601120E2A61
:1021E300599601120E2A849601120E2A6B97011238
:1021F3000E2A159801120E2A939801120E2AB398EB
:1022030001120E2ADC9801120E2AFE9801120E2AE0
:102213005E9B01120E2A249C01120E2A699C011254
:102223000E2AE69C01120E2A979D01120E2AC99DC1
:1022330001120E2A0F9E01120E2A4B9E01120E2A24
:102243009B9E01120E2AEF9E01120E2A459F011238
:102253000E2A919F01120E2AFE9F01120E2A79A0C7
:1022630001120E2A44A201120E2A44A301120E2ABD
:1022730069A401120E2AA8A701120E2ABBAA0112F1
:102283000E2A78AB01120E2ABCAB01120E2A6CADDA
:1022930001120E2A80AD01120E2A8AAD01120E2AF6
:1022A30094AD01120E2AA0AD01120E2ABCAD01128B
:1022B3000E2A67AE01120E2AA6AE01120E2AB0AE86
:1022C30001120E2ABAAE01120E2A2AAF01120E2AE9
:1022D30075AF01120E2A8AB001120E2AE6B001125E
:1022E3000E2A67B101120E2A26B201120E2A2FB34B
:1022F30001120E2A63B401120E2A51B501120E2ADD
:1023030069B501120E2AC4B501120E2AE2B50112F3
:102313000E2A2AB601120E2A51B601120E2AECB663
:1023230001120E2AB2B701120E2A44B801120E2A64
:10233300BEB801120E2AD8B901120E2A85BA0112AB
:102343000E2AADBB01120E2AFDBB01120E2A61BC7F
:1023530001120E2AC3BC01120E2AF1BC01120E2A6D
:1023630015BD01120E2A4ABD01120E2A7BBD0112B0
:102373000E2AAEBD01120E2ACEBD01120E2A36BEA2
:1023830001120E2A2ABF01120E2A85BF01120E2A3C
:10239300AEBF01120E2A36C001120E2AB9C00112B5
:1023A3000E2AE4C001120E2AC9C101120E2A84F2B8
:1023B30003120E2ABCF203120E2ADDF203120E2AB6
:1023C3001FF303120E2A81F303120E2A8BF3031257
:1023D3000E2A9BF303120E2AD6F303120E2AB6F724
:1023E30003120E2AA3F903120E2A89FB03120E2AE3
:1023F30020FC03120E2AC2FC03120E2A24810212AD
:102403000E2AA28102120E2AFE8102120E2A49828C
:1024130002120E2A648202120E2A8F8202120E2ADE
:10242300AC8202120E2AB88202120E2A4F840212C2
:102433000E2A688402120E2AED8402120E2A0085E7
:1024430002120E2A1F8502120E2AC38502120E2AB9
:10245300448702120E2AF78802120E2A8D8902126D
:102463000E2A908902120E2A008A02120E2A1E8A4E
:1024730002120E2AB58A02120E2AFD8A02120E2AAF
:10248300008B02120E2AC68B02120E2A338C021202
:102493000E2A598C02120E2AE48C02120E2A028D85
:1024A30002120E2A488D02120E2AFC8D02120E2AE7
:1024B300468E02120E2A758E02120E2AD28E021236
:1024C3000E2A078F02120E2A338F02120E2A418F11
:1024D30002120E2A8E8F02120E2AFE8F02120E2A6B
:1024E300479002120E2A939002120E2ABF900212F4
:1024F3000E2ACA9002120E2AE89002120E2AD391D3
:1025030002120E2ADD9102120E2A189202120E2ACC
:10251300289202120E2A319202120E2A8592021278
:102523000E2A999202120E2AC89302120E2ADD93E2
:1025330002120E2A6B9402120E2AB09402120E2A71
:102543003C9502120E2A479502120E2A8996021210
:102553000E2AA49602120E2AF09602120E2A5F97F2
:1025630002120E2A989702120E2AB29702120E2A0C
:10257300F49702120E2AC49A02120E2A719B0212B7
:102583000E2ADE9B02120E2A1E9E02120E2A369E6F
:1025930002120E2A399E02120E2A459E02120E2A9A
:1025A300599E02120E2A619E02120E2A949E021254
:1025B3000E2A969F02120E2A1DA002120E2A8DA029
:1025C30002120E2A0FA102120E2AD0A102120E2A03
:1025D300EFA102120E2A90A202120E2AEDA20212FB
:1025E3000E2AF0A202120E2A64A302120E2AB3A428
:1025F30002120E2AB9A502120E2A44A602120E2AAC
:102603005FA702120E2A27A802120E2A58A8021246
:102613000E2A7BA802120E2A84A802120E2AB3A83D
:1026230002120E2A43A902120E2AF9A902120E2A35
:102633006EAA02120E2A15AB02120E2A8AAB0212DE
:102643000E2AC1AB02120E2AFFAB02120E2AF89019
:1026530004120E2AE49004120E2A419004120E2A48
:10266300418F04120E2A5A8E04120E2A4A8C041227
:102673000E2A588B04120E2AF68A04120E2A04B369
:1026830003120E2AFAB203120E2A8FB203120E2A73
:102693002BD402120E2A7FD302120E2AC0B00312C9
:1026A3000E2A7EB003120E2ADCD202120E2A96D212
:1026B30002120E2A82AF03120E2A56AF03120E2AFB
:1026C3000DAF03120E2A4EAE03120E2A3AAB0312BB
:1026D3000E2AFBA803120E2AC8A803120E2A6FA8FB
:1026E30003120E2A02A803120E2AC1A703120E2AEE
:1026F300FAA603120E2A94A603120E2A33A6031275
:102703000E2AD3A503120E2AAAA403120E2A3EA44C
:1027130003120E2A96A303120E2A91A303120E2A62
:1027230085A303120E2A61D202120E2A2ED202129E
:102733000E2A19D202120E2AEED102120E2AD194B7
:1027430004120E2A9D9404120E2A469404120E2A91
:10275300B89F03120E2A929F03120E2A309F031270
:102763000E2AD19E03120E2AB49204120E2A929EAE
:1027730003120E2A7F9E03120E2A749E03120E2A40
:10278300439E03120E2A069204120E2A309C031251
:102793000E2A648203120E2AA39B03120E2A5F9B46
:1027A30003120E2A339B03120E2A868A04120E2A60
:1027B300598A04120E2A268A04120E2AFE8904124A
:1027C3000E2A9F8904120E2A7F8904120E2A4A892F
:1027D30004120E2AF68504120E2ADE8304120E2A30
:1027E300C88104120E2A488104120E2A6991041228
:1027F3000E2AF48004120E2AA88004120E2A0080E6
:1028030004120E2A54F10100000080FBE4738F00D0
:102813000100C21C87000100C01C35000400891C94
:10282300250002008D1C260002008F1C27000200D9
:10283300911C280001009B1C290001009C1C8400A2
:102843000400241A86000100421C2A0001009D1C7A
:102853002B0001009E1C2C000100A21C2D0008006F
:10286300301A2E000100A31C2F000100A41C30000D
:102873000100A51C31000100A61C32000100381A1A
:1028830033000100391A34000100A71C360001008F
:102893003A1A38000100A81C39000100A11C83006A
:1028A3000200BE1C63000100461A640001009F1C65
:1028B30065000100A01C6D000100471A71000800AB
:1028C300281A66000100BD1C43000100AE1C440031
:1028D3000200AF1C45000100B11C46000200B21CFF
:1028E300470008003E1A48000100B41C4B000100D9
:1028F300B51C04000100C11CA1000100C51C370068
:102903000100C41C88000100C31C3C0001003B1AE9
:102913003D000100A91C49000200B61C670001002C
:10292300481A4D000200B81C4E000100BA1C4F00AB
:102933000200BB1C3E000100AD1C510001003C1A0B
:1029430052000100AB1C53000100AC1C54000100F9
:102953003D1A0000000000000001363601010001AD
:102963000201000103010001040106060502000043
:10297300070100340801000F090401010D0100FFE4
:102983000E08000017020000190100FF1A010001E0
:102993001B0100FE1C0100081D0200001F010001B5
:1029A30020010001210200002301000F2402000086
:1029B3002601000127010008280200FF2A01000761
:1029C3002B0102402C0100002D0100012E0100010A
:1029D3002F0100FF30010B1D310800003A010008F0
:1029E3003B01000F3C0100013D0100FF3E040000DC
:1029F30042040000460400004A0400004E040000A4
:102A030052040000560400005A04000000000100B4
:102A13002001AF85000002002001AA850000030009
:102A23002001AB85000000002001AE8500000400FA
:102A33004201C2840000050042019884000007009F
:102A43003001AC850000FDFF2101A68500000600D2
:102A530042017784000000402001AF85010020007F
:102A63002005701C010021002005711C07000000D7
:102A730030230219070010003023001901037103EA
:102A83000103010301030103010322030203010301
:102A9300100300030003000300030003000300030B
:102AA3004203000324030603000300030403120389
:102AB3002503230325032303040304030003000363
:102AC3000003440300030003230300036503210001
:102AD3003503810300030503000300030003000320
:102AE3002503230301017101010101011101010109
:102AF3003101010101018001100161013B0014005A
:102B030063017301720162014301000113010601B4
:102B13003D01350004011201000100010001000123
:102B230004010401330133013C0144013201360045
:102B3300000100016501000135008101000105016B
:102B43008201830100010300710030016000110064
:102B53007000310220035004800010006100000067
:102B6300140063007300720062004300000013004E
:102B73000600000000000400120000000000000036
:102B8300000004000400370037003C02440000004A
:102B93000000000000006500000035008100000017
:102BA300050000008300000003027102300160028F
:102BB300110270020102020202028002100261028B
:102BC3003A0041006302730272026202430200028E
:102BD3001302380000020002040212020002000283
:102BE3000002000204020402370037003C024402E0
:102BF3000002390000020002650200023502810270
:102C03000002050282028302000236000100060070
:102C130000000F00000000000000000000000000A2
:102C230003FFFF00000403FFFF0000FFFF0FF40199
:102C33000005C4040320000100000B000000000095
:102C430000000003010F000000000000000000006E
:102C53000000000000000000000000000000000071
:102C6300000000000000000070199A197619AA18D4
:102C73007C19A0197C19AC198219AA187C19A019FE
:102C83008819AA18000000008E19AA180000000075
:102C9300000000009419AA180000000000000000C2
:102CA3000000000000000000000000000000000021
:102CB3000000000000000000000000000000000011
:102CC300000000000000FE1B0100FE1B0200741B3D
:102CD30002806E1B03007A1B0400801B0480861B8A
:102CE30005008C1B0600981B3100AA1B3300B01B88
:102CF3003400B61BFFFF00000300030004000800BC
:102D030010001F003E007B00F600EC01D703AF0765
:102D13005D0FB91E713D000007ECFDFDFDECDCDC31
:102D2300CCBCACAC9C9C8C7C7C6C6C5C5C5C4C4C80
:102D33003C3C2C2C1C1C03EAF5E5D5D5C5B5A59563
:102D43009585857575656555554545353525251530
:102D530015050AF22102BC2105C82107C2210CA4D2
:102D6300210DB021FF000000160F00000B150B0210
:102D73000002220F3300000E0F0700000030230370
:102D8300190700100030230119D0D1D2D3D4D5D6DE
:102D9300D7D8D9DADBDCDDDEDF5A69674265654106
:102DA3006C6C69616E6365303930301618192023F5
:102DB3001A1C1E3000034D4C4651181A25050200FB
:102DC3000119161816161823030030301718192185
:102DD300301B1D1F30003C40423A3F3F392F4730E4
:102DE3000C0E020B040B0A0708000F020402010178
:102DF30001010902E803000000BE040A0E000100FD
:102E03000300E803FF04090E031E1E03100C040451
:102E13000828020C0508150A04C082C08312124A4E
:102E2300901A717494F0A3741FF0901A73749AF04B
:102E3300A3741FF0901A7574A0F0A3741FF0901A76
:102E43007774A6F0A3741FF0025B5774F71208BCE3
:102E5300901A65E4F0E9901A64F07C3E7D1A7A6674
:102E63007B1A121886901CB4E0901A6EF0901A6FB9
:102E73007428F0A3741A023DE474F01208BCEAFE4D
:102E8300EBFF54807003022FED901A64123E7970A9
:102E930003022FE6EA241B1256E4707CEA241F1275
:102EA30056E464137002A3E0706E8A828B8312303F
:102EB3003B901A7F124C76750A00750B00800D1239
:102EC3003CBA126D5612179CAA0EAB0FEA4B604820
:102ED3008A828B83E0650C7004A3E0650D702C8AF5
:102EE300828B83A3A3A3A3E0F50EA3E0F50FE50A6A
:102EF300450B8A828B83A3A3A3A360C3123FBC8524
:102F03000A82850B83A3A3A3A380B78A0A8B0B8AA8
:102F1300828B83124C7280B4E508242A1256E4FC97
:102F2300E5082402F8E43509F9E8FAE9FB901A7F89
:102F3300123122A3A3E06402703C8A828B83124C79
:102F430076800B88828983A3A3A3A3123FBCE8499D
:102F5300601F88828983E06A7003A3E06B70E48852
:102F6300828983A3A3E06C70DA901CBA125A14808E
:102F73006BECF9121FD0850882850983E064017028
:102F83004FE5082418123024120E661262FE120C4A
:102F9300ABE5082412123024120E66E508123E6DCA
:102FA300120E62E508240B126302120CAFE508242B
:102FB30017123E0AE5082402FCE43509FDE508245E
:102FC30019FAE43509FB1227E0740A120E75800C16
:102FD300E064027007AA08AB091220AEAA08AB0985
:102FE300121700EEFAEF6480802DEA5402600C9011
:102FF3001CCD7401F0EA6402FA8023EA5408601AD3
:10300300121FCAEA4B700B901A811261D97A081207
:103013003031EE6408FAEFFB80047A007B0002692A
:1030230088F582E43509F583E0F50A780A22FB90F6
:103033001A64E0F912185C22A3A3E0F50CA3E0F5EF
:103043000D227B00901A64E0F91218507404227464
:10305300F41208BC8A088B098A828B83A3A3A31268
:103063004A6E123E1538F583E02409FA126920707E
:10307300030231158A828B837402124AE385088224
:10308300850983123122E8F0A3E912659A8A828BBB
:1030930083A3A3A3A3A3A3A3A3F0E5082403F8E4B2
:1030A3003509123117123E153AF583E08E828B8370
:1030B300A3A3A3A3F0EE2409FAE43FFB8E828F833C
:1030C300A3A3125CC6F5838882E0A2E58E828F8378
:1030D300A3A3A3A3A3500474018001E4F0E508248F
:1030E30003F5828983124C76EA1251F73BF583127A
:1030F30068E7120E5E123E143B125DB88E828F8318
:10310300A3A3127A96120E75EEFAEFFB901A6412CD
:10311300696D8016F98882F583E0FAA3E0CA22126A
:103123004E13A3A3227402120E757F04020C26749D
:10313300F21208BC8A088B09ECFAEDFB740E12112B
:103143007DE0FC1212808A0C8B0DAE0CAF0DEA4FA2
:103153006030AC08AD0912126EE96026AC08AD0907
:10316300EEFAEFFB121274E970148E828F83123F12
:10317300A9FAEFFB121268AA08AB09121298790098
:10318300800279B4024D6274F01208BC74F6120F17
:103193000DEAFEEBFF8C088D09750FB3852182853F
:1031A3002283E4F0750E008002050E902E12E49344
:1031B300F8E50EC39840030232B1AA0E7B00121247
:1031C300BC8A0A8B0BEA4B60E08A828B83A3A3122F
:1031D30032B828F0F8C3EE98EF940050CC7C157DFC
:1031E300007900AA08AB091216E8850A82850B83C9
:1031F300A3A3A3A3126D93E0F8EEC3982925E0F8E7
:10320300E433F9E50A28F582E50B39F583A3A3A393
:10321300A3A3A3123E1FA312583B8A0C8B0DAC0C25
:10322300AD0DAA08AB09121886850A82850B83A304
:10323300E06401700A1262FE7401123E318044742C
:1032430001120F05850A82850B83124C741212A496
:10325300E9603D740912117DE0C0E01262FED0E026
:10326300F0740912117DE0640370137401120F05E9
:10327300E508240BFAE43509FB1218868012740161
:1032830012117D123FBCE5081258213509126D5405
:10329300850A82850B8312630A123E31A3A3E0C021
:1032A300E0E5082414126302D0E0F0750F00A90FC3
:1032B300740A026985A3A3A3E0F88521828522838A
:1032C300E02274F71208BCE9FE8A828B83A3A3A3CE
:1032D300A3A3A3E0540860338A828B83A3A3A3A38D
:1032E300A3A3E0540260218A828B83A3A3A3A3A395
:1032F300A3A3A3A3E06406600F74E96E600A74CD10
:103303006E600574F06E7003121FB202466174F0B2
:103313001208BC74EF120F0D740F12117D1260BDF1
:10332300740812117DE9F0ECFEEDFF740512117DB6
:1033330012442912464DA3E0F912128C740612119D
:103343007D1260BD740612117D125288700302351E
:10335300CC123E59E0FA740612117DE0F9121EF206
:1033630012362CF8A3E0F9E84970030235CCEE24B9
:1033730003F50AE43FF50BEE2406F508E43FF509EF
:103383007C00850882F583124C76850A82850B833F
:10339300E0F9121292740312117D1260BD850A8244
:1033A300850B83E0C0E0852182852283123625D0F8
:1033B300E012539DF9852182852283123CC1124E6E
:1033C300EF1232BBFAA3E0CA2407F582E43AF5838D
:1033D300E8F0A3E41260C82406F582E438F583E438
:1033E300126D60124A62120E5EEE123E153F125DBE
:1033F300B8740312117D124A6E2409127A90120EC8
:1034030075742912117D126D8D12311C1253B03A4D
:10341300126D54742B12117DE0C0E0852182852248
:103423008312524FD0E0F0740212117DE4F0742540
:1034330012117D7808121126023523740312117DAF
:10344300125D808882F583123614A3A3A312584613
:10345300FB1212AA850E82850F83A3EAF0A3EBF079
:10346300740312117D123625A3123614125A55A273
:10347300E6500F850E82850F83A3A3A3A3A3E0D2F7
:10348300E1F0740512117DE0706B850E82850F8368
:10349300A3123FBC901ABFE0687003A3E0697055A4
:1034A300850E82850F83A3A3A3123DF4750C0078C8
:1034B3000C120E667808120E5A742912117DE0F56B
:1034C3000C780C120E66742712117D120CAF901A31
:1034D300CC120CAF7900741912117D124C461220D4
:1034E300F6740A120E75850E82850F83A3A3A3A318
:1034F300A3E04405F0740212117DE004FC8E828F78
:1035030083124C708E828F83A3A3A3E0F9121292CD
:10351300740312117D1260BD740212117DE004F078
:10352300740312117D1252886067740212117DE0D8
:10353300FA740612117D123FBCC3EA98E499505104
:10354300740212117D1238FE852182852283E028C0
:10355300F8A3E039F9E8240FF50EE439F50F850EE9
:1035630082F583E4F0740312117D12361F64016047
:103573000302343E740512117D7401126973F074F1
:103583000312117D125B47123921E8F0A3E90234DB
:1035930062852182852283124C76121EF885218250
:1035A300852283120CAF742612117DE0FD7425125F
:1035B300117DE0FC740A12117DE0F9EEFAEFFB12C3
:1035C3001FAC7402120E7580438E828F83A3A3A354
:1035D300E0C0E0740C12117DD0E0F01267DCE0C0B3
:1035E300E0740D12117DD0E0F0740612117D1252B9
:1035F300887009740E12117D74B98007740E12114C
:103603007D7410F07409120EFD1220F0741102691A
:1036130085E0850E82850F83A3A3A322E012537551
:10362300E022E0125375A3A322852182852283EA37
:10363300F0A3EB1252912274F01208BC74E1120F42
:103643000D740412117DE9F0740312117DECF07412
:103653000212117DEDF08A0E8B0F742F12117D1261
:10366300303DAA0CFB121EE6740112117DE9F0AA8B
:103673000CAB0D121EEC740112117DE070030238C5
:10368300F9852182852283E480158E828F83A3A30B
:10369300A3A3A3E0D2E3F0852182852283E0041271
:1036A30068CBF8852182852283E0C39840030238E2
:1036B300F0740112117DE070030238F085218285D8
:1036C30022831238FEE50C28F8E50D39F9E8240FBA
:1036D300FEE439FF8E82F583A3A3A3A3A3E0A2E0B4
:1036E30040B5750800750A08750B00740212117D48
:1036F300E060037508207C087D0079007405120ED4
:10370300FD1216E88E828F83E0603E901B0FE0640B
:1037130001701AE508D2E3F508750B1012390E1281
:10372300117DE8F0A3E912573974FF807643080C42
:10373300750A0C8E828F83A3123919126D56740584
:1037430012117D74FFF0A3805A740412117DE0609E
:1037530009E508D2E6F508750A0A8E828F83A3E08D
:1037630064FE7003A3E0F47030741212117D7404CC
:10377300126328F8741D12117DE8124AE3741212C1
:103783000EFD121E147D007C007900741512117D4C
:10379300AA82AB83121BE6800B12390E12117DE84D
:1037A300F0A3E9F0740712117DE508F0123E50C052
:1037B300E0740912117DD0E0F0740A12117D7401D6
:1037C300F07405120EFD1220B4741112117DE06025
:1037D300030238CE740D12117D1253988E828F839B
:1037E300A3A3A3A3F0740D12117D124AB1E50AF04D
:1037F300A3E50BF0740312117DE0C0E0124A42D03E
:10380300E0125A556011901B0FE0C0E0740D1211C5
:103813007D124A8CD0E0F0740D12117D123FBC85ED
:103823000C82850D83A3A3A3A3A3123907241C121F
:1038330060B7126D70123909125A07391267FBC04B
:10384300E0124A29D0E01268C0C0E0740D12117D65
:1038530012456FD0E01265C1C0E0740D12117D12E4
:103863004565D0E0F0740D12117D12391912390734
:10387300242A1260B7850E82850F83A3A3A3A3A373
:10388300A3A3A3E01260B0123E3FC0E0124551D0A3
:10389300E0F0740D12117D124C76850E82850F8334
:1038A3001268D62428F582E43B126D54123E481266
:1038B30068E7120E5E125DB1EA1260493B127A9418
:1038C300120E757405120EFD1220BA8E828F83A319
:1038D300A3A3A3A3E0D2E0F0741112117DE060036F
:1038E30002368D740112117DE0140236997900AA13
:1038F3000CAB0D121FB8741F026985E075F007A4A5
:10390300F8A9F022A3A3124C7AE8228E828F83A314
:10391300123FC0740522E0123921A3A3A322F8A306
:10392300E0F9850E82850F83A32274F01208BC741C
:10393300E8120F0DE9852182852283F08A0E8B0F11
:103943008A828B83A3A3A3A3A3A3A3A3E0F9121F38
:10395300108A088B09EA4B7003023A0AE50E1252E9
:103963000B123E68123DFF852182852283E06003AE
:10397300023A0D7C04850E82850F83A3A3A3A3A320
:10398300A3A3A3E0F9121F16EE4F607B8E828F83F1
:10399300A3A3A3A3123FBC740712117D1261EE12FD
:1039A3003FBC740912117D124B13C0E07411121144
:1039B3007DD0E012659FA3A3A3A3A3A3A3123FBC3F
:1039C300740F12117D126D56741212117DE4126977
:1039D3007BC8241FF582E438F583125D7CC413137E
:1039E3005403FC70027C048E828F83E0F978081202
:1039F3000E62742059FD744059F97403120EFD12BE
:103A03001FAC7402120E750269837C08850E8285D1
:103A13000F83A3A3A3A3A3A3A3A3E0F9121F168B4E
:103A23000BEA4B700302398BEE4F60DB85218285F5
:103A33002283E0F50C780C120E66850882850983D3
:103A4300A3A3A3A3A3A3A3E0F50C780C120E668A89
:103A5300828B83A3A3A3E0FB8A82850B831275B3B6
:103A63008A82850B83E0FA8E828F83A3A3E0F91207
:103A730027E67402120E7502398F74F71208BC74AC
:103A8300FA120F0DE9FE780179017F0080037900B6
:103A93000F124DF2E0FCEFC39C5026EF75F007A424
:103AA300FC85F008AD08EA2CFCEB3DFD1243E1E098
:103AB300A2E050DA540C60D6E0A2E250D378008042
:103AC300CF8A828B83A3A3A3A3A3A3E0703DE9A220
:103AD300E0400574016E70338A828B83A3A3A3A392
:103AE300A3A37401123DD1E0C0E0740312117DD091
:103AF300E0124440E0C0E0740412117DD0E0F074A1
:103B03000512117DE8125D1B1220F0740602465E59
:103B1300C082C0837901121FB8025B5774F4120884
:103B2300BCEA4B901CCD6019E4F08A088B09F50AB6
:103B3300F50B7808120E5A7A02123045120E758070
:103B43000A7401F07A027B0012303202312D74F0D4
:103B53001208BC74F3120F0D740312117DE4F0A369
:103B6300F0901A7F123DFF740112117DE4F0A3124D
:103B73004AE804F0901AB9E0A2E35003023C44126D
:103B83003DC5740912117D121166740912117D78F5
:103B930008121126901A817808120EDD740512118D
:103BA3007D7808121117123CC8740512117D78082C
:103BB3001210BA50077A017B00023CB5740512114A
:103BC3007D780C121126901CB9E0F509780C790860
:103BD30012084DA80CA90D901CBAE0C398E49950A3
:103BE30003E08001E8852182852283F074091211A4
:103BF3007D7808121126C008C009C00AC00B7405DD
:103C030012117D780C121126123CC8780C79081217
:103C1300084DE4F50AF50BD00FD00ED00DD00C787B
:103C23000C7908120FB5901A81780C1211178011B4
:103C3300123CBA126D56EEFAEFFB12179CAE08AFA8
:103C430009EE4F60658E828F831232B8C398502D70
:103C5300EE2403F8E43FF9E0FA88828983E0C39A0B
:103C6300F06023740312117D124122740112117D3D
:103C7300EEF0A3EF126209FEA3E0FF80C48E828FF1
:103C830083A3A3A3E4F08E828F83127A4D7401126F
:103C9300117D1252888E828F83A3A3A3A3609112F6
:103CA30061E212117D123CC18089740312117D12ED
:103CB3004C76740D026985123FC0901A7F22125D03
:103CC300A7A3A3A322901CB8127A55E4F50AF50B17
:103CD3002274F01208BC8A088B09890A78007900DB
:103CE300901A7F123DFFFBEE4B601E088E828F837E
:103CF300A3A3A3A3124C40601008E87001098E82AD
:103D03008F83123DFBEA4F70E3901CBB124C76C3CA
:103D1300E89AE99B4003023DB87A06123DBBA80C22
:103D2300A90DEA497003023DB88A828B83E508F046
:103D3300A3E509123DDAE50AF0901CBA124DFA1216
:103D43003DD1A3E4F0A3F0901A7F124C40600D8E96
:103D5300828F83A3A3A3A3126D568017901A7F1299
:103D63006D56901AB9E0A2E34009123DC5901A813D
:103D7300121166901AB9E0A2E3503A7A087B0090D8
:103D83001A64E0F9121862EA4B4C4D7028901CB883
:103D9300E0F508A3E085080CF50DE4F50EF50F78C2
:103DA3000C120E5A7A087B00901A64E0F912185626
:103DB3007404120E750269887B001217968A0C8BA5
:103DC3000D2212186EEAF8EBF9ECFAEDFB22123D24
:103DD300D522123DDAA322F08A828B83A3A322E5A4
:103DE30008F0024661F08E828F83A3A3A3A3A3A34B
:103DF300221256F2A3A3F022A3A3A3A3E0FEA3E0FF
:103E0300FF227F05020C26F582E43509F583E0F9EC
:103E130022EA123E19222410F582E422123E27A33D
:103E2300A3A3A322123FC485088285098322123EDD
:103E33003522F0850A82850B83A3A322E50E241184
:103E4300123E65E022E50E240E123E6522E50E24A5
:103E530010123E65E022123E5D22EE123E193FF53E
:103E63008322F582E4350FF58322240FF50AE43526
:103E730009F50B780A22E0F91217128A088B09EA6E
:103E83004B2274F21208BC890B8A088B098A828B35
:103E930083124C76121FDCEA4B600479B8806A12F5
:103EA3001FE8E9F8902E0FE493F9E8C399400479E9
:103EB300B280567A15123DBBAE0CAF0DEA4F7004BB
:103EC300791080458A828B83E4F0A3123DDAE50BF7
:103ED300F0750A007808120E5E7C127D00EA240356
:103EE300126892120E75901A851252887008901AF1
:103EF30085800C123FBC88828983123F0F70F4EED9
:103F0300F0A3EFF0121FFA7900024D62124C7AEA25
:103F13004B8882898322C082C083901A8580048C57
:103F2300828D831275B4EC4D60288C828D83A3A39C
:103F3300E069600574FF6970E68C828D83A3A3A397
:103F4300E06A7003A3E06B70D6EC2403FAE43DFB54
:103F530080047A007B00025B5774F71208BCE9FD0A
:103F630074FE6D70047C0180027C00901A858009C8
:103F73006D70027C0188828983125288601F888257
:103F83008983A3A3A3E06A7003A3E06B70E7ECA2A9
:103F9300E088828983A3A3E050D6F9800279FE02E8
:103FA3004661EEF9800CA3A3127A55EE2274021235
:103FB3000E757F02020C26F583123FC022123FC406
:103FC30022E0F8A3E0F922123FC48E828F832212EB
:103FD3000E757F03020C26C082C0837900901A8578
:103FE300800109E0FAA3E08A82F583E582458370C4
:103FF300F1025B5774F61208BCE4F508F50978087A
:10400300120E62902E0FE49375F013A4A9F01241DF
:1040130017126DB4120E75E9FE74096E7003121F48
:10402300F4023FA574F61208BC74FE120F0D85212D
:1040330082852283E4F0A3F0A821A92288088909B4
:104043007808120E627508027509007808120E626C
:10405300126A25120E75023FB074F51208BC74EB98
:10406300120F0D852182852283E4F0A3F0901A8537
:1040730080748E828F83A3A3E0C0E0740212117D4B
:10408300D0E0125739A982AA8389088A09750A00E0
:104093007808120E5E7C127D00740612117D126D7B
:1040A30079120E757402120EF588088909780812C0
:1040B3000E627508137509007808120E62740412F3
:1040C300117D12522B75F013A4F8AAF075F013E9C1
:1040D300124113126A2D120E7585218285228312D5
:1040E30041228E828F83123DFFEE4F7085A821A956
:1040F30022880889097808120E627508027509007A
:104103007808120E62126A25120E757415023FD2D8
:10411300A42AF9E82402FCE439FD7A427B0022E078
:104123002401F0A3E03400F02274F41208BC74EB11
:10413300120F0D7E007F00A821A922880889097823
:1041430008120E627508028E097808120E627C004E
:104153007D007A42126DC0120E75E9706C8E088074
:10416300567402120EF5880A890B780A120E6275CC
:104173000A13750B00780A120E62E50875F013A492
:10418300F8AAF075F013E509124113126DC2120E6D
:1041930075E9701B740312117DAA82AB837402123A
:1041A300117DE0F9121FD6E970050EEE70010F05BF
:1041B30008E50870020509852182852283123FBC28
:1041C300C3E50898E509994098EEFAEFFB741502E8
:1041D300312A74F61208BC8C828D83A3A312442E59
:1041E300F0EA12604F3BF583E0C0E01243EBD0E00E
:1041F300F0EA241DF582E43B123FBA1243CF124486
:1042030029F0A3F0EA241FF582E43BF583123DFF76
:10421300EC1243C23DF583EEF0A3EFF01243C83B2B
:10422300F5831243F9A3A3A3A3A3A3EEF0A3EF1271
:104233005CAAFE8C828D8312443874035EFEC394A1
:104243000340030243B5EE600874026E600302424A
:10425300DA8C828D83E0540CFE740C6E700302437F
:1042630019E0A2E4400D88828983E08C828D83A3C8
:1042730012444E74086E60030243191243D9740149
:10428300F08A828B83A3A3A3A3A31256FF70148C7B
:10429300828D83E0440C124440A3A31243F9EEF051
:1042A300A3EFF08C828D83E0A2E4402B888212443A
:1042B3000712441C500109F582124407A3A3A3A3C8
:1042C300A3A3F0A3EF1244488C828D83A3A3A3F08E
:1042D300E82403F850010988828983E0C0E0EC24D4
:1042E30011F582E43DF583D0E01244388C828D834E
:1042F300E0A2E7507588828983E0FE8C828D831269
:10430300444E74FC5E700C8C828D83A3E054036472
:1043130003701E0243B51243D9E4F0740C6E6003BC
:10432300024284888212440D12441C500109024245
:10433300A68C828D83A3E05403603288828983E054
:10434300C0E0EC1243F33DF583D0E012444F8C827E
:104353008D83E054036402701488828983E0C0E093
:104363001243E1D0E012444F8003A3E4F0EC125176
:10437300F73D126D54EC2410FEE43DFFEA241DF5D5
:1043830082E43BF583E0F5088E828F83E0C39825B2
:1043930008F508F0EA2417F8E43BF98882F583E08E
:1043A300C39508C0E01243CFD0E0125CAAC39508BE
:1043B300500A1243CFE4F01243EBE4F0023FB5247A
:1043C30015F582E422EA240DF582E422EC240DF5AE
:1043D30082E43DF58322EC1253B03DF58322EC24B5
:1043E30014F582E43DF58322EC123E193DF5832258
:1043F3002413F582E422E0FEA3E0FF8C828D83A3E5
:10440300A3A3A32212440DA3A3228983E0F508A347
:10441300E0FFE5088C828D8322A3A3A3A3F0A3EF7F
:10442300F0E82402F82212442EA322E4F08C828DB9
:1044330083A3A3A322124456A882A98322123DD5A3
:10444300A3A3A3A322124456A3E022A31244560813
:10445300A98322125CB3A32274F41208BC74F3126E
:104463000F0D8A0A8B0BECFEEDFF8C82F583E05473
:104473000CF508E0A2E75006E508D2E7F508E508E1
:10448300D2E1F5081256FF7006E508D2E4F508E01C
:10449300A2E55006E508D2E5F5087C087D00790021
:1044A300AA21AB221216E8740212117DE508126DDF
:1044B3005AC0E0740312117DD0E0124AE8E50AF015
:1044C300A3E50BF0740512117D1265C612117DE090
:1044D3007077740812117D124A6E125C9C38126553
:1044E300E1C0E0740812117D12456FD0E01265C17E
:1044F300C0E0740812117D124565D0E0F074081213
:10450300117D12455BE0124A96124B171260B0EE12
:1045130024111256CBC0E0124551D0E0F0EE241422
:104523001256CBC0E0740812117D124A6E2435F581
:1045330082E438F583D0E0124ABBC0E0740812115C
:104543007D124A72D0E012631A740D02312AE824F4
:1045530032F582E439F58322123FCAA3A3A3A3A3AE
:10456300A322124A821267C038F58322124A822498
:1045730026F582E438F5832274F71208BC7E008A9C
:10458300828B83A3A3A3A3A3A3A3A3A3E064046035
:104593000302463D1253A8E0600302463D12520A4D
:1045A3003B125286700302463D88828983E054039E
:1045B300600302463DE81253B039F583E0FA8C827A
:1045C3008D83A3A3E0FBA3E0CB2411F582E43BF5A9
:1045D30083E06A706588828983A3A3A3A3A3A3A3AB
:1045E300A3A3124641E06A7003A3E06B704C888278
:1045F3008983A3A312464DE0FFA3E0CF24061256FE
:10460300CB6A7003A3E06B703188828983A3A3E034
:10461300F88C828D83A3A3E0F9A3E0F5838982A3B9
:10462300A3E06860138C828D83A3A3A3E0F5838941
:1046330082E0540C640470027E01EEF9802012467D
:104643004522124C7E8C828D8322A3A3124645A35E
:10465300A322740C12117DE0F9740D120E757F0103
:10466300020C2674F61208BC74FC120F0DEAFEEB62
:10467300FFECFAEDFB8C82F583A3E0540360169004
:104683001A7B12528860597900EEFCEFFD125EA787
:1046930012280F804B852182852283EEF0A3EFF051
:1046A300740212117D124ADDAC21AD227A127B20F5
:1046B30012223A8A088B09A808A909EA4960218AC3
:1046C300828B83A3A3A3A3A3A3A3A3A37406F07AB8
:1046D3000088828B83124A6E126070E0F91221986F
:1046E3007404023FB274F21208BC74F3120F0DEAA1
:1046F300FEEBFF8A82F583A3A3A3A3A3A3A3A3A390
:10470300A3E0F50A901CCDE0700579BA024A26753C
:104713000801750900750C00750D007C087D007992
:1047230000AA21AB221216E8740512117D7401123E
:104733004AF054046012740212117DE0D2E6124A68
:10474300F054087003750803E05410600674404584
:1047530008F508E054086022740212117DE044C099
:10476300124AF05420600A740312117DE0D2E080F3
:1047730008740312117DE0D2E1F0EE24151256CB3A
:10478300124A567003740169700674084508F508E7
:104793008E828F83A3A3A3A3A3A3A3A3E070161264
:1047A30022948521828522831260BD740212117DB9
:1047B300E0D2E28030640F7010740212117D124A4D
:1047C300F874044508F508807F8E828F83A3A3A322
:1047D300A3A3A3A3A3E064028E828F83700A126D46
:1047E3008DE8F0A3E9F08060A3A3A3A3A3A3A3A3ED
:1047F300E06403700DAC21AD22EEFAEFFB1220480A
:1048030080468E828F83A3A3A3A3A3A3A3A3E06461
:10481300017035901B0FE06010740212117D124A73
:10482300F8750910750AFF8018740212117DE044AF
:104833000C124AE874FDF0A374FFF074044508F504
:10484300088E828F8312303DEE24151256CBA2E0E0
:10485300503F740212117DE0540C701B8E828F83C3
:10486300124C76121CB2E9700579BB024A26740217
:1048730012117DE0D2E5F0EE24151256CBA2E050E2
:1048830010740212117DE0540C64047004E0D2E54C
:10489300F0EE24111256CBC0E0740412117DD0E067
:1048A3001265C812117DE06003024A1F74081211D9
:1048B3007D124AB1E508F0A3E509F0124A4CE0C0C5
:1048C300E0124A42D0E0F0124A33E0C0E07408122A
:1048D300117D124A6E1243F338F583D0E0124B1761
:1048E30064017011901B0FE0C0E0740812117D1277
:1048F3004A8CD0E0F0740812117D124AAC124A3D82
:10490300FAE8241CF582E439F583EA124AE3EE243B
:1049130015FAE43FFB8A82F5831275B4E8125A074D
:1049230039F583124ADDEE241C1256CBC0E0124A3D
:1049330029D0E0125B4D124A56700374016970135B
:10494300740812117D125398FAEE241D1256CBF9F6
:10495300121F1C8E828F83A3A3A3A3A3A3A3A3A32A
:10496300E0C0E0740812117D12456FD0E0F07408C6
:1049730012117D124565E50AF0740812117D125279
:104983002B2428F582E439F583E50CF0A3E50D1219
:104993004AC3124A961257441260B0EE124A3DC0FF
:1049A300E0E82433F582E439F583D0E0F0EE241B0C
:1049B3001256CBC0E0740812117D124A72D0E0F097
:1049C300EE241A1256CBC0E0740812117D124A6EFF
:1049D3002432F582E438F583D0E0124ABB124A62EE
:1049E300120E5E1267C61275B4740B12117D124A51
:1049F3006E242F127A90120E75EE24151256CB5494
:104A0300406012901A9B125288600AAA21AB2212AC
:104A13005EA712280FAA21AB221220BA740C12111E
:104A23007DE0F9024D5DE82420F582E439F5832227
:104A3300EE2419F582E43FF583221267D5E022E8DC
:104A43002412F582E439F58322EE2418F582E43F3B
:104A5300F583225480F8A3E05401F974806822F5A9
:104A630008A3E0F509750A00780822124A82221287
:104A73004A822434F582E438F58322A3A3A3A31244
:104A83004A8622E0F8A3E0C822124A821243C238BF
:104A9300F58322FAA3E0FBE8242AF582E439F583BF
:104AA300EAF0A3EB22A3A3A3A3123FC0EE22125268
:104AB3002F12520F39F58322F0EE241312574C2292
:104AC300F0EE240D12574C22E0FC8A828B83E02CFB
:104AD300FCA3E03400FD8A828B83ECF0A3EDF0228B
:104AE300F0A3E4F022F085218285228322F0EE24D4
:104AF3001512574C22E0D2E3F0124B00228E828F24
:104B030083123FC4852182852283E8F0A3E9F02242
:104B1300E8F0A3E9126203E02274F71208BC8A8268
:104B23008B83A3E0640170047E6380027E648A82C7
:104B33008B83E060087905124B5024F3FE901AB77B
:104B4300E06007F9124B5024F2FE02463D12216247
:104B5300E9F8EEC3982274F61208BC74FE120F0D26
:104B63008521828522831260BDE9FEECFAEDFB907C
:104B730003811252886032A821A922880889097802
:104B830008120E627D01740E12117DE0FCEEF990A5
:104B9300038112609112280F7402120E75EA4B60A2
:104BA300047900800679B2800279B6023FB074F7C7
:104BB3001208BCE9FE901A71125288601F74091220
:104BC300117DE0F5087808120E66EEF9901A71125D
:104BD300609112280F7401120E75800279B6024695
:104BE3006174F71208BC8908ECFEEDFF79B5E5089E
:104BF300245E602014600624F86034803D900383B3
:104C0300124C406035126DD112280F8E828F8312A1
:104C130060BD8024901A731275B4EC4D601CEEFCD9
:104C2300EFFD901A7312609112280FE9F9800B902F
:104C33001A6F124C461218867900024661124C7A9A
:104C4300EA4B221275B8EEFAEFFB2274F71208BC96
:104C5300E9FE79B574AB6E700B901A6F124C761235
:104C6300188679000246618E828F83A3A3A3A3A330
:104C7300A3A3A3124C7A22124C7E22E0FAA3E0FBF8
:104C83002274F11208BCEAFEEBFF8C0A8D0B750847
:104C930001901ABFE06E7003A3E06F700C124D51C8
:104CA300AA0AAB0B121886805E12229AEE6A700271
:104CB300EF6B7009AA0AAB0B1222A0804AAC0AADB3
:104CC3000BEEFAEFFB121DF0E9F508901CC0E07043
:104CD3003612271AE97030E508702C901A8FE06EAF
:104CE3007003A3E06F7020EE4F601C750C87750D89
:104CF3001A750E00780C120E5E7C087D00AA0AABB2
:104D03000B126D7D120E75A9080276B074F21208AB
:104D1300BCEAFEEBFF8C088D09750A01124D51EEBA
:104D2300FAEFFB121880E964017011901ABF123F69
:104D3300BC850882850983126D56800EAC08AD09C7
:104D4300EEFAEFFB121DF6E9F50AA90A8011122209
:104D53008E8A0C8B0DAC0CAD0D22740D120E757F6B
:104D630006020C2674F61208BCEAFEEBFF7A0D7BF2
:104D730000121796EA4B6062EE2424126A5AF0EE90
:104D83002425126A5AA3124E1F126A60A3A3126744
:104D9300F3124DFAF0EE124DE0124E0FE8F0A3E9D4
:104DA300124E36124E07126D56EE124DE91268B6C8
:104DB300A3A3A3A3F0EE24331256CBC0E0124DF20B
:104DC300D0E01265E5124E07A3A3A3E8F0A3E9120E
:104DD3004E2EC0E01253A8D0E0F0023FB5242AF5CE
:104DE30082E43FF58322242EF582E43FF58322EA11
:104DF3001258213BF58322124DFE22E08A828B83D7
:104E0300A3A3A322126915A3A3A3A322124E1322C1
:104E1300123FC48A828B83A3A3A3A322F0124E243E
:104E230022EE2426F582E43FF58322F0EE243212AB
:104E3300574C22F0EE242C12574C2274F41208BC67
:104E430074FE120F0DECFEEDFFEC24161256CB642C
:104E5300057010EC2406FCE43FFD122042E97003C8
:104E6300024EEAAC21AD22126B0F121CB8852182CF
:104E7300852283125288606B8E828F83E064017077
:104E830058E875F009A4F8AAF075F009E9A42AF91D
:104E930074E828F8740739F9E8FAE9FB8882F5839E
:104EA3007808121126EE124F8C1210BA4027852172
:104EB30082852283124AAC1256D9124EEF78081219
:104EC300112690859E7808120FF18A828B837808C9
:104ED300121117800A79A28010EE240F126D5079F7
:104EE30000800679A1800279C8023128124B0DEEA9
:104EF3001267E12274F21208BC8A0C8B0DECFEEDF2
:104F0300FFEC1256D9E4F0A3F09085327808121121
:104F130026EC124F8C120F4E6067EC240E1256D201
:104F2300703478B3901AB6E07028901AE8E0640100
:104F33007020EC24111256CBF912214A8B09A909CE
:104F4300EE12520B3F1260BBEA4960047800800204
:104F530078A18808802EE060046402700A1220544D
:104F6300E9F5087007801DE064037010EEFCEFFDA7
:104F7300AA0CAB0D121CDCE9F50880087508A180AA
:104F8300037508A3A908024D621267E17808227429
:104F9300F01208BC74F5120F0DEAFEEBFFEA240AC7
:104FA300FCE43F8C82F583127A511252157403127A
:104FB3000F058A828B83125EB1E9700302507B7402
:104FC30001120F057403120EFD121CB874011211A5
:104FD3007D125288700302507BE875F009A4F8AA89
:104FE300F075F009E9A42AF974E428FC740739FD83
:104FF300E508240E126302E4F00412117D123FBC93
:10500300E50812520B3509126D548C828D831211EF
:105013005AE508241212630212116690859E7808DD
:105023001211268C828D8378081210508C828D8306
:10503300780C1211269085127808121126780C79B3
:105043000812084DE5084509450A450B702A740105
:1050530012117D12522B75F009A4F8AAF075F0090C
:10506300E9A42AF974EC28F582740739F5837401ED
:10507300F07A007B081252388E828F83A3A3A3A3F6
:10508300A3A3A3A3A3A3E02406FCA3E03400FD8E03
:10509300828F83125EB11265D3603EEE240A1251F1
:1050A300FD124AB17468124AE3E81251F739F583E5
:1050B3007402F0901AA112115A8C828D831260AA85
:1050C300125C9C3CF58312116690859E7808121140
:1050D30026901AA17808121050125273705D901A1C
:1050E3006F125223A3A3A3A3A3A3A3A3A3A3125CFB
:1050F300D2121880E97010125C90901A6F125CA2A1
:1051030070051265D360348E828F83A3A3A3A3A3F8
:10511300A3A3A3A3A3125223124C76121CE2E960A9
:10512300118E828F83A3A3A3A3A3A312525FE4F0E0
:10513300A3F08E828F83125245E4F0125273600300
:105143000251F28E828F83A3A3A3A3A3A3127A4D4A
:10515300901AB6E060030251E7901AE8E064016038
:10516300030251E7750A3A750B00780A120E62744E
:1051730002120EF5880A890B780A120E6212704C1D
:10518300120E75E9705BE508240E126302740112B6
:10519300528DC0E0E5082411126302D0E0F0E50867
:1051A300240F126302743A124AE3901A9D12115AA1
:1051B300E508241212630212116690859E78081284
:1051C3001126901A9D780812105090859E78081227
:1051D3001126901A9D7808120F4E700812523480CF
:1051E300031252151252737006125B9374A1F0747A
:1051F3000B026985240EF582E422F8E43FF9E8FC0A
:10520300E9FD8882F58322EA12520F22240FF582E8
:10521300E422E50812520F3509F583E4F0A3F022E6
:105223001275B88E828F832212522F22123FC4E846
:10523300227A007B02901948E0F912173C228A82F5
:105243008B83A3A3A3A3A3A3A3A3A3A31252532216
:10525300124A86240EF582E438F58322A3A3A3A37E
:1052630012526722124A86240FF582E438F583220C
:105273008E828F83A3A3A3A3A3A3124A7E240FF535
:1052830082E438F58312522F492212529122F0857B
:105293002182852283E02274F61208BCEAFEEBFF2A
:1052A3007A237B00121796EE240AF508E43FF509EA
:1052B3008508821260BB7C237D0079001216E88585
:1052C3000882850983125288700302535BEEFAEF5A
:1052D300FB12206012527360748E828F8312538E7E
:1052E30064018E828F83A3A3A3A3A3A37007125386
:1052F30084740E802112528870101265D3700B8E45
:10530300828F83A3A3E0A2E0500712537A740D8027
:105313000512537A74051265E5540364017007128C
:1053230053627405800B901AB7E0C0E0125362D049
:10533300E012539DF58388821256F8850882850909
:1053430083124A6E12604F38F583E9800E85088216
:105353008509831261348003126077F0023FB58EB2
:10536300828F83A3A3A3A3A3A3A3A3A3A31253746F
:1053730022E0126096A3228E828F83A3A3A3A3A30A
:10538300A3124A7E12605538F58322A3A3A3A3A3D5
:10539300A3A3A3A3A3125253E0221253A122126B7D
:1053A30024F8A3E022EA1253B03BF58322240CF540
:1053B30082E42274F11208BC74E4120F0D8A0C8B80
:1053C3000D8C088D097A237B001217968A0A8B0BA2
:1053D300AE0AAF0BEA4F70030256B312605BE508E7
:1053E30024151256E4687003A3E0698E828F8370DC
:1053F30004740280027401F0E508240DF8E4350911
:10540300F98882F583E0FAC3E49AFA95E0FB125631
:10541300E02AFAA3E03BFB8E828F83A3A3A3A3120C
:105423005CB98E828F83A3A3F0EE2420F582E43F40
:10543300F583E4F0EE2421F582E43FF583E4F0EE16
:10544300FAEFFB1221148508828509831256FF7037
:10545300098E828F83A374058006901AB71256EDC6
:10546300F0EE2417F50AE43FF50B8E828F83125674
:10547300F8E9850A82850B83F0EE2416F8E43FF9F8
:10548300E508240EFAE43509FB88828983124ACBA6
:10549300E5082410FAE43509FB850A82850B83E0CD
:1054A300FC88828983E0F88A828B83E0C398C39C5B
:1054B300F8125739F0EEFCEFFDAA0CAB0D12205A8F
:1054C300E9F50B8E828F83E064027006125C901202
:1054D30056BDE50B60030256AA750C00750D0090CE
:1054E3001CC0E064016005E06402703F1256CF60A7
:1054F30008EE24211256D270328E828F83A3A3A387
:1055030012607D125705EE24161256CB12572EFA4F
:10551300E439FB123DBDEA4B60111268DF120E5EE7
:10552300125713AA0C126D7D120E75EEFAEFFB12D1
:105533002120E9F50B901CC0E064016008E06402DF
:10554300600302569DE9700302569DE50C450D70FC
:10555300030256AA8003850E0B1256CF600BEE246E
:10556300211256D260030256A3850B0E850C0885C3
:105573000D09750A007808120E5E1257138E828F7A
:1055830083A3A3A3A3127A96120E75EE24201256B8
:10559300CB600D1256D87468124AE3EE24208015AE
:1055A300EE24211256CB60151256D87403F0A3745F
:1055B30001F0EE2421F582E43FF583E4F0EEFAEF07
:1055C300FB122120E9F50B70907C137D00790074A8
:1055D30009120EFD1216E8741A12117D7401125786
:1055E3004464687002A3E0704F8E828F8312525F0F
:1055F300E0640560030255597C0879FF8E828F832E
:10560300A3A3A3A3E0242A125CD5121772E97003A3
:105613000255597C087D0079FF7401120EFD1216A4
:10562300E87401120F057A007B0079AB12203C74F9
:105633001912117D74FC80151256D8E064037004AE
:10564300A3E064017008741912117D74FFF0E4F58E
:1056530008F5097808120E627402120F057413120A
:10566300117DAA82AB831261BA120E7585218285E0
:105673002283E0602B7409120EF5880889097808E3
:10568300120E627508137509007808120E627C0009
:105693007D00126A2D120E758006E50C450D60071C
:1056A300AA0CAB0D12179CEEFAEFFB12179C8003AA
:1056B300750B10A90B741C0276ADEE2406FAE43FB9
:1056C300FB12188622EE240C12574C22EE242012D1
:1056D300574C640122EE12520F3FF58322E5082452
:1056E3000EF582E43509F583E0221256F2A322E097
:1056F3008E828F8322A3E0F912216222E054036495
:10570300012212570922E0FAE82AF8E43400F922C8
:105713008E828F83A3A3A3126081125709EE2416EE
:1057230012574C12572EFCE439FD22FAE82AF8E40A
:1057330039F9E824042212573D221265F4A3A3A3E6
:1057430022F012574922EE240FF582E43FF583E05D
:10575300227901020E2774F41208BCEAFEEBFF8AD9
:1057630082F583A3A3A3A3A3A3A3A3124A6E242412
:10577300F582E438F5831256FF702E8A828B8312EA
:10578300538E7025125827E06405701D125827A305
:10579300E0F874016860057406687007125241747A
:1057A3000280051252417403F0EA240A126128129E
:1057B3006091E4F0EA2408F8E43F1231172431F54C
:1057C30082E43AF583E0C0E0126DC8A3A3D0E012EF
:1057D3005846CA242EF582E43AF583E0C0E0126D00
:1057E300C8A3A3A3D0E0125D6CC812582138123F9E
:1057F300BA126DC812583B8A0A8B0BAC0AAD0B85E3
:105803000882850983125CD212188685088285096D
:1058130083124C76122120126123F002312D240BC6
:10582300F582E4228A828B83A3A3A3A3A3A3A3A3C6
:105833001265BAF583888222A3A3A3A3124B0D1288
:10584300228E22125CAEFAA3E022025754C082C019
:1058530083901A917466F0A37420F0901A93747273
:10586300F0A37420F0901A957478F0A37420F0904C
:105873001A97746CF0A37420F0025B5774F4120847
:10588300BCEA2408FEE43BFF8E82F58312522B12FE
:105893006067E0F50874035508F509125CCDF8A3B9
:1058A300E08882F583E508F0A3A882A983E509606F
:1058B3000974026509600302596C740C5508FC6095
:1058C3000A74086C600574046C70267402650970B0
:1058D30006E508A2E4401A8A828B83A3A3A3A3A3A9
:1058E300A3A3A3125A721267C03D125A0DA308A9AB
:1058F30083740C6C701C125A6E2428125A5A242872
:10590300F582E43DF583A31263EEF0E82402F85038
:105913000109740265097006E508A2E4404B125AB6
:105923006E242A125A5A242AF582E43DF583A312DF
:105933005A1C125A781263EE125A78A3125A14E8B8
:105943002404F8500109EC600F74086C600A740CAD
:105953006C600574046C701112609E2426F582E459
:105963003C125A0DA3A882A9838A828B83A3A3A383
:10597300A3A3A3A3A3125A3C54037014E508A2E102
:10598300400E12609E125A073CF583E05480600873
:10599300125A22125A0F8019901A65E0C0E0125A67
:1059A30022D0E0125A4F88828983125A4F04125C24
:1059B300B3A3A882A983E508A2E750458E828F830B
:1059C300125A3C88828983125A55125A41540360F1
:1059D3003012609E2434F582E43C1263ECF0E50857
:1059E300A2E1501D8A828B83A3A3A3A3A3A3A3A392
:1059F30012311C2435F582E43A1263ECA3F0E82457
:105A03000302312D241EF582E422F583125A1CF081
:105A130022125A1CA3A3A3F022E088828983228A3C
:105A2300828B83A3A3A3A3A3A3A3A3E0FCA3E0CCA0
:105A33002432F582E43CF58322E0125A4122FCA38E
:105A4300E0CC2425F582E43CF583E022F0901A654E
:105A5300E0221265F0E022F582E43DF583125A1C40
:105A6300125A67221265F4125A72228E828F83E0D1
:105A7300FDA3E0CD22A3125A67242CF582E43DF561
:105A83008322C082C0838A828B83125B47FC7403A8
:105A93005CF98A828B83A3A37401F0E96005740225
:105AA300697061740C5CF8600A74086860057404BA
:105AB3006870137402697005ECA2E440098A828B52
:105AC30083A3A37402F0740C68700A8A828B83A385
:105AD300A3E02402F07402697005ECA2E440258A75
:105AE300828B83A3A3E02404F0E8600F740868604A
:105AF3000A740C68600574046870098A828B83A336
:105B0300A3E004F0ECA2E7502A8A828B83A3A3E0EC
:105B130004125B4D123626E0540360178A828B838E
