:020000040000FA
:060000000210360205E4C7
:03002B00020D982B
:030033000209A718
:0300530002051390
:03006B0002095C2B
:03007B00020985F2
:1000830002057501010000000000F8FF07FFFF00F3
:10009300000504000000030001FF0020FD0002062C
:1000A300FFFF1E1410270000381900000000000095
:1000B300000000000000000000000000000000003D
:1000C300FFFF08010400002F15000000E8030000F3
:1000D300FFFF80150188130000E80300006400643B
:1000E30000B801A0BB0D00A0BB0D00020202070473
:1000F30001051E02051E020A0A010108080103B8D0
:100103000B02803E0102FEFFE8030A050001FFFF28
:10011300020A011401E002000000050301010F03BC
:1001230000030003000300030003000300030003B4
:100133000005000A00140028004F009E000000B3D1
:100143002B00000000872A00000000FF000000FFD2
:10015300001210556046121046603DE9687008F6BB
:1001630018F618F618F622748067F7120188090941
:1001730009748067F722121046601D12105570052E
:10018300191919801A120F25701F120EE9C3700373
:10019300E667331919194007181818220808087454
:1001A300FFF618F618F618F622120EE96017121069
:1001B300E3702192F01210EC7019501720F014081C
:1001C3000808090909E7F61819E7F61819E7F618F0
:1001D30019E7F6221210EC60E6E869701F0808E6DA
:1001E3002480F608E436F618547FB47F0CE6548076
:1001F3006007F6E418F618F622181822E9C6CC08A8
:10020300C6CD08C6CE08C6CFC0E0E8C0E0EAC0E06D
:10021300EBC0E009E9F809E7FA09E7FBE6F918E6B4
:10022300F8C3EC98ED99EE9AEBC2E7F5F0EFC2E76D
:1002330095F0500E600CEBCFFBEACEFAE9CDF9E86E
:10024300CCF8EAA2E7D2E7FAEB33FB13F5F0EEA220
:10025300E7D2E7FEEF33FFC5F013A2E730E601B3C1
:1002630013C5F0C3C0E0C0F07F00C39BFB605E9486
:1002730018600F401D14601AD0E023F9D0E0F80293
:10028300035A8AF0E9486003D2F0E4AFF0FAF9F8D0
:10029300803BEB30E40D89F0EA6003D2F0E4AFF089
:1002A300F9CAF8EB30E30D88F0EF6002D2F0AFF05B
:1002B300E4CAC9F8EB54076014FBC3EA13FAE91361
:1002C300F9E813F8EF135002D2E0FFDBEDD0E0C002
:1002D300E030E739C3E49FFFF5F0EC98FC42F0ED22
:1002E30099FD42F0EE9AFE42F0D0E0F9D0E0F8E555
:1002F300F0607AE923F9EE20E742D8028067C3EF82
:1003030033FFEC33FCED33FDEE33FE80EAEC28FCE7
:10031300ED39FDEE3AFED0E023F9D0E0F84002805B
:100323001BC3EE13FEED13FDEC13FCEF135002D2CF
:10033300E0FF08B800067F7F74FF802EEF3350176D
:100343008CF020F00260100CBC000C0DBD00080EF8
:10035300BE000408E860DFE933E813FFEE2313FE71
:100363004F4D4C8008E95480FFE4FEFDFCEE33EF73
:1003730033F47004FCFD7E80D0E0FBD0E0FAD0E0E3
:10038300F8D0E0CFC618CEC618CDC618CCC6F92211
:1003930000121046604F1210556012E7548066F643
:1003A300120F2570111210E3703B090909F4F618B6
:1003B300F618F618F622120EE970151210EC08085A
:1003C3000860EAE6447FF618768018E4F618F62209
:1003D3001210EC60161210E37012E4F608F608F639
:1003E30008E65480F609090918181822EAC0E0EB58
:1003F300C0E0ECC0E0EDC0E0E687F0A4FBACF008A1
:10040300E687F0A42CFCE435F0FA1809E687F0A49B
:100413002C4B60027401CA35F0FCE433FB09E68718
:10042300F0D2F7A42CCB35F0FC1908E687F0A42B07
:10043300CC35F0FBE433FD0819E687F0D2E7A42CB2
:100443004ACB35F0CD3400FC09E687F0D2E7A42D82
:10045300CC35F0FDE433FA0918E687F0D2F7A42C83
:10046300CD35F0CA3400FC08E687F0D2E7D2F7A412
:100473002ACC35F07A7E20E70B0ACB33CBCD33CDB4
:10048300CC33CC33CB3350147004ED30E00ED2F1C7
:10049300E4CD3DCDCC3CCC3B5005DA05C2F1EB5469
:1004A3007FC63308E63392F0FBE73309E733C39A99
:1004B300502D2B70190C0D4C4D70151806E608C302
:1004C30033700D20F10AA2F013F6E418800B4024D8
:1004D300E4F630F002768018F618F618F68024D386
:1004E3003B14501074FFA2F013F6187680E418F64C
:1004F30018F6800FA2F013F618E63303F618ECF69D
:1005030018EDF6D0E0FDD0E0FCD0E0FBD0E0FA221D
:10051300C0E074F11208FDA2AFE433F509D2AF8550
:10052300A708AFA1EF5508FE74105E60061213B062
:1005330075A1EF74085E60081213B675A1F78024E5
:10054300EFA2E092F0E508A2E082F05017906198E4
:10055300E0F890040EE0C398A2D265D0335002E8CD
:10056300F075A1FE752300E509A2E092AF7F0202B8
:100573000A18C0E074F21208FDA2AFE433FED2AF52
:100583009061A4E0F8759B00E591585408600875E4
:1005930091F71214048023E5915854106008759163
:1005A300EF12140A8014E591A2E092F0E8A2E0822F
:1005B300F05007E0C2E0F01215609061A3E0F8E5A7
:1005C300E9585404600E12153675E9FB906193E007
:1005D300A2E640F2752300EEA2E092AF7F01020A89
:1005E30018C0E074F21208FDA2AFE433FED2AF905C
:1005F30061A5E0F8E5BF585404600675BFFB12150A
:100603007880D1C3E498F8E499F91206478026C3A9
:10061300E49AFAE49BFBE920E7E9120647E498F839
:10062300E499F922C3E498F8E499F9120647E498A7
:10063300F8E499F9C3E49AFAE49BFB22EB20E7CFB1
:10064300E920E7E0B90010BB0008E88AF084F8AAC3
:10065300F022E4FBC8FA22EB70227B10C833C8C92E
:1006630033C9335007C39AC3DBF280069A50012A79
:10067300DBEAC833F4C8C933F4C9FA2275F008E4D5
:10068300C833C8C933C933C99AC99B5004C92AC9D5
:100693003BD5F0ECFBC833F4C8E4C9FA221206EBED
:1006A30030F03912073080341206EB20F01430E7B3
:1006B3002B74FFFCFBFA747F8022E4FCFBFA74804A
:1006C300801AB48008BC00F2BB00EF800F50EBF936
:1006D300E4C39AFAE49BFBE49CFCE499C6CC18C6F9
:1006E300CB18C6CA18C6F922E4C9C608CAC608CBBD
:1006F300C6D3330308CCC63392F0C3947F402E9401
:10070300184019C9B90704CACBCC225025C309CA5A
:1007130033CACB33CBCC33CC33D9F422F4600DC9F9
:10072300CCC313CB13CBCA13CAD9F6CC22E4FCFB3C
:10073300FA2214FCFBFA22080808EAC0E0EBC0E046
:1007430086F0E7A4FA180986F0E7A42AFA180986BE
:10075300F0E7A42AFA180986F0E7A42AFA1986F022
:10076300E7A4FBE5F02AFA190886F0E7A42BFBE5DA
:10077300F03AFA190886F0E7A42BFBE5F03AFA18E9
:10078300180986F0E7A4C5F02BFBE43AFA1908E749
:10079300C5F0C6A426F6E5F03BFBE43AFA1886F06A
:1007A300E7A4F6E5F00826F6E43B08F6E43A08F693
:1007B300D0E0FBD0E0FA22E4CFC0E0E4CEC0E0E436
:1007C300CDC0E0E4CCC0E075F020E626F608E633C1
:1007D300F608E633F608E633F6181818EC33FCEDA2
:1007E30033FDEE33FEEF33FFC3EC9709ED9709EECC
:1007F3009709EF97191919400FFFEC97FC09ED972B
:10080300FD09EE97FE191906D5F0BFECF709EDF7D0
:1008130009EEF709EFF7191919D0E0FCD0E0FDD084
:10082300E0FED0E0FF222521C582C0E0E52234FFAF
:10083300C583C0E0E521C3958224F810AF08858302
:10084300228582218008858322858221D2AFCEF042
:10085300A3E520F0A37808E608F0A3DEFAEFF0A3FF
:10086300E58124FAF8E608F0A3E608F0A3E608F029
:10087300A30808E608F0A3E608F0A315811581D0C4
:10088300E0FED0E0F8158115811581E8C0E0EEC0E7
:10089300E0221210CEB900030208E7E490030178C6
:1008A3001B79168002F0A3D8FCD9FA78239000862E
:1008B3007A01BA00028007E493A3F608DAF97A1BF7
:1008C3007B1890008778CE79018015E493A3AD82DD
:1008D300AE838A828B83F0A3AA82AB838D828E83BD
:1008E300D8E9D9E77582107583E17404120D7A751E
:1008F30082A27583277400120D7AC0D02521C58288
:10090300C0E0E52234FFC583C0E0E521C39582241E
:10091300F310AF0885832285822180088583228591
:100923008221D2AFC8F0A3E9F0A3EAF0A3EBF0A3CE
:100933007908E709F0A3D8FAECF0A3EDF0A3EEF001
:10094300A3EFF0A3D0E0F0A3D0E0F0A3D0E0F0A3B6
:10095300E520F0A3E5F0F0A322C0E074F21208FD55
:10096300A2AFE433FED2AFE589540C60031212D870
:100973005389F3C2C5752300EEA2E092AF7F010253
:100983000A18C0E0C0D0E8C0E0A8A8D2AFE58A85C5
:100993008A8AC2EB752300E8A2E792AFD0E0F8D0D1
:1009A300D0D0E032C0E0C0D0E8C0E0A8A8D2AFE524
:1009B3008B858B8BC2E880DCE9799EC608CAC608A2
:1009C300CBC608CCC6C370207996CACBCC70197934
:1009D3008ECBCC70137986CC700EF9802ACA33CAB9
:1009E300CB33CBCC33CC331930E7F2CCCBCA335037
:1009F300147004EA30E00DE4CA3ACACB3BCBCC3CDA
:100A0300CC500209C3E913C6CC182313C6CB18C6AE
:100A1300CA18C6F922852283852182E0C0E0A3E0BB
:100A2300F9A3E0FAA3E0FBA37808E0F608A3DFFA52
:100A3300E0FCA3E0FDA3E0FEA3E0FFA3E0C0E0A38E
:100A4300E0C0E0A3E0F5D0A3E0F520A3E0A3F5F038
:100A530010AF0885832285822180088583228582C1
:100A630021D2AFD082D083D0E0F8D0E03275F0103D
:100A73008E248F258582298583288521828522835B
:100A8300E0CEA3E0CF852982852883EBC9EAC8EDB0
:100A9300CBECCAC3E833C8E933C9EA33CAEB33CB77
:100AA300C3EA9EF527EB9FF526B35004AB26AA278E
:100AB300EC33CCED33CDD5F0DAAE24AF25221210D2
:100AC30046601C12105560171210EC70071210E3E9
:100AD3007001D322C0D01210E37006D0D0B322C36A
:100AE3002233D0D0501430E0F6C3E7960809E796D6
:100AF3000809E7960809E796B32220E0D5E69708A8
:100B030009E6970809E6970809E697B322D083D048
:100B130082ECC0E0EDC0E0E493A3FCE493A3FDED1D
:100B23004C600D120BE8EC24FFFCED34FFFD80EF6D
:100B3300E493A3FCE493A3FDED4C600D120C85EC50
:100B430024FFFCED34FFFD80EFD0E0FDD0E0FCE4BA
:100B530093A3C0E0E493C0E022852283852182E051
:100B6300A3FEE0A3F5207808E0A3F608DFFAE0A3EC
:100B7300FFE0A3C0E0E0A3C0E0E0A3C0E0E0A3C0C7
:100B8300E0E0A3C0E010AF088582218583228008BE
:100B9300858221858322D2AFD083D082020D80D07B
:100BA30083D082E9C0E0E493A3C386F0C5F095F057
:100BB300F908E493A386F0C5F095F0700BE493A3D2
:100BC300C3994005E9048002A3E475F002A42582D9
:100BD300F582E5F03583F583D0E0F9E493A3C0E033
:100BE300E493C0E022C0E0C3E493960874019396B3
:100BF30018400FE493667008087401936618700038
:100C03007019A3A3C3E49396087401939618A3A33E
:100C1300400DD0E0D0E0D0E0020B4CA3A3A3A3A3EC
:100C2300A3D0E0227404800474028000CCC0E0ED01
:100C3300C0E0E521C39CCCAD2250011D10AF068C52
:100C4300218D2280068C218D22D2AF120CFCD0E0A4
:100C5300FDD0E0FC2274028000CCC0E0EDC0E0E5F2
:100C630021C39CCCAD2250011D10AF068C218D22D7
:100C730080068C218D22D2AF120CDAD0E0FDD0E0B9
:100C8300FC22C0E0C0F088F0E493667008087401A9
:100C93009366187000A8F0A3A3700BD0F0D0E0D037
:100CA300E0D0E0020B4CA3A3D0F0D0E022D083D05D
:100CB30082CCC0E0E493A36006120D5B1470FAE4E7
:100CC30093A36006120E7F1470FAD0E0FCE493A3A2
:100CD300C0E0E493C0E022CAC0E0E493A3C582CCA1
:100CE300C582C583CDC583F0A3C582CCC582C58328
:100CF300CDC583DAE5D0E0CA22CAC0E0E0A3C5824D
:100D0300CCC582C583CDC583F0A3C582CCC582C5BE
:100D130083CDC583DAE6D0E0CA2270090808082229
:100D23006016181818C6C333C608C633C608C633B8
:100D3300C608C633C6D5E0EA22C008C3E096F50864
:100D430008A3E096420808A3E096420808A3E096A9
:100D530045087001D3D00822C0E0E493A3D39C508C
:100D630010E493A3C39C400AD0E0D0E0D0E0020C8F
:100D7300CDA3A3A3D0E022C09FF59FE473D09F220D
:100D8300D083D082C09FE493C0E0740193C0E07429
:100D93000293F59F22C0E0C0D0E8C0E0A8A8D2AF7C
:100DA300C2C7752300E8A2E792AFD0E0F8D0D0D055
:100DB300E0327404800A74038006740280027401B2
:100DC300C0E0F404120DEBD0E01210912200C0D069
:100DD300252110AF08F521500C05228008F521507C
:100DE300020522D2AFD0D0222521F58210AF08F51B
:100DF30021400C15228008F52140021522D2AF852F
:100E0300228322BB0102E722C082C08389828A83B4
:100E1300BB0003E08002E493D083D08222601608F3
:100E23000808C6C313C618C613C618C613C618C601
:100E330013C6D5E0EA22C3E0C696F608A3E0C69639
:100E4300F608A3E0C696F608A3E0C696F622252187
:100E5300F8E43522F9222521FAE43522FB22252163
:100E6300FCE43522FD22252110AF08F521400C15A5
:100E7300228008F52140021522D2AF22C0E0E4937C
:100E8300A36C7009D0E0D0E0D0E0020CCDA3A3D0D6
:100E9300E022E066701008A3E066700A08A3E0662B
:100EA300700408A3E06622C3E09608A3E09608A3B3
:100EB300E09608A3E096A2D265D03322C3E7960852
:100EC30009E7960809E7960809E796A2D265D033A1
:100ED30022E76670100809E766700A0809E766707A
:100EE300040809E76622191919E70947097009E790
:100EF30027097005E733F4220922C3E096F008A31B
:100F0300E096F008A3E096F008A3E096F022C3E68B
:100F130097F60809E697F60809E697F60809E697AB
:100F2300F622181818E60846087009E62608700520
:100F3300E633F4220822C3E49396087401939608D7
:100F430074029396087403939622E026F608A3E0AE
:100F530036F608A3E036F608A3E036F622E627F6CF
:100F63000809E637F60809E637F60809E637F622F0
:100F7300700422600D18C6C333C608C633C6D5E055
:100F8300F41822E056F008A3E056F008A3E056F068
:100F930008A3E056F022E657F60809E657F60809D3
:100FA300E657F60809E657F622E026F008A3E036EE
:100FB300F008A3E036F008A3E036F022E056F60886
:100FC300A3E056F608A3E056F608A3E056F622E699
:100FD30047F60809E647F60809E647F60809E6472B
:100FE300F622E4C396F608E496F608E496F608E4D7
:100FF30096F622600D08C6A2E713C618C613C6D517
:10100300E0F322C6F4C608C6F4C608C6F4C608C68A
:10101300F4C622C3E09608A3E09608A3E09608A3CB
:10102300E09622C3E7960809E7960809E7960809B8
:10103300E7962275D00075813F7521017522030063
:10104300020895E6084608C3134608336002E633F0
:10105300F422E7094709C3134709336002E733F46E
:1010630022600C08C6C313C618C613C6D5E0F42203
:10107300E6F008A3E6F008A3E6F008A3E6F022E012
:10108300F608A3E0F608A3E0F608A3E0F622CAC038
:10109300E0E6F0A308DAFAD0E0FA22E0FAA3E0FBF4
:1010A300A3E0FCA3E0FD22EAF0A3EBF0A3ECF0A3A2
:1010B300EDF022E0F8A3E0F9A3E0FAA3E0FB22E8D5
:1010C300F0A3E9F0A3EAF0A3EBF022E5C754F84458
:1010D30001F5C77901222521F582E43522F5832222
:1010E300E72719471947194722E6261846184618CD
:1010F3004622C2AF75D69F02000022120D8394D4FC
:1011030002120D83EDD702120D836BDA02120D83E7
:1011130017DB02120D8347DB02120D83ACDB0212D5
:101123000D8340DC02120D83F3DC02120D8344DDD8
:1011330002120D8388DD02120D8322DE02120D835B
:101143008FDE02120D83BEDE02120D83C4DF021294
:101153000D83E8DF02120D833CE002120D8310E1E0
:1011630002120D833BE302120D83E9E302120D83A6
:101173005EE602120D83E3E602120D835AE90212C0
:101183000D8390EB02120D83D4EB02120D832DED30
:1011930002120D8340ED02120D8385ED02120D83C1
:1011A30051EF02120D8355F204120D8394F20412CF
:1011B3000D832DF001120D83A9F001120D83DCF0D4
:1011C30001120D830AF101120D8348F101120D83FF
:1011D30085F301120D83A4F301120D83E9F30112C8
:1011E3000D837FF401120D83CBF401120D835FF5A0
:1011F30001120D8338F601120D8394F601120D834B
:10120300F2F601120D8365F701120D83A9F701129E
:101213000D8301F801120D8323F801120D83B3F836
:1012230001120D8344F901120D8390F901120D830C
:10123300BCF901120D83FDF901120D8393FB011219
:101243000D837FFC01120D835AFD01120D8338EBD0
:1012530004120D833BEB04120D8399EB04120D83EF
:10126300EDEB04120D830FEC04120D8325ED041234
:101273000D8336ED04120D83D4ED04120D83DFEDDF
:1012830004120D83F9ED04120D83F37F00120D8315
:10129300DD7F00120D8308EE04120D8318EE041295
:1012A3000D832DEE04120D83E1EE04120D8333E959
:1012B30004120D83B7E904120D831FEA04120D8390
:1012C3009CE504120D83C4E504120D83E7E50412C3
:1012D3000D833FE604120D8389E604120D83B4E601
:1012E30004120D83CBE604120D831DFC02120D8341
:1012F3002BFC02120D83A4FC02120D837DFD02124E
:101303000D8340FF02120D8385FF02120D83AAFF96
:1013130002120D83F87F00120D8303DF04120D8385
:101323003BDF04120D8389E004120D830DE10412E7
:101333000D83E9FF02120D83ECFF02120D83F8FF08
:1013430002120D83D17A00120D83FD7A00120D83F0
:10135300677D00120D83A77D00120D83E37D0012CC
:101363000D83F77D00120D83107E00120D83027F23
:1013730000120D83B57F00120D83C97F00120D8308
:1013830034FE01120D8358FE01120D8371FE01120A
:101393000D83AFFE01120D83DFFE01120D830CFFDF
:1013A30001120D8316FF01120D837CFF01120D83C1
:1013B3007FFF01120D8389FF01120D8396FF011236
:1013C3000D831EDA04120D833EDA04120D837DDAD7
:1013D30004120D839BDA04120D83B6DA04120D8313
:1013E3001CDB04120D8328DB04120D8385DB04123E
:1013F3000D8394DB04120D83B8DB04120D8379DCB7
:1014030004120D8386DC04120D8397DC04120D8312
:10141300DEF104120D8326F204120D8352F204123C
:101423000D83C7BB04120D8321BD04120D832FBD91
:1014330004120D8342BD04120D8357BD04120D83A4
:101443006CBD04120D837FBD04120D83FBBD04121A
:101453000D8360BE04120D83E8BE04120D8360BFCA
:1014630004120D8339C004120D8349C004120D8385
:1014730058C004120D8343F004120D8367F0041265
:101483000D838FF004120D83B7F004120D837FFDDB
:1014930003120D83A6FD03120D83C4FD03120D83F6
:1014A30033FE03120D834BD704120D8364D704124A
:1014B3000D8370D704120D8384D704120D83A2D732
:1014C30004120D83ACD704120D83B6D704120D8317
:1014D300C9D704120D834FD804120D83C4D8041244
:1014E3000D83F3D804120D8341D904120D8390D9CF
:1014F30004120D83ABD904120D83B5D904120D83E5
:10150300C6D904120D8309DA04120D83A8FF011250
:101513000D83F3FF01120D8353A504120D837FA5E1
:1015230004120D839CA504120D83AFA504120D8331
:10153300CAA504120D8324A604120D8352A6041215
:101543000D8362AA04120D83C0AB04120D83F2ABA8
:1015530004120D8355AC04120D83C1AD04120D8327
:10156300E9AD04120D83FEAD04120D830EAE041219
:101573000D834EAE04120D8390AE04120D83A0AE04
:1015830004120D83E1E604120D83FBE604120D83BE
:1015930023E704120D833CE704120D8360E7041272
:1015A3000D837EE704120D8395E704120D83C3E7D1
:1015B30004120D83DEE704120D83E7EE04120D839C
:1015C3002BEF04120D83ABCD04120D83BBCD04129C
:1015D3000D83C0CE04120D83F2CE04120D8322CFED
:1015E30004120D8345CF04120D835CCF04120D83C7
:1015F30096CF04120D83FBCF04120D833DD004124A
:101603000D8384D004120D83B1D004120D83DCD07A
:1016130004120D83F5E204120D8307E304120D8314
:101623001BE404120D831EE404120D8337EC041231
:101633000D836DEC04120D8385EC04120D83C7EC4E
:1016430004120D83D7EC04120D831BED04120D83DA
:10165300D0AE04120D8313AF04120D8378AF0412BE
:101663000D8397AF04120D8339B004120D8342B07A
:1016730004120D8393B004120D83BCB004120D83C6
:10168300C9B004120D833BB104120D83C9B1041216
:101693000D830EB204120D8347B204120D83ACB254
:1016A30004120D83D5B204120D834CB304120D83BF
:1016B3009BB304120D83D8B304120D830DB404122B
:1016C3000D831FB404120D8331B404120D8350B47F
:1016D30004120D8359B404120D831AB504120D8339
:1016E3005DB504120D839BB504120D834BE4041204
:1016F3000D838BE504120D83C2F204120D83C5DC46
:1017030004120D83FBDC04120D8343DD04120D83ED
:101713009CDE04120D8378DE03120D839EDF031219
:101723000D83DADF03120D8398E103120D83C6E103
:1017330003120D8330E403120D8370E403120D834F
:1017430012E603120D83A8E603120D8302E70312C8
:101753000D8392E703120D83D6E703120D8318E876
:1017630003120D837DE903120D83FDEA03120D833A
:101773003EED03120D836CED03120D8398ED0312FE
:101783000D83A1ED03120D83FEED03120D8397EE7E
:1017930003120D83AEF103120D8334F203120D8392
:1017A30099EF04120D83B1EF04120D83BBEF041202
:1017B3000D8311F004120D8303C504120D8319C5A3
:1017C30004120D83BAC504120D83F9C504120D83E7
:1017D30016C604120D8347C604120D8394C6041261
:1017E3000D83C8C604120D8303C704120D8300C9F9
:1017F30004120D8366C904120D8338EA04120D83A3
:1018030097EA04120D83D5EA04120D8316EB041232
:101813000D83008002120D830C8002120D836E80F3
:1018230002120D83788002120D83078102120D8349
:10183300438102120D833C8202120D8399820212AC
:101843000D83278302120D83788302120D83F8839D
:1018530002120D83BA8502120D83BF8702120D8314
:10186300B98802120D83EB8902120D833D8C02129B
:101873000D83808D02120D83258E02120D83D39268
:1018830002120D83C99302120D835F9402120D831A
:10189300849402120D83219502120D833E95021248
:1018A3000D835E9502120D83CC9502120D83E9958B
:1018B30002120D83179602120D83AF9702120D8346
:1018C300D09702120D83769802120D83BE980212EE
:1018D3000D831C9902120D83BF9902120D83249A62
:1018E30002120D83839A02120D83359B02120D831C
:1018F300A49B02120D83DF9B02120D83539C0212E1
:101903000D839E9D02120D832E9F02120D83CD9F88
:1019130002120D830DA202120D836FA202120D8318
:101923009DA202120D83C0A402120D836AA70212A4
:101933000D837DA802120D83699004120D837D909F
:1019430004120D83C49004120D83AF9204120D830D
:10195300CF9204120D83EF9204120D833A94041272
:101963000D83DF9504120D83489804120D83D598D7
:1019730004120D831D9A04120D839D9A04120D8384
:1019830011E804120D83BEE804120D8303E9041267
:101993000D83C7B504120D8354B604120D83CDB65F
:1019A30004120D8368B704120D8389B704120D83E3
:1019B3005DB804120D83D7B904120D8347C903120E
:1019C3000D8376C903120D83EEC903120D83FDCA7D
:1019D30003120D8359CB03120D83C6CC03120D835F
:1019E300E2CC03120D8334CD03120D8377CD0312A2
:1019F3000D838ACD03120D83E2CD03120D83A4CE92
:101A030003120D8320CF03120D8357CF03120D83CF
:101A13008FCF03120D8321D103120D8300D2031242
:101A23000D834ED303120D8331D403120D83BDD422
:101A330003120D83FDD403120D831CD503120D83F2
:101A430067D503120D8387D503120D8320D60312A6
:101A53000D83A6D603120D8301D703120D8341D73D
:101A630003120D83D7D903120D83F0DA03120D830A
:101A730036DB03120D832BDC03120D8353DC0312BD
:101A83000D8356DC03120D8360DC03120D837CDCB3
:101A930003120D83F6DC03120D832FDD03120D8376
:101AA3005BDD03120D8382DD03120D83A6DD0312BA
:101AB3000D8317DE03120D832ADE03120D8359DE15
:101AC30003120D835FF104120D836BF104120D8376
:101AD300A9F104120D83F07F00120D8318B30312D2
:101AE3000D833BB303120D8388B403120D83D1B46A
:101AF30003120D833DB503120D839BB503120D83B2
:101B03009EB503120D83EFB503120D8364B6031262
:101B13000D83E9B603120D83ECB603120D836DB783
:101B230003120D83AEB703120D839ABB03120D8309
:101B330044BD03120D8394BD03120D831BC1031215
:101B43000D834EC203120D83C8C303120D8365C4F4
:101B530003120D8350C503120D83A5C703120D8312
:101B6300008004120D83AA8004120D8315810412D0
:101B73000D8320A104120D83B58104120D830F82FE
:101B830004120D83568204120D83BD8204120D8349
:101B93003C8404120D836B8504120D83F3850412B8
:101BA3000D83FC8704120D83A98804120D834D89CC
:101BB30004120D831E8A04120D83D98B04120D8324
:101BC300718D04120D83048E04120D832A8F041267
:101BD3000D83008003120D83638003120D83AB809A
:101BE30003120D83EF8003120D834A8103120D83C9
:101BF300E8D302120D83E28103120D836482031280
:101C03000D83BE8203120D833C8403120D83BC84B7
:101C130003120D83178503120D83318503120D8380
:101C2300528503120D83AC8503120D83288803129A
:101C33000D83478803120D83378903120D836A8A44
:101C430003120D83E98A03120D83258B03120D837F
:101C5300948B03120D83498C03120D83218E03127F
:101C63000D83288F03120D83A09003120D83969288
:101C730003120D830C9503120D83E69603120D8355
:101C8300A79703120D831F9803120D83369803122F
:101C93000D832D9903120D83219A03120D83909ABC
:101CA30003120D8359D404120D83B0D504120D838E
:101CB3006FD604120D83D7D604120D8334D10412C8
:101CC3000D834FD104120D8393D104120D83B9D127
:101CD30004120D83E0D104120D83F8D104120D8395
:101CE3009AD204120D83AFD204120D83D2D30412FD
:101CF3000D83DBD304120D83E4D304120D83EDD3E0
:101D030004120D83F7D304120D8389C004120D83CB
:101D130095C404120D839AC404120D839CC4041247
:101D23000D8382E104120D83BDFF02120D8373C97B
:101D330004120D83D4FF03120D83DCF004120D8310
:101D430006F104120D839EAC02120D83D1AC021274
:101D53000D833DAD02120D83D8AD02120D8375AE16
:101D630002120D83BAAE02120D83DCAE02120D8392
:101D7300F5AE02120D831BAF02120D833DAF0212AB
:101D83000D837BAF02120D83BFAF02120D83E1AF50
:101D930002120D8343B002120D830AB102120D83A6
:101DA300C1B102120D8333B202120D83FEB20212CD
:101DB3000D8351B302120D83B7B302120D83F1B336
:101DC30002120D8343B402120D83B1B402120D83C8
:101DD3001CB502120D831FB502120D83A0B50212AA
:101DE3000D8337B602120D83B7B602120D83D6B632
:101DF30002120D833AB802120D8347B802120D8303
:101E030053B902120D8360B902120D8369B902122C
:101E13000D8341BB02120D835BBC02120D83D4BC44
:101E230002120D8346BD02120D8368BD02120D839B
:101E3300FCBD02120D83D0BF02120D83A7C3021291
:101E43000D83BBC302120D83CBC302120D83D5C313
:101E530002120D83DEC302120D83E7C302120D8348
:101E6300F1C302120D831EC402120D8347C4021272
:101E73000D8352C402120D8376C402120D839AC4D9
:101E830002120D8304C502120D834AC502120D838B
:101E930067C502120D83E4C502120D831BC602122D
:101EA3000D835AC602120D83A7C602120D832DC7D6
:101EB30002120D83FBC802120D837EC902120D8329
:101EC30062CA02120D83C9CC02120D8322CD021203
:101ED3000D836CCD02120D83C7CE02120D83FCCE8F
:101EE30002120D834ECF02120D8303D002120D8313
:101EF300B2D002120D83EFD002120D8384D10212ED
:101F03000D83F0D102120D83142E00120D83462E81
:101F130000120D83742E00120D834A3000120D83BC
:101F23002A3100120D83823100120D83BD3200125B
:101F33000D83093300120D83323600120D832539C8
:101F430000120D83753A00120D830B3B00120D83B3
:101F5300173B00120D83493B00120D83CC3C00124A
:101F63000D837D3E00120D83113F00120D83543FFC
:101F730000120D83D23F00120D83EF3F00120D8339
:101F83001F4000120D83544000120D8324410012A0
:101F93000D83CD4100120D83534400120D8373450D
:101FA30000120D835E4600120D83E04600120D837E
:101FB300144B00120D83514B00120D83A94B0012D9
:101FC3000D83DC4B00120D83464C00120D837C4CB9
:101FD30000120D83074D00120D835F4D00120D8318
:101FE300364E00120D83EF4E00120D838A4F0012FE
:101FF3000D83925200120D83AE5300120D8351577D
:1020030000120D83455800120D83485800120D83AA
:10201300775800120D837D5A00120D83565B001210
:102023000D83995B00120D83EF5C00120D832E5D0F
:1020330000120D83B75D00120D83EB5D00120D835B
:10204300B05E00120D83C86000120D833961001267
:102053000D83796100120D83076200120D832963DA
:1020630000120D83EB6300120D83F26500120D83E2
:102073000A6600120D831E6600120D835666001257
:102083000D83846600120D83036800120D83286993
:1020930000120D83856900120D83376A00120D83C8
:1020A3005E6A00120D83256B00120D83BD6B001257
:1020B3000D83E36D00120D83186E00120D837B6E8A
:1020C30000120D83AA6F00120D83527000120D834C
:1020D300837000120D839B7000120D832A7100120E
:1020E3000D83DE7300120D83B67500120D83D27556
:1020F30000120D83EE7500120D83BC7600120D8362
:10210300AF7A00120D834B8601120D837D86011277
:102113000D836C8A01120D83B88A01120D83FE8A26
:1021230001120D83A08B01120D83FC8B01120D8311
:10213300418C01120D83888D01120D839C8E011237
:102143000D838B9201120D830F9301120D831C9447
:1021530001120D83789401120D83689601120D8389
:10216300DD9601120D83E79601120D83F496011299
:102173000D831F9701120D83069801120D83B098EA
:1021830001120D832E9901120D834E9901120D83B5
:10219300779901120D83999901120D83F99B01120D
:1021A3000D83BF9C01120D83049D01120D83819D3C
:1021B30001120D83329E01120D83649E01120D8361
:1021C300AA9E01120D83E69E01120D83369F011212
:1021D3000D838A9F01120D83E09F01120D832CA0B2
:1021E30001120D8399A001120D8314A101120D8315
:1021F300DFA201120D83DFA301120D8304A50112D7
:102203000D8343A801120D8356AB01120D8313AC4A
:1022130001120D8357AC01120D8307AE01120D831A
:102223001BAE01120D8325AE01120D832FAE0112D9
:102233000D833BAE01120D8357AE01120D8302AF26
:1022430001120D8341AF01120D834BAF01120D83B8
:1022530055AF01120D83C5AF01120D8310B00112EA
:102263000D8325B101120D8381B101120D8302B2D9
:1022730001120D83C1B201120D83CAB301120D8382
:10228300FEB401120D83ECB501120D8304B60112E5
:102293000D835FB601120D837DB601120D83C5B6A2
:1022A30001120D83ECB601120D8387B701120D8362
:1022B3004DB801120D83DFB801120D8359B9011214
:1022C3000D8373BA01120D8320BB01120D8348BC29
:1022D30001120D8398BC01120D83FCBC01120D8306
:1022E3005EBD01120D838CBD01120D83B0BD0112C1
:1022F3000D83E5BD01120D8316BE01120D8349BE88
:1023030001120D8369BE01120D83D1BE01120D832B
:10231300C5BF01120D8320C001120D8349C00112F4
:102323000D83D1C001120D8354C101120D837FC1EE
:1023330001120D8364C201120D8308F102120D8391
:1023430040F102120D8361F102120D83A3F1021217
:102353000D8305F202120D830FF202120D831FF299
:1023630002120D835AF202120D833AF602120D8302
:1023730027F802120D830DFA02120D83A4FA02123A
:102383000D8346FB02120D8366C401120D83E4C460
:1023930001120D8340C501120D838BC501120D83FC
:1023A300A6C501120D83D1C501120D83EEC501121D
:1023B3000D83FAC501120D8391C701120D83AAC7BC
:1023C30001120D832FC801120D8342C801120D8320
:1023D30061C801120D8305C901120D8386CA01125A
:1023E3000D8339CC01120D83CFCC01120D83D2CCD6
:1023F30001120D8342CD01120D8360CD01120D83B5
:10240300F7CD01120D833FCE01120D8342CE01128F
:102413000D8308CF01120D8375CF01120D839BCF5E
:1024230001120D8326D001120D8344D001120D83B6
:102433008AD001120D833ED101120D8388D101127E
:102443000D83B7D101120D8314D201120D8349D22A
:1024530001120D8375D201120D8383D201120D83F4
:10246300D0D201120D8340D301120D8389D30112FF
:102473000D83D5D301120D8301D401120D830CD426
:1024830001120D832AD401120D8315D501120D8378
:102493001FD501120D835AD501120D836AD501127E
:1024A3000D8373D501120D83C7D501120D83DBD5BF
:1024B30001120D830AD701120D8321D701120D8357
:1024C30036D701120D83C4D701120D8309D8011227
:1024D3000D8395D801120D83A0D801120D83E2D983
:1024E30001120D83FDD901120D8349DA01120D8307
:1024F300B8DA01120D83F1DA01120D830BDB01123D
:102503000D834DDB01120D831DDE01120D83CADE27
:1025130001120D8337DF01120D8377E101120D8361
:102523008FE101120D8392E101120D839EE10112ED
:102533000D83B2E101120D83BAE101120D83EDE1C6
:1025430001120D83EFE201120D8376E301120D8375
:10255300E6E301120D8368E401120D8329E50112FC
:102563000D8348E501120D83E9E501120D8346E66B
:1025730001120D8349E601120D8376E601120D83E4
:102583008BE601120D83FFE601120D834EE8011263
:102593000D8354E901120D83DFE901120D83FAEA79
:1025A30001120D83C2EB01120D83F3EB01120D83B4
:1025B30016EC01120D831FEC01120D834EEC011278
:1025C3000D83DEEC01120D8394ED01120D8309EEF0
:1025D30001120D83B0EE01120D8325EF01120D835D
:1025E3005CEF01120D839AEF01120D83D0EF0112FC
:1025F3000D837DA004120D837D9F04120D83969E8F
:1026030004120D83869C04120D83949B04120D8384
:10261300329B04120D8304B303120D83FAB2031227
:102623000D838FB203120D83C0B003120D837EB0EE
:1026330003120D8345D302120D83FFD202120D83C1
:1026430082AF03120D8356AF03120D83CAD2021257
:102653000D8397D202120D830DAF03120D834EAE7D
:1026630003120D833AAB03120D83FBA803120D83F0
:10267300C8A803120D836FA803120D8302A80312C7
:102683000D83C1A703120D83FAA603120D8394A62B
:1026930003120D8333A603120D83D3A503120D83F7
:1026A300AAA403120D833EA403120D8396A303125F
:1026B3000D8391A303120D8385A303120D83B89F8A
:1026C30003120D83929F03120D8382D202120D8394
:1026D30057D202120D830DA504120D83D9A404123F
:1026E3000D8382A404120D83F0A204120D8342A26F
:1026F30004120D83309F03120D83D19E03120D83A9
:10270300929E03120D837F9E03120D83A5A10412D3
:102713000D83749E03120D83439E03120D83309C1D
:1027230003120D83A39B03120D839BA104120D833C
:102733005F9B03120D83A78103120D83339B031247
:102743000D8319FD03120D83ECFC03120D83B9FCF9
:1027530003120D8391FC03120D8332FC03120D83CC
:1027630012FC03120D83DDFB03120D8389F80312A0
:102773000D8371F603120D835BF403120D83DBF3F8
:1027830003120D8387F303120D833BF303120D83AF
:1027930034A104120D8393F203120D8330810400DC
:1027A300000080FBE4738F000100A918870001007B
:1027B300A7183500040070182500020074182600BD
:1027C30002007618270002007818280001008218FA
:1027D300290001008318840004000B168600010001
:1027E30029182A00010084182B00010085182C00E9
:1027F300010089182D00080017162E0001008A1801
:102803002F0001008B18300001008C1831000100EB
:102813008D18320001001F1633000100201634000A
:1028230001008E18360001002116380001008F18B0
:1028330039000100881883000200A5186300010015
:102843002D166400010086186500010087186D00CD
:1028530001002E16710008000F1666000100A4186F
:10286300430001009518440002009618450001003A
:1028730098184600020099184700080025164800DA
:1028830001009B184B0001009C1804000100A818CC
:10289300A1000100AC1837000100AB18880001004B
:1028A300AA183C00010022163D00010090184900BF
:1028B30002009D18670001002F164D0002009F18AB
:1028C3004E000100A1184F000200A2183E000100B3
:1028D300941851000100231652000100921853006E
:1028E30001009318540001002416000000000000AA
:1028F300000136360101000102010001030100015C
:102903000401060605020000070100340801000F58
:10291300090401010D0100FF0E0800001702000069
:10292300190100FF1A0100011B0100FE1C01000830
:102933001D0200001F01000120010001210200000F
:102943002301000F240200002601000127010008D3
:10295300280200FF2A0100072B0102402C0100007E
:102963002D0100012E0100012F0100FF30010B1D7D
:10297300310800003A0100083B01000F3C0100014F
:102983003D0100FF3E040000420400004604000035
:102993004A0400004E0400005204000056040000E4
:1029A3005A0400000700000030239C1407001000A5
:1029B300302394140700000030239D1407001000F7
:1029C300302395140700000030239E1407001000E5
:1029D300302396140700000030239F1407001000D3
:1029E30030239714070000003023A01407001000C1
:1029F30030239814070000003023A11407001000AF
:102A030030239914070000003023A214070010009C
:102A130030239A140000010020014A8600000200BE
:102A230020014586000003002001468600000000C7
:102A3300200149860000040042014585000005008D
:102A430042011B8500000700300147860000FDFF9F
:102A530021014186000006004201E9840000004094
:102A630020014A860100200020055718010021009B
:102A7300200558180700000030239B14070010009E
:102A830030239314010371030103010301030103C1
:102A930001032203020301031003000300030003E5
:102AA300000300030003000342030003240306039F
:102AB3000003000304031203250323032503230355
:102AC300040304030003000300034403000300039F
:102AD300230300036503210035038103000305037A
:102AE3000003000300030003250323030101710115
:102AF3000101010111010101310101010101800104
:102B0300100161013B001400630173017201620152
:102B130043010001130106013D01350004011201C7
:102B2300000100010001000104010401330133012C
:102B33003C0144013201360000010001650100013E
:102B430035008101000105018201830100010302B7
:102B530071023001600211027002010202020202DC
:102B63008002100261023A004100630273027202A2
:102B73006202430200021302380000020002040250
:102B830012020002000200020002040204023700E3
:102B930037003C02440200023900000200026502D1
:102BA3000002350281020002050282028302000252
:102BB3000300710030016000110070003102200336
:102BC30050048000100061000000140063007300D3
:102BD30072006200430000001300060000000000C2
:102BE30004001200000000000000000004000400C4
:102BF300370037003C0244000000000000000000E2
:102C0300650000003500810000000500000083001E
:102C1300000036000100060000000F000000000065
:102C2300000000000000000003FFFF00000403FF9A
:102C3300FF0000FFFF0FF4010005C404032000019F
:102C430000000B000000000000000003010F000063
:102C53000000000000000000000000000000000071
:102C63000000000000000000000000000000000061
:102C7300F6182019FC1830180219261902193219EE
:102C830008193018021926190E193018000000000F
:102C93001419301800000000000000001A19301841
:102CA3000000000000000000000000000000000021
:102CB3000000000000000000000000000000000011
:102CC30000000000000000000000000000008A1B5C
:102CD30001008A1B0200001B0280FA1A0300061B74
:102CE30004000C1B0480121B0500181B0600241B88
:102CF3003100361B33003C1B3400421BFFFF000036
:102D0300030003000400080010001F003E007B00C6
:102D1300F600EC01D703AF075D0FB91E713D00004C
:102D230007ECFDFDFDECDCDCCCBCACAC9C9C8C7CF2
:102D33007C6C6C5C5C5C4C4C3C3C2C2C1C1C03EA9B
:102D4300F5E5D5D5C5B5A5959585857575656555A0
:102D5300554545353525251515050A7E210248219A
:102D6300055421074E210C30210D3C21FF000000AA
:102D7300160F00000B150B020002220F3300000E8A
:102D83000F5A6967426565416C6C69616E636530B2
:102D930039D0D1D2D3D4D5D6D7D8D9DADBDCDDDE5E
:102DA300DF303016181920231A1C1E3000034D4C37
:102DB3004651181A2505020001191618161618236C
:102DC3000300303017181921301B1D1F30003C4001
:102DD300423A3F3F392F47300C0E020B040B0A07D0
:102DE30008000F020402010101010902E8030000C7
:102DF30000BE040A0E0001000300E803FF04090EED
:102E0300031E1E03100C04100828020C0508150AE3
:102E130004C082C0831211B29016587420F0A374B8
:102E23001FF090165A7426F0A3741FF090165C746A
:102E33002CF0A3741FF090165E7432F0A3741FF08D
:102E4300025B4F74F712082990164CE4F0E99016D0
:102E53004BF07C257D167A4D7B1612180C90189B2F
:102E6300E0901655F0901656740FF0A37416023DB9
:102E7300DC74F0120829EAFEEBFF54807003022F82
:102E8300E590164B123E717003022FDEEA241B12EB
:102E930056DC707CEA241F1256DC64137002A3E034
:102EA300706E8A828B83123033901666124C6E7565
:102EB3000A00750B00800D123CB2126D4E121710F2
:102EC300AA0EAB0FEA4B60488A828B83E0650C70D5
:102ED30004A3E0650D702C8A828B83A3A3A3A3E0D4
:102EE300F50EA3E0F50FE50A450B8A828B83A3A3B6
:102EF300A3A360C3123FB4850A82850B83A3A3A354
:102F0300A380B78A0A8B0B8A828B83124C6A80B4A4
:102F1300E508242A1256DCFCE5082402F8E4350906
:102F2300F9E8FAE9FB90166612311AA3A3E06402EA
:102F3300703C8A828B83124C6E800B88828983A3B8
:102F4300A3A3A3123FB4E849601F88828983E06A80
:102F53007003A3E06B70E488828983A3A3E06C70A1
:102F6300DA9018A1125A0C806BECF9121F5C8508D9
:102F730082850983E06401704FE508241812301C30
:102F8300120DC11262F6120C27E508241212301C2E
:102F9300120DC1E508123E65120DBDE508240B12A2
:102FA30062FA120C2BE5082417123E02E5082402EC
:102FB300FCE43509FDE5082419FAE43509FB122779
:102FC30078740A120DD0800CE064027007AA08AB73
:102FD3000912203AAA08AB09121674EEFAEF6480BC
:102FE300802DEA5402600C9018B47401F0EA640274
:102FF300FA8023EA5408601A121F56EA4B700B90AA
:1030030016681261D17A08123029EE6408FAEFFBD0
:1030130080047A007B00026980F582E43509F58338
:10302300E0F50A780A22FB90164BE0F91217DC222E
:10303300A3A3E0F50CA3E0F50D227B0090164BE073
:10304300F91217D074042274F41208298A088B0920
:103053008A828B83A3A3A3124A66123E0D38F5839B
:10306300E02409FA126918700302310D8A828B83F6
:103073007402124ADB85088285098312311AE8F04B
:10308300A3E91265928A828B83A3A3A3A3A3A3A319
:10309300A3F0E5082403F8E4350912310F123E0DBD
:1030A3003AF583E08E828B83A3A3A3A3F0EE2409D6
:1030B300FAE43FFB8E828F83A3A3125CBEF5838861
:1030C30082E0A2E58E828F83A3A3A3A3A3500474FB
:1030D300018001E4F0E5082403F5828983124C6E34
:1030E300EA1251EF3BF5831268DF120DB9123E0C61
:1030F3003B125DB08E828F83A3A3127A8E120DD002
:10310300EEFAEFFB90164B1269658016F98882F58B
:1031130083E0FAA3E0CA22124E0BA3A32274021285
:103123000DD07F04020B5C74F21208298A088B0904
:10313300ECFAEDFB740E1210D9E0FC1211E88A0CC4
:103143008B0DAE0CAF0DEA4F6030AC08AD09121118
:10315300D6E96026AC08AD09EEFAEFFB1211DCE903
:1031630070148E828F83123FA1FAEFFB1211D0AA43
:1031730008AB091212007900800279B4024D5A7427
:10318300F012082974F6120E69EAFEEBFF8C088D23
:1031930009750FB3852182852283E4F0750E0080C3
:1031A30002050E902E0AE493F8E50EC3984003023D
:1031B30032A9AA0E7B001212248A0A8B0BEA4B60F7
:1031C300E08A828B83A3A31232B028F0F8C3EE986F
:1031D300EF940050CC7C157D007900AA08AB09124E
:1031E300165C850A82850B83A3A3A3A3126D8BE0D0
:1031F300F8EEC3982925E0F8E433F9E50A28F582C7
:10320300E50B39F583A3A3A3A3A3A3123E17A3122C
:1032130058338A0C8B0DAC0CAD0DAA08AB091218F0
:103223000C850A82850B83A3E06401700A1262F69F
:103233007401123E2980447401120E61850A82854D
:103243000B83124C6C12120CE9603D74091210D9F5
:10325300E0C0E01262F6D0E0F074091210D9E06425
:103263000370137401120E61E508240BFAE43509A7
:10327300FB12180C801274011210D9123FB4E50826
:103283001258193509126D4C850A82850B83126316
:1032930002123E29A3A3E0C0E0E50824141262FA57
:1032A300D0E0F0750F00A90F740A02697DA3A3A3F0
:1032B300E0F8852182852283E02274F7120829E948
:1032C300FE8A828B83A3A3A3A3A3A3E05408603342
:1032D3008A828B83A3A3A3A3A3A3E0540260218ABE
:1032E300828B83A3A3A3A3A3A3A3A3A3E0640660E6
:1032F3000F74E96E600A74CD6E600574F06E70032E
:10330300121F3E02465974F012082974EF120E6917
:10331300740F1210D91260B574081210D9E9F0ECC9
:10332300FEEDFF74051210D9124421124645A3E0A5
:10333300F91211F474061210D91260B57406121042
:10334300D912528070030235C4123E51E0FA74065A
:103353001210D9E0F9121E7E123624F8A3E0F9E820
:103363004970030235C4EE2403F50AE43FF50BEE7E
:103373002406F508E43FF5097C00850882F58312ED
:103383004C6E850A82850B83E0F91211FA740312DD
:1033930010D91260B5850A82850B83E0C0E08521D0
:1033A3008285228312361DD0E0125395F98521823E
:1033B300852283123CB9124EE71232B3FAA3E0CA54
:1033C3002407F582E43AF583E8F0A3E41260C0240D
:1033D30006F582E438F583E4126D58124A5A120D49
:1033E300B9EE123E0D3F125DB074031210D9124AAA
:1033F300662409127A88120DD074291210D9126D1D
:10340300851231141253A83A126D4C742B1210D931
:10341300E0C0E0852182852283125247D0E0F07418
:10342300021210D9E4F074251210D9780812108210
:1034330002351B74031210D9125D788882F583124A
:10344300360CA3A3A312583EFB121212850E8285DB
:103453000F83A3EAF0A3EBF074031210D912361D05
:10346300A312360C125A4DA2E6500F850E82850F19
:1034730083A3A3A3A3A3E0D2E1F074051210D9E0C0
:10348300706B850E82850F83A3123FB49016A6E05E
:10349300687003A3E0697055850E82850F83A3A32B
:1034A300A3123DEC750C00780C120DC17808120DB7
:1034B300B574291210D9E0F50C780C120DC17427DC
:1034C3001210D9120C2B9016B3120C2B790074190D
:1034D3001210D9124C3E122082740A120DD0850E9E
:1034E30082850F83A3A3A3A3A3E04405F074021270
:1034F30010D9E004FC8E828F83124C688E828F83F6
:10350300A3A3A3E0F91211FA74031210D91260B540
:1035130074021210D9E004F074031210D91252800D
:10352300606774021210D9E0FA74061210D9123FC0
:10353300B4C3EA98E499505174021210D91238F6C0
:10354300852182852283E028F8A3E039F9E8240F56
:10355300F50EE439F50F850E82F583E4F07403125A
:1035630010D9123617640160030234367405121041
:10357300D9740112696BF074031210D9125B3F12F4
:103583003919E8F0A3E902345A852182852283128E
:103593004C6E121E84852182852283120C2B742685
:1035A3001210D9E0FD74251210D9E0FC740A121030
:1035B300D9E0F9EEFAEFFB121F387402120DD08036
:1035C300438E828F83A3A3A3E0C0E0740C1210D9AF
:1035D300D0E0F01267D4E0C0E0740D1210D9D0E04F
:1035E300F074061210D91252807009740E1210D999
:1035F30074B98007740E1210D97410F07409120E86
:103603005912207C741102697DE0850E82850F8337
:10361300A3A3A322E012536DE022E012536DA3A3F0
:1036230022852182852283EAF0A3EB125289227438
:10363300F012082974E1120E6974041210D9E9F02A
:1036430074031210D9ECF074021210D9EDF08A0E43
:103653008B0F742F1210D9123035AA0CFB121E7265
:1036630074011210D9E9F0AA0CAB0D121E78740183
:103673001210D9E070030238F1852182852283E498
:1036830080158E828F83A3A3A3A3A3E0D2E3F08547
:103693002182852283E0041268C3F8852182852272
:1036A30083E0C39840030238E874011210D9E07034
:1036B300030238E88521828522831238F6E50C2837
:1036C300F8E50D39F9E8240FFEE439FF8E82F5831E
:1036D300A3A3A3A3A3E0A2E040B5750800750A085D
:1036E300750B0074021210D9E060037508207C0882
:1036F3007D0079007405120E5912165C8E828F8339
:10370300E0603E9016F6E06401701AE508D2E3F536
:1037130008750B101239061210D9E8F0A3E91257F5
:103723003174FF807643080C750A0C8E828F83A355
:10373300123911126D4E74051210D974FFF0A38063
:103743005A74041210D9E06009E508D2E6F5087549
:103753000A0A8E828F83A3E064FE7003A3E0F470F1
:103763003074121210D97404126320F8741D1210ED
:10377300D9E8124ADB7412120E59121DA07D007C87
:1037830000790074151210D9AA82AB8312279C808A
:103793000B1239061210D9E8F0A3E9F074071210DE
:1037A300D9E508F0123E48C0E074091210D9D0E000
:1037B300F0740A1210D97401F07405120E59122014
:1037C3004074111210D9E060030238C6740D121050
:1037D300D91253908E828F83A3A3A3A3F0740D12E7
:1037E30010D9124AA9E50AF0A3E50BF074031210ED
:1037F300D9E0C0E0124A3AD0E0125A4D6011901657
:10380300F6E0C0E0740D1210D9124A84D0E0F074CF
:103813000D1210D9123FB4850C82850D83A3A3A387
:10382300A3A31238FF241C1260AF126D6812390172
:103833001259FF391267F3C0E0124A21D0E012682F
:10384300B8C0E0740D1210D9124567D0E01265B903
:10385300C0E0740D1210D912455DD0E0F0740D1262
:1038630010D91239111238FF242A1260AF850E8243
:10387300850F83A3A3A3A3A3A3A3A3E01260A8120A
:103883003E37C0E0124549D0E0F0740D1210D91252
:103893004C6E850E82850F831268CE2428F582E450
:1038A3003B126D4C123E401268DF120DB9125DA936
:1038B300EA1260413B127A8C120DD07405120E5934
:1038C3001220468E828F83A3A3A3A3A3E0D2E0F0AA
:1038D30074111210D9E0600302368574011210D9F5
:1038E300E0140236917900AA0CAB0D121F44741F29
:1038F30002697DE075F007A4F8A9F022A3A3124C96
:1039030072E8228E828F83A3123FB8740522E012DD
:103913003919A3A3A322F8A3E0F9850E82850F83A7
:10392300A32274F012082974E8120E69E985218232
:10393300852283F08A0E8B0F8A828B83A3A3A3A392
:10394300A3A3A3A3E0F9121E9C8A088B09EA4B7078
:1039530003023A02E50E125203123E60123DF7854E
:103963002182852283E06003023A057C04850E826E
:10397300850F83A3A3A3A3A3A3A3A3E0F9121EA26A
:10398300EE4F607B8E828F83A3A3A3A3123FB474F5
:10399300071210D91261E6123FB474091210D9123A
:1039A3004B0BC0E074111210D9D0E0126597A3A39A
:1039B300A3A3A3A3A3123FB4740F1210D9126D4E85
:1039C30074121210D9E4126973C8241FF582E43803
:1039D300F583125D74C413135403FC70027C048ECC
:1039E300828F83E0F97808120DBD742059FD74406D
:1039F30059F97403120E59121F387402120DD002B2
:103A0300697B7C08850E82850F83A3A3A3A3A3A34D
:103A1300A3A3E0F9121EA28B0BEA4B7003023983B6
:103A2300EE4F60DB852182852283E0F50C780C1252
:103A33000DC1850882850983A3A3A3A3A3A3A3E040
:103A4300F50C780C120DC18A828B83A3A3A3E0FB30
:103A53008A82850B831275AB8A82850B83E0FA8E8B
:103A6300828F83A3A3E0F912277E7402120DD00282
:103A7300398774F712082974FA120E69E9FE78017E
:103A830079017F00800379000F124DEAE0FCEFC358
:103A93009C5026EF75F007A4FC85F008AD08EA2CCE
:103AA300FCEB3DFD1243D9E0A2E050DA540C60D6A2
:103AB300E0A2E250D3780080CF8A828B83A3A3A3B2
:103AC300A3A3A3E0703DE9A2E0400574016E703347
:103AD3008A828B83A3A3A3A3A3A37401123DC9E08A
:103AE300C0E074031210D9D0E0124438E0C0E0748F
:103AF300041210D9D0E0F074051210D9E8125D1346
:103B030012207C7406024656C082C0837901121FBC
:103B130044025B4F74F4120829EA4B9018B46019FD
:103B2300E4F08A088B09F50AF50B7808120DB57ACB
:103B33000212303D120DD0800A7401F07A027B002C
:103B430012302A02312574F012082974F3120E6917
:103B530074031210D9E4F0A3F0901666123DF774C3
:103B6300011210D9E4F0A3124AE004F09016A0E089
:103B7300A2E35003023C3C123DBD74091210D9125A
:103B830010C274091210D97808121082901668783E
:103B930008120E3974051210D97808121073123CEA
:103BA300C074051210D9780812101650077A017BD9
:103BB30000023CAD74051210D9780C1210829018D3
:103BC300A0E0F509780C79081207BAA80CA90D90A2
:103BD30018A1E0C398E4995003E08001E8852182AD
:103BE300852283F074091210D97808121082C00854
:103BF300C009C00AC00B74051210D9780C121082C8
:103C0300123CC0780C79081207BAE4F50AF50BD018
:103C13000FD00ED00DD00C780C7908120F1190161E
:103C230068780C1210738011123CB2126D4EEEFACA
:103C3300EFFB121710AE08AF09EE4F60658E828F4F
:103C4300831232B0C398502DEE2403F8E43FF9E019
:103C5300FA88828983E0C39AF0602374031210D92F
:103C630012411A74011210D9EEF0A3EF126201FE91
:103C7300A3E0FF80C48E828F83A3A3A3E4F08E828C
:103C83008F83127A4574011210D91252808E828F5B
:103C930083A3A3A3A360911261DA1210D9123CB9D2
:103CA300808974031210D9124C6E740D02697D124F
:103CB3003FB890166622125D9FA3A3A32290189F7C
:103CC300127A4DE4F50AF50B2274F01208298A08DA
:103CD3008B09890A78007900901666123DF7FBEE8E
:103CE3004B601E088E828F83A3A3A3A3124C38605C
:103CF3001008E87001098E828F83123DF3EA4F703A
:103D0300E39018A2124C6EC3E89AE99B4003023D6C
:103D1300B07A06123DB3A80CA90DEA497003023D1F
:103D2300B08A828B83E508F0A3E509123DD2E50A48
:103D3300F09018A1124DF2123DC9A3E4F0A3F09044
:103D43001666124C38600D8E828F83A3A3A3A31231
:103D53006D4E8017901666126D4E9016A0E0A2E38A
:103D63004009123DBD9016681210C29016A0E0A241
:103D7300E3503A7A087B0090164BE0F91217E2EA17
:103D83004B4C4D702890189FE0F508A3E085080C74
:103D9300F50DE4F50EF50F780C120DB57A087B00DE
:103DA30090164BE0F91217D67404120DD0026980F5
:103DB3007B0012170A8A0C8B0D221217F4EAF8EB18
:103DC300F9ECFAEDFB22123DCD22123DD2A322F0F3
:103DD3008A828B83A3A322E508F0024659F08E82E0
:103DE3008F83A3A3A3A3A3A3221256EAA3A3F02220
:103DF300A3A3A3A3E0FEA3E0FF227F05020B5CF5D0
:103E030082E43509F583E0F922EA123E11222410F7
:103E1300F582E422123E1FA3A3A3A322123FBC8573
:103E2300088285098322123E2D22F0850A82850BA2
:103E330083A3A322E50E2411123E5DE022E50E24A6
:103E43000E123E5D22E50E2410123E5DE022123E6C
:103E53005522EE123E113FF58322F582E4350FF52C
:103E63008322240FF50AE43509F50B780A22E0F9D9
:103E73001216868A088B09EA4B2274F212082989E2
:103E83000B8A088B098A828B83124C6E121F68EA95
:103E93004B600479B8806A121F74E9F8902E07E426
:103EA30093F9E8C399400479B280567A15123DB369
:103EB300AE0CAF0DEA4F7004791080458A828B8374
:103EC300E4F0A3123DD2E50BF0750A007808120D59
:103ED300B97C127D00EA240312688A120DD0901671
:103EE3006C125280700890166C800C123FB488825A
:103EF3008983123F0770F4EEF0A3EFF0121F867967
:103F030000024D5A124C72EA4B8882898322C08286
:103F1300C08390166C80048C828D831275ACEC4D3B
:103F230060288C828D83A3A3E069600574FF6970A8
:103F3300E68C828D83A3A3A3E06A7003A3E06B7076
:103F4300D6EC2403FAE43DFB80047A007B00025B99
:103F53004F74F7120829E9FD74FE6D70047C01802B
:103F6300027C0090166C80096D70027C0188828946
:103F730083125280601F88828983A3A3A3E06A709F
:103F830003A3E06B70E7ECA2E088828983A3A3E03C
:103F930050D6F9800279FE024659EEF9800CA3A3AC
:103FA300127A4DEE227402120DD07F02020B5CF5E1
:103FB30083123FB822123FBC22E0F8A3E0F9221299
:103FC3003FBC8E828F8322120DD07F03020B5CC015
:103FD30082C083790090166C800109E0FAA3E08A1D
:103FE30082F583E582458370F1025B4F74F6120814
:103FF30029E4F508F5097808120DBD902E07E4931E
:1040030075F013A4A9F012410F126DAC120DD0E993
:10401300FE74096E7003121F80023F9D74F612082E
:104023002974FE120E69852182852283E4F0A3F0B0
:10403300A821A922880889097808120DBD750802EC
:104043007509007808120DBD126A1D120DD0023FCA
:10405300A874F512082974EB120E69852182852252
:1040630083E4F0A3F090166C80748E828F83A3A3F5
:10407300E0C0E074021210D9D0E0125731A982AA2D
:104083008389088A09750A007808120DB97C127DA4
:104093000074061210D9126D71120DD07402120E33
:1040A30051880889097808120DBD75081375090030
:1040B3007808120DBD74041210D912522375F0132F
:1040C300A4F8AAF075F013E912410B126A25120D38
:1040D300D085218285228312411A8E828F83123DDD
:1040E300F7EE4F7085A821A922880889097808125C
:1040F3000DBD7508027509007808120DBD126A1D01
:10410300120DD07415023FCAA42AF9E82402FCE474
:1041130039FD7A427B0022E02401F0A3E03400F071
:104123002274F412082974EB120E697E007F00A832
:1041330021A922880889097808120DBD7508028E05
:10414300097808120DBD7C007D007A42126DB81209
:104153000DD0E9706C8E0880567402120E51880AD5
:10416300890B780A120DBD750A13750B00780A12B4
:104173000DBDE50875F013A4F8AAF075F013E50971
:1041830012410B126DBA120DD0E9701B7403121099
:10419300D9AA82AB8374021210D9E0F9121F62E923
:1041A30070050EEE70010F0508E50870020509851C
:1041B3002182852283123FB4C3E50898E50999401B
:1041C30098EEFAEFFB741502312274F61208298C6B
:1041D300828D83A3A3124426F0EA1260473BF58342
:1041E300E0C0E01243E3D0E0F0EA241DF582E43BB3
:1041F300123FB21243C7124421F0A3F0EA241FF581
:1042030082E43BF583123DF7EC1243BA3DF583EEAE
:10421300F0A3EFF01243C03BF5831243F1A3A3A332
:10422300A3A3A3EEF0A3EF125CA2FE8C828D8312F4
:10423300443074035EFEC3940340030243ADEE6057
:104243000874026E60030242D28C828D83E0540CA8
:10425300FE740C6E7003024311E0A2E4400D8882E9
:104263008983E08C828D83A312444674086E6003B5
:104273000243111243D17401F08A828B83A3A3A357
:10428300A3A31256F770148C828D83E0440C12445E
:1042930038A3A31243F1EEF0A3EFF08C828D83E0F9
:1042A300A2E4402B88821243FF124414500109F503
:1042B300821243FFA3A3A3A3A3A3F0A3EF1244403B
:1042C3008C828D83A3A3A3F0E82403F8500109880B
:1042D300828983E0C0E0EC2411F582E43DF583D0CC
:1042E300E01244308C828D83E0A2E7507588828986
:1042F30083E0FE8C828D8312444674FC5E700C8CCA
:10430300828D83A3E054036403701E0243AD124302
:10431300D1E4F0740C6E600302427C88821244057F
:1043230012441450010902429E8C828D83A3E054EF
:1043330003603288828983E0C0E0EC1243EB3DF5F1
:1043430083D0E01244478C828D83E054036402706F
:104353001488828983E0C0E01243D9D0E012444735
:104363008003A3E4F0EC1251EF3D126D4CEC2410EA
:10437300FEE43DFFEA241DF582E43BF583E0F50806
:104383008E828F83E0C3982508F508F0EA2417F896
:10439300E43BF98882F583E0C39508C0E01243C784
:1043A300D0E0125CA2C39508500A1243C7E4F0128E
:1043B30043E3E4F0023FAD2415F582E422EA240D41
:1043C300F582E422EC240DF582E43DF58322EC1220
:1043D30053A83DF58322EC2414F582E43DF58322B2
:1043E300EC123E113DF583222413F582E422E0FE14
:1043F300A3E0FF8C828D83A3A3A3A322124405A36E
:10440300A3228983E0F508A3E0FFE5088C828D836E
:1044130022A3A3A3A3F0A3EFF0E82402F8221244FB
:1044230026A322E4F08C828D83A3A3A32212444EFD
:10443300A882A98322123DCDA3A3A3A32212444E93
:10444300A3E022A312444E08A98322125CABA32249
:1044530074F412082974F3120E698A0A8B0BECFEAA
:10446300EDFF8C82F583E0540CF508E0A2E75006DB
:10447300E508D2E7F508E508D2E1F5081256F7702A
:1044830006E508D2E4F508E0A2E55006E508D2E522
:10449300F5087C087D007900AA21AB2212165C7412
:1044A300021210D9E508126D52C0E074031210D93C
:1044B300D0E0124AE0E50AF0A3E50BF07405121010
:1044C300D91265BE1210D9E0707774081210D91290
:1044D3004A66125C94381265D9C0E074081210D988
:1044E300124567D0E01265B9C0E074081210D91202
:1044F300455DD0E0F074081210D9124553E0124A1A
:104503008E124B0F1260A8EE24111256C3C0E01294
:104513004549D0E0F0EE24141256C3C0E0740812EB
:1045230010D9124A662435F582E438F583D0E012B7
:104533004AB3C0E074081210D9124A6AD0E0126379
:1045430012740D023122E82432F582E439F5832214
:10455300123FC2A3A3A3A3A3A322124A7A1267B84A
:1045630038F58322124A7A2426F582E438F5832229
:1045730074F71208297E008A828B83A3A3A3A3A3C3
:10458300A3A3A3A3E0640460030246351253A0E08F
:1045930060030246351252023B12527E70030246FA
:1045A3003588828983E054036003024635E8125359
:1045B300A839F583E0FA8C828D83A3A3E0FBA3E003
:1045C300CB2411F582E43BF583E06A706588828928
:1045D30083A3A3A3A3A3A3A3A3A3124639E06A704F
:1045E30003A3E06B704C88828983A3A3124645E042
:1045F300FFA3E0CF24061256C36A7003A3E06B70D7
:104603003188828983A3A3E0F88C828D83A3A3E0FE
:10461300F9A3E0F5838982A3A3E06860138C828DFC
:1046230083A3A3A3E0F5838982E0540C640470029E
:104633007E01EEF9802012463D22124C768C828D4B
:104643008322A3A312463DA3A322740C1210D9E024
:10465300F9740D120DD07F01020B5C74F612082958
:1046630074FC120E69EAFEEBFFECFAEDFB8C82F5AB
:1046730083A3E05403601690166212528060597946
:1046830000EEFCEFFD125E9F1227A7804B8521826F
:10469300852283EEF0A3EFF074021210D9124AD5EB
:1046A300AC21AD227A9E7B1F1221C68A088B09A8F2
:1046B30008A909EA4960218A828B83A3A3A3A3A340
:1046C300A3A3A3A37406F07A0088828B83124A669D
:1046D300126068E0F91221247404023FAA74F212F2
:1046E300082974F3120E69EAFEEBFF8A82F583A3AD
:1046F300A3A3A3A3A3A3A3A3A3E0F50A9018B4E0E1
:10470300700579BA024A1E750801750900750C0017
:10471300750D007C087D007900AA21AB2212165C7E
:1047230074051210D97401124AE854046012740219
:104733001210D9E0D2E6124AE85408700375080350
:10474300E05410600674404508F508E05408602200
:1047530074021210D9E044C0124AE85420600A746B
:10476300031210D9E0D2E0800874031210D9E0D20A
:10477300E1F0EE24151256C3124A4E700374016918
:10478300700674084508F5088E828F83A3A3A3A33C
:10479300A3A3A3A3E070161222208521828522837E
:1047A3001260B574021210D9E0D2E28030640F7047
:1047B3001074021210D9124AF074044508F50880E7
:1047C3007F8E828F83A3A3A3A3A3A3A3A3E06402E7
:1047D3008E828F83700A126D85E8F0A3E9F0806002
:1047E300A3A3A3A3A3A3A3A3E06403700DAC21AD70
:1047F30022EEFAEFFB121FD480468E828F83A3A38F
:10480300A3A3A3A3A3A3E0640170359016F6E0600D
:104813001074021210D9124AF0750910750AFF803C
:104823001874021210D9E0440C124AE074FDF0A38C
:1048330074FFF074044508F5088E828F83123035B7
:10484300EE24151256C3A2E0503F74021210D9E0B1
:10485300540C701B8E828F83124C6E121C3EE970B7
:104863000579BB024A1E74021210D9E0D2E5F0EEBC
:1048730024151256C3A2E0501074021210D9E0544A
:104883000C64047004E0D2E5F0EE24111256C3C0A8
:10489300E074041210D9D0E01265C01210D9E060A0
:1048A30003024A1774081210D9124AA9E508F0A3A3
:1048B300E509F0124A44E0C0E0124A3AD0E0F012AF
:1048C3004A2BE0C0E074081210D9124A661243EB77
:1048D30038F583D0E0124B0F640170119016F6E0A7
:1048E300C0E074081210D9124A84D0E0F0740812A0
:1048F30010D9124AA4124A35FAE8241CF582E43985
:10490300F583EA124ADBEE2415FAE43FFB8A82F5CB
:10491300831275ACE81259FF39F583124AD5EE2498
:104923001C1256C3C0E0124A21D0E0125B45124A62
:104933004E7003740169701374081210D9125390E6
:10494300FAEE241D1256C3F9121EA88E828F83A37A
:10495300A3A3A3A3A3A3A3A3E0C0E074081210D945
:10496300124567D0E0F074081210D912455DE50ACC
:10497300F074081210D91252232428F582E439F571
:1049830083E50CF0A3E50D124ABB124A8E12573C85
:104993001260A8EE124A35C0E0E82433F582E43908
:1049A300F583D0E0F0EE241B1256C3C0E074081266
:1049B30010D9124A6AD0E0F0EE241A1256C3C0E0AE
:1049C30074081210D9124A662432F582E438F5834A
:1049D300D0E0124AB3124A5A120DB91267BE1275C9
:1049E300AC740B1210D9124A66242F127A88120D56
:1049F300D0EE24151256C354406012901682125200
:104A030080600AAA21AB22125E9F1227A7AA21ABBC
:104A130022122046740C1210D9E0F9024D55E824F5
:104A230020F582E439F58322EE2419F582E43FF57B
:104A330083221267CDE022E82412F582E439F5835C
:104A430022EE2418F582E43FF583225480F8A3E094
:104A53005401F974806822F508A3E0F509750A008A
:104A6300780822124A7A22124A7A2434F582E438E8
:104A7300F58322A3A3A3A3124A7E22E0F8A3E0C8EE
:104A830022124A7A1243BA38F58322FAA3E0FBE8EA
:104A9300242AF582E439F583EAF0A3EB22A3A3A346
:104AA300A3123FB8EE2212522712520739F583227E
:104AB300F0EE241312574422F0EE240D1257442231
:104AC300E0FC8A828B83E02CFCA3E03400FD8A8225
:104AD3008B83ECF0A3EDF022F0A3E4F022F0852128
:104AE3008285228322F0EE241512574422E0D2E37A
:104AF300F0124AF8228E828F83123FBC8521828571
:104B03002283E8F0A3E9F022E8F0A3E91261FBE0D5
:104B13002274F71208298A828B83A3E0640170044C
:104B23007E6380027E648A828B83E060087905124B
:104B33004B4824F3FE90169EE06007F9124B48247D
:104B4300F2FE0246351220EEE9F8EEC3982274F61F
:104B530012082974FE120E69852182852283126050
:104B6300B5E9FEECFAEDFB9003811252806032A8A6
:104B730021A922880889097808120DBD7D01740EC8
:104B83001210D9E0FCEEF99003811260891227A775
:104B93007402120DD0EA4B60047900800679B2806A
:104BA3000279B6023FA874F7120829E9FE90165855
:104BB300125280601F74091210D9E0F508780812A8
:104BC3000DC1EEF99016581260891227A7740112CD
:104BD3000DD0800279B602465974F7120829890864
:104BE300ECFEEDFF79B5E508245E60201460062431
:104BF300F86034803D900383124C386035126DC9E0
:104C03001227A78E828F831260B5802490165A12C2
:104C130075ACEC4D601CEEFCEFFD90165A126089EA
:104C23001227A7E9F9800B901656124C3E12180C66
:104C33007900024659124C72EA4B221275B0EEFA11
:104C4300EFFB2274F7120829E9FE79B574AB6E7095
:104C53000B901656124C6E12180C79000246598EA0
:104C6300828F83A3A3A3A3A3A3A3A3124C72221291
:104C73004C7622E0FAA3E0FB2274F1120829EAFE43
:104C8300EBFF8C0A8D0B7508019016A6E06E70037E
:104C9300A3E06F700C124D49AA0AAB0B12180C80DB
:104CA3005E122226EE6A7002EF6B7009AA0AAB0B42
:104CB30012222C804AAC0AAD0BEEFAEFFB121D7CDC
:104CC300E9F5089018A7E070361226B2E97030E5CE
:104CD30008702C901676E06E7003A3E06F7020EEE0
:104CE3004F601C750C6E750D16750E00780C120D49
:104CF300B97C087D00AA0AAB0B126D75120DD0A901
:104D0300080276A874F2120829EAFEEBFF8C088DDC
:104D130009750A01124D49EEFAEFFB121806E96410
:104D23000170119016A6123FB4850882850983127B
:104D33006D4E800EAC08AD09EEFAEFFB121D82E951
:104D4300F50AA90A801112221A8A0C8B0DAC0CAD3C
:104D53000D22740D120DD07F06020B5C74F612083F
:104D630029EAFEEBFF7A0D7B0012170AEA4B606219
:104D7300EE2424126A52F0EE2425126A52A3124E34
:104D830017126A58A3A31267EB124DF2F0EE124DFD
:104D9300D8124E07E8F0A3E9124E2E124DFF126D02
:104DA3004EEE124DE11268AEA3A3A3A3F0EE24339B
:104DB3001256C3C0E0124DEAD0E01265DD124DFF7A
:104DC300A3A3A3E8F0A3E9124E26C0E01253A0D098
:104DD300E0F0023FAD242AF582E43FF58322242E3E
:104DE300F582E43FF58322EA1258193BF583221238
:104DF3004DF622E08A828B83A3A3A32212690DA31B
:104E0300A3A3A322124E0B22123FBC8A828B83A33D
:104E1300A3A3A322F0124E1C22EE2426F582E43F24
:104E2300F58322F0EE243212574422F0EE242C12A2
:104E330057442274F412082974FE120E69ECFEED35
:104E4300FFEC24161256C364057010EC2406FCE430
:104E53003FFD121FCEE97003024EE2AC21AD2212D8
:104E63006B07121C44852182852283125280606B5A
:104E73008E828F83E064017058E875F009A4F8AA64
:104E8300F075F009E9A42AF974CF28F8740339F905
:104E9300E8FAE9FB8882F5837808121082EE124F54
:104EA300841210164027852182852283124AA41278
:104EB30056D1124EE778081210829085A97808120D
:104EC3000F4D8A828B837808121073800A79A2802F
:104ED30010EE240F126D487900800679A1800279C3
:104EE300C8023120124B05EE1267D92274F2120860
:104EF300298A0C8B0DECFEEDFFEC1256D1E4F0A3E6
:104F0300F09086197808121082EC124F84120E95D5
:104F13006067EC240E1256CA703478B390169DE085
:104F230070289016CFE064017020EC24111256C350
:104F3300F91220D68B09A909EE1252033F1260B36E
:104F4300EA4960047800800278A18808802EE06036
:104F5300046402700A121FE0E9F5087007801DE07F
:104F630064037010EEFCEFFDAA0CAB0D121C68E994
:104F7300F50880087508A180037508A3A908024DE8
:104F83005A1267D978082274F012082974F5120EA0
:104F930069EAFEEBFFEA240AFCE43F8C82F5831204
:104FA3007A4912520D7403120E618A828B83125E48
:104FB300A9E970030250737401120E617403120E97
:104FC30059121C4474011210D912528070030250FA
:104FD30073E875F009A4F8AAF075F009E9A42AF9B1
:104FE30074CB28FC740339FDE508240E1262FAE43D
:104FF300F0041210D9123FB4E50812520335091216
:105003006D4C8C828D831210B6E50824121262FA5D
:105013001210C29085A978081210828C828D837831
:1050230008120FAC8C828D83780C121082908599B4
:105033007808121082780C79081207BAE508450936
:10504300450A450B702A74011210D912522375F0C8
:1050530009A4F8AAF075F009E9A42AF974D328F58C
:1050630082740339F5837401F07A007B081252309D
:105073008E828F83A3A3A3A3A3A3A3A3A3A3E024A9
:1050830006FCA3E03400FD8E828F83125EA91265B5
:10509300CB603EEE240A1251F5124AA97468124AF3
:1050A300DBE81251EF39F5837402F0901688121081
:1050B300B68C828D831260A2125C943CF58312102D
:1050C300C29085A978081210829016887808120F6A
:1050D300AC12526B705D90165612521BA3A3A3A37E
:1050E300A3A3A3A3A3A3125CCA121806E970101208
:1050F3005C88901656125C9A70051265CB60348EEC
:10510300828F83A3A3A3A3A3A3A3A3A3A312521B2B
:10511300124C6E121C6EE960118E828F83A3A3A3BF
:10512300A3A3A3125257E4F0A3F08E828F831252EB
:105133003DE4F012526B60030251EA8E828F83A327
:10514300A3A3A3A3A3127A4590169DE06003025183
:10515300DF9016CFE0640160030251DF750A3A75F0
:105163000B00780A120DBD7402120E51880A890BC6
:10517300780A120DBD127044120DD0E9705BE50878
:10518300240E1262FA7401125285C0E0E50824115C
:105193001262FAD0E0F0E508240F1262FA743A12B0
:1051A3004ADB9016841210B6E50824121262FA1232
:1051B30010C29085A978081210829016847808127C
:1051C3000FAC9085A9780812108290168478081283
:1051D3000E95700812522C800312520D12526B70EE
:1051E30006125B8B74A1F0740B02697D240EF582A9
:1051F300E422F8E43FF9E8FCE9FD8882F58322EA3A
:1052030012520722240FF582E422E50812520735D1
:1052130009F583E4F0A3F0221275B08E828F832206
:1052230012522722123FBCE8227A007B0290152FEC
:10523300E0F91216B0228A828B83A3A3A3A3A3A3AC
:10524300A3A3A3A312524B22124A7E240EF582E497
:1052530038F58322A3A3A3A312525F22124A7E240A
:105263000FF582E438F583228E828F83A3A3A3A351
:10527300A3A3124A76240FF582E438F5831252274A
:10528300492212528922F0852182852283E02274E9
:10529300F6120829EAFEEBFF7A237B0012170AEEC7
:1052A300240AF508E43FF5098508821260B37C23DC
:1052B3007D00790012165C8508828509831252806D
:1052C3007003025353EEFAEFFB121FEC12526B60A2
:1052D300748E828F8312538664018E828F83A3A37D
:1052E300A3A3A3A3700712537C740E8021125280D0
:1052F30070101265CB700B8E828F83A3A3E0A2E0A4
:105303005007125372740D8005125372740512659F
:10531300DD54036401700712535A7405800B901611
:105323009EE0C0E012535AD0E0125395F583888271
:105333001256F0850882850983124A66126047383F
:10534300F583E9800E85088285098312612C800329
:1053530012606FF0023FAD8E828F83A3A3A3A3A33A
:10536300A3A3A3A3A312536C22E012608EA3228EE5
:10537300828F83A3A3A3A3A3A3124A7612604D38FB
:10538300F58322A3A3A3A3A3A3A3A3A3A312524B73
:10539300E02212539922126B1CF8A3E022EA125363
:1053A300A83BF58322240CF582E42274F112082928
:1053B30074E4120E698A0C8B0D8C088D097A237B99
:1053C3000012170A8A0A8B0BAE0AAF0BEA4F70035F
:1053D3000256AB126053E50824151256DC687003BD
:1053E300A3E0698E828F837004740280027401F0DB
:1053F300E508240DF8E43509F98882F583E0FAC35A
:10540300E49AFA95E0FB1256D82AFAA3E03BFB8E06
:10541300828F83A3A3A3A3125CB18E828F83A3A3E2
:10542300F0EE2420F582E43FF583E4F0EE2421F549
:1054330082E43FF583E4F0EEFAEFFB1220A0850847
:10544300828509831256F770098E828F83A37405B0
:10545300800690169E1256E5F0EE2417F50AE43FF7
:10546300F50B8E828F831256F0E9850A82850B83B2
:10547300F0EE2416F8E43FF9E508240EFAE43509C2
:10548300FB88828983124AC3E5082410FAE43509AC
:10549300FB850A82850B83E0FC88828983E0F88A96
:1054A300828B83E0C398C39CF8125731F0EEFCEF74
:1054B300FDAA0CAB0D121FE6E9F50B8E828F83E07C
:1054C30064027006125C881256B5E50B600302563F
:1054D300A2750C00750D009018A7E064016005E04B
:1054E3006402703F1256C76008EE24211256CA7038
:1054F300328E828F83A3A3A31260751256FDEE240E
:10550300161256C3125726FAE439FB123DB5EA4B7D
:1055130060111268D7120DB912570BAA0C126D75D0
:10552300120DD0EEFAEFFB1220ACE9F50B9018A7A1
:10553300E064016008E064026003025695E97003C9
:10554300025695E50C450D70030256A28003850EA5
:105553000B1256C7600BEE24211256CA6003025683
:105563009B850B0E850C08850D09750A00780812BA
:105573000DB912570B8E828F83A3A3A3A3127A8E26
:10558300120DD0EE24201256C3600D1256D074684B
:10559300124ADBEE24208015EE24211256C3601537
:1055A3001256D07403F0A37401F0EE2421F582E4C3
:1055B3003FF583E4F0EEFAEFFB1220ACE9F50B7054
:1055C300907C137D0079007409120E5912165C74D5
:1055D3001A1210D9740112573C64687002A3E07068
:1055E3004F8E828F83125257E06405600302555138
:1055F3007C0879FF8E828F83A3A3A3A3E0242A12BE
:105603005CCD1216E6E970030255517C087D0079E2
:10561300FF7401120E5912165C7401120E617A00A6
:105623007B0079AB121FC874191210D974FC801552
:105633001256D0E064037004A3E064017008741987
:105643001210D974FFF0E4F508F5097808120DBDBE
:105653007402120E6174131210D9AA82AB83126101
:10566300B2120DD0852182852283E0602B7409124A
:105673000E51880889097808120DBD75081375093C
:10568300007808120DBD7C007D00126A25120DD032
:105693008006E50C450D6007AA0CAB0D121710EE42
:1056A300FAEFFB1217108003750B10A90B741C0281
:1056B30076A5EE2406FAE43FFB12180C22EE240C26
:1056C30012574422EE2420125744640122EE125250
:1056D300073FF58322E508240EF582E43509F583B7
:1056E300E0221256EAA322E08E828F8322A3E0F9FE
:1056F3001220EE22E0540364012212570122E0FA41
:10570300E82AF8E43400F9228E828F83A3A3A3123C
:105713006079125701EE2416125744125726FCE4FF
:1057230039FD22FAE82AF8E439F9E8240422125769
:1057330035221265ECA3A3A322F012574122EE24D3
:105743000FF582E43FF583E0227901020D8074F4C2
:10575300120829EAFEEBFF8A82F583A3A3A3A3A37E
:10576300A3A3A3124A662424F582E438F5831256D0
:10577300F7702E8A828B83125386702512581FE08E
:105783006405701D12581FA3E0F874016860057466
:105793000668700712523974028005125239740375
:1057A300F0EA240A126120126089E4F0EA2408F87E
:1057B300E43F12310F2431F582E43AF583E0C0E08F
:1057C300126DC0A3A3D0E012583ECA242EF582E482
:1057D3003AF583E0C0E0126DC0A3A3A3D0E0125D4D
:1057E30064C812581938123FB2126DC01258338A66
:1057F3000A8B0BAC0AAD0B850882850983125CCA40
:1058030012180C850882850983124C6E1220AC1283
:10581300611BF0023125240BF582E4228A828B83FB
:10582300A3A3A3A3A3A3A3A31265B2F58388822290
:10583300A3A3A3A3124B0512221A22125CA6FAA356
:10584300E02202574CC082C08390167874F2F0A312
:10585300741FF090167A74FEF0A3741FF090167CF8
:105863007404F0A37420F090167E74F8F0A3741FF0
:10587300F0025B4F74F4120829EA2408FEE43BFFAC
:105883008E82F58312522312605FE0F5087403558C
:1058930008F509125CC5F8A3E08882F583E508F0F2
:1058A300A3A882A983E5096009740265096003025C
:1058B3005964740C5508FC600A74086C6005740420
:1058C3006C7026740265097006E508A2E4401A8A22
:1058D300828B83A3A3A3A3A3A3A3A3125A6A1267CE
:1058E300B83D125A05A308A983740C6C701C125A94
:1058F300662428125A522428F582E43DF583A31224
:1059030063E6F0E82402F8500109740265097006A1
:10591300E508A2E4404B125A66242A125A52242A5A
:10592300F582E43DF583A3125A14125A701263E60A
:10593300125A70A3125A0CE82404F8500109EC60BF
:105943000F74086C600A740C6C600574046C70113D
:105953001260962426F582E43C125A05A3A882A974
:10596300838A828B83A3A3A3A3A3A3A3A3125A34DF
:1059730054037014E508A2E1400E1260961259FF19
:105983003CF583E054806008125A1A125A078019B2
:1059930090164CE0C0E0125A1AD0E0125A4788829F
:1059A3008983125A4704125CABA3A882A983E50832
:1059B300A2E750458E828F83125A348882898312DC
:1059C3005A4D125A39540360301260962434F582CA
:1059D300E43C1263E4F0E508A2E1501D8A828B8364
:1059E300A3A3A3A3A3A3A3A31231142435F582E491
:1059F3003A1263E4A3F0E82403023125241EF5825E
:105A0300E422F583125A14F022125A14A3A3A3F02A
:105A130022E088828983228A828B83A3A3A3A3A300
:105A2300A3A3A3E0FCA3E0CC2432F582E43CF583FA
:105A330022E0125A3922FCA3E0CC2425F582E43C6F
:105A4300F583E022F090164CE0221265E8E022F59F
:105A530082E43DF583125A14125A5F221265EC1246
:105A63005A6A228E828F83E0FDA3E0CD22A3125ACD
:105A73005F242CF582E43DF58322C082C0838A82B1
:105A83008B83125B3FFC74035CF98A828B83A3A331
:105A93007401F0E960057402697061740C5CF8606C
:105AA3000A740868600574046870137402697005E9
:105AB300ECA2E440098A828B83A3A37402F0740CE2
:105AC30068700A8A828B83A3A3E02402F0740269BC
:105AD3007005ECA2E440258A828B83A3A3E024040F
:105AE300F0E8600F740868600A740C686005740459
:105AF3006870098A828B83A3A3E004F0ECA2E750C9
:105B03002A8A828B83A3A3E004125B4512361EE02C
:105B1300540360178A828B83A3A3E004F0ECA2E111
:105B230050098A828B83A3A3E004F08A828B83A328
