:020000040000FA
:06000000020D7A020394D8
:03002B00020AF1D5
:0300330002074C75
:030053000202C3E3
:03006B0002070188
:03007B0002072A4F
:1000830002032501010000000000F8FF07FFFF0045
:10009300000504000000030001FF0020FD0002062C
:1000A300FFFF1E000000000000000002010000FF2F
:1000B300FF08010400000F15000000E8030000FF23
:1000C300FF60150188130000E8030000640064006A
:1000D300B801A0BB0D00A0BB0D0002020207040182
:1000E300051E02051E020A0A010108080103B80BD6
:1000F30002803E0102FEFFE8030A050001FFFF0242
:100103000A011401E002000000050301010F0300CE
:1001130003000300030003000300030003000300C4
:1001230005000A00140028004F009E000000A327CA
:1001330000000000772600000000FF000000FF0021
:1001430000120D8A604F120D996012E7548066F613
:10015300120C557011120E27703B090909F4F61899
:10016300F618F618F622120C2D7015120E30080828
:100173000860EAE6447FF618768018E4F618F6225B
:10018300120E306016120E277012E4F608F608F607
:1001930008E65480F609090918181822EAC0E0EBAA
:1001A300C0E0ECC0E0EDC0E0E687F0A4FBACF008F3
:1001B300E687F0A42CFCE435F0FA1809E687F0A4EE
:1001C3002C4B60027401CA35F0FCE433FB09E6876B
:1001D300F0D2F7A42CCB35F0FC1908E687F0A42B5A
:1001E300CC35F0FBE433FD0819E687F0D2E7A42C05
:1001F3004ACB35F0CD3400FC09E687F0D2E7A42DD5
:10020300CC35F0FDE433FA0918E687F0D2F7A42CD5
:10021300CD35F0CA3400FC08E687F0D2E7D2F7A464
:100223002ACC35F07A7E20E70B0ACB33CBCD33CD06
:10023300CC33CC33CB3350147004ED30E00ED2F119
:10024300E4CD3DCDCC3CCC3B5005DA05C2F1EB54BB
:100253007FC63308E63392F0FBE73309E733C39AEB
:10026300502D2B70190C0D4C4D70151806E608C354
:1002730033700D20F10AA2F013F6E418800B40242A
:10028300E4F630F002768018F618F618F68024D3D8
:100293003B14501074FFA2F013F6187680E418F69E
:1002A30018F6800FA2F013F618E63303F618ECF6EF
:1002B30018EDF6D0E0FDD0E0FCD0E0FBD0E0FA2270
:1002C300C0E074F11206A2A2AFE433F509D2AF8500
:1002D300A708AFA1EF5508FE74105E60061210FA6E
:1002E30075A1EF74085E600812110075A1F78024F0
:1002F300EFA2E092F0E508A2E082F0501790619837
:10030300E0F890040EE0C398A2D265D0335002E81F
:10031300F075A1FE752300E509A2E092AF7F02020A
:1003230007BDC0E074F21206A2A2AFE433FED2AF5F
:100333009061A4E0F8759B00E59158540860087536
:1003430091F712114E8023E591585410600875916E
:10035300EF1211548014E591A2E092F0E8A2E0823A
:10036300F05007E0C2E0F01212AA9061A3E0F8E5B2
:10037300E9585404600E12128075E9FB906193E012
:10038300A2E640F2752300EEA2E092AF7F010207DE
:10039300BDC0E074F21206A2A2AFE433FED2AF9066
:1003A30061A5E0F8E5BF585404600675BFFB12125F
:1003B300C280D1C3E498F8E499F91203F78026C305
:1003C300E49AFAE49BFBE920E7E91203F7E498F8DF
:1003D300E499F922C3E498F8E499F91203F7E4984D
:1003E300F8E499F9C3E49AFAE49BFB22EB20E7CF04
:1003F300E920E7E0B90010BB0008E88AF084F8AA16
:10040300F022E4FBC8FA22EB70227B10C833C8C980
:1004130033C9335007C39AC3DBF280069A50012ACB
:10042300DBEAC833F4C8C933F4C9FA2275F008E427
:10043300C833C8C933C933C99AC99B5004C92AC927
:100443003BD5F0ECFBC833F4C8E4C9FA221204909C
:1004530020F01430E72B74FFFCFBFA747F8022E456
:10046300FCFBFA7480801AB48008BC00F2BB00EF76
:10047300800F50EBF9E4C39AFAE49BFBE49CFCE4A1
:1004830099C6CC18C6CB18C6CA18C6F922E4C9C681
:1004930008CAC608CBC6D3330308CCC63392F0C30D
:1004A300947F402E94184019C9B90704CACBCC22B3
:1004B3005025C309CA33CACB33CBCC33CC33D9F49D
:1004C30022F4600DC9CCC313CB13CBCA13CAD9F61C
:1004D300CC22E4FCFBFA2214FCFBFA22080808EA0B
:1004E300C0E0EBC0E086F0E7A4FA180986F0E7A4C1
:1004F3002AFA180986F0E7A42AFA180986F0E7A46D
:100503002AFA1986F0E7A4FBE5F02AFA190886F01F
:10051300E7A42BFBE5F03AFA190886F0E7A42BFBD6
:10052300E5F03AFA18180986F0E7A4C5F02BFBE4C6
:100533003AFA1908E7C5F0C6A426F6E5F03BFBE452
:100543003AFA1886F0E7A4F6E5F00826F6E43B0845
:10055300F6E43A08F6D0E0FBD0E0FA22E4CFC0E0BC
:10056300E4CEC0E0E4CDC0E0E4CCC0E075F020E62A
:1005730026F608E633F608E633F608E633F61818E7
:1005830018EC33FCED33FDEE33FEEF33FFC3EC9792
:1005930009ED9709EE9709EF97191919400FFFEC29
:1005A30097FC09ED97FD09EE97FE191906D5F0BFE3
:1005B300ECF709EDF709EEF709EFF7191919D0E090
:1005C300FCD0E0FDD0E0FED0E0FF222521C582C0B3
:1005D300E0E52234FFC583C0E0E521C3958224F81A
:1005E30010AF088583228582218008858322858236
:1005F30021D2AFCEF0A3E520F0A37808E608F0A35C
:10060300DEFAEFF0A3E58124FAF8E608F0A3E608A2
:10061300F0A3E608F0A30808E608F0A3E608F0A3B1
:1006230015811581D0E0FED0E0F815811581158183
:10063300E8C0E0EEC0E022120E12B9000302068CFD
:10064300E490030178FB79158002F0A3D8FCD9FA72
:1006530078239000867A01BA00028007E493A3F618
:1006630008DAF97AFB7B1790008778BD790180154A
:10067300E493A3AD82AE838A828B83F0A3AA82AB79
:10068300838D828E83D8E9D9E775824A7583C974CD
:1006930004120AD37582747583247400120AD3C0BA
:1006A300D02521C582C0E0E52234FFC583C0E0E543
:1006B30021C3958224F310AF08858322858221808C
:1006C30008858322858221D2AFC8F0A3E9F0A3EA8B
:1006D300F0A3EBF0A37908E709F0A3D8FAECF0A3B1
:1006E300EDF0A3EEF0A3EFF0A3D0E0F0A3D0E0F0A1
:1006F300A3D0E0F0A3E520F0A3E5F0F0A322C0E04F
:1007030074F21206A2A2AFE433FED2AFE589540C11
:1007130060031210225389F3C2C5752300EEA2E0D1
:1007230092AF7F010207BDC0E0C0D0E8C0E0A8A837
:10073300D2AFE58A858A8AC2EB752300E8A2E792E5
:10074300AFD0E0F8D0D0D0E032C0E0C0D0E8C0E015
:10075300A8A8D2AFE58B858B8BC2E880DCE9799EB4
:10076300C608CAC608CBC608CCC6C370207996CAC9
:10077300CBCC7019798ECBCC70137986CC700EF9F3
:10078300802ACA33CACB33CBCC33CC331930E7F20C
:10079300CCCBCA3350147004EA30E00DE4CA3ACA31
:1007A300CB3BCBCC3CCC500209C3E913C6CC1823BA
:1007B30013C6CB18C6CA18C6F9228522838521829F
:1007C300E0C0E0A3E0F9A3E0FAA3E0FBA37808E02C
:1007D300F608A3DFFAE0FCA3E0FDA3E0FEA3E0FF3D
:1007E300A3E0C0E0A3E0C0E0A3E0F5D0A3E0F520E0
:1007F300A3E0A3F5F010AF0885832285822180084A
:10080300858322858221D2AFD082D083D0E0F8D0F5
:10081300E032E473FF75F0108E248F2585822985DD
:100823008328852182852283E0CEA3E0CF85298298
:10083300852883EBC9EAC8EDCBECCAC3E833C8E922
:1008430033C9EA33CAEB33CBC3EA9EF527EB9FF5F3
:1008530026B35004AB26AA27EC33CCED33CDD5F029
:10086300DAAE24AF2522D083D082ECC0E0EDC0E025
:10087300E493A3FCE493A3FDED4C600D120941EC5A
:1008830024FFFCED34FFFD80EFE493A3FCE493A38A
:10089300FDED4C600D1209DEEC24FFFCED34FFFD91
:1008A30080EFD0E0FDD0E0FCE493A3C0E0E493C08C
:1008B300E022852283852182E0A3FEE0A3F5207850
:1008C30008E0A3F608DFFAE0A3FFE0A3C0E0E0A39B
:1008D300C0E0E0A3C0E0E0A3C0E0E0A3C0E010AF4D
:1008E300088582218583228008858221858322D2FF
:1008F300AFD083D082020AD9D083D082E9C0E0E4AA
:1009030093A3C386F0C5F095F0F908E493A386F0AA
:10091300C5F095F0700BE493A3C3994005E90480F7
:1009230002A3E475F002A42582F582E5F03583F590
:1009330083D0E0F9E493A3C0E0E493C0E022C0E0F5
:10094300C3E49396087401939618400FE49366707A
:100953000808740193661870007019A3A3C3E49385
:1009630096087401939618A3A3400DD0E0D0E0D06D
:10097300E00208A5A3A3A3A3A3A3D0E02274048049
:100983000474028000CCC0E0EDC0E0E521C39CCC40
:10099300AD2250011D10AF068C218D2280068C21C3
:1009A3008D22D2AF120A55D0E0FDD0E0FC227402B2
:1009B3008000CCC0E0EDC0E0E521C39CCCAD22506B
:1009C300011D10AF068C218D2280068C218D22D231
:1009D300AF120A33D0E0FDD0E0FC22C0E0C0F088C3
:1009E300F0E4936670080874019366187000A8F029
:1009F300A3A3700BD0F0D0E0D0E0D0E00208A5A311
:100A0300A3D0F0D0E022D083D082CCC0E0E493A383
:100A13006006120A951470FAE493A36006120BD8C9
:100A23001470FAD0E0FCE493A3C0E0E493C0E022A6
:100A3300CAC0E0E493A3C582CCC582C583CDC58378
:100A4300F0A3C582CCC582C583CDC583DAE5D0E0EA
:100A5300CA22CAC0E0E0A3C582CCC582C583CDC586
:100A630083F0A3C582CCC582C583CDC583DAE6D026
:100A7300E0CA22C008C3E096F50808A3E09642083E
:100A830008A3E096420808A3E09645087001D3D076
:100A93000822C0E0E493A3D39C5010E493A3C39C27
:100AA300400AD0E0D0E0D0E0020A26A3A3A3D0E01E
:100AB300227009080808226016181818C6C333C61E
:100AC30008C633C608C633C608C633C6D5E0EA220D
:100AD300C09FF59FE473D09F22D083D082C09FE450
:100AE30093C0E0740193C0E0740293F59F22C0E0C9
:100AF300C0D0E8C0E0A8A8D2AFC2C7752300E8A25F
:100B0300E792AFD0E0F8D0D0D0E0322521F58210C3
:100B1300AF08F521400C15228008F521400215226B
:100B2300D2AF8522832200C0D0252110AF08F52142
:100B3300500C05228008F52150020522D2AFD0D0F7
:100B4300227404800A74038006740280027401C054
:100B5300E0F404120B0ED0E0120DD522BB0102E724
:100B630022C082C08389828A83BB0003E08002E4BF
:100B730093D083D082226016080808C6C313C61810
:100B8300C613C618C613C618C613C6D5E0EA22256F
:100B930021F8E43522F9222521FAE43522FB222526
:100BA30021FCE43522FD22C3E0C696F608A3E0C685
:100BB30096F608A3E0C696F608A3E0C696F62225A5
:100BC3002110AF08F521400C15228008F5214002C1
:100BD3001522D2AF22C0E0E493A36C7009D0E0D019
:100BE300E0D0E0020A26A3A3D0E022E0667010085A
:100BF300A3E066700A08A3E066700408A3E0662217
:100C0300C3E09608A3E09608A3E09608A3E096A2A3
:100C1300D265D03322E76670100809E766700A08C8
:100C230009E76670040809E76622191919E70947F5
:100C3300097009E727097005E733F4220922C3E0A5
:100C430096F008A3E096F008A3E096F008A3E096D8
:100C5300F022181818E60846087009E626087005F9
:100C6300E633F4220822C3E49396087401939608AA
:100C730074029396087403939622C3E697F60809C1
:100C8300E697F60809E697F60809E697F622E026BE
:100C9300F608A3E036F608A3E036F608A3E036F636
:100CA30022E056F008A3E056F008A3E056F008A3AC
:100CB300E056F022700422600D18C6C333C608C67E
:100CC30033C6D5E0F41822E657F60809E657F608C6
:100CD30009E657F60809E657F622E056F608A3E0B8
:100CE30056F608A3E056F608A3E056F622E627F6E2
:100CF3000809E637F60809E637F60809E637F62263
:100D0300E026F008A3E036F008A3E036F008A3E0FD
:100D130036F022E647F60809E647F60809E647F6FD
:100D23000809E647F622E4C396F608E496F608E4D3
:100D330096F608E496F622600D08C6A2E713C618D5
:100D4300C613C6D5E0F322C6F4C608C6F4C608C661
:100D5300F4C608C6F4C622C3E7960809E79608094D
:100D6300E7960809E79622C3E09608A3E09608A34E
:100D7300E09608A3E0962275D00075813F752101A6
:100D83007522030002063AE6084608C313460833F1
:100D93006002E633F422E7094709C31347093360C6
:100DA30002E733F422600C08C6C313C618C613C681
:100DB300D5E0F422E6F008A3E6F008A3E6F008A3E2
:100DC300E6F022E0F608A3E0F608A3E0F608A3E0C5
:100DD300F622CAC0E0E6F0A308DAFAD0E0FA22E08D
:100DE300FAA3E0FBA3E0FCA3E0FD22EAF0A3EBF00F
:100DF300A3ECF0A3EDF022E0F8A3E0F9A3E0FAA35B
:100E0300E0FB22E8F0A3E9F0A3EAF0A3EBF022E58C
:100E1300C754F84401F5C77901222521F582E43549
:100E230022F58322E72719471947194722E626188F
:100E3300461846184622C2AF75D69F0200002212FA
:100E43000ADC5DE202120ADCA3E202120ADC46E3D8
:100E530002120ADCF2E302120ADC4BE702120ADC9A
:100E6300C9E902120ADC75EA02120ADCA5EA0212D7
:100E73000ADC0AEB02120ADC9EEB02120ADC51ECDA
:100E830002120ADCA2EC02120ADCE6EC02120ADC11
:100E930080ED02120ADCEDED02120ADC1CEE0212F6
:100EA3000ADC22EF02120ADC46EF02120ADC9AEF96
:100EB30002120ADC6EF002120ADC99F202120ADC58
:100EC30047F302120ADCBCF502120ADC41F60212F5
:100ED3000ADCC1F802120ADC05F902120ADC5EFA26
:100EE30002120ADC71FA02120ADCB6FA02120ADCF6
:100EF300B6DA04120ADCF5DA04120ADC60D703124C
:100F03000ADCDCD703120ADC0FD803120ADC3DD853
:100F130003120ADC7BD803120ADCB8DA03120ADCF8
:100F2300D7DA03120ADC1CDB03120ADCB2DB03127E
:100F33000ADCFEDB03120ADC92DC03120ADC6BDD43
:100F430003120ADCC7DD03120ADC25DE03120ADC06
:100F530098DE03120ADCDCDE03120ADC34DF031240
:100F63000ADC56DF03120ADCE6DF03120ADC77E051
:100F730003120ADCC3E003120ADCEFE003120ADC0B
:100F830030E103120ADCC6E203120ADCB2E3031205
:100F93000ADC8DE403120ADCEED404120ADCF1D479
:100FA30004120ADC4FD504120ADCA3D504120ADCAE
:100FB300C5D504120ADCDBD604120ADCECD6041213
:100FC3000ADC8AD704120ADC95D704120ADCAFD7ED
:100FD30004120ADCF47F00120ADCD7FF01120ADCD8
:100FE300BED704120ADCCED704120ADCE3D70412FC
:100FF3000ADC97D804120ADCE9D204120ADC6DD3A6
:1010030004120ADCD5D304120ADC42CF04120ADC30
:101013006ACF04120ADC8DCF04120ADCE5CF041276
:101023000ADC2FD004120ADC5AD004120ADC71D075
:1010330004120ADC15B304120ADC23B304120ADC1B
:101043009CB304120ADC75B404120ADC38B6041229
:101053000ADC7DB604120ADCA2B604120ADCF87FAD
:1010630000120ADC3DC704120ADC75C704120ADC4D
:10107300C3C804120ADC47C904120ADCEAFF0112DE
:101083000ADCEDFF01120ADCF9FF01120ADC5DA0A4
:1010930004120ADC89A004120ADCF3A204120ADC9B
:1010A30033A304120ADC6FA304120ADC83A3041221
:1010B3000ADC9CA304120ADC8EA404120ADC41A5F8
:1010C30004120ADC55A504120ADC2FCB04120ADC35
:1010D30053CB04120ADC6CCB04120ADCAACB041235
:1010E3000ADCDACB04120ADC07CC04120ADC11CCCA
:1010F30004120ADC77CC04120ADC7ACC04120ADC70
:1011030084CC04120ADC91CC04120ADC03C004125E
:101113000ADC23C004120ADC62C004120ADC80C0A9
:1011230004120ADC9BC004120ADC01C104120ADCAB
:101133000DC104120ADC6AC104120ADC79C104126B
:101143000ADC9DC104120ADC5EC204120ADC6BC213
:1011530004120ADC7CC204120ADC3FDA04120ADC41
:1011630087DA04120ADCB3DA04120ADCABA5041230
:101173000ADC05A704120ADC13A704120ADC26A75B
:1011830004120ADC3BA704120ADC50A704120ADC8F
:1011930063A704120ADCDFA704120ADC44A80412C2
:1011A3000ADCCCA804120ADC44A904120ADC1DAA36
:1011B30004120ADC2DAA04120ADC3CAA04120ADC7B
:1011C300A4D804120ADCC8D804120ADCF0D804122A
:1011D3000ADC18D904120ADCAAC204120ADCD1C23E
:1011E30004120ADCEFC204120ADC5EC304120ADC36
:1011F30030BD04120ADC49BD04120ADC55BD0412D9
:101203000ADC69BD04120ADC87BD04120ADC91BD45
:1012130004120ADC9BBD04120ADCAEBD04120ADC14
:1012230034BE04120ADCA9BE04120ADCD8BE0412BE
:101233000ADC26BF04120ADC75BF04120ADC90BF65
:1012430004120ADC9ABF04120ADCABBF04120ADCE4
:10125300EEBF04120ADC2BDB04120ADC76DB041279
:101263000ADC2B8A04120ADC578A04120ADC748A09
:1012730004120ADC878A04120ADCA28A04120ADC3A
:10128300FC8A04120ADC2A8B04120ADC3A8F041249
:101293000ADC989004120ADCCA9004120ADC2D912D
:1012A30004120ADC999204120ADCC19204120ADCC9
:1012B300D69204120ADCE69204120ADC2693041284
:1012C3000ADC689304120ADC789304120ADCB9D1AD
:1012D30004120ADCD3D104120ADCFBD104120ADCA7
:1012E30014D204120ADC38D204120ADC56D20412D5
:1012F3000ADC6DD204120ADC9BD204120ADCB6D2D9
:1013030004120ADC217F00120ADC657F00120ADC6A
:10131300B5B604120ADCC5B604120ADCCAB7041255
:101323000ADCFCB704120ADC2CB804120ADC4FB83E
:1013330004120ADC66B804120ADCA0B804120ADC40
:1013430005B904120ADC47B904120ADC8EB9041287
:101353000ADCBBB904120ADCE6B904120ADC9BCC32
:1013630004120ADCADCC04120ADCC1CD04120ADC7F
:10137300C4CD04120ADCEDD504120ADC23D6041210
:101383000ADC3BD604120ADC7DD604120ADC8DD6B5
:1013930004120ADCD1D604120ADCA89304120ADC74
:1013A300EB9304120ADC509404120ADC6F940412C7
:1013B3000ADC119504120ADC1A9504120ADC6B95F7
:1013C30004120ADC949504120ADCA19504120ADCC7
:1013D300139604120ADCA19604120ADCE6960412A0
:1013E3000ADC1F9704120ADC849704120ADCAD9707
:1013F30004120ADC249804120ADC739804120ADC2F
:10140300B09804120ADCE59804120ADCF798041277
:101413000ADC099904120ADC289904120ADC3199BE
:1014230004120ADCF29904120ADC359A04120ADC6B
:10143300739A04120ADCF1CD04120ADC31CF0412D0
:101443000ADC82DB04120ADCFFC404120ADC35C5A1
:1014530004120ADC7DC504120ADCD6C604120ADCB7
:1014630045C303120ADC6BC403120ADCA7C40312CC
:101473000ADC65C603120ADC93C603120ADCFDC844
:1014830003120ADC3DC903120ADCDFCA03120ADCB9
:1014930075CB03120ADCCFCB03120ADC5FCC031239
:1014A3000ADCA3CC03120ADCE5CC03120ADC4ACE25
:1014B30003120ADCCACF03120ADC0BD203120ADCC2
:1014C30039D203120ADC65D203120ADC6ED203128C
:1014D3000ADCCBD203120ADC64D303120ADC7BD608
:1014E30003120ADC01D703120ADC34FF01120ADCFF
:1014F3004CFF01120ADC56FF01120ADCACFF011299
:101503000ADC6DAA04120ADC83AA04120ADC24ABE7
:1015130004120ADC63AB04120ADC80AB04120ADC9B
:10152300B1AB04120ADCFEAB04120ADC32AC0412C7
:101533000ADC6DAC04120ADC6AAE04120ADCD0AE1B
:1015430004120ADCEED304120ADC4DD404120ADCC2
:101553008BD404120ADCCCD404120ADCB9A502121F
:101563000ADCC5A502120ADC27A602120ADC31A690
:1015730002120ADCBEA602120ADCFAA602120ADC76
:10158300F6A702120ADC54A802120ADCF4A802121B
:101593000ADC74A902120ADC43AB02120ADC85AD31
:1015A30002120ADCCCAE02120ADC09B102120ADC16
:1015B30071B202120ADC1DB302120ADC0CB8021269
:1015C3000ADC02B902120ADC9AB902120ADCBFB9B8
:1015D30002120ADC57BA02120ADC75BA02120ADCDA
:1015E300ECBA02120ADC0BBB02120ADC38BB021291
:1015F3000ADCD0BC02120ADCF1BC02120ADC97BD81
:1016030002120ADCDEBD02120ADC52BE02120ADC3E
:10161300E0BE02120ADC3DBF02120ADCB6BF0212B0
:101623000ADC38C102120ADC9CC302120ADC25C49C
:1016330002120ADC53C402120ADC207700120ADC0D
:10164300117800120ADCEF7800120ADC2A7A001201
:101653000ADC847C00120ADCFF7C00120ADCEE7DCB
:1016630000120ADC6E7E00120ADC87D004120ADC48
:1016730074D104120ADC9F9A04120ADC2C9B041214
:101683000ADCA59B04120ADC409C04120ADC619C60
:1016930004120ADC359D04120ADCAF9E04120ADC34
:1016A30014AE03120ADC43AE03120ADCBBAE031210
:1016B3000ADCCAAF03120ADC26B003120ADC93B1B8
:1016C30003120ADCAFB103120ADC01B203120ADC13
:1016D30044B203120ADC57B203120ADCAFB203129C
:1016E3000ADC71B303120ADCEDB303120ADC24B47F
:1016F30003120ADC5CB403120ADCEEB503120ADC43
:10170300CDB603120ADC1BB803120ADCFEB80312BF
:101713000ADC8AB903120ADCCAB903120ADCE9B982
:1017230003120ADC34BA03120ADC54BA03120ADCC9
:10173300EDBA03120ADC73BB03120ADCCEBB03123D
:101743000ADC0EBC03120ADCA4BE03120ADCBDBF12
:1017530003120ADC03C003120ADCF8C003120ADC1A
:1017630020C103120ADC23C103120ADC2DC10312B8
:101773000ADC49C103120ADCC3C103120ADCFCC13F
:1017830003120ADC28C203120ADC4FC203120ADC6A
:1017930073C203120ADCE4C203120ADCF7C20312A7
:1017A3000ADC26C303120ADCC0D904120ADCCCD932
:1017B30004120ADC0ADA04120ADCF17F00120ADCE2
:1017C300E59703120ADC089803120ADC5599031201
:1017D3000ADC9E9903120ADC0A9A03120ADC689A4D
:1017E30003120ADC6B9A03120ADCBC9A03120ADCAA
:1017F300319B03120ADCB69B03120ADCB99B03126A
:101803000ADC3A9C03120ADC7B9C03120ADC67A005
:1018130003120ADC11A203120ADC61A203120ADC1E
:10182300E8A503120ADC1BA703120ADC95A803121E
:101833000ADC32A903120ADC1DAA03120ADC72AC09
:1018430003120ADCCBEE01120ADC75EF01120ADC8B
:10185300E0EF01120ADCFBEF01120ADC80F0011257
:101863000ADCDAF001120ADC21F101120ADC88F148
:1018730001120ADC07F301120ADC36F401120ADC56
:10188300BEF401120ADC6E8304120ADC74F701123F
:101893000ADC18F801120ADCE9F801120ADCA4FADE
:1018A30001120ADC3CFC01120ADCCFFC01120ADC47
:1018B300F5FD01120ADC82C602120ADCE5C6021239
:1018C3000ADC2DC702120ADC71C702120ADCCCC77C
:1018D30002120ADC29C802120ADC64C802120ADCFA
:1018E300E6C802120ADC40C902120ADCBECA0212AE
:1018F3000ADC3ECB02120ADC28E202120ADCB3CB7A
:1019030002120ADCD4CB02120ADC2ECC02120ADC4D
:10191300AACE02120ADCC9CE02120ADCB9CF021225
:101923000ADCECD002120ADC6BD102120ADCA7D16A
:1019330002120ADC16D202120ADCCBD202120ADC31
:10194300A3D402120ADCAAD502120ADC22D702129D
:101953000ADC18D902120ADC8EDB02120ADC68DD0B
:1019630002120ADC29DE02120ADCA1DE02120ADC00
:10197300B8DE02120ADCAFDF02120ADCA3E00212B5
:101983000ADC12E102120ADC3EBA04120ADC95BB3D
:1019930004120ADC54BC04120ADCBCBC04120ADCC8
:1019A300B5FC02120ADCD0FC02120ADC14FD02129E
:1019B3000ADC3AFD02120ADC61FD02120ADC79FD3F
:1019C30002120ADC1BFE02120ADC30FE02120ADCDF
:1019D30053FF02120ADC5CFF02120ADC65FF0212EB
:1019E3000ADC6EFF02120ADC78FF02120ADC68FBD3
:1019F30003120ADC74FF03120ADC79FF03120ADC08
:101A03007BFF03120ADCBCC904120ADCCDDB04121F
:101A13000ADCDDAE04120ADCD37F00120ADC3DD9F6
:101A230004120ADC67D904120ADC008002120ADC01
:101A3300338002120ADC9F8002120ADC3A8102120E
:101A43000ADCD78102120ADC1C8202120ADC3E8203
:101A530002120ADC578202120ADC7D8202120ADCBD
:101A63009F8202120ADCDD8202120ADC2183021247
:101A73000ADC438302120ADCA58302120ADC6C84AB
:101A830002120ADC238502120ADC958502120ADCA3
:101A9300608602120ADCB38602120ADC198702127C
:101AA3000ADC538702120ADCA58702120ADC1388B8
:101AB30002120ADC7E8802120ADC818802120ADC26
:101AC300028902120ADC998902120ADC198A0212BB
:101AD3000ADC388A02120ADC9C8B02120ADCA98B0C
:101AE30002120ADCB58C02120ADCC28C02120ADC76
:101AF300CB8C02120ADCA38E02120ADCBD8F021207
:101B03000ADC369002120ADCA89002120ADCCA90A0
:101B130002120ADC5E9102120ADC329302120ADC20
:101B2300099702120ADC1D9702120ADC2D97021292
:101B33000ADC379702120ADC409702120ADC499743
:101B430002120ADC539702120ADC809702120ADCA3
:101B5300A99702120ADCB49702120ADCD897021280
:101B63000ADCFC9702120ADC669802120ADCAC98C3
:101B730002120ADCC99802120ADC469902120ADC34
:101B83007D9902120ADCBC9902120ADC099A02123C
:101B93000ADC8F9A02120ADC5D9C02120ADCE09CCA
:101BA30002120ADCC49D02120ADC2BA002120ADC18
:101BB30084A002120ADCCEA002120ADC29A20212BD
:101BC3000ADC5EA202120ADCB0A202120ADC65A3DE
:101BD30002120ADC14A402120ADC51A402120ADC67
:101BE300E6A402120ADC52A502120ADC632A0012DE
:101BF3000ADC952A00120ADCC32A00120ADC992C9B
:101C030000120ADC792D00120ADCD12D00120ADC45
:101C13000C2F00120ADC582F00120ADC813200124A
:101C23000ADC743500120ADCC43600120ADC5A37A7
:101C330000120ADC663700120ADC983700120ADC4D
:101C43001B3900120ADCCC3A00120ADC603B00129A
:101C53000ADCA33B00120ADC213C00120ADC3E3CF6
:101C630000120ADC6E3C00120ADCA33C00120ADC00
:101C7300733D00120ADC1C3E00120ADCA240001273
:101C83000ADCC24100120ADCAD4200120ADC2F4317
:101C930000120ADC634700120ADCA04700120ADCC8
:101CA300F84700120ADC2B4800120ADC95480012A0
:101CB3000ADCCB4800120ADC564900120ADCAE49A2
:101CC30000120ADC854A00120ADC3E4B00120ADCD1
:101CD300D94B00120ADCE14E00120ADCFD4F001260
:101CE3000ADCA05300120ADC945400120ADC975455
:101CF30000120ADCC65400120ADCCC5600120ADCBD
:101D0300A55700120ADCE85700120ADC3E590012FC
:101D13000ADC7D5900120ADC065A00120ADC3A5A20
:101D230000120ADCFF5A00120ADC175D00120ADCFB
:101D3300885D00120ADCC85D00120ADC565E0012E0
:101D43000ADC785F00120ADC3A6000120ADC4162A6
:101D530000120ADC596200120ADC6D6200120ADC0E
:101D6300A56200120ADCD36200120ADC526400127C
:101D73000ADC776500120ADCD46500120ADC866689
:101D830000120ADCAD6600120ADC746700120ADC7A
:101D93000C6800120ADC326A00120ADC676A00125D
:101DA3000ADCCA6A00120ADCF96B00120ADCA16CB5
:101DB30000120ADCD26C00120ADCEA6C00120ADCA4
:101DC300796D00120ADC2D7000120ADC0572001214
:101DD3000ADC217200120ADC3D7200120ADC0B736A
:101DE30000120ADCFE7600120ADCE98401120ADC26
:101DF3001B8501120ADC0A8901120ADC56890112C9
:101E03000ADC9C8901120ADC3E8A01120ADC9A8AE6
:101E130001120ADCDF8A01120ADC268C01120ADCB9
:101E23003A8D01120ADC299101120ADCAD910112EB
:101E33000ADCBA9201120ADC169301120ADC069537
:101E430001120ADC7B9501120ADC859501120ADC7A
:101E5300929501120ADCBD9501120ADCA4960112C7
:101E63000ADC4E9701120ADCCC9701120ADCEC97CC
:101E730001120ADC159801120ADC379801120ADCF8
:101E8300979A01120ADC5D9B01120ADCA29B0112E4
:101E93000ADC1F9C01120ADCD09C01120ADC029DA1
:101EA30001120ADC489D01120ADC849D01120ADC3E
:101EB300D49D01120ADC289E01120ADC7E9E0112C7
:101EC3000ADCCA9E01120ADC379F01120ADCB29FA8
:101ED30001120ADC7DA101120ADC7DA201120ADCD7
:101EE300A2A301120ADCE1A601120ADCF4A9011281
:101EF3000ADCB1AA01120ADCF5AA01120ADCA5ACBC
:101F030001120ADCB9AC01120ADCC3AC01120ADC0F
:101F1300CDAC01120ADCD9AC01120ADCF5AC01121A
:101F23000ADCA0AD01120ADCDFAD01120ADCE9AD67
:101F330001120ADCF3AD01120ADC63AE01120ADC02
:101F4300AEAE01120ADCC3AF01120ADC1FB00112EC
:101F53000ADCA0B001120ADC5FB101120ADC68B22C
:101F630001120ADC9CB301120ADC8AB401120ADCF6
:101F7300A2B401120ADCFDB401120ADC1BB5011282
:101F83000ADC63B501120ADC8AB501120ADC25B644
:101F930001120ADCEBB601120ADC7DB701120ADC7E
:101FA300F7B701120ADC11B901120ADCBEB901123A
:101FB3000ADCE6BA01120ADC36BB01120ADC9ABB60
:101FC30001120ADCFCBB01120ADC2ABC01120ADC86
:101FD3004EBC01120ADC83BC01120ADCB4BC011240
:101FE3000ADCE7BC01120ADC07BD01120ADC6FBD83
:101FF30001120ADC63BE01120ADCBEBE01120ADC56
:10200300E7BE01120ADC6FBF01120ADCF2BF011244
:102013000ADC1DC001120ADC02C101120ADC67E5F9
:1020230003120ADC9FE503120ADCC0E503120ADC93
:1020330002E603120ADC64E603120ADC6EE603120C
:102043000ADC7EE603120ADCB9E603120ADC99EA2B
:1020530003120ADC86EC03120ADC6CEE03120ADCC0
:1020630003EF03120ADCA5EF03120ADC04C3011217
:102073000ADC82C301120ADCDEC301120ADC29C4B2
:1020830001120ADC44C401120ADC6FC401120ADC27
:102093008CC401120ADC98C401120ADC2FC6011297
:1020A3000ADC48C601120ADCCDC601120ADCE0C60E
:1020B30001120ADCFFC601120ADCA3C701120ADC03
:1020C30024C901120ADCD7CA01120ADC6DCB011242
:1020D3000ADC70CB01120ADCE0CB01120ADCFECB76
:1020E30001120ADC95CC01120ADCDDCC01120ADCF8
:1020F300E0CC01120ADCA6CD01120ADC13CE0112D8
:102103000ADC39CE01120ADCC4CE01120ADCE2CEAB
:1021130001120ADC28CF01120ADCDCCF01120ADC2F
:1021230026D001120ADC55D001120ADCB2D001120A
:102133000ADCE7D001120ADC13D101120ADC21D137
:1021430001120ADC6ED101120ADCDED101120ADCB3
:1021530027D201120ADC73D201120ADC9FD20112C8
:102163000ADCAAD201120ADCC8D201120ADCB3D3F8
:1021730001120ADCBDD301120ADCF8D301120ADC16
:1021830008D401120ADC11D401120ADC65D401124D
:102193000ADC79D401120ADCA8D501120ADCBFD506
:1021A30001120ADCD4D501120ADC62D601120ADC60
:1021B300A7D601120ADC33D701120ADC3ED701127B
:1021C3000ADC80D801120ADC9BD801120ADCE7D8AA
:1021D30001120ADC56D901120ADC8FD901120ADC7A
:1021E300A9D901120ADCEBD901120ADCBBDC01120A
:1021F3000ADC68DD01120ADCD5DD01120ADC15E018
:1022030001120ADC2DE001120ADC30E001120ADCC3
:102213003CE001120ADC50E001120ADC58E0011232
:102223000ADC8BE001120ADC8DE101120ADC14E204
:1022330001120ADC84E201120ADC06E301120ADC61
:10224300C7E301120ADCE6E301120ADC87E40112A8
:102253000ADCE4E401120ADCE7E401120ADC14E517
:1022630001120ADC29E501120ADC9DE501120ADCF0
:10227300ECE601120ADCF2E701120ADC7DE8011246
:102283000ADC98E901120ADC60EA01120ADC91EA2D
:1022930001120ADCB4EA01120ADCBDEA01120ADC0B
:1022A300ECEA01120ADC7CEB01120ADC32EC0112CB
:1022B3000ADCA7EC01120ADC4EED01120ADCC3EDC5
:1022C30001120ADCFAED01120ADC38EE01120ADC13
:1022D3006EEE01120ADC5E8104120ADC6C800412C9
:1022E3000ADC0A8004120ADCD19703120ADCC797BE
:1022F30003120ADC5C9703120ADC8D9503120ADCD5
:102303004B9503120ADC4F9403120ADC2394031245
:102313000ADCF5E102120ADCE0E102120ADCDA93DC
:1023230003120ADC1B9303120ADCB5E102120ADC76
:10233300E58904120ADC079003120ADCC88D031234
:102343000ADC958D03120ADC3C8D03120ADCCF8C68
:1023530003120ADC8E8C03120ADCC78B03120ADC1D
:10236300618B03120ADC008B03120ADCA08A0312BE
:102373000ADC778903120ADC0B8903120ADC6388FF
:1023830003120ADC5E8803120ADC528803120ADC99
:10239300858403120ADC5F8403120ADCB189041208
:1023A3000ADC5A8904120ADCC88704120ADC1A8779
:1023B30004120ADC7D8604120ADC738604120ADC2A
:1023C3000C8604120ADCFD8303120ADC9E830312CB
:1023D3000ADC5F8303120ADC4C8303120ADCF885F0
:1023E30004120ADC418303120ADC108303120ADCA1
:1023F300FD8003120ADC708003120ADC5585041287
:102403000ADC2C8003120ADC99CB02120ADC00805E
:1024130003120ADC02FB03120ADCD5FA03120ADCFC
:10242300A2FA03120ADC7AFA03120ADC1BFA031279
:102433000ADCFBF903120ADCC6F903120ADC72F6A2
:1024430003120ADC5AF403120ADC44F203120ADC14
:10245300C4F103120ADC70F103120ADC24F1031243
:102463000ADC558404120ADC7CF003120ADCC7F68A
:102473000100000080FB8F00010078188700010035
:102483007618350004003F18250002004318260083
:1024930002004518270002004718280001005118C0
:1024A30029000100521884000400EB158600010086
:1024B30009182A00010053182B00010054182C009E
:1024C300010058182D000800F7152E0001005918B7
:1024D3002F0001005A18300001005B183100010081
:1024E3005C1832000100FF153300010000163400B0
:1024F30001005D18360001000116380001005E1866
:1025030039000100571883000200741863000100AA
:102513000D166400010055186500010056186D0082
:1025230001000E1671000800EF1566000100731814
:1025330043000100641844000200651845000100CF
:10254300671846000200681847000800051648008F
:1025530001006A184B0001006B1804000100771892
:10256300A10001007B18370001007A1888000100E0
:1025730079183C00010002163D0001005F18490074
:1025830002006C18670001000F164D0002006E1860
:102593004E00010070184F00020071183E00010048
:1025A3006318510001000316520001006118530023
:1025B300010062185400010004160000000000002E
:1025C300000136360101000102010001030100018F
:1025D3000401060605020000070100340801000F8C
:1025E300090401010D0100FF0E080000170200009D
:1025F300190100FF1A0100011B0100FE1C01000864
:102603001D0200001F010001200100012102000042
:102613002301000F24020000260100012701000806
:10262300280200FF2A0100072B0102402C010000B1
:102633002D0100012E0100012F0100FF30010B1DB0
:10264300310800003A0100083B01000F3C01000182
:102653003D0100FF3E040000420400004604000068
:102663004A0400004E040000520400005604000017
:102673005A04000001037103010301030103010371
:1026830001032203020301031003000300030003F9
:1026930000030003000300034203000324030603B3
:1026A3000003000304031203250323032503230369
:1026B30004030403000300030003440300030003B3
:1026C300230300036503210035038103000305038E
:1026D3000003000300030003250323030302710225
:1026E3003001600211027002010202020202800242
:1026F300100261023A004100630273027202620235
:102703004302000213023800000200020402120214
:102713000002000200020002040204023700370034
:102723003C0244020002390000020002650200027A
:1027330035028102000205028202830200020101C6
:1027430071010101010111010101310101010101C6
:102753008001100161013B001400630173017201E8
:10276300620143010001130106013D01350004012B
:102773001201000100010001000104010401330101
:1027830033013C01440132013600000100016501BF
:10279300000135008101000105018201830100016F
:1027A300030071003001600011007000310220034A
:1027B30050048000100061000000140063007300E7
:1027C30072006200430000001300060000000000D6
:1027D30004001200000000000000000004000400D8
:1027E300370037003C0244000000000000000000F6
:1027F3006500000035008100000005000000830033
:102803000000000001002001E88400000200200114
:10281300E384000003002001E484000000002001A1
:10282300E784000004004201FD830000050042012B
:10283300D383000007003001E5840000FDFF210180
:10284300DF84000006004201A18300000040200154
:10285300E884010020002001261801002100200146
:10286300271836000100060000000F0000000000DA
:10287300000000000000000003FFFF00000403FF4E
:10288300FF0000FFFF0FF4010005C4040320000153
:1028930000000B000000000000000003010F000017
:1028A3000000000000000000000000000000000025
:1028B3000000000000000000000000000000000015
:1028C300161634161C167A150000000000000000CE
:1028D300000000000000000022167A15000000002E
:1028E30028167A1500000000000000002E167A1545
:1028F30000000000000000000000000000000000D5
:1029030000000000000000000000000000000000C4
:1029130000000000000000000000000000006E182E
:1029230001006E180200E4170280DE170300EA17A5
:102933000400F0170480F6170500FC1706000818BA
:1029430031001A183300201834002618FFFF000046
:10295300030003000400080010001F003E007B007A
:10296300F600EC01D703AF075D0FB91E713D000000
:1029730007ECFDFDFDECDCDCCCBCACAC9C9C8C7CA6
:102983007C6C6C5C5C5C4C4C3C3C2C2C1C1C03EA4F
:10299300F5E5D5D5C5B5A595958585757565655554
:1029A300554545353525251515050A621E022C1E8C
:1029B30005381E07321E0C141E0D201EFF000000DA
:1029C300160F00000B150B020002220F3300000E3E
:1029D3000FD0D1D2D3D4D5D6D7D8D9DADBDCDDDE4C
:1029E300DF5A6967426565416C6C69616E63653086
:1029F30039303016181920231A1C1E3000034D4C91
:102A03004651181A2505020001191618161618231F
:102A13000300303017181921301B1D1F30003C40B4
:102A2300423A3F3F392F47300C0E020B040B0A0783
:102A330008000F020402010101010902E80300007A
:102A430000BE040A01000E000300E80304090C039E
:102A53001004030A0C041E0828020C0508151E1492
:102A6300C082C083120EFC9016387404F0A3741C49
:102A7300F090163A740AF0A3741CF090163C74108C
:102A8300F0A3741CF090163E7416F0A3741CF002AD
:102A9300579E74F71205CE90162CE4F0E990162B8E
:102AA300F07C057D167A2D7B1612155690186AE078
:102AB300901635F090163674EFF0A37415023A2B86
:102AC30074F01205CEEAFEEBFF54807003022C343F
:102AD30090162B123AC07003022C2DEA241B1253BA
:102AE3002B707CEA241F12532B64137002A3E07033
:102AF3006E8A828B83122C829016461248BD750A09
:102B030000750B00800D12390112699D12145AAA27
:102B13000EAB0FEA4B60488A828B83E0650C70042E
:102B2300A3E0650D702C8A828B83A3A3A3A3E0F596
:102B33000EA3E0F50FE50A450B8A828B83A3A3A3BB
:102B4300A360C3123C03850A82850B83A3A3A3A3BB
:102B530080B78A0A8B0B8A828B831248B980B4E5CB
:102B630008242A12532BFCE5082402F8E43509F95A
:102B7300E8FAE9FB901646122D69A3A3E0640270FC
:102B83003C8A828B831248BD800B88828983A3A3EE
:102B9300A3A3123C03E849601F88828983E06A701B
:102BA30003A3E06B70E488828983A3A3E06C70DAEB
:102BB30090187012565B806BECF9121C40850882EA
:102BC300850983E06401704FE5082418122C6B1209
:102BD3000B50125F45120980E5082412122C6B1268
:102BE3000B50E508123AB4120B4CE508240B125FA4
:102BF30049120984E5082417123A51E5082402FC16
:102C0300E43509FDE5082419FAE43509FB12244AE1
:102C1300740A120B29800CE064027007AA08AB093E
:102C2300121D1EAA08AB091213BEEEFAEF648080D0
:102C33002DEA5402600C9018837401F0EA6402FADE
:102C43008023EA5408601A121C3AEA4B700B901660
:102C530048125E207A08122C78EE6408FAEFFB80A3
:102C6300047A007B000265CFF582E43509F583E041
:102C7300F50A780A22FB90162BE0F912152622A3F7
:102C8300A3E0F50CA3E0F50D227B0090162BE0F9F1
:102C930012151A74042274F41205CE8A088B098A59
:102CA300828B83A3A3A31246B5123A5C38F583E063
:102CB3002409FA1265677003022D5C8A828B837480
:102CC3000212472A850882850983122D69E8F0A339
:102CD300E91261E18A828B83A3A3A3A3A3A3A3A382
:102CE300F0E5082403F8E43509122D5E123A5C3A44
:102CF300F583E08E828B83A3A3A3A3F0EE2409FACA
:102D0300E43FFB8E828F83A3A312590DF583888240
:102D1300E0A2E58E828F83A3A3A3A3A3500474012F
:102D23008001E4F0E5082403F58289831248BDEAB3
:102D3300124E3E3BF58312652E120B48123A5B3B53
:102D43001259FF8E828F83A3A31276DD120B29EE15
:102D5300FAEFFB90162B1265B48016F98882F5837F
:102D6300E0FAA3E0CA22124A5AA3A3227402120B66
:102D7300297F040208B574F21205CE8A088B09EC88
:102D8300FAEDFB740E120E1DE0FC120F328A0C8B4F
:102D93000DAE0CAF0DEA4F6030AC08AD09120F2039
:102DA300E96026AC08AD09EEFAEFFB120F26E970D5
:102DB300148E828F83123BF0FAEFFB120F1AAA08CC
:102DC300AB09120F4A7900800279B40249A974F061
:102DD3001205CE74F6120BC2EAFEEBFF8C088D09C6
:102DE300750FB3852182852283E4F0750E0080027E
:102DF300050E902A62E493F8E50EC3984003022E71
:102E0300F8AA0E7B00120F6E8A0A8B0BEA4B60E066
:102E13008A828B83A3A3122EFF28F0F8C3EE98EFC8
:102E2300940050CC7C157D007900AA08AB091213DD
:102E3300A6850A82850B83A3A3A3A31269DAE0F80C
:102E4300EEC3982925E0F8E433F9E50A28F582E58D
:102E53000B39F583A3A3A3A3A3A3123A66A3125426
:102E6300828A0C8B0DAC0CAD0DAA08AB091215565A
:102E7300850A82850B83A3E06401700A125F45749F
:102E830001123A7880447401120BA2850A82850BE1
:102E9300831248BB120F56E9603D7409120E1DE000
:102EA300C0E0125F45D0E0F07409120E1DE0640328
:102EB30070137401120BA2E508240BFAE43509FB25
:102EC30012155680127401120E1D123C03E50812EE
:102ED3005468350912699B850A82850B83125F51F9
:102EE300123A78A3A3E0C0E0E5082414125F49D0A6
:102EF300E0F0750F00A90F740A0265CCA3A3A3E049
:102F0300F8852182852283E02274F71205CEE9FE3B
:102F13008A828B83A3A3A3A3A3A3E0540860338A69
:102F2300828B83A3A3A3A3A3A3E0540260218A8279
:102F33008B83A3A3A3A3A3A3A3A3A3E06406600F0C
:102F430074E96E600A74CD6E600574F06E700312DE
:102F53001C220242A874F01205CE74EF120BC27445
:102F63000F120E1D125D047408120E1DE9F0ECFE23
:102F7300EDFF7405120E1D124070124294A3E0F986
:102F8300120F3E7406120E1D125D047406120E1DFE
:102F9300124ECF7003023213123AA0E0FA740612F3
:102FA3000E1DE0F9121B62123273F8A3E0F9E8492F
:102FB3007003023213EE2403F50AE43FF50BEE240B
:102FC30006F508E43FF5097C00850882F58312487D
:102FD300BD850A82850B83E0F9120F447403120E38
:102FE3001D125D04850A82850B83E0C0E085218282
:102FF30085228312326CD0E0124FE4F98521828559
:103003002283123908124B36122F02FAA3E0CA2484
:1030130007F582E43AF583E8F0A3E4125D0F240692
:10302300F582E438F583E41269A71246A9120B4826
:10303300EE123A5C3F1259FF7403120E1D1246B58D
:1030430024091276D7120B297429120E1D1269D482
:10305300122D63124FF73A12699B742B120E1DE067
:10306300C0E0852182852283124E96D0E0F074025F
:10307300120E1DE4F07425120E1D7808120DC602FF
:10308300316A7403120E1D1259C78882F5831232F6
:103093005BA3A3A312548DFB120F5C850E82850FD5
:1030A30083A3EAF0A3EBF07403120E1D12326CA398
:1030B30012325B12569CA2E6500F850E82850F8357
:1030C300A3A3A3A3A3E0D2E1F07405120E1DE07045
:1030D3006B850E82850F83A3123C03901686E068EE
:1030E3007003A3E0697055850E82850F83A3A3A3A4
:1030F300123A3B750C00780C120B507808120B44F3
:103103007429120E1DE0F50C780C120B5074271263
:103113000E1D1209849016931209847900741912F2
:103123000E1D12488D121D66740A120B29850E821C
:10313300850F83A3A3A3A3A3E04405F07402120E97
:103143001DE004FC8E828F831248B78E828F83A387
:10315300A3A3E0F9120F447403120E1D125D04744D
:1031630002120E1DE004F07403120E1D124ECF6006
:10317300677402120E1DE0FA7406120E1D123C0350
:10318300C3EA98E49950517402120E1D1235458515
:103193002182852283E028F8A3E039F9E8240FF59A
:1031A3000EE439F50F850E82F583E4F07403120EF5
:1031B3001D123266640160030230857405120E1D10
:1031C30074011265BAF07403120E1D12578E123574
:1031D30068E8F0A3E90230A9852182852283124899
:1031E300BD121B68852182852283120984742612ED
:1031F3000E1DE0FD7425120E1DE0FC740A120E1D57
:10320300E0F9EEFAEFFB121C1C7402120B29804347
:103213008E828F83A3A3A3E0C0E0740C120E1DD093
:10322300E0F0126423E0C0E0740D120E1DD0E0F054
:103233007406120E1D124ECF7009740E120E1D74F9
:10324300B98007740E120E1D7410F07409120B9AD4
:10325300121D6074110265CCE0850E82850F83A375
:10326300A3A322E0124FBCE022E0124FBCA3A3228F
:10327300852182852283EAF0A3EB124ED82274F0D3
:103283001205CE74E1120BC27404120E1DE9F07420
:1032930003120E1DECF07402120E1DEDF08A0E8B5C
:1032A3000F742F120E1D122C84AA0CFB121B5674C2
:1032B30001120E1DE9F0AA0CAB0D121B5C74011276
:1032C3000E1DE07003023540852182852283E48050
:1032D300158E828F83A3A3A3A3A3E0D2E3F085215A
:1032E30082852283E004126512F885218285228378
:1032F300E0C39840030235377401120E1DE07003DA
:10330300023537852182852283123545E50C28F85D
:10331300E50D39F9E8240FFEE439FF8E82F583A326
:10332300A3A3A3A3E0A2E040B5750800750A08753E
:103333000B007402120E1DE060037508207C087DEB
:103343000079007405120B9A1213A68E828F83E004
:10335300603E9016D6E06401701AE508D2E3F508E2
:10336300750B10123555120E1DE8F0A3E9125380A8
:1033730074FF807643080C750A0C8E828F83A31228
:10338300356012699D7405120E1D74FFF0A3805AF7
:103393007404120E1DE06009E508D2E6F508750A0B
:1033A3000A8E828F83A3E064FE7003A3E0F470307F
:1033B3007412120E1D7404125F6FF8741D120E1D29
:1033C300E812472A7412120B9A121A847D007C00A9
:1033D30079007415120E1DAA82AB83121856800B46
:1033E300123555120E1DE8F0A3E9F07407120E1DF5
:1033F300E508F0123A97C0E07409120E1DD0E0F010
:10340300740A120E1D7401F07405120B9A121D2416
:103413007411120E1DE06003023515740D120E1D9A
:10342300124FDF8E828F83A3A3A3A3F0740D120E1A
:103433001D1246F8E50AF0A3E50BF07403120E1D06
:10344300E0C0E0124689D0E012569C60119016D677
:10345300E0C0E0740D120E1D1246D3D0E0F0740DDF
:10346300120E1D123C03850C82850D83A3A3A3A317
:10347300A312354E241C125CFE1269B7123550128A
:10348300564E39126442C0E0124670D0E01265070E
:10349300C0E0740D120E1D1241B6D0E0126208C0D6
:1034A300E0740D120E1D1241ACD0E0F0740D120E3B
:1034B3001D12356012354E242A125CFE850E82855C
:1034C3000F83A3A3A3A3A3A3A3A3E0125CF7123ABE
:1034D30086C0E0124198D0E0F0740D120E1D124820
:1034E300BD850E82850F8312651D2428F582E43B7A
:1034F30012699B123A8F12652E120B481259F8EA81
:10350300125C903B1276DB120B297405120B9A1294
:103513001D2A8E828F83A3A3A3A3A3E0D2E0F0741A
:1035230011120E1DE060030232D47401120E1DE06D
:10353300140232E07900AA0CAB0D121C28741F028E
:1035430065CCE075F007A4F8A9F022A3A31248C143
:10355300E8228E828F83A3123C07740522E0123582
:1035630068A3A3A322F8A3E0F9850E82850F83A3A2
:103573002274F01205CE74E8120BC2E9852182850C
:103583002283F08A0E8B0F8A828B83A3A3A3A3A328
:10359300A3A3A3E0F9121B808A088B09EA4B7003EB
:1035A300023651E50E124E52123AAF123A468521B7
:1035B30082852283E060030236547C04850E828573
:1035C3000F83A3A3A3A3A3A3A3A3E0F9121B86EED4
:1035D3004F607B8E828F83A3A3A3A3123C03740744
:1035E300120E1D125E35123C037409120E1D124792
:1035F3005AC0E07411120E1DD0E01261E6A3A3A31A
:10360300A3A3A3A3123C03740F120E1D12699D748E
:1036130012120E1DE41265C2C8241FF582E438F5A8
:10362300831259C3C413135403FC70027C048E82A7
:103633008F83E0F97808120B4C742059FD744059BC
:10364300F97403120B9A121C1C7402120B290265E3
:10365300CA7C08850E82850F83A3A3A3A3A3A3A378
:10366300A3E0F9121B868B0BEA4B70030235D2EEF3
:103673004F60DB852182852283E0F50C780C120BE9
:1036830050850882850983A3A3A3A3A3A3A3E0F57D
:103693000C780C120B508A828B83A3A3A3E0FB8AC2
:1036A30082850B831271FA8A82850B83E0FA8E82FC
:1036B3008F83A3A3E0F91224507402120B2902355D
:1036C300D674F71205CE74FA120BC2E9FE780179AB
:1036D300017F00800379000F124A39E0FCEFC39C9D
:1036E3005026EF75F007A4FC85F008AD08EA2CFC22
:1036F300EB3DFD124028E0A2E050DA540C60D6E026
:10370300A2E250D3780080CF8A828B83A3A3A3A3A2
:10371300A3A3E0703DE9A2E0400574016E70338A13
:10372300828B83A3A3A3A3A3A37401123A18E0C0BB
:10373300E07403120E1DD0E0124087E0C0E0740471
:10374300120E1DD0E0F07405120E1DE8125962121C
:103753001D6074060242A5C082C0837901121C2831
:1037630002579E74F41205CEEA4B9018836019E455
:10377300F08A088B09F50AF50B7808120B447A02D4
:10378300122C8C120B29800A7401F07A027B00122E
:103793002C79022D7474F01205CE74F3120BC274DB
:1037A30003120E1DE4F0A3F0901646123A4674017C
:1037B300120E1DE4F0A312472F04F0901680E0A22E
:1037C300E3500302388B123A0C7409120E1D120EC9
:1037D300067409120E1D7808120DC6901648780853
:1037E300120BAA7405120E1D7808120DB712390FA9
:1037F3007405120E1D7808120D6A50077A017B00BA
:103803000238FC7405120E1D780C120DC690186F49
:10381300E0F509780C790812055FA80CA90D90183A
:1038230070E0C398E4995003E08001E88521828524
:103833002283F07409120E1D7808120DC6C008C049
:1038430009C00AC00B7405120E1D780C120DC612A6
:10385300390F780C790812055FE4F50AF50BD00FE0
:10386300D00ED00DD00C780C7908120C7D90164830
:10387300780C120DB7801112390112699DEEFAEF1F
:10388300FB12145AAE08AF09EE4F60658E828F8328
:10389300122EFFC398502DEE2403F8E43FF9E0FA0B
:1038A30088828983E0C39AF060237403120E1D1289
:1038B3003D697401120E1DEEF0A3EF125E50FEA3DC
:1038C300E0FF80C48E828F83A3A3A3E4F08E828F54
:1038D300831276947401120E1D124ECF8E828F8343
:1038E300A3A3A3A36091125E29120E1D12390880AF
:1038F300897403120E1D1248BD740D0265CC123C6F
:1039030007901646221259EEA3A3A32290186E1213
:10391300769CE4F50AF50B2274F01205CE8A088B27
:1039230009890A78007900901646123A46FBEE4B55
:10393300601E088E828F83A3A3A3A31248876010FF
:1039430008E87001098E828F83123A42EA4F70E3CE
:103953009018711248BDC3E89AE99B40030239FFEE
:103963007A06123A02A80CA90DEA4970030239FF3C
:103973008A828B83E508F0A3E509123A21E50AF070
:10398300901870124A41123A18A3E4F0A3F090166B
:1039930046124887600D8E828F83A3A3A3A3126967
:1039A3009D801790164612699D901680E0A2E34011
:1039B30009123A0C901648120E06901680E0A2E304
:1039C300503A7A087B0090162BE0F912152CEA4B3B
:1039D3004C4D702890186EE0F508A3E085080CF5AF
:1039E3000DE4F50EF50F780C120B447A087B00906A
:1039F300162BE0F91215207404120B290265CF7BF4
:103A0300001214548A0C8B0D2212153EEAF8EBF9BE
:103A1300ECFAEDFB22123A1C22123A21A322F08A7D
:103A2300828B83A3A322E508F00242A8F08E828F43
:103A330083A3A3A3A3A3A322125339A3A3F022A373
:103A4300A3A3A3E0FEA3E0FF227F050208B5F5824E
:103A5300E43509F583E0F922EA123A60222410F5ED
:103A630082E422123A6EA3A3A3A322123C0B85087D
:103A73008285098322123A7C22F0850A82850B8390
:103A8300A3A322E50E2411123AACE022E50E240E84
:103A9300123AAC22E50E2410123AACE022123AA4F8
:103AA30022EE123A603FF58322F582E4350FF58367
:103AB30022240FF50AE43509F50B780A22E0F912FE
:103AC30013D08A088B09EA4B2274F21205CE890BB4
:103AD3008A088B098A828B831248BD121C4CEA4BDD
:103AE300600479B8806A121C58E9F8902A53E49369
:103AF300F9E8C399400479B280567A15123A02AEB6
:103B03000CAF0DEA4F7004791080458A828B83E4F1
:103B1300F0A3123A21E50BF0750A007808120B485E
:103B23007C127D00EA24031264D9120B2990164CEF
:103B3300124ECF700890164C800C123C0388828979
:103B430083123B5670F4EEF0A3EFF0121C6A790077
:103B53000249A91248C1EA4B8882898322C082C0E4
:103B63008390164C80048C828D831271FBEC4D6024
:103B7300288C828D83A3A3E069600574FF6970E6D6
:103B83008C828D83A3A3A3E06A7003A3E06B70D63A
:103B9300EC2403FAE43DFB80047A007B0002579E89
:103BA30074F71205CEE9FD74FE6D70047C0180028A
:103BB3007C0090164C80096D70027C018882898399
:103BC300124ECF601F88828983A3A3A3E06A700388
:103BD300A3E06B70E7ECA2E088828983A3A3E050A3
:103BE300D6F9800279FE0242A8EEF9800CA3A31253
:103BF300769CEE227402120B297F020208B5F5832C
:103C0300123C0722123C0B22E0F8A3E0F922123CFB
:103C13000B8E828F8322120B297F030208B5C08289
:103C2300C083790090164C800109E0FAA3E08A82F0
:103C3300F583E582458370F102579E74F61205CE33
:103C4300E4F508F5097808120B4C902A53E49375B0
:103C5300F013A4A9F0123D5E1269FB120B29E9FED1
:103C630074096E7003121C64023BEC74F61205CEE9
:103C730074FE120BC2852182852283E4F0A3F0A88F
:103C830021A922880889097808120B4C7508027546
:103C930009007808120B4C12666C120B29023BF7D1
:103CA30074F51205CE74EB120BC285218285228333
:103CB300E4F0A3F090164C80748E828F83A3A3E06C
:103CC300C0E07402120E1DD0E0125380A982AA83B1
:103CD30089088A09750A007808120B487C127D004E
:103CE3007406120E1D1269C0120B297402120B9274
:103CF300880889097808120B4C7508137509007830
:103D030008120B4C7404120E1D124E7275F013A49C
:103D1300F8AAF075F013E9123D5A126674120B29D2
:103D2300852182852283123D698E828F83123A46D2
:103D3300EE4F7085A821A922880889097808120BFB
:103D43004C7508027509007808120B4C12666C1248
:103D53000B297415023C19A42AF9E82402FCE4395E
:103D6300FD7A427B0022E02401F0A3E03400F0223C
:103D730074F41205CE74EB120BC27E007F00A821EF
:103D8300A922880889097808120B4C7508028E0944
:103D93007808120B4C7C007D007A42126A07120BE2
:103DA30029E9706C8E0880567402120B92880A8976
:103DB3000B780A120B4C750A13750B00780A120B59
:103DC3004CE50875F013A4F8AAF075F013E5091291
:103DD3003D5A126A09120B29E9701B7403120E1D56
:103DE300AA82AB837402120E1DE0F9121C46E9701D
:103DF300050EEE70010F0508E5087002050985211F
:103E030082852283123C03C3E50898E5099940980B
:103E1300EEFAEFFB7415022D7174F61205CE8C8247
:103E23008D83A3A3124075F0EA125C963BF583E001
:103E3300C0E0124032D0E0F0EA241DF582E43B12E8
:103E43003C01124016124070F0A3F0EA241FF582E1
:103E5300E43BF583123A46EC1240093DF583EEF05C
:103E6300A3EFF012400F3BF583124040A3A3A3A39B
:103E7300A3A3EEF0A3EF1258F1FE8C828D831240C0
:103E83007F74035EFEC394034003023FFCEE6008AD
:103E930074026E6003023F218C828D83E0540CFE1A
:103EA300740C6E7003023F60E0A2E4400D888289C7
:103EB30083E08C828D83A312409574086E600302A5
:103EC3003F601240207401F08A828B83A3A3A3A3D3
:103ED300A312534670148C828D83E0440C124087E6
:103EE300A3A3124040EEF0A3EFF08C828D83E0A2F7
:103EF300E4402B888212404E124063500109F58240
:103F030012404EA3A3A3A3A3A3F0A3EF12408F8C4D
:103F1300828D83A3A3A3F0E82403F85001098882C8
:103F23008983E0C0E0EC2411F582E43DF583D0E021
:103F330012407F8C828D83E0A2E75075888289834B
:103F4300E0FE8C828D8312409574FC5E700C8C8233
:103F53008D83A3E054036403701E023FFC124020D0
:103F6300E4F0740C6E6003023ECB8882124054125C
:103F73004063500109023EED8C828D83A3E054031C
:103F8300603288828983E0C0E0EC12403A3DF583D9
:103F9300D0E01240968C828D83E054036402701447
:103FA30088828983E0C0E0124028D0E012409680E6
:103FB30003A3E4F0EC124E3E3D12699BEC2410FE89
:103FC300E43DFFEA241DF582E43BF583E0F5088E2A
:103FD300828F83E0C3982508F508F0EA2417F8E4F4
:103FE3003BF98882F583E0C39508C0E0124016D000
:103FF300E01258F1C39508500A124016E4F012403B
:1040030032E4F0023BFC2415F582E422EA240DF5A8
:1040130082E422EC240DF582E43DF58322EC124F79
:10402300F73DF58322EC2414F582E43DF58322EC7D
:10403300123A603DF583222413F582E422E0FEA3C5
:10404300E0FF8C828D83A3A3A3A322124054A3A3D6
:10405300228983E0F508A3E0FFE5088C828D8322A3
:10406300A3A3A3A3F0A3EFF0E82402F82212407560
:10407300A322E4F08C828D83A3A3A32212409DA8E4
:1040830082A98322123A1CA3A3A3A32212409DA3B5
:10409300E022A312409D08A983221258FAA3227496
:1040A300F41205CE74F3120BC28A0A8B0BECFEEDED
:1040B300FF8C82F583E0540CF508E0A2E75006E597
:1040C30008D2E7F508E508D2E1F508125346700671
:1040D300E508D2E4F508E0A2E55006E508D2E5F5E7
:1040E300087C087D007900AA21AB221213A6740272
:1040F300120E1DE5081269A1C0E07403120E1DD053
:10410300E012472FE50AF0A3E50BF07405120E1D2C
:1041130012620D120E1DE070777408120E1D124606
:10412300B51258E338126228C0E07408120E1D124B
:1041330041B6D0E0126208C0E07408120E1D1241AD
:10414300ACD0E0F07408120E1D1241A2E01246DD5D
:1041530012475E125CF7EE2411125312C0E01241B3
:1041630098D0E0F0EE2414125312C0E07408120E3B
:104173001D1246B52435F582E438F583D0E01247A5
:1041830002C0E07408120E1D1246B9D0E0125F613E
:10419300740D022D71E82432F582E439F58322127D
:1041A3003C11A3A3A3A3A3A3221246C912640738F5
:1041B300F583221246C92426F582E438F583227456
:1041C300F71205CE7E008A828B83A3A3A3A3A3A3A6
:1041D300A3A3A3E064046003024284124FEFE060F0
:1041E30003024284124E513B124ECD7003024284AD
:1041F30088828983E054036003024284E8124FF704
:1042030039F583E0FA8C828D83A3A3E0FBA3E0CB93
:104213002411F582E43BF583E06A70658882898323
:10422300A3A3A3A3A3A3A3A3A3124288E06A700337
:10423300A3E06B704C88828983A3A3124294E0FFAE
:10424300A3E0CF24061253126A7003A3E06B70310C
:1042530088828983A3A3E0F88C828D83A3A3E0F9EA
:10426300A3E0F5838982A3A3E06860138C828D8326
:10427300A3A3A3E0F5838982E0540C640470027E57
:1042830001EEF9802012428C221248C58C828D8364
:1042930022A3A312428CA3A322740C120E1DE0F9D5
:1042A300740D120B297F010208B574F61205CE7442
:1042B300FC120BC2EAFEEBFFECFAEDFB8C82F583FA
:1042C300A3E054036016901642124ECF6059790052
:1042D300EEFCEFFD125AEE120815804B8521828504
:1042E3002283EEF0A3EFF07402120E1D124724ACEA
:1042F30021AD227A827B1C121EAA8A088B09A80888
:10430300A909EA4960218A828B83A3A3A3A3A3A358
:10431300A3A3A37406F07A0088828B831246B51296
:104323005CB7E0F9121E087404023BF974F212053B
:10433300CE74F3120BC2EAFEEBFF8A82F583A3A3CA
:10434300A3A3A3A3A3A3A3A3E0F50A901883E070F8
:104353000579BA02466D750801750900750C00757B
:104363000D007C087D007900AA21AB221213A674EC
:1043730005120E1D740112473754046012740212A1
:104383000E1DE0D2E612473754087003750803E0A8
:104393005410600674404508F508E0540860227420
:1043A30002120E1DE044C01247375420600A740302
:1043B300120E1DE0D2E080087403120E1DE0D2E15C
:1043C300F0EE241512531212469D700374016970A6
:1043D3000674084508F5088E828F83A3A3A3A3A3BD
:1043E300A3A3A3E07016121F0485218285228312E2
:1043F3005D047402120E1DE0D2E28030640F70106F
:104403007402120E1D12473F74044508F508807F9D
:104413008E828F83A3A3A3A3A3A3A3A3E064028E8B
:10442300828F83700A1269D4E8F0A3E9F08060A355
:10443300A3A3A3A3A3A3A3E06403700DAC21AD22A4
:10444300EEFAEFFB121CB880468E828F83A3A3A3E0
:10445300A3A3A3A3A3E0640170359016D6E0601074
:104463007402120E1D12473F750910750AFF80185A
:104473007402120E1DE0440C12472F74FDF0A37456
:10448300FFF074044508F5088E828F83122C84EEA6
:104493002415125312A2E0503F7402120E1DE05471
:1044A3000C701B8E828F831248BD121922E970058E
:1044B30079BB02466D7402120E1DE0D2E5F0EE24C4
:1044C30015125312A2E050107402120E1DE0540C88
:1044D30064047004E0D2E5F0EE2411125312C0E03C
:1044E3007404120E1DD0E012620F120E1DE0600361
:1044F3000246667408120E1D1246F8E508F0A3E59D
:1045030009F0124693E0C0E0124689D0E0F012466B
:104513007AE0C0E07408120E1D1246B512403A3814
:10452300F583D0E012475E640170119016D6E0C0A7
:10453300E07408120E1D1246D3D0E0F07408120E78
:104543001D1246F3124684FAE8241CF582E439F579
:1045530083EA12472AEE2415FAE43FFB8A82F583A5
:104563001271FBE812564E39F583124724EE241CD0
:10457300125312C0E0124670D0E012579412469DB7
:10458300700374016970137408120E1D124FDFFA61
:10459300EE241D125312F9121B8C8E828F83A3A358
:1045A300A3A3A3A3A3A3A3E0C0E07408120E1D1248
:1045B30041B6D0E0F07408120E1D1241ACE50AF0CA
:1045C3007408120E1D124E722428F582E439F58305
:1045D300E50CF0A3E50D12470A1246DD12538B12C8
:1045E3005CF7EE124684C0E0E82433F582E439F543
:1045F30083D0E0F0EE241B125312C0E07408120EB5
:104603001D1246B9D0E0F0EE241A125312C0E07422
:1046130008120E1D1246B52432F582E438F583D014
:10462300E01247021246A9120B4812640D1271FBE5
:10463300740B120E1D1246B5242F1276D7120B29B6
:10464300EE241512531254406012901662124ECF8C
:10465300600AAA21AB22125AEE120815AA21AB2234
:10466300121D2A740C120E1DE0F90249A4E824203D
:10467300F582E439F58322EE2419F582E43FF583CC
:104683002212641CE022E82412F582E439F5832225
:10469300EE2418F582E43FF583225480F8A3E05416
:1046A30001F974806822F508A3E0F509750A00781A
:1046B30008221246C9221246C92434F582E438F589
:1046C3008322A3A3A3A31246CD22E0F8A3E0C8222A
:1046D3001246C912400938F58322FAA3E0FBE82405
:1046E3002AF582E439F583EAF0A3EB22A3A3A3A37B
:1046F300123C07EE22124E76124E5639F58322F003
:10470300EE241312539322F0EE240D12539322E05E
:10471300FC8A828B83E02CFCA3E03400FD8A828B2D
:1047230083ECF0A3EDF022F0A3E4F022F0852182E4
:1047330085228322F0EE241512539322E0D2E3F074
:10474300124747228E828F83123C0B85218285225A
:1047530083E8F0A3E9F022E8F0A3E9125E4AE0223D
:1047630074F71205CE8A828B83A3E0640170047E02
:104773006380027E648A828B83E060087905124736
:104783009724F3FE90167EE06007F912479724F210
:10479300FE024284121DD2E9F8EEC3982274F61287
:1047A30005CE74FE120BC2852182852283125D041D
:1047B300E9FEECFAEDFB900381124ECF6032A821A3
:1047C300A922880889097808120B4C7D01740E12FE
:1047D3000E1DE0FCEEF9900381125CD812081574EB
:1047E30002120B29EA4B60047900800679B2800239
:1047F30079B6023BF774F71205CEE9FE901638122C
:104803004ECF601F7409120E1DE0F5087808120BD5
:1048130050EEF9901638125CD81208157401120B79
:1048230029800279B60242A874F71205CE8908ECF2
:10483300FEEDFF79B5E508245E602014600624F8D8
:104843006034803D9003831248876035126A1812E2
:1048530008158E828F83125D04802490163A12719C
:10486300FBEC4D601CEEFCEFFD90163A125CD81287
:104873000815E9F9800B90163612488D12155679F2
:10488300000242A81248C1EA4B221271FFEEFAEF6E
:10489300FB2274F71205CEE9FE79B574AB6E700B8B
:1048A3009016361248BD12155679000242A88E8220
:1048B3008F83A3A3A3A3A3A3A3A31248C122124834
:1048C300C522E0FAA3E0FB2274F11205CEEAFEEB67
:1048D300FF8C0A8D0B750801901686E06E7003A39A
:1048E300E06F700C124998AA0AAB0B121556805E42
:1048F300121F0AEE6A7002EF6B7009AA0AAB0B1261
:104903001F10804AAC0AAD0BEEFAEFFB121A60E9F6
:10491300F508901876E07036122384E97030E508C4
:10492300702C901656E06E7003A3E06F7020EE4F6C
:10493300601C750C4E750D16750E00780C120B4825
:104943007C087D00AA0AAB0B1269C4120B29A908C3
:104953000272F774F21205CEEAFEEBFF8C088D09A2
:10496300750A01124998EEFAEFFB121550E964013A
:104973007011901686123C0385088285098312699B
:104983009D800EAC08AD09EEFAEFFB121A66E9F54D
:104993000AA90A8011121EFE8A0C8B0DAC0CAD0DF8
:1049A30022740D120B297F060208B574F61205CE88
:1049B300EAFEEBFF7A0D7B00121454EA4B6062EEC1
:1049C30024241266A1F0EE24251266A1A3124A66DE
:1049D3001266A7A3A312643A124A41F0EE124A27C1
:1049E300124A56E8F0A3E9124A7D124A4E12699D13
:1049F300EE124A301264FDA3A3A3A3F0EE243312F4
:104A03005312C0E0124A39D0E012622C124A4EA36C
:104A1300A3A3E8F0A3E9124A75C0E0124FEFD0E078
:104A2300F0023BFC242AF582E43FF58322242EF591
:104A330082E43FF58322EA1254683BF58322124A4B
:104A43004522E08A828B83A3A3A32212655CA3A3DE
:104A5300A3A322124A5A22123C0B8A828B83A3A35A
:104A6300A3A322F0124A6B22EE2426F582E43FF53B
:104A73008322F0EE243212539322F0EE242C1253AD
:104A8300932274F41205CE74FE120BC2ECFEEDFFFA
:104A9300EC241612531264057010EC2406FCE43F58
:104AA300FD121CB2E97003024B31AC21AD22126737
:104AB30056121928852182852283124ECF606B8E70
:104AC300828F83E064017058E875F009A4F8AAF0B6
:104AD30075F009E9A42AF974AF28F8740339F9E8E1
:104AE300FAE9FB8882F5837808120DC6EE124BD3E0
:104AF300120D6A40278521828522831246F31253C1
:104B030020124B367808120DC69084817808120C57
:104B1300918A828B837808120DB7800A79A280105C
:104B2300EE240F1269977900800679A1800279C873
:104B3300022D6F124754EE1264282274F21205CE2E
:104B43008A0C8B0DECFEEDFFEC125320E4F0A3F086
:104B530090844D7808120DC6EC124BD3120BEE6005
:104B630067EC240E125319703478B390167DE070FD
:104B7300289016AFE064017020EC2411125312F94F
:104B8300121DBA8B09A909EE124E523F125D02EAB9
:104B93004960047800800278A18808802EE06004D0
:104BA3006402700A121CC4E9F5087007801DE064F2
:104BB300037010EEFCEFFDAA0CAB0D12194CE9F5D6
:104BC3000880087508A180037508A3A9080249A9EC
:104BD30012642878082274F01205CE74F5120BC201
:104BE300EAFEEBFFEA240AFCE43F8C82F5831276AB
:104BF30098124E5C7403120BA28A828B83125AF8AA
:104C0300E97003024CC27401120BA27403120B9AD3
:104C13001219287401120E1D124ECF7003024CC2DA
:104C2300E875F009A4F8AAF075F009E9A42AF97463
:104C3300AB28FC740339FDE508240E125F49E4F048
:104C430004120E1D123C03E508124E523509126977
:104C53009B8C828D83120DFAE5082412125F491290
:104C63000E069084817808120DC68C828D83780895
:104C7300120D038C828D83780C120DC690845578A7
:104C830008120DC6780C790812055FE50845094539
:104C93000A450B702A7401120E1D124E7275F0092B
:104CA300A4F8AAF075F009E9A42AF974B328F582E7
:104CB300740339F5837401F07A007B08124E7F8EFA
:104CC300828F83A3A3A3A3A3A3A3A3A3A3E02406E5
:104CD300FCA3E03400FD8E828F83125AF812621A0D
:104CE300603EEE240A124E441246F8746812472AB4
:104CF300E8124E3E39F5837402F0901668120DFAED
:104D03008C828D83125CF11258E33CF583120E06FC
:104D13009084817808120DC69016687808120D03E6
:104D2300124EBA705D901636124E6AA3A3A3A3A3C4
:104D3300A3A3A3A3A3125919121550E97010125873
:104D4300D79016361258E9700512621A60348E82B3
:104D53008F83A3A3A3A3A3A3A3A3A3A3124E6A1204
:104D630048BD121952E960118E828F83A3A3A3A3B6
:104D7300A3A3124EA6E4F0A3F08E828F83124E8C6F
:104D8300E4F0124EBA6003024E398E828F83A3A3DE
:104D9300A3A3A3A312769490167DE06003024E2E84
:104DA3009016AFE064016003024E2E750A3A750B4C
:104DB30000780A120B4C7402120B92880A890B7842
:104DC3000A120B4C126C93120B29E9705BE5082451
:104DD3000E125F497401124ED4C0E0E5082411128B
:104DE3005F49D0E0F0E508240F125F49743A124797
:104DF3002A901664120DFAE5082412125F49120E66
:104E0300069084817808120DC69016647808120DF6
:104E1300039084817808120DC69016647808120BEB
:104E2300EE7008124E7B8003124E5C124EBA70066F
:104E33001257DA74A1F0740B0265CC240EF582E4E8
:104E430022F8E43FF9E8FCE9FD8882F58322EA12BF
:104E53004E5622240FF582E422E508124E563509F8
:104E6300F583E4F0A3F0221271FF8E828F83221266
:104E73004E7622123C0BE8227A007B0290150FE05B
:104E8300F91213FA228A828B83A3A3A3A3A3A3A356
:104E9300A3A3A3124E9A221246CD240EF582E43820
:104EA300F58322A3A3A3A3124EAE221246CD240F51
:104EB300F582E438F583228E828F83A3A3A3A3A371
:104EC300A31246C5240FF582E438F583124E7649C2
:104ED30022124ED822F0852182852283E02274F6A5
:104EE3001205CEEAFEEBFF7A237B00121454EE2464
:104EF3000AF508E43FF509850882125D027C237DEB
:104F03000079001213A6850882850983124ECF709B
:104F130003024FA2EEFAEFFB121CD0124EBA6074DA
:104F23008E828F83124FD564018E828F83A3A3A3B6
:104F3300A3A3A37007124FCB740E8021124ECF7020
:104F43001012621A700B8E828F83A3A3E0A2E0502B
:104F530007124FC1740D8005124FC1740512622CE4
:104F6300540364017007124FA97405800B90167ED9
:104F7300E0C0E0124FA9D0E0124FE4F5838882121B
:104F8300533F8508828509831246B5125C9638F52E
:104F930083E9800E850882850983125D7B80031275
:104FA3005CBEF0023BFC8E828F83A3A3A3A3A3A3C7
:104FB300A3A3A3A3124FBB22E0125CDDA3228E8224
:104FC3008F83A3A3A3A3A3A31246C5125C9C38F5A6
:104FD3008322A3A3A3A3A3A3A3A3A3A3124E9AE0F1
:104FE30022124FE82212676BF8A3E022EA124FF76E
:104FF3003BF58322240CF582E42274F11205CE746E
:10500300E4120BC28A0C8B0D8C088D097A237B006A
:105013001214548A0A8B0BAE0AAF0BEA4F700302C9
:1050230052FA125CA2E508241512532B687003A3ED
:10503300E0698E828F837004740280027401F0E54C
:1050430008240DF8E43509F98882F583E0FAC3E40E
:105053009AFA95E0FB1253272AFAA3E03BFB8E82D0
:105063008F83A3A3A3A31259008E828F83A3A3F0DC
:10507300EE2420F582E43FF583E4F0EE2421F5826B
:10508300E43FF583E4F0EEFAEFFB121D848508821A
:1050930085098312534670098E828F83A37405801A
:1050A3000690167E125334F0EE2417F50AE43FF50A
:1050B3000B8E828F8312533FE9850A82850B83F01F
:1050C300EE2416F8E43FF9E508240EFAE43509FB6B
:1050D30088828983124712E5082410FAE43509FB14
:1050E300850A82850B83E0FC88828983E0F88A82C3
:1050F3008B83E0C398C39CF8125380F0EEFCEFFD62
:10510300AA0CAB0D121CCAE9F50B8E828F83E064E7
:105113000270061258D7125304E50B60030252F1D2
:10512300750C00750D00901876E064016005E0646D
:1051330002703F1253166008EE2421125319703285
:105143008E828F83A3A3A3125CC412534CEE241646
:10515300125312125375FAE439FB123A04EA4B6004
:1051630011126526120B4812535AAA0C1269C41263
:105173000B29EEFAEFFB121D90E9F50B901876E080
:1051830064016008E0640260030252E4E970030210
:1051930052E4E50C450D70030252F18003850E0BBA
:1051A300125316600BEE242112531960030252EAC4
:1051B300850B0E850C08850D09750A007808120BFE
:1051C3004812535A8E828F83A3A3A3A31276DD12B0
:1051D3000B29EE2420125312600D12531F74681210
:1051E300472AEE24208015EE242112531260151253
:1051F300531F7403F0A37401F0EE2421F582E43FFE
:10520300F583E4F0EEFAEFFB121D90E9F50B7090D5
:105213007C137D0079007409120B9A1213A6741A79
:10522300120E1D740112538B64687002A3E0704F59
:105233008E828F83124EA6E0640560030251A07C28
:105243000879FF8E828F83A3A3A3A3E0242A125994
:105253001C121430E970030251A07C087D0079FF11
:105263007401120B9A1213A67401120BA27A007B1B
:105273000079AB121CAC7419120E1D74FC8015124C
:10528300531FE064037004A3E064017008741912EF
:105293000E1D74FFF0E4F508F5097808120B4C7441
:1052A30002120BA27413120E1DAA82AB83125E01AB
:1052B300120B29852182852283E0602B7409120B4E
:1052C30092880889097808120B4C75081375090030
:1052D3007808120B4C7C007D00126674120B298037
:1052E30006E50C450D6007AA0CAB0D12145AEEFA35
:1052F300EFFB12145A8003750B10A90B741C027276
:10530300F4EE2406FAE43FFB12155622EE240C12A7
:10531300539322EE2420125393640122EE124E562D
:105323003FF58322E508240EF582E43509F583E091
:1053330022125339A322E08E828F8322A3E0F91233
:105343001DD222E0540364012212535022E0FAE8F2
:105353002AF8E43400F9228E828F83A3A3A3125C7C
:10536300C8125350EE2416125393125375FCE439AA
:10537300FD22FAE82AF8E439F9E8240422125384D6
:105383002212623BA3A3A322F012539022EE240F16
:10539300F582E43FF583E0227901020AD974F4121D
:1053A30005CEEAFEEBFF8A82F583A3A3A3A3A3A3FF
:1053B300A3A31246B52424F582E438F58312534699
:1053C300702E8A828B83124FD5702512546EE0643F
:1053D30005701D12546EA3E0F8740168600574062D
:1053E300687007124E8874028005124E887403F0A9
:1053F300EA240A125D6F125CD8E4F0EA2408F8E4A8
:105403003F122D5E2431F582E43AF583E0C0E012C9
:105413006A0FA3A3D0E012548DCA242EF582E43A76
:10542300F583E0C0E0126A0FA3A3A3D0E01259B33F
:10543300C812546838123C01126A0F1254828A0A45
:105443008B0BAC0AAD0B850882850983125919129F
:1054530015568508828509831248BD121D90125D79
:105463006AF0022D74240BF582E4228A828B83A3D3
:10547300A3A3A3A3A3A3A3126201F583888222A3F8
:10548300A3A3A3124754121EFE221258F5FAA3E057
:105493002202539BC082C08390165874D6F0A37423
:1054A3001CF090165A74E2F0A3741CF090165C740E
:1054B300E8F0A3741CF090165E74DCF0A3741CF087
:1054C30002579E74F41205CEEA2408FEE43BFF8ED5
:1054D30082F583124E72125CAEE0F5087403550830
:1054E300F509125914F8A3E08882F583E508F0A3BF
:1054F300A882A983E509600974026509600302555E
:10550300B3740C5508FC600A74086C600574046C71
:105513007026740265097006E508A2E4401A8A82BF
:105523008B83A3A3A3A3A3A3A3A31256B9126407B4
:105533003D125654A308A983740C6C701C1256B503
:1055430024281256A12428F582E43DF583A3126092
:1055530035F0E82402F8500109740265097006E584
:1055630008A2E4404B1256B5242A1256A1242AF568
:1055730082E43DF583A31256631256BF12603512BF
:1055830056BFA312565BE82404F8500109EC600FE0
:1055930074086C600A740C6C600574046C701112EE
:1055A3005CE52426F582E43C125654A3A882A98321
:1055B3008A828B83A3A3A3A3A3A3A3A31256835477
:1055C300037014E508A2E1400E125CE512564E3C4E
:1055D300F583E0548060081256691256568019907C
:1055E300162CE0C0E0125669D0E0125696888289E4
:1055F30083125696041258FAA3A882A983E508A237
:10560300E750458E828F8312568388828983125690
:105613009C12568854036030125CE52434F582E40E
:105623003C126033F0E508A2E1501D8A828B83A30C
:10563300A3A3A3A3A3A3A3122D632435F582E43A62
:10564300126033A3F0E82403022D74241EF582E4D0
:1056530022F583125663F022125663A3A3A3F0220A
:10566300E088828983228A828B83A3A3A3A3A3A333
:10567300A3A3E0FCA3E0CC2432F582E43CF583222F
:10568300E012568822FCA3E0CC2425F582E43CF505
:1056930083E022F090162CE022126237E022F5829A
:1056A300E43DF5831256631256AE2212623B125644
:1056B300B9228E828F83E0FDA3E0CD22A31256AEE2
:1056C300242CF582E43DF58322C082C0838A828B39
:1056D3008312578EFC74035CF98A828B83A3A374B1
:1056E30001F0E960057402697061740C5CF8600A8A
:1056F300740868600574046870137402697005ECBB
:10570300A2E440098A828B83A3A37402F0740C6819
:10571300700A8A828B83A3A3E02402F07402697067
:1057230005ECA2E440258A828B83A3A3E02404F042
:10573300E8600F740868600A740C68600574046894
:1057430070098A828B83A3A3E004F0ECA2E7502ABA
:105753008A828B83A3A3E00412579412326DE05420
:105763000360178A828B83A3A3E004F0ECA2E150C9
:10577300098A828B83A3A3E004F08A828B83A3A389
:10578300E004F08016852182852283124FBBA3E0BB
:1057930022F08A828B83E022120B29D083D08202EB
:1057A3000AD9C082C0838A828B83A3A3A3A3A3A3A2
:1057B300A3A3A3A3124ECF60098A828B83A3A31250
:1057C30057C780D7A3A3A3A3A3A3A3A31257D322EB
:1057D3001248C512145A221257DE22EE240CF58207
:1057E300E43FF5832274F61205CE74F4120BC21251
:1057F3005923FCA3E0F5838C82A3E0C0E07402127A
:105803000E1DD0E01259D11259BA7404120E1D1292
:10581300699D7402120E1DE0640470141259392438
:105823001212591C7406120E1D125900241A8035C7
:10583300E064016005E064067039EA2402F8E43BA1
:10584300122D5E1258E33AF583E0C0E07403120EA2
:105853001DD0E01258F1241312591C7406120E1DA8
:10586300125900241B1259BA7408120E1DE8F0A332
:10587300E9802B7406120E1DE4F0A312593424128E
:1058830012591C7408120E1D12590DC8241AF582E0
:10589300E438F583E0C0E0740A120E1DD0E0F07422
:1058A30006120E1D124ECF601F7406120E1D1248F3
:1058B300BD121A54E96401700F1258D77406120E00
:1058C3001D1258E964017007AA21AB22121D6C74E2
:1058D3000C023BF9121EFE8A088B09AC08AD0922A3
:1058E3002412F582E4221248C1121550E9221258FB
:1058F300F5221258FAE022F0888289832212590491
:1059030022EAF0A3EB1258FAE022125904F8A3E0BA
:1059130022126295E022E02406FAA3E03400FB227F
:105923008A828B83A3A3A3A3A3A31269D8E8F0A3BA
:10593300E9F0125939221259E2E022C082C083747D
:10594300FD120BC2125968123267C0E07402120EC4
:105953001DD0E0125962121D72740302579BE4F0CA
:10596300AA21AB22228A828B83A3A3A3A3A3A3127C
:10597300474B8A828B83A3A3E022C082C08374FA3D
:10598300120BC21269CA1259D7C0E07402120E1D5B
:10599300D0E01259B3F5838882A3A3E0C0E0740575
:1059A300120E1DD0E0125962121D78740602579B25
:1059B3001258F5F8A3E022F8A3E03400F922A3A3D8
:1059C300125A3522E02402F8A3E03400F9221258D7
:1059D300F52402221247541259E21259EEE022EA48
:1059E3002402F8E43BF98882F58322E0FAA3E0F588
:1059F300838A82A322E50E123A60350FF583E0FC19
:105A03007D0022C082C083125A29600A24FC600BE5
:105A130024F9600C800D121D068008121D0C8003F2
:105A2300121D1202579E8A828B83125A3324FB2241
:105A3300A3A3125CDCE02274F61205CE74E4120B0D
:105A4300C2EAFEEBFF7401120BA28A828B83A3A32B
:105A5300A3A3A3A3125AF87409120B928808890905
:105A63007808120B4C7402120BA27403120B9A12D5
:105A73005E01120B29852182852283E06036741A28
:105A8300120E1DE060046401702A90160FE070246A
:105A93008E828F83A3A3A3A3A3E070188E828F8328
:105AA300125AF2603F8E828F83A3A3A3125AEEE0B1
:105AB300640760308E828F83A3A3A3A3A3A3A3A3AE
:105AC300E070148E828F831259C1640560097A34A1
:105AD3007B011217BA800DEEFAEFFB901660125C91
:105AE300D8120815741C023BF9EEF9125CDF22127E
:105AF3005A336406221248C1121CB22274F41205EE
:105B0300CE74FA120BC2EAFEEBFF1232732408F5CD
:105B130082E43B125D0A240AF582E438125D0A121C
:105B23005CB7125961121CFA125788F508125CA26D
