:020000040000FA
:060000000210B00205DC55
:03002B00020E249E
:03003300020A16A8
:0300530002050B98
:03006B000209CBBC
:03007B000209F483
:1000830002056D01010000000000F8FF07FFFF00FB
:10009300000504000000030001FF0020FD0002062C
:1000A300FFFF1E010000000000000000020100002D
:1000B300FFFF0C010400009D15000000E803000091
:1000C300FFFFEE150188130000E8030000640064DD
:1000D30000B801A0BB0D00A0BB0D00020202070483
:1000E30001051E02051E020A0A010108080103B8E0
:1000F3000B02803E0102FEFFE8030A050001FFFF39
:10010300020A011401E08096184B0000803F0200B0
:100113000000050301010F030003000300030003B4
:1001230000030003000300030005000A0014002875
:10013300004F009E000000D32A00000000A7290002
:10014300000000FF000000FF001210CF60461210F5
:10015300C0603DE9687008F618F618F618F62274C0
:100163008067F7120180090909748067F72212106A
:10017300C0601D1210CF7005191919801A120F884B
:10018300701F120F9CC37003E667331919194007D8
:100193001818182208080874FFF618F618F618F647
:1001A30022120F9C601712115D702192F0121166DA
:1001B3007019501720F014080808090909E7F61800
:1001C30019E7F61819E7F61819E7F622121166600F
:1001D300E6E869701F0808E62480F608E436F61896
:1001E300547FB47F0CE654806007F6E418F618F6E3
:1001F30022181822E9C6CC08C6CD08C6CE08C6CF39
:10020300C0E0E8C0E0EAC0E0EBC0E009E9F809E7D4
:10021300FA09E7FBE6F918E6F8C3EC98ED99EE9ACC
:10022300EBC2E7F5F0EFC2E795F0500E600CEBCFB1
:10023300FBEACEFAE9CDF9E8CCF8EAA2E7D2E7FA8D
:10024300EB33FB13F5F0EEA2E7D2E7FEEF33FFC586
:10025300F013A2E730E601B313C5F0C3C0E0C0F06A
:100263007F00C39BFB605E9418600F401D14601AEF
:10027300D0E023F9D0E0F80203528AF0E9486003A2
:10028300D2F0E4AFF0FAF9F8803BEB30E40D89F0FB
:10029300EA6003D2F0E4AFF0F9CAF8EB30E30D887B
:1002A300F0EF6002D2F0AFF0E4CAC9F8EB54076094
:1002B30014FBC3EA13FAE913F9E813F8EF13500236
:1002C300D2E0FFDBEDD0E0C0E030E739C3E49FFFCD
:1002D300F5F0EC98FC42F0ED99FD42F0EE9AFE4207
:1002E300F0D0E0F9D0E0F8E5F0607AE923F9EE2008
:1002F300E742D8028067C3EF33FFEC33FCED33FDF5
:10030300EE33FE80EAEC28FCED39FDEE3AFED0E058
:1003130023F9D0E0F84002801BC3EE13FEED13FD7A
:10032300EC13FCEF135002D2E0FF08B800067F7F06
:1003330074FF802EEF3350178CF020F00260100C06
:10034300BC000C0DBD00080EBE000408E860DFE928
:1003530033E813FFEE2313FE4F4D4C8008E954801E
:10036300FFE4FEFDFCEE33EF33F47004FCFD7E800E
:10037300D0E0FBD0E0FAD0E0F8D0E0CFC618CEC68C
:1003830018CDC618CCC6F922001210C0604F121047
:10039300CF6012E7548066F6120F88701112115D58
:1003A300703B090909F4F618F618F618F622120F2D
:1003B3009C701512116608080860EAE6447FF61877
:1003C300768018E4F618F622121166601612115D93
:1003D3007012E4F608F608F608E65480F6090909EF
:1003E30018181822EAC0E0EBC0E0ECC0E0EDC0E072
:1003F300E687F0A4FBACF008E687F0A42CFCE43518
:10040300F0FA1809E687F0A42C4B60027401CA3590
:10041300F0FCE433FB09E687F0D2F7A42CCB35F0EC
:10042300FC1908E687F0A42BCC35F0FBE433FD0878
:1004330019E687F0D2E7A42C4ACB35F0CD3400FC83
:1004430009E687F0D2E7A42DCC35F0FDE433FA09B1
:1004530018E687F0D2F7A42CCD35F0CA3400FC0897
:10046300E687F0D2E7D2F7A42ACC35F07A7E20E7EC
:100473000B0ACB33CBCD33CDCC33CC33CB3350146E
:100483007004ED30E00ED2F1E4CD3DCDCC3CCC3B5D
:100493005005DA05C2F1EB547FC63308E63392F018
:1004A300FBE73309E733C39A502D2B70190C0D4C1E
:1004B3004D70151806E608C333700D20F10AA2F03B
:1004C30013F6E418800B4024E4F630F0027680182B
:1004D300F618F618F68024D33B14501074FFA2F0DC
:1004E30013F6187680E418F618F6800FA2F013F6C8
:1004F30018E63303F618ECF618EDF6D0E0FDD0E07D
:10050300FCD0E0FBD0E0FA22C0E074F112096CA247
:10051300AFE433F509D2AF85A708AFA1EF5508FEC5
:1005230074105E600612140C75A1EF74085E600807
:1005330012141275A1F78024EFA2E092F0E508A24D
:10054300E082F05017906198E0F890040EE0C398B1
:10055300A2D265D0335002E8F075A1FE752300E501
:1005630009A2E092AF7F02020A2AC0E074F21209E4
:100573006CA2AFE433FED2AF9061A4E0F8759B00A8
:10058300E59158540860087591F71214608023E5CB
:100593009158541060087591EF1214668014E59118
:1005A300A2E092F0E8A2E082F05007E0C2E0F0128D
:1005B30015BC9061A3E0F8E5E9585404600E1215E8
:1005C3009275E9FB906193E0A2E640F2752300EE99
:1005D300A2E092AF7F01020A2AC0E074F212096C12
:1005E300A2AFE433FED2AF9061A5E0F8E5BF585463
:1005F30004600675BFFB1215D480D1C3E498F8E4F8
:1006030099F912063F8026C3E49AFAE49BFBE9209A
:10061300E7E912063FE498F8E499F922C3E498F86D
:10062300E499F912063FE498F8E499F9C3E49AFAD5
:10063300E49BFB22EB20E7CFE920E7E0B90010BB06
:100643000008E88AF084F8AAF022E4FBC8FA22EB57
:1006530070227B10C833C8C933C9335007C39AC348
:10066300DBF280069A50012ADBEAC833F4C8C933A7
:10067300F4C9FA2275F008E4C833C8C933C933C9C9
:100683009AC99B5004C92AC93BD5F0ECFBC833F483
:10069300C8E4C9FA228A088B098C0A8D0B780812E0
:1006A30006E220F01430E72B74FFFCFBFA747F8022
:1006B30022E4FCFBFA7480801AB48008BC00F2BB0D
:1006C30000EF800F50EBF9E4C39AFAE49BFBE49C40
:1006D300FCE499C6CC18C6CB18C6CA18C6F922E4DE
:1006E300C9C608CAC608CBC6D3330308CCC63392DF
:1006F300F0C3947F402E94184019C9B90704CACB9C
:10070300CC225025C309CA33CACB33CBCC33CC3329
:10071300D9F422F4600DC9CCC313CB13CBCA13CACB
:10072300D9F6CC22E4FCFBFA2214FCFBFA220808DB
:1007330008EAC0E0EBC0E086F0E7A4FA180986F007
:10074300E7A42AFA180986F0E7A42AFA180986F01A
:10075300E7A42AFA1986F0E7A4FBE5F02AFA1908B8
:1007630086F0E7A42BFBE5F03AFA190886F0E7A434
:100773002BFBE5F03AFA18180986F0E7A4C5F02B2D
:10078300FBE43AFA1908E7C5F0C6A426F6E5F03B00
:10079300FBE43AFA1886F0E7A4F6E5F00826F6E457
:1007A3003B08F6E43A08F6D0E0FBD0E0FA2208086A
:1007B30008E630E711120F601207C9080808C6449B
:1007C30080C618181822181818E9799EC608CAC6D0
:1007D30008CBC608CCC6C370207996CACBCC701997
:1007E300798ECBCC70137986CC700EF9802ACA33FC
:1007F300CACB33CBCC33CC331930E7F2CCCBCA33AF
:1008030050147004EA30E00DE4CA3ACACB3BCBCCB7
:100813003CCC500209C3E913C6CC182313C6CB182A
:10082300C6CA18C6F922E4CFC0E0E4CEC0E0E4CDE6
:10083300C0E0E4CCC0E075F020E626F608E633F627
:1008430008E633F608E633F6181818EC33FCED33F4
:10085300FDEE33FEEF33FFC3EC9709ED9709EE97F7
:1008630009EF97191919400FFFEC97FC09ED97FD54
:1008730009EE97FE191906D5F0BFECF709EDF70954
:10088300EEF709EFF7191919D0E0FCD0E0FDD0E03D
:10089300FED0E0FF222521C582C0E0E52234FFC55A
:1008A30083C0E0E521C3958224F810AF0885832235
:1008B3008582218008858322858221D2AFCEF0A351
:1008C300E520F0A37808E608F0A3DEFAEFF0A3E54D
:1008D3008124FAF8E608F0A3E608F0A3E608F0A3FB
:1008E3000808E608F0A3E608F0A315811581D0E017
:1008F300FED0E0F8158115811581E8C0E0EEC0E077
:1009030022121148B90003020956E49003017889C1
:1009130079168002F0A3D8FCD9FA78239000867A5E
:1009230001BA00028007E493A3F608DAF97A897B17
:100933001890008778C679018015E493A3AD82AE41
:10094300838A828B83F0A3AA82AB838D828E83D822
:10095300E9D9E77582947583CB7404120E06758208
:10096300A47583277400120E06C0D02521C582C04A
:10097300E0E52234FFC583C0E0E521C3958224F37B
:1009830010AF088583228582218008858322858292
:1009930021D2AFC8F0A3E9F0A3EAF0A3EBF0A37967
:1009A30008E709F0A3D8FAECF0A3EDF0A3EEF0A367
:1009B300EFF0A3D0E0F0A3D0E0F0A3D0E0F0A3E504
:1009C30020F0A3E5F0F0A322C0E074F212096CA2B8
:1009D300AFE433FED2AFE589541C600312133453E2
:1009E30089E3C2C5752300EEA2E092AF7F01020A3C
:1009F3002AC0E0C0D0E8C0E0A8A8D2AFE58A858AC3
:100A03008AC2EB752300E8A2E792AFD0E0F8D0D01A
:100A1300D0E032C0E0C0D0E8C0E0A8A8D2AFE58BF8
:100A2300858B8BC2E880DC852283852182E0C0E050
:100A3300A3E0F9A3E0FAA3E0FBA37808E0F608A398
:100A4300DFFAE0FCA3E0FDA3E0FEA3E0FFA3E0C028
:100A5300E0A3E0C0E0A3E0F5D0A3E0F520A3E0A38A
:100A6300F5F010AF088583228582218008858322D3
:100A7300858221D2AFD082D083D0E0F8D0E032E4B7
:100A83007375F0108E248F2585822985832885210F
:100A930082852283E0CEA3E0CF852982852883EB5C
:100AA300C9EAC8EDCBECCAC3E833C8E933C9EA33B2
:100AB300CAEB33CBC3EA9EF527EB9FF526B350046D
:100AC300AB26AA27EC33CCED33CDD5F0DAAE24AF89
:100AD30025221210C0601C1210CF6017121166700D
:100AE3000712115D7001D322C0D012115D7006D0C0
:100AF300D0B322C32233D0D0501430E0F6C3E796EC
:100B03000809E7960809E7960809E796B32220E063
:100B1300D5E6970809E6970809E6970809E697B323
:100B230022D083D082ECC0E0EDC0E0E493A3FCE4E8
:100B330093A3FDED4C600D120C48EC24FFFCED3447
:100B4300FFFD80EFE493A3FCE493A3FDED4C600D64
:100B5300120D11EC24FFFCED34FFFD80EFD0E0FD1E
:100B6300D0E0FCE493A3C0E0E493C0E0221210C001
:100B7300601B1210CF6016121166700712115D60B0
:100B83000CB322C0D012115D7005D0D022C3223322
:100B9300D0D0501330E0EBC3E7960809E796080975
:100BA300E7960809E7962220E0E4E6970809E69726
:100BB3000809E6970809E69722852283852182E0C2
:100BC300A3FEE0A3F5207808E0A3F608DFFAE0A38C
:100BD300FFE0A3C0E0E0A3C0E0E0A3C0E0E0A3C067
:100BE300E0E0A3C0E010AF0885822185832280085E
:100BF300858221858322D2AFD083D082020E0CD08E
:100C030083D082E9C0E0E493A3C386F0C5F095F0F6
:100C1300F908E493A386F0C5F095F0700BE493A371
:100C2300C3994005E9048002A3E475F002A4258278
:100C3300F582E5F03583F583D0E0F9E493A3C0E0D2
:100C4300E493C0E022C0E0C3E49396087401939652
:100C530018400FE4936670080874019366187000D7
:100C63007019A3A3C3E49396087401939618A3A3DE
:100C7300400DD0E0D0E0D0E0020B60A3A3A3A3A378
:100C8300A3D0E0227404800474028000CCC0E0EDA1
:100C9300C0E0E521C39CCCAD2250011D10AF068CF2
:100CA300218D2280068C218D22D2AF120D88D0E0B7
:100CB300FDD0E0FC2274028000CCC0E0EDC0E0E592
:100CC30021C39CCCAD2250011D10AF068C218D2277
:100CD30080068C218D22D2AF120D66D0E0FDD0E0CC
:100CE300FC221210C060251210CF60201211667012
:100CF3000302115D080808E76670101819E76670AB
:100D03000A1819E76670041819E76622F422C0E08E
:100D1300C0F088F0E4936670080874019366187055
:100D230000A8F0A3A3700BD0F0D0E0D0E0D0E00295
:100D33000B60A3A3D0F0D0E022D083D082CCC0E05C
:100D4300E493A36006120DC81470FAE493A360063B
:100D5300120EF51470FAD0E0FCE493A3C0E0E49320
:100D6300C0E022CAC0E0E493A3C582CCC582C58398
:100D7300CDC583F0A3C582CCC582C583CDC583DA37
:100D8300E5D0E0CA22CAC0E0E0A3C582CCC582C5D3
:100D930083CDC583F0A3C582CCC582C583CDC5836E
:100DA300DAE6D0E0CA22700908080822601618188B
:100DB30018C6C333C608C633C608C633C608C63307
:100DC300C6D5E0EA22C0E0E493A3D39C5010E49399
:100DD300A3C39C400AD0E0D0E0D0E0020D59A3A306
:100DE300A3D0E022C008C3E096F50808A3E096422A
:100DF3000808A3E096420808A3E09645087001D3CB
:100E0300D00822C09FF59FE473D09F22D083D08265
:100E1300C09FE493C0E0740193C0E0740293F59F14
:100E230022C0E0C0D0E8C0E0A8A8D2AFC2C77523F3
:100E330000E8A2E792AFD0E0F8D0D0D0E03225218D
:100E4300F58210AF08F521400C15228008F52140EA
:100E5300021522D2AF852283227404800A74038090
:100E630006740280027401C0E0F404120E41D0E063
:100E730012110B2200C0D0252110AF08F521500C10
:100E830005228008F52150020522D2AFD0D022BB23
:100E93000102E722C082C08389828A83BB0003E008
:100EA3008002E493D083D082226016080808C6C368
:100EB30013C618C613C618C613C618C613C6D5E07C
:100EC300EA222521F8E43522F9222521FAE4352204
:100ED300FB222521FCE43522FD22C3E0C696F60859
:100EE300A3E0C696F608A3E0C696F608A3E0C69666
:100EF300F622C0E0E493A36C7009D0E0D0E0D0E028
:100F0300020D59A3A3D0E022252110AF08F52140FB
:100F13000C15228008F52140021522D2AF22C3E02E
:100F23009608A3E09608A3E09608A3E096A2D265EC
:100F3300D03322E76670100809E766700A0809E7EC
:100F43006670040809E76622E066701008A3E0668D
:100F5300700A08A3E066700408A3E0662218181854
:100F6300E4C396F608E496F608E496F608E496F6E3
:100F730022C3E096F008A3E096F008A3E096F008F9
:100F8300A3E096F022181818E60846087009E6262A
:100F9300087005E633F4220822191919E7094709ED
:100FA3007009E727097005E733F4220922C3E6979E
:100FB300F60809E697F60809E697F60809E697F6AC
:100FC30022C3E493960874019396087402939608D7
:100FD3007403939622E627F60809E637F60809E62E
:100FE30037F60809E637F622700422600D18C6C3E7
:100FF30033C608C633C6D5E0F41822E657F6080907
:10100300E657F60809E657F60809E657F622E056CA
:10101300F008A3E056F008A3E056F008A3E056F06A
:1010230022E026F608A3E036F608A3E036F608A386
:10103300E036F622E026F008A3E036F008A3E03617
:10104300F008A3E036F022E647F60809E647F6087B
:1010530009E647F60809E647F622E056F608A3E054
:1010630056F608A3E056F608A3E056F622600D08EC
:10107300C6A2E713C618C613C6D5E0F322C6F4C644
:1010830008C6F4C608C6F4C608C6F4C622C3E79663
:101093000809E7960809E7960809E79622C3E09648
:1010A30008A3E09608A3E09608A3E0962275D00073
:1010B30075813F75210175220300020904E6084684
:1010C30008C3134608336002E633F422E7094709ED
:1010D300C3134709336002E733F422600C08C6C325
:1010E30013C618C613C6D5E0F422E6F008A3E6F04B
:1010F30008A3E6F008A3E6F022E0F608A3E0F6086A
:10110300A3E0F608A3E0F622CAC0E0E6F0A308DAFB
:10111300FAD0E0FA22E0FAA3E0FBA3E0FCA3E0FDAF
:1011230022EAF0A3EBF0A3ECF0A3EDF022E0F8A3A6
:10113300E0F9A3E0FAA3E0FB22E8F0A3E9F0A3EAD5
:10114300F0A3EBF022E5C754F84401F5C779012277
:101153002521F582E43522F58322E727194719472C
:10116300194722E62618461846184622C2AF75D6F6
:101173009F02000022120E0F4BE702120E0FC9E965
:1011830002120E0F75EA02120E0FA5EA02120E0FDB
:101193000AEB02120E0F9EEB02120E0F51EC02121B
:1011A3000E0FA2EC02120E0FE6EC02120E0F80EDF0
:1011B30002120E0FEDED02120E0F1CEE02120E0FB5
:1011C30022EF02120E0F46EF02120E0F9AEF0212D7
:1011D3000E0F6EF002120E0F99F202120E0F47F36A
:1011E30002120E0FBCF502120E0F41F602120E0F81
:1011F300C1F802120E0F05F902120E0F5EFA021267
:101203000E0F71FA02120E0FB6FA02120E0F60D70A
:1012130003120E0FDCD703120E0F0FD803120E0F9B
:101223003DD803120E0F7BD803120E0FB8DA031248
:101233000E0FD7DA03120E0F1CDB03120E0FB2DBF5
:1012430003120E0FFEDB03120E0F92DC03120E0FBE
:101253006BDD03120E0FC7DD03120E0F25DE031223
:101263000E0F98DE03120E0FDCDE03120E0F34DFB7
:1012730003120E0F56DF03120E0FE6DF03120E0FDB
:1012830077E003120E0FC3E003120E0FEFE0031219
:101293000E0F30E103120E0FC6E203120E0FB2E37C
:1012A30003120E0F8DE403120E0F0AD704120E0F52
:1012B3000DD704120E0F6BD704120E0FBFD70412F3
:1012C3000E0FE1D704120E0FF7D804120E0F08D930
:1012D30004120E0FA6D904120E0FB1D904120E0F69
:1012E300CBD904120E0FF1FF01120E0FD1DE04123F
:1012F3000E0FDAD904120E0FEAD904120E0FFFD91A
:1013030004120E0FB3DA04120E0F05D504120E0FDA
:1013130089D504120E0FF1D504120E0F8CD10412CD
:101323000E0FB4D104120E0FD7D104120E0F2FD209
:1013330004120E0F79D204120E0FA4D204120E0F50
:10134300BBD204120E0F5FB504120E0F6DB504125B
:101353000E0FE6B504120E0FBFB604120E0F82B8BD
:1013630004120E0FC7B804120E0FECB804120E0FBE
:10137300F87F00120E0F87C904120E0FBFC90412A3
:101383000E0F0DCB04120E0F91CB04120E0FE4DEE1
:1013930004120E0FE7DE04120E0FF3DE04120E0F1B
:1013A300A7A204120E0FD3A204120E0F3DA504121E
:1013B3000E0F7DA504120E0FB9A504120E0FCDA5B5
:1013C30004120E0FE6A504120E0FD8A604120E0F78
:1013D3008BA704120E0F9FA704120E0F79CD0412D0
:1013E3000E0F9DCD04120E0FB6CD04120E0FF4CDC9
:1013F30004120E0F24CE04120E0F51CE04120E0F40
:101403005BCE04120E0FC1CE04120E0FC4CE041213
:101413000E0FCECE04120E0FDBCE04120E0F4DC2F2
:1014230004120E0F6DC204120E0FACC204120E0F83
:10143300CAC204120E0FE5C204120E0F4BC30412EC
:101443000E0F57C304120E0FB4C304120E0FC3C3FF
:1014530004120E0FE7C304120E0FA8C404120E0FDA
:10146300B5C404120E0FC6C404120E0FB0DD04126D
:101473000E0FF8DD04120E0F24DE04120E0FF5A773
:1014830004120E0F4FA904120E0F5DA904120E0FC2
:1014930070A904120E0F85A904120E0F9AA9041243
:1014A3000E0FADA904120E0F29AA04120E0F8EAA55
:1014B30004120E0F16AB04120E0F8EAB04120E0F96
:1014C30067AC04120E0F77AC04120E0F86AC041235
:1014D3000E0F15DC04120E0F39DC04120E0F61DC43
:1014E30004120E0F89DC04120E0FF4C404120E0F43
:1014F3001BC504120E0F39C504120E0FA8C5041222
:101503000E0F7ABF04120E0F93BF04120E0F9FBF6C
:1015130004120E0FB3BF04120E0FD1BF04120E0F2D
:10152300DBBF04120E0FE5BF04120E0FF8BF041247
:101533000E0F7EC004120E0FF3C004120E0F22C151
:1015430004120E0F70C104120E0FBFC104120E0F4E
:10155300DAC104120E0FE4C104120E0FF5C1041216
:101563000E0F38C204120E0F2FDE04120E0F7ADE96
:1015730004120E0F2B8A04120E0F578A04120E0F39
:10158300748A04120E0F878A04120E0FA28A0412A1
:101593000E0FFC8A04120E0F2A8B04120E0F3A8FC1
:1015A30004120E0F989004120E0FCA9004120E0F1D
:1015B3002D9104120E0F999204120E0FC192041270
:1015C3000E0FD69204120E0FE69204120E0F2693FC
:1015D30004120E0F689304120E0F789304120E0F69
:1015E300C1FE01120E0FDBFE01120E0F03FF0112EB
:1015F3000E0F1CFF01120E0F40FF01120E0F5EFFB4
:1016030001120E0F75FF01120E0FA3FF01120E0F31
:10161300BEFF01120E0FB9DA04120E0FFDDA041227
:101623000E0FFFB804120E0F0FB904120E0F14BAE7
:1016330004120E0F46BA04120E0F76BA04120E0FDE
:1016430099BA04120E0FB0BA04120E0FEABA0412BA
:101653000E0F4FBB04120E0F91BB04120E0FD8BB1B
:1016630004120E0F05BC04120E0F30BC04120E0F31
:10167300E5CE04120E0FF7CE04120E0F0BD0041298
:101683000E0F0ED004120E0F09D804120E0F3FD8FE
:1016930004120E0F57D804120E0F99D804120E0F0E
:1016A300A9D804120E0FEDD804120E0FB09B04122A
:1016B3000E0FF39B04120E0F589C04120E0F779C0F
:1016C30004120E0F199D04120E0F229D04120E0F09
:1016D300739D04120E0F9C9D04120E0FA99D0412FC
:1016E3000E0F1B9E04120E0FA99E04120E0FEE9EE8
:1016F30004120E0F279F04120E0F8C9F04120E0F5D
:10170300B59F04120E0F2CA004120E0F7BA004121F
:101713000E0FB8A004120E0FEDA004120E0FFFA0BF
:1017230004120E0F11A104120E0F30A104120E0F9A
:1017330039A104120E0FFAA104120E0F3DA20412D6
:101743000E0F7BA204120E0F3BD004120E0F7BD19F
:1017530004120E0F86DE04120E0F49C704120E0F79
:101763007FC704120E0FC7C704120E0F20C904123D
:101773000E0F45C303120E0F6BC403120E0FA7C443
:1017830003120E0F65C603120E0F93C603120E0F3C
:10179300FDC803120E0F3DC903120E0FDFCA031259
:1017A3000E0F75CB03120E0FCFCB03120E0F5FCCB0
:1017B30003120E0FA3CC03120E0FE5CC03120E0F70
:1017C3004ACE03120E0FCACF03120E0F0BD203120F
:1017D3000E0F39D203120E0F65D203120E0F6ED203
:1017E30003120E0FCBD203120E0F64D303120E0F8C
:1017F3007BD603120E0F01D703120E0F6BDB0412FD
:101803000E0F83DB04120E0F8DDB04120E0FE3DBCE
:1018130004120E0FB7AC04120E0FCDAC04120E0F50
:101823006EAD04120E0FADAD04120E0FCAAD04124D
:101833000E0FFBAD04120E0F48AE04120E0F7CAE5A
:1018430004120E0FB7AE04120E0FB4B004120E0F33
:101853001AB104120E0F0AD604120E0F69D604121F
:101863000E0FA7D604120E0FE8D604120E0FB9A559
:1018730002120E0FC5A502120E0F27A602120E0F9B
:1018830031A602120E0FBEA602120E0FFAA6021204
:101893000E0FF6A702120E0F54A802120E0FF4A891
:1018A30002120E0F74A902120E0F43AB02120E0F97
:1018B30085AD02120E0FCCAE02120E0F09B1021249
:1018C3000E0F71B202120E0F1DB302120E0F0CB8DF
:1018D30002120E0F02B902120E0F9AB902120E0F64
:1018E300BFB902120E0F57BA02120E0F75BA0212C7
:1018F3000E0FECBA02120E0F0BBB02120E0F38BB07
:1019030002120E0FD0BC02120E0FF1BC02120E0F08
:1019130097BD02120E0FDEBD02120E0F52BE02124F
:101923000E0FE0BE02120E0F3DBF02120E0FB6BF26
:1019330002120E0F38C102120E0F9CC302120E0FB9
:1019430025C402120E0F53C402120E0FA8930412E1
:101953000E0F709404120E0F989504120E0FD29668
:1019630004120E0FB49804120E0F2D9904120E0FC9
:10197300F59904120E0F739A04120E0FEFD304128B
:101983000E0FA1D404120E0F397A00120E0FC67A6D
:1019930000120E0F3F7B00120E0FDA7B00120E0FA8
:1019A300FB7B00120E0FCF7C00120E0F497E00123C
:1019B3000E0F14AE03120E0F43AE03120E0FBBAE87
:1019C30003120E0FCAAF03120E0F26B003120E0F2F
:1019D30093B103120E0FAFB103120E0F01B2031234
:1019E3000E0F44B203120E0F57B203120E0FAFB213
:1019F30003120E0F71B303120E0FEDB303120E0F8A
:101A030024B403120E0F5CB403120E0FEEB50312CF
:101A13000E0FCDB603120E0F1BB803120E0FFEB836
:101A230003120E0F8AB903120E0FCAB903120E0F57
:101A3300E9B903120E0F34BA03120E0F54BA03128C
:101A43000E0FEDBA03120E0F73BB03120E0FCEBBB4
:101A530003120E0F0EBC03120E0FA4BE03120E0FC1
:101A6300BDBF03120E0F03C003120E0FF8C0031203
:101A73000E0F20C103120E0F23C103120E0F2DC12F
:101A830003120E0F49C103120E0FC3C103120E0F2F
:101A9300FCC103120E0F28C203120E0F4FC2031212
:101AA3000E0F73C203120E0FE4C203120E0FF7C21E
:101AB30003120E0F26C303120E0F31DD04120E0F95
:101AC3003DDD04120E0F7BDD04120E0FF4FF011235
:101AD3000E0FE59703120E0F089803120E0F559978
:101AE30003120E0F9E9903120E0F0A9A03120E0F82
:101AF300689A03120E0F6B9A03120E0FBC9A03120D
:101B03000E0F319B03120E0FB69B03120E0FB99BE0
:101B130003120E0F3A9C03120E0F7B9C03120E0F3F
:101B230067A003120E0F11A203120E0F61A203127C
:101B33000E0FE8A503120E0F1BA703120E0F95A895
:101B430003120E0F32A903120E0F1DAA03120E0F5A
:101B530072AC03120E0F58EE01120E0F02EF0112B8
:101B63000E0F6DEF01120E0F88EF01120E0F0DF025
:101B730001120E0F67F001120E0FAEF001120E0FDD
:101B830015F101120E0F94F201120E0FC3F301129D
:101B93000E0F4BF401120E0F54F601120E0F01F744
:101BA30001120E0FA5F701120E0F0C8604120E0F71
:101BB30031FA01120E0FC9FB01120E0F5CFC011268
:101BC3000E0F82FD01120E0F82C602120E0FE5C622
:101BD30002120E0F2DC702120E0F71C702120E0F43
:101BE300CCC702120E0F29C802120E0F64C80212CC
:101BF3000E0FE6C802120E0F40C902120E0FBECA24
:101C030002120E0F3ECB02120E0F99CB02120E0FD1
:101C1300B3CB02120E0FD4CB02120E0F2ECC021234
:101C23000E0FAACE02120E0FC9CE02120E0FF2E34E
:101C330002120E0FECD002120E0F6BD102120E0F16
:101C4300A7D102120E0F16D202120E0FCBD202121E
:101C53000E0FA3D402120E0FAAD502120E0F22D713
:101C630002120E0F18D902120E0F8EDB02120E0F84
:101C730068DD02120E0F29DE02120E0FA1DE021220
:101C83000E0FB8DE02120E0FAFDF02120E0FA3E02B
:101C930002120E0F12E102120E0F88BC04120E0F75
:101CA300DFBD04120E0F9EBE04120E0F06BF0412F8
:101CB3000E0FB5FC02120E0FD0FC02120E0F14FD14
:101CC30002120E0F3AFD02120E0F61FD02120E0FE9
:101CD30079FD02120E0F1BFE02120E0F30FE0212CE
:101CE3000E0F53FF02120E0F5CFF02120E0F65FF61
:101CF30002120E0F6EFF02120E0F68FB03120E0F7D
:101D030074FF03120E0F79FF03120E0F7BFF0312F2
:101D13000E0F06CC04120E0FE5FF02120E0FD1D2E6
:101D230004120E0FB9FF02120E0F27B104120E0F89
:101D3300E2FF03120E0FAEDC04120E0FD8DC041206
:101D43000E0F008002120E0F338002120E0F9F80BF
:101D530002120E0F3A8102120E0FD78102120E0FDA
:101D63001C8202120E0F3E8202120E0F57820212C3
:101D73000E0F7D8202120E0F9F8202120E0FDD8262
:101D830002120E0F218302120E0F438302120E0F53
:101D9300A58302120E0F6C8402120E0F238502120A
:101DA3000E0F958502120E0F608602120E0FB38678
:101DB30002120E0F198702120E0F538702120E0F13
:101DC300A58702120E0F138802120E0F7E880212CD
:101DD3000E0F818802120E0F028902120E0F9989CB
:101DE30002120E0F198A02120E0F388A02120E0FF8
:101DF3009C8B02120E0FA98B02120E0FB58C0212CE
:101E03000E0FC28C02120E0FCB8C02120E0FA38E7A
:101E130002120E0FBD8F02120E0F369002120E0F1A
:101E2300A89002120E0FCA9002120E0F5E910212B8
:101E33000E0F329302120E0F099702120E0F1D9707
:101E430002120E0F2D9702120E0F379702120E0F6A
:101E5300409702120E0F499702120E0F5397021268
:101E63000E0F809702120E0FA99702120E0FB4974E
:101E730002120E0FD89702120E0FFC9702120E0FCA
:101E8300669802120E0FAC9802120E0FC998021236
:101E93000E0F469902120E0F7D9902120E0FBC9976
:101EA30002120E0F099A02120E0F8F9A02120E0FD0
:101EB3005D9C02120E0FE09C02120E0FC49D0212D3
:101EC3000E0F2BA002120E0F84A002120E0FCEA033
:101ED30002120E0F29A202120E0F5EA202120E0FA1
:101EE300B0A202120E0F65A302120E0F14A4021267
:101EF3000E0F51A402120E0FE6A402120E0F52A5EA
:101F030002120E0F7C2D00120E0FAE2D00120E0FBB
:101F1300DC2D00120E0FB22F00120E0F92300012A2
:101F23000E0FEA3000120E0F253200120E0F71321F
:101F330000120E0F9A3500120E0F8D3800120E0F7D
:101F4300DD3900120E0F733A00120E0F7F3A0012A2
:101F53000E0FB13A00120E0F343C00120E0FE53D86
:101F630000120E0F793E00120E0FBC3E00120E0F30
:101F73003A3F00120E0F573F00120E0F873F001219
:101F83000E0FBC3F00120E0F8C4000120E0F354196
:101F930000120E0FBB4300120E0FDB4400120E0F94
:101FA300C64500120E0F484600120E0F7C4A00125F
:101FB3000E0FB94A00120E0F114B00120E0F444BB5
:101FC30000120E0FAE4B00120E0FE44B00120E0F59
:101FD3006F4C00120E0FC74C00120E0F9E4D0012D5
:101FE3000E0F574E00120E0FF24E00120E0FFA5143
:101FF30000120E0F165300120E0FB95600120E0FD9
:10200300AD5700120E0FB05700120E0FDF5700121C
:102013000E0FE55900120E0FBE5A00120E0F015B90
:1020230000120E0F575C00120E0F965C00120E0F7B
:102033001F5D00120E0F535D00120E0F185E00128B
:102043000E0F306000120E0FA16000120E0FE16040
:1020530000120E0F6F6100120E0F916200120E0F2D
:10206300536300120E0F5A6500120E0F72650012B1
:102073000E0F866500120E0FBE6500120E0FEC6583
:1020830000120E0F6B6700120E0F906800120E0FF6
:10209300ED6800120E0F9F6900120E0FC669001241
:1020A3000E0F8D6A00120E0F256B00120E0F4B6D73
:1020B30000120E0F806D00120E0FE36D00120E0F53
:1020C300126F00120E0FBA6F00120E0FEB6F001299
:1020D3000E0F037000120E0F927000120E0F467354
:1020E30000120E0F1E7500120E0F3A7500120E0F1E
:1020F300567500120E0F247600120E0F177A001277
:102103000E0F768401120E0FA88401120E0F97880A
:1021130001120E0FE38801120E0F298901120E0F0F
:10212300CB8901120E0F278A01120E0F6C8A01123E
:102133000E0FB38B01120E0FC78C01120E0FB69048
:1021430001120E0F3A9101120E0F479201120E0F58
:10215300A39201120E0F939401120E0F0895011210
:102163000E0F129501120E0F1F9501120E0F4A95B5
:1021730001120E0F319601120E0FDB9601120E0F94
:10218300599701120E0F799701120E0FA2970112A0
:102193000E0FC49701120E0F249A01120E0FEA9A22
:1021A30001120E0F2F9B01120E0FAC9B01120E0F8B
:1021B3005D9C01120E0F8F9C01120E0FD59C011214
:1021C3000E0F119D01120E0F619D01120E0FB59D91
:1021D30001120E0F0B9E01120E0F579E01120E0FCE
:1021E300C49E01120E0F3F9F01120E0F0AA101128E
:1021F3000E0F0AA201120E0F2FA301120E0F6EA6CD
:1022030001120E0F81A901120E0F3EAA01120E0F29
:1022130082AA01120E0F32AC01120E0F46AC01124C
:102223000E0F50AC01120E0F5AAC01120E0F66AC1A
:1022330001120E0F82AC01120E0F2DAD01120E0F03
:102243006CAD01120E0F76AD01120E0F80AD0112AF
:102253000E0FF0AD01120E0F3BAE01120E0F50AF79
:1022630001120E0FACAF01120E0F2DB001120E0FA3
:10227300ECB001120E0FF5B101120E0F29B30112CA
:102283000E0F17B401120E0F2FB401120E0F8AB4E2
:1022930001120E0FA8B401120E0FF0B401120E0FAB
:1022A30017B501120E0FB2B501120E0F78B6011257
:1022B3000E0F0AB701120E0F84B701120E0F9EB84C
:1022C30001120E0F4BB901120E0F73BA01120E0F4A
:1022D300C3BA01120E0F27BB01120E0F89BB0112E5
:1022E3000E0FB7BB01120E0FDBBB01120E0F10BC9A
:1022F30001120E0F41BC01120E0F74BC01120E0F1E
:1023030094BC01120E0FFCBC01120E0FF0BD0112A2
:102313000E0F4BBE01120E0F74BE01120E0FFCBE48
:1023230001120E0F7FBF01120E0FAABF01120E0F73
:102333008FC001120E0F67E503120E0F9FE5031204
:102343000E0FC0E503120E0F02E603120E0F64E632
:1023530003120E0F6EE603120E0F7EE603120E0F2C
:10236300B9E603120E0F99EA03120E0F86EC03125D
:102373000E0F6CEE03120E0F03EF03120E0FA5EFF9
:1023830003120E0F91C201120E0F0FC301120E0F93
:102393006BC301120E0FB6C301120E0FD1C301128C
:1023A3000E0FFCC301120E0F19C401120E0F25C428
:1023B30001120E0FBCC501120E0FD5C501120E0F6F
:1023C3005AC601120E0F6DC601120E0F8CC60112F2
:1023D3000E0F30C701120E0FB1C801120E0F64CADF
:1023E30001120E0FFACA01120E0FFDCA01120E0FCF
:1023F3006DCB01120E0F8BCB01120E0F22CC0112EB
:102403000E0F6ACC01120E0F6DCC01120E0F33CDDD
:1024130001120E0FA0CD01120E0FC6CD01120E0F29
:1024230051CE01120E0F6FCE01120E0FB5CE011257
:102433000E0F69CF01120E0FB3CF01120E0FE2CFB1
:1024430001120E0F3FD001120E0F74D001120E0FA6
:10245300A0D001120E0FAED001120E0FFBD001124D
:102463000E0F6BD101120E0FB4D101120E0F00D259
:1024730001120E0F2CD201120E0F37D201120E0FC2
:1024830055D201120E0F40D301120E0F4AD301127F
:102493000E0F85D301120E0F95D301120E0F9ED38B
:1024A30001120E0FF2D301120E0F06D401120E0FFA
:1024B30035D501120E0F4CD501120E0F61D5011245
:1024C3000E0FEFD501120E0F34D601120E0FC0D628
:1024D30001120E0FCBD601120E0F0DD801120E0FE3
:1024E30028D801120E0F74D801120E0FE3D801126F
:1024F3000E0F1CD901120E0F36D901120E0F78D907
:1025030001120E0F48DC01120E0FF5DC01120E0F43
:1025130062DD01120E0FA2DF01120E0FBADF0112EC
:102523000E0FBDDF01120E0FC9DF01120E0FDDDF2B
:1025330001120E0FE5DF01120E0F18E001120E0F4C
:102543001AE101120E0FA1E101120E0F11E20112A5
:102553000E0F93E201120E0F54E301120E0F73E3F9
:1025630001120E0F14E401120E0F71E401120E0F8B
:1025730074E401120E0FA1E401120E0FB6E401126E
:102583000E0F2AE501120E0F79E601120E0F7FE7F7
:1025930001120E0F0AE801120E0F25E901120E0FA8
:1025A300EDE901120E0F1EEA01120E0F41EA0112AC
:1025B3000E0F4AEA01120E0F79EA01120E0F09EB10
:1025C30001120E0FBFEB01120E0F34EC01120E0FAE
:1025D300DBEC01120E0F50ED01120E0F87ED01120D
:1025E3000E0FC5ED01120E0FFBED01120E0FF88554
:1025F30004120E0F558504120E0F558404120E0F8C
:102603006E8304120E0F5E8104120E0F6C8004128F
:102613000E0F0A8004120E0FD19703120E0FC797E5
:1026230003120E0F5C9703120E0F46E302120E0FF6
:10263300A3E202120E0F8D9503120E0F4B95031298
:102643000E0F5DE202120E0F28E202120E0F4F94DC
:1026530003120E0F239403120E0FDA9303120E0FBD
:102663001B9303120E0F079003120E0FC88D031254
:102673000E0F958D03120E0F3C8D03120E0FCF8C90
:1026830003120E0F8E8C03120E0FC78B03120E0F45
:10269300618B03120E0F008B03120E0FA08A03121D
:1026A3000E0F778903120E0F0B8903120E0F638827
:1026B30003120E0F5E8803120E0F528803120E0FC1
:1026C300858403120E0F5F8403120E0FF5E10212CD
:1026D3000E0FE0E102120E0FB5E102120E0FE589B3
:1026E30004120E0FB18904120E0F5A8904120E0F31
:1026F300C88704120E0FFD8303120E0F9E8303126D
:102703000E0F5F8303120E0F4C8303120E0F1A87F3
:1027130004120E0F418303120E0F108303120E0FC8
:10272300FD8003120E0F708003120E0F7D860412BC
:102733000E0F2C8003120E0FB9CF02120E0F008062
:1027430003120E0F02FB03120E0FD5FA03120E0F24
:10275300A2FA03120E0F7AFA03120E0F1BFA0312D8
:102763000E0FFBF903120E0FC6F903120E0F72F6CA
:1027730003120E0F5AF403120E0F44F203120E0F3C
:10278300C4F103120E0F70F103120E0F24F10312A2
:102793000E0F738604120E0F7CF003120E0F76F8E1
:1027A3000100000080FB8F00010007198700010072
:1027B300051935000400CE1825000200D2182600A2
:1027C3000200D41827000200D61828000100E018E0
:1027D30029000100E1188400040079168600010035
:1027E30097182A000100E2182B000100E3182C00BF
:1027F3000100E7182D00080085162E000100E818D7
:102803002F000100E91830000100EA18310001002F
:10281300EB18320001008D16330001008E163400D0
:102823000100EC18360001008F1638000100ED1886
:1028330039000100E6188300020003196300010058
:102843009B1664000100E41865000100E5186D00A3
:1028530001009C16710008007D1666000100021934
:1028630043000100F31844000200F418450001007E
:10287300F61846000200F7184700080093164800B0
:102883000100F9184B000100FA18040001000619B1
:10289300A10001000A19370001000919880001008D
:1028A30008193C00010090163D000100EE18490094
:1028B3000200FB18670001009D164D000200FD1881
:1028C3004E000100FF184F00020000193E000100F6
:1028D300F21851000100911652000100F018530044
:1028E3000100F118540001009216000000000000DE
:1028F300000136360101000102010001030100015C
:102903000401060605020000070100340801000F58
:10291300090401010D0100FF0E0800001702000069
:10292300190100FF1A0100011B0100FE1C01000830
:102933001D0200001F01000120010001210200000F
:102943002301000F240200002601000127010008D3
:10295300280200FF2A0100072B0102402C0100007E
:102963002D0100012E0100012F0100FF30010B1D7D
:10297300310800003A0100083B01000F3C0100014F
:102983003D0100FF3E040000420400004604000035
:102993004A0400004E0400005204000056040000E4
:1029A3005A0400000103710301030103010301033E
:1029B30001032203020301031003000300030003C6
:1029C3000003000300030003420300032403060380
:1029D3000003000304031203250323032503230336
:1029E3000403040300030003000344030003000380
:1029F300230300036503210035038103000305035B
:102A030000030003000300032503230303027102F1
:102A1300300160021102700201020202020280020E
:102A2300100261023A004100630273027202620201
:102A330043020002130238000002000204021202E1
:102A43000002000200020002040204023700370001
:102A53003C02440200023900000200026502000247
:102A63003502810200020502820283020002010193
:102A73007101010101011101010131010101010193
:102A83008001100161013B001400630173017201B5
:102A9300620143010001130106013D0135000401F8
:102AA30012010001000100010001040104013301CE
:102AB30033013C014401320136000001000165018C
:102AC300000135008101000105018201830100013C
:102AD3000300710030016000110070003102200317
:102AE30050048000100061000000140063007300B4
:102AF30072006200430000001300060000000000A3
:102B030004001200000000000000000004000400A4
:102B1300370037003C0244000000000000000000C2
:102B230065000000350081000000050000008300FF
:102B3300000036000100060000000F000000000046
:102B4300000000000000000003FFFF00000403FF7B
:102B5300FF0000FFFF0FF4010005C4040320000180
:102B630000000B000000000000000003010F000044
:102B73000000000000000000000000000000000052
:102B83000000000000000000000000000000000042
:102B9300281946192E198C180000000000000000A7
:102BA300000000000000000034198C180000000031
:102BB3003A198C18000000000000000040198C181E
:102BC3000000000000000000000000000000000002
:102BD30000000000000000000000000000000000F2
:102BE30000000000000000000000000000000300DF
:102BF300200172840000000020017484000004009E
:102C0300420188830000050042016B830000070036
:102C1300300175840000FDFF21016E840000060071
:102C230042014A83010020002001B5180100210060
:102C33002001B6180000801B0100801B0200F61A59
:102C43000280F01A0300FC1A0400021B0480081B14
:102C530005000E1B06001A1B31002C1B3300321B10
:102C63003400381BFFFF00000300030004000800CA
:102C730010001F003E007B00F600EC01D703AF07F6
:102C83005D0FB91E713D000007ECFDFDFDECDCDCC2
:102C9300CCBCACAC9C9C8C7C7C6C6C5C5C5C4C4C11
:102CA3003C3C2C2C1C1C03EAF5E5D5D5C5B5A595F4
:102CB30095858575756565555545453535252515C1
:102CC30015050A7A21024421055021074A210C2CBB
:102CD300210D3821FF000000160F00000B150B0219
:102CE3000002220F3300000E0FD0D1D2D3D4D5D699
:102CF300D7D8D9DADBDCDDDEDF5A696742656541A7
:102D03006C6C69616E636530393030161819202395
:102D13001A1C1E3000034D4C4651181A250502009B
:102D23000119161816161823030030301718192125
:102D3300301B1D1F30003C40423A3F3F392F473084
:102D43000C0E020B040B0A0708000F020402010118
:102D530001010902E803000000BE040A01000E009D
:102D63000300E803FF040909031004030A0C041E0B
:102D73000828020C0508151E14C082C08312120E07
:102D83009016C6741CF0A3741FF09016C87422F03A
:102D9300A3741FF09016CA7428F0A3741FF0901642
:102DA300CC742EF0A3741FF0025AB774F71208986C
:102DB3009016BAE4F0E99016B9F07C937D167ABBCD
:102DC3007B161218689018F9E09016C3F09016C499
:102DD300747DF0A37416023D4474F0120898EAFE61
:102DE300EBFF54807003022F4D9016B9123DD9703A
:102DF30003022F46EA241B125644707CEA241F1256
:102E0300564464137002A3E0706E8A828B83122F80
:102E13009B9016D4124BD6750A00750B00800D12C9
:102E23003C1A126CB612176CAA0EAB0FEA4B604831
:102E33008A828B83E0650C7004A3E0650D702C8A95
:102E4300828B83A3A3A3A3E0F50EA3E0F50FE50A0A
:102E5300450B8A828B83A3A3A3A360C3123F1C8564
:102E63000A82850B83A3A3A3A380B78A0A8B0B8A49
:102E7300828B83124BD280B4E508242A125644FC79
:102E8300E5082402F8E43509F9E8FAE9FB9016D4D9
:102E9300123082A3A3E06402703C8A828B83124BBC
:102EA300D6800B88828983A3A3A3A3123F1CE8497E
:102EB300601F88828983E06A7003A3E06B70E488F3
:102EC300828983A3A3E06C70DA9018FF125974808F
:102ED3006BECF9121F58850882850983E064017041
:102EE3004FE5082418122F84120E6812625E120C2A
:102EF30087E5082412122F84120E68E508123DCDCF
:102F0300120E64E508240B126262120C8BE508248E
:102F130017123D6AE5082402FCE43509FDE508249F
:102F230019FAE43509FB12277A740A120E77800C1A
:102F3300E064027007AA08AB09122036AA08AB099D
:102F43001216D0EEFAEF6480802DEA5402600C90E2
:102F5300191A7401F0EA6402FA8023EA5408601A29
:102F6300121F52EA4B700B9016D61261397A08126F
:102F73002F91EE6408FAEFFB80047A007B0002686D
:102F8300E8F582E43509F583E0F50A780A22FB9037
:102F930016B9E0F912183822A3A3E0F50CA3E0F563
:102FA3000D227B009016B9E0F912182C74042274D8
:102FB300F41208988A088B098A828B83A3A3A3122D
:102FC30049CE123D7538F583E02409FA1268807002
:102FD300030230758A828B837402124A4385088206
:102FE300850983123082E8F0A3E91264FA8A828B9E
:102FF30083A3A3A3A3A3A3A3A3F0E5082403F8E453
:103003003509123077123D753AF583E08E828B8352
:10301300A3A3A3A3F0EE2409FAE43FFB8E828F83DC
:10302300A3A3125C26F5838882E0A2E58E828F83B8
:10303300A3A3A3A3A3500474018001E4F0E508242F
:1030430003F5828983124BD6EA1251573BF583125B
:103053006847120E60123D743B125D188E828F8397
:10306300A3A31279F6120E77EEFAEFFB9016B912BC
:1030730068CD8016F98882F583E0FAA3E0CA2212AC
:103083004D73A3A3227402120E777F04020BBC7448
:10309300F21208988A088B09ECFAEDFB740E1211F0
:1030A30053E0FC1212448A0C8B0DAE0CAF0DEA4FA9
:1030B3006030AC08AD09121232E96026AC08AD09E4
:1030C300EEFAEFFB121238E970148E828F83123FEF
:1030D30009FAEFFB12122CAA08AB0912125C790051
:1030E300800279B4024CC274F012089874F6120F7D
:1030F3000BEAFEEBFF8C088D09750FB385218285E2
:103103002283E4F0750E008002050E902D7BE4937C
:10311300F8E50EC3984003023211AA0E7B00121287
:10312300808A0A8B0BEA4B60E08A828B83A3A3120B
:10313300321828F0F8C3EE98EF940050CC7C157D3C
:10314300007900AA08AB091216B8850A82850B8399
:10315300A3A3A3A3126CF3E0F8EEC3982925E0F828
:10316300E433F9E50A28F582E50B39F583A3A3A334
:10317300A3A3A3123D7FA312579B8A0C8B0DAC0C08
:10318300AD0DAA08AB09121868850A82850B83A3C3
:10319300E06401700A12625E7401123D918044740E
:1031A30001120ED5850A82850B83124BD412126845
:1031B300E9603D7409121153E0C0E012625ED0E091
:1031C300F07409121153E0640370137401120ED5E5
:1031D300E508240BFAE43509FB1218688012740120
:1031E300121153123F1CE5081257813509126CB4B2
:1031F300850A82850B8312626A123D91A3A3E0C004
:10320300E0E5082414126262D0E0F0750F00A90F04
:10321300740A0268E5A3A3A3E0F8852182852283CB
:10322300E02274F7120898E9FE8A828B83A3A3A392
:10323300A3A3A3E0540860338A828B83A3A3A3A32D
:10324300A3A3E0540260218A828B83A3A3A3A3A335
:10325300A3A3A3A3E06406600F74E96E600A74CDB0
:103263006E600574F06E7003121F3A0245C174F06C
:1032730012089874EF120F0B740F12115312601D82
:103283007408121153E9F0ECFEEDFF7405121153AB
:103293001243891245ADA3E0F912125074061211BC
:1032A3005312601D74061211531251E87003023554
:1032B3002C123DB9E0FA7406121153E0F9121E7A8A
:1032C30012358CF8A3E0F9E849700302352CEE249B
:1032D30003F50AE43FF50BEE2406F508E43FF50990
:1032E3007C00850882F583124BD6850A82850B8381
:1032F300E0F9121256740312115312601D850A82EB
:10330300850B83E0C0E0852182852283123585D039
:10331300E01252FDF9852182852283123C21124E4F
:103323004F12321BFAA3E0CA2407F582E43AF5836D
:10333300E8F0A3E41260282406F582E438F583E478
:10334300126CC01249C2120E60EE123D753F125D3F
:103353001874031211531249CE24091279F0120E74
:10336300777429121153126CED12307C1253103AF8
:10337300126CB4742B121153E0C0E08521828522B4
:10338300831251AFD0E0F07402121153E4F07425AC
:1033930012115378081210FC023483740312115370
:1033A300125CE08882F583123574A3A3A31257A697
:1033B300FB12126E850E82850F83A3EAF0A3EBF056
:1033C3007403121153123585A31235741259B5A221
:1033D300E6500F850E82850F83A3A3A3A3A3E0D298
:1033E300E1F07405121153E0706B850E82850F8333
:1033F300A3123F1C901714E0687003A3E069705593
:10340300850E82850F83A3A3A3123D54750C007808
:103413000C120E687808120E5C7429121153E0F531
:103423000C780C120E687427121153120C8B901720
:1034330021120C8B79007419121153124BA612200E
:103443007E740A120E77850E82850F83A3A3A3A32E
:10345300A3E04405F07402121153E004FC8E828F42
:1034630083124BD08E828F83A3A3A3E0F91212564B
:10347300740312115312601D7402121153E004F00D
:1034830074031211531251E860677402121153E06E
:10349300FA7406121153123F1CC3EA98E49950516F
:1034A300740212115312385E852182852283E0282B
:1034B300F8A3E039F9E8240FF50EE439F50F850E8A
:1034C30082F583E4F0740312115312357F640160B3
:1034D3000302339E740512115374011268D3F074FE
:1034E30003121153125AA7123881E8F0A3E90233E9
:1034F300C2852182852283124BD6121E80852182AA
:10350300852283120C8B7426121153E0FD7425124D
:103513001153E0FC740A121153E0F9EEFAEFFB12B7
:103523001F347402120E7780438E828F83A3A3A36A
:10353300E0C0E0740C121153D0E0F012673CE0C01D
:10354300E0740D121153D0E0F074061211531251AE
:10355300E87009740E12115374B98007740E1211B6
:10356300537410F07409120ECD122078741102688E
:10357300E5E0850E82850F83A3A3A322E01252D533
:10358300E022E01252D5A3A322852182852283EA79
:10359300F0A3EB1251F12274F012089874E1120FA8
:1035A3000B7404121153E9F07403121153ECF07409
:1035B30002121153EDF08A0E8B0F742F1211531256
:1035C3002F9DAA0CFB121E6E7401121153E9F0AA6F
:1035D3000CAB0D121E747401121153E07003023808
:1035E30059852182852283E480158E828F83A3A34C
:1035F300A3A3A3E0D2E3F0852182852283E0041212
:10360300682BF8852182852283E0C3984003023822
:10361300507401121153E0700302385085218285E2
:10362300228312385EE50C28F8E50D39F9E8240FFA
:10363300FEE439FF8E82F583A3A3A3A3A3E0A2E054
:1036430040B5750800750A08750B00740212115312
:10365300E060037508207C087D0079007405120E74
:10366300CD1216B88E828F83E0603E901764E064BB
:1036730001701AE508D2E3F508750B1012386E12C3
:103683001153E8F0A3E912569974FF807643080CAE
:10369300750A0C8E828F83A3123879126CB6740567
:1036A30012115374FFF0A3805A7404121153E06093
:1036B30009E508D2E6F508750A0A8E828F83A3E02E
:1036C30064FE7003A3E0F470307412121153740497
:1036D300126288F8741D121153E8124A43741212CD
:1036E3000ECD121D9C7D007C0079007415121153C0
:1036F300AA82AB83121B68800B12386E121153E837
:10370300F0A3E9F07407121153E508F0123DB0C0BD
:10371300E07409121153D0E0F0740A1211537401CA
:10372300F07405120ECD12203C7411121153E06097
:103733000302382E740D1211531252F88E828F83A6
:10374300A3A3A3A3F0740D121153124A11E50AF0B7
:10375300A3E50BF07403121153E0C0E01249A2D0A9
:10376300E01259B56011901764E0C0E0740D1211B6
:10377300531249ECD0E0F0740D121153123F1C8523
:103783000C82850D83A3A3A3A3A3123867241C1261
:103793006017126CD01238691259673912675BC00F
:1037A300E0124989D0E0126820C0E0740D12115371
:1037B3001244CFD0E0126521C0E0740D12115312F0
:1037C30044C5D0E0F0740D121153123879123867E2
:1037D300242A126017850E82850F83A3A3A3A3A3B4
:1037E300A3A3A3E0126010123D9FC0E01244B1D026
:1037F300E0F0740D121153124BD6850E82850F83A0
:103803001268362428F582E43B126CB4123DA812E8
:103813006847120E60125D11EA125FA93B1279F438
:10382300120E777405120ECD1220428E828F83A35F
:10383300A3A3A3A3E0D2E0F07411121153E0600339
:103843000235ED7401121153E0140235F97900AA1F
:103853000CAB0D121F40741F0268E5E075F007A45E
:10386300F8A9F022A3A3124BDAE8228E828F83A356
:10387300123F20740522E0123881A3A3A322F8A3E8
:10388300E0F9850E82850F83A32274F012089874E1
:10389300E8120F0BE9852182852283F08A0E8B0FB4
:1038A3008A828B83A3A3A3A3A3A3A3A3E0F9121EDA
:1038B300988A088B09EA4B700302396AE50E1251A4
:1038C3006B123DC8123D5F852182852283E0600330
:1038D30002396D7C04850E82850F83A3A3A3A3A362
:1038E300A3A3A3E0F9121E9EEE4F607B8E828F830B
:1038F300A3A3A3A3123F1C740712115312614E1208
:103903003F1C7409121153124A73C0E0741112114F
:1039130053D0E01264FFA3A3A3A3A3A3A3123F1C4A
:10392300740F121153126CB67412121153E412680D
:10393300DBC8241FF582E438F583125CDCC413135F
:103943005403FC70027C048E828F83E0F9780812A2
:103953000E64742059FD744059F97403120ECD128C
:103963001F347402120E770268E37C08850E828589
:103973000F83A3A3A3A3A3A3A3A3E0F9121E9E8B68
:103983000BEA4B70030238EBEE4F60DB8521828537
:103993002283E0F50C780C120E6885088285098372
:1039A300A3A3A3A3A3A3A3E0F50C780C120E688A28
:1039B300828B83A3A3A3E0FB8A82850B83127513F7
:1039C3008A82850B83E0FA8E828F83A3A3E0F912A8
:1039D30027807402120E770238EF74F71208987476
:1039E300FA120F0BE9FE780179017F008003790059
:1039F3000F124D52E0FCEFC39C5026EF75F007A465
:103A0300FC85F008AD08EA2CFCEB3DFD124341E0D8
:103A1300A2E050DA540C60D6E0A2E250D3780080E2
:103A2300CF8A828B83A3A3A3A3A3A3E0703DE9A2C0
:103A3300E0400574016E70338A828B83A3A3A3A332
:103A4300A3A37401123D31E0C0E07403121153D0FB
:103A5300E01243A0E0C0E07404121153D0E0F0740C
:103A630005121153E8125C7B12207874060245BEDE
:103A7300C082C0837901121F40025AB774F412083E
:103A830098EA4B90191A6019E4F08A088B09F50A31
:103A9300F50B7808120E5C7A02122FA5120E7780AE
:103AA3000A7401F07A027B00122F9202308D74F0B7
:103AB30012089874F3120F0B7403121153E4F0A35A
:103AC300F09016D4123D5F7401121153E4F0A31267
:103AD3004A4804F090170EE0A2E35003023BA412FD
:103AE3003D25740912115312113C740912115378B4
:103AF300081210FC9016D67808120EDD7405121108
:103B03005378081210ED123C2874051211537808EB
:103B13001210A050077A017B00023C1574051211A4
:103B230053780C1210FC9018FEE0F509780C790814
:103B3300120829A80CA90D9018FFE0C398E4995026
:103B430003E08001E8852182852283F07409121144
:103B53005378081210FCC008C009C00AC00B7405D2
:103B6300121153780C1210FC123C28780C790812AD
:103B73000829E4F50AF50BD00FD00ED00DD00C7840
:103B83000C7908120FB09016D6780C1210ED801134
:103B9300123C1A126CB6EEFAEFFB12176CAE08AFBA
:103BA30009EE4F60658E828F83123218C398502DB1
:103BB300EE2403F8E43FF9E0FA88828983E0C39AAC
:103BC300F0602374031211531240827401121153D3
:103BD300EEF0A3EF126169FEA3E0FF80C48E828F33
:103BE30083A3A3A3E4F08E828F831279AD740112B1
:103BF30011531251E88E828F83A3A3A3A360911262
:103C03006142121153123C21808974031211531221
:103C13004BD6740D0268E5123F209016D422125D34
:103C230007A3A3A3229018FD1279B5E4F50AF50BB7
:103C33002274F01208988A088B09890A780079009F
:103C43009016D4123D5FFBEE4B601E088E828F836D
:103C5300A3A3A3A3124BA0601008E87001098E82EE
:103C63008F83123D5BEA4F70E3901900124BD6C36A
:103C7300E89AE99B4003023D187A06123D1BA80C03
:103C8300A90DEA497003023D188A828B83E508F087
:103C9300A3E509123D3AE50AF09018FF124D5A12B6
:103CA3003D31A3E4F0A3F09016D4124BA0600D8E27
:103CB300828F83A3A3A3A3126CB680179016D4128A
:103CC3006CB690170EE0A2E34009123D259016D67C
:103CD30012113C90170EE0A2E3503A7A087B009051
:103CE30016B9E0F912183EEA4B4C4D70289018FDB6
:103CF300E0F508A3E085080CF50DE4F50EF50F7863
:103D03000C120E5C7A087B009016B9E0F912183297
:103D13007404120E770268E87B001217668A0C8B14
:103D23000D22121850EAF8EBF9ECFAEDFB22123DE2
:103D33003522123D3AA322F08A828B83A3A322E584
:103D430008F00245C1F08E828F83A3A3A3A3A3A38C
:103D530022125652A3A3F022A3A3A3A3E0FEA3E03F
:103D6300FF227F05020BBCF582E43509F583E0F9F8
:103D730022EA123D79222410F582E422123D87A320
:103D8300A3A3A322123F2485088285098322123D1F
:103D93009522F0850A82850B83A3A322E50E2411C5
:103DA300123DC5E022E50E240E123DC522E50E2488
:103DB30010123DC5E022123DBD22EE123D793FF5C2
:103DC3008322F582E4350FF58322240FF50AE435C7
:103DD30009F50B780A22E0F91216E28A088B09EA40
:103DE3004B2274F2120898890B8A088B098A828BFA
:103DF30083124BD6121F64EA4B600479B8806A12AF
:103E03001F70E9F8902D6CE493F9E8C399400479A5
:103E1300B280567A15123D1BAE0CAF0DEA4F7004FB
:103E2300791080458A828B83E4F0A3123D3AE50B37
:103E3300F0750A007808120E607C127D00EA2403F4
:103E43001267F2120E779016DA1251E87008901684
:103E5300DA800C123F1C88828983123E6F70F4EE65
:103E6300F0A3EFF0121F827900024CC2124BDAEA80
:103E73004B8882898322C082C0839016DA80048CA7
:103E8300828D83127514EC4D60288C828D83A3A3DD
:103E9300E069600574FF6970E68C828D83A3A3A338
:103EA300E06A7003A3E06B70D6EC2403FAE43DFBF5
:103EB30080047A007B00025AB774F7120898E9FD70
:103EC30074FE6D70047C0180027C009016DA800918
:103ED3006D70027C01888289831251E8601F888299
:103EE3008983A3A3A3E06A7003A3E06B70E7ECA24A
:103EF300E088828983A3A3E050D6F9800279FE0289
:103F030045C1EEF9800CA3A31279B5EE2274021217
:103F13000E777F02020BBCF583123F2022123F244F
:103F230022E0F8A3E0F922123F248E828F8322122B
:103F33000E777F03020BBCC082C08379009016DA30
:103F4300800109E0FAA3E08A82F583E58245837064
:103F5300F1025AB774F6120898E4F508F5097808DF
:103F6300120E64902D6CE49375F013A4A9F0124023
:103F730077126D14120E77E9FE74096E7003121F27
:103F83007C023F0574F612089874FE120F0B85210C
:103F930082852283E4F0A3F0A821A9228808890955
:103FA3007808120E647508027509007808120E6409
:103FB300126985120E77023F1074F512089874EB9C
:103FC300120F0B852182852283E4F0A3F09016DA89
:103FD30080748E828F83A3A3E0C0E0740212115316
:103FE300D0E0125699A982AA8389088A09750A0022
:103FF3007808120E607C127D007406121153126C45
:10400300D9120E777402120EC5880889097808122E
:104013000E647508137509007808120E647404128F
:10402300115312518B75F013A4F8AAF075F013E92C
:1040330012407312698D120E7785218285228312B5
:1040430040828E828F83123D5FEE4F7085A821A937
:1040530022880889097808120E6475080275090018
:104063007808120E64126985120E777415023F32B6
:10407300A42AF9E82402FCE439FD7A427B0022E019
:104083002401F0A3E03400F02274F412089874EBD6
:10409300120F0B7E007F00A821A9228808890978C6
:1040A30008120E647508028E097808120E647C00EB
:1040B3007D007A42126D20120E77E9706C8E0880B3
:1040C300567402120EC5880A890B780A120E64759B
:1040D3000A13750B00780A120E64E50875F013A431
:1040E300F8AAF075F013E509124073126D22120E4F
:1040F30077E9701B7403121153AA82AB8374021203
:104103001153E0F9121F5EE970050EEE70010F0501
:1041130008E50870020509852182852283123F1C68
:10412300C3E50898E509994098EEFAEFFB74150288
:10413300308A74F61208988C828D83A3A312438E5F
:10414300F0EA125FAF3BF583E0C0E012434BD0E0EF
:10415300F0EA241DF582E43B123F1A12432F124367
:1041630089F0A3F0EA241FF582E43BF583123D5F57
:10417300EC1243223DF583EEF0A3EFF01243283B0C
:10418300F583124359A3A3A3A3A3A3EEF0A3EF12B2
:104193005C0AFE8C828D8312439874035EFEC39483
:1041A300034003024315EE600874026E600302428B
:1041B3003A8C828D83E0540CFE740C6E70030242C1
:1041C30079E0A2E4400D88828983E08C828D83A309
:1041D3001243AE74086E60030242791243397401CC
:1041E300F08A828B83A3A3A3A3A312565F70148CBC
:1041F300828D83E0440C1243A0A3A3124359EEF033
:10420300A3EFF08C828D83E0A2E4402B88821243DB
:104213006712437C500109F582124367A3A3A3A34A
:10422300A3A3F0A3EF1243A88C828D83A3A3A3F0CF
:10423300E82403F850010988828983E0C0E0EC2474
:1042430011F582E43DF583D0E01243988C828D838F
:10425300E0A2E7507588828983E0FE8C828D831209
:1042630043AE74FC5E700C8C828D83A3E0540364B4
:1042730003701E024315124339E4F0740C6E60039D
:104283000241E4888212436D12437C5001090242C9
:10429300068C828D83A3E05403603288828983E095
:1042A300C0E0EC1243533DF583D0E01243AF8C8260
:1042B3008D83E054036402701488828983E0C0E034
:1042C300124341D0E01243AF8003A3E4F0EC125158
:1042D300573D126CB4EC2410FEE43DFFEA241DF5B7
:1042E30082E43BF583E0F5088E828F83E0C3982553
:1042F30008F508F0EA2417F8E43BF98882F583E02F
:10430300C39508C0E012432FD0E0125C0AC395089E
:10431300500A12432FE4F012434BE4F0023F1524FA
:1043230015F582E422EA240DF582E422EC240DF54E
:1043330082E43DF58322EC1253103DF58322EC24F5
:1043430014F582E43DF58322EC123D793DF5832299
:104353002413F582E422E0FEA3E0FF8C828D83A385
:10436300A3A3A32212436DA3A3228983E0F508A389
:10437300E0FFE5088C828D8322A3A3A3A3F0A3EF20
:10438300F0E82402F82212438EA322E4F08C828DFB
:1043930083A3A3A3221243B6A882A98322123D3585
:1043A300A3A3A3A3221243B6A3E022A31243B608F6
:1043B300A98322125C13A32274F412089874F312D3
:1043C3000F0B8A0A8B0BECFEEDFF8C82F583E05416
:1043D3000CF508E0A2E75006E508D2E7F508E50882
:1043E300D2E1F50812565F7006E508D2E4F508E05D
:1043F300A2E55006E508D2E5F5087C087D007900C2
:10440300AA21AB221216B87402121153E508126CDA
:10441300BAC0E07403121153D0E0124A48E50AF01F
:10442300A3E50BF07405121153126526121153E024
:10443300707774081211531249CE125BFC3812655F
:1044430041C0E074081211531244CFD0E012652129
:10445300C0E074081211531244C5D0E0F07408127E
:1044630011531244BBE01249F6124A77126010EE60
:10447300241112562BC0E01244B1D0E0F0EE241404
:1044830012562BC0E074081211531249CE2435F58D
:1044930082E438F583D0E0124A1BC0E0740812119D
:1044A300531249D2D0E012627A740D02308AE824A2
:1044B30032F582E439F58322123F2AA3A3A3A3A3EF
:1044C300A3221249E212672038F583221249E2241B
:1044D30026F582E438F5832274F71208987E008A61
:1044E300828B83A3A3A3A3A3A3A3A3A3E0640460D6
:1044F3000302459D125308E0600302459D12516A71
:104503003B1251E6700302459D88828983E0540380
:10451300600302459DE812531039F583E0FA8C825B
:104523008D83A3A3E0FBA3E0CB2411F582E43BF549
:1045330083E06A706588828983A3A3A3A3A3A3A34B
:10454300A3A31245A1E06A7003A3E06B704C8882B9
:104553008983A3A31245ADE0FFA3E0CF240612563F
:104563002B6A7003A3E06B703188828983A3A3E075
:10457300F88C828D83A3A3E0F9A3E0F5838982A35A
:10458300A3E06860138C828D83A3A3A3E0F58389E2
:1045930082E0540C640470027E01EEF9802012451F
:1045A300A522124BDE8C828D8322A3A31245A5A3E1
:1045B300A322740C121153E0F9740D120E777F01CC
:1045C300020BBC74F612089874FC120F0BEAFEEB94
:1045D300FFECFAEDFB8C82F583A3E05403601690A5
:1045E30016D01251E860597900EEFCEFFD125E0718
:1045F300120A82804B852182852283EEF0A3EFF09D
:104603007402121153124A3DAC21AD227A9A7B1FD8
:104613001221C28A088B09A808A909EA4960218ADC
:10462300828B83A3A3A3A3A3A3A3A3A37406F07A58
:104633000088828B831249CE125FD0E0F9122120C9
:104643007404023F1274F212089874F3120F0BEA07
:10465300FEEBFF8A82F583A3A3A3A3A3A3A3A3A330
:10466300A3E0F50A90191AE0700579BA0249867534
:104673000801750900750C00750D007C087D007933
:1046830000AA21AB221216B8740512115374011239
:104693004A50540460127402121153E0D2E6124AD3
:1046A3005054087003750803E054106006744045C5
:1046B30008F508E0540860227402121153E044C064
:1046C300124A505420600A7403121153E0D2E0805E
:1046D300087403121153E0D2E1F0EE241512562BA5
:1046E3001249B67003740169700674084508F50829
:1046F3008E828F83A3A3A3A3A3A3A3A3E070161205
:10470300221C85218285228312601D74021211539B
:10471300E0D2E28030640F70107402121153124A17
:104723005874044508F508807F8E828F83A3A3A362
:10473300A3A3A3A3A3E064028E828F83700A126CE7
:10474300EDE8F0A3E9F08060A3A3A3A3A3A3A3A32D
:10475300E06403700DAC21AD22EEFAEFFB121FD023
:1047630080468E828F83A3A3A3A3A3A3A3A3E06402
:10477300017035901764E060107402121153124AED
:1047830058750910750AFF80187402121153E0441A
:104793000C124A4874FDF0A374FFF074044508F545
:1047A300088E828F83122F9DEE241512562BA2E0C2
:1047B300503F7402121153E0540C701B8E828F838E
:1047C300124BD6121C34E9700579BB024986740278
:1047D300121153E0D2E5F0EE241512562BA2E0504D
:1047E300107402121153E0540C64047004E0D2E517
:1047F300F0EE241112562BC0E07404121153D0E0D2
:10480300126528121153E0600302497F74081211E4
:1048130053124A11E508F0A3E509F01249ACE0C0D0
:10482300E01249A2D0E0F0124993E0C0E07408120C
:1048330011531249CE12435338F583D0E0124A770D
:1048430064017011901764E0C0E0740812115312F0
:1048530049ECD0E0F07408121153124A0C12499D2E
:10486300FAE8241CF582E439F583EA124A43EE247C
:1048730015FAE43FFB8A82F583127514E81259672F
:1048830039F583124A3DEE241C12562BC0E012491F
:1048930089D0E0125AAD1249B670037401697013DE
:1048A30074081211531252F8FAEE241D12562BF902
:1048B300121EA48E828F83A3A3A3A3A3A3A3A3A344
:1048C300E0C0E074081211531244CFD0E0F0740832
:1048D3001211531244C5E50AF07408121153125110
:1048E3008B2428F582E439F583E50CF0A3E50D125A
:1048F3004A231249F61256A4126010EE12499DC0C3
:10490300E0E82433F582E439F583D0E0F0EE241BAC
:1049130012562BC0E074081211531249D2D0E0F0A2
:10492300EE241A12562BC0E074081211531249CE0A
:104933002432F582E438F583D0E0124A1B1249C2CF
:10494300120E60126726127514740B12115312495A
:10495300CE242F1279F0120E77EE241512562B5413
:104963004060129016F01251E8600AAA21AB22129D
:104973005E07120A82AA21AB22122042740C121182
:1049830053E0F9024CBDE82420F582E439F5832293
:10499300EE2419F582E43FF58322126735E022E81D
:1049A3002412F582E439F58322EE2418F582E43FDC
:1049B300F583225480F8A3E05401F974806822F54A
:1049C30008A3E0F509750A007808221249E22212C9
:1049D30049E22434F582E438F58322A3A3A3A31286
:1049E30049E622E0F8A3E0C8221249E21243223842
:1049F300F58322FAA3E0FBE8242AF582E439F58360
:104A0300EAF0A3EB22A3A3A3A3123F20EE221251A9
:104A13008F12516F39F58322F0EE24131256AC2214
:104A2300F0EE240D1256AC22E0FC8A828B83E02C3C
:104A3300FCA3E03400FD8A828B83ECF0A3EDF0222B
:104A4300F0A3E4F022F085218285228322F0EE2474
:104A5300151256AC22E0D2E3F0124A60228E828F06
:104A630083123F24852182852283E8F0A3E9F02283
:104A7300E8F0A3E9126163E02274F71208988A82CE
:104A83008B83A3E0640170047E6380027E648A8268
:104A93008B83E060087905124AB024F3FE90170C6B
:104AA300E06007F9124AB024F2FE02459D1220EAA3
:104AB300E9F8EEC3982274F612089874FE120F0BED
:104AC30085218285228312601DE9FEECFAEDFB90BD
:104AD30003811251E86032A821A922880889097844
:104AE30008120E647D01740E121153E0FCEEF9906E
:104AF3000381125FF1120A827402120E77EA4B608D
:104B0300047900800679B2800279B6023F1074F707
:104B1300120898E9FE9016C61251E8601F74091234
:104B23001153E0F5087808120E68EEF99016C612D4
:104B33005FF1120A827401120E77800279B6024580
:104B4300C174F71208988908ECFEEDFF79B5E50802
:104B5300245E602014600624F86034803D90038353
:104B6300124BA06035126D31120A828E828F83122E
:104B7300601D80249016C8127514EC4D601CEEFC69
:104B8300EFFD9016C8125FF1120A82E9F9800B90CB
:104B930016C4124BA612186879000245C1124BDAEB
:104BA300EA4B22127518EEFAEFFB2274F7120898FB
:104BB300E9FE79B574AB6E700B9016C4124BD61226
:104BC300186879000245C18E828F83A3A3A3A3A390
:104BD300A3A3A3124BDA22124BDE22E0FAA3E0FBDB
:104BE3002274F1120898EAFEEBFF8C0A8D0B75080C
:104BF30001901714E06E7003A3E06F700C124CB1B8
:104C0300AA0AAB0B121868805E122222EE6A7002A7
:104C1300EF6B7009AA0AAB0B122228804AAC0AADCB
:104C23000BEEFAEFFB121D78E9F508901905E07019
:104C3300361226B4E97030E508702C9016E4E06E65
:104C43007003A3E06F7020EE4F601C750CDC750DD4
:104C530016750E00780C120E607C087D00AA0AAB54
:104C63000B126CDD120E77A90802761074F212088B
:104C730098EAFEEBFF8C088D09750A01124CB1EE20
:104C8300FAEFFB121862E964017011901714123FD6
:104C93001C850882850983126CB6800EAC08AD09A9
:104CA300EEFAEFFB121D7EE9F50AA90A8011122222
:104CB300168A0C8B0DAC0CAD0D22740D120E777F82
:104CC30006020BBC74F6120898EAFEEBFF7A0D7B22
:104CD30000121766EA4B6062EE24241269BAF0EE02
:104CE30024251269BAA3124D7F1269C0A3A31267C8
:104CF30053124D5AF0EE124D40124D6FE8F0A3E9F6
:104D0300124D96124D67126CB6EE124D491268168B
:104D1300A3A3A3A3F0EE243312562BC0E0124D52EB
:104D2300D0E0126545124D67A3A3A3E8F0A3E912EF
:104D33004D8EC0E0125308D0E0F0023F15242AF54F
:104D430082E43FF58322242EF582E43FF58322EAB1
:104D53001257813BF58322124D5E22E08A828B83B8
:104D6300A3A3A322126875A3A3A3A322124D7322A4
:104D7300123F248A828B83A3A3A3A322F0124D8420
:104D830022EE2426F582E43FF58322F0EE2432124C
:104D930056AC22F0EE242C1256AC2274F41208986E
:104DA30074FE120F0BECFEEDFFEC241612562B646F
:104DB300057010EC2406FCE43FFD121FCAE97003E2
:104DC300024E4AAC21AD22126A6F121C3A8521822F
:104DD3008522831251E8606B8E828F83E0640170B9
:104DE30058E875F009A4F8AAF075F009E9A42AF9BE
:104DF300743D28F8740439F9E8FAE9FB8882F583ED
:104E030078081210FCEE124EEC1210A040278521F8
:104E130082852283124A0C125639124E4F78081299
:104E230010FC90844C78081210248A828B837808B3
:104E33001210ED800A79A28010EE240F126CB07963
:104E430000800679A1800279C8023088124A6DEE8B
:104E53001267412274F21208988A0C8B0DECFEED56
:104E6300FFEC125639E4F0A3F0908408780812108E
:104E7300FCEC124EEC120F4B6067EC240E12563210
:104E8300703478B390170BE0702890173DE06401FD
:104E93007020EC241112562BF91220D28B09A90988
:104EA300EE12516B3F12601BEA49600478008002E6
:104EB30078A18808802EE060046402700A121FDC67
:104EC300E9F5087007801DE064037010EEFCEFFD48
:104ED300AA0CAB0D121C5EE9F50880087508A180C9
:104EE300037508A3A908024CC2126741780822740B
:104EF300F012089874F5120F0BEAFEEBFFEA240A8E
:104F0300FCE43F8C82F5831279B11251757403125C
:104F13000ED58A828B83125E11E97003024FDB7414
:104F230001120ED57403120ECD121C3A7401121124
:104F3300531251E87003024FDBE875F009A4F8AA95
:104F4300F075F009E9A42AF9743928FC740439FDD1
:104F5300E508240E126262E4F004121153123F1C9E
:104F6300E50812516B3509126CB48C828D831211D2
:104F730030E508241212626212113C90844C7808C6
:104F83001210FC8C828D8378081210378C828D83EB
:104F9300780C1210FC9083E478081210FC780C79DA
:104FA30008120829E5084509450A450B702A7401CA
:104FB30012115312518B75F009A4F8AAF075F00978
:104FC300E9A42AF9744128F582740439F58374013C
:104FD300F07A007B081251988E828F83A3A3A3A338
:104FE300A3A3A3A3A3A3E02406FCA3E03400FD8EA4
:104FF300828F83125E11126533603EEE240A1251D2
:105003005D124A117468124A43E812515739F58305
:105013007402F09016F61211308C828D8312600A9E
:10502300125BFC3CF58312113C90844C78081210FF
:10503300FC9016F678081210371251D3705D901653
:10504300C4125183A3A3A3A3A3A3A3A3A3A3125CE7
:1050530032121862E97010125BF09016C4125C02EF
:10506300700512653360348E828F83A3A3A3A3A339
:10507300A3A3A3A3A3125183124BD6121C64E9600A
:10508300118E828F83A3A3A3A3A3A31251BFE4F022
:10509300A3F08E828F831251A5E4F01251D36003E3
:1050A3000251528E828F83A3A3A3A3A3A31279AD2C
:1050B30090170BE0600302514790173DE0640160D5
:1050C30003025147750A3A750B00780A120E64748D
:1050D30002120EC5880A890B780A120E64126FAC8D
:1050E300120E77E9705BE508240E126262740112F6
:1050F30051EDC0E0E5082411126262D0E0F0E5084A
:10510300240F126262743A124A439016F21211305B
:10511300E508241212626212113C90844C78081242
:1051230010FC9016F2780812103790844C7808120D
:1051330010FC9016F27808120F4B700812519480ED
:10514300031251751251D37006125AF374A1F074FD
:105153000B0268E5240EF582E422F8E43FF9E8FC4B
:10516300E9FD8882F58322EA12516F22240FF5822A
:10517300E422E50812516F3509F583E4F0A3F02228
:105183001275188E828F832212518F22123F24E8C8
:10519300227A007B0290159DE0F912170C228A8275
:1051A3008B83A3A3A3A3A3A3A3A3A3A31251B32258
:1051B3001249E6240EF582E438F58322A3A3A3A3C0
:1051C3001251C7221249E6240FF582E438F58322EF
:1051D3008E828F83A3A3A3A3A3A31249DE240FF577
:1051E30082E438F58312518F49221251F122F0855E
:1051F3002182852283E02274F6120898EAFEEBFFEF
:105203007A237B00121766EE240AF508E43FF509BA
:1052130085088212601B7C237D0079001216B885F5
:1052230008828509831251E870030252BBEEFAEF3C
:10523300FB121FE81251D360748E828F831252EED9
:1052430064018E828F83A3A3A3A3A3A37007125227
:10525300E4740E80211251E87010126533700B8EC6
:10526300828F83A3A3E0A2E050071252DA740D8069
:10527300051252DA7405126545540364017007126E
:1052830052C27405800B90170CE0C0E01252C2D0DA
:10529300E01252FDF58388821256588508828509EB
:1052A300831249CE125FAF38F583E9800E850882F9
:1052B3008509831260948003125FD7F0023F158E35
:1052C300828F83A3A3A3A3A3A3A3A3A3A31252D4B1
:1052D30022E0125FF6A3228E828F83A3A3A3A3A34C
:1052E300A31249DE125FB538F58322A3A3A3A3A3B8
:1052F300A3A3A3A3A31251B3E02212530122126A60
:1053030084F8A3E022EA1253103BF58322240CF520
:1053130082E42274F112089874E4120F0B8A0C8B46
:105323000D8C088D097A237B001217668A0A8B0B72
:10533300AE0AAF0BEA4F7003025613125FBBE508C8
:105343002415125644687003A3E0698E828F83701C
:1053530004740280027401F0E508240DF8E43509B1
:10536300F98882F583E0FAC3E49AFA95E0FB1256D2
:10537300402AFAA3E03BFB8E828F83A3A3A3A3124D
:105383005C198E828F83A3A3F0EE2420F582E43F81
:10539300F583E4F0EE2421F582E43FF583E4F0EEB7
:1053A300FAEFFB12209C85088285098312565F70F1
:1053B300098E828F83A37405800690170C12564DB5
:1053C300F0EE2417F50AE43FF50B8E828F83125615
:1053D30058E9850A82850B83F0EE2416F8E43FF939
:1053E300E508240EFAE43509FB88828983124A2BE7
:1053F300E5082410FAE43509FB850A82850B83E06E
:10540300FC88828983E0F88A828B83E0C398C39CFB
:10541300F8125699F0EEFCEFFDAA0CAB0D121FE249
:10542300E9F50B8E828F83E064027006125BF01243
:10543300561DE50B600302560A750C00750D0090AE
:105443001905E064016005E06402703F12562F60A5
:1054530008EE242112563270328E828F83A3A3A3C7
:10546300125FDD125665EE241612562B12568EFA73
:10547300E439FB123D1DEA4B601112683F120E60C6
:10548300125673AA0C126CDD120E77EEFAEFFB12B2
:1054930020A8E9F50B901905E064016008E06402B7
:1054A30060030255FDE970030255FDE50C450D70DF
:1054B3000302560A8003850E0B12562F600BEE244F
:1054C300211256326003025603850B0E850C0885A4
:1054D3000D09750A007808120E601256738E828FBA
:1054E30083A3A3A3A31279F6120E77EE24201256F8
:1054F3002B600D1256387468124A43EE242080152F
:10550300EE242112562B60151256387403F0A3743F
:1055130001F0EE2421F582E43FF583E4F0EEFAEFA7
:10552300FB1220A8E9F50B70907C137D00790074C1
:1055330009120ECD1216B8741A12115374011256B1
:10554300A464687002A3E0704F8E828F831251BFF0
:10555300E0640560030254B97C0879FF8E828F836F
:10556300A3A3A3A3E0242A125C35121742E9700314
:105573000254B97C087D0079FF7401120ECD121616
:10558300B87401120ED57A007B0079AB121FC47474
:105593001912115374FC8015125638E06403700419
:1055A300A3E064017008741912115374FFF0E4F559
:1055B30008F5097808120E647402120ED5741312DA
:1055C3001153AA82AB8312611A120E778521828549
:1055D3002283E0602B7409120EC5880889097808B4
:1055E300120E647508137509007808120E647C00A6
:1055F3007D0012698D120E778006E50C450D60075C
:10560300AA0CAB0D12176CEEFAEFFB12176C8003AA
:10561300750B10A90B741C02760DEE2406FAE43FF9
:10562300FB12186822EE240C1256AC22EE24201230
:1056330056AC640122EE12516F3FF58322E5082434
:105643000EF582E43509F583E022125652A322E0D7
:105653008E828F8322A3E0F91220EA22E0540364AE
:10566300012212566922E0FAE82AF8E43400F9220A
:105673008E828F83A3A3A3125FE1125669EE2416D1
:105683001256AC12568EFCE439FD22FAE82AF8E4ED
:1056930039F9E824042212569D22126554A3A3A3C8
:1056A30022F01256A922EE240FF582E43FF583E09F
:1056B300227901020E0C74F4120898EAFEEBFF8AB9
:1056C30082F583A3A3A3A3A3A3A3A31249CE242454
:1056D300F582E438F58312565F702E8A828B83122B
:1056E30052EE7025125787E06405701D125787A389
:1056F300E0F8740168600574066870071251A174BC
:105703000280051251A17403F0EA240A1260881280
:105713005FF1E4F0EA2408F8E43F1230772431F52E
:1057230082E43AF583E0C0E0126D28A3A3D0E0122F
:1057330057A6CA242EF582E43AF583E0C0E0126D41
:1057430028A3A3A3D0E0125CCCC812578138123F20
:105753001A126D2812579B8A0A8B0BAC0AAD0B8564
:105763000882850983125C321218688508828509CC
:1057730083124BD61220A8126083F002308D240BC3
:10578300F582E4228A828B83A3A3A3A3A3A3A3A367
:1057930012651AF583888222A3A3A3A3124A6D126A
:1057A300221622125C0EFAA3E0220256B4C082C073
:1057B300839016E674EEF0A3741FF09016E874FA63
:1057C300F0A3741FF09016EA7400F0A37420F09015
:1057D30016EC74F4F0A3741FF0025AB774F41208B1
:1057E30098EA2408FEE43BFF8E82F58312518B1264
:1057F3005FC7E0F50874035508F509125C2DF8A39B
:10580300E08882F583E508F0A3A882A983E509600F
:10581300097402650960030258CC740C5508FC60D6
:105823000A74086C600574046C7026740265097050
:1058330006E508A2E4401A8A828B83A3A3A3A3A349
:10584300A3A3A31259D21267203D12596DA308A92D
:1058530083740C6C701C1259CE24281259BA242854
:10586300F582E43DF583A312634EF0E82402F85079
:105873000109740265097006E508A2E4404B125958
:10588300CE242A1259BA242AF582E43DF583A312C1
:10589300597C1259D812634E1259D8A3125974E87D
:1058A3002404F8500109EC600F74086C600A740C4E
:1058B3006C600574046C7011125FFE2426F582E49B
:1058C3003C12596DA3A882A9838A828B83A3A3A3C5
:1058D300A3A3A3A3A312599C54037014E508A2E144
:1058E300400E125FFE1259673CF583E05480600856
:1058F30012598212596F80199016BAE0C0E01259FA
:1059030082D0E01259AF888289831259AF04125CA6
:1059130013A3A882A983E508A2E750458E828F834B
:1059230012599C888289831259B51259A154036074
:1059330030125FFE2434F582E43C12634CF0E50838
:10594300A2E1501D8A828B83A3A3A3A3A3A3A3A332
:1059530012307C2435F582E43A12634CA3F0E82438
:105963000302308D241EF582E422F58312597CF064
:105973002212597CA3A3A3F022E088828983228A7E
:10598300828B83A3A3A3A3A3A3A3A3E0FCA3E0CC41
:105993002432F582E43CF58322E01259A122FCA3D0
:1059A300E0CC2425F582E43CF583E022F09016BA9E
:1059B300E022126550E022F582E43DF58312597C22
:1059C3001259C7221265541259D2228E828F83E054
:1059D300FDA3E0CD22A31259C7242CF582E43DF5A3
:1059E3008322C082C0838A828B83125AA7FC7403EA
:1059F3005CF98A828B83A3A37401F0E960057402C6
:105A0300697061740C5CF8600A740868600574045A
:105A13006870137402697005ECA2E440098A828BF2
:105A230083A3A37402F0740C68700A8A828B83A325
:105A3300A3E02402F07402697005ECA2E440258A15
:105A4300828B83A3A3E02404F0E8600F74086860EA
:105A53000A740C68600574046870098A828B83A3D6
:105A6300A3E004F0ECA2E7502A8A828B83A3A3E08D
:105A730004125AAD123586E0540360178A828B8371
:105A8300A3A3E004F0ECA2E150098A828B83A3A3D1
:105A9300E004F08A828B83A3A3E004F080168521BF
:105AA300828522831252D4A3E022F08A828B83E080
:105AB30022120E77D083D082020E0CC082C0838A5A
:105AC300828B83A3A3A3A3A3A3A3A3A3A31251E89A
:105AD30060098A828B83A3A3125AE080D7A3A3A36E
:105AE300A3A3A3A3A3125AEC22124BDE12176C2218
:105AF300125AF722EE240CF582E43FF5832274F662
:105B030012089874F4120F0B125C3CFCA3E0F583AB
:105B13008C82A3E0C0E07402121153D0E0125CEA5D
:105B2300125CD37404121153126CB6740212115323
