:020000040000FA
:060000000210B00205DE53
:03002B00020E249E
:03003300020A18A6
:0300530002050D96
:03006B000209CDBA
:03007B000209F681
:1000830002056F01010000000000F8FF07FFFF00F9
:10009300000504000000030001FF0020FD0002062C
:1000A300FFFF1E010000000000000000020100002D
:1000B300FFFF3C000C010400003D13000000E803B7
:1000C3000000FFFF8E130188130000E803000064A3
:1000D300006400B801A0BB0D00A0BB0D000202022A
:1000E300070401051E02051E020A0A010108080190
:1000F30003B80B02803E0102FEFFE8030A0500017C
:10010300FFFF020A011401E08096184B0000803FB4
:1001130002000000050301010F03000300030003B5
:10012300000300030003000300030005000A00149A
:100133000028004F009E000000CF2A00000000A30B
:100143002900000000FF000000FF001210CF6046EE
:100153001210C0603DE9687008F618F618F618F634
:1001630022748067F7120182090909748067F722F4
:100173001210C0601D1210CF7005191919801A12C0
:100183000F88701F120F9CC37003E6673319191988
:1001930040071818182208080874FFF618F618F60E
:1001A30018F622120F9C601712115D702192F01243
:1001B30011667019501720F014080808090909E797
:1001C300F61819E7F61819E7F61819E7F6221211C7
:1001D3006660E6E869701F0808E62480F608E436DE
:1001E300F618547FB47F0CE654806007F6E418F6E3
:1001F30018F622181822E9C6CC08C6CD08C6CE08C0
:10020300C6CFC0E0E8C0E0EAC0E0EBC0E009E9F82F
:1002130009E7FA09E7FBE6F918E6F8C3EC98ED9964
:10022300EE9AEBC2E7F5F0EFC2E795F0500E600CE3
:10023300EBCFFBEACEFAE9CDF9E8CCF8EAA2E7D2B4
:10024300E7FAEB33FB13F5F0EEA2E7D2E7FEEF3369
:10025300FFC5F013A2E730E601B313C5F0C3C0E056
:10026300C0F07F00C39BFB605E9418600F401D14B9
:10027300601AD0E023F9D0E0F80203548AF0E94889
:100283006003D2F0E4AFF0FAF9F8803BEB30E40D11
:1002930089F0EA6003D2F0E4AFF0F9CAF8EB30E397
:1002A3000D88F0EF6002D2F0AFF0E4CAC9F8EB5466
:1002B300076014FBC3EA13FAE913F9E813F8EF1321
:1002C3005002D2E0FFDBEDD0E0C0E030E739C3E419
:1002D3009FFFF5F0EC98FC42F0ED99FD42F0EE9AA9
:1002E300FE42F0D0E0F9D0E0F8E5F0607AE923F9D6
:1002F300EE20E742D8028067C3EF33FFEC33FCED17
:1003030033FDEE33FE80EAEC28FCED39FDEE3AFED8
:10031300D0E023F9D0E0F84002801BC3EE13FEEDDA
:1003230013FDEC13FCEF135002D2E0FF08B80006F4
:100333007F7F74FF802EEF3350178CF020F0026024
:10034300100CBC000C0DBD00080EBE000408E860D4
:10035300DFE933E813FFEE2313FE4F4D4C8008E92A
:100363005480FFE4FEFDFCEE33EF33F47004FCFD38
:100373007E80D0E0FBD0E0FAD0E0F8D0E0CFC61822
:10038300CEC618CDC618CCC6F922001210C0604FD5
:100393001210CF6012E7548066F6120F88701112A4
:1003A300115D703B090909F4F618F618F618F622E0
:1003B300120F9C701512116608080860EAE6447F64
:1003C300F618768018E4F618F622121166601612F3
:1003D300115D7012E4F608F608F608E65480F60993
:1003E300090918181822EAC0E0EBC0E0ECC0E0ED00
:1003F300C0E0E687F0A4FBACF008E687F0A42CFC91
:10040300E435F0FA1809E687F0A42C4B6002740176
:10041300CA35F0FCE433FB09E687F0D2F7A42CCB12
:1004230035F0FC1908E687F0A42BCC35F0FBE43358
:10043300FD0819E687F0D2E7A42C4ACB35F0CD347A
:1004430000FC09E687F0D2E7A42DCC35F0FDE433B8
:10045300FA0918E687F0D2F7A42CCD35F0CA340098
:10046300FC08E687F0D2E7D2F7A42ACC35F07A7EEF
:1004730020E70B0ACB33CBCD33CDCC33CC33CB33CB
:1004830050147004ED30E00ED2F1E4CD3DCDCC3C00
:10049300CC3B5005DA05C2F1EB547FC63308E63393
:1004A30092F0FBE73309E733C39A502D2B70190CF5
:1004B3000D4C4D70151806E608C333700D20F10A74
:1004C300A2F013F6E418800B4024E4F630F0027631
:1004D3008018F618F618F68024D33B14501074FFD6
:1004E300A2F013F6187680E418F618F6800FA2F03F
:1004F30013F618E63303F618ECF618EDF6D0E0FD24
:10050300D0E0FCD0E0FBD0E0FA22C0E074F11209A5
:100513006EA2AFE433F509D2AF85A708AFA1EF55BB
:1005230008FE74105E600612140675A1EF74085E6F
:10053300600812140C75A1F78024EFA2E092F0E595
:1005430008A2E082F05017906198E0F890050EE061
:10055300C398A2D265D0335002E8F075A1FE751A94
:1005630000E509A2E092AF7F02020A2CC0E074F218
:1005730012096EA2AFE433FED2AF9061A4E0F87526
:100583009B00E59158540860087591F712145A803E
:1005930023E59158541060087591EF12146080148C
:1005A300E591A2E092F0E8A2E082F05007E0C2E019
:1005B300F01215B69061A3E0F8E5E9585404600E13
:1005C30012158C75E9FB906193E0A2E640F2751A6F
:1005D30000EEA2E092AF7F01020A2CC0E074F21297
:1005E300096EA2AFE433FED2AF9061A5E0F8E5BF98
:1005F300585404600675BFFB1215CE80D1C3E4982E
:10060300F8E499F91206418026C3E49AFAE49BFBC5
:10061300E920E7E9120641E498F8E499F922C3E4F2
:1006230098F8E499F9120641E498F8E499F9C3E4D7
:100633009AFAE49BFB22EB20E7CFE920E7E0B9003D
:1006430010BB0008E88AF084F8AAF022E4FBC8FA99
:1006530022EB70227B10C833C8C933C9335007C398
:100663009AC3DBF280069A50012ADBEAC833F4C846
:10067300C933F4C9FA2275F008E4C833C8C933C9C9
:1006830033C99AC99B5004C92AC93BD5F0ECFBC8AE
:1006930033F4C8E4C9FA228A088B098C0A8D0B78D3
:1006A300081206E420F01430E72B74FFFCFBFA7405
:1006B3007F8022E4FCFBFA7480801AB48008BC00BB
:1006C300F2BB00EF800F50EBF9E4C39AFAE49BFB13
:1006D300E49CFCE499C6CC18C6CB18C6CA18C6F964
:1006E30022E4C9C608CAC608CBC6D3330308CCC69E
:1006F3003392F0C3947F402E94184019C9B907046C
:10070300CACBCC225025C309CA33CACB33CBCC3393
:10071300CC33D9F422F4600DC9CCC313CB13CBCAA9
:1007230013CAD9F6CC22E4FCFBFA2214FCFBFA220E
:10073300080808EAC0E0EBC0E086F0E7A4FA18096D
:1007430086F0E7A42AFA180986F0E7A42AFA18091A
:1007530086F0E7A42AFA1986F0E7A4FBE5F02AFA63
:10076300190886F0E7A42BFBE5F03AFA190886F09E
:10077300E7A42BFBE5F03AFA18180986F0E7A4C5BD
:10078300F02BFBE43AFA1908E7C5F0C6A426F6E510
:10079300F03BFBE43AFA1886F0E7A4F6E5F0082606
:1007A300F6E43B08F6E43A08F6D0E0FBD0E0FA22A0
:1007B300080808E630E711120F601207CB08080893
:1007C300C64480C618181822181818E9799EC60856
:1007D300CAC608CBC608CCC6C370207996CACBCC90
:1007E3007019798ECBCC70137986CC700EF9802A70
:1007F300CA33CACB33CBCC33CC331930E7F2CCCBAF
:10080300CA3350147004EA30E00DE4CA3ACACB3B51
:10081300CBCC3CCC500209C3E913C6CC182313C676
:10082300CB18C6CA18C6F922E4CFC0E0E4CEC0E0B4
:10083300E4CDC0E0E4CCC0E075F020E626F608E69F
:1008430033F608E633F608E633F6181818EC33FCEB
:10085300ED33FDEE33FEEF33FFC3EC9709ED97095C
:10086300EE9709EF97191919400FFFEC97FC09ED63
:1008730097FD09EE97FE191906D5F0BFECF709EDC0
:10088300F709EEF709EFF7191919D0E0FCD0E0FDED
:10089300D0E0FED0E0FF222518C582C0E0E5193480
:1008A300FFC583C0E0E518C3958224F810AF08851F
:1008B30083198582188008858319858218D2AFCE63
:1008C300F0A3E520F0A37808E608F0A3DEFAEFF042
:1008D300A3E58124FAF8E608F0A3E608F0A3E60806
:1008E300F0A30808E608F0A3E608F0A31581158134
:1008F300D0E0FED0E0F8158115811581E8C0E0EE67
:10090300C0E022121148B90003020958E49004011F
:10091300782979138002F0A3D8FCD9FA781A9000C9
:10092300867A01BA00028007E493A3F608DAF97A1B
:10093300297B1690008778C879018015E493A3ADCD
:1009430082AE838A828B83F0A3AA82AB838D828E4D
:1009530083D8E9D9E77582E27583C87404120E0659
:1009630075829E7583277400120E06C0D02518C5A4
:1009730082C0E0E51934FFC583C0E0E518C3958262
:1009830024F310AF0885831985821880088583199D
:10099300858218D2AFC8F0A3E9F0A3EAF0A3EBF085
:1009A300A37908E709F0A3D8FAECF0A3EDF0A3EEDE
:1009B300F0A3EFF0A3D0E0F0A3D0E0F0A3D0E0F0F9
:1009C300A3E520F0A3E5F0F0A322C0E074F212093E
:1009D3006EA2AFE433FED2AFE589541C6003121359
:1009E3002E5389E3C2C5751A00EEA2E092AF7F01D0
:1009F300020A2CC0E0C0D0E8C0E0A8A8D2AFE58AC4
:100A0300858A8AC2EB751A00E8A2E792AFD0E0F8B4
:100A1300D0D0D0E032C0E0C0D0E8C0E0A8A8D2AFC8
:100A2300E58B858B8BC2E880DC851983851882E092
:100A3300C0E0A3E0F9A3E0FAA3E0FBA37808E0F6A3
:100A430008A3DFFAE0FCA3E0FDA3E0FEA3E0FFA31D
:100A5300E0C0E0A3E0C0E0A3E0F5D0A3E0F520A36D
:100A6300E0A3F5F010AF0885831985821880088507
:100A73008319858218D2AFD082D083D0E0F8D0E03A
:100A83003275F0108E218F22858226858325851865
:100A930082851983E0CEA3E0CF852682852583EB6B
:100AA300C9EAC8EDCBECCAC3E833C8E933C9EA33B2
:100AB300CAEB33CBC3EA9EF524EB9FF523B3500473
:100AC300AB23AA24EC33CCED33CDD5F0DAAE21AF92
:100AD30022221210C0601C1210CF60171211667010
:100AE3000712115D7001D322C0D012115D7006D0C0
:100AF300D0B322C32233D0D0501430E0F6C3E796EC
:100B03000809E7960809E7960809E796B32220E063
:100B1300D5E6970809E6970809E6970809E697B323
:100B230022D083D082ECC0E0EDC0E0E493A3FCE4E8
:100B330093A3FDED4C600D120C48EC24FFFCED3447
:100B4300FFFD80EFE493A3FCE493A3FDED4C600D64
:100B5300120D11EC24FFFCED34FFFD80EFD0E0FD1E
:100B6300D0E0FCE493A3C0E0E493C0E0221210C001
:100B7300601B1210CF6016121166700712115D60B0
:100B83000CB322C0D012115D7005D0D022C3223322
:100B9300D0D0501330E0EBC3E7960809E796080975
:100BA300E7960809E7962220E0E4E6970809E69726
:100BB3000809E6970809E69722851983851882E0D4
:100BC300A3FEE0A3F5207808E0A3F608DFFAE0A38C
:100BD300FFE0A3C0E0E0A3C0E0E0A3C0E0E0A3C067
:100BE300E0E0A3C0E010AF08858218858319800870
:100BF300858218858319D2AFD083D082020E0CD0A0
:100C030083D082E9C0E0E493A3C386F0C5F095F0F6
:100C1300F908E493A386F0C5F095F0700BE493A371
:100C2300C3994005E9048002A3E475F002A4258278
:100C3300F582E5F03583F583D0E0F9E493A3C0E0D2
:100C4300E493C0E022C0E0C3E49396087401939652
:100C530018400FE4936670080874019366187000D7
:100C63007019A3A3C3E49396087401939618A3A3DE
:100C7300400DD0E0D0E0D0E0020B60A3A3A3A3A378
:100C8300A3D0E0227404800474028000CCC0E0EDA1
:100C9300C0E0E518C39CCCAD1950011D10AF068C04
:100CA300188D1980068C188D19D2AF120D88D0E0DB
:100CB300FDD0E0FC2274028000CCC0E0EDC0E0E592
:100CC30018C39CCCAD1950011D10AF068C188D199B
:100CD30080068C188D19D2AF120D66D0E0FDD0E0DE
:100CE300FC221210C060251210CF60201211667012
:100CF3000302115D080808E76670101819E76670AB
:100D03000A1819E76670041819E76622F422C0E08E
:100D1300C0F088F0E4936670080874019366187055
:100D230000A8F0A3A3700BD0F0D0E0D0E0D0E00295
:100D33000B60A3A3D0F0D0E022D083D082CCC0E05C
:100D4300E493A36006120DC81470FAE493A360063B
:100D5300120EF51470FAD0E0FCE493A3C0E0E49320
:100D6300C0E022CAC0E0E493A3C582CCC582C58398
:100D7300CDC583F0A3C582CCC582C583CDC583DA37
:100D8300E5D0E0CA22CAC0E0E0A3C582CCC582C5D3
:100D930083CDC583F0A3C582CCC582C583CDC5836E
:100DA300DAE6D0E0CA22700908080822601618188B
:100DB30018C6C333C608C633C608C633C608C63307
:100DC300C6D5E0EA22C0E0E493A3D39C5010E49399
:100DD300A3C39C400AD0E0D0E0D0E0020D59A3A306
:100DE300A3D0E022C008C3E096F50808A3E096422A
:100DF3000808A3E096420808A3E09645087001D3CB
:100E0300D00822C09FF59FE473D09F22D083D08265
:100E1300C09FE493C0E0740193C0E0740293F59F14
:100E230022C0E0C0D0E8C0E0A8A8D2AFC2C7751AFC
:100E330000E8A2E792AFD0E0F8D0D0D0E032251896
:100E4300F58210AF08F518400C15198008F5184005
:100E5300021519D2AF851983227404800A740380A2
:100E630006740280027401C0E0F404120E41D0E063
:100E730012110B2200C0D0251810AF08F518500C22
:100E830005198008F51850020519D2AFD0D022BB3E
:100E93000102E722C082C08389828A83BB0003E008
:100EA3008002E493D083D082226016080808C6C368
:100EB30013C618C613C618C613C618C613C6D5E07C
:100EC300EA222518F8E43519F9222518FAE4351928
:100ED300FB222518FCE43519FD22C3E0C696F6086B
:100EE300A3E0C696F608A3E0C696F608A3E0C69666
:100EF300F622C0E0E493A36C7009D0E0D0E0D0E028
:100F0300020D59A3A3D0E022251810AF08F518400D
:100F13000C15198008F51840021519D2AF22C3E049
:100F23009608A3E09608A3E09608A3E096A2D265EC
:100F3300D03322E76670100809E766700A0809E7EC
:100F43006670040809E76622E066701008A3E0668D
:100F5300700A08A3E066700408A3E0662218181854
:100F6300E4C396F608E496F608E496F608E496F6E3
:100F730022C3E096F008A3E096F008A3E096F008F9
:100F8300A3E096F022181818E60846087009E6262A
:100F9300087005E633F4220822191919E7094709ED
:100FA3007009E727097005E733F4220922C3E6979E
:100FB300F60809E697F60809E697F60809E697F6AC
:100FC30022C3E493960874019396087402939608D7
:100FD3007403939622E627F60809E637F60809E62E
:100FE30037F60809E637F622700422600D18C6C3E7
:100FF30033C608C633C6D5E0F41822E657F6080907
:10100300E657F60809E657F60809E657F622E056CA
:10101300F008A3E056F008A3E056F008A3E056F06A
:1010230022E026F608A3E036F608A3E036F608A386
:10103300E036F622E026F008A3E036F008A3E03617
:10104300F008A3E036F022E647F60809E647F6087B
:1010530009E647F60809E647F622E056F608A3E054
:1010630056F608A3E056F608A3E056F622600D08EC
:10107300C6A2E713C618C613C6D5E0F322C6F4C644
:1010830008C6F4C608C6F4C608C6F4C622C3E79663
:101093000809E7960809E7960809E79622C3E09648
:1010A30008A3E09608A3E09608A3E0962275D00073
:1010B30075813F75180175190400020906E6084693
:1010C30008C3134608336002E633F422E7094709ED
:1010D300C3134709336002E733F422600C08C6C325
:1010E30013C618C613C6D5E0F422E6F008A3E6F04B
:1010F30008A3E6F008A3E6F022E0F608A3E0F6086A
:10110300A3E0F608A3E0F622CAC0E0E6F0A308DAFB
:10111300FAD0E0FA22E0FAA3E0FBA3E0FCA3E0FDAF
:1011230022EAF0A3EBF0A3ECF0A3EDF022E0F8A3A6
:10113300E0F9A3E0FAA3E0FB22E8F0A3E9F0A3EAD5
:10114300F0A3EBF022E5C754F84401F5C779012277
:101153002518F582E43519F58322E727194719473E
:10116300194722E62618461846184622C2AF75D6F6
:101173009F02000022120E0F7CE702120E0FFBE902
:1011830002120E0FB7EA02120E0FE7EA02120E0F57
:1011930034EB02120E0FC8EB02120E0F71EC0212A7
:1011A3000E0FC2EC02120E0F06ED02120E0FAAED85
:1011B30002120E0F17EE02120E0F46EE02120E0F60
:1011C30059EF02120E0F79EF02120E0FDDEF02122A
:1011D3000E0FB9F002120E0FE6F202120E0F94F385
:1011E30002120E0F2CF602120E0FB1F602120E0FA0
:1011F30028F902120E0F62F902120E0FBEFA021242
:101203000E0FD1FA02120E0F12FB02120E0FA9D704
:1012130003120E0F25D803120E0F58D803120E0F08
:1012230086D803120E0FCBDA03120E0FEADA03127B
:101233000E0F2FDB03120E0FC5DB03120E0F11DC93
:1012430003120E0FA3DC03120E0F7CDD03120E0F2D
:10125300CDDD03120E0F32DE03120E0FA5DE0312D5
:101263000E0FE9DE03120E0F41DF03120E0F63DFD1
:1012730003120E0FF3DF03120E0F84E003120E0F9F
:10128300D0E003120E0FFCE003120E0F3DE1031238
:101293000E0FD5E203120E0FC1E303120E0FA3E4E8
:1012A30003120E0F87D404120E0F8AD404120E0FEA
:1012B300EAD404120E0F3ED504120E0F60D50412A9
:1012C3000E0F76D704120E0F87D704120E0F25D8F0
:1012D30004120E0F30D804120E0F4AD804120E0F48
:1012E300F9FF02120E0FEBDC04120E0F59D8041291
:1012F3000E0F69D804120E0F7ED804120E0F32D9C6
:1013030004120E0F82D304120E0F06D404120E0F12
:101313006ED404120E0FDACE04120E0F02CF041293
:101323000E0F25CF04120E0F7DCF04120E0FC7CF61
:1013330004120E0FF2CF04120E0F09D004120E0F77
:10134300F7B404120E0F05B504120E0F7EB5041286
:101353000E0F53B604120E0F25B804120E0F6AB8FF
:1013630004120E0F8FB804120E0FF87F00120E0F27
:10137300D5C604120E0F0DC704120E0F5BC804125C
:101383000E0FDFC804120E0FFEDC04120E0F01DD78
:1013930004120E0F0DDD04120E0F3D7A00120E0F14
:1013A300697A00120E0F007D00120E0F407D0012AD
:1013B3000E0F7C7D00120E0F907D00120E0FA97D83
:1013C30000120E0F9A7E00120E0F4C7F00120E0FAA
:1013D300607F00120E0FC7CA04120E0FEBCA04126D
:1013E3000E0F04CB04120E0F42CB04120E0F72CB5E
:1013F30004120E0F9FCB04120E0FA9CB04120E0F73
:101403000FCC04120E0F12CC04120E0F1CCC0412BC
:101413000E0F29CC04120E0FF0C104120E0F10C2CE
:1014230004120E0F4FC204120E0F6DC204120E0FE0
:1014330088C204120E0FEEC204120E0FFAC2041277
:101443000E0F57C304120E0F66C304120E0F8AC386
:1014530004120E0F4BC404120E0F58C404120E0FC5
:1014630069C404120E0FACDB04120E0FF4DB04127A
:101473000E0F20DC04120E0F8DA704120E0FE7A827
:1014830004120E0FF5A804120E0F08A904120E0F72
:101493001DA904120E0F32A904120E0F45A904123E
:1014A3000E0FC1A904120E0F26AA04120E0FAEAA24
:1014B30004120E0F26AB04120E0FFFAB04120E0F15
:1014C3000FAC04120E0F1EAC04120E0F94DA0412AA
:1014D3000E0FB8DA04120E0FE0DA04120E0F08DB57
:1014E30004120E0F94FD01120E0FBBFD01120E0F1D
:1014F300D9FD01120E0F48FE01120E0F1DBF04127B
:101503000E0F36BF04120E0F42BF04120E0F56BF4A
:1015130004120E0F74BF04120E0F7EBF04120E0FBF
:1015230088BF04120E0F9BBF04120E0F21C00412BA
:101533000E0F96C004120E0FC5C004120E0F13C176
:1015430004120E0F62C104120E0F7DC104120E0F9E
:1015530087C104120E0F98C104120E0FDBC10412CF
:101563000E0F2BDC04120E0F76DC04120E0F238AEF
:1015730004120E0F4F8A04120E0F6C8A04120E0F00
:101583007F8A04120E0F9A8A04120E0FF48A041231
:101593000E0F228B04120E0F328F04120E0F909037
:1015A30004120E0FC29004120E0F259104120E0F97
:1015B300919204120E0FB99204120E0FCE920412DE
:1015C3000E0FDE9204120E0F1E9304120E0F609381
:1015D30004120E0F709304120E0F1FD004120E0F7D
:1015E30039D004120E0F61D004120E0F7AD00412F8
:1015F3000E0F9ED004120E0FBCD004120E0FD3D0C8
:1016030004120E0F01D104120E0F1CD104120E0F7F
:1016130038D904120E0F7CD904120E0FA2B804128B
:101623000E0FB2B804120E0FB7B904120E0FE9B9B8
:1016330004120E0F19BA04120E0F3CBA04120E0F45
:1016430053BA04120E0F8DBA04120E0FF2BA04121B
:101653000E0F34BB04120E0F7BBB04120E0FA8BB7C
:1016630004120E0FD3BB04120E0F33CC04120E0F51
:1016730045CC04120E0F59CD04120E0F5CCD04128B
:101683000E0F88D604120E0FBED604120E0FD6D636
:1016930004120E0F18D704120E0F28D704120E0FC0
:1016A3006CD704120E0FA09304120E0FDA930412D8
:1016B3000E0F439404120E0F629404120E0F04953E
:1016C30004120E0F0D9504120E0F5E9504120E0FE9
:1016D300879504120E0F949504120E0F05960412AB
:1016E3000E0F939604120E0FE19604120E0F179726
:1016F30004120E0F789704120E0FA19704120E0F07
:10170300189804120E0F749804120E0FB198041255
:101713000E0FE89804120E0FFA9804120E0F0C998C
:1017230004120E0F2B9904120E0F349904120E0F8C
:10173300F49904120E0F409A04120E0F7E9A0412AB
:101743000E0F89CD04120E0FC9CE04120E0F82DCC8
:1017530004120E0F97C404120E0FCDC404120E0F01
:1017630015C504120E0F6EC604120E0F6AC30312C0
:101773000E0F9BC403120E0FD7C403120E0F91C694
:1017830003120E0FBBC603120E0F34C903120E0F42
:1017930074C903120E0F08CB03120E0FA7CB03124B
:1017A3000E0FFFCB03120E0F92CC03120E0FCCCCF5
:1017B30003120E0F0ECD03120E0F81CE03120E0F66
:1017C30001D003120E0F3ED203120E0F6CD203127E
:1017D3000E0F98D203120E0FA1D203120E0FFED2D8
:1017E30003120E0F8ED303120E0FCAD603120E0F5F
:1017F3004CD703120E0FEAD904120E0F02DA0412A9
:101803000E0F0CDA04120E0F62DA04120E0F60FBD5
:1018130003120E0F76FB03120E0F17FC03120E0FAB
:1018230056FC03120E0F73FC03120E0FA4FC0312DB
:101833000E0FF1FC03120E0F25FD03120E0F60FDB8
:1018430003120E0F5DFF03120E0FC3FF03120E0FE1
:1018530088D504120E0FE7D504120E0F25D60412F5
:101863000E0F66D604120E0FB9A502120E0FC5A5F0
:1018730002120E0F27A602120E0F31A602120E0F2E
:10188300BEA602120E0FFAA602120E0FFAA702123A
:101893000E0F61A802120E0F0AA902120E0F8AA9D7
:1018A30002120E0F47AB02120E0F69AD02120E0F9A
:1018B30092AE02120E0FF9B002120E0F82B2021292
:1018C3000E0F2AB302120E0F0DB802120E0F08B933
:1018D30002120E0F9EB902120E0FC3B902120E0F9F
:1018E30064BA02120E0F82BA02120E0FE8BA021283
:1018F3000E0F07BB02120E0F34BB02120E0FCCBC2D
:1019030002120E0FEDBC02120E0F93BD02120E0F48
:10191300DABD02120E0F4ABE02120E0FD8BE021219
:101923000E0F35BF02120E0FB0BF02120E0F40C1D1
:1019330002120E0FC1C302120E0F49C402120E0F80
:1019430077C402120E0FAA9A04120E0F649B04129C
:101953000E0F079C04120E0F419D04120E0F7D9E65
:1019630004120E0FF39E04120E0F22A004120E0F88
:101973005AA004120E0F6DD204120E0F1ED30412BE
:101983000E0F8FA104120E0F1CA204120E0F95A2AC
:1019930004120E0F30A304120E0F51A304120E0FE4
:1019A30025A404120E0F99A504120E0F30AE0312D4
:1019B3000E0F5FAE03120E0FD7AE03120E0FE6AF7C
:1019C30003120E0F42B003120E0FB9B103120E0F22
:1019D300D5B103120E0F27B203120E0F6AB2031210
:1019E3000E0F7DB203120E0FD5B203120E0F97B373
:1019F30003120E0F05B403120E0F3CB403120E0FA5
:101A030074B403120E0F06B603120E0FE5B60312DB
:101A13000E0F33B803120E0F16B903120E0FA2B92D
:101A230003120E0FE2B903120E0F01BA03120E0FC7
:101A33004CBA03120E0F6CBA03120E0F05BB03123E
:101A43000E0F94BB03120E0FEFBB03120E0F2FBC2E
:101A530003120E0FACBE03120E0FD0BF03120E0FF4
:101A630016C003120E0F0BC103120E0F33C1031264
:101A73000E0F36C103120E0F40C103120E0F5CC1CD
:101A830003120E0FE4C103120E0F1DC203120E0F39
:101A930049C203120E0F70C203120E0F94C2031237
:101AA3000E0F05C303120E0F18C303120E0F4BC301
:101AB30003120E0F2DDB04120E0F39DB04120E0F6F
:101AC30077DB04120E0FF6FF02120E0FE1970312DB
:101AD3000E0F049803120E0F519903120E0F9A99C9
:101AE30003120E0FF89903120E0F5E9A03120E0FD4
:101AF300619A03120E0FB29A03120E0F2C9B03125C
:101B03000E0FAF9B03120E0FB29B03120E0F3A9CE4
:101B130003120E0F7D9C03120E0FA0A003120E0FD3
:101B230051A203120E0F92A203120E0F09A6031263
:101B33000E0F37A703120E0FB4A803120E0F3AA904
:101B430003120E0F2CAA03120E0FAFAC03120E0FCB
:101B530015ED01120E0FB5ED01120E0F21EE01125C
:101B63000E0F3CEE01120E0FC6EE01120E0F1FEF09
:101B730001120E0F6AEF01120E0FD1EF01120E0FB9
:101B830052F101120E0F6AF201120E0FEDF2011261
:101B93000E0FF5F401120E0F99F501120E0F38F620
:101BA30001120E0F26F701120E0F008604120E0FFC
:101BB300A5FA01120E0F38FB01120E0F44FC01129D
:101BC3000E0FAEC602120E0F11C702120E0F59C727
:101BD30002120E0F97C702120E0FF2C702120E0F58
:101BE3004FC802120E0F8AC802120E0F0CC902123E
:101BF3000E0F66C902120E0FDACA02120E0F64CB61
:101C030002120E0FB7CB02120E0FD1CB02120E0F20
:101C1300EBCB02120E0F45CC02120E0FCBCE0212EB
:101C23000E0FEACE02120E0F21E402120E0F0FD195
:101C330002120E0F8ED102120E0FC5D102120E0F19
:101C430034D202120E0FF5D202120E0FCED40212AC
:101C53000E0FCFD502120E0F40D702120E0F40D92E
:101C630002120E0FBBDB02120E0F95DD02120E0FD6
:101C730056DE02120E0FCEDE02120E0FE5DE021248
:101C83000E0FDFDF02120E0FD7E002120E0F46E136
:101C930002120E0F2BBC04120E0F82BD04120E0F84
:101CA30041BE04120E0FA9BE04120E0FF5FC021260
:101CB3000E0F10FD02120E0F54FD02120E0F7AFDCD
:101CC30002120E0FA1FD02120E0FB9FD02120E0F2A
:101CD3005BFE02120E0F70FE02120E0F92FF021233
:101CE3000E0F9BFF02120E0FA4FF02120E0FADFF89
:101CF30002120E0F4FAC04120E0F51B004120E0F4E
:101D030056B004120E0F58B004120E0F54C9041229
:101D13000E0FE9FF01120E0F4FD104120E0FD0FF69
:101D230003120E0FBFB004120E0FCDDC04120E0F00
:101D3300747F00120E0F9E7F00120E0F008002129E
:101D43000E0F338002120E0F9F8002120E0F3A8184
:101D530002120E0FD78102120E0F1C8202120E0FF7
:101D63003E8202120E0F578202120E0F7D82021262
:101D73000E0F9F8202120E0FDD8202120E0F2183BD
:101D830002120E0F438302120E0FA58302120E0FCF
:101D93006C8402120E0F238502120E0F9585021218
:101DA3000E0F608602120E0FB38602120E0F1987F2
:101DB30002120E0F538702120E0FA58702120E0F87
:101DC300138802120E0F7E8802120E0F81880212F0
:101DD3000E0F028902120E0F998902120E0F198A31
:101DE30002120E0F388A02120E0F9C8B02120E0F74
:101DF300A98B02120E0FB58C02120E0FC28C0212A7
:101E03000E0FCB8C02120E0FA38E02120E0FBD8F7C
:101E130002120E0F369002120E0FA89002120E0F2E
:101E2300CA9002120E0F5E9102120E0F329302122B
:101E33000E0F099702120E0F1D9702120E0F2D9708
:101E430002120E0F379702120E0F409702120E0F57
:101E5300499702120E0F539702120E0F8097021228
:101E63000E0FA99702120E0FB49702120E0FD897F6
:101E730002120E0FFC9702120E0F669802120E0F3B
:101E8300AC9802120E0FC99802120E0F4699021255
:101E93000E0F7D9902120E0FBC9902120E0F099AB2
:101EA30002120E0F8F9A02120E0F5D9C02120E0F7A
:101EB300E09C02120E0FC49D02120E0F2BA0021201
:101EC3000E0F84A002120E0FCEA002120E0F29A233
:101ED30002120E0F5EA202120E0FB0A202120E0F1A
:101EE30065A302120E0F14A402120E0F51A40212C4
:101EF3000E0FE6A402120E0F52A502120E0F802D32
:101F030000120E0FB22D00120E0FE02D00120E0F55
:101F1300B62F00120E0F963000120E0FEE30001285
:101F23000E0F293200120E0F753200120E0F9E355E
:101F330000120E0F913800120E0FE13900120E0F2E
:101F4300773A00120E0F833A00120E0FB53A0012C1
:101F53000E0F383C00120E0FE93D00120E0F7D3EAE
:101F630000120E0FC03E00120E0F3E3F00120E0F66
:101F73005B3F00120E0F8B3F00120E0FC03F00128B
:101F83000E0F904000120E0F394100120E0FBF4387
:101F930000120E0FDF4400120E0FCA4500120E0F7F
:101FA3004C4600120E0F804A00120E0FBD4A00125B
:101FB3000E0F154B00120E0F484B00120E0FB24BB3
:101FC30000120E0FE84B00120E0F734C00120E0F8F
:101FD300CB4C00120E0FA24D00120E0F5B4E0012DF
:101FE3000E0FF64E00120E0FFE5100120E0F1A5373
:101FF30000120E0FBD5600120E0FB15700120E0F36
:10200300B45700120E0FE35700120E0FE9590012D6
:102013000E0FC25A00120E0F055B00120E0F5B5C0F
:1020230000120E0F9A5C00120E0F235D00120E0FAA
:10203300575D00120E0F1C5E00120E0F346000126B
:102043000E0FA56000120E0FE56000120E0F7361F4
:1020530000120E0F956200120E0F576300120E0F3F
:102063005E6500120E0F766500120E0F8A65001270
:102073000E0FC26500120E0FF06500120E0F6F6790
:1020830000120E0F946800120E0FF16800120E0F6B
:10209300A36900120E0FCA6900120E0F916A001293
:1020A3000E0F296B00120E0F4F6D00120E0F846D71
:1020B30000120E0FE76D00120E0F166F00120E0FB7
:1020C300BE6F00120E0FEF6F00120E0F077000129B
:1020D3000E0F967000120E0F4A7300120E0F227528
:1020E30000120E0F3E7500120E0F5A7500120E0FDE
:1020F300287600120E0F1B7A00120E0F3383011283
:102103000E0F658301120E0F548701120E0FA08765
:1021130001120E0FE68701120E0F888801120E0FAF
:10212300E48801120E0F298901120E0F708A011221
:102133000E0F848B01120E0F738F01120E0FF78F88
:1021430001120E0F049101120E0F609101120E0F76
:10215300509301120E0FC59301120E0FCF9301126C
:102163000E0FDC9301120E0F079401120E0FEE9463
:1021730001120E0F989501120E0F169601120E0FF3
:10218300369601120E0F5F9601120E0F8196011201
:102193000E0FE19801120E0FA79901120E0FEC9981
:1021A30001120E0F699A01120E0F1A9B01120E0FE4
:1021B3004C9B01120E0F929B01120E0FCE9B01122C
:1021C3000E0F1E9C01120E0F729C01120E0FC89C63
:1021D30001120E0F149D01120E0F819D01120E0F9D
:1021E300FC9D01120E0FC79F01120E0FC7A0011213
:1021F3000E0FECA101120E0F2BA501120E0F3EA81C
:1022030001120E0FFBA801120E0F3FA901120E0FB0
:10221300EFAA01120E0F03AB01120E0F0DAB011249
:102223000E0F17AB01120E0F23AB01120E0F3FABB4
:1022330001120E0FEAAB01120E0F29AC01120E0FA1
:1022430033AC01120E0F3DAC01120E0FADAC0112F7
:102253000E0FF8AC01120E0F0DAE01120E0F69AE88
:1022630001120E0FEAAE01120E0FA9AF01120E0FEB
:10227300B2B001120E0FE6B101120E0FD4B2011269
:102283000E0FECB201120E0F47B301120E0F65B31E
:1022930001120E0FADB301120E0FD4B301120E0FC4
:1022A3006FB401120E0F35B501120E0FC7B501122F
:1022B3000E0F41B601120E0F5BB701120E0F08B8D5
:1022C30001120E0F30B901120E0F80B901120E0F59
:1022D300E4B901120E0F46BA01120E0F74BA0112BD
:1022E3000E0F98BA01120E0FCDBA01120E0FFEBADD
:1022F30001120E0F31BB01120E0F51BB01120E0F53
:10230300B9BB01120E0FADBC01120E0F08BD0112B5
:102313000E0F31BD01120E0FB9BD01120E0F3CBEDF
:1023230001120E0F67BE01120E0F4CBF01120E0FEA
:102333007DE503120E0FB5E503120E0FD6E503126A
:102343000E0F18E603120E0F7AE603120E0F84E641
:1023530003120E0F94E603120E0FCFE603120E0FB5
:10236300AFEA03120E0F9CEC03120E0F82EE031260
:102373000E0F19EF03120E0FBBEF03120E0F4EC118
:1023830001120E0FCCC101120E0F28C201120E0F43
:1023930073C201120E0F8EC201120E0FB9C20112C7
:1023A3000E0FD6C201120E0FE2C201120E0F79C434
:1023B30001120E0F92C401120E0F17C501120E0F58
:1023C3002AC501120E0F49C501120E0FEDC50112E8
:1023D3000E0F6EC701120E0F21C901120E0FB7C9DE
:1023E30001120E0FBAC901120E0F2ACA01120E0FE3
:1023F30048CA01120E0FDFCA01120E0F27CB0112BA
:102403000E0F2ACB01120E0FF0CB01120E0F5DCC73
:1024130001120E0F83CC01120E0F0ECD01120E0FFF
:102423002CCD01120E0F72CD01120E0F26CE01120A
:102433000E0F70CE01120E0F9FCE01120E0FFCCEA7
:1024430001120E0F31CF01120E0F5DCF01120E0FCD
:102453006BCF01120E0FB8CF01120E0F28D001124D
:102463000E0F71D001120E0FBDD001120E0FE9D065
:1024730001120E0FF4D001120E0F12D101120E0F22
:10248300FDD101120E0F07D201120E0F42D201121B
:102493000E0F52D201120E0F5BD201120E0FAFD2EA
:1024A30001120E0FC3D201120E0FF2D301120E0F3F
:1024B30009D401120E0F1ED401120E0FACD4011257
:1024C3000E0FF1D401120E0F7DD501120E0F88D518
:1024D30001120E0FCAD601120E0FE5D601120E0F0E
:1024E30031D701120E0FA0D701120E0FD9D7011247
:1024F3000E0FF3D701120E0F35D801120E0F05DBA5
:1025030001120E0FB2DB01120E0F1FDC01120E0FB0
:102513005FDE01120E0F77DE01120E0F7ADE01125B
:102523000E0F86DE01120E0F9ADE01120E0FA2DECF
:1025330001120E0FD5DE01120E0FD7DF01120E0F9F
:102543005EE001120E0FCEE001120E0F50E10112F8
:102553000E0F11E201120E0F30E201120E0FD1E243
:1025630001120E0F2EE301120E0F31E301120E0FB3
:102573005EE301120E0F73E301120E0FE7E3011284
:102583000E0F36E501120E0F3CE601120E0FC7E6E1
:1025930001120E0FE2E701120E0FAAE801120E0F4D
:1025A300DBE801120E0FFEE801120E0F07E901121C
:1025B3000E0F36E901120E0FC6E901120E0F7CEA67
:1025C30001120E0FF1EA01120E0F98EB01120E0F1A
:1025D3000DEC01120E0F44EC01120E0F82EC0112EE
:1025E3000E0FB8EC01120E0FEC8504120E0F498585
:1025F30004120E0F4F8404120E0F6A8304120E0F7F
:102603005E8104120E0F6C8004120E0F0A800412F6
:102613000E0FCD9703120E0FC39703120E0F56978B
:1026230003120E0F75E302120E0FD7E202120E0F02
:10263300879503120E0F459503120E0F91E20212B6
:102643000E0F5CE202120E0F539403120E0F279427
:1026530003120E0FDE9303120E0F1B9303120E0FC2
:10266300059003120E0FC88D03120E0F958D0312E2
:102673000E0F3C8D03120E0FCF8C03120E0F8E8C98
:1026830003120E0FC78B03120E0F618B03120E0F73
:10269300008B03120E0FA08A03120E0F7789031209
:1026A3000E0F0B8903120E0F638803120E0F5E8841
:1026B30003120E0F528803120E0F858403120E0F9E
:1026C3005F8403120E0F29E202120E0F14E20212AC
:1026D3000E0FE9E102120E0FDD8904120E0FA98914
:1026E30004120E0F528904120E0FC08704120E0F2C
:1026F300FD8303120E0F9E8303120E0F5F830312DB
:102703000E0F4C8303120E0F128704120E0F418318
:1027130003120E0F108303120E0FFD8003120E0F10
:10272300708003120E0F758604120E0F2C80031295
:102733000E0FD5CF02120E0F008003120E0F06FBF1
:1027430003120E0FD9FA03120E0FA6FA03120E0F7D
:102753007EFA03120E0F1FFA03120E0FFFF9031274
:102763000E0FCAF903120E0F8EF603120E0F63F447
:1027730003120E0F53F203120E0FD0F103120E0FBA
:1027830084F103120E0F38F103120E0F6B8604123D
:102793000E0F92F003120E0F04F90100000080FBEC
:1027A300E4738F000100A91687000100A716350006
:1027B3000400701625000200741626000200761627
:1027C3002700020078162800010082162900010064
:1027D30083168400040019148600010037162A00AA
:1027E300010084162B00010085162C0001008916B8
:1027F3002D00080025142E0001008A162F00010069
:102803008B16300001008C16310001008D1632004A
:1028130001002D14330001002E14340001008E1624
:10282300360001002F14380001008F163900010013
:10283300881683000200A516630001003B146400A0
:10284300010086166500010087166D0001003C1427
:10285300710008001D1466000100A4164300010066
:10286300951644000200961645000100981646008E
:1028730002009916470008003314480001009B1614
:102883004B0001009C1604000100A816A1000100E2
:10289300AC1637000100AB1688000100AA163C00F5
:1028A300010030143D0001009016490002009D16FE
:1028B300670001003D144D0002009F164E00010009
:1028C300A1164F000200A2163E000100941651000B
:1028D30001003114520001009216530001009316B7
:1028E30054000100321400000000000000013636DD
:1028F30001010001020100010301000104010606B8
:1029030005020000070100340801000F090401015A
:102913000D0100FF0E08000017020000190100FF5F
:102923001A0100011B0100FE1C0100081D0200002A
:102933001F01000120010001210200002301000FFB
:10294300240200002601000127010008280200FFDD
:102953002A0100072B0102402C0100002D01000178
:102963002E0100012F0100FF30010B1D3108000073
:102973003A0100083B01000F3C0100013D0100FF4B
:102983003E04000042040000460400004A04000024
:102993004E04000052040000560400005A040000D4
:1029A3000103710301030103010301030103220373
:1029B30002030103100300030003000300030003E9
:1029C3000003000342030003240306030003000380
:1029D300040312032503230325032303040304032E
:1029E3000003000300034403000300032303000365
:1029F300650321003503810300030503000300037E
:102A03000003000325032303030271023001600264
:102A1300110270020102020202028002100261022C
:102A23003A0041006302730272026202430200022F
:102A33001302380000020002040212020002000224
:102A43000002000204020402370037003C02440281
:102A53000002390000020002650200023502810211
:102A630000020502820283020002010171010101D9
:102A73000101110101013101010101018001100175
:102A830061013B00140063017301720162014301A0
:102A93000001130106013D0135000401120100018B
:102AA30000010001000104010401330133013C0171
:102AB30044013201360000010001650100013500C7
:102AC30081010001050182018301000103007100FE
:102AD30030016000110070003102200350048000B7
:102AE30010006100000014006300730072006200B4
:102AF3004300000013000600000000000400120061
:102B0300000000000000000004000400370037004C
:102B13003C024400000000000000000065000000CB
:102B2300350081000000050000008300000036002E
:102B33000100060000000F0000000000000000007C
:102B43000000000003FFFF00000403FFFF0000FF7D
:102B5300FF0FF4010005C4040320000100000B0073
:102B63000000000000000003010F0000000000004F
:102B73000000000000000000000000000000000052
:102B830000000000000000000000000022194019AE
:102B93002819861800000000000000000000000053
:102BA300000000002E198618000000003419861852
:102BB30000000000000000003A1986180000000021
:102BC3000000000000000000000000000000000002
:102BD30000000000000000000000000000000000F2
:102BE30000000000000000000000030020012F830C
:102BF30000000000200131830000040042014382F1
:102C030000000500420134820000070030013283D6
:102C130003000000210357160000FDFF21012B8351
:102C23000100200020015516010021002001561645
:102C33000300FDFF21012B8300007A1B01007A1B97
:102C43000200F01A0280EA1A0300F61A0400FC1AC2
:102C53000480021B0500081B0600141B3100261B01
:102C630033002C1B3400321BFFFF00000300030062
:102C73000400080010001F003E007B00F600EC017A
:102C8300D703AF075D0FB91E713D000007ECFDFDD3
:102C9300FDECDCDCCCBCACAC9C9C8C7C7C6C6C5CC0
:102CA3005C5C4C4C3C3C2C2C1C1C03EAF5E5D5D558
:102CB300C5B5A595958585757565655555454535A1
:102CC3003525251515050A7421023E21054A2107DC
:102CD30044210C26210D3221FF000000160F0000B5
:102CE3000B150B020002220F3300000E0FD0D1D2BE
:102CF300D3D4D5D6D7D8D9DADBDCDDDEDF5A6967A2
:102D0300426565416C6C69616E63653039303016BC
:102D1300181920231A1C1E3000034D4C4651181A53
:102D23002505020001191618161618230300303062
:102D330017181921301B1D1F30003C40423A3F3FFA
:102D4300392F47300C0E020B040B0A0708000F0241
:102D53000402010101010902E803000000BE040AA4
:102D630001000E000300E803FF04090A0310040333
:102D73000A0C041E0828020C0508151E04C082C094
:102D83008312120E9014667416F0A3741FF090143D
:102D930068741CF0A3741FF090146A7422F0A37477
:102DA3001FF090146C7428F0A3741FF0025ABB74C4
:102DB300F712089A90145AE4F0E9901459F07C330E
:102DC3007D147A5B7B1412186290169BE090146357
:102DD300F0901464741DF0A37414023D4874F0124F
:102DE300089AEAFEEBFF54807003022F51901459A6
:102DF300123DDD7003022F4AEA241B125648707CF1
:102E0300EA241F12564864137002A3E0706E8A828C
:102E13008B83122F9F901474124BDA750A00750B73
:102E230000800D123C1E126CBA121766AA0EAB0F6D
:102E3300EA4B60488A828B83E0650C7004A3E065EB
:102E43000D702C8A828B83A3A3A3A3E0F50EA3E0CA
:102E5300F50FE50A450B8A828B83A3A3A3A360C363
:102E6300123F20850A82850B83A3A3A3A380B78A7D
:102E73000A8B0B8A828B83124BD680B4E508242AF3
:102E8300125648FCE5082402F8E43509F9E8FAE9A2
:102E9300FB901474123086A3A3E06402703C8A8210
:102EA3008B83124BDA800B88828983A3A3A3A3129B
:102EB3003F20E849601F88828983E06A7003A3E0AA
:102EC3006B70E488828983A3A3E06C70DA9016A107
:102ED300125978806BECF9121F5285088285098399
:102EE300E06401704FE5082418122F88120E68124F
:102EF3006262120C87E5082412122F88120E68E50D
:102F030008123DD1120E64E508240B126266120CFE
:102F13008BE5082417123D6EE5082402FCE435090D
:102F2300FDE5082419FAE43509FB122774740A1223
:102F33000E77800CE064027007AA08AB09122030F8
:102F4300AA08AB091216CAEEFAEF6480802DEA5480
:102F530002600C9016BC7401F0EA6402FA8023EA62
:102F63005408601A121F4CEA4B700B9014761261CE
:102F73003D7A08122F95EE6408FAEFFB80047A007D
:102F83007B000268ECF582E43509F583E0F50A7805
:102F93000A22FB901459E0F912183222A3A3E0F598
:102FA3000CA3E0F50D227B00901459E0F9121826CA
:102FB30074042274F412089A8A088B098A828B8318
:102FC300A3A3A31249D2123D7938F583E02409FA69
:102FD30012688470030230798A828B837402124AE6
:102FE30047850882850983123086E8F0A3E91264D5
:102FF300FE8A828B83A3A3A3A3A3A3A3A3F0E508C1
:103003002403F8E4350912307B123D793AF583E065
:103013008E828B83A3A3A3A3F0EE2409FAE43FFBE0
:103023008E828F83A3A3125C2AF5838882E0A2E5B4
:103033008E828F83A3A3A3A3A3500474018001E40E
:10304300F0E5082403F5828983124BDAEA12515B17
:103053003BF58312684B120E60123D783B125D1CE8
:103063008E828F83A3A31279FA120E77EEFAEFFB07
:103073009014591268D18016F98882F583E0FAA377
:10308300E0CA22124D77A3A3227402120E777F04A3
:10309300020BBC74F212089A8A088B09ECFAEDFB56
:1030A300740E121153E0FC12123E8A0C8B0DAE0CFF
:1030B300AF0DEA4F6030AC08AD0912122CE960265F
:1030C300AC08AD09EEFAEFFB121232E970148E82EE
:1030D3008F83123F0DFAEFFB121226AA08AB0912D7
:1030E30012567900800279B4024CC674F012089A21
:1030F30074F6120F0BEAFEEBFF8C088D09750FB304
:10310300851882851983E4F0750E008002050E9000
:103113002D7FE493F8E50EC3984003023215AA0EFF
:103123007B0012127A8A0A8B0BEA4B60E08A828B4D
:1031330083A3A312321C28F0F8C3EE98EF94005037
:10314300CC7C157D007900AA08AB091216B2850A5A
:1031530082850B83A3A3A3A3126CF7E0F8EEC398B5
:103163002925E0F8E433F9E50A28F582E50B39F57A
:1031730083A3A3A3A3A3A3123D83A312579F8A0CE4
:103183008B0DAC0CAD0DAA08AB09121862850A822F
:10319300850B83A3E06401700A1262627401123D1D
:1031A3009580447401120ED5850A82850B83124BD8
:1031B300D8121262E9603D7409121153E0C0E012A3
:1031C3006262D0E0F07409121153E0640370137467
:1031D30001120ED5E508240BFAE43509FB12186237
:1031E30080127401121153123F20E50812578535DE
:1031F30009126CB8850A82850B8312626E123D95A3
:10320300A3A3E0C0E0E5082414126266D0E0F075E1
:103213000F00A90F740A0268E9A3A3A3E0F88518B5
:1032230082851983E02274F712089AE9FE8A828B59
:1032330083A3A3A3A3A3A3E0540860338A828B834D
:10324300A3A3A3A3A3A3E0540260218A828B83A335
:10325300A3A3A3A3A3A3A3A3E06406600F74E96ECF
:10326300600A74CD6E600574F06E7003121F340231
:1032730045C574F012089A74EF120F0B740F1211F4
:10328300531260217408121153E9F0ECFEEDFF7440
:103293000512115312438D1245B1A3E0F912124ADC
:1032A300740612115312602174061211531251EC59
:1032B3007003023530123DBDE0FA7406121153E07B
:1032C300F9121E74123590F8A3E0F9E8497003026D
:1032D3003530EE2403F50AE43FF50BEE2406F5083A
:1032E300E43FF5097C00850882F583124BDA850AF1
:1032F30082850B83E0F9121250740312115312608A
:1033030021850A82850B83E0C0E0851882851983B5
:10331300123589D0E0125301F98518828519831279
:103323003C25124E5312321FFAA3E0CA2407F5823A
:10333300E43AF583E8F0A3E412602C2406F582E472
:1033430038F583E4126CC41249C6120E60EE123DC6
:10335300793F125D1C74031211531249D2240912CE
:1033630079F4120E777429121153126CF112308012
:103373001253143A126CB8742B121153E0C0E08547
:1033830018828519831251B3D0E0F07402121153DD
:10339300E4F0742512115378081210FC0234877478
:1033A30003121153125CE48882F583123578A3A3C8
:1033B300A31257AAFB121268850E82850F83A3EA14
:1033C300F0A3EBF07403121153123589A31235786D
:1033D3001259B9A2E6500F850E82850F83A3A3A3CA
:1033E300A3A3E0D2E1F07405121153E0706B850ED4
:1033F30082850F83A3123F209014B4E0687003A367
:10340300E0697055850E82850F83A3A3A3123D58EF
:10341300750C00780C120E687808120E5C74291271
:103423001153E0F50C780C120E6874271211531225
:103433000C8B9014C1120C8B790074191211531256
:103443004BAA122078740A120E77850E82850F8399
:10345300A3A3A3A3A3E04405F07402121153E00451
:10346300FC8E828F83124BD48E828F83A3A3A3E01F
:10347300F9121250740312115312602174021211C3
:1034830053E004F074031211531251EC6067740299
:10349300121153E0FA7406121153123F20C3EA9833
:1034A300E4995051740212115312386285188285BF
:1034B3001983E028F8A3E039F9E8240FF50EE4397D
:1034C300F50F850E82F583E4F07403121153123560
:1034D30083640160030233A2740512115374011251
:1034E30068D7F07403121153125AAB123885E8F0FF
:1034F300A3E90233C6851882851983124BDA121E9B
:103503007A851882851983120C8B7426121153E065
:10351300FD7425121153E0FC740A121153E0F9EE05
:10352300FAEFFB121F2E7402120E7780438E828FE6
:1035330083A3A3A3E0C0E0740C121153D0E0F012F4
:103543006740E0C0E0740D121153D0E0F07406122E
:1035530011531251EC7009740E12115374B9800790
:10356300740E1211537410F07409120ECD122072DE
:1035730074110268E9E0850E82850F83A3A3A32259
:10358300E01252D9E022E01252D9A3A32285188275
:10359300851983EAF0A3EB1251F52274F012089A0D
:1035A30074E1120F0B7404121153E9F07403121136
:1035B30053ECF07402121153EDF08A0E8B0F742F3B
:1035C300121153122FA1AA0CFB121E6874011211BF
:1035D30053E9F0AA0CAB0D121E6E7401121153E0E5
:1035E300700302385D851882851983E480158E8205
:1035F3008F83A3A3A3A3A3E0D2E3F0851882851945
:1036030083E00412682FF8851882851983E0C39834
:1036130040030238547401121153E070030238540A
:10362300851882851983123862E50C28F8E50D396F
:10363300F9E8240FFEE439FF8E82F583A3A3A3A345
:10364300A3E0A2E040B5750800750A08750B007485
:1036530002121153E060037508207C087D00790095
:103663007405120ECD1216B28E828F83E0603E90E7
:103673001504E06401701AE508D2E3F508750B1030
:10368300123872121153E8F0A3E912569D74FF80A9
:103693007643080C750A0C8E828F83A312387D1231
:1036A3006CBA740512115374FFF0A3805A74041298
:1036B3001153E06009E508D2E6F508750A0A8E821F
:1036C3008F83A3E064FE7003A3E0F47030741212DE
:1036D3001153740412628CF8741D121153E8124AC8
:1036E300477412120ECD121D967D007C0079007472
:1036F30015121153AA82AB83121B62800B1238720C
:10370300121153E8F0A3E9F07407121153E508F01E
:10371300123DB4C0E07409121153D0E0F0740A12E0
:1037230011537401F07405120ECD12203674111268
:103733001153E06003023832740D1211531252FC1C
:103743008E828F83A3A3A3A3F0740D121153124A85
:1037530015E50AF0A3E50BF07403121153E0C0E082
:103763001249A6D0E01259B96011901504E0C0E0E7
:10377300740D1211531249F0D0E0F0740D1211536D
:10378300123F20850C82850D83A3A3A3A3A3123824
:103793006B241C12601B126CD412386D12596B39D6
:1037A30012675FC0E012498DD0E0126824C0E07454
:1037B3000D1211531244D3D0E0126525C0E0740DED
:1037C3001211531244C9D0E0F0740D121153123880
:1037D3007D12386B242A12601B850E82850F83A30A
:1037E300A3A3A3A3A3A3A3E0126014123DA3C0E069
:1037F3001244B5D0E0F0740D121153124BDA850E5A
:1038030082850F8312683A2428F582E43B126CB850
:10381300123DAC12684B120E60125D15EA125FADD9
:103823003B1279F8120E777405120ECD12203C8EDE
:10383300828F83A3A3A3A3A3E0D2E0F07411121198
:1038430053E060030235F17401121153E0140235A1
:10385300FD7900AA0CAB0D121F3A741F0268E9E050
:1038630075F007A4F8A9F022A3A3124BDEE8228E79
:10387300828F83A3123F24740522E0123885A3A309
:10388300A322F8A3E0F9850E82850F83A32274F0A7
:1038930012089A74E8120F0BE9851882851983F0D0
:1038A3008A0E8B0F8A828B83A3A3A3A3A3A3A3A3B1
:1038B300E0F9121E928A088B09EA4B700302396EF3
:1038C300E50E12516F123DCC123D638518828519A6
:1038D30083E060030239717C04850E82850F83A324
:1038E300A3A3A3A3A3A3A3E0F9121E98EE4F607BA7
:1038F3008E828F83A3A3A3A3123F207407121153B5
:10390300126152123F207409121153124A77C0E018
:103913007411121153D0E0126503A3A3A3A3A3A3AD
:10392300A3123F20740F121153126CBA74121211A6
:1039330053E41268DFC8241FF582E438F583125C70
:10394300E0C413135403FC70027C048E828F83E063
:10395300F97808120E64742059FD744059F9740300
:10396300120ECD121F2E7402120E770268E77C0826
:10397300850E82850F83A3A3A3A3A3A3A3A3E0F927
:10398300121E988B0BEA4B70030238EFEE4F60DB8D
:10399300851882851983E0F50C780C120E6885086A
:1039A30082850983A3A3A3A3A3A3A3E0F50C780CA7
:1039B300120E688A828B83A3A3A3E0FB8A82850B02
:1039C300831275178A82850B83E0FA8E828F83A315
:1039D300A3E0F912277A7402120E770238F374F710
:1039E30012089A74FA120F0BE9FE780179017F002D
:1039F300800379000F124D56E0FCEFC39C5026EF75
:103A030075F007A4FC85F008AD08EA2CFCEB3DFD3E
:103A1300124345E0A2E050DA540C60D6E0A2E25033
:103A2300D3780080CF8A828B83A3A3A3A3A3A3E02D
:103A3300703DE9A2E0400574016E70338A828B8386
:103A4300A3A3A3A3A3A37401123D35E0C0E07403B1
:103A5300121153D0E01243A4E0C0E07404121153D6
:103A6300D0E0F07405121153E8125C7F12207274D7
:103A7300060245C2C082C0837901121F3A025ABBB3
:103A830074F412089AEA4B9016BC6019E4F08A08A1
:103A93008B09F50AF50B7808120E5C7A02122FA92E
:103AA300120E77800A7401F07A027B00122F9602BD
:103AB300309174F012089A74F3120F0B74031211FD
:103AC30053E4F0A3F0901474123D63740112115384
:103AD300E4F0A3124A4C04F09014AEE0A2E35003C6
:103AE300023BA8123D29740912115312113C7409A7
:103AF30012115378081210FC9014767808120EDD18
:103B0300740512115378081210ED123C2C7405122F
:103B1300115378081210A050077A017B00023C1958
:103B23007405121153780C1210FC9016A0E0F509DD
:103B3300780C790812082BA80CA90D9016A1E0C3E4
:103B430098E4995003E08001E8851882851983F091
:103B5300740912115378081210FCC008C009C00A76
:103B6300C00B7405121153780C1210FC123C2C7804
:103B73000C790812082BE4F50AF50BD00FD00ED000
:103B83000DD00C780C7908120FB0901476780C12C3
:103B930010ED8011123C1E126CBAEEFAEFFB1217F5
:103BA30066AE08AF09EE4F60658E828F8312321CBA
:103BB300C398502DEE2403F8E43FF9E0FA88828994
:103BC30083E0C39AF0602374031211531240867486
:103BD30001121153EEF0A3EF12616DFEA3E0FF801B
:103BE300C48E828F83A3A3A3E4F08E828F83127982
:103BF300B174011211531251EC8E828F83A3A3A3CC
:103C0300A36091126146121153123C2580897403FB
:103C1300121153124BDA740D0268E9123F24901407
:103C23007422125D0BA3A3A32290169F1279B9E409
:103C3300F50AF50B2274F012089A8A088B09890A8F
:103C430078007900901474123D63FBEE4B601E08FC
:103C53008E828F83A3A3A3A3124BA4601008E870E2
:103C630001098E828F83123D5FEA4F70E39016A2A3
:103C7300124BDAC3E89AE99B4003023D1C7A061211
:103C83003D1FA80CA90DEA497003023D1C8A828BD3
:103C930083E508F0A3E509123D3EE50AF09016A17D
:103CA300124D5E123D35A3E4F0A3F0901474124B51
:103CB300A4600D8E828F83A3A3A3A3126CBA801773
:103CC300901474126CBA9014AEE0A2E34009123D52
:103CD3002990147612113C9014AEE0A2E3503A7A84
:103CE300087B00901459E0F9121838EA4B4C4D70D8
:103CF3002890169FE0F508A3E085080CF50DE4F580
:103D03000EF50F780C120E5C7A087B00901459E0C4
:103D1300F912182C7404120E770268EC7B00121748
:103D2300608A0C8B0D2212184AEAF8EBF9ECFAEDD3
:103D3300FB22123D3922123D3EA322F08A828B835D
:103D4300A3A322E508F00245C5F08E828F83A3A3C7
:103D5300A3A3A3A322125656A3A3F022A3A3A3A310
:103D6300E0FEA3E0FF227F05020BBCF582E43509E8
:103D7300F583E0F922EA123D7D222410F582E42244
:103D8300123D8BA3A3A3A322123F28850882850992
:103D93008322123D9922F0850A82850B83A3A322F5
:103DA300E50E2411123DC9E022E50E240E123DC991
:103DB30022E50E2410123DC9E022123DC122EE126B
:103DC3003D7D3FF58322F582E4350FF58322240FF1
:103DD300F50AE43509F50B780A22E0F91216DC8AB4
:103DE300088B09EA4B2274F212089A890B8A088B12
:103DF300098A828B83124BDA121F5EEA4B600479C5
:103E0300B8806A121F6AE9F8902D70E493F9E8C349
:103E130099400479B280567A15123D1FAE0CAF0D4E
:103E2300EA4F7004791080458A828B83E4F0A312F1
:103E33003D3EE50BF0750A007808120E607C127D9A
:103E430000EA24031267F6120E7790147A1251ECEB
:103E5300700890147A800C123F2088828983123E66
:103E63007370F4EEF0A3EFF0121F7C7900024CC6DE
:103E7300124BDEEA4B8882898322C082C08390146E
:103E83007A80048C828D83127518EC4D60288C82A5
:103E93008D83A3A3E069600574FF6970E68C828D4E
:103EA30083A3A3A3E06A7003A3E06B70D6EC24039F
:103EB300FAE43DFB80047A007B00025ABB74F712DC
:103EC300089AE9FD74FE6D70047C0180027C009009
:103ED300147A80096D70027C01888289831251EC07
:103EE300601F88828983A3A3A3E06A7003A3E06BA6
:103EF30070E7ECA2E088828983A3A3E050D6F9801F
:103F03000279FE0245C5EEF9800CA3A31279B9EE3E
:103F1300227402120E777F02020BBCF583123F2438
:103F230022123F2822E0F8A3E0F922123F288E82D2
:103F33008F8322120E777F03020BBCC082C083796A
:103F43000090147A800109E0FAA3E08A82F583E500
:103F530082458370F1025ABB74F612089AE4F5089D
:103F6300F5097808120E64902D70E49375F013A48C
:103F7300A9F012407B126D18120E77E9FE74096ED8
:103F83007003121F76023F0974F612089A74FE1228
:103F93000F0B851882851983E4F0A3F0A818A919DB
:103FA300880889097808120E647508027509007873
:103FB30008120E64126989120E77023F1474F51207
:103FC300089A74EB120F0B851882851983E4F0A30A
:103FD300F090147A80748E828F83A3A3E0C0E07480
:103FE30002121153D0E012569DA982AA8389088A2E
:103FF30009750A007808120E607C127D007406129F
:104003001153126CDD120E777402120EC5880889E3
:10401300097808120E647508137509007808120EE2
:1040230064740412115312518F75F013A4F8AAF09B
:1040330075F013E9124077126991120E7785188291
:104043008519831240868E828F83123D63EE4F70F3
:1040530085A818A919880889097808120E647508B3
:10406300027509007808120E64126989120E7774BA
:1040730015023F36A42AF9E82402FCE439FD7A420A
:104083007B0022E02401F0A3E03400F02274F41258
:10409300089A74EB120F0B7E007F00A818A91988E9
:1040A3000889097808120E647508028E09780812C7
:1040B3000E647C007D007A42126D24120E77E97043
:1040C3006C8E0880567402120EC5880A890B780A12
:1040D300120E64750A13750B00780A120E64E50854
:1040E30075F013A4F8AAF075F013E50912407712DE
:1040F3006D26120E77E9701B7403121153AA82AB5B
:10410300837402121153E0F9121F58E970050EEE81
:1041130070010F0508E508700205098518828519E5
:1041230083123F20C3E50898E509994098EEFAEF1A
:10413300FB741502308E74F612089A8C828D83A359
:10414300A3124392F0EA125FB33BF583E0C0E0129F
:10415300434FD0E0F0EA241DF582E43B123F1E12E8
:10416300433312438DF0A3F0EA241FF582E43BF5B9
:1041730083123D63EC1243263DF583EEF0A3EFF08B
:1041830012432C3BF58312435DA3A3A3A3A3A3EE86
:10419300F0A3EF125C0EFE8C828D8312439C74039A
:1041A3005EFEC394034003024319EE600874026E7B
:1041B300600302423E8C828D83E0540CFE740C6ECD
:1041C300700302427DE0A2E4400D88828983E08C83
:1041D300828D83A31243B274086E600302427D1280
:1041E300433D7401F08A828B83A3A3A3A3A3125636
:1041F3006370148C828D83E0440C1243A4A3A31236
:10420300435DEEF0A3EFF08C828D83E0A2E4402BBC
:10421300888212436B124380500109F58212436B6B
:10422300A3A3A3A3A3A3F0A3EF1243AC8C828D8318
:10423300A3A3A3F0E82403F850010988828983E04B
:10424300C0E0EC2411F582E43DF583D0E012439CF9
:104253008C828D83E0A2E7507588828983E0FE8C8F
:10426300828D831243B274FC5E700C8C828D83A3A7
:10427300E054036403701E02431912433DE4F074D7
:104283000C6E60030241E88882124371124380502E
:10429300010902420A8C828D83A3E05403603288B1
:1042A300828983E0C0E0EC1243573DF583D0E012EE
:1042B30043B38C828D83E054036402701488828933
:1042C30083E0C0E0124345D0E01243B38003A3E48C
:1042D300F0EC12515B3D126CB8EC2410FEE43DFF90
:1042E300EA241DF582E43BF583E0F5088E828F8393
:1042F300E0C3982508F508F0EA2417F8E43BF988A9
:1043030082F583E0C39508C0E0124333D0E0125C2A
:104313000EC39508500A124333E4F012434FE4F0FE
:10432300023F192415F582E422EA240DF582E422E2
:10433300EC240DF582E43DF58322EC1253143DF594
:104343008322EC2414F582E43DF58322EC123D7DB7
:104353003DF583222413F582E422E0FEA3E0FF8CE3
:10436300828D83A3A3A3A322124371A3A3228983D0
:10437300E0F508A3E0FFE5088C828D8322A3A3A3C5
:10438300A3F0A3EFF0E82402F822124392A322E45D
:10439300F08C828D83A3A3A3221243BAA882A9839C
:1043A30022123D39A3A3A3A3221243BAA3E022A35B
:1043B3001243BA08A98322125C17A32274F41208C9
:1043C3009A74F3120F0B8A0A8B0BECFEEDFF8C82AF
:1043D300F583E0540CF508E0A2E75006E508D2E7C0
:1043E300F508E508D2E1F5081256637006E508D230
:1043F300E4F508E0A2E55006E508D2E5F5087C08F7
:104403007D007900AA18AB191216B2740212115367
:10441300E508126CBEC0E07403121153D0E0124AD7
:104423004CE50AF0A3E50BF0740512115312652A4B
:10443300121153E0707774081211531249D2125CAF
:104443000038126545C0E074081211531244D3D0EA
:10445300E0126525C0E074081211531244C9D0E07C
:10446300F074081211531244BFE01249FA124A7B46
:10447300126014EE241112562FC0E01244B5D0E09E
:10448300F0EE241412562FC0E0740812115312498F
:10449300D22435F582E438F583D0E0124A1FC0E018
:1044A30074081211531249D6D0E012627E740D02C1
:1044B300308EE82432F582E439F58322123F2EA3AD
:1044C300A3A3A3A3A3221249E612672438F58322E8
:1044D3001249E62426F582E438F5832274F712089C
:1044E3009A7E008A828B83A3A3A3A3A3A3A3A3A3DC
:1044F300E0640460030245A112530CE0600302452B
:10450300A112516E3B1251EA70030245A1888289C0
:1045130083E0540360030245A1E812531439F58381
:10452300E0FA8C828D83A3A3E0FBA3E0CB2411F5F7
:1045330082E43BF583E06A706588828983A3A3A341
:10454300A3A3A3A3A3A31245A5E06A7003A3E06BEF
:10455300704C88828983A3A31245B1E0FFA3E0CF07
:10456300240612562F6A7003A3E06B703188828988
:1045730083A3A3E0F88C828D83A3A3E0F9A3E0F5E2
:10458300838982A3A3E06860138C828D83A3A3A392
:10459300E0F5838982E0540C640470027E01EEF935
:1045A30080201245A922124BE28C828D8322A3A381
:1045B3001245A9A3A322740C121153E0F9740D122E
:1045C3000E777F01020BBC74F612089A74FC120F6B
:1045D3000BEAFEEBFFECFAEDFB8C82F583A3E054D0
:1045E3000360169014701251EC60597900EEFCEFE1
:1045F300FD125E0B1227A3804B851882851983EE6B
:10460300F0A3EFF07402121153124A41AC18AD1922
:104613007A947B1F1221BC8A088B09A808A909EA8E
:104623004960218A828B83A3A3A3A3A3A3A3A3A3E8
:104633007406F07A0088828B831249D2125FD4E029
:10464300F912211A7404023F1674F212089A74F3D1
:10465300120F0BEAFEEBFF8A82F583A3A3A3A3A3A6
:10466300A3A3A3A3A3E0F50A9016BCE0700579BA4F
:1046730002498A750801750900750C00750D007CE7
:10468300087D007900AA18AB191216B2740512112D
:10469300537401124A54540460127402121153E009
:1046A300D2E6124A5454087003750803E0541060AC
:1046B3000674404508F508E054086022740212119C
:1046C30053E044C0124A545420600A740312115335
:1046D300E0D2E080087403121153E0D2E1F0EE243B
:1046E3001512562F1249BA700374016970067408C3
:1046F3004508F5088E828F83A3A3A3A3A3A3A3A333
:10470300E0701612221685188285198312602174AF
:1047130002121153E0D2E28030640F70107402125F
:104723001153124A5C74044508F508807F8E828F0A
:1047330083A3A3A3A3A3A3A3A3E064028E828F8373
:10474300700A126CF1E8F0A3E9F08060A3A3A3A3BD
:10475300A3A3A3A3E06403700DAC18AD19EEFAEFA5
:10476300FB121FCA80468E828F83A3A3A3A3A3A396
:10477300A3A3E064017035901504E0601074021285
:104783001153124A5C750910750AFF8018740212DE
:104793001153E0440C124A4C74FDF0A374FFF074FF
:1047A300044508F5088E828F83122FA1EE2415127B
:1047B300562FA2E0503F7402121153E0540C701BA9
:1047C3008E828F83124BDA121C2EE9700579BB029D
:1047D300498A7402121153E0D2E5F0EE2415125601
:1047E3002FA2E050107402121153E0540C640470B1
:1047F30004E0D2E5F0EE241112562FC0E074041247
:104803001153D0E012652C121153E0600302498367
:104813007408121153124A15E508F0A3E509F012C2
:1048230049B0E0C0E01249A6D0E0F0124997E0C0D9
:10483300E074081211531249D212435738F583D04A
:10484300E0124A7B64017011901504E0C0E0740823
:104853001211531249F0D0E0F07408121153124AA6
:10486300101249A1FAE8241CF582E439F583EA120F
:104873004A47EE2415FAE43FFB8A82F58312751842
:10488300E812596B39F583124A41EE241C12562F54
:10489300C0E012498DD0E0125AB11249BA700374C4
:1048A3000169701374081211531252FCFAEE241D9D
:1048B30012562FF9121E9E8E828F83A3A3A3A3A346
:1048C300A3A3A3A3E0C0E074081211531244D3D0EE
:1048D300E0F074081211531244C9E50AF074081287
:1048E300115312518F2428F582E439F583E50CF036
:1048F300A3E50D124A271249FA1256A8126014EEC4
:104903001249A1C0E0E82433F582E439F583D0E00D
:10491300F0EE241B12562FC0E074081211531249F3
:10492300D6D0E0F0EE241A12562FC0E0740812110C
:10493300531249D22432F582E438F583D0E0124A87
:104943001F1249C6120E6012672A127518740B12D1
:1049530011531249D2242F1279F4120E77EE241533
:1049630012562F544060129014901251EC600AAA10
:1049730018AB19125E0B1227A3AA18AB1912203C0D
:10498300740C121153E0F9024CC1E82420F582E4BF
:1049930039F58322EE2419F582E43FF58322126769
:1049A30039E022E82412F582E439F58322EE241853
:1049B300F582E43FF583225480F8A3E05401F974AF
:1049C300806822F508A3E0F509750A007808221229
:1049D30049E6221249E62434F582E438F58322A31A
:1049E300A3A3A31249EA22E0F8A3E0C8221249E6EE
:1049F30012432638F58322FAA3E0FBE8242AF58242
:104A0300E439F583EAF0A3EB22A3A3A3A3123F2483
:104A1300EE2212519312517339F58322F0EE2413CF
:104A23001256B022F0EE240D1256B022E0FC8A8218
:104A33008B83E02CFCA3E03400FD8A828B83ECF0B3
:104A4300A3EDF022F0A3E4F022F085188285198308
:104A530022F0EE24151256B022E0D2E3F0124A649B
:104A6300228E828F83123F28851882851983E8F06E
:104A7300A3E9F022E8F0A3E9126167E02274F712D8
:104A8300089A8A828B83A3E0640170047E638002A8
:104A93007E648A828B83E060087905124AB424F32A
:104AA300FE9014ACE06007F9124AB424F2FE02450A
:104AB300A11220E4E9F8EEC3982274F612089A745E
:104AC300FE120F0B851882851983126021E9FEEC13
:104AD300FAEDFB9004811251EC6032A818A91988F1
:104AE3000889097808120E647D01740E121153E0CF
:104AF300FCEEF9900481125FF51227A37402120EE3
:104B030077EA4B60047900800679B2800279B602B5
:104B13003F1474F712089AE9FE9014661251EC6080
:104B23001F7409121153E0F5087808120E68EEF9A4
:104B3300901466125FF51227A37401120E77800298
:104B430079B60245C574F712089A8908ECFEEDFFA1
:104B530079B5E508245E602014600624F86034808B
:104B63003D900483124BA46035126D351227A38E3A
:104B7300828F831260218024901468127518EC4D83
:104B8300601CEEFCEFFD901468125FF51227A3E999
:104B9300F9800B901464124BAA1218627900024533
:104BA300C5124BDEEA4B2212751CEEFAEFFB2274A0
:104BB300F712089AE9FE79B574AB6E700B90146422
:104BC300124BDA12186279000245C58E828F83A3D5
:104BD300A3A3A3A3A3A3A3124BDE22124BE222E0BF
:104BE300FAA3E0FB2274F112089AEAFEEBFF8C0AA7
:104BF3008D0B7508019014B4E06E7003A3E06F7021
:104C03000C124CB5AA0AAB0B121862805E12221C5E
:104C1300EE6A7002EF6B7009AA0AAB0B12222280B4
:104C23004AAC0AAD0BEEFAEFFB121D72E9F50890E0
:104C330016A7E070361226AEE97030E508702C90A6
:104C43001484E06E7003A3E06F7020EE4F601C7558
:104C53000C7C750D14750E00780C120E607C087DAB
:104C630000AA0AAB0B126CE1120E77A908027614A4
:104C730074F212089AEAFEEBFF8C088D09750A019B
:104C8300124CB5EEFAEFFB12185CE9640170119057
:104C930014B4123F20850882850983126CBA800EF2
:104CA300AC08AD09EEFAEFFB121D78E9F50AA90A83
:104CB30080111222108A0C8B0DAC0CAD0D22740DD9
:104CC300120E777F06020BBC74F612089AEAFEEB0B
:104CD300FF7A0D7B00121760EA4B6062EE24241208
:104CE30069BEF0EE24251269BEA3124D831269C476
:104CF300A3A3126757124D5EF0EE124D44124D738B
:104D0300E8F0A3E9124D9A124D6B126CBAEE124DF4
:104D13004D12681AA3A3A3A3F0EE243312562FC097
:104D2300E0124D56D0E0126549124D6BA3A3A3E8E0
:104D3300F0A3E9124D92C0E012530CD0E0F0023F11
:104D430019242AF582E43FF58322242EF582E43FD9
:104D5300F58322EA1257853BF58322124D6222E046
:104D63008A828B83A3A3A322126879A3A3A3A3227A
:104D7300124D7722123F288A828B83A3A3A3A322F7
:104D8300F0124D8822EE2426F582E43FF58322F0CB
:104D9300EE24321256B022F0EE242C1256B02274B6
:104DA300F412089A74FE120F0BECFEEDFFEC2416BE
:104DB30012562F64057010EC2406FCE43FFD121F0D
:104DC300C4E97003024E4EAC18AD19126A73121C7B
:104DD300348518828519831251EC606B8E828F8320
:104DE300E064017058E875F009A4F8AAF075F009B9
:104DF300E9A42AF974DD28F8740139F9E8FAE9FB22
:104E03008882F58378081210FCEE124EF01210A07F
:104E13004027851882851983124A1012563D124E77
:104E23005378081210FC9082C778081210248A82E3
:104E33008B8378081210ED800A79A28010EE240F7C
:104E4300126CB47900800679A1800279C802308C93
:104E5300124A71EE1267452274F212089A8A0C8B79
:104E63000DECFEEDFFEC12563DE4F0A3F090828FC3
:104E730078081210FCEC124EF0120F4B6067EC2412
:104E83000E125636703478B39014ABE07028901439
:104E9300DDE064017020EC241112562FF91220CCAE
:104EA3008B09A909EE12516F3F12601FEA49600492
:104EB3007800800278A18808802EE0600464027084
:104EC3000A121FD6E9F5087007801DE0640370100D
:104ED300EEFCEFFDAA0CAB0D121C58E9F508800897
:104EE3007508A180037508A3A908024CC61267457B
:104EF30078082274F012089A74F5120F0BEAFEEB8D
:104F0300FFEA240AFCE43F8C82F5831279B512513F
:104F1300797403120ED58A828B83125E15E97003AE
:104F2300024FDF7401120ED57403120ECD121C341E
:104F330074011211531251EC7003024FDFE875F044
:104F430009A4F8AAF075F009E9A42AF974D928FC90
:104F5300740139FDE508240E126266E4F0041211AF
:104F630053123F20E50812516F3509126CB88C8239
:104F73008D83121130E508241212626612113C90DF
:104F830082C778081210FC8C828D83780812103740
:104F93008C828D83780C1210FC9082B378081210E7
:104FA300FC780C790812082BE5084509450A450BDE
:104FB300702A740112115312518F75F009A4F8AAC3
:104FC300F075F009E9A42AF974E128F5827401392E
:104FD300F5837401F07A007B0812519C8E828F83D3
:104FE300A3A3A3A3A3A3A3A3A3A3E02406FCA3E0D7
:104FF3003400FD8E828F83125E15126537603EEE9C
:10500300240A125161124A157468124A47E8125170
:105013005B39F5837402F09014961211308C828DF3
:105023008312600E125C003CF58312113C9082C720
:1050330078081210FC90149678081210371251D782
:10504300705D901464125187A3A3A3A3A3A3A3A386
:10505300A3A3125C3612185CE97010125BF490146F
:1050630064125C06700512653760348E828F83A3E9
:10507300A3A3A3A3A3A3A3A3A3125187124BDA123F
:105083001C5EE960118E828F83A3A3A3A3A3A31243
:1050930051C3E4F0A3F08E828F831251A9E4F0127E
:1050A30051D760030251568E828F83A3A3A3A3A378
:1050B300A31279B19014ABE0600302514B9014DD5D
:1050C300E06401600302514B750A3A750B00780ADC
:1050D300120E647402120EC5880A890B780A120E26
:1050E30064126FB0120E77E9705BE508240E12624A
:1050F3006674011251F1C0E0E5082411126266D012
:10510300E0F0E508240F126266743A124A479014DD
:1051130092121130E508241212626612113C908239
:10512300C778081210FC90149278081210379082F6
:10513300C778081210FC9014927808120F4B70086D
:1051430012519880031251791251D77006125AF7EF
:1051530074A1F0740B0268E9240EF582E422F8E4EA
:105163003FF9E8FCE9FD8882F58322EA12517322B4
:10517300240FF582E422E5081251733509F583E41F
:10518300F0A3F02212751C8E828F83221251932278
:10519300123F28E8227A007B0290133DE0F91217B0
:1051A30006228A828B83A3A3A3A3A3A3A3A3A3A35C
:1051B3001251B7221249EA240EF582E438F583220C
:1051C300A3A3A3A31251CB221249EA240FF582E42D
:1051D30038F583228E828F83A3A3A3A3A3A31249AB
:1051E300E2240FF582E438F58312519349221251D8
:1051F300F522F0851882851983E02274F612089A45
:10520300EAFEEBFF7A237B00121760EE240AF5080F
:10521300E43FF50985088212601F7C237D00790035
:105223001216B28508828509831251EC700302526B
:10523300BFEEFAEFFB121FE21251D760748E828F1A
:10524300831252F264018E828F83A3A3A3A3A3A329
:1052530070071252E8740E80211251EC701012651F
:1052630037700B8E828F83A3A3E0A2E05007125204
:10527300DE740D80051252DE740512654954036411
:105283000170071252C67405800B9014ACE0C0E0A5
:105293001252C6D0E0125301F583888212565C8500
:1052A30008828509831249D2125FB338F583E980F6
:1052B3000E8508828509831260988003125FDBF0F4
:1052C300023F198E828F83A3A3A3A3A3A3A3A3A3A4
:1052D300A31252D822E0125FFAA3228E828F83A3F5
:1052E300A3A3A3A3A31249E2125FB938F58322A3B0
:1052F300A3A3A3A3A3A3A3A3A31251B7E02212536F
:105303000522126A88F8A3E022EA1253143BF583BC
:1053130022240CF582E42274F112089A74E4120F29
:105323000B8A0C8B0D8C088D097A237B0012176076
:105333008A0A8B0BAE0AAF0BEA4F700302561712A1
:105343005FBFE5082415125648687003A3E0698E11
:10535300828F837004740280027401F0E508240DC7
:10536300F8E43509F98882F583E0FAC3E49AFA95FB
:10537300E0FB1256442AFAA3E03BFB8E828F83A301
:10538300A3A3A3125C1D8E828F83A3A3F0EE24201C
:10539300F582E43FF583E4F0EE2421F582E43FF562
:1053A30083E4F0EEFAEFFB122096850882850983E9
:1053B30012566370098E828F83A37405800690143E
:1053C300AC125651F0EE2417F50AE43FF50B8E822A
:1053D3008F8312565CE9850A82850B83F0EE2416CF
:1053E300F8E43FF9E508240EFAE43509FB888289DD
:1053F30083124A2FE5082410FAE43509FB850A8253
:10540300850B83E0FC88828983E0F88A828B83E0C2
:10541300C398C39CF812569DF0EEFCEFFDAA0CABAB
:105423000D121FDCE9F50B8E828F83E06402700698
:10543300125BF4125621E50B600302560E750C0045
:10544300750D009016A7E064016005E06402703FEB
:105453001256336008EE242112563670328E828F34
:1054630083A3A3A3125FE1125669EE241612562FEB
:10547300125692FAE439FB123D21EA4B601112688D
:1054830043120E60125677AA0C126CE1120E77EEDD
:10549300FAEFFB1220A2E9F50B9016A7E064016076
:1054A30008E064026003025601E97003025601E555
:1054B3000C450D700302560E8003850E0B125633F6
:1054C300600BEE24211256366003025607850B0E3D
:1054D300850C08850D09750A007808120E601256AE
:1054E300778E828F83A3A3A3A31279FA120E77EE8A
:1054F300242012562F600D12563C7468124A47EE50
:1055030024208015EE242112562F601512563C7468
:1055130003F0A37401F0EE2421F582E43FF583E464
:10552300F0EEFAEFFB1220A2E9F50B70907C137DED
:105533000079007409120ECD1216B2741A121153A7
:1055430074011256A864687002A3E0704F8E828FB4
:10555300831251C3E0640560030254BD7C0879FFE4
:105563008E828F83A3A3A3A3E0242A125C3912178C
:105573003CE970030254BD7C087D0079FF7401127D
:105583000ECD1216B27401120ED57A007B0079ABE0
:10559300121FBE741912115374FC801512563CE08D
:1055A30064037004A3E06401700874191211537446
:1055B300FFF0E4F508F5097808120E647402120E80
:1055C300D57413121153AA82AB8312611E120E7784
:1055D300851882851983E0602B7409120EC588082B
:1055E30089097808120E6475081375090078081282
:1055F3000E647C007D00126991120E778006E50C23
:10560300450D6007AA0CAB0D121766EEFAEFFB12FD
:1056130017668003750B10A90B741C027611EE2418
:1056230006FAE43FFB12186222EE240C1256B02253
:10563300EE24201256B0640122EE1251733FF5831B
:1056430022E508240EF582E43509F583E02212569B
:1056530056A322E08E828F8322A3E0F91220E42254
:10566300E0540364012212566D22E0FAE82AF8E4BA
:105673003400F9228E828F83A3A3A3125FE512560F
:105683006DEE24161256B0125692FCE439FD22FA3E
:10569300E82AF8E439F9E82404221256A122126513
:1056A30058A3A3A322F01256AD22EE240FF582E4F1
:1056B3003FF583E0227901020E0C74F412089AEA92
:1056C300FEEBFF8A82F583A3A3A3A3A3A3A3A31241
:1056D30049D22424F582E438F583125663702E8A66
:1056E300828B831252F2702512578BE06405701D72
:1056F30012578BA3E0F8740168600574066870079D
:105703001251A5740280051251A57403F0EA240A0C
:1057130012608C125FF5E4F0EA2408F8E43F1230DB
:105723007B2431F582E43AF583E0C0E0126D2CA3CB
:10573300A3D0E01257AACA242EF582E43AF583E0F7
:10574300C0E0126D2CA3A3A3D0E0125CD0C8125703
:105753008538123F1E126D2C12579F8A0A8B0BAC91
:105763000AAD0B850882850983125C36121862859F
:105773000882850983124BDA1220A2126087F00295
:105783003091240BF582E4228A828B83A3A3A3A303
:10579300A3A3A3A312651EF583888222A3A3A3A3B5
:1057A300124A7112221022125C12FAA3E02202564C
:1057B300B8C082C08390148674E8F0A3741FF0907D
:1057C300148874F4F0A3741FF090148A74FAF0A38D
:1057D300741FF090148C74EEF0A3741FF0025ABB84
:1057E30074F412089AEA2408FEE43BFF8E82F583E0
:1057F30012518F125FCBE0F50874035508F50912B7
:105803005C31F8A3E08882F583E508F0A3A882A9B8
:1058130083E50960097402650960030258D0740CBA
:105823005508FC600A74086C600574046C70267477
:105833000265097006E508A2E4401A8A828B83A3F5
:10584300A3A3A3A3A3A3A31259D61267243D12595A
:1058530071A308A983740C6C701C1259D2242812EA
:1058630059BE2428F582E43DF583A3126352F0E880
:105873002402F8500109740265097006E508A2E4E0
:10588300404B1259D2242A1259BE242AF582E43DF0
:10589300F583A31259801259DC1263521259DCA307
:1058A300125978E82404F8500109EC600F74086C6D
:1058B300600A740C6C600574046C7011126002242D
:1058C30026F582E43C125971A3A882A9838A828BAC
:1058D30083A3A3A3A3A3A3A3A31259A05403701444
:1058E300E508A2E1400E12600212596B3CF583E019
:1058F30054806008125986125973801990145AE023
:10590300C0E0125986D0E01259B3888289831259B4
:10591300B304125C17A3A882A983E508A2E7504544
:105923008E828F831259A0888289831259B91259A2
:10593300A5540360301260022434F582E43C126300
:1059430050F0E508A2E1501D8A828B83A3A3A3A391
:10595300A3A3A3A31230802435F582E43A12635043
:10596300A3F0E82403023091241EF582E422F58398
:10597300125980F022125980A3A3A3F022E0888257
:105983008983228A828B83A3A3A3A3A3A3A3A3E0D4
:10599300FCA3E0CC2432F582E43CF58322E01259E7
:1059A300A522FCA3E0CC2425F582E43CF583E02288
:1059B300F090145AE022126554E022F582E43DF59A
:1059C300831259801259CB221265581259D6228E4E
:1059D300828F83E0FDA3E0CD22A31259CB242CF5C3
:1059E30082E43DF58322C082C0838A828B83125A6C
:1059F300ABFC74035CF98A828B83A3A37401F0E983
:105A030060057402697061740C5CF8600A7408685C
:105A1300600574046870137402697005ECA2E440B5
:105A2300098A828B83A3A37402F0740C68700A8AB8
:105A3300828B83A3A3E02402F07402697005ECA2B5
:105A4300E440258A828B83A3A3E02404F0E8600F5B
:105A5300740868600A740C68600574046870098AC5
:105A6300828B83A3A3E004F0ECA2E7502A8A828B03
:105A730083A3A3E004125AB112358AE054036017DA
:105A83008A828B83A3A3E004F0ECA2E150098A820B
:105A93008B83A3A3E004F08A828B83A3A3E004F0A7
:105AA30080168518828519831252D8A3E022F08AC2
:105AB300828B83E022120E77D083D082020E0CC039
:105AC30082C0838A828B83A3A3A3A3A3A3A3A3A339
:105AD300A31251EC60098A828B83A3A3125AE48038
:105AE300D7A3A3A3A3A3A3A3A3125AF022124BE207
:105AF30012176622125AFB22EE240CF582E43FF5BC
:105B0300832274F612089A74F4120F0B125C40FC91
:105B1300A3E0F5838C82A3E0C0E07402121153D09A
:105B2300E0125CEE125CD77404121153126CBA7457
