:020000040000FA
:060000000210360205E4C7
:03002B00020D982B
:030033000209A718
:0300530002051390
:03006B0002095C2B
:03007B00020985F2
:1000830002057501010000000000F8FF07FFFF00F3
:10009300000504000000030001FF0020FD0002062C
:1000A300FFFF1E1410270000381900000000000095
:1000B300000000000000000000000000000000003D
:1000C300FFFF0C01040000D715000000E803000047
:1000D300FFFF28160188130000E803000064006492
:1000E30000B801A0BB0D00A0BB0D00020202070473
:1000F30001051E02051E020A0A010108080103B8D0
:100103000B02803E0102FEFFE8030A050001FFFF28
:10011300020A011401E002000000050301010F03BC
:1001230000030003000300030003000300030003B4
:100133000005000A00140028004F009E000000F391
:100143002B00000000C72A00000000FF000000FF92
:10015300001210556046121046603DE9687008F6BB
:1001630018F618F618F622748067F7120188090941
:1001730009748067F722121046601D12105570052E
:10018300191919801A120F25701F120EE9C3700373
:10019300E667331919194007181818220808087454
:1001A300FFF618F618F618F622120EE96017121069
:1001B300E3702192F01210EC7019501720F014081C
:1001C3000808090909E7F61819E7F61819E7F618F0
:1001D30019E7F6221210EC60E6E869701F0808E6DA
:1001E3002480F608E436F618547FB47F0CE6548076
:1001F3006007F6E418F618F622181822E9C6CC08A8
:10020300C6CD08C6CE08C6CFC0E0E8C0E0EAC0E06D
:10021300EBC0E009E9F809E7FA09E7FBE6F918E6B4
:10022300F8C3EC98ED99EE9AEBC2E7F5F0EFC2E76D
:1002330095F0500E600CEBCFFBEACEFAE9CDF9E86E
:10024300CCF8EAA2E7D2E7FAEB33FB13F5F0EEA220
:10025300E7D2E7FEEF33FFC5F013A2E730E601B3C1
:1002630013C5F0C3C0E0C0F07F00C39BFB605E9486
:1002730018600F401D14601AD0E023F9D0E0F80293
:10028300035A8AF0E9486003D2F0E4AFF0FAF9F8D0
:10029300803BEB30E40D89F0EA6003D2F0E4AFF089
:1002A300F9CAF8EB30E30D88F0EF6002D2F0AFF05B
:1002B300E4CAC9F8EB54076014FBC3EA13FAE91361
:1002C300F9E813F8EF135002D2E0FFDBEDD0E0C002
:1002D300E030E739C3E49FFFF5F0EC98FC42F0ED22
:1002E30099FD42F0EE9AFE42F0D0E0F9D0E0F8E555
:1002F300F0607AE923F9EE20E742D8028067C3EF82
:1003030033FFEC33FCED33FDEE33FE80EAEC28FCE7
:10031300ED39FDEE3AFED0E023F9D0E0F84002805B
:100323001BC3EE13FEED13FDEC13FCEF135002D2CF
:10033300E0FF08B800067F7F74FF802EEF3350176D
:100343008CF020F00260100CBC000C0DBD00080EF8
:10035300BE000408E860DFE933E813FFEE2313FE71
:100363004F4D4C8008E95480FFE4FEFDFCEE33EF73
:1003730033F47004FCFD7E80D0E0FBD0E0FAD0E0E3
:10038300F8D0E0CFC618CEC618CDC618CCC6F92211
:1003930000121046604F1210556012E7548066F643
:1003A300120F2570111210E3703B090909F4F618B6
:1003B300F618F618F622120EE970151210EC08085A
:1003C3000860EAE6447FF618768018E4F618F62209
:1003D3001210EC60161210E37012E4F608F608F639
:1003E30008E65480F609090918181822EAC0E0EB58
:1003F300C0E0ECC0E0EDC0E0E687F0A4FBACF008A1
:10040300E687F0A42CFCE435F0FA1809E687F0A49B
:100413002C4B60027401CA35F0FCE433FB09E68718
:10042300F0D2F7A42CCB35F0FC1908E687F0A42B07
:10043300CC35F0FBE433FD0819E687F0D2E7A42CB2
:100443004ACB35F0CD3400FC09E687F0D2E7A42D82
:10045300CC35F0FDE433FA0918E687F0D2F7A42C83
:10046300CD35F0CA3400FC08E687F0D2E7D2F7A412
:100473002ACC35F07A7E20E70B0ACB33CBCD33CDB4
:10048300CC33CC33CB3350147004ED30E00ED2F1C7
:10049300E4CD3DCDCC3CCC3B5005DA05C2F1EB5469
:1004A3007FC63308E63392F0FBE73309E733C39A99
:1004B300502D2B70190C0D4C4D70151806E608C302
:1004C30033700D20F10AA2F013F6E418800B4024D8
:1004D300E4F630F002768018F618F618F68024D386
:1004E3003B14501074FFA2F013F6187680E418F64C
:1004F30018F6800FA2F013F618E63303F618ECF69D
:1005030018EDF6D0E0FDD0E0FCD0E0FBD0E0FA221D
:10051300C0E074F11208FDA2AFE433F509D2AF8550
:10052300A708AFA1EF5508FE74105E60061213B062
:1005330075A1EF74085E60081213B675A1F78024E5
:10054300EFA2E092F0E508A2E082F05017906198E4
:10055300E0F890040EE0C398A2D265D0335002E8CD
:10056300F075A1FE752300E509A2E092AF7F0202B8
:100573000A18C0E074F21208FDA2AFE433FED2AF52
:100583009061A4E0F8759B00E591585408600875E4
:1005930091F71214048023E5915854106008759163
:1005A300EF12140A8014E591A2E092F0E8A2E0822F
:1005B300F05007E0C2E0F01215609061A3E0F8E5A7
:1005C300E9585404600E12153675E9FB906193E007
:1005D300A2E640F2752300EEA2E092AF7F01020A89
:1005E30018C0E074F21208FDA2AFE433FED2AF905C
:1005F30061A5E0F8E5BF585404600675BFFB12150A
:100603007880D1C3E498F8E499F91206478026C3A9
:10061300E49AFAE49BFBE920E7E9120647E498F839
:10062300E499F922C3E498F8E499F9120647E498A7
:10063300F8E499F9C3E49AFAE49BFB22EB20E7CFB1
:10064300E920E7E0B90010BB0008E88AF084F8AAC3
:10065300F022E4FBC8FA22EB70227B10C833C8C92E
:1006630033C9335007C39AC3DBF280069A50012A79
:10067300DBEAC833F4C8C933F4C9FA2275F008E4D5
:10068300C833C8C933C933C99AC99B5004C92AC9D5
:100693003BD5F0ECFBC833F4C8E4C9FA221206EBED
:1006A30030F03912073080341206EB20F01430E7B3
:1006B3002B74FFFCFBFA747F8022E4FCFBFA74804A
:1006C300801AB48008BC00F2BB00EF800F50EBF936
:1006D300E4C39AFAE49BFBE49CFCE499C6CC18C6F9
:1006E300CB18C6CA18C6F922E4C9C608CAC608CBBD
:1006F300C6D3330308CCC63392F0C3947F402E9401
:10070300184019C9B90704CACBCC225025C309CA5A
:1007130033CACB33CBCC33CC33D9F422F4600DC9F9
:10072300CCC313CB13CBCA13CAD9F6CC22E4FCFB3C
:10073300FA2214FCFBFA22080808EAC0E0EBC0E046
:1007430086F0E7A4FA180986F0E7A42AFA180986BE
:10075300F0E7A42AFA180986F0E7A42AFA1986F022
:10076300E7A4FBE5F02AFA190886F0E7A42BFBE5DA
:10077300F03AFA190886F0E7A42BFBE5F03AFA18E9
:10078300180986F0E7A4C5F02BFBE43AFA1908E749
:10079300C5F0C6A426F6E5F03BFBE43AFA1886F06A
:1007A300E7A4F6E5F00826F6E43B08F6E43A08F693
:1007B300D0E0FBD0E0FA22E4CFC0E0E4CEC0E0E436
:1007C300CDC0E0E4CCC0E075F020E626F608E633C1
:1007D300F608E633F608E633F6181818EC33FCEDA2
:1007E30033FDEE33FEEF33FFC3EC9709ED9709EECC
:1007F3009709EF97191919400FFFEC97FC09ED972B
:10080300FD09EE97FE191906D5F0BFECF709EDF7D0
:1008130009EEF709EFF7191919D0E0FCD0E0FDD084
:10082300E0FED0E0FF222521C582C0E0E52234FFAF
:10083300C583C0E0E521C3958224F810AF08858302
:10084300228582218008858322858221D2AFCEF042
:10085300A3E520F0A37808E608F0A3DEFAEFF0A3FF
:10086300E58124FAF8E608F0A3E608F0A3E608F029
:10087300A30808E608F0A3E608F0A315811581D0C4
:10088300E0FED0E0F8158115811581E8C0E0EEC0E7
:10089300E0221210CEB900030208E7E490030178C6
:1008A300C379168002F0A3D8FCD9FA782390008686
:1008B3007A01BA00028007E493A3F608DAF97AC34F
:1008C3007B1890008778CE79018015E493A3AD82DD
:1008D300AE838A828B83F0A3AA82AB838D828E83BD
:1008E300D8E9D9E77582A27583E17404120D7A758C
:1008F30082A27583277400120D7AC0D02521C58288
:10090300C0E0E52234FFC583C0E0E521C39582241E
:10091300F310AF0885832285822180088583228591
:100923008221D2AFC8F0A3E9F0A3EAF0A3EBF0A3CE
:100933007908E709F0A3D8FAECF0A3EDF0A3EEF001
:10094300A3EFF0A3D0E0F0A3D0E0F0A3D0E0F0A3B6
:10095300E520F0A3E5F0F0A322C0E074F21208FD55
:10096300A2AFE433FED2AFE589541C60031212D860
:100973005389E3C2C5752300EEA2E092AF7F010263
:100983000A18C0E0C0D0E8C0E0A8A8D2AFE58A85C5
:100993008A8AC2EB752300E8A2E792AFD0E0F8D0D1
:1009A300D0D0E032C0E0C0D0E8C0E0A8A8D2AFE524
:1009B3008B858B8BC2E880DCE9799EC608CAC608A2
:1009C300CBC608CCC6C370207996CACBCC70197934
:1009D3008ECBCC70137986CC700EF9802ACA33CAB9
:1009E300CB33CBCC33CC331930E7F2CCCBCA335037
:1009F300147004EA30E00DE4CA3ACACB3BCBCC3CDA
:100A0300CC500209C3E913C6CC182313C6CB18C6AE
:100A1300CA18C6F922852283852182E0C0E0A3E0BB
:100A2300F9A3E0FAA3E0FBA37808E0F608A3DFFA52
:100A3300E0FCA3E0FDA3E0FEA3E0FFA3E0C0E0A38E
:100A4300E0C0E0A3E0F5D0A3E0F520A3E0A3F5F038
:100A530010AF0885832285822180088583228582C1
:100A630021D2AFD082D083D0E0F8D0E03275F0103D
:100A73008E248F258582298583288521828522835B
:100A8300E0CEA3E0CF852982852883EBC9EAC8EDB0
:100A9300CBECCAC3E833C8E933C9EA33CAEB33CB77
:100AA300C3EA9EF527EB9FF526B35004AB26AA278E
:100AB300EC33CCED33CDD5F0DAAE24AF25221210D2
:100AC30046601C12105560171210EC70071210E3E9
:100AD3007001D322C0D01210E37006D0D0B322C36A
:100AE3002233D0D0501430E0F6C3E7960809E796D6
:100AF3000809E7960809E796B32220E0D5E69708A8
:100B030009E6970809E6970809E697B322D083D048
:100B130082ECC0E0EDC0E0E493A3FCE493A3FDED1D
:100B23004C600D120BE8EC24FFFCED34FFFD80EF6D
:100B3300E493A3FCE493A3FDED4C600D120C85EC50
:100B430024FFFCED34FFFD80EFD0E0FDD0E0FCE4BA
:100B530093A3C0E0E493C0E022852283852182E051
:100B6300A3FEE0A3F5207808E0A3F608DFFAE0A3EC
:100B7300FFE0A3C0E0E0A3C0E0E0A3C0E0E0A3C0C7
:100B8300E0E0A3C0E010AF088582218583228008BE
:100B9300858221858322D2AFD083D082020D80D07B
:100BA30083D082E9C0E0E493A3C386F0C5F095F057
:100BB300F908E493A386F0C5F095F0700BE493A3D2
:100BC300C3994005E9048002A3E475F002A42582D9
:100BD300F582E5F03583F583D0E0F9E493A3C0E033
:100BE300E493C0E022C0E0C3E493960874019396B3
:100BF30018400FE493667008087401936618700038
:100C03007019A3A3C3E49396087401939618A3A33E
:100C1300400DD0E0D0E0D0E0020B4CA3A3A3A3A3EC
:100C2300A3D0E0227404800474028000CCC0E0ED01
:100C3300C0E0E521C39CCCAD2250011D10AF068C52
:100C4300218D2280068C218D22D2AF120CFCD0E0A4
:100C5300FDD0E0FC2274028000CCC0E0EDC0E0E5F2
:100C630021C39CCCAD2250011D10AF068C218D22D7
:100C730080068C218D22D2AF120CDAD0E0FDD0E0B9
:100C8300FC22C0E0C0F088F0E493667008087401A9
:100C93009366187000A8F0A3A3700BD0F0D0E0D037
:100CA300E0D0E0020B4CA3A3D0F0D0E022D083D05D
:100CB30082CCC0E0E493A36006120D5B1470FAE4E7
:100CC30093A36006120E7F1470FAD0E0FCE493A3A2
:100CD300C0E0E493C0E022CAC0E0E493A3C582CCA1
:100CE300C582C583CDC583F0A3C582CCC582C58328
:100CF300CDC583DAE5D0E0CA22CAC0E0E0A3C5824D
:100D0300CCC582C583CDC583F0A3C582CCC582C5BE
:100D130083CDC583DAE6D0E0CA2270090808082229
:100D23006016181818C6C333C608C633C608C633B8
:100D3300C608C633C6D5E0EA22C008C3E096F50864
:100D430008A3E096420808A3E096420808A3E096A9
:100D530045087001D3D00822C0E0E493A3D39C508C
:100D630010E493A3C39C400AD0E0D0E0D0E0020C8F
:100D7300CDA3A3A3D0E022C09FF59FE473D09F220D
:100D8300D083D082C09FE493C0E0740193C0E07429
:100D93000293F59F22C0E0C0D0E8C0E0A8A8D2AF7C
:100DA300C2C7752300E8A2E792AFD0E0F8D0D0D055
:100DB300E0327404800A74038006740280027401B2
:100DC300C0E0F404120DEBD0E01210912200C0D069
:100DD300252110AF08F521500C05228008F521507C
:100DE300020522D2AFD0D0222521F58210AF08F51B
:100DF30021400C15228008F52140021522D2AF852F
:100E0300228322BB0102E722C082C08389828A83B4
:100E1300BB0003E08002E493D083D08222601608F3
:100E23000808C6C313C618C613C618C613C618C601
:100E330013C6D5E0EA22C3E0C696F608A3E0C69639
:100E4300F608A3E0C696F608A3E0C696F622252187
:100E5300F8E43522F9222521FAE43522FB22252163
:100E6300FCE43522FD22252110AF08F521400C15A5
:100E7300228008F52140021522D2AF22C0E0E4937C
:100E8300A36C7009D0E0D0E0D0E0020CCDA3A3D0D6
:100E9300E022E066701008A3E066700A08A3E0662B
:100EA300700408A3E06622C3E09608A3E09608A3B3
:100EB300E09608A3E096A2D265D03322C3E7960852
:100EC30009E7960809E7960809E796A2D265D033A1
:100ED30022E76670100809E766700A0809E766707A
:100EE300040809E76622191919E70947097009E790
:100EF30027097005E733F4220922C3E096F008A31B
:100F0300E096F008A3E096F008A3E096F022C3E68B
:100F130097F60809E697F60809E697F60809E697AB
:100F2300F622181818E60846087009E62608700520
:100F3300E633F4220822C3E49396087401939608D7
:100F430074029396087403939622E026F608A3E0AE
:100F530036F608A3E036F608A3E036F622E627F6CF
:100F63000809E637F60809E637F60809E637F622F0
:100F7300700422600D18C6C333C608C633C6D5E055
:100F8300F41822E056F008A3E056F008A3E056F068
:100F930008A3E056F022E657F60809E657F60809D3
:100FA300E657F60809E657F622E026F008A3E036EE
:100FB300F008A3E036F008A3E036F022E056F60886
:100FC300A3E056F608A3E056F608A3E056F622E699
:100FD30047F60809E647F60809E647F60809E6472B
:100FE300F622E4C396F608E496F608E496F608E4D7
:100FF30096F622600D08C6A2E713C618C613C6D517
:10100300E0F322C6F4C608C6F4C608C6F4C608C68A
:10101300F4C622C3E09608A3E09608A3E09608A3CB
:10102300E09622C3E7960809E7960809E7960809B8
:10103300E7962275D00075813F7521017522030063
:10104300020895E6084608C3134608336002E633F0
:10105300F422E7094709C3134709336002E733F46E
:1010630022600C08C6C313C618C613C6D5E0F42203
:10107300E6F008A3E6F008A3E6F008A3E6F022E012
:10108300F608A3E0F608A3E0F608A3E0F622CAC038
:10109300E0E6F0A308DAFAD0E0FA22E0FAA3E0FBF4
:1010A300A3E0FCA3E0FD22EAF0A3EBF0A3ECF0A3A2
:1010B300EDF022E0F8A3E0F9A3E0FAA3E0FB22E8D5
:1010C300F0A3E9F0A3EAF0A3EBF022E5C754F84458
:1010D30001F5C77901222521F582E43522F5832222
:1010E300E72719471947194722E6261846184618CD
:1010F3004622C2AF75D69F02000022120D8394D4FC
:1011030002120D83EDD702120D836BDA02120D83E7
:1011130017DB02120D8347DB02120D83ACDB0212D5
:101123000D8340DC02120D83F3DC02120D8344DDD8
:1011330002120D8388DD02120D8322DE02120D835B
:101143008FDE02120D83BEDE02120D83C4DF021294
:101153000D83E8DF02120D833CE002120D8310E1E0
:1011630002120D833BE302120D83E9E302120D83A6
:101173005EE602120D83E3E602120D835AE90212C0
:101183000D8390EB02120D83D4EB02120D832DED30
:1011930002120D8340ED02120D8385ED02120D83C1
:1011A30051EF02120D838B7F00120D83CA7F001251
:1011B3000D832DF001120D83A9F001120D83DCF0D4
:1011C30001120D830AF101120D8348F101120D83FF
:1011D30085F301120D83A4F301120D83E9F30112C8
:1011E3000D837FF401120D83CBF401120D835FF5A0
:1011F30001120D8338F601120D8394F601120D834B
:10120300F2F601120D8365F701120D83A9F701129E
:101213000D8301F801120D8323F801120D83B3F836
:1012230001120D8344F901120D8390F901120D830C
:10123300BCF901120D83FDF901120D8393FB011219
:101243000D837FFC01120D835AFD01120D83E9EB1F
:1012530004120D83ECEB04120D834AEC04120D838C
:101263009EEC04120D83C0EC04120D83D6ED041220
:101273000D83E7ED04120D8385EE04120D8390EECA
:1012830004120D83AAEE04120D83F2FF03120D83E1
:10129300E9FF02120D83B9EE04120D83C9EE0412A5
:1012A3000D83DEEE04120D8392EF04120D83E4E945
:1012B30004120D8368EA04120D83D0EA04120D832D
:1012C3002EE604120D8356E604120D8379E604120A
:1012D3000D83D1E604120D831BE704120D8346E749
:1012E30004120D835DE704120D831DFC02120D83AE
:1012F3002BFC02120D83A4FC02120D837DFD02124E
:101303000D8340FF02120D8385FF02120D83AAFF96
:1013130002120D83F87F00120D8395DF04120D83F3
:10132300CDDF04120D831BE104120D839FE1041230
:101333000D8351F304120D8354F304120D8360F3F0
:1013430004120D8385BB04120D83B1BB04120D83FC
:101353001BBE04120D835BBE04120D8397BE0412E1
:101363000D83ABBE04120D83C4BE04120D83B6BF3E
:1013730004120D8369C004120D837DC004120D8312
:1013830034FE01120D8358FE01120D8371FE01120A
:101393000D83AFFE01120D83DFFE01120D830CFFDF
:1013A30001120D8316FF01120D837CFF01120D83C1
:1013B3007FFF01120D8389FF01120D8396FF011236
:1013C3000D83B0DA04120D83D0DA04120D830FDB20
:1013D30004120D832DDB04120D8348DB04120D83ED
:1013E300AEDB04120D83BADB04120D8317DC041287
:1013F3000D8326DC04120D834ADC04120D830BDDFE
:1014030004120D8318DD04120D8329DD04120D83EC
:101413008FF204120D83D7F204120D8303F3041227
:101423000D83D3C004120D832DC204120D833BC25E
:1014330004120D834EC204120D8363C204120D8382
:1014430078C204120D838BC204120D8307C30412E6
:101453000D836CC304120D83F4C304120D836CC497
:1014630004120D8345C504120D8355C504120D8363
:1014730064C504120D83F4F004120D8318F10412F1
:101483000D8340F104120D8368F104120D837FFD77
:1014930003120D83A6FD03120D83C4FD03120D83F6
:1014A30033FE03120D83DDD704120D83F6D7041226
:1014B3000D8302D804120D8316D804120D8334D879
:1014C30004120D833ED804120D8348D804120D83F1
:1014D3005BD804120D83E1D804120D8356D904128C
:1014E3000D8385D904120D83D3D904120D8322DA17
:1014F30004120D833DDA04120D8347DA04120D83BF
:1015030058DA04120D839BDA04120D83A8FF01122B
:101513000D83F3FF01120D8353A504120D837FA5E1
:1015230004120D839CA504120D83AFA504120D8331
:10153300CAA504120D8324A604120D8352A6041215
:101543000D8362AA04120D83C0AB04120D83F2ABA8
:1015530004120D8355AC04120D83C1AD04120D8327
:10156300E9AD04120D83FEAD04120D830EAE041219
:101573000D834EAE04120D8390AE04120D83A0AE04
:1015830004120D83B4E804120D83CEE804120D8314
:10159300F6E804120D830FE904120D8333E90412F4
:1015A3000D8351E904120D8368E904120D8396E952
:1015B30004120D83B1E904120D8398EF04120D8315
:1015C300DCEF04120D833DCE04120D834DCE0412C5
:1015D3000D8352CF04120D8384CF04120D83B4CF35
:1015E30004120D83D7CF04120D83EECF04120D83A3
:1015F30028D004120D838DD004120D83CFD0041292
:101603000D8316D104120D8343D104120D836ED1C1
:1016130004120D8387E304120D8399E304120D83EF
:10162300ADE404120D83B0E404120D83E8EC04125C
:101633000D831EED04120D8336ED04120D8378ED38
:1016430004120D8388ED04120D83CCED04120D8377
:10165300D0AE04120D8313AF04120D8378AF0412BE
:101663000D8397AF04120D8339B004120D8342B07A
:1016730004120D8393B004120D83BCB004120D83C6
:10168300C9B004120D833BB104120D83C9B1041216
:101693000D830EB204120D8347B204120D83ACB254
:1016A30004120D83D5B204120D834CB304120D83BF
:1016B3009BB304120D83D8B304120D830DB404122B
:1016C3000D831FB404120D8331B404120D8350B47F
:1016D30004120D8359B404120D831AB504120D8339
:1016E3005DB504120D839BB504120D83DDE4041272
:1016F3000D831DE604120D8306F304120D8357DDDB
:1017030004120D838DDD04120D83D5DD04120D83C8
:101713002EDF04120D8378DE03120D839EDF031286
:101723000D83DADF03120D8398E103120D83C6E103
:1017330003120D8330E403120D8370E403120D834F
:1017430012E603120D83A8E603120D8302E70312C8
:101753000D8392E703120D83D6E703120D8318E876
:1017630003120D837DE903120D83FDEA03120D833A
:101773003EED03120D836CED03120D8398ED0312FE
:101783000D83A1ED03120D83FEED03120D8397EE7E
:1017930003120D83AEF103120D8334F203120D8392
:1017A3004AF004120D8362F004120D836CF00412EC
:1017B3000D83C2F004120D8395C504120D83ABC5CE
:1017C30004120D834CC604120D838BC604120D83C1
:1017D300A8C604120D83D9C604120D8326C70412AA
:1017E3000D835AC704120D8395C704120D8392C942
:1017F30004120D83F8C904120D83E9EA04120D8360
:1018030048EB04120D8386EB04120D83C7EB04121D
:101813000D83008002120D830C8002120D836E80F3
:1018230002120D83788002120D83078102120D8349
:10183300438102120D833C8202120D8399820212AC
:101843000D83278302120D83788302120D83F8839D
:1018530002120D83BA8502120D83BF8702120D8314
:10186300B98802120D83EB8902120D833D8C02129B
:101873000D83808D02120D83258E02120D83D39268
:1018830002120D83C99302120D835F9402120D831A
:10189300849402120D83219502120D833E95021248
:1018A3000D835E9502120D83CC9502120D83E9958B
:1018B30002120D83179602120D83AF9702120D8346
:1018C300D09702120D83769802120D83BE980212EE
:1018D3000D831C9902120D83BF9902120D83249A62
:1018E30002120D83839A02120D83359B02120D831C
:1018F300A49B02120D83DF9B02120D83539C0212E1
:101903000D839E9D02120D832E9F02120D83CD9F88
:1019130002120D830DA202120D836FA202120D8318
:101923009DA202120D83C0A402120D836AA70212A4
:101933000D837DA802120D83699004120D837D909F
:1019430004120D83C49004120D83AF9204120D830D
:10195300CF9204120D83EF9204120D833A94041272
:101963000D83DF9504120D83489804120D83D598D7
:1019730004120D831D9A04120D839D9A04120D8384
:1019830073E704120D8320E804120D8384E8041224
:101993000D83C7B504120D8354B604120D83CDB65F
:1019A30004120D8368B704120D8389B704120D83E3
:1019B3005DB804120D83D7B904120D8347C903120E
:1019C3000D8376C903120D83EEC903120D83FDCA7D
:1019D30003120D8359CB03120D83C6CC03120D835F
:1019E300E2CC03120D8334CD03120D8377CD0312A2
:1019F3000D838ACD03120D83E2CD03120D83A4CE92
:101A030003120D8320CF03120D8357CF03120D83CF
:101A13008FCF03120D8321D103120D8300D2031242
:101A23000D834ED303120D8331D403120D83BDD422
:101A330003120D83FDD403120D831CD503120D83F2
:101A430067D503120D8387D503120D8320D60312A6
:101A53000D83A6D603120D8301D703120D8341D73D
:101A630003120D83D7D903120D83F0DA03120D830A
:101A730036DB03120D832BDC03120D8353DC0312BD
:101A83000D8356DC03120D8360DC03120D837CDCB3
:101A930003120D83F6DC03120D832FDD03120D8376
:101AA3005BDD03120D8382DD03120D83A6DD0312BA
:101AB3000D8317DE03120D832ADE03120D8359DE15
:101AC30003120D8310F204120D831CF204120D8312
:101AD3005AF204120D83FCFF02120D8318B3031292
:101AE3000D833BB303120D8388B403120D83D1B46A
:101AF30003120D833DB503120D839BB503120D83B2
:101B03009EB503120D83EFB503120D8364B6031262
:101B13000D83E9B603120D83ECB603120D836DB783
:101B230003120D83AEB703120D839ABB03120D8309
:101B330044BD03120D8394BD03120D831BC1031215
:101B43000D834EC203120D83C8C303120D8365C4F4
:101B530003120D8350C503120D83A5C703120D8312
:101B6300008004120D83AA8004120D8315810412D0
:101B73000D8320A104120D83B58104120D830F82FE
:101B830004120D83568204120D83BD8204120D8349
:101B93003C8404120D836B8504120D83F3850412B8
:101BA3000D83FC8704120D83A98804120D834D89CC
:101BB30004120D831E8A04120D83D98B04120D8324
:101BC300718D04120D83048E04120D832A8F041267
:101BD3000D83008003120D83638003120D83AB809A
:101BE30003120D83EF8003120D834A8103120D83C9
:101BF300E8D302120D83E28103120D836482031280
:101C03000D83BE8203120D833C8403120D83BC84B7
:101C130003120D83178503120D83318503120D8380
:101C2300528503120D83AC8503120D83288803129A
:101C33000D83478803120D83378903120D836A8A44
:101C430003120D83E98A03120D83258B03120D837F
:101C5300948B03120D83498C03120D83218E03127F
:101C63000D83288F03120D83A09003120D83969288
:101C730003120D830C9503120D83E69603120D8355
:101C8300A79703120D831F9803120D83369803122F
:101C93000D832D9903120D83219A03120D83909ABC
:101CA30003120D83EBD404120D8342D604120D8369
:101CB30001D704120D8369D704120D83C6D1041210
:101CC3000D83E1D104120D8325D204120D834BD26F
:101CD30004120D8372D204120D838AD204120D836F
:101CE3002CD304120D8341D304120D8364D4041244
:101CF3000D836DD404120D8376D404120D837FD427
:101D030004120D8389D404120D83117B00120D83F9
:101D13001D7F00120D83227F00120D83247F00128A
:101D23000D8314E204120D83BDFF02120D8305CA55
:101D330004120D83D4FF03120D838DF104120D835E
:101D4300B7F104120D839EAC02120D83D1AC0212C3
:101D53000D833DAD02120D83D8AD02120D8375AE16
:101D630002120D83BAAE02120D83DCAE02120D8392
:101D7300F5AE02120D831BAF02120D833DAF0212AB
:101D83000D837BAF02120D83BFAF02120D83E1AF50
:101D930002120D8343B002120D830AB102120D83A6
:101DA300C1B102120D8333B202120D83FEB20212CD
:101DB3000D8351B302120D83B7B302120D83F1B336
:101DC30002120D8343B402120D83B1B402120D83C8
:101DD3001CB502120D831FB502120D83A0B50212AA
:101DE3000D8337B602120D83B7B602120D83D6B632
:101DF30002120D833AB802120D8347B802120D8303
:101E030053B902120D8360B902120D8369B902122C
:101E13000D8341BB02120D835BBC02120D83D4BC44
:101E230002120D8346BD02120D8368BD02120D839B
:101E3300FCBD02120D83D0BF02120D83A7C3021291
:101E43000D83BBC302120D83CBC302120D83D5C313
:101E530002120D83DEC302120D83E7C302120D8348
:101E6300F1C302120D831EC402120D8347C4021272
:101E73000D8352C402120D8376C402120D839AC4D9
:101E830002120D8304C502120D834AC502120D838B
:101E930067C502120D83E4C502120D831BC602122D
:101EA3000D835AC602120D83A7C602120D832DC7D6
:101EB30002120D83FBC802120D837EC902120D8329
:101EC30062CA02120D83C9CC02120D8322CD021203
:101ED3000D836CCD02120D83C7CE02120D83FCCE8F
:101EE30002120D834ECF02120D8303D002120D8313
:101EF300B2D002120D83EFD002120D8384D10212ED
:101F03000D83F0D102120D83542E00120D83862E01
:101F130000120D83B42E00120D838A3000120D833C
:101F23006A3100120D83C23100120D83FD3200129B
:101F33000D83493300120D83723600120D83653908
:101F430000120D83B53A00120D834B3B00120D8333
:101F5300573B00120D83893B00120D830C3D001289
:101F63000D83BD3E00120D83513F00120D83943F3C
:101F730000120D83124000120D832F4000120D83B7
:101F83005F4000120D83944000120D8364410012E0
:101F93000D830D4200120D83934400120D83B3454C
:101FA30000120D839E4600120D83204700120D83FD
:101FB300544B00120D83914B00120D83E94B001219
:101FC3000D831C4C00120D83864C00120D83BC4CF8
:101FD30000120D83474D00120D839F4D00120D8398
:101FE300764E00120D832F4F00120D83CA4F00123D
:101FF3000D83D25200120D83EE5300120D839157BD
:1020030000120D83855800120D83885800120D832A
:10201300B75800120D83BD5A00120D83965B001250
:102023000D83D95B00120D832F5D00120D836E5D4E
:1020330000120D83F75D00120D832B5E00120D83DA
:10204300F05E00120D83086100120D8379610012A6
:102053000D83B96100120D83476200120D8369631A
:1020630000120D832B6400120D83326600120D8360
:102073004A6600120D835E6600120D839666001297
:102083000D83C46600120D83436800120D836869D3
:1020930000120D83C56900120D83776A00120D8348
:1020A3009E6A00120D83656B00120D83FD6B001297
:1020B3000D83236E00120D83586E00120D83BB6EC9
:1020C30000120D83EA6F00120D83927000120D83CC
:1020D300C37000120D83DB7000120D836A7100124E
:1020E3000D831E7400120D83F67500120D83127694
:1020F30000120D832E7600120D83FC7600120D83E1
:10210300EF7A00120D834B8601120D837D86011237
:102113000D836C8A01120D83B88A01120D83FE8A26
:1021230001120D83A08B01120D83FC8B01120D8311
:10213300418C01120D83888D01120D839C8E011237
:102143000D838B9201120D830F9301120D831C9447
:1021530001120D83789401120D83689601120D8389
:10216300DD9601120D83E79601120D83F496011299
:102173000D831F9701120D83069801120D83B098EA
:1021830001120D832E9901120D834E9901120D83B5
:10219300779901120D83999901120D83F99B01120D
:1021A3000D83BF9C01120D83049D01120D83819D3C
:1021B30001120D83329E01120D83649E01120D8361
:1021C300AA9E01120D83E69E01120D83369F011212
:1021D3000D838A9F01120D83E09F01120D832CA0B2
:1021E30001120D8399A001120D8314A101120D8315
:1021F300DFA201120D83DFA301120D8304A50112D7
:102203000D8343A801120D8356AB01120D8313AC4A
:1022130001120D8357AC01120D8307AE01120D831A
:102223001BAE01120D8325AE01120D832FAE0112D9
:102233000D833BAE01120D8357AE01120D8302AF26
:1022430001120D8341AF01120D834BAF01120D83B8
:1022530055AF01120D83C5AF01120D8310B00112EA
:102263000D8325B101120D8381B101120D8302B2D9
:1022730001120D83C1B201120D83CAB301120D8382
:10228300FEB401120D83ECB501120D8304B60112E5
:102293000D835FB601120D837DB601120D83C5B6A2
:1022A30001120D83ECB601120D8387B701120D8362
:1022B3004DB801120D83DFB801120D8359B9011214
:1022C3000D8373BA01120D8320BB01120D8348BC29
:1022D30001120D8398BC01120D83FCBC01120D8306
:1022E3005EBD01120D838CBD01120D83B0BD0112C1
:1022F3000D83E5BD01120D8316BE01120D8349BE88
:1023030001120D8369BE01120D83D1BE01120D832B
:10231300C5BF01120D8320C001120D8349C00112F4
:102323000D83D1C001120D8354C101120D837FC1EE
:1023330001120D8364C201120D8308F102120D8391
:1023430040F102120D8361F102120D83A3F1021217
:102353000D8305F202120D830FF202120D831FF299
:1023630002120D835AF202120D833AF602120D8302
:1023730027F802120D830DFA02120D83A4FA02123A
:102383000D8346FB02120D8366C401120D83E4C460
:1023930001120D8340C501120D838BC501120D83FC
:1023A300A6C501120D83D1C501120D83EEC501121D
:1023B3000D83FAC501120D8391C701120D83AAC7BC
:1023C30001120D832FC801120D8342C801120D8320
:1023D30061C801120D8305C901120D8386CA01125A
:1023E3000D8339CC01120D83CFCC01120D83D2CCD6
:1023F30001120D8342CD01120D8360CD01120D83B5
:10240300F7CD01120D833FCE01120D8342CE01128F
:102413000D8308CF01120D8375CF01120D839BCF5E
:1024230001120D8326D001120D8344D001120D83B6
:102433008AD001120D833ED101120D8388D101127E
:102443000D83B7D101120D8314D201120D8349D22A
:1024530001120D8375D201120D8383D201120D83F4
:10246300D0D201120D8340D301120D8389D30112FF
:102473000D83D5D301120D8301D401120D830CD426
:1024830001120D832AD401120D8315D501120D8378
:102493001FD501120D835AD501120D836AD501127E
:1024A3000D8373D501120D83C7D501120D83DBD5BF
:1024B30001120D830AD701120D8321D701120D8357
:1024C30036D701120D83C4D701120D8309D8011227
:1024D3000D8395D801120D83A0D801120D83E2D983
:1024E30001120D83FDD901120D8349DA01120D8307
:1024F300B8DA01120D83F1DA01120D830BDB01123D
:102503000D834DDB01120D831DDE01120D83CADE27
:1025130001120D8337DF01120D8377E101120D8361
:102523008FE101120D8392E101120D839EE10112ED
:102533000D83B2E101120D83BAE101120D83EDE1C6
:1025430001120D83EFE201120D8376E301120D8375
:10255300E6E301120D8368E401120D8329E50112FC
:102563000D8348E501120D83E9E501120D8346E66B
:1025730001120D8349E601120D8376E601120D83E4
:102583008BE601120D83FFE601120D834EE8011263
:102593000D8354E901120D83DFE901120D83FAEA79
:1025A30001120D83C2EB01120D83F3EB01120D83B4
:1025B30016EC01120D831FEC01120D834EEC011278
:1025C3000D83DEEC01120D8394ED01120D8309EEF0
:1025D30001120D83B0EE01120D8325EF01120D835D
:1025E3005CEF01120D839AEF01120D83D0EF0112FC
:1025F3000D837DA004120D837D9F04120D83969E8F
:1026030004120D83869C04120D83949B04120D8384
:10261300329B04120D8304B303120D83FAB2031227
:102623000D838FB203120D83C0B003120D837EB0EE
:1026330003120D8345D302120D83FFD202120D83C1
:1026430082AF03120D8356AF03120D83CAD2021257
:102653000D8397D202120D830DAF03120D834EAE7D
:1026630003120D833AAB03120D83FBA803120D83F0
:10267300C8A803120D836FA803120D8302A80312C7
:102683000D83C1A703120D83FAA603120D8394A62B
:1026930003120D8333A603120D83D3A503120D83F7
:1026A300AAA403120D833EA403120D8396A303125F
:1026B3000D8391A303120D8385A303120D83B89F8A
:1026C30003120D83929F03120D8382D202120D8394
:1026D30057D202120D830DA504120D83D9A404123F
:1026E3000D8382A404120D83F0A204120D8342A26F
:1026F30004120D83309F03120D83D19E03120D83A9
:10270300929E03120D837F9E03120D83A5A10412D3
:102713000D83749E03120D83439E03120D83309C1D
:1027230003120D83A39B03120D839BA104120D833C
:102733005F9B03120D83A78103120D83339B031247
:102743000D8319FD03120D83ECFC03120D83B9FCF9
:1027530003120D8391FC03120D8332FC03120D83CC
:1027630012FC03120D83DDFB03120D8389F80312A0
:102773000D8371F603120D835BF403120D83DBF3F8
:1027830003120D8387F303120D833BF303120D83AF
:1027930034A104120D8393F203120D8330810400DC
:1027A300000080FBE4738F000100511987000100D2
:1027B3004F19350004001819250002001C192600C2
:1027C30002001E19270002002019280001002A19FF
:1027D300290001002B1984000400B31686000100B0
:1027E300D1182A0001002C192B0001002D192C00EF
:1027F300010031192D000800BF162E000100321907
:102803002F00010033193000010034193100010099
:10281300351932000100C71633000100C816340011
:102823000100361936000100C916380001003719B6
:10283300390001003019830002004D1963000100C3
:10284300D516640001002E19650001002F196D00D3
:102853000100D61671000800B716660001004C1976
:10286300430001003D19440002003E1945000100E8
:10287300401946000200411947000800CD164800E0
:10288300010043194B0001004419040001005019D1
:10289300A1000100541937000100531988000100F9
:1028A30052193C000100CA163D00010038194900C5
:1028B3000200451967000100D7164D0002004719B1
:1028C3004E00010049194F0002004A193E00010061
:1028D3003C1951000100CB16520001003A19530074
:1028E30001003B1954000100CC1600000000000059
:1028F300000136360101000102010001030100015C
:102903000401060605020000070100340801000F58
:10291300090401010D0100FF0E0800001702000069
:10292300190100FF1A0100011B0100FE1C01000830
:102933001D0200001F01000120010001210200000F
:102943002301000F240200002601000127010008D3
:10295300280200FF2A0100072B0102402C0100007E
:102963002D0100012E0100012F0100FF30010B1D7D
:10297300310800003A0100083B01000F3C0100014F
:102983003D0100FF3E040000420400004604000035
:102993004A0400004E0400005204000056040000E4
:1029A3005A04000007000000302310150700100030
:1029B3003023041507000000302311150700100011
:1029C30030230515070000003023121507001000FF
:1029D30030230615070000003023131507001000ED
:1029E30030230715070000003023141507001000DB
:1029F30030230815070000003023151507001000C9
:102A030030230915070000003023161507001000B6
:102A130030230A15070000003023171507001000A4
:102A230030230B1507000000302318150700100092
:102A330030230C1507000000302319150700100080
:102A430030230D150700000030231A15070010006E
:102A530030230E150000010020014A860000020009
:102A63002001458600000300200146860000000087
:102A7300200149860000040042014585000005004D
:102A830042011B8500000700300147860000FDFF5F
:102A930021014186000006004201E9840000004054
:102AA30020014A86010020002005FF1801002100B3
:102AB300200500190700000030230F150700100040
:102AC3003023031501037103010301030103010310
:102AD30001032203020301031003000300030003A5
:102AE300000300030003000342030003240306035F
:102AF3000003000304031203250323032503230315
:102B0300040304030003000300034403000300035E
:102B13002303000365032100350381030003050339
:102B230000030003000300032503230301017101D4
:102B330001010101110101013101010101018001C3
:102B4300100161013B001400630173017201620112
:102B530043010001130106013D0135000401120187
:102B630000010001000100010401040133013301EC
:102B73003C014401320136000001000165010001FE
:102B83003500810100010501820183010001030277
:102B9300710230016002110270020102020202029C
:102BA3008002100261023A00410063027302720262
:102BB3006202430200021302380000020002040210
:102BC30012020002000200020002040204023700A3
:102BD30037003C0244020002390000020002650291
:102BE3000002350281020002050282028302000212
:102BF30003007100300160001100700031022003F6
:102C03005004800010006100000014006300730092
:102C13007200620043000000130006000000000081
:102C23000400120000000000000000000400040083
:102C3300370037003C0244000000000000000000A1
:102C430065000000350081000000050000008300DE
:102C5300000036000100060000000F000000000025
:102C6300000000000000000003FFFF00000403FF5A
:102C7300FF0000FFFF0FF4010005C404032000015F
:102C830000000B000000000000000003010F000023
:102C93000000000000000000000000000000000031
:102CA3000000000000000000000000000000000021
:102CB300F6182019FC1830180219261902193219AE
:102CC30008193018021926190E19301800000000CF
:102CD3001419301800000000000000001A19301801
:102CE30000000000000000000000000000000000E1
:102CF30000000000000000000000000000000000D1
:102D030000000000000000000000000000008A1B1B
:102D130001008A1B0200001B0280FA1A0300061B33
:102D230004000C1B0480121B0500181B0600241B47
:102D33003100361B33003C1B3400421BFFFF0000F5
:102D4300030003000400080010001F003E007B0086
:102D5300F600EC01D703AF075D0FB91E713D00000C
:102D630007ECFDFDFDECDCDCCCBCACAC9C9C8C7CB2
:102D73007C6C6C5C5C5C4C4C3C3C2C2C1C1C03EA5B
:102D8300F5E5D5D5C5B5A595958585757565655560
:102D9300554545353525251515050A7E210248215A
:102DA300055421074E210C30210D3C21FF0000006A
:102DB300160F00000B150B020002220F3300000E4A
:102DC3000F5A6967426565416C6C69616E63653072
:102DD30039D0D1D2D3D4D5D6D7D8D9DADBDCDDDE1E
:102DE300DF303016181920231A1C1E3000034D4CF7
:102DF3004651181A2505020001191618161618232C
:102E03000300303017181921301B1D1F30003C40C0
:102E1300423A3F3F392F47300C0E020B040B0A078F
:102E230008000F020402010101010902E803000086
:102E330000BE040A0E0001000300E803FF04090EAC
:102E4300031E1E03100C04180828020C0508150A9B
:102E530004C082C0831211B29017007420F0A374CF
:102E63001FF09017027426F0A3741FF090170474D8
:102E73002CF0A3741FF09017067432F0A3741FF0A4
:102E8300025B8F74F71208299016F4E4F0E99016A8
:102E9300F3F07CCD7D167AF57B1612180C9019434E
:102EA300E09016FDF09016FE74B7F0A37416023E80
:102EB3001C74F0120829EAFEEBFF54807003023001
:102EC300259016F3123EB1700302301EEA241B1242
:102ED300571C707CEA241F12571C64137002A3E072
:102EE300706E8A828B8312307390170E124CAE75FC
:102EF3000A00750B00800D123CF2126D8E12171032
:102F0300AA0EAB0FEA4B60488A828B83E0650C7094
:102F130004A3E0650D702C8A828B83A3A3A3A3E093
:102F2300F50EA3E0F50FE50A450B8A828B83A3A375
:102F3300A3A360C3123FF4850A82850B83A3A3A3D3
:102F4300A380B78A0A8B0B8A828B83124CAA80B424
:102F5300E508242A12571CFCE5082402F8E4350985
:102F6300F9E8FAE9FB90170E12315AA3A3E06402C1
:102F7300703C8A828B83124CAE800B88828983A338
:102F8300A3A3A3123FF4E849601F88828983E06A00
:102F93007003A3E06B70E488828983A3A3E06C7061
:102FA300DA901949125A4C806BECF9121F5C8508B0
:102FB30082850983E06401704FE508241812305CB0
:102FC300120DC1126336120C27E508241212305C6D
:102FD300120DC1E508123EA5120DBDE508240B1222
:102FE300633A120C2BE5082417123E42E50824022B
:102FF300FCE43509FDE5082419FAE43509FB122739
:1030030078740A120DD0800CE064027007AA08AB32
:103013000912203AAA08AB09121674EEFAEF64807B
:10302300802DEA5402600C90195C7401F0EA64028A
:10303300FA8023EA5408601A121F56EA4B700B9069
:1030430017101262117A08123069EE6408FAEFFB66
:1030530080047A007B000269C0F582E43509F583B8
:10306300E0F50A780A22FB9016F3E0F91217DC2246
:10307300A3A3E0F50CA3E0F50D227B009016F3E08B
:10308300F91217D074042274F41208298A088B09E0
:103093008A828B83A3A3A3124AA6123E4D38F583DB
:1030A300E02409FA126958700302314D8A828B8336
:1030B3007402124B1B85088285098312315AE8F08A
:1030C300A3E91265D28A828B83A3A3A3A3A3A3A399
:1030D300A3F0E5082403F8E4350912314F123E4DFD
:1030E3003AF583E08E828B83A3A3A3A3F0EE240996
:1030F300FAE43FFB8E828F83A3A3125CFEF58388E1
:1031030082E0A2E58E828F83A3A3A3A3A3500474BA
:10311300018001E4F0E5082403F5828983124CAEB3
:10312300EA12522F3BF58312691F120DB9123E4C5E
:103133003B125DF08E828F83A3A3127ACE120DD041
:10314300EEFAEFFB9016F31269A58016F98882F563
:1031530083E0FAA3E0CA22124E4BA3A32274021205
:103163000DD07F04020B5C74F21208298A088B09C4
:10317300ECFAEDFB740E1210D9E0FC1211E88A0C84
:103183008B0DAE0CAF0DEA4F6030AC08AD091211D8
:10319300D6E96026AC08AD09EEFAEFFB1211DCE9C3
:1031A30070148E828F83123FE1FAEFFB1211D0AAC3
:1031B30008AB091212007900800279B4024D9A74A7
:1031C300F012082974F6120E69EAFEEBFF8C088DE3
:1031D30009750FB3852182852283E4F0750E008083
:1031E30002050E902E4AE493F8E50EC398400302BD
:1031F30032E9AA0E7B001212248A0A8B0BEA4B6077
:10320300E08A828B83A3A31232F028F0F8C3EE98EE
:10321300EF940050CC7C157D007900AA08AB09120D
:10322300165C850A82850B83A3A3A3A3126DCBE04F
:10323300F8EEC3982925E0F8E433F9E50A28F58286
:10324300E50B39F583A3A3A3A3A3A3123E57A312AC
:1032530058738A0C8B0DAC0CAD0DAA08AB09121870
:103263000C850A82850B83A3E06401700A1263361E
:103273007401123E6980447401120E61850A8285CD
:103283000B83124CAC12120CE9603D74091210D975
:10329300E0C0E0126336D0E0F074091210D9E064A4
:1032A3000370137401120E61E508240BFAE4350967
:1032B300FB12180C801274011210D9123FF4E508A6
:1032C3001258593509126D8C850A82850B83126356
:1032D30042123E69A3A3E0C0E0E508241412633A56
:1032E300D0E0F0750F00A90F740A0269BDA3A3A370
:1032F300E0F8852182852283E02274F7120829E908
:10330300FE8A828B83A3A3A3A3A3A3E05408603301
:103313008A828B83A3A3A3A3A3A3E0540260218A7D
:10332300828B83A3A3A3A3A3A3A3A3A3E0640660A5
:103333000F74E96E600A74CD6E600574F06E7003ED
:10334300121F3E02469974F012082974EF120E6997
:10335300740F1210D91260F574081210D9E9F0EC49
:10336300FEEDFF74051210D9124461124685A3E0E5
:10337300F91211F474061210D91260F574061210C2
:10338300D91252C07003023604123E91E0FA740659
:103393001210D9E0F9121E7E123664F8A3E0F9E8A0
:1033A300497003023604EE2403F50AE43FF50BEEFD
:1033B3002406F508E43FF5097C00850882F58312AD
:1033C3004CAE850A82850B83E0F91211FA7403125D
:1033D30010D91260F5850A82850B83E0C0E0852150
:1033E3008285228312365DD0E01253D5F98521827E
:1033F300852283123CF9124F271232F3FAA3E0CA53
:103403002407F582E43AF583E8F0A3E4126100248B
:1034130006F582E438F583E4126D98124A9A120D88
:10342300B9EE123E4D3F125DF074031210D9124AE9
:10343300A62409127AC8120DD074291210D9126D5C
:10344300C51231541253E83A126D8C742B1210D9F1
:10345300E0C0E0852182852283125287D0E0F07498
:10346300021210D9E4F074251210D97808121082D0
:1034730002355B74031210D9125DB88882F583128A
:10348300364CA3A3A312587EFB121212850E82851B
:103493000F83A3EAF0A3EBF074031210D912365D85
:1034A300A312364C125A8DA2E6500F850E82850F59
:1034B30083A3A3A3A3A3E0D2E1F074051210D9E080
:1034C300706B850E82850F83A3123FF490174EE035
:1034D300687003A3E0697055850E82850F83A3A3EB
:1034E300A3123E2C750C00780C120DC17808120D36
:1034F300B574291210D9E0F50C780C120DC174279C
:103503001210D9120C2B90175B120C2B7900741923
:103513001210D9124C7E122082740A120DD0850E1D
:1035230082850F83A3A3A3A3A3E04405F07402122F
:1035330010D9E004FC8E828F83124CA88E828F8375
:10354300A3A3A3E0F91211FA74031210D91260F5C0
:1035530074021210D9E004F074031210D91252C08D
:10356300606774021210D9E0FA74061210D9123F80
:10357300F4C3EA98E499505174021210D9123936FF
:10358300852182852283E028F8A3E039F9E8240F16
:10359300F50EE439F50F850E82F583E4F07403121A
:1035A30010D9123657640160030234767405121081
:1035B300D974011269ABF074031210D9125B7F1234
:1035C3003959E8F0A3E902349A85218285228312CE
:1035D3004CAE121E84852182852283120C2B742605
:1035E3001210D9E0FD74251210D9E0FC740A1210F0
:1035F300D9E0F9EEFAEFFB121F387402120DD080F6
:10360300438E828F83A3A3A3E0C0E0740C1210D96E
:10361300D0E0F0126814E0C0E0740D1210D9D0E0CD
:10362300F074061210D91252C07009740E1210D918
:1036330074B98007740E1210D97410F07409120E45
:103643005912207C74110269BDE0850E82850F83B7
:10365300A3A3A322E01253ADE022E01253ADA3A330
:1036630022852182852283EAF0A3EB1252C92274B8
:10367300F012082974E1120E6974041210D9E9F0EA
:1036830074031210D9ECF074021210D9EDF08A0E03
:103693008B0F742F1210D9123075AA0CFB121E72E5
:1036A30074011210D9E9F0AA0CAB0D121E78740143
:1036B3001210D9E07003023931852182852283E417
:1036C30080158E828F83A3A3A3A3A3E0D2E3F08507
:1036D3002182852283E004126903F88521828522F1
:1036E30083E0C398400302392874011210D9E070B3
:1036F30003023928852182852283123936E50C2875
:10370300F8E50D39F9E8240FFEE439FF8E82F583DD
:10371300A3A3A3A3A3E0A2E040B5750800750A081C
:10372300750B0074021210D9E060037508207C0841
:103733007D0079007405120E5912165C8E828F83F8
:10374300E0603E90179EE06401701AE508D2E3F54D
:1037530008750B101239461210D9E8F0A3E9125775
:103763007174FF807643080C750A0C8E828F83A3D5
:10377300123951126D8E74051210D974FFF0A380A3
:103783005A74041210D9E06009E508D2E6F5087509
:103793000A0A8E828F83A3E064FE7003A3E0F470B1
:1037A3003074121210D97404126360F8741D12106D
:1037B300D9E8124B1B7412120E59121DA07D007C06
:1037C30000790074151210D9AA82AB8312279C804A
:1037D3000B1239461210D9E8F0A3E9F0740712105E
:1037E300D9E508F0123E88C0E074091210D9D0E080
:1037F300F0740A1210D97401F07405120E591220D4
:103803004074111210D9E06003023906740D1210CE
:10381300D91253D08E828F83A3A3A3A3F0740D1266
:1038230010D9124AE9E50AF0A3E50BF0740312106C
:10383300D9E0C0E0124A7AD0E0125A8D6011901795
:103843009EE0C0E0740D1210D9124AC4D0E0F074A7
:103853000D1210D9123FF4850C82850D83A3A3A307
:10386300A3A312393F241C1260EF126DA812394131
:10387300125A3F39126833C0E0124A61D0E012682D
:10388300F8C0E0740D1210D91245A7D0E01265F903
:10389300C0E0740D1210D912459DD0E0F0740D12E2
:1038A30010D912395112393F242A1260EF850E8242
:1038B300850F83A3A3A3A3A3A3A3A3E01260E8128A
:1038C3003E77C0E0124589D0E0F0740D1210D91292
:1038D3004CAE850E82850F8312690E2428F582E48F
:1038E3003B126D8C123E8012691F120DB9125DE9F5
:1038F300EA1260813B127ACC120DD07405120E5974
:103903001220468E828F83A3A3A3A3A3E0D2E0F069
:1039130074111210D9E060030236C574011210D974
:10392300E0140236D17900AA0CAB0D121F44741FA8
:103933000269BDE075F007A4F8A9F022A3A3124C15
:10394300B2E8228E828F83A3123FF8740522E0121D
:103953003959A3A3A322F8A3E0F9850E82850F8327
:10396300A32274F012082974E8120E69E9852182F2
:10397300852283F08A0E8B0F8A828B83A3A3A3A352
:10398300A3A3A3A3E0F9121E9C8A088B09EA4B7038
:1039930003023A42E50E125243123EA0123E37850D
:1039A3002182852283E06003023A457C04850E82EE
:1039B300850F83A3A3A3A3A3A3A3A3E0F9121EA22A
:1039C300EE4F607B8E828F83A3A3A3A3123FF47475
:1039D300071210D9126226123FF474091210D91279
:1039E3004B4BC0E074111210D9D0E01265D7A3A3DA
:1039F300A3A3A3A3A3123FF4740F1210D9126D8EC5
:103A030074121210D9E41269B3C8241FF582E43882
:103A1300F583125DB4C413135403FC70027C048E4B
:103A2300828F83E0F97808120DBD742059FD74402C
:103A330059F97403120E59121F387402120DD00271
:103A430069BB7C08850E82850F83A3A3A3A3A3A3CD
:103A5300A3A3E0F9121EA28B0BEA4B70030239C336
:103A6300EE4F60DB852182852283E0F50C780C1212
:103A73000DC1850882850983A3A3A3A3A3A3A3E000
:103A8300F50C780C120DC18A828B83A3A3A3E0FBF0
:103A93008A82850B831275EB8A82850B83E0FA8E0B
:103AA300828F83A3A3E0F912277E7402120DD00242
:103AB30039C774F712082974FA120E69E9FE7801FE
:103AC30079017F00800379000F124E2AE0FCEFC3D7
:103AD3009C5026EF75F007A4FC85F008AD08EA2C8E
:103AE300FCEB3DFD124419E0A2E050DA540C60D621
:103AF300E0A2E250D3780080CF8A828B83A3A3A372
:103B0300A3A3A3E0703DE9A2E0400574016E703306
:103B13008A828B83A3A3A3A3A3A37401123E09E008
:103B2300C0E074031210D9D0E0124478E0C0E0740E
:103B3300041210D9D0E0F074051210D9E8125D53C5
:103B430012207C7406024696C082C0837901121F3C
:103B530044025B8F74F4120829EA4B90195C6019D4
:103B6300E4F08A088B09F50AF50B7808120DB57A8B
:103B73000212307D120DD0800A7401F07A027B00AC
:103B830012306A02316574F012082974F3120E6957
:103B930074031210D9E4F0A3F090170E123E377499
:103BA300011210D9E4F0A3124B2004F0901748E05F
:103BB300A2E35003023C7C123DFD74091210D9129A
:103BC30010C274091210D978081210829017107855
:103BD30008120E3974051210D97808121073123DA9
:103BE3000074051210D9780812101650077A017B59
:103BF30000023CED74051210D9780C121082901952
:103C030048E0F509780C79081207BAA80CA90D90B9
:103C13001949E0C398E4995003E08001E8852182C3
:103C2300852283F074091210D97808121082C00813
:103C3300C009C00AC00B74051210D9780C12108287
:103C4300123D00780C79081207BAE4F50AF50BD097
:103C53000FD00ED00DD00C780C7908120F119017DD
:103C630010780C1210738011123CF2126D8EEEFA62
:103C7300EFFB121710AE08AF09EE4F60658E828F0F
:103C8300831232F0C398502DEE2403F8E43FF9E099
:103C9300FA88828983E0C39AF0602374031210D9EF
:103CA30012415A74011210D9EEF0A3EF126241FED1
:103CB300A3E0FF80C48E828F83A3A3A3E4F08E824C
:103CC3008F83127A8574011210D91252C08E828F9B
:103CD30083A3A3A3A3609112621A1210D9123CF911
:103CE300808974031210D9124CAE740D0269BD128F
:103CF3003FF890170E22125DDFA3A3A3229019476A
:103D0300127A8DE4F50AF50B2274F01208298A0859
:103D13008B09890A7800790090170E123E37FBEE63
:103D23004B601E088E828F83A3A3A3A3124C7860DB
:103D33001008E87001098E828F83123E33EA4F70B8
:103D4300E390194A124CAEC3E89AE99B4003023D43
:103D5300F07A06123DF3A80CA90DEA497003023D5F
:103D6300F08A828B83E508F0A3E509123E12E50A87
:103D7300F0901949124E32123E09A3E4F0A3F090D9
:103D8300170E124C78600D8E828F83A3A3A3A31208
:103D93006D8E801790170E126D8E901748E0A2E378
:103DA3004009123DFD9017101210C2901748E0A26F
:103DB300E3503A7A087B009016F3E0F91217E2EA2F
:103DC3004B4C4D7028901947E0F508A3E085080C8B
:103DD300F50DE4F50EF50F780C120DB57A087B009E
:103DE3009016F3E0F91217D67404120DD00269C0CD
:103DF3007B0012170A8A0C8B0D221217F4EAF8EBD8
:103E0300F9ECFAEDFB22123E0D22123E12A322F030
:103E13008A828B83A3A322E508F0024699F08E825F
:103E23008F83A3A3A3A3A3A32212572AA3A3F0229E
:103E3300A3A3A3A3E0FEA3E0FF227F05020B5CF58F
:103E430082E43509F583E0F922EA123E5122241077
:103E5300F582E422123E5FA3A3A3A322123FFC85B3
:103E6300088285098322123E6D22F0850A82850B22
:103E730083A3A322E50E2411123E9DE022E50E2426
:103E83000E123E9D22E50E2410123E9DE022123EAC
:103E93009522EE123E513FF58322F582E4350FF56C
:103EA3008322240FF50AE43509F50B780A22E0F999
:103EB3001216868A088B09EA4B2274F212082989A2
:103EC3000B8A088B098A828B83124CAE121F68EA15
:103ED3004B600479B8806A121F74E9F8902E47E4A6
:103EE30093F9E8C399400479B280567A15123DF3E9
:103EF300AE0CAF0DEA4F7004791080458A828B8334
:103F0300E4F0A3123E12E50BF0750A007808120DD7
:103F1300B97C127D00EA24031268CA120DD09017EF
:103F2300141252C07008901714800C123FF4888248
:103F33008983123F4770F4EEF0A3EFF0121F8679E6
:103F430000024D9A124CB2EA4B8882898322C082C6
:103F5300C08390171480048C828D831275ECEC4D12
:103F630060288C828D83A3A3E069600574FF697068
:103F7300E68C828D83A3A3A3E06A7003A3E06B7036
:103F8300D6EC2403FAE43DFB80047A007B00025B59
:103F93008F74F7120829E9FD74FE6D70047C0180AB
:103FA300027C0090171480096D70027C018882895D
:103FB300831252C0601F88828983A3A3A3E06A701F
:103FC30003A3E06B70E7ECA2E088828983A3A3E0FC
:103FD30050D6F9800279FE024699EEF9800CA3A32C
:103FE300127A8DEE227402120DD07F02020B5CF561
:103FF30083123FF822123FFC22E0F8A3E0F92212D9
:104003003FFC8E828F8322120DD07F03020B5CC094
:1040130082C0837900901714800109E0FAA3E08A33
:1040230082F583E582458370F1025B8F74F6120893
:1040330029E4F508F5097808120DBD902E47E4939D
:1040430075F013A4A9F012414F126DEC120DD0E9D3
:10405300FE74096E7003121F80023FDD74F61208AE
:104063002974FE120E69852182852283E4F0A3F070
:10407300A821A922880889097808120DBD750802AC
:104083007509007808120DBD126A5D120DD0023F4A
:10409300E874F512082974EB120E698521828522D2
:1040A30083E4F0A3F090171480748E828F83A3A30C
:1040B300E0C0E074021210D9D0E0125771A982AAAD
:1040C3008389088A09750A007808120DB97C127D64
:1040D3000074061210D9126DB1120DD07402120EB3
:1040E30051880889097808120DBD750813750900F0
:1040F3007808120DBD74041210D912526375F013AF
:10410300A4F8AAF075F013E912414B126A65120D77
:10411300D085218285228312415A8E828F83123E5B
:1041230037EE4F7085A821A92288088909780812DB
:104133000DBD7508027509007808120DBD126A5D80
:10414300120DD0741502400AA42AF9E82402FCE4F3
:1041530039FD7A427B0022E02401F0A3E03400F031
:104163002274F412082974EB120E697E007F00A8F2
:1041730021A922880889097808120DBD7508028EC5
:10418300097808120DBD7C007D007A42126DF81289
:104193000DD0E9706C8E0880567402120E51880A95
:1041A300890B780A120DBD750A13750B00780A1274
:1041B3000DBDE50875F013A4F8AAF075F013E50931
:1041C30012414B126DFA120DD0E9701B74031210D9
:1041D300D9AA82AB8374021210D9E0F9121F62E9E3
:1041E30070050EEE70010F0508E5087002050985DC
:1041F3002182852283123FF4C3E50898E50999409B
:1042030098EEFAEFFB741502316274F61208298CEA
:10421300828D83A3A3124466F0EA1260873BF58381
:10422300E0C0E0124423D0E0F0EA241DF582E43B31
:10423300123FF2124407124461F0A3F0EA241FF57F
:1042430082E43BF583123E37EC1243FA3DF583EEED
:10425300F0A3EFF01244003BF583124431A3A3A370
:10426300A3A3A3EEF0A3EF125CE2FE8C828D831274
:10427300447074035EFEC3940340030243EDEE6097
:104283000874026E60030243128C828D83E0540C27
:10429300FE740C6E7003024351E0A2E4400D888269
:1042A3008983E08C828D83A312448674086E600335
:1042B3000243511244117401F08A828B83A3A3A396
:1042C300A3A312573770148C828D83E0440C1244DD
:1042D30078A3A3124431EEF0A3EFF08C828D83E038
:1042E300A2E4402B888212443F124454500109F542
:1042F3008212443FA3A3A3A3A3A3F0A3EF1244807A
:104303008C828D83A3A3A3F0E82403F850010988CA
:10431300828983E0C0E0EC2411F582E43DF583D08B
:10432300E01244708C828D83E0A2E7507588828905
:1043330083E0FE8C828D8312448674FC5E700C8C49
:10434300828D83A3E054036403701E0243ED124481
:1043530011E4F0740C6E60030242BC88821244457F
:104363001244545001090242DE8C828D83A3E0542F
:1043730003603288828983E0C0E0EC12442B3DF570
:1043830083D0E01244878C828D83E05403640270EF
:104393001488828983E0C0E0124419D0E012448774
:1043A3008003A3E4F0EC12522F3D126D8CEC241029
:1043B300FEE43DFFEA241DF582E43BF583E0F508C6
:1043C3008E828F83E0C3982508F508F0EA2417F856
:1043D300E43BF98882F583E0C39508C0E012440703
:1043E300D0E0125CE2C39508500A124407E4F012CD
:1043F3004423E4F0023FED2415F582E422EA240D80
:10440300F582E422EC240DF582E43DF58322EC12DF
:1044130053E83DF58322EC2414F582E43DF5832231
:10442300EC123E513DF583222413F582E422E0FE93
:10443300A3E0FF8C828D83A3A3A3A322124445A3ED
:10444300A3228983E0F508A3E0FFE5088C828D832E
:1044530022A3A3A3A3F0A3EFF0E82402F8221244BB
:1044630066A322E4F08C828D83A3A3A32212448E3D
:10447300A882A98322123E0DA3A3A3A32212448ED2
:10448300A3E022A312448E08A98322125CEBA32289
:1044930074F412082974F3120E698A0A8B0BECFE6A
:1044A300EDFF8C82F583E0540CF508E0A2E750069B
:1044B300E508D2E7F508E508D2E1F50812573770A9
:1044C30006E508D2E4F508E0A2E55006E508D2E5E2
:1044D300F5087C087D007900AA21AB2212165C74D2
:1044E300021210D9E508126D92C0E074031210D9BC
:1044F300D0E0124B20E50AF0A3E50BF0740512108F
:10450300D91265FE1210D9E0707774081210D9120F
:104513004AA6125CD438126619C0E074081210D986
:104523001245A7D0E01265F9C0E074081210D91241
:10453300459DD0E0F074081210D9124593E0124A59
:10454300CE124B4F1260E8EE2411125703C0E01253
:104553004589D0E0F0EE2414125703C0E07408122A
:1045630010D9124AA62435F582E438F583D0E01237
:104573004AF3C0E074081210D9124AAAD0E01263B9
:1045830052740D023162E82432F582E439F5832254
:10459300124002A3A3A3A3A3A322124ABA1267F849
:1045A30038F58322124ABA2426F582E438F58322A9
:1045B30074F71208297E008A828B83A3A3A3A3A383
:1045C300A3A3A3A3E0640460030246751253E0E0CF
:1045D30060030246751252423B1252BE70030246FA
:1045E3007588828983E054036003024675E8125399
:1045F300E839F583E0FA8C828D83A3A3E0FBA3E083
:10460300CB2411F582E43BF583E06A7065888289E7
:1046130083A3A3A3A3A3A3A3A3A3124679E06A70CE
:1046230003A3E06B704C88828983A3A3124685E0C1
:10463300FFA3E0CF24061257036A7003A3E06B7055
:104643003188828983A3A3E0F88C828D83A3A3E0BE
:10465300F9A3E0F5838982A3A3E06860138C828DBC
:1046630083A3A3A3E0F5838982E0540C640470025E
:104673007E01EEF9802012467D22124CB68C828D8B
:104683008322A3A312467DA3A322740C1210D9E0A4
:10469300F9740D120DD07F01020B5C74F612082918
:1046A30074FC120E69EAFEEBFFECFAEDFB8C82F56B
:1046B30083A3E05403601690170A1252C06059791D
:1046C30000EEFCEFFD125EDF1227A7804B852182EF
:1046D300852283EEF0A3EFF074021210D9124B156A
:1046E300AC21AD227A9E7B1F1221C68A088B09A8B2
:1046F30008A909EA4960218A828B83A3A3A3A3A300
:10470300A3A3A3A37406F07A0088828B83124AA61C
:104713001260A8E0F91221247404023FEA74F21231
:10472300082974F3120E69EAFEEBFF8A82F583A36C
:10473300A3A3A3A3A3A3A3A3A3E0F50A90195CE0F7
:10474300700579BA024A5E750801750900750C0097
:10475300750D007C087D007900AA21AB2212165C3E
:1047630074051210D97401124B2854046012740298
:104773001210D9E0D2E6124B2854087003750803CF
:10478300E05410600674404508F508E054086022C0
:1047930074021210D9E044C0124B285420600A74EA
:1047A300031210D9E0D2E0800874031210D9E0D2CA
:1047B300E1F0EE2415125703124A8E700374016957
:1047C300700674084508F5088E828F83A3A3A3A3FC
:1047D300A3A3A3A3E070161222208521828522833E
:1047E3001260F574021210D9E0D2E28030640F70C7
:1047F3001074021210D9124B3074044508F5088066
:104803007F8E828F83A3A3A3A3A3A3A3A3E06402A6
:104813008E828F83700A126DC5E8F0A3E9F0806081
:10482300A3A3A3A3A3A3A3A3E06403700DAC21AD2F
:1048330022EEFAEFFB121FD480468E828F83A3A34E
:10484300A3A3A3A3A3A3E06401703590179EE06024
:104853001074021210D9124B30750910750AFF80BB
:104863001874021210D9E0440C124B2074FDF0A30B
:1048730074FFF074044508F5088E828F8312307537
:10488300EE2415125703A2E0503F74021210D9E030
:10489300540C701B8E828F83124CAE121C3EE97037
:1048A3000579BB024A5E74021210D9E0D2E5F0EE3C
:1048B3002415125703A2E0501074021210D9E054C9
:1048C3000C64047004E0D2E5F0EE2411125703C027
:1048D300E074041210D9D0E01266001210D9E0601F
:1048E30003024A5774081210D9124AE9E508F0A3E3
:1048F300E509F0124A84E0C0E0124A7AD0E0F012EF
:104903004A6BE0C0E074081210D9124AA612442B75
:1049130038F583D0E0124B4F6401701190179EE07D
:10492300C0E074081210D9124AC4D0E0F07408121F
:1049330010D9124AE4124A75FAE8241CF582E439C4
:10494300F583EA124B1BEE2415FAE43FFB8A82F54A
:10495300831275ECE8125A3F39F583124B15EE2496
:104963001C125703C0E0124A61D0E0125B85124A61
:104973008E7003740169701374081210D91253D026
:10498300FAEE241D125703F9121EA88E828F83A3F9
:10499300A3A3A3A3A3A3A3A3E0C0E074081210D905
:1049A3001245A7D0E0F074081210D912459DE50A0C
:1049B300F074081210D91252632428F582E439F5F1
:1049C30083E50CF0A3E50D124AFB124ACE12577C85
:1049D3001260E8EE124A75C0E0E82433F582E43948
:1049E300F583D0E0F0EE241B125703C0E0740812E5
:1049F30010D9124AAAD0E0F0EE241A125703C0E0ED
:104A030074081210D9124AA62432F582E438F583C9
:104A1300D0E0124AF3124A9A120DB91267FE1275C8
:104A2300EC740B1210D9124AA6242F127AC8120D55
:104A3300D0EE24151257035440601290172A1252D5
:104A4300C0600AAA21AB22125EDF1227A7AA21ABFC
:104A530022122046740C1210D9E0F9024D95E82475
:104A630020F582E439F58322EE2419F582E43FF53B
:104A7300832212680DE022E82412F582E439F583DB
:104A830022EE2418F582E43FF583225480F8A3E054
:104A93005401F974806822F508A3E0F509750A004A
:104AA300780822124ABA22124ABA2434F582E43828
:104AB300F58322A3A3A3A3124ABE22E0F8A3E0C86E
:104AC30022124ABA1243FA38F58322FAA3E0FBE82A
:104AD300242AF582E439F583EAF0A3EB22A3A3A306
:104AE300A3123FF8EE2212526712524739F583227E
:104AF300F0EE241312578422F0EE240D1257842271
:104B0300E0FC8A828B83E02CFCA3E03400FD8A82E4
:104B13008B83ECF0A3EDF022F0A3E4F022F08521E7
:104B23008285228322F0EE241512578422E0D2E3F9
:104B3300F0124B38228E828F83123FFC85218285AF
:104B43002283E8F0A3E9F022E8F0A3E912623BE054
:104B53002274F71208298A828B83A3E0640170040C
:104B63007E6380027E648A828B83E060087905120B
:104B73004B8824F3FE901746E06007F9124B882414
:104B8300F2FE0246751220EEE9F8EEC3982274F69F
:104B930012082974FE120E69852182852283126010
:104BA300F5E9FEECFAEDFB9003811252C06032A8E6
:104BB30021A922880889097808120DBD7D01740E88
:104BC3001210D9E0FCEEF99003811260C91227A7F5
:104BD3007402120DD0EA4B60047900800679B2802A
:104BE3000279B6023FE874F7120829E9FE9017002C
:104BF3001252C0601F74091210D9E0F50878081228
:104C03000DC1EEF99017001260C91227A7740112A3
:104C13000DD0800279B602469974F71208298908E3
:104C2300ECFEEDFF79B5E508245E602014600624F0
:104C3300F86034803D900383124C786035126E091E
:104C43001227A78E828F831260F580249017021299
:104C530075ECEC4D601CEEFCEFFD9017021260C981
:104C63001227A7E9F9800B9016FE124C7E12180C3E
:104C73007900024699124CB2EA4B221275F0EEFA11
:104C8300EFFB2274F7120829E9FE79B574AB6E7055
:104C93000B9016FE124CAE12180C79000246998E38
:104CA300828F83A3A3A3A3A3A3A3A3124CB2221211
:104CB3004CB622E0FAA3E0FB2274F1120829EAFEC3
:104CC300EBFF8C0A8D0B75080190174EE06E700395
:104CD300A3E06F700C124D89AA0AAB0B12180C805B
:104CE3005E122226EE6A7002EF6B7009AA0AAB0B02
:104CF30012222C804AAC0AAD0BEEFAEFFB121D7C9C
:104D0300E9F50890194FE070361226B2E97030E5E4
:104D130008702C90171EE06E7003A3E06F7020EEF6
:104D23004F601C750C16750D17750E00780C120D5F
:104D3300B97C087D00AA0AAB0B126DB5120DD0A980
:104D4300080276E874F2120829EAFEEBFF8C088D5C
:104D530009750A01124D89EEFAEFFB121806E96490
:104D630001701190174E123FF48508828509831252
:104D73006D8E800EAC08AD09EEFAEFFB121D82E9D1
:104D8300F50AA90A801112221A8A0C8B0DAC0CADFC
:104D93000D22740D120DD07F06020B5C74F61208FF
:104DA30029EAFEEBFF7A0D7B0012170AEA4B6062D9
:104DB300EE2424126A92F0EE2425126A92A3124E74
:104DC30057126A98A3A312682B124E32F0EE124EBA
:104DD30018124E47E8F0A3E9124E6E124E3F126DC1
:104DE3008EEE124E211268EEA3A3A3A3F0EE24339A
:104DF300125703C0E0124E2AD0E012661D124E3F36
:104E0300A3A3A3E8F0A3E9124E66C0E01253E0D0D7
:104E1300E0F0023FED242AF582E43FF58322242EBD
:104E2300F582E43FF58322EA1258593BF5832212B7
:104E33004E3622E08A828B83A3A3A32212694DA359
:104E4300A3A3A322124E4B22123FFC8A828B83A37D
:104E5300A3A3A322F0124E5C22EE2426F582E43FA4
:104E6300F58322F0EE243212578422F0EE242C1222
:104E730057842274F412082974FE120E69ECFEEDB5
:104E8300FFEC241612570364057010EC2406FCE4AF
:104E93003FFD121FCEE97003024F22AC21AD221257
:104EA3006B47121C448521828522831252C0606B9A
:104EB3008E828F83E064017058E875F009A4F8AA24
:104EC300F075F009E9A42AF9747728F8740439F91C
:104ED300E8FAE9FB8882F5837808121082EE124F14
:104EE300C41210164027852182852283124AE412B8
:104EF3005711124F2778081210829085A97808124B
:104F03000F4D8A828B837808121073800A79A280EE
:104F130010EE240F126D887900800679A180027942
:104F2300C8023160124B45EE1268192274F212085E
:104F3300298A0C8B0DECFEEDFFEC125711E4F0A364
:104F4300F09086197808121082EC124FC4120E9555
:104F53006067EC240E12570A703478B3901745E05B
:104F63007028901777E064017020EC241112570326
:104F7300F91220D68B09A909EE1252433F1260F3AE
:104F8300EA4960047800800278A18808802EE060F6
:104F9300046402700A121FE0E9F5087007801DE03F
:104FA30064037010EEFCEFFDAA0CAB0D121C68E954
:104FB300F50880087508A180037508A3A908024DA8
:104FC3009A12681978082274F012082974F5120EDF
:104FD30069EAFEEBFFEA240AFCE43F8C82F58312C4
:104FE3007A8912524D7403120E618A828B83125E88
:104FF300E9E970030250B37401120E617403120ED7
:1050030059121C4474011210D91252C07003025079
:10501300B3E875F009A4F8AAF075F009E9A42AF930
:10502300747328FC740439FDE508240E12633AE412
:10503300F0041210D9123FF4E50812524335091255
:105043006D8C8C828D831210B6E508241212633A9C
:105053001210C29085A978081210828C828D8378F1
:1050630008120FAC8C828D83780C12108290859974
:105073007808121082780C79081207BAE5084509F6
:10508300450A450B702A74011210D912526375F048
:1050930009A4F8AAF075F009E9A42AF9747B28F5A4
:1050A30082740439F5837401F07A007B081252701C
:1050B3008E828F83A3A3A3A3A3A3A3A3A3A3E02469
:1050C30006FCA3E03400FD8E828F83125EE9126634
:1050D3000B603EEE240A125235124AE97468124BF1
:1050E3001BE812522F39F5837402F0901730121017
:1050F300B68C828D831260E2125CD43CF58312106D
:10510300C29085A978081210829017307808120F80
:10511300AC1252AB705D9016FE12525BA3A3A3A315
:10512300A3A3A3A3A3A3125D0A121806E970101286
:105133005CC89016FE125CDA700512660B60348E42
:10514300828F83A3A3A3A3A3A3A3A3A3A312525BAB
:10515300124CAE121C6EE960118E828F83A3A3A33F
:10516300A3A3A3125297E4F0A3F08E828F8312526B
:105173007DE4F01252AB600302522A8E828F83A326
:10518300A3A3A3A3A3127A85901745E06003025259
:105193001F901777E06401600302521F750A3A7586
:1051A3000B00780A120DBD7402120E51880A890B86
:1051B300780A120DBD127084120DD0E9705BE508F8
:1051C300240E12633A74011252C5C0E0E50824119B
:1051D30012633AD0E0F0E508240F12633A743A12EE
:1051E3004B1B90172C1210B6E508241212633A12C7
:1051F30010C29085A9780812108290172C78081293
:105203000FAC9085A9780812108290172C78081299
:105213000E95700812526C800312524D1252AB70ED
:1052230006125BCB74A1F0740B0269BD240EF582E8
:10523300E422F8E43FF9E8FCE9FD8882F58322EAF9
:1052430012524722240FF582E422E5081252473511
:1052530009F583E4F0A3F0221275F08E828F832286
:1052630012526722123FFCE8227A007B029015D784
:10527300E0F91216B0228A828B83A3A3A3A3A3A36C
:10528300A3A3A3A312528B22124ABE240EF582E4D7
:1052930038F58322A3A3A3A312529F22124ABE244A
:1052A3000FF582E438F583228E828F83A3A3A3A311
:1052B300A3A3124AB6240FF582E438F5831252678A
:1052C30049221252C922F0852182852283E0227469
:1052D300F6120829EAFEEBFF7A237B0012170AEE87
:1052E300240AF508E43FF5098508821260F37C235C
:1052F3007D00790012165C8508828509831252C0ED
:105303007003025393EEFAEFFB121FEC1252AB60E1
:10531300748E828F831253C664018E828F83A3A3FC
:10532300A3A3A3A370071253BC740E80211252C00F
:10533300701012660B700B8E828F83A3A3E0A2E022
:1053430050071253B2740D80051253B274051266DE
:105353001D54036401700712539A7405800B901750
:1053630046E0C0E012539AD0E01253D5F583888209
:10537300125730850882850983124AA6126087383E
:10538300F583E9800E85088285098312616C8003A9
:105393001260AFF0023FED8E828F83A3A3A3A3A37A
:1053A300A3A3A3A3A31253AC22E01260CEA3228E25
:1053B300828F83A3A3A3A3A3A3124AB612608D383B
:1053C300F58322A3A3A3A3A3A3A3A3A3A312528BF3
:1053D300E0221253D922126B5CF8A3E022EA1253A3
:1053E300E83BF58322240CF582E42274F1120829A8
:1053F30074E4120E698A0C8B0D8C088D097A237B59
:105403000012170A8A0A8B0BAE0AAF0BEA4F70031E
:105413000256EB126093E508241512571C687003BB
:10542300A3E0698E828F837004740280027401F09A
:10543300E508240DF8E43509F98882F583E0FAC319
:10544300E49AFA95E0FB1257182AFAA3E03BFB8E85
:10545300828F83A3A3A3A3125CF18E828F83A3A362
:10546300F0EE2420F582E43FF583E4F0EE2421F509
:1054730082E43FF583E4F0EEFAEFFB1220A0850807
:105483008285098312573770098E828F83A374052F
:105493008006901746125725F0EE2417F50AE43FCD
:1054A300F50B8E828F83125730E9850A82850B8331
:1054B300F0EE2416F8E43FF9E508240EFAE4350982
:1054C300FB88828983124B03E5082410FAE435092B
:1054D300FB850A82850B83E0FC88828983E0F88A56
:1054E300828B83E0C398C39CF8125771F0EEFCEFF4
:1054F300FDAA0CAB0D121FE6E9F50B8E828F83E03C
:1055030064027006125CC81256F5E50B600302567E
:10551300E2750C00750D0090194FE064016005E021
:105523006402703F1257076008EE242112570A7075
:10553300328E828F83A3A3A31260B512573DEE244C
:1055430016125703125766FAE439FB123DF5EA4B7C
:105553006011126917120DB912574BAA0C126DB5CF
:10556300120DD0EEFAEFFB1220ACE9F50B90194FB8
:10557300E064016008E0640260030256D5E9700349
:105583000256D5E50C450D70030256E28003850EE5
:105593000B125707600BEE242112570A60030256C1
:1055A300DB850B0E850C08850D09750A007808123A
:1055B3000DB912574B8E828F83A3A3A3A3127ACE66
:1055C300120DD0EE2420125703600D125710746889
:1055D300124B1BEE24208015EE2421125703601575
:1055E3001257107403F0A37401F0EE2421F582E442
:1055F3003FF583E4F0EEFAEFFB1220ACE9F50B7014
:10560300907C137D0079007409120E5912165C7494
:105613001A1210D9740112577C64687002A3E070E7
:105623004F8E828F83125297E06405600302559177
:105633007C0879FF8E828F83A3A3A3A3E0242A127D
:105643005D0D1216E6E970030255917C087D007921
:10565300FF7401120E5912165C7401120E617A0066
:105663007B0079AB121FC874191210D974FC801512
:10567300125710E064037004A3E064017008741906
:105683001210D974FFF0E4F508F5097808120DBD7E
:105693007402120E6174131210D9AA82AB831261C1
:1056A300F2120DD0852182852283E0602B740912CA
:1056B3000E51880889097808120DBD7508137509FC
:1056C300007808120DBD7C007D00126A65120DD0B2
:1056D3008006E50C450D6007AA0CAB0D121710EE02
:1056E300FAEFFB1217108003750B10A90B741C0241
:1056F30076E5EE2406FAE43FFB12180C22EE240CA6
:1057030012578422EE2420125784640122EE12528F
:10571300473FF58322E508240EF582E43509F58336
:10572300E02212572AA322E08E828F8322A3E0F97C
:105733001220EE22E0540364012212574122E0FAC0
:10574300E82AF8E43400F9228E828F83A3A3A312FC
:1057530060B9125741EE2416125784125766FCE4BF
:1057630039FD22FAE82AF8E439F9E8240422125729
:10577300752212662CA3A3A322F012578122EE24D2
:105783000FF582E43FF583E0227901020D8074F482
:10579300120829EAFEEBFF8A82F583A3A3A3A3A33E
:1057A300A3A3A3124AA62424F582E438F58312574F
:1057B30037702E8A828B831253C6702512585FE08E
:1057C3006405701D12585FA3E0F8740168600574E6
:1057D30006687007125279740280051252797403B5
:1057E300F0EA240A1261601260C9E4F0EA2408F8BE
:1057F300E43F12314F2431F582E43AF583E0C0E00F
:10580300126E00A3A3D0E012587ECA242EF582E4C0
:105813003AF583E0C0E0126E00A3A3A3D0E0125DCB
:10582300A4C812585938123FF2126E001258738AE4
:105833000A8B0BAC0AAD0B850882850983125D0ABE
:1058430012180C850882850983124CAE1220AC1203
:10585300615BF0023165240BF582E4228A828B833B
:10586300A3A3A3A3A3A3A3A31265F2F58388822210
:10587300A3A3A3A3124B4512221A22125CE6FAA396
:10588300E02202578CC082C08390172074F2F0A3E9
:10589300741FF090172274FEF0A3741FF090172466
:1058A3007404F0A37420F090172674F8F0A3741F07
:1058B300F0025B8F74F4120829EA2408FEE43BFF2C
:1058C3008E82F58312526312609FE0F508740355CC
:1058D30008F509125D05F8A3E08882F583E508F071
:1058E300A3A882A983E5096009740265096003021C
:1058F30059A4740C5508FC600A74086C60057404A0
:105903006C7026740265097006E508A2E4401A8AE1
:10591300828B83A3A3A3A3A3A3A3A3125AAA12674D
:10592300F83D125A45A308A983740C6C701C125AD3
:10593300A62428125A922428F582E43DF583A31263
:105943006426F0E82402F850010974026509700620
:10595300E508A2E4404B125AA6242A125A92242A9A
:10596300F582E43DF583A3125A54125AB012642609
:10597300125AB0A3125A4CE82404F8500109EC60FF
:105983000F74086C600A740C6C600574046C7011FD
:105993001260D62426F582E43C125A45A3A882A9B4
:1059A300838A828B83A3A3A3A3A3A3A3A3125A745F
:1059B30054037014E508A2E1400E1260D6125A3F58
:1059C3003CF583E054806008125A5A125A478019F2
:1059D3009016F4E0C0E0125A5AD0E0125A87888237
:1059E3008983125A8704125CEBA3A882A983E50872
:1059F300A2E750458E828F83125A7488828983125C
:105A03005A8D125A79540360301260D62434F582C9
:105A1300E43C126424F0E508A2E1501D8A828B83E2
:105A2300A3A3A3A3A3A3A3A31231542435F582E410
:105A33003A126424A3F0E82403023165241EF5829C
:105A4300E422F583125A54F022125A54A3A3A3F06A
:105A530022E088828983228A828B83A3A3A3A3A3C0
:105A6300A3A3A3E0FCA3E0CC2432F582E43CF583BA
:105A730022E0125A7922FCA3E0CC2425F582E43CEF
:105A8300F583E022F09016F4E022126628E022F576
:105A930082E43DF583125A54125A9F2212662C1245
:105AA3005AAA228E828F83E0FDA3E0CD22A3125A4D
:105AB3009F242CF582E43DF58322C082C0838A8231
:105AC3008B83125B7FFC74035CF98A828B83A3A3B1
:105AD3007401F0E960057402697061740C5CF8602C
:105AE3000A740868600574046870137402697005A9
:105AF300ECA2E440098A828B83A3A37402F0740CA2
:105B030068700A8A828B83A3A3E02402F07402697B
:105B13007005ECA2E440258A828B83A3A3E02404CE
:105B2300F0E8600F740868600A740C686005740418
