:020000040000FA
:060000000210360205E4C7
:03002B00020D982B
:030033000209A718
:0300530002051390
:03006B0002095C2B
:03007B00020985F2
:1000830002057501010000000000F8FF07FFFF00F3
:10009300000504000000030001FF0020FD0002062C
:1000A300FFFF1E141027000032190000000000009B
:1000B300000000000000000000000000000000003D
:1000C300FFFF14010400002717000000E8030000ED
:1000D300FFFF78170188130000E803000064006441
:1000E30000B801A0BB0D00A0BB0D00020202070473
:1000F30001051E02051E020A0A010108080103B8D0
:100103000B02803E0102FEFFE8030A050001FFFF28
:10011300020A011401E002000000050301010F03BC
:1001230000030003000300030003000300030003B4
:100133000005000A00140028004F009E0000006123
:100143002C00000000352B00000000FF000000FF22
:10015300001210556046121046603DE9687008F6BB
:1001630018F618F618F622748067F7120188090941
:1001730009748067F722121046601D12105570052E
:10018300191919801A120F25701F120EE9C3700373
:10019300E667331919194007181818220808087454
:1001A300FFF618F618F618F622120EE96017121069
:1001B300E3702192F01210EC7019501720F014081C
:1001C3000808090909E7F61819E7F61819E7F618F0
:1001D30019E7F6221210EC60E6E869701F0808E6DA
:1001E3002480F608E436F618547FB47F0CE6548076
:1001F3006007F6E418F618F622181822E9C6CC08A8
:10020300C6CD08C6CE08C6CFC0E0E8C0E0EAC0E06D
:10021300EBC0E009E9F809E7FA09E7FBE6F918E6B4
:10022300F8C3EC98ED99EE9AEBC2E7F5F0EFC2E76D
:1002330095F0500E600CEBCFFBEACEFAE9CDF9E86E
:10024300CCF8EAA2E7D2E7FAEB33FB13F5F0EEA220
:10025300E7D2E7FEEF33FFC5F013A2E730E601B3C1
:1002630013C5F0C3C0E0C0F07F00C39BFB605E9486
:1002730018600F401D14601AD0E023F9D0E0F80293
:10028300035A8AF0E9486003D2F0E4AFF0FAF9F8D0
:10029300803BEB30E40D89F0EA6003D2F0E4AFF089
:1002A300F9CAF8EB30E30D88F0EF6002D2F0AFF05B
:1002B300E4CAC9F8EB54076014FBC3EA13FAE91361
:1002C300F9E813F8EF135002D2E0FFDBEDD0E0C002
:1002D300E030E739C3E49FFFF5F0EC98FC42F0ED22
:1002E30099FD42F0EE9AFE42F0D0E0F9D0E0F8E555
:1002F300F0607AE923F9EE20E742D8028067C3EF82
:1003030033FFEC33FCED33FDEE33FE80EAEC28FCE7
:10031300ED39FDEE3AFED0E023F9D0E0F84002805B
:100323001BC3EE13FEED13FDEC13FCEF135002D2CF
:10033300E0FF08B800067F7F74FF802EEF3350176D
:100343008CF020F00260100CBC000C0DBD00080EF8
:10035300BE000408E860DFE933E813FFEE2313FE71
:100363004F4D4C8008E95480FFE4FEFDFCEE33EF73
:1003730033F47004FCFD7E80D0E0FBD0E0FAD0E0E3
:10038300F8D0E0CFC618CEC618CDC618CCC6F92211
:1003930000121046604F1210556012E7548066F643
:1003A300120F2570111210E3703B090909F4F618B6
:1003B300F618F618F622120EE970151210EC08085A
:1003C3000860EAE6447FF618768018E4F618F62209
:1003D3001210EC60161210E37012E4F608F608F639
:1003E30008E65480F609090918181822EAC0E0EB58
:1003F300C0E0ECC0E0EDC0E0E687F0A4FBACF008A1
:10040300E687F0A42CFCE435F0FA1809E687F0A49B
:100413002C4B60027401CA35F0FCE433FB09E68718
:10042300F0D2F7A42CCB35F0FC1908E687F0A42B07
:10043300CC35F0FBE433FD0819E687F0D2E7A42CB2
:100443004ACB35F0CD3400FC09E687F0D2E7A42D82
:10045300CC35F0FDE433FA0918E687F0D2F7A42C83
:10046300CD35F0CA3400FC08E687F0D2E7D2F7A412
:100473002ACC35F07A7E20E70B0ACB33CBCD33CDB4
:10048300CC33CC33CB3350147004ED30E00ED2F1C7
:10049300E4CD3DCDCC3CCC3B5005DA05C2F1EB5469
:1004A3007FC63308E63392F0FBE73309E733C39A99
:1004B300502D2B70190C0D4C4D70151806E608C302
:1004C30033700D20F10AA2F013F6E418800B4024D8
:1004D300E4F630F002768018F618F618F68024D386
:1004E3003B14501074FFA2F013F6187680E418F64C
:1004F30018F6800FA2F013F618E63303F618ECF69D
:1005030018EDF6D0E0FDD0E0FCD0E0FBD0E0FA221D
:10051300C0E074F11208FDA2AFE433F509D2AF8550
:10052300A708AFA1EF5508FE74105E60061213B062
:1005330075A1EF74085E60081213B675A1F78024E5
:10054300EFA2E092F0E508A2E082F05017906198E4
:10055300E0F890040EE0C398A2D265D0335002E8CD
:10056300F075A1FE752300E509A2E092AF7F0202B8
:100573000A18C0E074F21208FDA2AFE433FED2AF52
:100583009061A4E0F8759B00E591585408600875E4
:1005930091F71214048023E5915854106008759163
:1005A300EF12140A8014E591A2E092F0E8A2E0822F
:1005B300F05007E0C2E0F01215609061A3E0F8E5A7
:1005C300E9585404600E12153675E9FB906193E007
:1005D300A2E640F2752300EEA2E092AF7F01020A89
:1005E30018C0E074F21208FDA2AFE433FED2AF905C
:1005F30061A5E0F8E5BF585404600675BFFB12150A
:100603007880D1C3E498F8E499F91206478026C3A9
:10061300E49AFAE49BFBE920E7E9120647E498F839
:10062300E499F922C3E498F8E499F9120647E498A7
:10063300F8E499F9C3E49AFAE49BFB22EB20E7CFB1
:10064300E920E7E0B90010BB0008E88AF084F8AAC3
:10065300F022E4FBC8FA22EB70227B10C833C8C92E
:1006630033C9335007C39AC3DBF280069A50012A79
:10067300DBEAC833F4C8C933F4C9FA2275F008E4D5
:10068300C833C8C933C933C99AC99B5004C92AC9D5
:100693003BD5F0ECFBC833F4C8E4C9FA221206EBED
:1006A30030F03912073080341206EB20F01430E7B3
:1006B3002B74FFFCFBFA747F8022E4FCFBFA74804A
:1006C300801AB48008BC00F2BB00EF800F50EBF936
:1006D300E4C39AFAE49BFBE49CFCE499C6CC18C6F9
:1006E300CB18C6CA18C6F922E4C9C608CAC608CBBD
:1006F300C6D3330308CCC63392F0C3947F402E9401
:10070300184019C9B90704CACBCC225025C309CA5A
:1007130033CACB33CBCC33CC33D9F422F4600DC9F9
:10072300CCC313CB13CBCA13CAD9F6CC22E4FCFB3C
:10073300FA2214FCFBFA22080808EAC0E0EBC0E046
:1007430086F0E7A4FA180986F0E7A42AFA180986BE
:10075300F0E7A42AFA180986F0E7A42AFA1986F022
:10076300E7A4FBE5F02AFA190886F0E7A42BFBE5DA
:10077300F03AFA190886F0E7A42BFBE5F03AFA18E9
:10078300180986F0E7A4C5F02BFBE43AFA1908E749
:10079300C5F0C6A426F6E5F03BFBE43AFA1886F06A
:1007A300E7A4F6E5F00826F6E43B08F6E43A08F693
:1007B300D0E0FBD0E0FA22E4CFC0E0E4CEC0E0E436
:1007C300CDC0E0E4CCC0E075F020E626F608E633C1
:1007D300F608E633F608E633F6181818EC33FCEDA2
:1007E30033FDEE33FEEF33FFC3EC9709ED9709EECC
:1007F3009709EF97191919400FFFEC97FC09ED972B
:10080300FD09EE97FE191906D5F0BFECF709EDF7D0
:1008130009EEF709EFF7191919D0E0FCD0E0FDD084
:10082300E0FED0E0FF222521C582C0E0E52234FFAF
:10083300C583C0E0E521C3958224F810AF08858302
:10084300228582218008858322858221D2AFCEF042
:10085300A3E520F0A37808E608F0A3DEFAEFF0A3FF
:10086300E58124FAF8E608F0A3E608F0A3E608F029
:10087300A30808E608F0A3E608F0A315811581D0C4
:10088300E0FED0E0F8158115811581E8C0E0EEC0E7
:10089300E0221210CEB900030208E7E490030178C6
:1008A3001379188002F0A3D8FCD9FA782390008634
:1008B3007A01BA00028007E493A3F608DAF97A13FF
:1008C3007B1A90008778CE79018015E493A3AD82DB
:1008D300AE838A828B83F0A3AA82AB838D828E83BD
:1008E300D8E9D9E77582397583DE7404120D7A75F8
:1008F30082907583277400120D7AC0D02521C5829A
:10090300C0E0E52234FFC583C0E0E521C39582241E
:10091300F310AF0885832285822180088583228591
:100923008221D2AFC8F0A3E9F0A3EAF0A3EBF0A3CE
:100933007908E709F0A3D8FAECF0A3EDF0A3EEF001
:10094300A3EFF0A3D0E0F0A3D0E0F0A3D0E0F0A3B6
:10095300E520F0A3E5F0F0A322C0E074F21208FD55
:10096300A2AFE433FED2AFE589547C60031212D800
:10097300538983C2C5752300EEA2E092AF7F0102C3
:100983000A18C0E0C0D0E8C0E0A8A8D2AFE58A85C5
:100993008A8AC2EB752300E8A2E792AFD0E0F8D0D1
:1009A300D0D0E032C0E0C0D0E8C0E0A8A8D2AFE524
:1009B3008B858B8BC2E880DCE9799EC608CAC608A2
:1009C300CBC608CCC6C370207996CACBCC70197934
:1009D3008ECBCC70137986CC700EF9802ACA33CAB9
:1009E300CB33CBCC33CC331930E7F2CCCBCA335037
:1009F300147004EA30E00DE4CA3ACACB3BCBCC3CDA
:100A0300CC500209C3E913C6CC182313C6CB18C6AE
:100A1300CA18C6F922852283852182E0C0E0A3E0BB
:100A2300F9A3E0FAA3E0FBA37808E0F608A3DFFA52
:100A3300E0FCA3E0FDA3E0FEA3E0FFA3E0C0E0A38E
:100A4300E0C0E0A3E0F5D0A3E0F520A3E0A3F5F038
:100A530010AF0885832285822180088583228582C1
:100A630021D2AFD082D083D0E0F8D0E03275F0103D
:100A73008E248F258582298583288521828522835B
:100A8300E0CEA3E0CF852982852883EBC9EAC8EDB0
:100A9300CBECCAC3E833C8E933C9EA33CAEB33CB77
:100AA300C3EA9EF527EB9FF526B35004AB26AA278E
:100AB300EC33CCED33CDD5F0DAAE24AF25221210D2
:100AC30046601C12105560171210EC70071210E3E9
:100AD3007001D322C0D01210E37006D0D0B322C36A
:100AE3002233D0D0501430E0F6C3E7960809E796D6
:100AF3000809E7960809E796B32220E0D5E69708A8
:100B030009E6970809E6970809E697B322D083D048
:100B130082ECC0E0EDC0E0E493A3FCE493A3FDED1D
:100B23004C600D120BE8EC24FFFCED34FFFD80EF6D
:100B3300E493A3FCE493A3FDED4C600D120C85EC50
:100B430024FFFCED34FFFD80EFD0E0FDD0E0FCE4BA
:100B530093A3C0E0E493C0E022852283852182E051
:100B6300A3FEE0A3F5207808E0A3F608DFFAE0A3EC
:100B7300FFE0A3C0E0E0A3C0E0E0A3C0E0E0A3C0C7
:100B8300E0E0A3C0E010AF088582218583228008BE
:100B9300858221858322D2AFD083D082020D80D07B
:100BA30083D082E9C0E0E493A3C386F0C5F095F057
:100BB300F908E493A386F0C5F095F0700BE493A3D2
:100BC300C3994005E9048002A3E475F002A42582D9
:100BD300F582E5F03583F583D0E0F9E493A3C0E033
:100BE300E493C0E022C0E0C3E493960874019396B3
:100BF30018400FE493667008087401936618700038
:100C03007019A3A3C3E49396087401939618A3A33E
:100C1300400DD0E0D0E0D0E0020B4CA3A3A3A3A3EC
:100C2300A3D0E0227404800474028000CCC0E0ED01
:100C3300C0E0E521C39CCCAD2250011D10AF068C52
:100C4300218D2280068C218D22D2AF120CFCD0E0A4
:100C5300FDD0E0FC2274028000CCC0E0EDC0E0E5F2
:100C630021C39CCCAD2250011D10AF068C218D22D7
:100C730080068C218D22D2AF120CDAD0E0FDD0E0B9
:100C8300FC22C0E0C0F088F0E493667008087401A9
:100C93009366187000A8F0A3A3700BD0F0D0E0D037
:100CA300E0D0E0020B4CA3A3D0F0D0E022D083D05D
:100CB30082CCC0E0E493A36006120D5B1470FAE4E7
:100CC30093A36006120E7F1470FAD0E0FCE493A3A2
:100CD300C0E0E493C0E022CAC0E0E493A3C582CCA1
:100CE300C582C583CDC583F0A3C582CCC582C58328
:100CF300CDC583DAE5D0E0CA22CAC0E0E0A3C5824D
:100D0300CCC582C583CDC583F0A3C582CCC582C5BE
:100D130083CDC583DAE6D0E0CA2270090808082229
:100D23006016181818C6C333C608C633C608C633B8
:100D3300C608C633C6D5E0EA22C008C3E096F50864
:100D430008A3E096420808A3E096420808A3E096A9
:100D530045087001D3D00822C0E0E493A3D39C508C
:100D630010E493A3C39C400AD0E0D0E0D0E0020C8F
:100D7300CDA3A3A3D0E022C09FF59FE473D09F220D
:100D8300D083D082C09FE493C0E0740193C0E07429
:100D93000293F59F22C0E0C0D0E8C0E0A8A8D2AF7C
:100DA300C2C7752300E8A2E792AFD0E0F8D0D0D055
:100DB300E0327404800A74038006740280027401B2
:100DC300C0E0F404120DEBD0E01210912200C0D069
:100DD300252110AF08F521500C05228008F521507C
:100DE300020522D2AFD0D0222521F58210AF08F51B
:100DF30021400C15228008F52140021522D2AF852F
:100E0300228322BB0102E722C082C08389828A83B4
:100E1300BB0003E08002E493D083D08222601608F3
:100E23000808C6C313C618C613C618C613C618C601
:100E330013C6D5E0EA22C3E0C696F608A3E0C69639
:100E4300F608A3E0C696F608A3E0C696F622252187
:100E5300F8E43522F9222521FAE43522FB22252163
:100E6300FCE43522FD22252110AF08F521400C15A5
:100E7300228008F52140021522D2AF22C0E0E4937C
:100E8300A36C7009D0E0D0E0D0E0020CCDA3A3D0D6
:100E9300E022E066701008A3E066700A08A3E0662B
:100EA300700408A3E06622C3E09608A3E09608A3B3
:100EB300E09608A3E096A2D265D03322C3E7960852
:100EC30009E7960809E7960809E796A2D265D033A1
:100ED30022E76670100809E766700A0809E766707A
:100EE300040809E76622191919E70947097009E790
:100EF30027097005E733F4220922C3E096F008A31B
:100F0300E096F008A3E096F008A3E096F022C3E68B
:100F130097F60809E697F60809E697F60809E697AB
:100F2300F622181818E60846087009E62608700520
:100F3300E633F4220822C3E49396087401939608D7
:100F430074029396087403939622E026F608A3E0AE
:100F530036F608A3E036F608A3E036F622E627F6CF
:100F63000809E637F60809E637F60809E637F622F0
:100F7300700422600D18C6C333C608C633C6D5E055
:100F8300F41822E056F008A3E056F008A3E056F068
:100F930008A3E056F022E657F60809E657F60809D3
:100FA300E657F60809E657F622E026F008A3E036EE
:100FB300F008A3E036F008A3E036F022E056F60886
:100FC300A3E056F608A3E056F608A3E056F622E699
:100FD30047F60809E647F60809E647F60809E6472B
:100FE300F622E4C396F608E496F608E496F608E4D7
:100FF30096F622600D08C6A2E713C618C613C6D517
:10100300E0F322C6F4C608C6F4C608C6F4C608C68A
:10101300F4C622C3E09608A3E09608A3E09608A3CB
:10102300E09622C3E7960809E7960809E7960809B8
:10103300E7962275D00075813F7521017522030063
:10104300020895E6084608C3134608336002E633F0
:10105300F422E7094709C3134709336002E733F46E
:1010630022600C08C6C313C618C613C6D5E0F42203
:10107300E6F008A3E6F008A3E6F008A3E6F022E012
:10108300F608A3E0F608A3E0F608A3E0F622CAC038
:10109300E0E6F0A308DAFAD0E0FA22E0FAA3E0FBF4
:1010A300A3E0FCA3E0FD22EAF0A3EBF0A3ECF0A3A2
:1010B300EDF022E0F8A3E0F9A3E0FAA3E0FB22E8D5
:1010C300F0A3E9F0A3EAF0A3EBF022E5C754F84458
:1010D30001F5C77901222521F582E43522F5832222
:1010E300E72719471947194722E6261846184618CD
:1010F3004622C2AF75D69F02000022120D835AD436
:1011030002120D83B3D702120D8331DA02120D835B
:10111300DDDA02120D830DDB02120D8372DB021284
:101123000D8306DC02120D83B9DC02120D830ADD86
:1011330002120D834EDD02120D83E8DD02120D83D0
:1011430055DE02120D8384DE02120D838ADF021242
:101153000D83AEDF02120D8302E002120D83D6E08F
:1011630002120D8301E302120D83AFE302120D831A
:1011730024E602120D83A9E602120D8320E902126E
:101183000D8356EB02120D839AEB02120D83F3ECDF
:1011930002120D8306ED02120D834BED02120D8335
:1011A30017EF02120D835FF004120D839EF00412F9
:1011B3000D83CEF002120D834AF102120D837DF1ED
:1011C30002120D83ABF102120D83E9F102120D83BA
:1011D30026F402120D8345F402120D838AF40212DF
:1011E3000D8320F502120D836CF502120D8300F6B8
:1011F30002120D83D9F602120D8335F702120D8305
:1012030093F702120D8306F802120D834AF80212B5
:101213000D83A2F802120D83C4F802120D8354F950
:1012230002120D83E5F902120D8331FA02120D83C6
:101233005DFA02120D839EFA02120D8334FC021230
:101243000D8320FD02120D83FBFD02120D8342E983
:1012530004120D8345E904120D83A3E904120D83DF
:10126300F7E904120D8319EA04120D832FEB04121C
:101273000D8340EB04120D83DEEB04120D83E9EBC7
:1012830004120D8303EC04120D83F27F00120D830D
:1012930057F104120D8312EC04120D8322EC041295
:1012A3000D8337EC04120D83EBEC04120D83D5FE92
:1012B30002120D8359FF02120D83C1FF02120D8327
:1012C30009E304120D8331E304120D8354E3041282
:1012D3000D83C9E304120D8313E404120D833EE46A
:1012E30004120D8355E404120D8334C704120D83D5
:1012F30042C704120D83BBC704120D8394C80412A2
:101303000D8357CA04120D839CCA04120D83C1CAEC
:1013130004120D83F87F00120D832CDC04120D835D
:1013230064DC04120D83B2DD04120D8336DE041275
:101333000D836AF104120D836DF104120D8379F1AB
:1013430004120D8372B404120D839EB404120D8330
:1013530008B704120D8348B704120D8384B704122F
:101363000D8398B704120D83B1B704120D83A3B88C
:1013730004120D8356B904120D836AB904120D8346
:101383009DE104120D83C1E104120D83DAE104121D
:101393000D8318E204120D8348E204120D8375E2F3
:1013A30004120D837FE204120D83E5E204120D8320
:1013B300E8E204120D83F2E204120D83FFE2041249
:1013C3000D8347D704120D8367D704120D83A6D765
:1013D30004120D83C4D704120D83DFD704120D83C7
:1013E30045D804120D8351D804120D83AED80412CC
:1013F3000D83BDD804120D83E1D804120D83A2D945
:1014030004120D83AFD904120D83C0D904120D83C6
:10141300E8EF04120D8330F004120D835CF0041224
:101423000D83C0B904120D831ABB04120D8328BBAC
:1014330004120D833BBB04120D8350BB04120D83B6
:1014430065BB04120D8378BB04120D83F4BB041235
:101453000D8359BC04120D83E1BC04120D8359BDE5
:1014630004120D8332BE04120D8342BE04120D8397
:1014730051BE04120D834DEE04120D8371EE04125E
:101483000D8399EE04120D83C1EE04120D83A8FDA2
:1014930003120D83CFFD03120D83EDFD03120D83A4
:1014A3005CFE03120D8374D404120D838DD40412D5
:1014B3000D8399D404120D83ADD404120D83CBD4C0
:1014C30004120D83D5D404120D83DFD404120D83CB
:1014D300F2D404120D8378D504120D83EDD50412D2
:1014E3000D831CD604120D836AD604120D83B9D65C
:1014F30004120D83D4D604120D83DED604120D8399
:10150300EFD604120D8332D704120D83D4F00412E4
:101513000D831FF104120D83179504120D83439558
:1015230004120D83609504120D83739504120D83C9
:101533008E9504120D83E89504120D8316960412FA
:101543000D83269A04120D83849B04120D83B69B8C
:1015530004120D83199C04120D83859D04120D83BF
:10156300AD9D04120D83C29D04120D83D29D0412FE
:101573000D83129E04120D83549E04120D83649EE8
:1015830004120D8312E704120D832CE704120D835A
:1015930054E704120D836DE704120D8391E70412DF
:1015A3000D83AFE704120D83C6E704120D83F4E73E
:1015B30004120D830FE804120D83F1EC04120D8362
:1015C30035ED04120D83D4CA04120D83E4CA041248
:1015D3000D83E9CB04120D831BCC04120D834BCC7A
:1015E30004120D836ECC04120D8385CC04120D837B
:1015F300BFCC04120D8324CD04120D8366CD0412D7
:101603000D83ADCD04120D83DACD04120D8305CE07
:1016130004120D836BE404120D837DE404120D8325
:1016230091E504120D8394E504120D8341EA04123B
:101633000D8377EA04120D838FEA04120D83D1EA36
:1016430004120D83E1EA04120D8325EB04120D83CA
:10165300BDA704120D8300A804120D8365A804120C
:101663000D8384A804120D8326A904120D832FA9C8
:1016730004120D8380A904120D83A9A904120D83FA
:10168300B6A904120D8328AA04120D83B6AA041264
:101693000D83FBAA04120D8334AB04120D8399ABA3
:1016A30004120D83C2AB04120D8339AC04120D83F3
:1016B30088AC04120D83C5AC04120D83FAAC04127A
:1016C3000D830CAD04120D831EAD04120D833DADCD
:1016D30004120D8346AD04120D8307AE04120D836D
:1016E3004AAE04120D8388AE04120D83C1E50412C1
:1016F3000D8301E704120D83B5FF01120D83EED9AB
:1017030004120D8324DA04120D836CDA04120D83A0
:10171300C5DB04120D8378DE03120D839EDF0312F3
:101723000D83DADF03120D8398E103120D83C6E103
:1017330003120D8330E403120D8370E403120D834F
:1017430012E603120D83A8E603120D8302E70312C8
:101753000D8392E703120D83D6E703120D8318E876
:1017630003120D837DE903120D83FDEA03120D833A
:101773003EED03120D836CED03120D8398ED0312FE
:101783000D83A1ED03120D83FEED03120D8397EE7E
:1017930003120D83AEF103120D8334F203120D8392
:1017A300A3ED04120D83BBED04120D83C5ED0412EA
:1017B3000D831BEE04120D837F7B00120D83957B3B
:1017C30000120D83367C00120D83757C00120D838D
:1017D300927C00120D83C37C00120D83107D0012D6
:1017E3000D83447D00120D837F7D00120D837C7F6A
:1017F30000120D83E27F00120D8342E804120D8371
:10180300A1E804120D83DFE804120D8320E904121A
:101813000D83008002120D830C8002120D836E80F3
:1018230002120D83788002120D83078102120D8349
:10183300438102120D833C8202120D8399820212AC
:101843000D833E8302120D83BE8302120D838085B6
:1018530002120D83858702120D837F8802120D8386
:10186300B18902120D83038C02120D83468D02127D
:101873000D83EB8D02120D83999202120D838F93C8
:1018830002120D83259402120D834A9402120D83D2
:10189300E79402120D83049502120D83249502121C
:1018A3000D83929502120D83AF9502120D83DD9580
:1018B30002120D83759702120D83969702120D8300
:1018C3003C9802120D83849802120D83E29802124F
:1018D3000D83859902120D83EA9902120D83499AA9
:1018E30002120D83FB9A02120D836A9B02120D836F
:1018F300A59B02120D83199C02120D83649D021293
:101903000D83F49E02120D83939F02120D83D3A1C4
:1019130002120D8335A202120D8363A202120D83FC
:1019230086A402120D8330A702120D8343A802126C
:101933000D83949E04120D83A29E04120D83DD9FDA
:1019430004120D83F99F04120D831AA004120D8350
:1019530061A104120D8312A304120D8375A5041251
:101963000D8302A604120D833DA704120D831EE00E
:1019730004120D83CBE004120D836DE104120D8379
:10198300B4AE04120D8341AF04120D83BAAF041237
:101993000D8355B004120D8376B004120D834AB142
:1019A30004120D83C4B204120D8347C903120D83BD
:1019B30076C903120D83EEC903120D83FDCA031208
:1019C3000D8359CB03120D83C6CC03120D83E2CCD6
:1019D30003120D8334CD03120D8377CD03120D83D0
:1019E3008ACD03120D83E2CD03120D83A4CE03121D
:1019F3000D8320CF03120D8357CF03120D838FCF97
:101A030003120D8321D103120D8300D203120D8320
:101A13004ED303120D8331D403120D83BDD40312AD
:101A23000D83FDD403120D831CD503120D8367D5DB
:101A330003120D8387D503120D8320D603120D8362
:101A4300A6D603120D8301D703120D8341D70312C8
:101A53000D83D7D903120D83F0DA03120D8336DB1E
:101A630003120D832BDC03120D8353DC03120D834E
:101A730056DC03120D8360DC03120D837CDC03123E
:101A83000D83F6DC03120D832FDD03120D835BDD63
:101A930003120D8382DD03120D83A6DD03120D8372
:101AA30017DE03120D832ADE03120D8359DE0312A0
:101AB3000D8369EF04120D8375EF04120D83B3EFE9
:101AC30004120D83EF7F00120D8318B303120D83ED
:101AD3003BB303120D8388B403120D83D1B40312F5
:101AE3000D833DB503120D839BB503120D839EB584
:101AF30003120D83EFB503120D8364B603120D8336
:101B0300E9B603120D83ECB603120D836DB703120E
:101B13000D83AEB703120D839ABB03120D8344BD2D
:101B230003120D8394BD03120D831BC103120D8396
:101B33004EC203120D83C8C303120D8365C403127F
:101B43000D8350C503120D83A5C703120D834CEFFC
:101B530001120D83F6EF01120D8361F001120D8363
:101B63007CF001120D83E49004120D835BF10112EA
:101B73000D83A2F101120D8309F201120D8388F383
:101B830001120D83B7F401120D833FF501120D838A
:101B930048F701120D83F5F701120D8399F801122D
:101BA3000D836AF901120D8325FB01120D83BDFC20
:101BB30001120D8350FD01120D8376FE01120D8378
:101BC300008003120D83638003120D83AB80031225
:101BD3000D83EF8003120D834A8103120D83A781C6
:101BE30003120D83AED302120D83648203120D839D
:101BF300BE8203120D833C8403120D83BC84031243
:101C03000D83178503120D83318503120D835285CE
:101C130003120D83AC8503120D83288803120D83F1
:101C2300478803120D83378903120D836A8A0312CF
:101C33000D83E98A03120D83258B03120D83948B85
:101C430003120D83498C03120D83218E03120D831E
:101C5300288F03120D83A09003120D839692031213
:101C63000D830C9503120D83E69603120D83A7973C
:101C730003120D831F9803120D83369803120D83ED
:101C83002D9903120D83219A03120D83909A031247
:101C93000D8382D104120D83D9D204120D8398D3FC
:101CA30004120D8300D404120D835DCE04120D8340
:101CB30078CE04120D83BCCE04120D83E2CE04123F
:101CC3000D8309CF04120D8321CF04120D83C3CFDB
:101CD30004120D83D8CF04120D83FBD004120D839D
:101CE30004D104120D830DD104120D8316D10412F5
:101CF3000D8320D104120D8382BE04120D838EC284
:101D030004120D8393C204120D8395C204120D8332
:101D1300ABDE04120D832BF104120D83FCC20412FB
:101D23000D83DAFF02120D83E6EE04120D8310EF2A
:101D330004120D8364AC02120D8397AC02120D835F
:101D430003AD02120D839EAD02120D833BAE021250
:101D53000D8380AE02120D83A2AE02120D83BBAEC1
:101D630002120D83E1AE02120D8303AF02120D8343
:101D730041AF02120D8385AF02120D83A7AF02128A
:101D83000D8309B002120D83D0B002120D8387B107
:101D930002120D83F9B102120D83C4B202120D8334
:101DA30017B302120D837DB302120D83B7B3021270
:101DB3000D8309B402120D8377B402120D83E2B4CA
:101DC30002120D83E5B402120D8366B502120D8370
:101DD300FDB502120D837DB602120D839CB602126D
:101DE3000D8300B802120D830DB802120D8319B9C9
:101DF30002120D8326B902120D832FB902120D832D
:101E030007BB02120D8321BC02120D839ABC02127E
:101E13000D830CBD02120D832EBD02120D83C2BDB4
:101E230002120D8396BF02120D836DC302120D833E
:101E330081C302120D8391C302120D839BC302124D
:101E43000D83A4C302120D83ADC302120D83B7C366
:101E530002120D83E4C302120D830DC402120D831B
:101E630018C402120D833CC402120D8360C4021213
:101E73000D83CAC402120D8310C502120D832DC532
:101E830002120D83AAC502120D83E1C502120D834E
:101E930020C602120D836DC602120D83F3C6021211
:101EA3000D83C1C802120D8344C902120D8328CACF
:101EB30002120D838FCC02120D83E8CC02120D8324
:101EC30032CD02120D838DCE02120D83C2CE0212C9
:101ED3000D8314CF02120D83C9CF02120D8378D064
:101EE30002120D83B5D002120D834AD102120D8363
:101EF300B6D102120D83C22E00120D83F42E0012EE
:101F03000D83222F00120D83F83000120D83D83178
:101F130000120D83303200120D836B3300120D83D8
:101F2300B73300120D83E03600120D83D33900124C
:101F33000D83233B00120D83B93B00120D83C53B78
:101F430000120D83F73B00120D837A3D00120D83BF
:101F53002B3F00120D83BF3F00120D83024000127E
:101F63000D83804000120D839D4000120D83CD40F0
:101F730000120D83024100120D83D24100120D8322
:101F83007B4200120D83014500120D83214600128E
:101F93000D830C4700120D838E4700120D83C24B35
:101FA30000120D83FF4B00120D83574C00120D835B
:101FB3008A4C00120D83F44C00120D832A4D00123B
:101FC3000D83B54D00120D830D4E00120D83E44EAB
:101FD30000120D839D4F00120D83385000120D83A4
:101FE300405300120D835C5400120D83FF570012FF
:101FF3000D83F35800120D83F65800120D832559F3
:1020030000120D832B5B00120D83045C00120D8301
:10201300475C00120D839D5D00120D83DC5D001291
:102023000D83655E00120D83995E00120D835E5F62
:1020330000120D83766100120D83E76100120D8398
:10204300276200120D83B56200120D83D76300125D
:102053000D83996400120D83A06600120D83B86688
:1020630000120D83CC6600120D83046700120D83EA
:10207300326700120D83B16800120D83D669001216
:102083000D83336A00120D83E56A00120D830C6B16
:1020930000120D83D36B00120D836B6C00120D8342
:1020A300916E00120D83C66E00120D83296F00120C
:1020B3000D83587000120D83007100120D8331716E
:1020C30000120D83497100120D83D87100120D8324
:1020D3008C7400120D83647600120D8380760012D7
:1020E3000D839C7600120D836A7700120D835D7B4E
:1020F30000120D836A8501120D839C8501120D83E5
:102103008B8901120D83D78901120D831D8A011258
:102113000D83BF8A01120D831B8B01120D83608B0C
:1021230001120D83A78C01120D83BB8D01120D8348
:10213300AA9101120D832E9201120D833B9301127A
:102143000D83979301120D83879501120D83FC95DF
:1021530001120D83069601120D83139601120D834E
:102163003E9601120D83259701120D83CF9701121D
:102173000D834D9801120D836D9801120D8396986E
:1021830001120D83B89801120D83189B01120D8360
:10219300DE9B01120D83239C01120D83A09C01126F
:1021A3000D83519D01120D83839D01120D83C99DE2
:1021B30001120D83059E01120D83559E01120D839D
:1021C300A99E01120D83FF9E01120D834B9F0112E5
:1021D3000D83B89F01120D8333A001120D83FEA15D
:1021E30001120D83FEA201120D8323A401120D839C
:1021F30062A701120D8375AA01120D8332AB01127E
:102203000D8376AB01120D8326AD01120D833AAD1A
:1022130001120D8344AD01120D834EAD01120D83E6
:102223005AAD01120D8376AD01120D8321AE011259
:102233000D8360AE01120D836AAE01120D8374AE7D
:1022430001120D83E4AE01120D832FAF01120D8332
:1022530044B001120D83A0B001120D8321B101120C
:102263000D83E0B101120D83E9B201120D831DB498
:1022730001120D830BB501120D8323B501120D83DA
:102283007EB501120D839CB501120D83E4B50112D5
:102293000D830BB601120D83A6B601120D836CB725
:1022A30001120D83FEB701120D8378B801120D835D
:1022B30092B901120D833FBA01120D8367BB01125C
:1022C3000D83B7BB01120D831BBC01120D837DBCB3
:1022D30001120D83ABBC01120D83CFBC01120D8320
:1022E30004BD01120D8335BD01120D8368BD0112BA
:1022F3000D8388BD01120D83F0BD01120D83E4BE71
:1023030001120D833FBF01120D8368BF01120D83BC
:10231300F0BF01120D8373C001120D839EC0011221
:102323000D8383C101120D8393F203120D83CBF24C
:1023330003120D83ECF203120D832EF303120D83AC
:1023430090F303120D839AF303120D83AAF303127E
:102353000D83E5F303120D83C5F703120D83B2F961
:1023630003120D8398FB03120D832FFC03120D83BD
:10237300D1FC03120D8385C301120D8303C4011223
:102383000D835FC401120D83AAC401120D83C5C45A
:1023930001120D83F0C401120D830DC501120D83CB
:1023A30019C501120D83B0C601120D83C9C60112EE
:1023B3000D834EC701120D8361C701120D8380C7C0
:1023C30001120D8324C801120D83A5C901120D83C7
:1023D30058CB01120D83EECB01120D83F1CB011209
:1023E3000D8361CC01120D837FCC01120D8316CDB9
:1023F30001120D835ECD01120D8361CD01120D8398
:1024030027CE01120D8394CE01120D83BACE011291
:102413000D8345CF01120D8363CF01120D83A9CF25
:1024230001120D835DD001120D83A7D001120D831C
:10243300D6D001120D8333D101120D8368D101125D
:102443000D8394D101120D83A2D101120D83EFD11B
:1024530001120D835FD201120D83A8D201120D83E5
:10246300F4D201120D8320D301120D832BD3011259
:102473000D8349D301120D8334D401120D833ED44D
:1024830001120D8379D401120D8389D401120D83B6
:1024930092D401120D83E6D401120D83FAD40112F2
:1024A3000D8329D601120D8340D601120D8355D613
:1024B30001120D83E3D601120D8328D701120D8378
:1024C300B4D701120D83BFD701120D8301D90112B5
:1024D3000D831CD901120D8368D901120D83D7D93D
:1024E30001120D8310DA01120D832ADA01120D8312
:1024F3006CDA01120D833CDD01120D83E9DD01125B
:102503000D8356DE01120D8396E001120D83AEE0BA
:1025130001120D83B1E001120D83BDE001120D83A1
:10252300D1E001120D83D9E001120D830CE10112F8
:102533000D830EE201120D8395E201120D8305E373
:1025430001120D8387E301120D8348E401120D8309
:1025530067E401120D8308E501120D8365E501129D
:102563000D8368E501120D8395E501120D83AAE53C
:1025730001120D831EE601120D836DE701120D8317
:1025830073E801120D83FEE801120D8319EA0112AB
:102593000D83E1EA01120D8312EB01120D8335EB7A
:1025A30001120D833EEB01120D836DEB01120D83BE
:1025B300FDEB01120D83B3EC01120D8328ED011223
:1025C3000D83CFED01120D8344EE01120D837BEEDB
:1025D30001120D83B9EE01120D83EFEE01120D838B
:1025E300419004120D83418F04120D835A8E0412FD
:1025F3000D834A8C04120D83588B04120D83F68AC3
:1026030004120D8304B303120D83FAB203120D8374
:102613008FB203120D83C0B003120D837EB0031279
:102623000D830BD302120D83C5D202120D8382AF29
:1026330003120D8356AF03120D8390D202120D8342
:102643005DD202120D830DAF03120D834EAE031242
:102653000D833AAB03120D83FBA803120D83C8A8A5
:1026630003120D836FA803120D8302A803120D83B7
:10267300C1A703120D83FAA603120D8394A60312B6
:102683000D8333A603120D83D3A503120D83AAA4CE
:1026930003120D833EA403120D8396A303120D832D
:1026A30091A303120D8385A303120D83B89F031215
:1026B3000D83929F03120D8348D202120D831DD204
:1026C30002120D83D19404120D839D9404120D8381
:1026D300469404120D83B49204120D8306920412DD
:1026E3000D83309F03120D83D19E03120D83929E9F
:1026F30003120D837F9E03120D83699104120D83D0
:10270300749E03120D83439E03120D83309C0312A8
:102713000D83A39B03120D835F9104120D835F9BB3
:1027230003120D83E28103120D83339B03120D8386
:10273300868A04120D83598A04120D83268A041291
:102743000D83FE8904120D839F8904120D837F89F3
:1027530004120D834A8904120D83F68504120D8336
:10276300DE8304120D83C88104120D834881041291
:102773000D83F48004120D83A88004120D83F89056
:1027830004120D83008004120D8301F10100000087
:1027930080FBE4738F000100A11A870001009F1AD8
:1027A30035000400681A250002006C1A2600020096
:1027B3006E1A27000200701A280001007A1A2900F5
:1027C30001007B1A84000400031886000100211A0B
:1027D3002A0001007C1A2B0001007D1A2C00010045
:1027E300811A2D0008000F182E000100821A2F00F5
:1027F3000100831A30000100841A31000100851A98
:1028030032000100171833000100181834000100CA
:10281300861A36000100191838000100871A39009A
:102823000100801A830002009D1A6300010025182D
:10283300640001007E1A650001007F1A6D0001002B
:102843002618710008000718660001009C1A43004F
:1028530001008D1A440002008E1A45000100901AEF
:1028630046000200911A470008001D1848000100A5
:10287300931A4B000100941A04000100A01AA1004E
:102883000100A41A37000100A31A88000100A21A4C
:102893003C0001001A183D000100881A490002009B
:1028A300951A6700010027184D000200971A4E0081
:1028B3000100991A4F0002009A1A3E0001008C1A77
:1028C300510001001B18520001008A1A5300010035
:1028D3008B1A540001001C180000000000000700C0
:1028E30000003003F815070010003003E41507005B
:1028F30000003003F915070010003003E515070049
:1029030000003003FA15070010003003E615070036
:1029130000003003FB15070010003003E715070024
:1029230000003003FC15070010003003E815070012
:1029330000003003FD15070010003003E915070000
:1029430000003003FE15070010003003EA150700EE
:1029530000003003FF15070010003003EB150700DC
:10296300000030030016070010003003EC150700C9
:10297300000030030116070010003003ED150700B7
:10298300000030030216070010003003EE150700A5
:10299300000030030316070010003003EF15070093
:1029A300000030030416070010003003F015070081
:1029B300000030030516070010003003F11507006F
:1029C300000030030616070010003003F21507005D
:1029D300000030030716070010003003F31507004B
:1029E300000030030816070010003003F415070039
:1029F300000030030916070010003003F515070027
:102A0300000030030A16070010003003F61500011A
:102A13003636010100010201000103010001040136
:102A2300060605020000070100340801000F09042F
:102A330001010D0100FF0E0800001702000019013B
:102A430000FF1A0100011B0100FE1C0100081D020A
:102A530000001F01000120010001210200002301E9
:102A6300000F2402000026010001270100082802AC
:102A730000FF2A0100072B0102402C0100002D0159
:102A830000012E0100012F0100FF30010B1D310851
:102A930000003A0100083B01000F3C0100013D0129
:102AA30000FF3E04000042040000460400004A0404
:102AB30000004E04000052040000560400005A04B3
:102AC30000000000010020016985000002002001D0
:102AD30064850000030020016585000000002001DB
:102AE3006885000004004201728400000500420171
:102AF300488400000700300166850000FDFF2101C6
:102B03006085000006004201278400000040200188
:102B130069850100200020054F1A010021002005CE
:102B2300501A070000003003F715070010003003A8
:102B3300E31501037103010301030103010301030E
:102B43002203020301031003000300030003000335
:102B530000030003000342030003240306030003EE
:102B630000030403120325032303250323030403A0
:102B730004030003000300034403000300032303CF
:102B830000036503210035038103000305030003EC
:102B93000003000300032503230301017101010165
:102BA3000101110101013101010101018001100144
:102BB30061013B001400630173017201620143016F
:102BC3000001130106013D0135000401120100015A
:102BD30000010001000104010401330133013C0140
:102BE3004401320136000001000165010001350096
:102BF30081010001050182018301000103027102C9
:102C0300300160021102700201020202020280021C
:102C1300100261023A00410063027302720262020F
:102C230043020002130238000002000204021202EF
:102C3300000200020002000204020402370037000F
:102C43003C02440200023900000200026502000255
:102C530035028102000205028202830200020300A0
:102C63007100300160001100700031022003500434
:102C73008000100061000000140063007300720004
:102C8300620043000000130006000000000004007F
:102C930012000000000000000000040004003700E0
:102CA30037003C0244000000000000000000650003
:102CB30000003500810000000500000083000000D3
:102CC30036000100060000000F00000000000000B5
:102CD30000000000000003FFFF00000403FFFF00EB
:102CE30000FFFF0FF4010005C404032000010000EE
:102CF3000B000000000000000003010F00000000B3
:102D030000000000000000000000000000000000C0
:102D13000000000000000000000000000000F018A8
:102D23001A19F6183018FC182019FC182C19021956
:102D33003018FC18201908193018000000000E196B
:102D430030180000000000000000141930180000C3
:102D53000000000000000000000000000000000070
:102D63000000000000000000000000000000000060
:102D7300000000000000000000000000781B0100BC
:102D8300781B0200EE1A0280E81A0300F41A04000A
:102D9300FA1A0480001B0500061B0600121B3100F3
:102DA300241B33002A1B3400301BFFFF00000300E9
:102DB30003000400080010001F003E007B00F60023
:102DC300EC01D703AF075D0FB91E713D000007EC9F
:102DD300FDFDFDECDCDCCCBCACAC9C9C8C7C7C6C4D
:102DE3006C5C5C5C4C4C3C3C2C2C1C1C03EAF5E5F9
:102DF300D5D5C5B5A5959585857575656555554530
:102E030045353525251515050A6C21023621054260
:102E130021073C210C1E210D2A21FF000000160F63
:102E230000000B150B020002220F3300000E0F5A95
:102E33006967426565416C6C69616E63653039D061
:102E4300D1D2D3D4D5D6D7D8D9DADBDCDDDEDF30A7
:102E53003016181920231A1C1E3000034D4C4651FE
:102E6300181A25050200011916181616182303004F
:102E7300303017181921301B1D1F30003C40423AD7
:102E83003F3F392F47300C0E020B040B0A07080093
:102E93000F020402010101010902E803000000BE60
:102EA300040A0E0001000300E803FF04090E031ED9
:102EB3001E03100C04280828020C0508150A04C078
:102EC30082C0831211B2901850740EF0A3741FF0D5
:102ED3009018527414F0A3741FF0901854741AF0DD
:102EE300A3741FF09018567420F0A3741FF0025BB4
:102EF300FD74F7120829901844E4F0E9901843F0A0
:102F03007C1D7D187A457B1812180C901A93E0905B
:102F1300184DF090184E7407F0A37418023E8A748B
:102F2300F0120829EAFEEBFF5480700302309390FD
:102F33001843123F1F700302308CEA241B12578A76
:102F4300707CEA241F12578A64137002A3E0706E28
:102F53008A828B831230E190185E124D1C750A0031
:102F6300750B00800D123D60126DFC121710AA0E36
:102F7300AB0FEA4B60488A828B83E0650C7004A335
:102F8300E0650D702C8A828B83A3A3A3A3E0F50EC7
:102F9300A3E0F50FE50A450B8A828B83A3A3A3A3C2
:102FA30060C3124062850A82850B83A3A3A3A38017
:102FB300B78A0A8B0B8A828B83124D1880B4E5087B
:102FC300242A12578AFCE5082402F8E43509F9E8B3
:102FD300FAE9FB90185E1231C8A3A3E06402703CC7
:102FE3008A828B83124D1C800B88828983A3A3A3BF
:102FF300A3124062E849601F88828983E06A7003F4
:10300300A3E06B70E488828983A3A3E06C70DA90F9
:103013001A99125ABA806BECF9121F4A85088285F5
:103023000983E06401704FE50824181230CA120DB9
:10303300C11263A4120C27E50824121230CA120D20
:10304300C1E508123F13120DBDE508240B1263A856
:10305300120C2BE5082417123EB0E5082402FCE409
:103063003509FDE5082419FAE43509FB12276674CE
:103073000A120DD0800CE064027007AA08AB091293
:103083002028AA08AB09121674EEFAEF6480802D8B
:10309300EA5402600C901AAC7401F0EA6402FA80FC
:1030A30023EA5408601A121F44EA4B700B9018600D
:1030B30012627F7A081230D7EE6408FAEFFB8004BD
:1030C3007A007B00026A2EF582E43509F583E0F588
:1030D3000A780A22FB901843E0F91217DC22A3A313
:1030E300E0F50CA3E0F50D227B00901843E0F91204
:1030F30017D074042274F41208298A088B098A826F
:103103008B83A3A3A3124B14123EBB38F583E02495
:1031130009FA1269C670030231BB8A828B83740277
:10312300124B898508828509831231C8E8F0A3E927
:103133001266408A828B83A3A3A3A3A3A3A3A3F0B2
:10314300E5082403F8E435091231BD123EBB3AF514
:1031530083E08E828B83A3A3A3A3F0EE2409FAE476
:103163003FFB8E828F83A3A3125D6CF5838882E07D
:10317300A2E58E828F83A3A3A3A3A350047401802B
:1031830001E4F0E5082403F5828983124D1CEA1259
:10319300529D3BF58312698D120DB9123EBA3B1253
:1031A3005E5E8E828F83A3A3127B3C120DD0EEFA58
:1031B300EFFB901843126A138016F98882F583E0B7
:1031C300FAA3E0CA22124EB9A3A3227402120DD0AD
:1031D3007F04020B5C74F21208298A088B09ECFA4B
:1031E300EDFB740E1210D9E0FC1211E88A0C8B0D62
:1031F300AE0CAF0DEA4F6030AC08AD091211D6E941
:103203006026AC08AD09EEFAEFFB1211DCE970148D
:103213008E828F8312404FFAEFFB1211D0AA08ABB4
:10322300091212007900800279B4024E0874F01278
:10323300082974F6120E69EAFEEBFF8C088D0975F6
:103243000FB3852182852283E4F0750E0080020589
:103253000E902EB8E493F8E50EC39840030233575B
:10326300AA0E7B001212248A0A8B0BEA4B60E08AB7
:10327300828B83A3A312335E28F0F8C3EE98EF94F6
:103283000050CC7C157D007900AA08AB0912165CAE
:10329300850A82850B83A3A3A3A3126E39E0F8EEFC
:1032A300C3982925E0F8E433F9E50A28F582E50B0C
:1032B30039F583A3A3A3A3A3A3123EC5A31258E185
:1032C3008A0C8B0DAC0CAD0DAA08AB0912180C853A
:1032D3000A82850B83A3E06401700A1263A474015C
:1032E300123ED780447401120E61850A82850B83D6
:1032F300124D1A12120CE9603D74091210D9E0C084
:10330300E01263A4D0E0F074091210D9E0640370F2
:10331300137401120E61E508240BFAE43509FB125C
:10332300180C801274011210D9124062E508125869
:10333300C73509126DFA850A82850B831263B012B1
:103343003ED7A3A3E0C0E0E50824141263A8D0E0AD
:10335300F0750F00A90F740A026A2BA3A3A3E0F868
:10336300852182852283E02274F7120829E9FE8AE7
:10337300828B83A3A3A3A3A3A3E0540860338A820D
:103383008B83A3A3A3A3A3A3E0540260218A828B0C
:1033930083A3A3A3A3A3A3A3A3A3E06406600F74BF
:1033A300E96E600A74CD6E600574F06E7003121FCF
:1033B3002C02470774F012082974EF120E69740F78
:1033C3001210D912616374081210D9E9F0ECFEED02
:1033D300FF74051210D91244CF1246F3A3E0F91279
:1033E30011F474061210D912616374061210D91203
:1033F300532E7003023672123EFFE0FA7406121067
:10340300D9E0F9121E6C1236D2F8A3E0F9E849703C
:1034130003023672EE2403F50AE43FF50BEE2406AD
:10342300F508E43FF5097C00850882F583124D1CFD
:10343300850A82850B83E0F91211FA74031210D9FD
:10344300126163850A82850B83E0C0E08521828552
:1034530022831236CBD0E0125443F9852182852290
:1034630083123D67124F95123361FAA3E0CA240712
:10347300F582E43AF583E8F0A3E412616E2406F5DD
:1034830082E438F583E4126E06124B08120DB9EE8E
:10349300123EBB3F125E5E74031210D9124B14240A
:1034A30009127B36120DD074291210D9126E331201
:1034B30031C21254563A126DFA742B1210D9E0C06D
:1034C300E08521828522831252F5D0E0F074021246
:1034D30010D9E4F074251210D9780812108202353D
:1034E300C974031210D9125E268882F5831236BA84
:1034F300A3A3A31258ECFB121212850E82850F832D
:10350300A3EAF0A3EBF074031210D91236CBA31283
:1035130036BA125AFBA2E6500F850E82850F83A39B
:10352300A3A3A3A3E0D2E1F074051210D9E0706B5A
:10353300850E82850F83A312406290189EE0687007
:1035430003A3E0697055850E82850F83A3A3A3129D
:103553003E9A750C00780C120DC17808120DB574E3
:10356300291210D9E0F50C780C120DC17427121032
:10357300D9120C2B9018AB120C2B79007419121062
:10358300D9124CEC122070740A120DD0850E82856C
:103593000F83A3A3A3A3A3E04405F074021210D9DD
:1035A300E004FC8E828F83124D168E828F83A3A339
:1035B300A3E0F91211FA74031210D91261637402B1
:1035C3001210D9E004F074031210D912532E60675D
:1035D30074021210D9E0FA74061210D9124062C3B1
:1035E300EA98E499505174021210D91239A4852132
:1035F30082852283E028F8A3E039F9E8240FF50E49
:10360300E439F50F850E82F583E4F074031210D9C3
:103613001236C5640160030234E474051210D974D0
:1036230001126A19F074031210D9125BED1239C733
:10363300E8F0A3E9023508852182852283124D1C17
:10364300121E72852182852283120C2B742612107E
:10365300D9E0FD74251210D9E0FC740A1210D9E0E8
:10366300F9EEFAEFFB121F267402120DD080438E7F
:10367300828F83A3A3A3E0C0E0740C1210D9D0E01F
:10368300F0126882E0C0E0740D1210D9D0E0F0743B
:10369300061210D912532E7009740E1210D974B970
:1036A3008007740E1210D97410F07409120E591297
:1036B300206A7411026A2BE0850E82850F83A3A30F
:1036C300A322E012541BE022E012541BA3A3228581
:1036D3002182852283EAF0A3EB1253372274F0127E
:1036E300082974E1120E6974041210D9E9F0740305
:1036F3001210D9ECF074021210D9EDF08A0E8B0F70
:10370300742F1210D91230E3AA0CFB121E6074013D
:103713001210D9E9F0AA0CAB0D121E667401121037
:10372300D9E0700302399F852182852283E48015C5
:103733008E828F83A3A3A3A3A3E0D2E3F085218288
:10374300852283E004126971F8852182852283E052
:10375300C398400302399674011210D9E070030232
:1037630039968521828522831239A4E50C28F8E550
:103773000D39F9E8240FFEE439FF8E82F583A3A304
:10378300A3A3A3E0A2E040B5750800750A08750B72
:103793000074021210D9E060037508207C087D00D4
:1037A30079007405120E5912165C8E828F83E060C5
:1037B3003E9018EEE06401701AE508D2E3F508754F
:1037C3000B101239B41210D9E8F0A3E91257DF74C1
:1037D300FF807643080C750A0C8E828F83A31239FF
:1037E300BF126DFC74051210D974FFF0A3805A74D4
:1037F300041210D9E06009E508D2E6F508750A0A53
:103803008E828F83A3E064FE7003A3E0F4703074B0
:10381300121210D974041263CEF8741D1210D9E871
:10382300124B897412120E59121D8E7D007C007981
:103833000074151210D9AA82AB83121B60800B127D
:1038430039B41210D9E8F0A3E9F074071210D9E5DE
:1038530008F0123EF6C0E074091210D9D0E0F074FB
:103863000A1210D97401F07405120E5912202E7425
:10387300111210D9E06003023974740D1210D912B9
:10388300543E8E828F83A3A3A3A3F0740D1210D989
:10389300124B57E50AF0A3E50BF074031210D9E0BD
:1038A300C0E0124AE8D0E0125AFB60119018EEE033
:1038B300C0E0740D1210D9124B32D0E0F0740D1227
:1038C30010D9124062850C82850D83A3A3A3A3A301
:1038D3001239AD241C12615D126E161239AF125AE1
:1038E300AD391268A1C0E0124ACFD0E0126966C0B8
:1038F300E0740D1210D9124615D0E0126667C0E0CD
:10390300740D1210D912460BD0E0F0740D1210D9B9
:103913001239BF1239AD242A12615D850E82850FDB
:1039230083A3A3A3A3A3A3A3A3E0126156123EE51B
:10393300C0E01245F7D0E0F0740D1210D9124D1CFF
:10394300850E82850F8312697C2428F582E43B125D
:103953006DFA123EEE12698D120DB9125E57EA121C
:1039630060EF3B127B3A120DD07405120E591220F0
:10397300348E828F83A3A3A3A3A3E0D2E0F07411B8
:103983001210D9E0600302373374011210D9E01426
:1039930002373F7900AA0CAB0D121F32741F026A63
:1039A3002BE075F007A4F8A9F022A3A3124D20E899
:1039B300228E828F83A3124066740522E01239C7D8
:1039C300A3A3A322F8A3E0F9850E82850F83A32284
:1039D30074F012082974E8120E69E98521828522A0
:1039E30083F08A0E8B0F8A828B83A3A3A3A3A3A343
:1039F300A3A3E0F9121E8A8A088B09EA4B7003021B
:103A03003AB0E50E1252B1123F0E123EA585218245
:103A1300852283E06003023AB37C04850E82850F1E
:103A230083A3A3A3A3A3A3A3A3E0F9121E90EE4F22
:103A3300607B8E828F83A3A3A3A3124062740712B9
:103A430010D912629412406274091210D9124BB940
:103A5300C0E074111210D9D0E0126645A3A3A3A34A
:103A6300A3A3A3124062740F1210D9126DFC741237
:103A73001210D9E4126A21C8241FF582E438F583B1
:103A8300125E22C413135403FC70027C048E828FD3
:103A930083E0F97808120DBD742059FD744059F97B
:103AA3007403120E59121F267402120DD0026A29D2
:103AB3007C08850E82850F83A3A3A3A3A3A3A3A33B
:103AC300E0F9121E908B0BEA4B7003023A31EE4F72
:103AD30060DB852182852283E0F50C780C120DC111
:103AE300850882850983A3A3A3A3A3A3A3E0F50C5D
:103AF300780C120DC18A828B83A3A3A3E0FB8A8275
:103B0300850B831276598A82850B83E0FA8E828F26
:103B130083A3A3E0F912276C7402120DD0023A3585
:103B230074F712082974FA120E69E9FE7801790113
:103B33007F00800379000F124E98E0FCEFC39C5086
:103B430026EF75F007A4FC85F008AD08EA2CFCEB22
:103B53003DFD124487E0A2E050DA540C60D6E0A2A7
:103B6300E250D3780080CF8A828B83A3A3A3A3A33D
:103B7300A3E0703DE9A2E0400574016E70338A82D0
:103B83008B83A3A3A3A3A3A37401123E77E0C0E096
:103B930074031210D9D0E01244E6E0C0E0740412BA
:103BA30010D9D0E0F074051210D9E8125DC11220CB
:103BB3006A7406024704C082C0837901121F32026D
:103BC3005BFD74F4120829EA4B901AAC6019E4F017
:103BD3008A088B09F50AF50B7808120DB57A0212DB
:103BE30030EB120DD0800A7401F07A027B001230A0
:103BF300D80231D374F012082974F3120E697403D6
:103C03001210D9E4F0A3F090185E123EA5740112CD
:103C130010D9E4F0A3124B8E04F0901898E0A2E3BD
:103C23005003023CEA123E6B74091210D91210C2FF
:103C330074091210D978081210829018607808124B
:103C43000E3974051210D97808121073123D6E7470
:103C5300051210D9780812101650077A017B00025A
:103C63003D5B74051210D9780C121082901A98E0FB
:103C7300F509780C79081207BAA80CA90D901A99BE
:103C8300E0C398E4995003E08001E885218285220E
:103C930083F074091210D97808121082C008C00981
:103CA300C00AC00B74051210D9780C121082123D91
:103CB3006E780C79081207BAE4F50AF50BD00FD029
:103CC3000ED00DD00C780C7908120F119018607873
:103CD3000C1210738011123D60126DFCEEFAEFFBB3
:103CE300121710AE08AF09EE4F60658E828F8312F4
:103CF300335EC398502DEE2403F8E43FF9E0FA88CD
:103D0300828983E0C39AF0602374031210D91241AD
:103D1300C874011210D9EEF0A3EF1262AFFEA3E054
:103D2300FF80C48E828F83A3A3A3E4F08E828F834C
:103D3300127AF374011210D912532E8E828F83A339
:103D4300A3A3A360911262881210D9123D678089E0
:103D530074031210D9124D1C740D026A2B124066A3
:103D630090185E22125E4DA3A3A322901A97127A93
:103D7300FBE4F50AF50B2274F01208298A088B0973
:103D8300890A7800790090185E123EA5FBEE4B601D
:103D93001E088E828F83A3A3A3A3124CE660100890
:103DA300E87001098E828F83123EA1EA4F70E3907F
:103DB3001A9A124D1CC3E89AE99B4003023E5E7AAD
:103DC30006123E61A80CA90DEA497003023E5E8A01
:103DD300828B83E508F0A3E509123E80E50AF090A3
:103DE3001A99124EA0123E77A3E4F0A3F090185E46
:103DF300124CE6600D8E828F83A3A3A3A3126DFCE6
:103E0300801790185E126DFC901898E0A2E34009A9
:103E1300123E6B9018601210C2901898E0A2E35003
:103E23003A7A087B00901843E0F91217E2EA4B4C08
:103E33004D7028901A97E0F508A3E085080CF50D5E
:103E4300E4F50EF50F780C120DB57A087B00901887
:103E530043E0F91217D67404120DD0026A2E7B00C8
:103E630012170A8A0C8B0D221217F4EAF8EBF9ECFD
:103E7300FAEDFB22123E7B22123E80A322F08A82BD
:103E83008B83A3A322E508F0024707F08E828F837A
:103E9300A3A3A3A3A3A322125798A3A3F022A3A38C
:103EA300A3A3E0FEA3E0FF227F05020B5CF582E4FF
:103EB3003509F583E0F922EA123EBF222410F58288
:103EC300E422123ECDA3A3A3A32212406A85088253
:103ED30085098322123EDB22F0850A82850B83A3A8
:103EE300A322E50E2411123F0BE022E50E240E124D
:103EF3003F0B22E50E2410123F0BE022123F032258
:103F0300EE123EBF3FF58322F582E4350FF583229F
:103F1300240FF50AE43509F50B780A22E0F91216A5
:103F2300868A088B09EA4B2274F2120829890B8AC4
:103F3300088B098A828B83124D1C121F56EA4B6031
:103F43000479B8806A121F62E9F8902EB5E493F9F8
:103F5300E8C399400479B280567A15123E61AE0CDB
:103F6300AF0DEA4F7004791080458A828B83E4F0A9
:103F7300A3123E80E50BF0750A007808120DB97C98
:103F8300127D00EA2403126938120DD090186412CE
:103F9300532E7008901864800C12406288828983C3
:103FA300123FB570F4EEF0A3EFF0121F7479000224
:103FB3004E08124D20EA4B8882898322C082C08337
:103FC30090186480048C828D8312765AEC4D60289D
:103FD3008C828D83A3A3E069600574FF6970E68C0E
:103FE300828D83A3A3A3E06A7003A3E06B70D6EC76
:103FF3002403FAE43DFB80047A007B00025BFD743A
:10400300F7120829E9FD74FE6D70047C0180027CBF
:104013000090186480096D70027C01888289831284
:10402300532E601F88828983A3A3A3E06A7003A32E
:10403300E06B70E7ECA2E088828983A3A3E050D60B
:10404300F9800279FE024707EEF9800CA3A3127AE6
:10405300FBEE227402120DD07F02020B5CF5831279
:1040630040662212406A22E0F8A3E0F92212406A75
:104073008E828F8322120DD07F03020B5CC082C01D
:10408300837900901864800109E0FAA3E08A82F53D
:1040930083E582458370F1025BFD74F6120829E41F
:1040A300F508F5097808120DBD902EB5E49375F067
:1040B30013A4A9F01241BD126E5A120DD0E9FE7479
:1040C300096E7003121F6E02404B74F612082974B6
:1040D300FE120E69852182852283E4F0A3F0A821D4
:1040E300A922880889097808120DBD750802750987
:1040F300007808120DBD126ACB120DD0024056741F
:10410300F512082974EB120E69852182852283E456
:10411300F0A3F090186480748E828F83A3A3E0C011
:10412300E074021210D9D0E01257DFA982AA838962
:10413300088A09750A007808120DB97C127D00748B
:10414300061210D9126E1F120DD07402120E51886E
:104153000889097808120DBD7508137509007808D8
:10416300120DBD74041210D91252D175F013A4F8B4
:10417300AAF075F013E91241B9126AD3120DD08572
:1041830021828522831241C88E828F83123EA5EE3F
:104193004F7085A821A922880889097808120DBDC6
:1041A3007508027509007808120DBD126ACB120D4D
:1041B300D07415024078A42AF9E82402FCE439FDFE
:1041C3007A427B0022E02401F0A3E03400F0227461
:1041D300F412082974EB120E697E007F00A821A94E
:1041E30022880889097808120DBD7508028E09789E
:1041F30008120DBD7C007D007A42126E66120DD04E
:10420300E9706C8E0880567402120E51880A890B6D
:10421300780A120DBD750A13750B00780A120DBDCD
:10422300E50875F013A4F8AAF075F013E509124137
:10423300B9126E68120DD0E9701B74031210D9AA5B
:1042430082AB8374021210D9E0F9121F50E9700592
:104253000EEE70010F0508E508700205098521823D
:10426300852283124062C3E50898E509994098EED8
:10427300FAEFFB74150231D074F61208298C828D83
:1042830083A3A31244D4F0EA1260F53BF583E0C0A4
:10429300E0124491D0E0F0EA241DF582E43B1240A1
:1042A300601244751244CFF0A3F0EA241FF582E4B0
:1042B3003BF583123EA5EC1244683DF583EEF0A373
:1042C300EFF012446E3BF58312449FA3A3A3A3A371
:1042D300A3EEF0A3EF125D50FE8C828D831244DEB9
:1042E30074035EFEC39403400302445BEE600874F0
:1042F300026E60030243808C828D83E0540CFE7453
:104303000C6E70030243BFE0A2E4400D88828983F0
:10431300E08C828D83A31244F474086E600302431D
:10432300BF12447F7401F08A828B83A3A3A3A3A348
:104333001257A570148C828D83E0440C1244E6A3BB
:10434300A312449FEEF0A3EFF08C828D83E0A2E4EE
:10435300402B88821244AD1244C2500109F58212E7
:1043630044ADA3A3A3A3A3A3F0A3EF1244EE8C82B3
:104373008D83A3A3A3F0E82403F85001098882895D
:1043830083E0C0E0EC2411F582E43DF583D0E01234
:1043930044DE8C828D83E0A2E7507588828983E0B6
:1043A300FE8C828D831244F474FC5E700C8C828DBF
:1043B30083A3E054036403701E02445B12447FE44E
:1043C300F0740C6E600302432A88821244B31244D1
:1043D300C250010902434C8C828D83A3E0540360D5
:1043E3003288828983E0C0E0EC1244993DF583D0A2
:1043F300E01244F58C828D83E054036402701488C8
:10440300828983E0C0E0124487D0E01244F5800340
:10441300A3E4F0EC12529D3D126DFAEC2410FEE47D
:104423003DFFEA241DF582E43BF583E0F5088E8227
:104433008F83E0C3982508F508F0EA2417F8E43BD6
:10444300F98882F583E0C39508C0E0124475D0E093
:10445300125D50C39508500A124475E4F01244915A
:10446300E4F002405B2415F582E422EA240DF58290
:10447300E422EC240DF582E43DF58322EC1254563C
:104483003DF58322EC2414F582E43DF58322EC12FE
:104493003EBF3DF583222413F582E422E0FEA3E030
:1044A300FF8C828D83A3A3A3A3221244B3A3A322CD
:1044B3008983E0F508A3E0FFE5088C828D8322A3BE
:1044C300A3A3A3F0A3EFF0E82402F8221244D4A399
:1044D30022E4F08C828D83A3A3A3221244FCA8823E
:1044E300A98322123E7BA3A3A3A3221244FCA3E02D
:1044F30022A31244FC08A98322125D59A32274F457
:1045030012082974F3120E698A0A8B0BECFEEDFF75
:104513008C82F583E0540CF508E0A2E75006E50829
:10452300D2E7F508E508D2E1F5081257A57006E5CC
:1045330008D2E4F508E0A2E55006E508D2E5F5085F
:104543007C087D007900AA21AB2212165C7402124A
:1045530010D9E508126E00C0E074031210D9D0E040
:10456300124B8EE50AF0A3E50BF074051210D91275
:10457300666C1210D9E0707774081210D9124B14BC
:10458300125D4238126687C0E074081210D91246D1
:1045930015D0E0126667C0E074081210D912460BFA
:1045A300D0E0F074081210D9124601E0124B3C120D
:1045B3004BBD126156EE2411125771C0E01245F73C
:1045C300D0E0F0EE2414125771C0E074081210D931
:1045D300124B142435F582E438F583D0E0124B6195
:1045E300C0E074081210D9124B18D0E01263C074E3
:1045F3000D0231D0E82432F582E439F583221240EA
:1046030070A3A3A3A3A3A322124B2812686638F5B1
:104613008322124B282426F582E438F5832274F78B
:104623001208297E008A828B83A3A3A3A3A3A3A337
:10463300A3A3E0640460030246E312544EE0600364
:104643000246E31252B03B12532C70030246E38836
:10465300828983E0540360030246E3E81254563927
:10466300F583E0FA8C828D83A3A3E0FBA3E0CB2444
:1046730011F582E43BF583E06A706588828983A340
:10468300A3A3A3A3A3A3A3A31246E7E06A7003A370
:10469300E06B704C88828983A3A31246F3E0FFA3E7
:1046A300E0CF24061257716A7003A3E06B70318860
:1046B300828983A3A3E0F88C828D83A3A3E0F9A36B
:1046C300E0F5838982A3A3E06860138C828D83A3C2
:1046D300A3A3E0F5838982E0540C640470027E0195
:1046E300EEF980201246EB22124D248C828D832218
:1046F300A3A31246EBA3A322740C1210D9E0F974FE
:104703000D120DD07F01020B5C74F612082974FCA4
:10471300120E69EAFEEBFFECFAEDFB8C82F583A344
:10472300E05403601690185A12532E60597900EE24
:10473300FCEFFD125F4D122795804B852182852268
:1047430083EEF0A3EFF074021210D9124B83AC2165
:10475300AD227A8C7B1F1221B48A088B09A808A981
:1047630009EA4960218A828B83A3A3A3A3A3A3A3FA
:10477300A3A37406F07A0088828B83124B14126110
:1047830016E0F9122112740402405874F212082937
:1047930074F3120E69EAFEEBFF8A82F583A3A3A3E7
:1047A300A3A3A3A3A3A3A3E0F50A901AACE0700507
:1047B30079BA024ACC750801750900750C00750DAC
:1047C300007C087D007900AA21AB2212165C7405D7
:1047D3001210D97401124B96540460127402121011
:1047E300D9E0D2E6124B9654087003750803E054DF
:1047F30010600674404508F508E05408602274020E
:104803001210D9E044C0124B965420600A7403126C
:1048130010D9E0D2E0800874031210D9E0D2E1F09D
:10482300EE2415125771124AFC7003740169700665
:1048330074084508F5088E828F83A3A3A3A3A3A3BB
:10484300A3A3E0701612220E8521828522831261B2
:104853006374021210D9E0D2E28030640F701074D6
:10486300021210D9124B9E74044508F508807F8EFE
:10487300828F83A3A3A3A3A3A3A3A3E064028E8233
:104883008F83700A126E33E8F0A3E9F08060A3A36C
:10489300A3A3A3A3A3A3E06403700DAC21AD22EEF5
:1048A300FAEFFB121FC280468E828F83A3A3A3A3BA
:1048B300A3A3A3A3E0640170359018EEE060107425
:1048C300021210D9124B9E750910750AFF801874D5
:1048D300021210D9E0440C124B8E74FDF0A374FF46
:1048E300F074044508F5088E828F831230E3EE24BA
:1048F30015125771A2E0503F74021210D9E0540C04
:10490300701B8E828F83124D1C121C2CE97005794B
:10491300BB024ACC74021210D9E0D2E5F0EE2415A2
:10492300125771A2E0501074021210D9E0540C64B3
:10493300047004E0D2E5F0EE2411125771C0E07464
:10494300041210D9D0E012666E1210D9E06003028F
:104953004AC574081210D9124B57E508F0A3E509AC
:10496300F0124AF2E0C0E0124AE8D0E0F0124AD96D
:10497300E0C0E074081210D9124B1412449938F5B0
:1049830083D0E0124BBD640170119018EEE0C0E0DB
:1049930074081210D9124B32D0E0F074081210D9F7
:1049A300124B52124AE3FAE8241CF582E439F583E8
:1049B300EA124B89EE2415FAE43FFB8A82F583124F
:1049C300765AE8125AAD39F583124B83EE241C1242
:1049D3005771C0E0124ACFD0E0125BF3124AFC7069
:1049E30003740169701374081210D912543EFAEE5D
:1049F300241D125771F9121E968E828F83A3A3A3CF
:104A0300A3A3A3A3A3A3E0C0E074081210D9124682
:104A130015D0E0F074081210D912460BE50AF074B1
:104A2300081210D91252D12428F582E439F583E50E
:104A33000CF0A3E50D124B69124B3C1257EA1261BD
:104A430056EE124AE3C0E0E82433F582E439F583F5
:104A5300D0E0F0EE241B125771C0E074081210D995
:104A6300124B18D0E0F0EE241A125771C0E074080C
:104A73001210D9124B142432F582E438F583D0E0B6
:104A8300124B61124B08120DB912686C12765A74EC
:104A93000B1210D9124B14242F127B36120DD0EEA9
:104AA30024151257715440601290187A12532E60D5
:104AB3000AAA21AB22125F4D122795AA21AB22121B
:104AC3002034740C1210D9E0F9024E03E82420F5C7
:104AD30082E439F58322EE2419F582E43FF583223B
:104AE30012687BE022E82412F582E439F58322EE92
:104AF3002418F582E43FF583225480F8A3E054019F
:104B0300F974806822F508A3E0F509750A007808AE
:104B130022124B2822124B282434F582E438F583E1
:104B230022A3A3A3A3124B2C22E0F8A3E0C82212D2
:104B33004B2812446838F58322FAA3E0FBE8242AC1
:104B4300F582E439F583EAF0A3EB22A3A3A3A3122E
:104B53004066EE221252D51252B539F58322F0EE99
:104B630024131257F222F0EE240D1257F222E0FC26
:104B73008A828B83E02CFCA3E03400FD8A828B8342
:104B8300ECF0A3EDF022F0A3E4F022F0852182857E
:104B9300228322F0EE24151257F222E0D2E3F01220
:104BA3004BA6228E828F8312406A852182852283BF
:104BB300E8F0A3E9F022E8F0A3E91262A9E0227485
:104BC300F71208298A828B83A3E0640170047E6351
:104BD30080027E648A828B83E060087905124BF63B
:104BE30024F3FE901896E06007F9124BF624F2FEC8
:104BF3000246E31220DCE9F8EEC3982274F61208A9
:104C03002974FE120E69852182852283126163E96C
:104C1300FEECFAEDFB90038112532E6032A821A91A
:104C230022880889097808120DBD7D01740E1210BF
:104C3300D9E0FCEEF99003811261371227957402D3
:104C4300120DD0EA4B60047900800679B2800279B4
:104C5300B602405674F7120829E9FE901850125311
:104C63002E601F74091210D9E0F5087808120DC1DF
:104C7300EEF99018501261371227957401120DD076
:104C8300800279B602470774F71208298908ECFEF7
:104C9300EDFF79B5E508245E602014600624F86012
:104CA30034803D900383124CE66035126E771227F1
:104CB300958E828F83126163802490185212765AE4
:104CC300EC4D601CEEFCEFFD901852126137122779
:104CD30095E9F9800B90184E124CEC12180C7900E0
:104CE300024707124D20EA4B2212765EEEFAEFFBE3
:104CF3002274F7120829E9FE79B574AB6E700B9034
:104D0300184E124D1C12180C79000247078E828F21
:104D130083A3A3A3A3A3A3A3A3124D2022124D24D1
:104D230022E0FAA3E0FB2274F1120829EAFEEBFF6A
:104D33008C0A8D0B75080190189EE06E7003A3E03A
:104D43006F700C124DF7AA0AAB0B12180C805E128F
:104D53002214EE6A7002EF6B7009AA0AAB0B1222DF
:104D63001A804AAC0AAD0BEEFAEFFB121D6AE9F5A5
:104D730008901A9FE070361226A0E97030E508709B
:104D83002C90186EE06E7003A3E06F7020EE4F60FE
:104D93001C750C66750D18750E00780C120DB97C18
:104DA300087D00AA0AAB0B126E23120DD0A90802CC
:104DB300775674F2120829EAFEEBFF8C088D097509
:104DC3000A01124DF7EEFAEFFB121806E9640170BF
:104DD3001190189E124062850882850983126DFC2A
:104DE300800EAC08AD09EEFAEFFB121D70E9F50A6F
:104DF300A90A80111222088A0C8B0DAC0CAD0D226E
:104E0300740D120DD07F06020B5C74F6120829EAAA
:104E1300FEEBFF7A0D7B0012170AEA4B6062EE2469
:104E230024126B00F0EE2425126B00A3124EC51260
:104E33006B06A3A3126899124EA0F0EE124E8612CF
:104E43004EB5E8F0A3E9124EDC124EAD126DFCEE46
:104E5300124E8F12695CA3A3A3A3F0EE243312575F
:104E630071C0E0124E98D0E012668B124EADA3A330
:104E7300A3E8F0A3E9124ED4C0E012544ED0E0F000
:104E830002405B242AF582E43FF58322242EF58237
:104E9300E43FF58322EA1258C73BF58322124EA45E
:104EA30022E08A828B83A3A3A3221269BBA3A3A3B9
:104EB300A322124EB92212406A8A828B83A3A3A330
:104EC300A322F0124ECA22EE2426F582E43FF58394
:104ED30022F0EE24321257F222F0EE242C1257F273
:104EE3002274F412082974FE120E69ECFEEDFFEC35
:104EF300241612577164057010EC2406FCE43FFD80
:104F0300121FBCE97003024F90AC21AD22126BB5A6
:104F1300121C3285218285228312532E606B8E826E
:104F23008F83E064017058E875F009A4F8AAF0755E
:104F3300F009E9A42AF974C728F8740539F9E8FADD
:104F4300E9FB8882F5837808121082EE1250321240
:104F530010164027852182852283124B5212577FD8
:104F6300124F9578081210829084B87808120F4D6A
:104F73008A828B837808121073800A79A28010EEDC
:104F8300240F126DF67900800679A1800279C80298
:104F930031CE124BB3EE1268872274F21208298ABB
:104FA3000C8B0DECFEEDFFEC12577FE4F0A3F090B9
:104FB30084E07808121082EC125032120E9560676A
:104FC300EC240E125778703478B3901895E070285B
:104FD3009018C7E064017020EC2411125771F91284
:104FE30020C48B09A909EE1252B13F126161EA494B
:104FF30060047800800278A18808802EE060046451
:1050030002700A121FCEE9F5087007801DE06403E1
:105013007010EEFCEFFDAA0CAB0D121C56E9F5085F
:1050230080087508A180037508A3A908024E081219
:10503300688778082274F012082974F5120E69EA59
:10504300FEEBFFEA240AFCE43F8C82F583127AF735
:105053001252BB7403120E618A828B83125F57E96B
:1050630070030251217401120E617403120E59125E
:105073001C3274011210D912532E7003025121E80D
:1050830075F009A4F8AAF075F009E9A42AF974C324
:1050930028FC740539FDE508240E1263A8E4F00426
:1050A3001210D9124062E5081252B13509126DFA95
:1050B3008C828D831210B6E50824121263A8121095
:1050C300C29084B878081210828C828D837808127B
:1050D3000FAC8C828D83780C1210829084CC78086C
:1050E300121082780C79081207BAE5084509450AB7
:1050F300450B702A74011210D91252D175F009A40C
:10510300F8AAF075F009E9A42AF974CB28F582749A
:105113000539F5837401F07A007B081252DE8E8222
:105123008F83A3A3A3A3A3A3A3A3A3A3E02406FC06
:10513300A3E03400FD8E828F83125F57126679607D
:105143003EEE240A1252A3124B577468124B89E89D
:1051530012529D39F5837402F09018801210B68CA8
:10516300828D83126150125D423CF5831210C2900E
:1051730084B878081210829018807808120FAC1245
:105183005319705D90184E1252C9A3A3A3A3A3A3EE
:10519300A3A3A3A3125D78121806E97010125D365B
:1051A30090184E125D48700512667960348E828FB6
:1051B30083A3A3A3A3A3A3A3A3A3A31252C9124D7F
:1051C3001C121C5CE960118E828F83A3A3A3A3A38B
:1051D300A3125305E4F0A3F08E828F831252EBE403
:1051E300F012531960030252988E828F83A3A3A3F4
:1051F300A3A3A3127AF3901895E0600302528D9053
:1052030018C7E06401600302528D750A3A750B00FA
:10521300780A120DBD7402120E51880A890B780A9E
:10522300120DBD1270F2120DD0E9705BE508240E69
:105233001263A87401125333C0E0E508241112630A
:10524300A8D0E0F0E508240F1263A8743A124B8942
:1052530090187C1210B6E50824121263A81210C22B
:105263009084B8780812108290187C7808120FACDA
:105273009084B8780812108290187C7808120E95E2
:1052830070081252DA80031252BB125319700612BD
:105293005C3974A1F0740B026A2B240EF582E422AC
:1052A300F8E43FF9E8FCE9FD8882F58322EA12522B
:1052B300B522240FF582E422E5081252B53509F52B
:1052C30083E4F0A3F02212765E8E828F8322125241
:1052D300D52212406AE8227A007B02901727E0F970
:1052E3001216B0228A828B83A3A3A3A3A3A3A3A38F
:1052F300A3A31252F922124B2C240EF582E438F5A3
:105303008322A3A3A3A312530D22124B2C240FF524
:1053130082E438F583228E828F83A3A3A3A3A3A35E
:10532300124B24240FF582E438F5831252D5492217
:1053330012533722F0852182852283E02274F612EC
:105343000829EAFEEBFF7A237B0012170AEE240AF0
:10535300F508E43FF5098508821261617C237D002D
:10536300790012165C85088285098312532E700317
:10537300025401EEFAEFFB121FDA12531960748E16
:10538300828F8312543464018E828F83A3A3A3A3D9
:10539300A3A3700712542A740E802112532E701087
:1053A300126679700B8E828F83A3A3E0A2E050076D
:1053B300125420740D8005125420740512668B5408
:1053C30003640170071254087405800B901896E06B
:1053D300C0E0125408D0E0125443F5838882125778
:1053E3009E850882850983124B141260F538F58374
:1053F300E9800E8508828509831261DA80031261D0
:105403001DF002405B8E828F83A3A3A3A3A3A3A358
:10541300A3A3A312541A22E012613CA3228E828F0B
:1054230083A3A3A3A3A3A3124B241260FB38F58386
:1054330022A3A3A3A3A3A3A3A3A3A31252F9E0228A
:1054430012544722126BCAF8A3E022EA1254563BC5
:10545300F58322240CF582E42274F112082974E402
:10546300120E698A0C8B0D8C088D097A237B00122E
:10547300170A8A0A8B0BAE0AAF0BEA4F7003025767
:1054830059126101E508241512578A687003A3E0D5
:10549300698E828F837004740280027401F0E508C0
:1054A300240DF8E43509F98882F583E0FAC3E49A18
:1054B300FA95E0FB1257862AFAA3E03BFB8E828F14
:1054C30083A3A3A3A3125D5F8E828F83A3A3F0EEB6
:1054D3002420F582E43FF583E4F0EE2421F582E411
:1054E3003FF583E4F0EEFAEFFB12208E8508828508
:1054F30009831257A570098E828F83A374058006D2
:10550300901896125793F0EE2417F50AE43FF50B23
:105513008E828F8312579EE9850A82850B83F0EE74
:105523002416F8E43FF9E508240EFAE43509FB886C
:10553300828983124B71E5082410FAE43509FB854F
:105543000A82850B83E0FC88828983E0F88A828B58
:1055530083E0C398C39CF81257DFF0EEFCEFFDAA7B
:105563000CAB0D121FD4E9F50B8E828F83E064021E
:105573007006125D36125763E50B600302575075D0
:105583000C00750D00901A9FE064016005E0640251
:10559300703F1257756008EE242112577870328ECF
:1055A300828F83A3A3A31261231257ABEE24161297
:1055B30057711257D4FAE439FB123E63EA4B601178
:1055C300126985120DB91257B9AA0C126E23120D66
:1055D300D0EEFAEFFB12209AE9F50B901A9FE064E4
:1055E300016008E064026003025743E97003025755
:1055F30043E50C450D70030257508003850E0B12D3
:105603005775600BEE2421125778600302574985C2
:105613000B0E850C08850D09750A007808120DB963
:105623001257B98E828F83A3A3A3A3127B3C120DBF
:10563300D0EE2420125771600D12577E7468124BFE
:1056430089EE24208015EE2421125771601512571C
:105653007E7403F0A37401F0EE2421F582E43FF598
:1056630083E4F0EEFAEFFB12209AE9F50B70907CDD
:10567300137D0079007409120E5912165C741A1204
:1056830010D974011257EA64687002A3E0704F8E58
:10569300828F83125305E0640560030255FF7C0883
:1056A30079FF8E828F83A3A3A3A3E0242A125D7BB9
:1056B3001216E6E970030255FF7C087D0079FF743A
:1056C30001120E5912165C7401120E617A007B00EE
:1056D30079AB121FB674191210D974FC80151257C6
:1056E3007EE064037004A3E064017008741912106F
:1056F300D974FFF0E4F508F5097808120DBD7402BA
:10570300120E6174131210D9AA82AB831262601253
:105713000DD0852182852283E0602B7409120E51FE
:10572300880889097808120DBD7508137509007872
:1057330008120DBD7C007D00126AD3120DD08006C5
:10574300E50C450D6007AA0CAB0D121710EEFAEF2E
:10575300FB1217108003750B10A90B741C027753EF
:10576300EE2406FAE43FFB12180C22EE240C125727
:10577300F222EE24201257F2640122EE1252B53FB8
:10578300F58322E508240EF582E43509F583E0224A
:10579300125798A322E08E828F8322A3E0F912206E
:1057A300DC22E054036401221257AF22E0FAE82A14
:1057B300F8E43400F9228E828F83A3A3A312612716
:1057C3001257AFEE24161257F21257D4FCE439FDE8
:1057D30022FAE82AF8E439F9E82404221257E322EA
:1057E30012669AA3A3A322F01257EF22EE240FF519
:1057F30082E43FF583E0227901020D8074F41208FC
:1058030029EAFEEBFF8A82F583A3A3A3A3A3A3A3A1
:10581300A3124B142424F582E438F5831257A570A0
:105823002E8A828B8312543470251258CDE064057E
:10583300701D1258CDA3E0F8740168600574066802
:1058430070071252E7740280051252E77403F0EAFC
:10585300240A1261CE126137E4F0EA2408F8E43F27
:105863001231BD2431F582E43AF583E0C0E0126ED3
:105873006EA3A3D0E01258ECCA242EF582E43AF5C5
:1058830083E0C0E0126E6EA3A3A3D0E0125E12C841
:105893001258C738124060126E6E1258E18A0A8B92
:1058A3000BAC0AAD0B850882850983125D7812184B
:1058B3000C850882850983124D1C12209A1261C936
:1058C300F00231D3240BF582E4228A828B83A3A3D3
:1058D300A3A3A3A3A3A3126660F583888222A3A331
:1058E300A3A3124BB312220822125D54FAA3E0229F
:1058F3000257FAC082C08390187074E0F0A3741F3B
:10590300F090187274ECF0A3741FF090187474F292
:10591300F0A3741FF090187674E6F0A3741FF002DE
:105923005BFD74F4120829EA2408FEE43BFF8E822F
:10593300F5831252D112610DE0F50874035508F591
:1059430009125D73F8A3E08882F583E508F0A3A844
:1059530082A983E5096009740265096003025A128A
:10596300740C5508FC600A74086C600574046C7050
:1059730026740265097006E508A2E4401A8A828B40
:1059830083A3A3A3A3A3A3A3A3125B181268663DD7
:10599300125AB3A308A983740C6C701C125B1424F1
:1059A30028125B002428F582E43DF583A312649456
:1059B300F0E82402F8500109740265097006E5084D
:1059C300A2E4404B125B14242A125B00242AF582C2
:1059D300E43DF583A3125AC2125B1E126494125B58
:1059E3001EA3125ABAE82404F8500109EC600F749C
:1059F300086C600A740C6C600574046C701112619D
:105A0300442426F582E43C125AB3A3A882A9838ACC
:105A1300828B83A3A3A3A3A3A3A3A3125AE2540336
:105A23007014E508A2E1400E126144125AAD3CF530
:105A330083E054806008125AC8125AB5801990182E
:105A430044E0C0E0125AC8D0E0125AF58882898334
:105A5300125AF504125D59A3A882A983E508A2E7A7
:105A630050458E828F83125AE288828983125AFBB1
:105A7300125AE7540360301261442434F582E43C43
:105A8300126492F0E508A2E1501D8A828B83A3A3DE
:105A9300A3A3A3A3A3A31231C22435F582E43A122C
:105AA3006492A3F0E824030231D3241EF582E42296
:105AB300F583125AC2F022125AC2A3A3A3F022E022
:105AC30088828983228A828B83A3A3A3A3A3A3A30C
:105AD300A3E0FCA3E0CC2432F582E43CF58322E08E
:105AE300125AE722FCA3E0CC2425F582E43CF5839B
:105AF300E022F0901844E022126696E022F582E458
:105B03003DF583125AC2125B0D2212669A125B187C
:105B1300228E828F83E0FDA3E0CD22A3125B0D24AE
:105B23002CF582E43DF58322C082C0838A828B8375
