:020000040000FA
:060000000210B00205DC55
:03002B00020E249E
:03003300020A16A8
:0300530002050B98
:03006B000209CBBC
:03007B000209F483
:1000830002056D01010000000000F8FF07FFFF00FB
:10009300000504000000030001FF0020FD0002062C
:1000A300FFFF1E010000000000000000020100002D
:1000B300FFFF0C010400001D14000000E803000012
:1000C300FFFF6E140188130000E80300006400645E
:1000D30000B801A0BB0D00A0BB0D00020202070483
:1000E30001051E02051E020A0A010108080103B8E0
:1000F3000B02803E0102FEFFE8030A050001FFFF39
:10010300020A011401E08096184B0000803F0200B0
:100113000000050301010F030003000300030003B4
:1001230000030003000300030005000A0014002875
:10013300004F009E000000C72A000000009B29001A
:10014300000000FF000000FF001210CF60461210F5
:10015300C0603DE9687008F618F618F618F62274C0
:100163008067F7120180090909748067F72212106A
:10017300C0601D1210CF7005191919801A120F884B
:10018300701F120F9CC37003E667331919194007D8
:100193001818182208080874FFF618F618F618F647
:1001A30022120F9C601712115D702192F0121166DA
:1001B3007019501720F014080808090909E7F61800
:1001C30019E7F61819E7F61819E7F622121166600F
:1001D300E6E869701F0808E62480F608E436F61896
:1001E300547FB47F0CE654806007F6E418F618F6E3
:1001F30022181822E9C6CC08C6CD08C6CE08C6CF39
:10020300C0E0E8C0E0EAC0E0EBC0E009E9F809E7D4
:10021300FA09E7FBE6F918E6F8C3EC98ED99EE9ACC
:10022300EBC2E7F5F0EFC2E795F0500E600CEBCFB1
:10023300FBEACEFAE9CDF9E8CCF8EAA2E7D2E7FA8D
:10024300EB33FB13F5F0EEA2E7D2E7FEEF33FFC586
:10025300F013A2E730E601B313C5F0C3C0E0C0F06A
:100263007F00C39BFB605E9418600F401D14601AEF
:10027300D0E023F9D0E0F80203528AF0E9486003A2
:10028300D2F0E4AFF0FAF9F8803BEB30E40D89F0FB
:10029300EA6003D2F0E4AFF0F9CAF8EB30E30D887B
:1002A300F0EF6002D2F0AFF0E4CAC9F8EB54076094
:1002B30014FBC3EA13FAE913F9E813F8EF13500236
:1002C300D2E0FFDBEDD0E0C0E030E739C3E49FFFCD
:1002D300F5F0EC98FC42F0ED99FD42F0EE9AFE4207
:1002E300F0D0E0F9D0E0F8E5F0607AE923F9EE2008
:1002F300E742D8028067C3EF33FFEC33FCED33FDF5
:10030300EE33FE80EAEC28FCED39FDEE3AFED0E058
:1003130023F9D0E0F84002801BC3EE13FEED13FD7A
:10032300EC13FCEF135002D2E0FF08B800067F7F06
:1003330074FF802EEF3350178CF020F00260100C06
:10034300BC000C0DBD00080EBE000408E860DFE928
:1003530033E813FFEE2313FE4F4D4C8008E954801E
:10036300FFE4FEFDFCEE33EF33F47004FCFD7E800E
:10037300D0E0FBD0E0FAD0E0F8D0E0CFC618CEC68C
:1003830018CDC618CCC6F922001210C0604F121047
:10039300CF6012E7548066F6120F88701112115D58
:1003A300703B090909F4F618F618F618F622120F2D
:1003B3009C701512116608080860EAE6447FF61877
:1003C300768018E4F618F622121166601612115D93
:1003D3007012E4F608F608F608E65480F6090909EF
:1003E30018181822EAC0E0EBC0E0ECC0E0EDC0E072
:1003F300E687F0A4FBACF008E687F0A42CFCE43518
:10040300F0FA1809E687F0A42C4B60027401CA3590
:10041300F0FCE433FB09E687F0D2F7A42CCB35F0EC
:10042300FC1908E687F0A42BCC35F0FBE433FD0878
:1004330019E687F0D2E7A42C4ACB35F0CD3400FC83
:1004430009E687F0D2E7A42DCC35F0FDE433FA09B1
:1004530018E687F0D2F7A42CCD35F0CA3400FC0897
:10046300E687F0D2E7D2F7A42ACC35F07A7E20E7EC
:100473000B0ACB33CBCD33CDCC33CC33CB3350146E
:100483007004ED30E00ED2F1E4CD3DCDCC3CCC3B5D
:100493005005DA05C2F1EB547FC63308E63392F018
:1004A300FBE73309E733C39A502D2B70190C0D4C1E
:1004B3004D70151806E608C333700D20F10AA2F03B
:1004C30013F6E418800B4024E4F630F0027680182B
:1004D300F618F618F68024D33B14501074FFA2F0DC
:1004E30013F6187680E418F618F6800FA2F013F6C8
:1004F30018E63303F618ECF618EDF6D0E0FDD0E07D
:10050300FCD0E0FBD0E0FA22C0E074F112096CA247
:10051300AFE433F509D2AF85A708AFA1EF5508FEC5
:1005230074105E600612140075A1EF74085E600813
:1005330012140675A1F78024EFA2E092F0E508A259
:10054300E082F05017906198E0F890050EE0C398B0
:10055300A2D265D0335002E8F075A1FE751A00E50A
:1005630009A2E092AF7F02020A2AC0E074F21209E4
:100573006CA2AFE433FED2AF9061A4E0F8759B00A8
:10058300E59158540860087591F71214548023E5D7
:100593009158541060087591EF12145A8014E59124
:1005A300A2E092F0E8A2E082F05007E0C2E0F0128D
:1005B30015B09061A3E0F8E5E9585404600E1215F4
:1005C3008675E9FB906193E0A2E640F2751A00EEAE
:1005D300A2E092AF7F01020A2AC0E074F212096C12
:1005E300A2AFE433FED2AF9061A5E0F8E5BF585463
:1005F30004600675BFFB1215C880D1C3E498F8E404
:1006030099F912063F8026C3E49AFAE49BFBE9209A
:10061300E7E912063FE498F8E499F922C3E498F86D
:10062300E499F912063FE498F8E499F9C3E49AFAD5
:10063300E49BFB22EB20E7CFE920E7E0B90010BB06
:100643000008E88AF084F8AAF022E4FBC8FA22EB57
:1006530070227B10C833C8C933C9335007C39AC348
:10066300DBF280069A50012ADBEAC833F4C8C933A7
:10067300F4C9FA2275F008E4C833C8C933C933C9C9
:100683009AC99B5004C92AC93BD5F0ECFBC833F483
:10069300C8E4C9FA228A088B098C0A8D0B780812E0
:1006A30006E220F01430E72B74FFFCFBFA747F8022
:1006B30022E4FCFBFA7480801AB48008BC00F2BB0D
:1006C30000EF800F50EBF9E4C39AFAE49BFBE49C40
:1006D300FCE499C6CC18C6CB18C6CA18C6F922E4DE
:1006E300C9C608CAC608CBC6D3330308CCC63392DF
:1006F300F0C3947F402E94184019C9B90704CACB9C
:10070300CC225025C309CA33CACB33CBCC33CC3329
:10071300D9F422F4600DC9CCC313CB13CBCA13CACB
:10072300D9F6CC22E4FCFBFA2214FCFBFA220808DB
:1007330008EAC0E0EBC0E086F0E7A4FA180986F007
:10074300E7A42AFA180986F0E7A42AFA180986F01A
:10075300E7A42AFA1986F0E7A4FBE5F02AFA1908B8
:1007630086F0E7A42BFBE5F03AFA190886F0E7A434
:100773002BFBE5F03AFA18180986F0E7A4C5F02B2D
:10078300FBE43AFA1908E7C5F0C6A426F6E5F03B00
:10079300FBE43AFA1886F0E7A4F6E5F00826F6E457
:1007A3003B08F6E43A08F6D0E0FBD0E0FA2208086A
:1007B30008E630E711120F601207C9080808C6449B
:1007C30080C618181822181818E9799EC608CAC6D0
:1007D30008CBC608CCC6C370207996CACBCC701997
:1007E300798ECBCC70137986CC700EF9802ACA33FC
:1007F300CACB33CBCC33CC331930E7F2CCCBCA33AF
:1008030050147004EA30E00DE4CA3ACACB3BCBCCB7
:100813003CCC500209C3E913C6CC182313C6CB182A
:10082300C6CA18C6F922E4CFC0E0E4CEC0E0E4CDE6
:10083300C0E0E4CCC0E075F020E626F608E633F627
:1008430008E633F608E633F6181818EC33FCED33F4
:10085300FDEE33FEEF33FFC3EC9709ED9709EE97F7
:1008630009EF97191919400FFFEC97FC09ED97FD54
:1008730009EE97FE191906D5F0BFECF709EDF70954
:10088300EEF709EFF7191919D0E0FCD0E0FDD0E03D
:10089300FED0E0FF222518C582C0E0E51934FFC56C
:1008A30083C0E0E518C3958224F810AF0885831947
:1008B3008582188008858319858218D2AFCEF0A36C
:1008C300E520F0A37808E608F0A3DEFAEFF0A3E54D
:1008D3008124FAF8E608F0A3E608F0A3E608F0A3FB
:1008E3000808E608F0A3E608F0A315811581D0E017
:1008F300FED0E0F8158115811581E8C0E0EEC0E077
:1009030022121148B90003020956E4900401780940
:1009130079148002F0A3D8FCD9FA781A9000867A69
:1009230001BA00028007E493A3F608DAF97A097B97
:100933001790008778C679018015E493A3AD82AE42
:10094300838A828B83F0A3AA82AB838D828E83D822
:10095300E9D9E775820D7583CB7404120E0675828F
:10096300987583277400120E06C0D02518C582C05F
:10097300E0E51934FFC583C0E0E518C3958224F38D
:1009830010AF0885831985821880088583198582AD
:1009930018D2AFC8F0A3E9F0A3EAF0A3EBF0A37970
:1009A30008E709F0A3D8FAECF0A3EDF0A3EEF0A367
:1009B300EFF0A3D0E0F0A3D0E0F0A3D0E0F0A3E504
:1009C30020F0A3E5F0F0A322C0E074F212096CA2B8
:1009D300AFE433FED2AFE589541C600312132853EE
:1009E30089E3C2C5751A00EEA2E092AF7F01020A45
:1009F3002AC0E0C0D0E8C0E0A8A8D2AFE58A858AC3
:100A03008AC2EB751A00E8A2E792AFD0E0F8D0D023
:100A1300D0E032C0E0C0D0E8C0E0A8A8D2AFE58BF8
:100A2300858B8BC2E880DC851983851882E0C0E062
:100A3300A3E0F9A3E0FAA3E0FBA37808E0F608A398
:100A4300DFFAE0FCA3E0FDA3E0FEA3E0FFA3E0C028
:100A5300E0A3E0C0E0A3E0F5D0A3E0F520A3E0A38A
:100A6300F5F010AF088583198582188008858319EE
:100A7300858218D2AFD082D083D0E0F8D0E032E4C0
:100A83007375F0108E218F22858226858325851824
:100A930082851983E0CEA3E0CF852682852583EB6B
:100AA300C9EAC8EDCBECCAC3E833C8E933C9EA33B2
:100AB300CAEB33CBC3EA9EF524EB9FF523B3500473
:100AC300AB23AA24EC33CCED33CDD5F0DAAE21AF92
:100AD30022221210C0601C1210CF60171211667010
:100AE3000712115D7001D322C0D012115D7006D0C0
:100AF300D0B322C32233D0D0501430E0F6C3E796EC
:100B03000809E7960809E7960809E796B32220E063
:100B1300D5E6970809E6970809E6970809E697B323
:100B230022D083D082ECC0E0EDC0E0E493A3FCE4E8
:100B330093A3FDED4C600D120C48EC24FFFCED3447
:100B4300FFFD80EFE493A3FCE493A3FDED4C600D64
:100B5300120D11EC24FFFCED34FFFD80EFD0E0FD1E
:100B6300D0E0FCE493A3C0E0E493C0E0221210C001
:100B7300601B1210CF6016121166700712115D60B0
:100B83000CB322C0D012115D7005D0D022C3223322
:100B9300D0D0501330E0EBC3E7960809E796080975
:100BA300E7960809E7962220E0E4E6970809E69726
:100BB3000809E6970809E69722851983851882E0D4
:100BC300A3FEE0A3F5207808E0A3F608DFFAE0A38C
:100BD300FFE0A3C0E0E0A3C0E0E0A3C0E0E0A3C067
:100BE300E0E0A3C0E010AF08858218858319800870
:100BF300858218858319D2AFD083D082020E0CD0A0
:100C030083D082E9C0E0E493A3C386F0C5F095F0F6
:100C1300F908E493A386F0C5F095F0700BE493A371
:100C2300C3994005E9048002A3E475F002A4258278
:100C3300F582E5F03583F583D0E0F9E493A3C0E0D2
:100C4300E493C0E022C0E0C3E49396087401939652
:100C530018400FE4936670080874019366187000D7
:100C63007019A3A3C3E49396087401939618A3A3DE
:100C7300400DD0E0D0E0D0E0020B60A3A3A3A3A378
:100C8300A3D0E0227404800474028000CCC0E0EDA1
:100C9300C0E0E518C39CCCAD1950011D10AF068C04
:100CA300188D1980068C188D19D2AF120D88D0E0DB
:100CB300FDD0E0FC2274028000CCC0E0EDC0E0E592
:100CC30018C39CCCAD1950011D10AF068C188D199B
:100CD30080068C188D19D2AF120D66D0E0FDD0E0DE
:100CE300FC221210C060251210CF60201211667012
:100CF3000302115D080808E76670101819E76670AB
:100D03000A1819E76670041819E76622F422C0E08E
:100D1300C0F088F0E4936670080874019366187055
:100D230000A8F0A3A3700BD0F0D0E0D0E0D0E00295
:100D33000B60A3A3D0F0D0E022D083D082CCC0E05C
:100D4300E493A36006120DC81470FAE493A360063B
:100D5300120EF51470FAD0E0FCE493A3C0E0E49320
:100D6300C0E022CAC0E0E493A3C582CCC582C58398
:100D7300CDC583F0A3C582CCC582C583CDC583DA37
:100D8300E5D0E0CA22CAC0E0E0A3C582CCC582C5D3
:100D930083CDC583F0A3C582CCC582C583CDC5836E
:100DA300DAE6D0E0CA22700908080822601618188B
:100DB30018C6C333C608C633C608C633C608C63307
:100DC300C6D5E0EA22C0E0E493A3D39C5010E49399
:100DD300A3C39C400AD0E0D0E0D0E0020D59A3A306
:100DE300A3D0E022C008C3E096F50808A3E096422A
:100DF3000808A3E096420808A3E09645087001D3CB
:100E0300D00822C09FF59FE473D09F22D083D08265
:100E1300C09FE493C0E0740193C0E0740293F59F14
:100E230022C0E0C0D0E8C0E0A8A8D2AFC2C7751AFC
:100E330000E8A2E792AFD0E0F8D0D0D0E032251896
:100E4300F58210AF08F518400C15198008F5184005
:100E5300021519D2AF851983227404800A740380A2
:100E630006740280027401C0E0F404120E41D0E063
:100E730012110B2200C0D0251810AF08F518500C22
:100E830005198008F51850020519D2AFD0D022BB3E
:100E93000102E722C082C08389828A83BB0003E008
:100EA3008002E493D083D082226016080808C6C368
:100EB30013C618C613C618C613C618C613C6D5E07C
:100EC300EA222518F8E43519F9222518FAE4351928
:100ED300FB222518FCE43519FD22C3E0C696F6086B
:100EE300A3E0C696F608A3E0C696F608A3E0C69666
:100EF300F622C0E0E493A36C7009D0E0D0E0D0E028
:100F0300020D59A3A3D0E022251810AF08F518400D
:100F13000C15198008F51840021519D2AF22C3E049
:100F23009608A3E09608A3E09608A3E096A2D265EC
:100F3300D03322E76670100809E766700A0809E7EC
:100F43006670040809E76622E066701008A3E0668D
:100F5300700A08A3E066700408A3E0662218181854
:100F6300E4C396F608E496F608E496F608E496F6E3
:100F730022C3E096F008A3E096F008A3E096F008F9
:100F8300A3E096F022181818E60846087009E6262A
:100F9300087005E633F4220822191919E7094709ED
:100FA3007009E727097005E733F4220922C3E6979E
:100FB300F60809E697F60809E697F60809E697F6AC
:100FC30022C3E493960874019396087402939608D7
:100FD3007403939622E627F60809E637F60809E62E
:100FE30037F60809E637F622700422600D18C6C3E7
:100FF30033C608C633C6D5E0F41822E657F6080907
:10100300E657F60809E657F60809E657F622E056CA
:10101300F008A3E056F008A3E056F008A3E056F06A
:1010230022E026F608A3E036F608A3E036F608A386
:10103300E036F622E026F008A3E036F008A3E03617
:10104300F008A3E036F022E647F60809E647F6087B
:1010530009E647F60809E647F622E056F608A3E054
:1010630056F608A3E056F608A3E056F622600D08EC
:10107300C6A2E713C618C613C6D5E0F322C6F4C644
:1010830008C6F4C608C6F4C608C6F4C622C3E79663
:101093000809E7960809E7960809E79622C3E09648
:1010A30008A3E09608A3E09608A3E0962275D00073
:1010B30075813F75180175190400020904E6084695
:1010C30008C3134608336002E633F422E7094709ED
:1010D300C3134709336002E733F422600C08C6C325
:1010E30013C618C613C6D5E0F422E6F008A3E6F04B
:1010F30008A3E6F008A3E6F022E0F608A3E0F6086A
:10110300A3E0F608A3E0F622CAC0E0E6F0A308DAFB
:10111300FAD0E0FA22E0FAA3E0FBA3E0FCA3E0FDAF
:1011230022EAF0A3EBF0A3ECF0A3EDF022E0F8A3A6
:10113300E0F9A3E0FAA3E0FB22E8F0A3E9F0A3EAD5
:10114300F0A3EBF022E5C754F84401F5C779012277
:101153002518F582E43519F58322E727194719473E
:10116300194722E62618461846184622C2AF75D6F6
:101173009F02000022120E0FFBE902120E0FB7EAC4
:1011830002120E0FE7EA02120E0F34EB02120E0FD9
:10119300C8EB02120E0F71EC02120E0FC2EC021218
:1011A3000E0F06ED02120E0FAAED02120E0F17EE2E
:1011B30002120E0F46EE02120E0F59EF02120E0F1D
:1011C30079EF02120E0FDDEF02120E0FB9F00212C9
:1011D3000E0FE6F202120E0F94F302120E0F2CF60C
:1011E30002120E0FB1F602120E0F28F902120E0FA1
:1011F30062F902120E0FBEFA02120E0FD1FA021298
:101203000E0F12FB02120E0F6AD703120E0FE6D750
:1012130003120E0F19D803120E0F47D803120E0F25
:101223008CDA03120E0FABDA03120E0FF0DA03128D
:101233000E0F86DB03120E0FD2DB03120E0F64DCDC
:1012430003120E0F3DDD03120E0F8EDD03120E0F80
:10125300F3DD03120E0F66DE03120E0FAADE031276
:101263000E0F02DF03120E0F24DF03120E0FB4DF83
:1012730003120E0F45E003120E0F91E003120E0F3F
:10128300BDE003120E0FFEE003120E0F96E20312EF
:101293000E0F82E303120E0F64E403120E0F47D501
:1012A30004120E0F4AD504120E0FAAD504120E0F04
:1012B300FED504120E0F20D604120E0F36D80412D8
:1012C3000E0F47D804120E0FE5D804120E0FF0D8F4
:1012D30004120E0F0AD904120E0FEC7F00120E0F28
:1012E30092DD04120E0F19D904120E0F29D904121C
:1012F3000E0F3ED904120E0FF2D904120E0F42D470
:1013030004120E0FC6D404120E0F2ED504120E0FA4
:1013130099CF04120E0FC1CF04120E0FE4CF0412A3
:101323000E0F3CD004120E0F86D004120E0FB1D054
:1013330004120E0FC8D004120E0FCDB404120E0FF8
:10134300DBB404120E0F54B504120E0F29B60412A7
:101353000E0FFBB704120E0F40B804120E0F65B840
:1013630004120E0FF87F00120E0F00C904120E0FA5
:1013730038C904120E0F86CA04120E0F0ACB0412C8
:101383000E0FA5DD04120E0FA8DD04120E0FB4DD3F
:1013930004120E0FEAA104120E0F16A204120E0F6E
:1013A300ADA404120E0FEDA404120E0F29A504120E
:1013B3000E0F3DA504120E0F56A504120E0F47A6DD
:1013C30004120E0FF9A604120E0F0DA704120E0F2E
:1013D30020FE01120E0F44FE01120E0F5DFE0112DC
:1013E3000E0F9BFE01120E0FCBFE01120E0FF8FE25
:1013F30001120E0F02FF01120E0F68FF01120E0FF2
:101403006BFF01120E0F75FF01120E0F82FF011207
:101413000E0FC6C104120E0FE6C104120E0F25C231
:1014230004120E0F43C204120E0F5EC204120E0FFB
:10143300C4C204120E0FD0C204120E0F2DC3041225
:101443000E0F3CC304120E0F60C304120E0F21C40F
:1014530004120E0F2EC404120E0F3FC404120E0FFB
:10146300EFDC04120E0F37DD04120E0F63DD0412DE
:101473000E0F63A704120E0FBDA804120E0FCBA804
:1014830004120E0FDEA804120E0FF3A804120E0F9F
:1014930008A904120E0F1BA904120E0F97A9041218
:1014A3000E0FFCA904120E0F84AA04120E0FFCAA3D
:1014B30004120E0FD5AB04120E0FE5AB04120E0F80
:1014C300F4AB04120E0F54DB04120E0F78DB04127C
:1014D3000E0FA0DB04120E0FC8DB04120E0F6DC437
:1014E30004120E0F94C404120E0FB2C404120E0F92
:1014F30021C504120E0FF3BE04120E0F0CBF04120B
:101503000E0F18BF04120E0F2CBF04120E0F4ABF8A
:1015130004120E0F54BF04120E0F5EBF04120E0FFF
:1015230071BF04120E0FF7BF04120E0F6CC004122A
:101533000E0F9BC004120E0FE9C004120E0F38C128
:1015430004120E0F53C104120E0F5DC104120E0FCD
:101553006EC104120E0FB1C104120E0F94FF0112DB
:101563000E0FDFFF01120E0F238A04120E0F4F8A94
:1015730004120E0F6C8A04120E0F7F8A04120E0FD0
:101583009A8A04120E0FF48A04120E0F228B04128D
:101593000E0F328F04120E0F909004120E0FC29092
:1015A30004120E0F259104120E0F919204120E0FC6
:1015B300B99204120E0FCE9204120E0FDE92041291
:1015C3000E0F1E9304120E0F609304120E0F7093EE
:1015D30004120E0FDED004120E0FF8D004120E0FF9
:1015E30020D104120E0F39D104120E0F5DD1041253
:1015F3000E0F7BD104120E0F92D104120E0FC0D125
:1016030004120E0FDBD104120E0FF8D904120E0FC1
:101613003CDA04120E0F78B804120E0F88B80412C5
:101623000E0F8DB904120E0FBFB904120E0FEFB9CE
:1016330004120E0F12BA04120E0F29BA04120E0F5F
:1016430063BA04120E0FC8BA04120E0F0ABB0412B7
:101653000E0F51BB04120E0F7EBB04120E0FA9BB5B
:1016630004120E0FF2CC04120E0F04CD04120E0F4F
:1016730018CE04120E0F1BCE04120E0F48D70412FD
:101683000E0F7ED704120E0F96D704120E0FD8D763
:1016930004120E0FE8D704120E0F2CD804120E0FEB
:1016A300E09A04120E0F1A9B04120E0F839B04126E
:1016B3000E0FA29B04120E0F449C04120E0F4D9C9E
:1016C30004120E0F9E9C04120E0FC79C04120E0FE1
:1016D300D49C04120E0F459D04120E0FD39D0412C9
:1016E3000E0F219E04120E0F579E04120E0FB89E6A
:1016F30004120E0FE19E04120E0F589F04120E0FD8
:10170300B49F04120E0FF19F04120E0F28A00412AF
:101713000E0F3AA004120E0F4CA004120E0F6BA072
:1017230004120E0F74A004120E0F34A104120E0F34
:1017330080A104120E0FBEA104120E0F48CE041294
:101743000E0F88CF04120E0F91FF03120E0FC2C6A5
:1017530004120E0FF8C604120E0F40C704120E0F28
:1017630099C804120E0F2BC303120E0F5CC403128D
:101773000E0F98C403120E0F52C603120E0F7CC62F
:1017830003120E0FF5C803120E0F35C903120E0F05
:10179300C9CA03120E0F68CB03120E0FC0CB03127C
:1017A3000E0F53CC03120E0F8DCC03120E0FCFCCA2
:1017B30003120E0F42CE03120E0FC2CF03120E0FEF
:1017C300FFD103120E0F2DD203120E0F59D20312A3
:1017D3000E0F62D203120E0FBFD203120E0F4FD39E
:1017E30003120E0F8BD603120E0F0DD703120E0F1B
:1017F300AADA04120E0FC2DA04120E0FCCDA0412A4
:101803000E0F22DB04120E0F21FB03120E0F37FB08
:1018130003120E0FD8FB03120E0F17FC03120E0F49
:1018230034FC03120E0F65FC03120E0FB2FC0312FD
:101833000E0FE6FC03120E0F21FD03120E0F1EFF07
:1018430003120E0F84FF03120E0F48D604120E0F5D
:10185300A7D604120E0FE5D604120E0F26D70412D4
:101863000E0FB9A502120E0FC5A502120E0F27A661
:1018730002120E0F31A602120E0FBEA602120E0F97
:10188300FAA602120E0FFAA702120E0F61A8021295
:101893000E0F0AA902120E0F8AA902120E0F47ABEE
:1018A30002120E0F69AD02120E0F92AE02120E0F4C
:1018B300F9B002120E0F82B202120E0F2AB30212F5
:1018C3000E0F0DB802120E0F08B902120E0F9EB9B9
:1018D30002120E0FC3B902120E0F64BA02120E0FD8
:1018E30082BA02120E0FE8BA02120E0F07BB0212DF
:1018F3000E0F34BB02120E0FCCBC02120E0FEDBC46
:1019030002120E0F93BD02120E0FDABD02120E0F5A
:101913004ABE02120E0FD8BE02120E0F35BF0212BC
:101923000E0FB0BF02120E0F40C102120E0FC1C341
:1019330002120E0F49C402120E0F77C402120E0FC9
:10194300A09304120E0F5A9404120E0F0A95041258
:101953000E0F479604120E0FD59704120E0F4A98D6
:1019630004120E0F709904120E0FA89904120E0F91
:101973002CD304120E0FDED304120E0F2D7A001295
:101983000E0FBA7A00120E0F337B00120E0FCE7BAE
:1019930000120E0FEF7B00120E0FC37C00120E0F0E
:1019A300377E00120E0FF1AD03120E0F20AE03129D
:1019B3000E0F98AE03120E0FA7AF03120E0F03B054
:1019C30003120E0F7AB103120E0F96B103120E0F0C
:1019D300E8B103120E0F2BB203120E0F3EB2031225
:1019E3000E0F96B203120E0F58B303120E0FC6B3A7
:1019F30003120E0FFDB303120E0F35B403120E0FB5
:101A0300C7B503120E0FA6B603120E0FF4B70312D7
:101A13000E0FD7B803120E0F63B903120E0FA3B93B
:101A230003120E0FC2B903120E0F0DBA03120E0FDB
:101A33002DBA03120E0FC6BA03120E0F55BB0312B3
:101A43000E0FB0BB03120E0FF0BB03120E0F6DBED1
:101A530003120E0F91BF03120E0FD7BF03120E0F07
:101A6300CCC003120E0FF4C003120E0FF7C0031203
:101A73000E0F01C103120E0F1DC103120E0FA5C1DC
:101A830003120E0FDEC103120E0F0AC203120E0F52
:101A930031C203120E0F55C203120E0FC6C2031238
:101AA3000E0FD9C203120E0F0CC303120E0F70DCFC
:101AB30004120E0F7CDC04120E0FBADC04120E0F9C
:101AC300E97F00120E0FA29703120E0FC5970312A0
:101AD3000E0F129903120E0F5B9903120E0FB99991
:101AE30003120E0F1F9A03120E0F229A03120E0FE8
:101AF300739A03120E0FED9A03120E0F709B0312CB
:101B03000E0F739B03120E0FFB9B03120E0F3E9CD3
:101B130003120E0F61A003120E0F12A203120E0F77
:101B230053A203120E0FCAA503120E0FF8A6031237
:101B33000E0F75A803120E0FFBA803120E0FEDA9CB
:101B430003120E0F70AC03120E0FA1ED01120E0F54
:101B530041EE01120E0FADEE01120E0FC8EE01128F
:101B63000E0F52EF01120E0FABEF01120E0FF6EF35
:101B730001120E0F5DF001120E0FDEF101120E0FB6
:101B8300F6F201120E0F79F301120E0F81F5011215
:101B93000E0F25F601120E0FC4F601120E0FB2F747
:101BA30001120E0F6B8604120E0F31FB01120E0F82
:101BB300C4FB01120E0FD0FC01120E0FAEC60212AF
:101BC3000E0F11C702120E0F59C702120E0F97C73D
:101BD30002120E0FF2C702120E0F4FC802120E0F9F
:101BE3008AC802120E0F0CC902120E0F66C9021226
:101BF3000E0FDACA02120E0F64CB02120E0FB7CB0E
:101C030002120E0FD1CB02120E0FEBCB02120E0FEC
:101C130045CC02120E0FCBCE02120E0FEACE0212E9
:101C23000E0FD5CF02120E0F7CE702120E0F8ED1CC
:101C330002120E0FC5D102120E0F34D202120E0F72
:101C4300F5D202120E0FCED402120E0FCFD502120E
:101C53000E0F40D702120E0F40D902120E0FBBDB3C
:101C630002120E0F95DD02120E0F56DE02120E0F38
:101C7300CEDE02120E0FE5DE02120E0FDFDF0212BE
:101C83000E0FD7E002120E0F46E102120E0F01BC37
:101C930004120E0F58BD04120E0F17BE04120E0FBE
:101CA3007FBE04120E0FF5FC02120E0F10FD02127E
:101CB3000E0F54FD02120E0F7AFD02120E0FA1FD3C
:101CC30002120E0FB9FD02120E0F5BFE02120E0F6F
:101CD30070FE02120E0F92FF02120E0F9BFF0212F2
:101CE3000E0FA4FF02120E0FADFF02120E0F25AC52
:101CF30004120E0F27B004120E0F2CB004120E0F95
:101D03002EB004120E0F7FCB04120E0FEBFF011245
:101D13000E0F0ED204120E0F66DD04120E0F95B0D5
:101D230004120E0FDCFF03120E0FEDDB04120E0F75
:101D330017DC04120E0F008002120E0F3380021202
:101D43000E0F9F8002120E0F3A8102120E0FD781DF
:101D530002120E0F1C8202120E0F3E8202120E0F8F
:101D6300578202120E0F7D8202120E0F9F82021201
:101D73000E0FDD8202120E0F218302120E0F438318
:101D830002120E0FA58302120E0F6C8402120E0FA5
:101D9300238502120E0F958502120E0F6086021222
:101DA3000E0FB38602120E0F198702120E0F5387FE
:101DB30002120E0FA58702120E0F138802120E0FC6
:101DC3007E8802120E0F818802120E0F0289021200
:101DD3000E0F998902120E0F198A02120E0F388AFA
:101DE30002120E0F9C8B02120E0FA98B02120E0F02
:101DF300B58C02120E0FC28C02120E0FCB8C021284
:101E03000E0FA38E02120E0FBD8F02120E0F36900D
:101E130002120E0FA89002120E0FCA9002120E0F9A
:101E23005E9102120E0F329302120E0F09970212E5
:101E33000E0F1D9702120E0F2D9702120E0F3797DA
:101E430002120E0F409702120E0F499702120E0F45
:101E5300539702120E0F809702120E0FA9970212C8
:101E63000E0FB49702120E0FD89702120E0FFC97A3
:101E730002120E0F669802120E0FAC9802120E0F8A
:101E8300C99802120E0F469902120E0F7D99021283
:101E93000E0FBC9902120E0F099A02120E0F8F9A9F
:101EA30002120E0F5D9C02120E0FE09C02120E0F27
:101EB300C49D02120E0F2BA002120E0F84A0021259
:101EC3000E0FCEA002120E0F29A202120E0F5EA257
:101ED30002120E0FB0A202120E0F65A302120E0F12
:101EE30014A402120E0F51A402120E0FE6A4021242
:101EF3000E0F52A502120E0F702D00120E0FA22DFF
:101F030000120E0FD02D00120E0FA62F00120E0F6F
:101F1300863000120E0FDE3000120E0F193200123F
:101F23000E0F653200120E0F8E3500120E0F813820
:101F330000120E0FD13900120E0F673A00120E0F66
:101F4300733A00120E0FA53A00120E0F283C00122E
:101F53000E0FD93D00120E0F6D3E00120E0FB03E54
:101F630000120E0F2E3F00120E0F4B3F00120E0FEA
:101F73007B3F00120E0FB03F00120E0F8040001285
:101F83000E0F294100120E0FAF4300120E0FCF4464
:101F930000120E0FBA4500120E0F3C4600120E0F30
:101FA300704A00120E0FAD4A00120E0F054B0012BD
:101FB3000E0F384B00120E0FA24B00120E0FD84B10
:101FC30000120E0F634C00120E0FBB4C00120E0FCB
:101FD300924D00120E0F4B4E00120E0FE64E0012E2
:101FE3000E0FEE5100120E0F0A5300120E0FAD56D4
:101FF30000120E0FA15700120E0FA45700120E0F5E
:10200300D35700120E0FD95900120E0FB25A0012F5
:102013000E0FF55A00120E0F4B5C00120E0F8A5C66
:1020230000120E0F135D00120E0F475D00120E0F0C
:102033000C5E00120E0F246000120E0F956000124A
:102043000E0FD56000120E0F636100120E0F856232
:1020530000120E0F476300120E0F4E6500120E0F93
:10206300666500120E0F7A6500120E0FB26500123C
:102073000E0FE06500120E0F5F6700120E0F8468EB
:1020830000120E0FE16800120E0F936900120E0F7B
:10209300BA6900120E0F816A00120E0F196B00123B
:1020A3000E0F3F6D00120E0F746D00120E0FD76DE1
:1020B30000120E0F066F00120E0FAE6F00120E0FFE
:1020C300DF6F00120E0FF76F00120E0F86700012F3
:1020D3000E0F3A7300120E0F127500120E0F2E75AB
:1020E30000120E0F4A7500120E0F187600120E0F13
:1020F3000B7A00120E0FBF8301120E0FF183011230
:102103000E0FE08701120E0F2C8801120E0F72883A
:1021130001120E0F148901120E0F708901120E0F96
:10212300B58901120E0FFC8A01120E0F108C0112D9
:102133000E0FFF8F01120E0F839001120E0F90915D
:1021430001120E0FEC9101120E0FDC9301120E0F10
:10215300519401120E0F5B9401120E0F6894011239
:102163000E0F939401120E0F7A9501120E0F2496FF
:1021730001120E0FA29601120E0FC29601120E0F3C
:10218300EB9601120E0F0D9701120E0F6D990112AE
:102193000E0F339A01120E0F789A01120E0FF59A51
:1021A30001120E0FA69B01120E0FD89B01120E0FE8
:1021B3001E9C01120E0F5A9C01120E0FAA9C0112B3
:1021C3000E0FFE9C01120E0F549D01120E0FA09DC7
:1021D30001120E0F0D9E01120E0F889E01120E0F9B
:1021E30053A001120E0F53A101120E0F78A2011278
:1021F3000E0FB7A501120E0FCAA801120E0F87A961
:1022030001120E0FCBA901120E0F7BAB01120E0FA1
:102213008FAB01120E0F99AB01120E0FA3AB01127C
:102223000E0FAFAB01120E0FCBAB01120E0F76AC3C
:1022330001120E0FB5AC01120E0FBFAC01120E0F3F
:10224300C9AC01120E0F39AD01120E0F84AD01128C
:102253000E0F99AE01120E0FF5AE01120E0F76AFEF
:1022630001120E0F35B001120E0F3EB101120E0F07
:1022730072B201120E0F60B301120E0F78B3011286
:102283000E0FD3B301120E0FF1B301120E0F39B4B7
:1022930001120E0F60B401120E0FFBB401120E0FE8
:1022A300C1B501120E0F53B601120E0FCDB60112B6
:1022B3000E0FE7B701120E0F94B801120E0FBCB93F
:1022C30001120E0F0CBA01120E0F70BA01120E0F8B
:1022D300D2BA01120E0F00BB01120E0F24BB011262
:1022E3000E0F59BB01120E0F8ABB01120E0FBDBB9D
:1022F30001120E0FDDBB01120E0F45BC01120E0FB2
:1023030039BD01120E0F94BD01120E0FBDBD011296
:102313000E0F45BE01120E0FC8BE01120E0FF3BE03
:1023230001120E0FD8BF01120E0F3EE503120E0F5E
:1023330076E503120E0F97E503120E0FD9E503128C
:102343000E0F3BE603120E0F45E603120E0F55E682
:1023530003120E0F90E603120E0F70EA03120E0F14
:102363005DEC03120E0F43EE03120E0FDAEE0312AF
:102373000E0F7CEF03120E0FDAC101120E0F58C2BB
:1023830001120E0FB4C201120E0FFFC201120E0F83
:102393001AC301120E0F45C301120E0F62C30112BD
:1023A3000E0F6EC301120E0F05C501120E0F1EC5CF
:1023B30001120E0FA3C501120E0FB6C501120E0FA7
:1023C300D5C501120E0F79C601120E0FFAC70112FD
:1023D3000E0FADC901120E0F43CA01120E0F46CAEA
:1023E30001120E0FB6CA01120E0FD4CA01120E0F3C
:1023F3006BCB01120E0FB3CB01120E0FB6CB011232
:102403000E0F7CCC01120E0FE9CC01120E0F0FCD73
:1024130001120E0F9ACD01120E0FB8CD01120E0F3D
:10242300FECD01120E0FB2CE01120E0FFCCE011221
:102433000E0F2BCF01120E0F88CF01120E0FBDCF3F
:1024430001120E0FE9CF01120E0FF7CF01120E0F7B
:1024530044D001120E0FB4D001120E0FFDD00112A1
:102463000E0F49D101120E0F75D101120E0F80D13B
:1024730001120E0F9ED101120E0F89D201120E0FFF
:1024830093D201120E0FCED201120E0FDED2011221
:102493000E0FE7D201120E0F3BD301120E0F4FD3D3
:1024A30001120E0F7ED401120E0F95D401120E0FDE
:1024B300AAD401120E0F38D501120E0F7DD50112C9
:1024C3000E0F09D601120E0F14D601120E0F56D796
:1024D30001120E0F71D701120E0FBDD701120E0F8D
:1024E3002CD801120E0F65D801120E0F7FD80112DE
:1024F3000E0FC1D801120E0F91DB01120E0F3EDC3D
:1025030001120E0FABDC01120E0FEBDE01120E0FE8
:1025130003DF01120E0F06DF01120E0F12DF01128D
:102523000E0F26DF01120E0F2EDF01120E0F61DFD9
:1025330001120E0F63E001120E0FEAE001120E0FFB
:102543005AE101120E0FDCE101120E0F9DE201129E
:102553000E0FBCE201120E0F5DE301120E0FBAE380
:1025630001120E0FBDE301120E0FEAE301120E0F6B
:10257300FFE301120E0F73E401120E0FC2E5011205
:102583000E0FC8E601120E0F53E701120E0F6EE88D
:1025930001120E0F36E901120E0F67E901120E0F39
:1025A3008AE901120E0F93E901120E0FC2E901121B
:1025B3000E0F52EA01120E0F08EB01120E0F7DEB04
:1025C30001120E0F24EC01120E0F99EC01120E0FE3
:1025D300D0EC01120E0F0EED01120E0F44ED01129D
:1025E3000E0F008604120E0FEC8504120E0F4985A0
:1025F30004120E0F4F8404120E0F6A8304120E0F7F
:102603005E8104120E0F6C8004120E0F0A800412F6
:102613000E0F8E9703120E0F849703120E0F21E4F1
:1026230002120E0F75E302120E0F179703120E0F0D
:10263300489503120E0FD7E202120E0F91E2021217
:102643000E0F069503120E0F149403120E0FE89348
:1026530003120E0F9F9303120E0FDC9203120E0F41
:10266300C68F03120E0F898D03120E0F568D0312A0
:102673000E0FFD8C03120E0F908C03120E0F4F8C56
:1026830003120E0F888B03120E0F228B03120E0FF1
:10269300C18A03120E0F618A03120E0F38890312C7
:1026A3000E0FCC8803120E0F248803120E0F1F88FF
:1026B30003120E0F138803120E0F468403120E0F1C
:1026C3005CE202120E0F29E202120E0F14E2021252
:1026D3000E0FE9E102120E0FDD8904120E0FA98914
:1026E30004120E0F528904120E0F208403120E0FD0
:1026F300BE8303120E0F5F8303120E0F4C8303126C
:102703000E0FC08704120E0F418303120E0F1083A6
:1027130003120E0FFD8003120E0F708003120E0FB3
:10272300128704120E0F2C8003120E0F0FD1021208
:102733000E0F008003120E0FC7FA03120E0F9AFA40
:1027430003120E0F67FA03120E0F3FFA03120E0F56
:10275300E0F903120E0FC0F903120E0F8BF90312E7
:102763000E0F4FF603120E0F24F403120E0F14F282
:1027730003120E0F91F103120E0F45F103120E0F08
:10278300F9F003120E0F758604120E0F53F00312A5
:102793000E0F90F90100000080FB8F0001008717E6
:1027A300870001008517350004004E17250002003D
:1027B300521726000200541727000200561728005C
:1027C3000100601729000100611784000400F91457
:1027D3008600010017172A00010062172B00010071
:1027E30063172C00010067172D00080005152E0044
:1027F300010068172F0001006917300001006A17F4
:10280300310001006B17320001000D153300010088
:102813000E15340001006C17360001000F15380047
:1028230001006D173900010066178300020083174A
:10283300630001001B1564000100641765000100BB
:1028430065176D0001001C1571000800FD1466007A
:10285300010082174300010073174400020074173C
:10286300450001007617460002007717470008006D
:1028730013154800010079174B0001007A17040073
:1028830001008617A10001008A173700010089178C
:102893008800010088173C00010010153D0001006D
:1028A3006E17490002007B17670001001D154D00DC
:1028B30002007D174E0001007F174F0002008017B2
:1028C3003E00010072175100010011155200010072
:1028D3007017530001007117540001001215000016
:1028E3000000000000013636010100010201000171
:1028F300030100010401060605020000070100347C
:102903000801000F090401010D0100FF0E0800007A
:1029130017020000190100FF1A0100011B0100FE4C
:102923001C0100081D0200001F010001200100011D
:10293300210200002301000F2402000026010001F0
:1029430027010008280200FF2A0100072B0102408B
:102953002C0100002D0100012E0100012F0100FFB9
:1029630030010B1D310800003A0100083B01000F44
:102973003C0100013D0100FF3E0400004204000051
:10298300460400004A0400004E0400005204000004
:10299300560400005A0400000103710301030103FC
:1029A30001030103010322030203010310030003D4
:1029B30000030003000300030003000342030003BA
:1029C3002403060300030003040312032503230364
:1029D3002503230304030403000300030003440348
:1029E3000003000323030003650321003503810370
:1029F300000305030003000300030003250323036F
:102A0300030271023001600211027002010202022C
:102A130002028002100261023A0041006302730263
:102A23007202620243020002130238000002000233
:102A33000402120200020002000200020402040265
:102A4300370037003C024402000239000002000252
:102A5300650200023502810200020502820283023E
:102A630000020101710101010101110101013101A3
:102A7300010101018001100161013B0014006301A8
:102A830073017201620143010001130106013D015B
:102A930035000401120100010001000100010401DD
:102AA3000401330133013C014401320136000001CA
:102AB300000165010001350081010001050182016A
:102AC30083010001030071003001600011007000F8
:102AD3003102200350048000100061000000140044
:102AE30063007300720062004300000013000600DD
:102AF30000000000040012000000000000000000BD
:102B030004000400370037003C02440000000000CA
:102B13000000000065000000350081000000050092
:102B230000008300000036000100060000000F00D3
:102B330000000000000000000000000003FFFF0091
:102B4300000403FFFF0000FFFF0FF4010005C404AE
:102B53000320000100000B00000000000000000340
:102B6300010F000000000000000000000000000052
:102B73000000000000000000000000000000000052
:102B8300000000001C193A192219801800000000E7
:102B93000000000000000000000000002819801859
:102BA300000000002E198018000000000000000043
:102BB300341980180000000000000000000000002D
:102BC3000000000000000000000000000000000002
:102BD30000000000000000000000000000000000F2
:102BE300000003002001BB83000000002001BD831F
:102BF300000004004201D182000005004201C282AC
:102C0300000007003001BE830000FDFF2101B783F0
:102C1300000006004201A1820100200020013517B7
:102C230001002100200136170000741B0100741BF2
:102C33000200EA1A0280E41A0300F01A0400F61AEA
:102C43000480FC1A0500021B06000E1B3100201B2A
:102C53003300261B34002C1BFFFF0000030003007E
:102C63000400080010001F003E007B00F600EC018A
:102C7300D703AF075D0FB91E713D000007ECFDFDE3
:102C8300FDECDCDCCCBCACAC9C9C8C7C7C6C6C5CD0
:102C93005C5C4C4C3C3C2C2C1C1C03EAF5E5D5D568
:102CA300C5B5A595958585757565655555454535B1
:102CB3003525251515050A6E2102382105442107FE
:102CC3003E210C20210D2C21FF000000160F0000D7
:102CD3000B150B020002220F3300000E0FD0D1D2CE
:102CE300D3D4D5D6D7D8D9DADBDCDDDEDF5A6967B2
:102CF300426565416C6C69616E63653039303016CD
:102D0300181920231A1C1E3000034D4C4651181A63
:102D13002505020001191618161618230300303072
:102D230017181921301B1D1F30003C40423A3F3F0A
:102D3300392F47300C0E020B040B0A0708000F0251
:102D43000402010101010902E803000000BE040AB4
:102D530001000E000300E803FF0409090310040344
:102D63000A0C041E0828020C0508151E14C082C094
:102D7300831212089015467410F0A3741FF0901577
:102D8300487416F0A3741FF090154A741CF0A374D2
:102D93001FF090154C7422F0A3741FF0025AAB7409
:102DA300F712089890153AE4F0E9901539F07C137E
:102DB3007D157A3B7B1512185C901779E0901543CB
:102DC300F090154474FDF0A37414023D3874F012AE
:102DD3000898EAFEEBFF54807003022F41901539E7
:102DE300123DCD7003022F3AEA241B125638707C31
:102DF300EA241F12563864137002A3E0706E8A82AD
:102E03008B83122F8F901554124BCA750A00750BC2
:102E130000800D123C0E126CAA121760AA0EAB0FA3
:102E2300EA4B60488A828B83E0650C7004A3E065FB
:102E33000D702C8A828B83A3A3A3A3E0F50EA3E0DA
:102E4300F50FE50A450B8A828B83A3A3A3A360C373
:102E5300123F10850A82850B83A3A3A3A380B78A9D
:102E63000A8B0B8A828B83124BC680B4E508242A13
:102E7300125638FCE5082402F8E43509F9E8FAE9C2
:102E8300FB901554123076A3A3E06402703C8A824F
:102E93008B83124BCA800B88828983A3A3A3A312BB
:102EA3003F10E849601F88828983E06A7003A3E0CA
:102EB3006B70E488828983A3A3E06C70DA90177F38
:102EC300125968806BECF9121F4C850882850983BF
:102ED300E06401704FE5082418122F78120E68126F
:102EE3006252120C87E5082412122F78120E68E53D
:102EF30008123DC1120E64E508240B126256120C2F
:102F03008BE5082417123D5EE5082402FCE435092D
:102F1300FDE5082419FAE43509FB12276E740A1239
:102F23000E77800CE064027007AA08AB0912202A0E
:102F3300AA08AB091216C4EEFAEF6480802DEA5496
:102F430002600C90179A7401F0EA6402FA8023EA93
:102F53005408601A121F46EA4B700B901556126103
:102F63002D7A08122F85EE6408FAEFFB80047A00AD
:102F73007B000268DCF582E43509F583E0F50A7825
:102F83000A22FB901539E0F912182C22A3A3E0F5CD
:102F93000CA3E0F50D227B00901539E0F9121820FF
:102FA30074042274F41208988A088B098A828B832A
:102FB300A3A3A31249C2123D6938F583E02409FA99
:102FC30012687470030230698A828B837402124A16
:102FD30037850882850983123076E8F0A3E9126405
:102FE300EE8A828B83A3A3A3A3A3A3A3A3F0E508E1
:102FF3002403F8E4350912306B123D693AF583E096
:103003008E828B83A3A3A3A3F0EE2409FAE43FFBF0
:103013008E828F83A3A3125C1AF5838882E0A2E5D4
:103023008E828F83A3A3A3A3A3500474018001E41E
:10303300F0E5082403F5828983124BCAEA12514B47
:103043003BF58312683B120E60123D683B125D0C28
:103053008E828F83A3A31279EA120E77EEFAEFFB27
:103063009015391268C18016F98882F583E0FAA3B6
:10307300E0CA22124D67A3A3227402120E777F04C3
:10308300020BBC74F21208988A088B09ECFAEDFB68
:10309300740E121153E0FC1212388A0C8B0DAE0C15
:1030A300AF0DEA4F6030AC08AD09121226E9602675
:1030B300AC08AD09EEFAEFFB12122CE970148E8204
:1030C3008F83123EFDFAEFFB121220AA08AB0912FE
:1030D30012507900800279B4024CB674F012089849
:1030E30074F6120F0BEAFEEBFF8C088D09750FB314
:1030F300851882851983E4F0750E008002050E9011
:103103002D6FE493F8E50EC3984003023205AA0E2F
:103113007B001212748A0A8B0BEA4B60E08A828B63
:1031230083A3A312320C28F0F8C3EE98EF94005057
:10313300CC7C157D007900AA08AB091216AC850A70
:1031430082850B83A3A3A3A3126CE7E0F8EEC398D5
:103153002925E0F8E433F9E50A28F582E50B39F58A
:1031630083A3A3A3A3A3A3123D73A312578F8A0C14
:103173008B0DAC0CAD0DAA08AB0912185C850A8245
:10318300850B83A3E06401700A1262527401123D3D
:103193008580447401120ED5850A82850B83124BF8
:1031A300C812125CE9603D7409121153E0C0E012C9
:1031B3006252D0E0F07409121153E0640370137487
:1031C30001120ED5E508240BFAE43509FB12185C4D
:1031D30080127401121153123F10E508125775350E
:1031E30009126CA8850A82850B8312625E123D85E3
:1031F300A3A3E0C0E0E5082414126256D0E0F07502
:103203000F00A90F740A0268D9A3A3A3E0F88518D5
:1032130082851983E02274F7120898E9FE8A828B6B
:1032230083A3A3A3A3A3A3E0540860338A828B835D
:10323300A3A3A3A3A3A3E0540260218A828B83A345
:10324300A3A3A3A3A3A3A3A3E06406600F74E96EDF
:10325300600A74CD6E600574F06E7003121F2E0247
:1032630045B574F012089874EF120F0B740F121116
:10327300531260117408121153E9F0ECFEEDFF7460
:103283000512115312437D1245A1A3E0F912124412
:10329300740612115312601174061211531251DC89
:1032A3007003023520123DADE0FA7406121153E0AB
:1032B300F9121E6E123580F8A3E0F9E84970030293
:1032C3003520EE2403F50AE43FF50BEE2406F5085A
:1032D300E43FF5097C00850882F583124BCA850A11
:1032E30082850B83E0F912124A74031211531260A0
:1032F30011850A82850B83E0C0E0851882851983D6
:10330300123579D0E01252F1F985188285198312AA
:103313003C15124E4312320FFAA3E0CA2407F5827A
:10332300E43AF583E8F0A3E412601C2406F582E492
:1033330038F583E4126CB41249B6120E60EE123DF6
:10334300693F125D0C74031211531249C22409120E
:1033530079E4120E777429121153126CE112307052
:103363001253043A126CA8742B121153E0C0E08577
:1033730018828519831251A3D0E0F07402121153FD
:10338300E4F0742512115378081210FC0234777498
:1033930003121153125CD48882F583123568A3A3F8
:1033A300A312579AFB121262850E82850F83A3EA3A
:1033B300F0A3EBF07403121153123579A31235689D
:1033C3001259A9A2E6500F850E82850F83A3A3A3EA
:1033D300A3A3E0D2E1F07405121153E0706B850EE4
:1033E30082850F83A3123F10901594E0687003A3A6
:1033F300E0697055850E82850F83A3A3A3123D4810
:10340300750C00780C120E687808120E5C74291281
:103413001153E0F50C780C120E6874271211531235
:103423000C8B9015A1120C8B790074191211531285
:103433004B9A122072740A120E77850E82850F83BF
:10344300A3A3A3A3A3E04405F07402121153E00461
:10345300FC8E828F83124BC48E828F83A3A3A3E03F
:10346300F912124A740312115312601174021211E9
:1034730053E004F074031211531251DC60677402B9
:10348300121153E0FA7406121153123F10C3EA9853
:10349300E4995051740212115312385285188285DF
:1034A3001983E028F8A3E039F9E8240FF50EE4398D
:1034B300F50F850E82F583E4F07403121153123570
:1034C3007364016003023392740512115374011281
:1034D30068C7F07403121153125A9B123875E8F03F
:1034E300A3E90233B6851882851983124BCA121ECB
:1034F30074851882851983120C8B7426121153E07C
:10350300FD7425121153E0FC740A121153E0F9EE15
:10351300FAEFFB121F287402120E7780438E828FFC
:1035230083A3A3A3E0C0E0740C121153D0E0F01204
:103533006730E0C0E0740D121153D0E0F07406124E
:1035430011531251DC7009740E12115374B98007B0
:10355300740E1211537410F07409120ECD12206CF4
:1035630074110268D9E0850E82850F83A3A3A32279
:10357300E01252C9E022E01252C9A3A322851882A5
:10358300851983EAF0A3EB1251E52274F01208982F
:1035930074E1120F0B7404121153E9F07403121146
:1035A30053ECF07402121153EDF08A0E8B0F742F4B
:1035B300121153122F91AA0CFB121E6274011211E5
:1035C30053E9F0AA0CAB0D121E687401121153E0FB
:1035D300700302384D851882851983E480158E8225
:1035E3008F83A3A3A3A3A3E0D2E3F0851882851955
:1035F30083E00412681FF8851882851983E0C39855
:1036030040030238447401121153E070030238443A
:10361300851882851983123852E50C28F8E50D398F
:10362300F9E8240FFEE439FF8E82F583A3A3A3A355
:10363300A3E0A2E040B5750800750A08750B007495
:1036430002121153E060037508207C087D007900A5
:103653007405120ECD1216AC8E828F83E0603E90FD
:1036630015E4E06401701AE508D2E3F508750B1060
:10367300123862121153E8F0A3E912568D74FF80D9
:103683007643080C750A0C8E828F83A312386D1251
:103693006CAA740512115374FFF0A3805A740412B8
:1036A3001153E06009E508D2E6F508750A0A8E822F
:1036B3008F83A3E064FE7003A3E0F47030741212EE
:1036C3001153740412627CF8741D121153E8124AE8
:1036D300377412120ECD121D907D007C0079007498
:1036E30015121153AA82AB83121B5C800B12386232
:1036F300121153E8F0A3E9F07407121153E508F02F
:10370300123DA4C0E07409121153D0E0F0740A1200
:1037130011537401F07405120ECD1220307411127E
:103723001153E06003023822740D1211531252EC4C
:103733008E828F83A3A3A3A3F0740D121153124A95
:1037430005E50AF0A3E50BF07403121153E0C0E0A2
:10375300124996D0E01259A960119015E4E0C0E037
:10376300740D1211531249E0D0E0F0740D1211538D
:10377300123F10850C82850D83A3A3A3A3A3123844
:103783005B241C12600B126CC412385D12595B3936
:1037930012674FC0E012497DD0E0126814C0E07494
:1037A3000D1211531244C3D0E0126515C0E0740D1D
:1037B3001211531244B9D0E0F0740D1211531238A0
:1037C3006D12385B242A12600B850E82850F83A34A
:1037D300A3A3A3A3A3A3A3E0126004123D93C0E099
:1037E3001244A5D0E0F0740D121153124BCA850E8A
:1037F30082850F8312682A2428F582E43B126CA881
:10380300123D9C12683B120E60125D05EA125F9D29
:103813003B1279E8120E777405120ECD1220368E04
:10382300828F83A3A3A3A3A3E0D2E0F074111211A8
:1038330053E060030235E17401121153E0140235C1
:10384300ED7900AA0CAB0D121F34741F0268D9E086
:1038530075F007A4F8A9F022A3A3124BCEE8228E99
:10386300828F83A3123F14740522E0123875A3A339
:10387300A322F8A3E0F9850E82850F83A32274F0B7
:1038830012089874E8120F0BE9851882851983F0E2
:103893008A0E8B0F8A828B83A3A3A3A3A3A3A3A3C1
:1038A300E0F9121E8C8A088B09EA4B700302395E19
:1038B300E50E12515F123DBC123D538518828519E6
:1038C30083E060030239617C04850E82850F83A344
:1038D300A3A3A3A3A3A3A3E0F9121E92EE4F607BBD
:1038E3008E828F83A3A3A3A3123F107407121153D5
:1038F300126142123F107409121153124A67C0E059
:103903007411121153D0E01264F3A3A3A3A3A3A3CE
:10391300A3123F10740F121153126CAA74121211D6
:1039230053E41268CFC8241FF582E438F583125C90
:10393300D0C413135403FC70027C048E828F83E083
:10394300F97808120E64742059FD744059F9740310
:10395300120ECD121F287402120E770268D77C084C
:10396300850E82850F83A3A3A3A3A3A3A3A3E0F937
:10397300121E928B0BEA4B70030238DFEE4F60DBB3
:10398300851882851983E0F50C780C120E6885087A
:1039930082850983A3A3A3A3A3A3A3E0F50C780CB7
:1039A300120E688A828B83A3A3A3E0FB8A82850B12
:1039B300831275078A82850B83E0FA8E828F83A335
:1039C300A3E0F91227747402120E770238E374F736
:1039D30012089874FA120F0BE9FE780179017F003F
:1039E300800379000F124D46E0FCEFC39C5026EF95
:1039F30075F007A4FC85F008AD08EA2CFCEB3DFD4F
:103A0300124335E0A2E050DA540C60D6E0A2E25053
:103A1300D3780080CF8A828B83A3A3A3A3A3A3E03D
:103A2300703DE9A2E0400574016E70338A828B8396
:103A3300A3A3A3A3A3A37401123D25E0C0E07403D1
:103A4300121153D0E0124394E0C0E07404121153F6
:103A5300D0E0F07405121153E8125C6F12206C74FD
:103A6300060245B2C082C0837901121F34025AABE9
:103A730074F4120898EA4B90179A6019E4F08A08D4
:103A83008B09F50AF50B7808120E5C7A02122F994E
:103A9300120E77800A7401F07A027B00122F8602DD
:103AA300308174F012089874F3120F0B740312111F
:103AB30053E4F0A3F0901554123D537401121153C3
:103AC300E4F0A3124A3C04F090158EE0A2E3500305
:103AD300023B98123D19740912115312113C7409D7
:103AE30012115378081210FC9015567808120EDD47
:103AF300740512115378081210ED123C1C74051250
:103B0300115378081210A050077A017B00023C0978
:103B13007405121153780C1210FC90177EE0F5090E
:103B2300780C7908120829A80CA90D90177FE0C317
:103B330098E4995003E08001E8851882851983F0A1
:103B4300740912115378081210FCC008C009C00A86
:103B5300C00B7405121153780C1210FC123C1C7824
:103B63000C7908120829E4F50AF50BD00FD00ED012
:103B73000DD00C780C7908120FB0901556780C12F2
:103B830010ED8011123C0E126CAAEEFAEFFB121725
:103B930060AE08AF09EE4F60658E828F8312320CE0
:103BA300C398502DEE2403F8E43FF9E0FA888289A4
:103BB30083E0C39AF06023740312115312407674A6
:103BC30001121153EEF0A3EF12615DFEA3E0FF803B
:103BD300C48E828F83A3A3A3E4F08E828F83127992
:103BE300A174011211531251DC8E828F83A3A3A3FC
:103BF300A36091126136121153123C15808974032C
:103C0300121153124BCA740D0268D9123F14901546
:103C13005422125CFBA3A3A32290177D1279A9E47B
:103C2300F50AF50B2274F01208988A088B09890AA1
:103C330078007900901554123D53FBEE4B601E083B
:103C43008E828F83A3A3A3A3124B94601008E87002
:103C530001098E828F83123D4FEA4F70E3901780E4
:103C6300124BCAC3E89AE99B4003023D0C7A061241
:103C73003D0FA80CA90DEA497003023D0C8A828B03
:103C830083E508F0A3E509123D2EE50AF090177FBE
:103C9300124D4E123D25A3E4F0A3F0901554124BA0
:103CA30094600D8E828F83A3A3A3A3126CAA8017A3
:103CB300901554126CAA90158EE0A2E34009123DB0
:103CC3001990155612113C90158EE0A2E3503A7AE2
:103CD300087B00901539E0F9121832EA4B4C4D700D
:103CE3002890177DE0F508A3E085080CF50DE4F5B1
:103CF3000EF50F780C120E5C7A087B00901539E0F4
:103D0300F91218267404120E770268DC7B0012176E
:103D13005A8A0C8B0D22121844EAF8EBF9ECFAEDEF
:103D2300FB22123D2922123D2EA322F08A828B838D
:103D3300A3A322E508F00245B5F08E828F83A3A3E7
:103D4300A3A3A3A322125646A3A3F022A3A3A3A330
:103D5300E0FEA3E0FF227F05020BBCF582E43509F8
:103D6300F583E0F922EA123D6D222410F582E42264
:103D7300123D7BA3A3A3A322123F188508828509C2
:103D83008322123D8922F0850A82850B83A3A32215
:103D9300E50E2411123DB9E022E50E240E123DB9C1
:103DA30022E50E2410123DB9E022123DB122EE129B
:103DB3003D6D3FF58322F582E4350FF58322240F11
:103DC300F50AE43509F50B780A22E0F91216D68ACA
:103DD300088B09EA4B2274F2120898890B8A088B24
:103DE300098A828B83124BCA121F58EA4B600479EB
:103DF300B8806A121F64E9F8902D60E493F9E8C370
:103E030099400479B280567A15123D0FAE0CAF0D6E
:103E1300EA4F7004791080458A828B83E4F0A31201
:103E23003D2EE50BF0750A007808120E607C127DBA
:103E330000EA24031267E6120E7790155A1251DC3A
:103E4300700890155A800C123F1088828983123EA5
:103E53006370F4EEF0A3EFF0121F767900024CB614
:103E6300124BCEEA4B8882898322C082C08390158D
:103E73005A80048C828D83127508EC4D60288C82E5
:103E83008D83A3A3E069600574FF6970E68C828D5E
:103E930083A3A3A3E06A7003A3E06B70D6EC2403AF
:103EA300FAE43DFB80047A007B00025AAB74F712FC
:103EB3000898E9FD74FE6D70047C0180027C00901B
:103EC300155A80096D70027C01888289831251DC46
:103ED300601F88828983A3A3A3E06A7003A3E06BB6
:103EE30070E7ECA2E088828983A3A3E050D6F9802F
:103EF3000279FE0245B5EEF9800CA3A31279A9EE6F
:103F0300227402120E777F02020BBCF583123F1458
:103F130022123F1822E0F8A3E0F922123F188E8202
:103F23008F8322120E777F03020BBCC082C083797A
:103F33000090155A800109E0FAA3E08A82F583E52F
:103F430082458370F1025AAB74F6120898E4F508BF
:103F5300F5097808120E64902D60E49375F013A4AC
:103F6300A9F012406B126D08120E77E9FE74096E08
:103F73007003121F70023EF974F612089874FE1251
:103F83000F0B851882851983E4F0A3F0A818A919EB
:103F9300880889097808120E647508027509007883
:103FA30008120E64126979120E77023F0474F51237
:103FB300089874EB120F0B851882851983E4F0A31C
:103FC300F090155A80748E828F83A3A3E0C0E074AF
:103FD30002121153D0E012568DA982AA8389088A4E
:103FE30009750A007808120E607C127D00740612AF
:103FF3001153126CCD120E777402120EC588088904
:10400300097808120E647508137509007808120EF2
:1040130064740412115312517F75F013A4F8AAF0BB
:1040230075F013E9124067126981120E77851882C1
:104033008519831240768E828F83123D53EE4F7023
:1040430085A818A919880889097808120E647508C3
:10405300027509007808120E64126979120E7774DA
:1040630015023F26A42AF9E82402FCE439FD7A422A
:104073007B0022E02401F0A3E03400F02274F41268
:10408300089874EB120F0B7E007F00A818A91988FB
:104093000889097808120E647508028E09780812D7
:1040A3000E647C007D007A42126D14120E77E97063
:1040B3006C8E0880567402120EC5880A890B780A22
:1040C300120E64750A13750B00780A120E64E50864
:1040D30075F013A4F8AAF075F013E50912406712FE
:1040E3006D16120E77E9701B7403121153AA82AB7B
:1040F300837402121153E0F9121F52E970050EEE98
:1041030070010F0508E508700205098518828519F5
:1041130083123F10C3E50898E509994098EEFAEF3A
:10412300FB741502307E74F61208988C828D83A37B
:10413300A3124382F0EA125FA33BF583E0C0E012CF
:10414300433FD0E0F0EA241DF582E43B123F0E1218
:10415300432312437DF0A3F0EA241FF582E43BF5E9
:1041630083123D53EC1243163DF583EEF0A3EFF0BB
:1041730012431C3BF58312434DA3A3A3A3A3A3EEB6
:10418300F0A3EF125BFEFE8C828D8312438C7403CB
:104193005EFEC394034003024309EE600874026E9B
:1041A300600302422E8C828D83E0540CFE740C6EED
:1041B300700302426DE0A2E4400D88828983E08CA3
:1041C300828D83A31243A274086E600302426D12B0
:1041D300432D7401F08A828B83A3A3A3A3A3125656
:1041E3005370148C828D83E0440C124394A3A31266
:1041F300434DEEF0A3EFF08C828D83E0A2E4402BDD
:10420300888212435B124370500109F58212435BAB
:10421300A3A3A3A3A3A3F0A3EF12439C8C828D8338
:10422300A3A3A3F0E82403F850010988828983E05B
:10423300C0E0EC2411F582E43DF583D0E012438C19
:104243008C828D83E0A2E7507588828983E0FE8C9F
:10425300828D831243A274FC5E700C8C828D83A3C7
:10426300E054036403701E02430912432DE4F07407
:104273000C6E60030241D88882124361124370506E
:1042830001090241FA8C828D83A3E05403603288D2
:10429300828983E0C0E0EC1243473DF583D0E0120E
:1042A30043A38C828D83E054036402701488828953
:1042B30083E0C0E0124335D0E01243A38003A3E4BC
:1042C300F0EC12514B3D126CA8EC2410FEE43DFFC0
:1042D300EA241DF582E43BF583E0F5088E828F83A3
:1042E300E0C3982508F508F0EA2417F8E43BF988B9
:1042F30082F583E0C39508C0E0124323D0E0125B4C
:10430300FEC39508500A124323E4F012433FE4F03E
:10431300023F092415F582E422EA240DF582E42202
:10432300EC240DF582E43DF58322EC1253043DF5B4
:104333008322EC2414F582E43DF58322EC123D6DD7
:104343003DF583222413F582E422E0FEA3E0FF8CF3
:10435300828D83A3A3A3A322124361A3A3228983F0
:10436300E0F508A3E0FFE5088C828D8322A3A3A3D5
:10437300A3F0A3EFF0E82402F822124382A322E47D
:10438300F08C828D83A3A3A3221243AAA882A983BC
:1043930022123D29A3A3A3A3221243AAA3E022A38B
:1043A3001243AA08A98322125C07A32274F41208F9
:1043B3009874F3120F0B8A0A8B0BECFEEDFF8C82C1
:1043C300F583E0540CF508E0A2E75006E508D2E7D0
:1043D300F508E508D2E1F5081256537006E508D250
:1043E300E4F508E0A2E55006E508D2E5F5087C0807
:1043F3007D007900AA18AB191216AC74021211537E
:10440300E508126CAEC0E07403121153D0E0124AF7
:104413003CE50AF0A3E50BF0740512115312651A7B
:10442300121153E0707774081211531249C2125BD0
:10443300F038126535C0E074081211531244C3D02A
:10444300E0126515C0E074081211531244B9D0E0AC
:10445300F074081211531244AFE01249EA124A6B86
:10446300126004EE241112561FC0E01244A5D0E0DE
:10447300F0EE241412561FC0E074081211531249AF
:10448300C22435F582E438F583D0E0124A0FC0E048
:1044930074081211531249C6D0E012626E740D02F1
:1044A300307EE82432F582E439F58322123F1EA3DD
:1044B300A3A3A3A3A3221249D612671438F5832218
:1044C3001249D62426F582E438F5832274F71208BC
:1044D300987E008A828B83A3A3A3A3A3A3A3A3A3EE
:1044E300E0640460030245911252FCE0600302455C
:1044F3009112515E3B1251DA700302459188828911
:1045030083E054036003024591E812530439F583B1
:10451300E0FA8C828D83A3A3E0FBA3E0CB2411F507
:1045230082E43BF583E06A706588828983A3A3A351
:10453300A3A3A3A3A3A3124595E06A7003A3E06B0F
:10454300704C88828983A3A31245A1E0FFA3E0CF27
:10455300240612561F6A7003A3E06B7031888289A8
:1045630083A3A3E0F88C828D83A3A3E0F9A3E0F5F2
:10457300838982A3A3E06860138C828D83A3A3A3A2
:10458300E0F5838982E0540C640470027E01EEF945
:10459300802012459922124BD28C828D8322A3A3B1
:1045A300124599A3A322740C121153E0F9740D124E
:1045B3000E777F01020BBC74F612089874FC120F7D
:1045C3000BEAFEEBFFECFAEDFB8C82F583A3E054E0
:1045D3000360169015501251DC60597900EEFCEF20
:1045E300FD125DFB120A82804B851882851983EECA
:1045F300F0A3EFF07402121153124A31AC18AD1943
:104603007A8E7B1F1221B68A088B09A808A909EAAA
:104613004960218A828B83A3A3A3A3A3A3A3A3A3F8
:104623007406F07A0088828B831249C2125FC4E059
:10463300F91221147404023F0674F212089874F3F9
:10464300120F0BEAFEEBFF8A82F583A3A3A3A3A3B6
:10465300A3A3A3A3A3E0F50A90179AE0700579BA80
:1046630002497A750801750900750C00750D007C07
:10467300087D007900AA18AB191216AC7405121143
:10468300537401124A44540460127402121153E029
:10469300D2E6124A4454087003750803E0541060CC
:1046A3000674404508F508E05408602274021211AC
:1046B30053E044C0124A445420600A740312115355
:1046C300E0D2E080087403121153E0D2E1F0EE244B
:1046D3001512561F1249AA700374016970067408F3
:1046E3004508F5088E828F83A3A3A3A3A3A3A3A343
:1046F300E0701612221085188285198312601174D6
:1047030002121153E0D2E28030640F70107402126F
:104713001153124A4C74044508F508807F8E828F2A
:1047230083A3A3A3A3A3A3A3A3E064028E828F8383
:10473300700A126CE1E8F0A3E9F08060A3A3A3A3DD
:10474300A3A3A3A3E06403700DAC18AD19EEFAEFB5
:10475300FB121FC480468E828F83A3A3A3A3A3A3AC
:10476300A3A3E0640170359015E4E06010740212B5
:104773001153124A4C750910750AFF8018740212FE
:104783001153E0440C124A3C74FDF0A374FFF0741F
:10479300044508F5088E828F83122F91EE2415129B
:1047A300561FA2E0503F7402121153E0540C701BC9
:1047B3008E828F83124BCA12272CE9700579BB02B4
:1047C300497A7402121153E0D2E5F0EE2415125621
:1047D3001FA2E050107402121153E0540C640470D1
:1047E30004E0D2E5F0EE241112561FC0E074041267
:1047F3001153D0E012651C121153E0600302497398
:104803007408121153124A05E508F0A3E509F012E2
:1048130049A0E0C0E0124996D0E0F0124987E0C019
:10482300E074081211531249C212434738F583D07A
:10483300E0124A6B640170119015E4E0C0E0740863
:104843001211531249E0D0E0F07408121153124AC6
:1048530000124991FAE8241CF582E439F583EA123F
:104863004A37EE2415FAE43FFB8A82F58312750872
:10487300E812595B39F583124A31EE241C12561F94
:10488300C0E012497DD0E0125AA11249AA70037404
:104893000169701374081211531252ECFAEE241DBD
:1048A30012561FF9121E988E828F83A3A3A3A3A36C
:1048B300A3A3A3A3E0C0E074081211531244C3D00E
:1048C300E0F074081211531244B9E50AF0740812A7
:1048D300115312517F2428F582E439F583E50CF056
:1048E300A3E50D124A171249EA125698126004EE14
:1048F300124991C0E0E82433F582E439F583D0E02E
:10490300F0EE241B12561FC0E07408121153124913
:10491300C6D0E0F0EE241A12561FC0E0740812113C
:10492300531249C22432F582E438F583D0E0124AA7
:104933000F1249B6120E6012671A127508740B1221
:1049430011531249C2242F1279E4120E77EE241563
:1049530012561F544060129015701251DC600AAA5F
:1049630018AB19125DFB120A82AA18AB1912203672
:10497300740C121153E0F9024CB1E82420F582E4DF
:1049830039F58322EE2419F582E43FF58322126779
:1049930029E022E82412F582E439F58322EE241873
:1049A300F582E43FF583225480F8A3E05401F974BF
:1049B300806822F508A3E0F509750A007808221239
:1049C30049D6221249D62434F582E438F58322A34A
:1049D300A3A3A31249DA22E0F8A3E0C8221249D61E
:1049E30012431638F58322FAA3E0FBE8242AF58262
:1049F300E439F583EAF0A3EB22A3A3A3A3123F14A4
:104A0300EE2212518312516339F58322F0EE2413FF
:104A13001256A022F0EE240D1256A022E0FC8A8248
:104A23008B83E02CFCA3E03400FD8A828B83ECF0C3
:104A3300A3EDF022F0A3E4F022F085188285198318
:104A430022F0EE24151256A022E0D2E3F0124A54CB
:104A5300228E828F83123F18851882851983E8F08E
:104A6300A3E9F022E8F0A3E9126157E02274F712F8
:104A730008988A828B83A3E0640170047E638002BA
:104A83007E648A828B83E060087905124AA424F34A
:104A9300FE90158CE06007F9124AA424F2FE024549
:104AA300911220DEE9F8EEC3982274F61208987486
:104AB300FE120F0B851882851983126011E9FEEC33
:104AC300FAEDFB9004811251DC6032A818A9198811
:104AD3000889097808120E647D01740E121153E0DF
:104AE300FCEEF9900481125FE5120A827402120E41
:104AF30077EA4B60047900800679B2800279B602C6
:104B03003F0474F7120898E9FE9015461251DC60D1
:104B13001F7409121153E0F5087808120E68EEF9B4
:104B2300901546125FE5120A827401120E77800215
:104B330079B60245B574F71208988908ECFEEDFFC3
:104B430079B5E508245E602014600624F86034809B
:104B53003D900483124B946035126D25120A828EA8
:104B6300828F831260118024901548127508EC4DD2
:104B7300601CEEFCEFFD901548125FE5120A82E916
:104B8300F9800B901544124B9A12185C7900024578
:104B9300B5124BCEEA4B2212750CEEFAEFFB2274E0
:104BA300F7120898E9FE79B574AB6E700B90154453
:104BB300124BCA12185C79000245B58E828F83A30B
:104BC300A3A3A3A3A3A3A3124BCE22124BD222E0EF
:104BD300FAA3E0FB2274F1120898EAFEEBFF8C0AB9
:104BE3008D0B750801901594E06E7003A3E06F7050
:104BF3000C124CA5AA0AAB0B12185C805E1222168B
:104C0300EE6A7002EF6B7009AA0AAB0B12221C80CA
:104C13004AAC0AAD0BEEFAEFFB121D6CE9F50890F6
:104C23001785E070361226AEE97030E508702C90D7
:104C33001564E06E7003A3E06F7020EE4F601C7587
:104C43000C5C750D15750E00780C120E607C087DDA
:104C530000AA0AAB0B126CD1120E77A908027604D4
:104C630074F2120898EAFEEBFF8C088D09750A01AD
:104C7300124CA5EEFAEFFB121856E964017011907D
:104C83001594123F10850882850983126CAA800E41
:104C9300AC08AD09EEFAEFFB121D72E9F50AA90A99
:104CA300801112220A8A0C8B0DAC0CAD0D22740DEF
:104CB300120E777F06020BBC74F6120898EAFEEB1D
:104CC300FF7A0D7B0012175AEA4B6062EE2424121E
:104CD30069AEF0EE24251269AEA3124D731269B4C6
:104CE300A3A3126747124D4EF0EE124D34124D63DB
:104CF300E8F0A3E9124D8A124D5B126CAAEE124D35
:104D03003D12680AA3A3A3A3F0EE243312561FC0D7
:104D1300E0124D46D0E0126539124D5BA3A3A3E820
:104D2300F0A3E9124D82C0E01252FCD0E0F0023F42
:104D330009242AF582E43FF58322242EF582E43FF9
:104D4300F58322EA1257753BF58322124D5222E076
:104D53008A828B83A3A3A322126869A3A3A3A3229A
:104D6300124D6722123F188A828B83A3A3A3A32227
:104D7300F0124D7822EE2426F582E43FF58322F0EB
:104D8300EE24321256A022F0EE242C1256A02274E6
:104D9300F412089874FE120F0BECFEEDFFEC2416D0
:104DA30012561F64057010EC2406FCE43FFD121F2D
:104DB300BEE97003024E3EAC18AD19126A63121CB1
:104DC3002E8518828519831251DC606B8E828F8346
:104DD300E064017058E875F009A4F8AAF075F009C9
:104DE300E9A42AF974BD28F8740239F9E8FAE9FB51
:104DF3008882F58378081210FCEE124EE01210A0A0
:104E03004027851882851983124A0012562D124EA7
:104E13004378081210FC90839578081210248A8234
:104E23008B8378081210ED800A79A28010EE240F8C
:104E3300126CA47900800679A1800279C802307CC3
:104E4300124A61EE1267352274F21208988A0C8BAB
:104E53000DECFEEDFFEC12562DE4F0A3F090832D44
:104E630078081210FCEC124EE0120F4B6067EC2432
:104E73000E125626703478B390158BE07028901577
:104E8300BDE064017020EC241112561FF91220C6F4
:104E93008B09A909EE12515F3F12600FEA496004C2
:104EA3007800800278A18808802EE0600464027094
:104EB3000A121FD0E9F5087007801DE06403701023
:104EC300EEFCEFFDAA0CAB0D121C52E9F5088008AD
:104ED3007508A180037508A3A908024CB6126735AB
:104EE30078082274F012089874F5120F0BEAFEEB9F
:104EF300FFEA240AFCE43F8C82F5831279A5125160
:104F0300697403120ED58A828B83125E05E97003DE
:104F1300024FCF7401120ED57403120ECD121C2E44
:104F230074011211531251DC7003024FCFE875F074
:104F330009A4F8AAF075F009E9A42AF974B928FCC0
:104F4300740239FDE508240E126256E4F0041211CE
:104F530053123F10E50812515F3509126CA88C8279
:104F63008D83121130E508241212625612113C90FF
:104F7300839578081210FC8C828D83780812103781
:104F83008C828D83780C1210FC9083397808121070
:104F9300FC780C7908120829E5084509450A450BF0
:104FA300702A740112115312517F75F009A4F8AAE3
:104FB300F075F009E9A42AF974C128F5827402395D
:104FC300F5837401F07A007B0812518C8E828F83F3
:104FD300A3A3A3A3A3A3A3A3A3A3E02406FCA3E0E7
:104FE3003400FD8E828F83125E05126527603EEECC
:104FF300240A125151124A057468124A37E81251B1
:105003004B39F5837402F09015761211308C828D32
:1050130083125FFE125BF03CF58312113C90839583
:1050230078081210FC90157678081210371251C7C1
:10503300705D901544125177A3A3A3A3A3A3A3A3C5
:10504300A3A3125C26121856E97010125BE49015A4
:1050530044125BF6700512652760348E828F83A33A
:10506300A3A3A3A3A3A3A3A3A3125177124BCA126F
:105073001C58E960118E828F83A3A3A3A3A3A31259
:1050830051B3E4F0A3F08E828F83125199E4F012AE
:1050930051C760030251468E828F83A3A3A3A3A3A8
:1050A300A31279A190158BE0600302513B9015BDCB
:1050B300E06401600302513B750A3A750B00780AFC
:1050C300120E647402120EC5880A890B780A120E36
:1050D30064126FA0120E77E9705BE508240E12626A
:1050E3005674011251E1C0E0E5082411126256D052
:1050F300E0F0E508240F126256743A124A3790150D
:1051030072121130E508241212625612113C908378
:105113009578081210FC9015727808121037908356
:105123009578081210FC9015727808120F4B7008CE
:1051330012518880031251691251C77006125AE73F
:1051430074A1F0740B0268D9240EF582E422F8E40A
:105153003FF9E8FCE9FD8882F58322EA12516322D4
:10516300240FF582E422E5081251633509F583E43F
:10517300F0A3F02212750C8E828F832212518322A8
:10518300123F18E8227A007B0290141DE0F91217EF
:1051930000228A828B83A3A3A3A3A3A3A3A3A3A372
:1051A3001251A7221249DA240EF582E438F583223C
:1051B300A3A3A3A31251BB221249DA240FF582E45D
:1051C30038F583228E828F83A3A3A3A3A3A31249BB
:1051D300D2240FF582E438F5831251834922125108
:1051E300E522F0851882851983E02274F612089867
:1051F300EAFEEBFF7A237B0012175AEE240AF50826
:10520300E43FF50985088212600F7C237D00790055
:105213001216AC8508828509831251DC7003025291
:10522300AFEEFAEFFB121FDC1251C760748E828F50
:10523300831252E264018E828F83A3A3A3A3A3A349
:1052430070071252D8740E80211251DC701012654F
:1052530027700B8E828F83A3A3E0A2E05007125224
:10526300CE740D80051252CE740512653954036451
:105273000170071252B67405800B90158CE0C0E0E4
:105283001252B6D0E01252F1F583888212564C8541
:1052930008828509831249C2125FA338F583E98026
:1052A3000E8508828509831260888003125FCBF024
:1052B300023F098E828F83A3A3A3A3A3A3A3A3A3C4
:1052C300A31252C822E0125FEAA3228E828F83A325
:1052D300A3A3A3A3A31249D2125FA938F58322A3E0
:1052E300A3A3A3A3A3A3A3A3A31251A7E022125290
:1052F300F522126A78F8A3E022EA1253043BF583FD
:1053030022240CF582E42274F112089874E4120F3B
:105313000B8A0C8B0D8C088D097A237B0012175A8C
:105323008A0A8B0BAE0AAF0BEA4F700302560712C1
:105333005FAFE5082415125638687003A3E0698E41
:10534300828F837004740280027401F0E508240DD7
:10535300F8E43509F98882F583E0FAC3E49AFA950B
:10536300E0FB1256342AFAA3E03BFB8E828F83A321
:10537300A3A3A3125C0D8E828F83A3A3F0EE24203C
:10538300F582E43FF583E4F0EE2421F582E43FF572
:1053930083E4F0EEFAEFFB122090850882850983FF
:1053A30012565370098E828F83A37405800690155D
:1053B3008C125641F0EE2417F50AE43FF50B8E826A
:1053C3008F8312564CE9850A82850B83F0EE2416EF
:1053D300F8E43FF9E508240EFAE43509FB888289ED
:1053E30083124A1FE5082410FAE43509FB850A8273
:1053F300850B83E0FC88828983E0F88A828B83E0D3
:10540300C398C39CF812568DF0EEFCEFFDAA0CABCB
:105413000D121FD6E9F50B8E828F83E064027006AE
:10542300125BE4125611E50B60030255FE750C0086
:10543300750D00901785E064016005E06402703F1C
:105443001256236008EE242112562670328E828F64
:1054530083A3A3A3125FD1125659EE241612561F2B
:10546300125682FAE439FB123D11EA4B60111268BD
:1054730033120E60125667AA0C126CD1120E77EE1D
:10548300FAEFFB12209CE9F50B901785E0640160AD
:1054930008E0640260030255F1E970030255F1E587
:1054A3000C450D70030255FE8003850E0B12562327
:1054B300600BEE242112562660030255F7850B0E6E
:1054C300850C08850D09750A007808120E601256BE
:1054D300678E828F83A3A3A3A31279EA120E77EEBA
:1054E300242012561F600D12562C7468124A37EE90
:1054F30024208015EE242112561F601512562C7499
:1055030003F0A37401F0EE2421F582E43FF583E474
:10551300F0EEFAEFFB12209CE9F50B70907C137D03
:105523000079007409120ECD1216AC741A121153BD
:10553300740112569864687002A3E0704F8E828FD4
:10554300831251B3E0640560030254AD7C0879FF14
:105553008E828F83A3A3A3A3E0242A125C291217AC
:1055630036E970030254AD7C087D0079FF740112A3
:105573000ECD1216AC7401120ED57A007B0079ABF6
:10558300121FB8741912115374FC801512562CE0B3
:1055930064037004A3E06401700874191211537456
:1055A300FFF0E4F508F5097808120E647402120E90
:1055B300D57413121153AA82AB8312610E120E77A4
:1055C300851882851983E0602B7409120EC588083B
:1055D30089097808120E6475081375090078081292
:1055E3000E647C007D00126981120E778006E50C43
:1055F300450D6007AA0CAB0D121760EEFAEFFB1214
:1056030017608003750B10A90B741C027601EE243E
:1056130006FAE43FFB12185C22EE240C1256A02279
:10562300EE24201256A0640122EE1251633FF5834B
:1056330022E508240EF582E43509F583E0221256AB
:1056430046A322E08E828F8322A3E0F91220DE227A
:10565300E0540364012212565D22E0FAE82AF8E4DA
:105663003400F9228E828F83A3A3A3125FD512562F
:105673005DEE24161256A0125682FCE439FD22FA7E
:10568300E82AF8E439F9E824042212569122126533
:1056930048A3A3A322F012569D22EE240FF582E421
:1056A3003FF583E0227901020E0C74F4120898EAA4
:1056B300FEEBFF8A82F583A3A3A3A3A3A3A3A31251
:1056C30049C22424F582E438F583125653702E8A96
:1056D300828B831252E2702512577BE06405701DA2
:1056E30012577BA3E0F874016860057406687007BD
:1056F300125195740280051251957403F0EA240A3D
:1057030012607C125FE5E4F0EA2408F8E43F12300B
:105713006B2431F582E43AF583E0C0E0126D1CA3FB
:10572300A3D0E012579ACA242EF582E43AF583E017
:10573300C0E0126D1CA3A3A3D0E0125CC0C8125733
:105743007538123F0E126D1C12578F8A0A8B0BACE1
:105753000AAD0B850882850983125C2612185C85C5
:105763000882850983124BCA12209C126077F002CB
:105773003081240BF582E4228A828B83A3A3A3A323
:10578300A3A3A3A312650EF583888222A3A3A3A3D5
:10579300124A6112220A22125C02FAA3E022025682
:1057A300A8C082C08390156674E2F0A3741FF090C2
:1057B300156874EEF0A3741FF090156A74F4F0A3E7
:1057C300741FF090156C74E8F0A3741FF0025AABC9
:1057D30074F4120898EA2408FEE43BFF8E82F583F2
:1057E30012517F125FBBE0F50874035508F50912E7
:1057F3005C21F8A3E08882F583E508F0A3A882A9D9
:1058030083E50960097402650960030258C0740CDA
:105813005508FC600A74086C600574046C70267487
:105823000265097006E508A2E4401A8A828B83A305
:10583300A3A3A3A3A3A3A31259C61267143D12598A
:1058430061A308A983740C6C701C1259C22428121A
:1058530059AE2428F582E43DF583A3126342F0E8B0
:105863002402F8500109740265097006E508A2E4F0
:10587300404B1259C2242A1259AE242AF582E43D20
:10588300F583A31259701259CC1263421259CCA357
:10589300125968E82404F8500109EC600F74086C8D
:1058A300600A740C6C600574046C7011125FF2244E
:1058B30026F582E43C125961A3A882A9838A828BCC
:1058C30083A3A3A3A3A3A3A3A31259905403701464
:1058D300E508A2E1400E125FF212595B3CF583E04A
:1058E30054806008125976125963801990153AE072
:1058F300C0E0125976D0E01259A3888289831259E5
:10590300A304125C07A3A882A983E508A2E7504574
:105913008E828F83125990888289831259A91259D2
:105923009554036030125FF22434F582E43C126331
:1059330040F0E508A2E1501D8A828B83A3A3A3A3B1
:10594300A3A3A3A31230702435F582E43A12634073
:10595300A3F0E82403023081241EF582E422F583B8
:10596300125970F022125970A3A3A3F022E0888287
:105973008983228A828B83A3A3A3A3A3A3A3A3E0E4
:10598300FCA3E0CC2432F582E43CF58322E01259F7
:105993009522FCA3E0CC2425F582E43CF583E022A8
:1059A300F090153AE022126544E022F582E43DF5D9
:1059B300831259701259BB221265481259C6228E9E
:1059C300828F83E0FDA3E0CD22A31259BB242CF5E3
:1059D30082E43DF58322C082C0838A828B83125A7C
:1059E3009BFC74035CF98A828B83A3A37401F0E9A3
:1059F30060057402697061740C5CF8600A7408686D
:105A0300600574046870137402697005ECA2E440C5
:105A1300098A828B83A3A37402F0740C68700A8AC8
:105A2300828B83A3A3E02402F07402697005ECA2C5
:105A3300E440258A828B83A3A3E02404F0E8600F6B
:105A4300740868600A740C68600574046870098AD5
:105A5300828B83A3A3E004F0ECA2E7502A8A828B13
:105A630083A3A3E004125AA112357AE0540360170A
:105A73008A828B83A3A3E004F0ECA2E150098A821B
:105A83008B83A3A3E004F08A828B83A3A3E004F0B7
:105A930080168518828519831252C8A3E022F08AE2
:105AA300828B83E022120E77D083D082020E0CC049
:105AB30082C0838A828B83A3A3A3A3A3A3A3A3A349
:105AC300A31251DC60098A828B83A3A3125AD48068
:105AD300D7A3A3A3A3A3A3A3A3125AE022124BD237
:105AE30012176022125AEB22EE240CF582E43FF5E2
:105AF300832274F612089874F4120F0B125C30FCB4
:105B0300A3E0F5838C82A3E0C0E07402121153D0AA
:105B1300E0125CDE125CC77404121153126CAA7497
:105B230002121153E064047014125C462412125CD6
