:020000040000FA
:0600000002106602061466
:03002B00020DC8FB
:030033000209D7E8
:0300530002054360
:03006B0002098CFB
:03007B000209B5C2
:100083000205A501010000000000F8FF07FFFF00C3
:10009300000D04000000030001FF015EC05EE102E9
:1000A30001F58601F7860100AD03000000FF7A1316
:1000B300801386130000000000008C139213981322
:1000C3009E13A413AA13B0130020FD000206FFFF22
:1000D300FFFF1E1410270000C01B000000000000DB
:1000E300000000000000000000000000000000000D
:1000F300FFFF14010400003318000000E8030000B0
:10010300FFFF84180188130000E803000064006403
:1001130000B801A0BB0D00A0BB0D00020202070442
:1001230001051E02051E020A0A010108080103B89F
:100133000B02803E0102FEFFE8030A050001FFFFF8
:10014300020A011401E002000000050301010F038C
:100153000003000300030003000300030003000384
:100163000005000A00140028004F009E0000004F05
:100173002F00000000232E00000000FF000000FFFE
:10018300001210856046121076603DE9687008F62B
:1001930018F618F618F622748067F71201B80909E1
:1001A30009748067F722121076601D12108570059E
:1001B300191919801A120F55701F120F19C37003E2
:1001C300E667331919194007181818220808087424
:1001D300FFF618F618F618F622120F196017121107
:1001E30013702192F012111C7019501720F014088B
:1001F3000808090909E7F61819E7F61819E7F618C0
:1002030019E7F62212111C60E6E869701F0808E678
:100213002480F608E436F618547FB47F0CE6548045
:100223006007F6E418F618F622181822E9C6CC0877
:10023300C6CD08C6CE08C6CFC0E0E8C0E0EAC0E03D
:10024300EBC0E009E9F809E7FA09E7FBE6F918E684
:10025300F8C3EC98ED99EE9AEBC2E7F5F0EFC2E73D
:1002630095F0500E600CEBCFFBEACEFAE9CDF9E83E
:10027300CCF8EAA2E7D2E7FAEB33FB13F5F0EEA2F0
:10028300E7D2E7FEEF33FFC5F013A2E730E601B391
:1002930013C5F0C3C0E0C0F07F00C39BFB605E9456
:1002A30018600F401D14601AD0E023F9D0E0F80263
:1002B300038A8AF0E9486003D2F0E4AFF0FAF9F870
:1002C300803BEB30E40D89F0EA6003D2F0E4AFF059
:1002D300F9CAF8EB30E30D88F0EF6002D2F0AFF02B
:1002E300E4CAC9F8EB54076014FBC3EA13FAE91331
:1002F300F9E813F8EF135002D2E0FFDBEDD0E0C0D2
:10030300E030E739C3E49FFFF5F0EC98FC42F0EDF1
:1003130099FD42F0EE9AFE42F0D0E0F9D0E0F8E524
:10032300F0607AE923F9EE20E742D8028067C3EF51
:1003330033FFEC33FCED33FDEE33FE80EAEC28FCB7
:10034300ED39FDEE3AFED0E023F9D0E0F84002802B
:100353001BC3EE13FEED13FDEC13FCEF135002D29F
:10036300E0FF08B800067F7F74FF802EEF3350173D
:100373008CF020F00260100CBC000C0DBD00080EC8
:10038300BE000408E860DFE933E813FFEE2313FE41
:100393004F4D4C8008E95480FFE4FEFDFCEE33EF43
:1003A30033F47004FCFD7E80D0E0FBD0E0FAD0E0B3
:1003B300F8D0E0CFC618CEC618CDC618CCC6F922E1
:1003C30000121076604F1210856012E7548066F6B3
:1003D300120F557011121113703B090909F4F61825
:1003E300F618F618F622120F19701512111C0808C8
:1003F3000860EAE6447FF618768018E4F618F622D9
:1004030012111C60161211137012E4F608F608F6A6
:1004130008E65480F609090918181822EAC0E0EB27
:10042300C0E0ECC0E0EDC0E0E687F0A4FBACF00870
:10043300E687F0A42CFCE435F0FA1809E687F0A46B
:100443002C4B60027401CA35F0FCE433FB09E687E8
:10045300F0D2F7A42CCB35F0FC1908E687F0A42BD7
:10046300CC35F0FBE433FD0819E687F0D2E7A42C82
:100473004ACB35F0CD3400FC09E687F0D2E7A42D52
:10048300CC35F0FDE433FA0918E687F0D2F7A42C53
:10049300CD35F0CA3400FC08E687F0D2E7D2F7A4E2
:1004A3002ACC35F07A7E20E70B0ACB33CBCD33CD84
:1004B300CC33CC33CB3350147004ED30E00ED2F197
:1004C300E4CD3DCDCC3CCC3B5005DA05C2F1EB5439
:1004D3007FC63308E63392F0FBE73309E733C39A69
:1004E300502D2B70190C0D4C4D70151806E608C3D2
:1004F30033700D20F10AA2F013F6E418800B4024A8
:10050300E4F630F002768018F618F618F68024D355
:100513003B14501074FFA2F013F6187680E418F61B
:1005230018F6800FA2F013F618E63303F618ECF66C
:1005330018EDF6D0E0FDD0E0FCD0E0FBD0E0FA22ED
:10054300C0E074F112092DA2AFE433F509D2AF85EF
:10055300A708AFA1EF5508FE74105E60061215E4FC
:1005630075A1EF74085E60081215EA75A1F780247F
:10057300EFA2E092F0E508A2E082F05017906198B4
:10058300E0F8900517E0C398A2D265D0335002E893
:10059300F075A1FE752300E509A2E092AF7F020288
:1005A3000A48C0E074F212092DA2AFE433FED2AFC1
:1005B3009061A4E0F8759B00E591585408600875B4
:1005C30091F71216388023E59158541060087591FD
:1005D300EF12163E8014E591A2E092F0E8A2E082C9
:1005E300F05007E0C2E0F01217949061A3E0F8E541
:1005F300E9585404600E12176A75E9FB906193E0A1
:10060300A2E640F2752300EEA2E092AF7F01020A58
:1006130048C0E074F212092DA2AFE433FED2AF90CA
:1006230061A5E0F8E5BF585404600675BFFB1217D7
:10063300AC80D1C3E498F8E499F91206778026C315
:10064300E49AFAE49BFBE920E7E9120677E498F8D9
:10065300E499F922C3E498F8E499F9120677E49847
:10066300F8E499F9C3E49AFAE49BFB22EB20E7CF81
:10067300E920E7E0B90010BB0008E88AF084F8AA93
:10068300F022E4FBC8FA22EB70227B10C833C8C9FE
:1006930033C9335007C39AC3DBF280069A50012A49
:1006A300DBEAC833F4C8C933F4C9FA2275F008E4A5
:1006B300C833C8C933C933C99AC99B5004C92AC9A5
:1006C3003BD5F0ECFBC833F4C8E4C9FA2212071B8C
:1006D30030F039120760803412071B20F01430E722
:1006E3002B74FFFCFBFA747F8022E4FCFBFA74801A
:1006F300801AB48008BC00F2BB00EF800F50EBF906
:10070300E4C39AFAE49BFBE49CFCE499C6CC18C6C8
:10071300CB18C6CA18C6F922E4C9C608CAC608CB8C
:10072300C6D3330308CCC63392F0C3947F402E94D0
:10073300184019C9B90704CACBCC225025C309CA2A
:1007430033CACB33CBCC33CC33D9F422F4600DC9C9
:10075300CCC313CB13CBCA13CAD9F6CC22E4FCFB0C
:10076300FA2214FCFBFA22080808EAC0E0EBC0E016
:1007730086F0E7A4FA180986F0E7A42AFA1809868E
:10078300F0E7A42AFA180986F0E7A42AFA1986F0F2
:10079300E7A4FBE5F02AFA190886F0E7A42BFBE5AA
:1007A300F03AFA190886F0E7A42BFBE5F03AFA18B9
:1007B300180986F0E7A4C5F02BFBE43AFA1908E719
:1007C300C5F0C6A426F6E5F03BFBE43AFA1886F03A
:1007D300E7A4F6E5F00826F6E43B08F6E43A08F663
:1007E300D0E0FBD0E0FA22E4CFC0E0E4CEC0E0E406
:1007F300CDC0E0E4CCC0E075F020E626F608E63391
:10080300F608E633F608E633F6181818EC33FCED71
:1008130033FDEE33FEEF33FFC3EC9709ED9709EE9B
:100823009709EF97191919400FFFEC97FC09ED97FA
:10083300FD09EE97FE191906D5F0BFECF709EDF7A0
:1008430009EEF709EFF7191919D0E0FCD0E0FDD054
:10085300E0FED0E0FF222521C582C0E0E52234FF7F
:10086300C583C0E0E521C3958224F810AF088583D2
:10087300228582218008858322858221D2AFCEF012
:10088300A3E520F0A37808E608F0A3DEFAEFF0A3CF
:10089300E58124FAF8E608F0A3E608F0A3E608F0F9
:1008A300A30808E608F0A3E608F0A315811581D094
:1008B300E0FED0E0F8158115811581E8C0E0EEC0B7
:1008C300E0221210FEB90003020917E49003017835
:1008D3002079198002F0A3D8FCD9FA7823900086F6
:1008E3007A01BA00028007E493A3F608DAF97A20C2
:1008F3007B1B90008778FE79018015E493A3AD827A
:10090300AE838A828B83F0A3AA82AB838D828E838C
:10091300D8E9D9E77582797583BB7405120DAA7579
:10092300827E75832A7400120DAAC0D02521C58248
:10093300C0E0E52234FFC583C0E0E521C3958224EE
:10094300F310AF0885832285822180088583228561
:100953008221D2AFC8F0A3E9F0A3EAF0A3EBF0A39E
:100963007908E709F0A3D8FAECF0A3EDF0A3EEF0D1
:10097300A3EFF0A3D0E0F0A3D0E0F0A3D0E0F0A386
:10098300E520F0A3E5F0F0A322C0E074F212092DF4
:10099300A2AFE433FED2AFE589547C600312150C99
:1009A300538983C2C5752300EEA2E092AF7F010293
:1009B3000A48C0E0C0D0E8C0E0A8A8D2AFE58A8565
:1009C3008A8AC2EB752300E8A2E792AFD0E0F8D0A1
:1009D300D0D0E032C0E0C0D0E8C0E0A8A8D2AFE5F4
:1009E3008B858B8BC2E880DCE9799EC608CAC60872
:1009F300CBC608CCC6C370207996CACBCC70197904
:100A03008ECBCC70137986CC700EF9802ACA33CA88
:100A1300CB33CBCC33CC331930E7F2CCCBCA335006
:100A2300147004EA30E00DE4CA3ACACB3BCBCC3CA9
:100A3300CC500209C3E913C6CC182313C6CB18C67E
:100A4300CA18C6F922852283852182E0C0E0A3E08B
:100A5300F9A3E0FAA3E0FBA37808E0F608A3DFFA22
:100A6300E0FCA3E0FDA3E0FEA3E0FFA3E0C0E0A35E
:100A7300E0C0E0A3E0F5D0A3E0F520A3E0A3F5F008
:100A830010AF088583228582218008858322858291
:100A930021D2AFD082D083D0E0F8D0E03275F0100D
:100AA3008E248F258582298583288521828522832B
:100AB300E0CEA3E0CF852982852883EBC9EAC8ED80
:100AC300CBECCAC3E833C8E933C9EA33CAEB33CB47
:100AD300C3EA9EF527EB9FF526B35004AB26AA275E
:100AE300EC33CCED33CDD5F0DAAE24AF25221210A2
:100AF30076601C121085601712111C7007121113F7
:100B03007001D322C0D01211137006D0D0B322C308
:100B13002233D0D0501430E0F6C3E7960809E796A5
:100B23000809E7960809E796B32220E0D5E6970877
:100B330009E6970809E6970809E697B322D083D018
:100B430082ECC0E0EDC0E0E493A3FCE493A3FDEDED
:100B53004C600D120C18EC24FFFCED34FFFD80EF0C
:100B6300E493A3FCE493A3FDED4C600D120CB5ECF0
:100B730024FFFCED34FFFD80EFD0E0FDD0E0FCE48A
:100B830093A3C0E0E493C0E022852283852182E021
:100B9300A3FEE0A3F5207808E0A3F608DFFAE0A3BC
:100BA300FFE0A3C0E0E0A3C0E0E0A3C0E0E0A3C097
:100BB300E0E0A3C0E010AF0885822185832280088E
:100BC300858221858322D2AFD083D082020DB0D01B
:100BD30083D082E9C0E0E493A3C386F0C5F095F027
:100BE300F908E493A386F0C5F095F0700BE493A3A2
:100BF300C3994005E9048002A3E475F002A42582A9
:100C0300F582E5F03583F583D0E0F9E493A3C0E002
:100C1300E493C0E022C0E0C3E49396087401939682
:100C230018400FE493667008087401936618700007
:100C33007019A3A3C3E49396087401939618A3A30E
:100C4300400DD0E0D0E0D0E0020B7CA3A3A3A3A38C
:100C5300A3D0E0227404800474028000CCC0E0EDD1
:100C6300C0E0E521C39CCCAD2250011D10AF068C22
:100C7300218D2280068C218D22D2AF120D2CD0E043
:100C8300FDD0E0FC2274028000CCC0E0EDC0E0E5C2
:100C930021C39CCCAD2250011D10AF068C218D22A7
:100CA30080068C218D22D2AF120D0AD0E0FDD0E058
:100CB300FC22C0E0C0F088F0E49366700808740179
:100CC3009366187000A8F0A3A3700BD0F0D0E0D007
:100CD300E0D0E0020B7CA3A3D0F0D0E022D083D0FD
:100CE30082CCC0E0E493A36006120D8B1470FAE487
:100CF30093A36006120EAF1470FAD0E0FCE493A342
:100D0300C0E0E493C0E022CAC0E0E493A3C582CC70
:100D1300C582C583CDC583F0A3C582CCC582C583F7
:100D2300CDC583DAE5D0E0CA22CAC0E0E0A3C5821C
:100D3300CCC582C583CDC583F0A3C582CCC582C58E
:100D430083CDC583DAE6D0E0CA22700908080822F9
:100D53006016181818C6C333C608C633C608C63388
:100D6300C608C633C6D5E0EA22C008C3E096F50834
:100D730008A3E096420808A3E096420808A3E09679
:100D830045087001D3D00822C0E0E493A3D39C505C
:100D930010E493A3C39C400AD0E0D0E0D0E0020C5F
:100DA300FDA3A3A3D0E022C09FF59FE473D09F22AD
:100DB300D083D082C09FE493C0E0740193C0E074F9
:100DC3000293F59F22C0E0C0D0E8C0E0A8A8D2AF4C
:100DD300C2C7752300E8A2E792AFD0E0F8D0D0D025
:100DE300E0327404800A7403800674028002740182
:100DF300C0E0F404120E1BD0E01210C12200C0D0D8
:100E0300252110AF08F521500C05228008F521504B
:100E1300020522D2AFD0D0222521F58210AF08F5EA
:100E230021400C15228008F52140021522D2AF85FE
:100E3300228322BB0102E722C082C08389828A8384
:100E4300BB0003E08002E493D083D08222601608C3
:100E53000808C6C313C618C613C618C613C618C6D1
:100E630013C6D5E0EA22C3E0C696F608A3E0C69609
:100E7300F608A3E0C696F608A3E0C696F622252157
:100E8300F8E43522F9222521FAE43522FB22252133
:100E9300FCE43522FD22252110AF08F521400C1575
:100EA300228008F52140021522D2AF22C0E0E4934C
:100EB300A36C7009D0E0D0E0D0E0020CFDA3A3D076
:100EC300E022E066701008A3E066700A08A3E066FB
:100ED300700408A3E06622C3E09608A3E09608A383
:100EE300E09608A3E096A2D265D03322C3E7960822
:100EF30009E7960809E7960809E796A2D265D03371
:100F030022E76670100809E766700A0809E7667049
:100F1300040809E76622191919E70947097009E75F
:100F230027097005E733F4220922C3E096F008A3EA
:100F3300E096F008A3E096F008A3E096F022C3E65B
:100F430097F60809E697F60809E697F60809E6977B
:100F5300F622181818E60846087009E626087005F0
:100F6300E633F4220822C3E49396087401939608A7
:100F730074029396087403939622E026F608A3E07E
:100F830036F608A3E036F608A3E036F622E627F69F
:100F93000809E637F60809E637F60809E637F622C0
:100FA300700422600D18C6C333C608C633C6D5E025
:100FB300F41822E056F008A3E056F008A3E056F038
:100FC30008A3E056F022E657F60809E657F60809A3
:100FD300E657F60809E657F622E026F008A3E036BE
:100FE300F008A3E036F008A3E036F022E056F60856
:100FF300A3E056F608A3E056F608A3E056F622E669
:1010030047F60809E647F60809E647F60809E647FA
:10101300F622E4C396F608E496F608E496F608E4A6
:1010230096F622600D08C6A2E713C618C613C6D5E6
:10103300E0F322C6F4C608C6F4C608C6F4C608C65A
:10104300F4C622C3E09608A3E09608A3E09608A39B
:10105300E09622C3E7960809E7960809E796080988
:10106300E7962275D00075813F7521017522030033
:101073000208C5E6084608C3134608336002E63390
:10108300F422E7094709C3134709336002E733F43E
:1010930022600C08C6C313C618C613C6D5E0F422D3
:1010A300E6F008A3E6F008A3E6F008A3E6F022E0E2
:1010B300F608A3E0F608A3E0F608A3E0F622CAC008
:1010C300E0E6F0A308DAFAD0E0FA22E0FAA3E0FBC4
:1010D300A3E0FCA3E0FD22EAF0A3EBF0A3ECF0A372
:1010E300EDF022E0F8A3E0F9A3E0FAA3E0FB22E8A5
:1010F300F0A3E9F0A3EAF0A3EBF022E5C754F84428
:1011030001F5C77901222521F582E43522F58322F1
:10111300E72719471947194722E62618461846189C
:101123004622C2AF75D69F02000022120DB334D5FA
:1011330002120DB3E0D502120DB339D902120DB369
:10114300B7DB02120DB363DC02120DB393DC0212A0
:101153000DB3F8DC02120DB38CDD02120DB33FDECA
:1011630002120DB390DE02120DB3D4DE02120DB3E0
:101173006EDF02120DB3DBDF02120DB30AE00212BF
:101183000DB310E102120DB334E102120DB388E185
:1011930002120DB35CE202120DB387E402120DB327
:1011A30035E502120DB3AAE702120DB32FE80212BE
:1011B3000DB3A6EA02120DB3DCEC02120DB320ED5F
:1011C30002120DB379EE02120DB38CEE02120DB3BF
:1011D300D1EE02120DB39DF002120DB3A0B70312AC
:1011E3000DB3DFB703120DB34BB803120DB3D1B870
:1011F30003120DB353B903120DB3B6B903120DB3F2
:101203002DBB03120DB30FBD03120DB3D1BD0312DA
:101213000DB392BF03120DB322C103120DB322C249
:1012230003120DB37AC203120DB34EC303120DB3EF
:1012330016C403120DB32EC503120DB329C6031230
:101243000DB391C703120DB374CA03120DB38FCB41
:1012530003120DB3D2CC03120DB3B3CD03120DB3EE
:1012630059CF03120DB3FCD003120DB34AAA0412D3
:101273000DB367AB04120DB3BCAB04120DB30EACCC
:1012830004120DB37DAC04120DB379AD04120DB38A
:1012930002AE04120DB334AE04120DB35BAE0412EE
:1012A3000DB382AE04120DB3E4AE04120DB3B6AFA8
:1012B30004120DB348B004120DB379B104120DB387
:1012C300A5B104120DB3ACB104120DB301B20412F3
:1012D3000DB32EB204120DB3ECB204120DB334B33A
:1012E30004120DB35DB404120DB39DB404120DB317
:1012F300DEB404120DB31AB504120DB307B604120B
:101303000DB32CB604120DB352B604120DB393B63B
:1013130004120DB3AEB604120DB308B704120DB325
:101323000FB904120DB355B904120DB383B90412E6
:101333000DB3E7B904120DB304BB04120DB300805F
:1013430003120DB36A8003120DB3748003120DB33D
:10135300698103120DB3D88103120DB353820312B3
:101363000DB3BE8203120DB3298B03120DB37C8B15
:1013730003120DB3B28D03120DB3C58D03120DB35A
:10138300988E03120DB3E28E03120DB3328F031244
:101393000DB3949003120DB3109103120DB3B692D3
:1013A30003120DB3AF9403120DB3F89403120DB3EC
:1013B3007B9503120DB3049603120DB32B96031200
:1013C3000DB3BF9603120DB3F79703120DB3E9994B
:1013D30003120DB3549C03120DB38BFF01120DB313
:1013E300CAFF01120DB384F101120DB300F2011211
:1013F3000DB333F201120DB361F201120DB39FF27B
:1014030001120DB3DCF401120DB3FBF401120DB3A1
:1014130040F501120DB3D6F501120DB322F60112F8
:101423000DB3B6F601120DB38FF701120DB3EBF73F
:1014330001120DB349F801120DB3BCF801120DB33B
:1014430000F901120DB358F901120DB37AF9011223
:101453000DB30AFA01120DB39BFA01120DB3E7FAA9
:1014630001120DB313FB01120DB354FB01120DB3A3
:10147300EAFC01120DB3D6FD01120DB3B1FE011248
:101483000DB325C505120DB328C505120DB386C5C9
:1014930005120DB3DAC505120DB3FCC505120DB364
:1014A300F6C705120DB307C805120DB3A5C805127B
:1014B3000DB3B0C805120DB3CAC805120DB3FBFFB7
:1014C30001120DB3E6FF02120DB3D9C805120DB315
:1014D300E9C805120DB3FEC805120DB3B2C9051252
:1014E3000DB3E1FE02120DB365FF02120DB3CDFF82
:1014F30002120DB3ECBE05120DB314BF05120DB3EA
:1015030037BF05120DB3ACBF05120DB3F6BF0512FD
:101513000DB321C005120DB338C005120DB315A4C8
:1015230005120DB323A405120DB39CA405120DB32C
:1015330075A505120DB338A705120DB37DA70512C6
:101543000DB3A2A705120DB3F87F00120DB3D5FD9D
:1015530004120DB30DFE04120DB35BFF04120DB3A1
:10156300DFFF04120DB3E77F00120DB3EA7F001211
:101573000DB3F67F00120DB3E38C05120DB30F8D7F
:1015830005120DB3798F05120DB3B98F05120DB383
:10159300F58F05120DB3099005120DB322900512B4
:1015A3000DB3149105120DB3C79105120DB3DB9161
:1015B30005120DB37B7E00120DB39F7E00120DB397
:1015C300B87E00120DB3F67E00120DB3267F001213
:1015D3000DB3537F00120DB35D7F00120DB3C37FB4
:1015E30000120DB3C67F00120DB3D07F00120DB3EE
:1015F300DD7F00120DB33FB405120DB35FB40512C6
:101603000DB39EB405120DB3BCB405120DB3D7B41C
:1016130005120DB33DB505120DB349B505120DB352
:10162300A6B505120DB3B5B505120DB3D9B505129F
:101633000DB39AB605120DB3A7B605120DB3B8B61E
:1016430005120DB3AFCC05120DB3F7CC05120DB3D4
:1016530023CD05120DB3319205120DB38B930512F1
:101663000DB3999305120DB3AC9305120DB3C1934A
:1016730005120DB3D69305120DB3E99305120DB3FD
:10168300659405120DB3CA9405120DB35295051254
:101693000DB3CA9505120DB3A39605120DB3B396F8
:1016A30005120DB3C29605120DB314CB05120DB37B
:1016B30038CB05120DB360CB05120DB388CB0512E1
:1016C3000DB3E6B605120DB30DB705120DB32BB767
:1016D30005120DB39AB705120DB36CB105120DB314
:1016E30085B105120DB391B105120DB3A5B1051264
:1016F3000DB3C3B105120DB3CDB105120DB3D7B1FF
:1017030005120DB3EAB105120DB370B205120DB394
:10171300E5B205120DB314B305120DB362B305128E
:101723000DB3B1B305120DB3CCB305120DB3D6B3DC
:1017330005120DB3E7B305120DB32AB405120DB3A9
:101743002ECD05120DB379CD05120DB3D3EC0412D2
:101753000DB3FFEC04120DB31CED04120DB32FED0A
:1017630004120DB34AED04120DB3A4ED04120DB32C
:10177300D2ED04120DB3E2F104120DB340F30412DF
:101783000DB372F304120DB3D5F304120DB341F587
:1017930004120DB369F504120DB37EF504120DB3F3
:1017A3008EF504120DB3CEF504120DB310F6041228
:1017B3000DB320F604120DB3F5C205120DB30FC31A
:1017C30005120DB337C305120DB350C305120DB384
:1017D30074C305120DB392C305120DB3A9C3051249
:1017E3000DB3D7C305120DB3F2C305120DB3B8C9B8
:1017F30005120DB3FCC905120DB3B5A705120DB340
:10180300C5A705120DB3CAA805120DB3FCA805128E
:101813000DB32CA905120DB34FA905120DB366A97B
:1018230005120DB3A0A905120DB305AA05120DB338
:1018330047AA05120DB38EAA05120DB3BBAA051252
:101843000DB3E6AA05120DB34EC005120DB360C069
:1018530005120DB374C105120DB377C105120DB393
:1018630024C605120DB35AC605120DB372C605126E
:101873000DB3B4C605120DB3C4C605120DB308C724
:1018830005120DB3008005120DB3438005120DB38D
:10189300A88005120DB3C78005120DB36981051227
:1018A3000DB3728105120DB3C38105120DB3EC8123
:1018B30005120DB3F98105120DB36B8205120DB339
:1018C300F98205120DB33E8305120DB3778305121A
:1018D3000DB3DC8305120DB3058405120DB37C84AF
:1018E30005120DB3CB8405120DB3088505120DB394
:1018F3003D8505120DB34F8505120DB361850512A4
:101903000DB3808505120DB3898505120DB34A8683
:1019130005120DB38D8605120DB3CB8605120DB3DB
:10192300A4C105120DB3E4C205120DB385CD051292
:101933000DB33BB905120DB371B905120DB3B9B9A6
:1019430005120DB312BB05120DB32F9604120DB37E
:10195300559704120DB3919704120DB34F990412C6
:101963000DB37D9904120DB3E79B04120DB3279CAD
:1019730004120DB3C99D04120DB35F9E04120DB37F
:10198300B99E04120DB3499F04120DB38D9F041227
:101993000DB3CF9F04120DB334A104120DB3B4A23F
:1019A30004120DB3F5A404120DB323A504120DB351
:1019B3004FA504120DB358A504120DB3B5A5041217
:1019C3000DB34EA604120DB365A904120DB3EBA912
:1019D30004120DB36ACA05120DB382CA05120DB300
:1019E3008CCA05120DB3E2CA05120DB36D9B051225
:1019F3000DB3839B05120DB3249C05120DB3639C99
:101A030005120DB3809C05120DB3B19C05120DB3E5
:101A1300FE9C05120DB3329D05120DB36D9D05128B
:101A23000DB36A9F05120DB3D09F05120DB325C4E4
:101A330005120DB384C405120DB3C2C405120DB350
:101A430003C505120DB350F604120DB366F6041266
:101A53000DB31AF704120DB349F804120DB30FF9BD
:101A630004120DB3ACF904120DB3E7F904120DB36C
:101A7300F7F904120DB31EFA04120DB370FA04122F
:101A83000DB3D9FB04120DB3DEFB04120DB300FC3E
:101A930004120DB36BC401120DB377C401120DB35D
:101AA300D9C401120DB3E3C401120DB372C50112FF
:101AB3000DB3AEC501120DB3A0C601120DB3B3C66B
:101AC30001120DB310C701120DB39EC701120DB35E
:101AD300EFC701120DB36FC801120DB353CA011240
:101AE3000DB358CC01120DB352CD01120DB384CEF8
:101AF30001120DB3D6D001120DB319D201120DB3D9
:101B0300BED201120DB3B5D701120DB3ABD801127A
:101B13000DB341D901120DB366D901120DB303DA26
:101B230001120DB320DA01120DB340DA01120DB325
:101B3300AEDA01120DB3CBDA01120DB3F9DA0112E9
:101B43000DB391DC01120DB3B2DC01120DB358DDFC
:101B530001120DB3A0DD01120DB300DE01120DB3AE
:101B6300A7DE01120DB30CDF01120DB371DF0112F9
:101B73000DB322E001120DB391E001120DB3CCE0DD
:101B830001120DB340E101120DB38BE201120DB34B
:101B93001BE401120DB3BAE401120DB3FAE601120C
:101BA3000DB35CE701120DB38AE701120DB3A3E98C
:101BB30001120DB350EC01120DB363ED01120DB31D
:101BC30054F202120DB368F202120DB3AFF2021215
:101BD3000DB3A1F402120DB3C1F402120DB3E1F47B
:101BE30002120DB32CF602120DB31BF902120DB340
:101BF300B0FB02120DB33DFC02120DB3C3FD021282
:101C03000DB343FE02120DB3D0FE02120DB35EBD3F
:101C130005120DB31ABE05120DB3BCBE05120DB3EA
:101C2300F78605120DB3848705120DB3FD870512E0
:101C33000DB3988805120DB3E88805120DB3BC895E
:101C430005120DB3358B05120DB32FC705120DB356
:101C530028EA03120DB357EA03120DB3CFEA0312B6
:101C63000DB3DEEB03120DB33AEC03120DB3C0ED6B
:101C730003120DB3DCED03120DB32EEE03120DB3FD
:101C830071EE03120DB384EE03120DB3DCEE0312F7
:101C93000DB39EEF03120DB31AF003120DB351F0FF
:101CA30003120DB389F003120DB31BF203120DB32C
:101CB300FAF203120DB348F403120DB32BF503121A
:101CC3000DB3B7F503120DB3F7F503120DB316F603
:101CD30003120DB361F603120DB377F603120DB3BE
:101CE3008EF603120DB327F703120DB3ADF70312EC
:101CF3000DB308F803120DB3FDE704120DB3DEFABA
:101D030003120DB3F7FB03120DB33DFC03120DB326
:101D130032FD03120DB35AFD03120DB35DFD031221
:101D23000DB367FD03120DB383FD03120DB3FDFD68
:101D330003120DB336FE03120DB352FE03120DB39D
:101D43007EFE03120DB3A5FE03120DB3C9FE0312EB
:101D53000DB33AFF03120DB34DFF03120DB367FF2B
:101D630003120DB388FF03120DB3B7FF03120DB3B4
:101D730030CC05120DB391D402120DB37ACC0512F7
:101D83000DB3F8FF01120DB3008004120DB32380CD
:101D930004120DB3708104120DB3B98104120DB393
:101DA300258204120DB3838204120DB386820412BA
:101DB3000DB3D78204120DB34C8304120DB3D18338
:101DC30004120DB3D48304120DB3558404120DB35E
:101DD300968404120DB3828804120DB32C8A041264
:101DE3000DB37C8A04120DB3038E04120DB3368F28
:101DF30004120DB3B09004120DB34D9104120DB340
:101E0300389204120DB38D9404120DB30FBB041258
:101E13000DB3B9BB04120DB324BC04120DB33FBC04
:101E230004120DB3C4BC04120DB31EBD04120DB3D2
:101E330065BD04120DB3CCBD04120DB34BBF041228
:101E43000DB37AC004120DB302C104120DB30BC358
:101E530004120DB3B8C304120DB35CC404120DB362
:101E63002DC504120DB3E8C604120DB380C80412C5
:101E73000DB313C904120DB339CA04120DB36D9C0B
:101E830003120DB3D09C03120DB3189D03120DB3AF
:101E93005C9D03120DB3B79D03120DB3149E031281
:101EA3000DB34F9E03120DB3D19E03120DB32B9F9F
:101EB30003120DB3A9A003120DB329A103120DB38D
:101EC30084A103120DB39EA103120DB3BFA103128C
:101ED3000DB319A203120DB395A403120DB3B4A449
:101EE30003120DB3A4A503120DB3D7A603120DB3AA
:101EF30056A703120DB392A703120DB301A8031241
:101F03000DB3B6A803120DB38EAA03120DB395AB8E
:101F130003120DB30DAD03120DB303AF03120DB3D3
:101F230079B103120DB353B303120DB314B40312F7
:101F33000DB38CB403120DB3A3B403120DB39AB54E
:101F430003120DB38EB603120DB3FDB603120DB318
:101F53007AAE05120DB3D1AF05120DB390B00512D1
:101F63000DB3F8B005120DB33EAB05120DB359AB6B
:101F730005120DB39DAB05120DB3C3AB05120DB323
:101F8300EAAB05120DB302AC05120DB3A4AC0512F6
:101F93000DB3B9AC05120DB3CEAD05120DB3E9AD5A
:101FA30005120DB3F2AD05120DB3FBAD05120DB362
:101FB30004AE05120DB30EAE05120DB334AE051209
:101FC3000DB3F39605120DB3FF9A05120DB3049BDF
:101FD30005120DB3069B05120DB3EBBB05120DB332
:101FE300DACD05120DB3DD9F05120DB3D6FF031233
:101FF3000DB3ADCB05120DB3D7CB05120DB3FEACAC
:1020030002120DB331AD02120DB39DAD02120DB329
:1020130038AE02120DB3D5AE02120DB31AAF0212CF
:102023000DB33CAF02120DB355AF02120DB37BAF2C
:1020330002120DB39DAF02120DB3DBAF02120DB34B
:102043001FB002120DB341B002120DB3A3B00212BE
:102053000DB36AB102120DB321B202120DB393B2E2
:1020630002120DB35EB302120DB3B1B302120DB37C
:1020730017B402120DB351B402120DB3A3B402127A
:102083000DB311B502120DB37CB502120DB37FB5BA
:1020930002120DB300B602120DB397B602120DB3BE
:1020A300F8B602120DB3E8B702120DB307B8021265
:1020B3000DB36BB902120DB378B902120DB384BA22
:1020C30002120DB391BA02120DB39ABA02120DB3F2
:1020D30072BC02120DB38CBD02120DB305BE021207
:1020E3000DB377BE02120DB399BE02120DB32DBF0D
:1020F30002120DB301C102120DB3D8C402120DB303
:10210300ECC402120DB3FCC402120DB306C50212D5
:102113000DB30FC502120DB318C502120DB322C5BC
:1021230002120DB34FC502120DB378C502120DB3DF
:1021330083C502120DB3A7C502120DB3CBC502129C
:102143000DB335C602120DB37BC602120DB398C68A
:1021530002120DB315C702120DB34CC702120DB311
:102163008BC702120DB3D8C702120DB35EC8021299
:102173000DB32CCA02120DB3C1CA02120DB3A5CB03
:1021830002120DB30CCE02120DB365CE02120DB3C3
:10219300AFCE02120DB30AD002120DB348D0021211
:1021A3000DB39AD002120DB34FD102120DB3FED16B
:1021B30002120DB33BD202120DB3D0D202120DB3F1
:1021C3003CD302120DB3B03100120DB3E231001251
:1021D3000DB3103200120DB3E63300120DB3C63443
:1021E30000120DB31E3500120DB3593600120DB394
:1021F300A53600120DB3CE3900120DB3C13C001247
:102203000DB3113E00120DB3A73E00120DB3B33E42
:1022130000120DB3E53E00120DB3684000120DB37A
:10222300194200120DB3AD4200120DB3F042001279
:102233000DB36E4300120DB38B4300120DB3BB43BA
:1022430000120DB3F04300120DB3C04400120DB3DE
:10225300694500120DB3EF4700120DB30F49001289
:102263000DB3FA4900120DB37C4A00120DB3B04E00
:1022730000120DB3ED4E00120DB3454F00120DB316
:10228300784F00120DB3E24F00120DB31850001235
:102293000DB3A35000120DB3FB5000120DB3D25176
:1022A30000120DB38B5200120DB3265300120DB35F
:1022B3002E5600120DB34A5700120DB3ED5A0012F9
:1022C3000DB3E15B00120DB3E45B00120DB3135CBD
:1022D30000120DB3195E00120DB3F25E00120DB3BE
:1022E300355F00120DB38B6000120DB3CA6000128C
:1022F3000DB3536100120DB3876100120DB34C622D
:1023030000120DB3646400120DB3D56400120DB353
:10231300156500120DB3A36500120DB3C566001257
:102323000DB3876700120DB38E6900120DB3A66952
:1023330000120DB3BA6900120DB3F26900120DB3A6
:10234300206A00120DB39F6B00120DB3C46C001210
:102353000DB3216D00120DB3D36D00120DB3FA6DE1
:1023630000120DB3C16E00120DB3596F00120DB3FD
:102373007F7100120DB3B47100120DB31772001206
:102383000DB3467300120DB3EE7300120DB31F7439
:1023930000120DB3377400120DB3C67400120DB3DF
:1023A3007A7700120DB3527900120DB36E790012D1
:1023B3000DB38A7900120DB3587A00120DB34B7E18
:1023C30000120DB3597E00120DB3038701120DB332
:1023D300358701120DB3248B01120DB3708B0112DB
:1023E3000DB3B68B01120DB3588C01120DB3B48C1F
:1023F30001120DB3F98C01120DB3408E01120DB30E
:10240300548F01120DB3439301120DB3C7930112FD
:102413000DB3D49401120DB3309501120DB320976F
:1024230001120DB3959701120DB39F9701120DB3CE
:10243300AC9701120DB3D79701120DB3BE980112D9
:102443000DB3689901120DB3E69901120DB30B9AFE
:1024530001120DB3349A01120DB3569A01120DB342
:10246300B69C01120DB37C9D01120DB3C19D0112E7
:102473000DB33E9E01120DB3EF9E01120DB3219FCA
:1024830001120DB3679F01120DB3A39F01120DB388
:10249300F39F01120DB347A001120DB39DA00112CA
:1024A3000DB3E9A001120DB356A101120DB3D1A1D1
:1024B30001120DB39CA301120DB39CA401120DB321
:1024C300C1A501120DB300A901120DB313AC011282
:1024D3000DB3D0AC01120DB314AD01120DB3C4AEE4
:1024E30001120DB3D8AE01120DB3E2AE01120DB35A
:1024F300ECAE01120DB3F8AE01120DB314AF01121D
:102503000DB3BFAF01120DB3FEAF01120DB308B08F
:1025130001120DB312B001120DB382B001120DB34B
:10252300CDB001120DB3E2B101120DB33EB20112EF
:102533000DB3BFB201120DB37EB301120DB387B455
:1025430001120DB3BBB501120DB3A9B601120DB340
:10255300C1B601120DB31CB701120DB326B7011298
:102563000DB344B701120DB38CB701120DB3B3B75A
:1025730001120DB34EB801120DB314B901120DB30C
:10258300A6B901120DB320BA01120DB33ABB011261
:102593000DB3E7BB01120DB363BC01120DB371BDE3
:1025A30001120DB3C1BD01120DB325BE01120DB34E
:1025B30087BE01120DB3B5BE01120DB3D9BE011210
:1025C3000DB30EBF01120DB33FBF01120DB372BFA6
:1025D30001120DB392BF01120DB3FABF01120DB375
:1025E300EEC001120DB349C101120DB372C1011244
:1025F3000DB3FAC101120DB37DC201120DB3A8C20E
:1026030001120DB38DC301120DB361D704120DB3C3
:1026130099D704120DB3BAD704120DB3FCD7041221
:102623000DB35ED804120DB368D804120DB378D875
:1026330004120DB3B3D804120DB3E5D804120DB3CD
:10264300C5DC04120DB3B2DE04120DB398E004121C
:102653000DB32FE104120DB3D1E104120DB32481A4
:1026630002120DB3A28102120DB3FE8102120DB349
:10267300498202120DB3648202120DB38F820212D9
:102683000DB3AC8202120DB3B88202120DB34F84A4
:1026930002120DB3688402120DB3ED8402120DB35E
:1026A300008502120DB31F8502120DB3C3850212FA
:1026B3000DB3448702120DB3F78802120DB38D894F
:1026C30002120DB3908902120DB3008A02120DB3E8
:1026D3001E8A02120DB3B58A02120DB3FD8A0212CD
:1026E3000DB3008B02120DB3C68B02120DB3338CE4
:1026F30002120DB3598C02120DB3E48C02120DB306
:10270300028D02120DB3488D02120DB3FC8D02121D
:102713000DB3468E02120DB3758E02120DB3D28E17
:1027230002120DB3078F02120DB3338F02120DB3D2
:10273300418F02120DB38E8F02120DB3FE8F021260
:102743000DB3479002120DB3939002120DB3BF90D5
:1027530002120DB3CA9002120DB3E89002120DB328
:10276300D39102120DB3DD9102120DB3189202122E
:102773000DB3289202120DB3319202120DB385925A
:1027830002120DB3999202120DB3C89302120DB344
:10279300DB9302120DB3F29302120DB307940212EC
:1027A3000DB3959402120DB3DA9402120DB366952C
:1027B30002120DB3719502120DB3B39602120DB34B
:1027C300CE9602120DB31A9702120DB38997021215
:1027D3000DB3C29702120DB3DC9702120DB31E980C
:1027E30002120DB3EE9A02120DB39B9B02120DB3AC
:1027F300089C02120DB3489E02120DB3609E021292
:102803000DB3639E02120DB36F9E02120DB3839E2E
:1028130002120DB38B9E02120DB3BE9E02120DB3B4
:10282300C09F02120DB347A002120DB3B7A002124C
:102833000DB339A102120DB3FAA102120DB319A2FD
:1028430002120DB3BAA202120DB317A302120DB3F3
:102853001AA302120DB347A302120DB35CA3021213
:102863000DB3D0A302120DB31FA502120DB325A6FB
:1028730002120DB3B0A602120DB3CBA702120DB311
:1028830093A802120DB3C4A802120DB3E7A8021253
:102893000DB3F0A802120DB31FA902120DB3AFA915
:1028A30002120DB365AA02120DB3DAAA02120DB316
:1028B30081AB02120DB3F6AB02120DB32DAC0212B3
:1028C3000DB36BAC02120DB3A1AC02120DB3FDE656
:1028D30004120DB316E604120DB306E404120DB38D
:1028E30014E304120DB3B2E204120DB314EA03129B
:1028F3000DB3E5E903120DB3DBE903120DB370E980
:1029030003120DB3A1E703120DB35FE703120DB377
:102913004BD402120DB316D402120DB363E60312A5
:102923000DB337E603120DB3E3D302120DB3CED3C7
:1029330002120DB3EEE503120DB32FE503120DB32F
:102943001BE203120DB38DDF03120DB35ADF031223
:102953000DB301DF03120DB394DE03120DB353DE87
:1029630003120DB38CDD03120DB326DD03120DB379
:10297300C5DC03120DB365DC03120DB33CDB03129C
:102983000DB3D0DA03120DB328DA03120DB323DA31
:1029930003120DB317DA03120DB34AD603120DB3A4
:1029A30018D603120DB3A3D302120DB38DEC041288
:1029B3000DB359EC04120DB302EC04120DB370EA1B
:1029C30004120DB3C2E904120DB325E904120DB3C9
:1029D300C2D503120DB363D503120DB324D503126D
:1029E3000DB307D503120DB31BE904120DB3FCD4C9
:1029F30003120DB3CBD403120DB3ADD203120DB337
:102A030020D203120DB3B4E804120DB3DCD10312C8
:102A13000DB33CCC05120DB3ADD103120DB3FBD6F0
:102A230004120DB3CED604120DB3A5D604120DB302
:102A33007DD604120DB314D604120DB3F4D50412CB
:102A43000DB3BFD504120DB333D204120DB317D097
:102A530004120DB3FECD04120DB371CD04120DB3E8
:102A630027CD04120DB3D5CC04120DB3A0E8041284
:102A73000DB378CB04120DB348F80300000080FBBC
:102A8300E4738F000100DE1B87000100DC1B3500AF
:102A93000400A51B25000200A91B26000200AB1B96
:102AA30027000200AD1B28000100B71B290001000D
:102AB300B81B840004000F19860001002E1B2A0096
:102AC3000100B91B2B000100BA1B2C000100BE1B27
:102AD3002D0008001B192E000100BF1B2F00010051
:102AE300C01B30000100C11B31000100C21B3200BA
:102AF3000100231933000100241934000100C31B12
:102B030036000100251938000100C41B39000100FB
:102B1300BD1B83000200DA1B63000100321964004D
:102B23000100BB1B65000100BC1B6D0001003319D4
:102B330071000800131966000100D91B430001004E
:102B4300CA1B44000200CB1B45000100CD1B4600FD
:102B53000200CE1B470008002A1948000100D01BC1
:102B63004B000100D11B04000100DD1BA10001008B
:102B7300E11B37000100E01B88000100DF1B3C0064
:102B8300010026193D000100C51B49000200D21BAC
:102B93006700010034194D000200D41B4E000100F0
:102BA300D61B4F000200D71B3E000100C91B51007A
:102BB3000100271952000100C71B53000100C81B65
:102BC3005400010028190000000000000700000065
:102BD30030230417070010003023F016070000000D
:102BE30030230517070010003023F11607000000FB
:102BF30030230617070010003023F21607000000E9
:102C030030230717070010003023F31607000000D6
:102C130030230817070010003023F41607000000C4
:102C230030230917070010003023F51607000000B2
:102C330030230A17070010003023F61607000000A0
:102C430030230B17070010003023F716070000008E
:102C530030230C17070010003023F816070000007C
:102C630030230D17070010003023F916070000006A
:102C730030230E17070010003023FA160700000058
:102C830030230F17070010003023FB160700000046
:102C930030231017070010003023FC160700000034
:102CA30030231117070010003023FD160700000022
:102CB30030231217070010003023FE160700000010
:102CC30030231317070010003023FF1607000000FE
:102CD30030231417070010003023001707000000EB
:102CE30030231517070010003023011707000000D9
:102CF3003023161707001000302302170001363661
:102D030001010001020100010301000104010606A3
:102D130005020000070100340801000F0904010146
:102D23000D0100FF0E08000017020000190100FF4B
:102D33001A0100011B0100FE1C0100081D02000016
:102D43001F01000120010001210200002301000FE7
:102D5300240200002601000127010008280200FFC9
:102D63002A0100072B0102402C0100002D01000164
:102D73002E0100012F0100FF30010B1D310800005F
:102D83003A0100083B01000F3C0100013D0100FF37
:102D93003E04000042040000460400004A04000010
:102DA3004E04000052040000560400005A040000C0
:102DB300000001002001FD86000002002001FF86C3
:102DC30000000300200101870000000020010287AA
:102DD300000004004201E385000005004201AD85C7
:102DE30000000700300100870000FDFF2101F98684
:102DF3000000060042014B85000000402001FD86D3
:102E03000100200020058C1B0100210020058D1BE3
:102E13000700000030230317070010003023EF16CC
:102E230001037103010301030103010301032203EE
:102E33000203010310030003000300030003000364
:102E430000030003420300032403060300030003FB
:102E530004031203250323032503230304030403A9
:102E630000030003000344030003000323030003E0
:102E730065032100350381030003050300030003F9
:102E83000003000325032303010171010101010173
:102E930011010101310101010101800110016101F1
:102EA3003B001400630173017201620143010001DD
:102EB300130106013D013500040112010001000167
:102EC3000001000104010401330133013C01440109
:102ED3003201360000010001650100013500810166
:102EE3000001050182018301000103027102300127
:102EF3006002110270020102020202028002100249
:102F030061023A00410063027302720262024302E9
:102F1300000213023800000200020402120200023F
:102F230000020002000204020402370037003C02E0
:102F33004402000239000002000265020002350269
:102F43008102000205028202830200020300710073
:102F53003001600011007000310220035004800032
:102F6300100061000000140063007300720062002F
:102F730043000000130006000000000004001200DC
:102F830000000000000000000400040037003700C8
:102F93003C02440000000000000000006500000047
:102FA30035008100000005000000830000003600AA
:102FB3000100060000000F000000000000000000F8
:102FC3000000000003FFFF00000403FFFF0000FFF9
:102FD300FF0FF4010005C4040320000100000B00EF
:102FE3000000000000000003010F000000000000CB
:102FF30000000000000000000000000000000000CE
:103003000000000000000000000000007E1BA81B61
:10301300841BB21A8A1BAE1B8A1BBA1B901BB21AE3
:103023008A1BAE1B961BB21A000000009C1BB21A2F
:103033000000000000000000A21BB21A0000000004
:10304300000000000000000000000000000000007D
:10305300000000000000000000000000000000006D
:1030630000000000000000000000361E0100361EB4
:103073000200AC1D0280A61D0300B21D0400B81D92
:103083000480BE1D0500C41D0600D01D3100E21DD5
:103093003300E81D3400EE1DFFFF000003000300B2
:1030A3000400080010001F003E007B00F600EC0146
:1030B300D703AF075D0FB91E713D000007ECFDFD9F
:1030C300FDECDCDCCCBCACAC9C9C8C7C7C6C6C5C8C
:1030D3005C5C4C4C3C3C2C2C1C1C03EAF5E5D5D524
:1030E300C5B5A5959585857575656555554545356D
:1030F3003525251515050A4224020C240518240735
:1031030012240CF4230D0024FF000000160F00000E
:103113000B150B020002220F3300000E0F5A6967D2
:10312300426565416C6C69616E63653039D0D1D29B
:10313300D3D4D5D6D7D8D9DADBDCDDDEDF30301611
:10314300181920231A1C1E3000034D4C4651181A1F
:10315300250502000119161816161823030030302E
:1031630017181921301B1D1F30003C40423A3F3FC6
:10317300392F47300C0E020B040B0A0708000F020D
:103183000402010101010902E803000000BE040A70
:103193000E0001000300E803FF04090E031E1E03D3
:1031A300100C04280828020C0508150A04C082C064
:1031B300831213E690195D74DEF0A37421F0901965
:1031C3005F74E4F0A37421F090196174EAF0A374BE
:1031D30021F090196374F0F0A37421F0025EEB7494
:1031E300F7120859901951E4F0E9901950F07C2A2C
:1031F3007D197A527B19121A40901BD0E090195A0C
:10320300F090195B7413F0A3741902417874F012EF
:103213000859EAFEEBFF5480700302338190195082
:1032230012420D700302337AEA241B125A78707C1F
:10323300EA241F125A7864137002A3E0706E8A8224
:103243008B831233CF90196B12500A750A00750BDA
:1032530000800D12404E1270EA121944AA0EAB0FF1
:10326300EA4B60488A828B83E0650C7004A3E065B7
:103273000D702C8A828B83A3A3A3A3E0F50EA3E096
:10328300F50FE50A450B8A828B83A3A3A3A360C32F
:10329300124350850A82850B83A3A3A3A380B78A15
:1032A3000A8B0B8A828B8312500680B4E508242A8A
:1032B300125A78FCE5082402F8E43509F9E8FAE93A
:1032C300FB90196B1234B6A3A3E06402703C8A82AC
:1032D3008B8312500A800B88828983A3A3A3A31232
:1032E3004350E849601F88828983E06A7003A3E042
:1032F3006B70E488828983A3A3E06C70DA901BD699
:10330300125DA8806BECF912221A85088285098365
:10331300E06401704FE50824181233B8120DF1125E
:103323006692120C57E50824121233B8120DF1E518
:1033330008124201120DEDE508240B126696120CD9
:103343005BE508241712419EE5082402FCE43509D5
:10335300FDE5082419FAE43509FB122A54740A120C
:103363000E00800CE064027007AA08AB091222F871
:10337300AA08AB091218A8EEFAEF6480802DEA546C
:1033830002600C901BE97401F0EA6402FA8023EAFC
:103393005408601A122214EA4B700B90196D1265CF
:1033A3006D7A081233C5EE6408FAEFFB80047A00E5
:1033B3007B00026D1CF582E43509F583E0F50A789C
:1033C3000A22FB901950E0F9121A1022A3A3E0F588
:1033D3000CA3E0F50D227B00901950E0F9121A04BA
:1033E30074042274F41208598A088B098A828B8325
:1033F300A3A3A3124E021241A938F583E02409FACC
:10340300126CB470030234A98A828B837402124E45
:10341300778508828509831234B6E8F0A3E9126937
:103423002E8A828B83A3A3A3A3A3A3A3A3F0E5085C
:103433002403F8E435091234AB1241A93AF583E0C9
:103443008E828B83A3A3A3A3F0EE2409FAE43FFBAC
:103453008E828F83A3A312605AF5838882E0A2E54C
:103463008E828F83A3A3A3A3A3500474018001E4DA
:10347300F0E5082403F582898312500AEA12558B7A
:103483003BF583126C7B120DE91241A83B12614C90
:103493008E828F83A3A3127E2A120E00EEFAEFFB15
:1034A300901950126D018016F98882F583E0FAA312
:1034B300E0CA221251A7A3A3227402120E007F04B2
:1034C300020B8C74F21208598A088B09ECFAEDFB93
:1034D300740E121109E0FC12141C8A0C8B0DAE0C35
:1034E300AF0DEA4F6030AC08AD0912140AE960264B
:1034F300AC08AD09EEFAEFFB121410E970148E82DA
:103503008F8312433DFAEFFB121404AA08AB09128E
:1035130014347900800279B40250F674F012085919
:1035230074F6120E99EAFEEBFF8C088D09750FB342
:10353300852182852283E4F0750E008002050E90BA
:1035430031A6E493F8E50EC3984003023645AA0E6C
:103553007B001214588A0A8B0BEA4B60E08A828B39
:1035630083A3A312364C28F0F8C3EE98EF940050CF
:10357300CC7C157D007900AA08AB09121890850A46
:1035830082850B83A3A3A3A3127127E0F8EEC3984C
:103593002925E0F8E433F9E50A28F582E50B39F546
:1035A30083A3A3A3A3A3A31241B3A3125BCF8A0C48
:1035B3008B0DAC0CAD0DAA08AB09121A40850A821B
:1035C300850B83A3E06401700A12669274011241B1
:1035D300C580447401120E91850A82850B831250B3
:1035E30008121440E9603D7409121109E0C0E012A9
:1035F3006692D0E0F07409121109E0640370137449
:1036030001120E91E508240BFAE43509FB121A4066
:1036130080127401121109124350E508125BB5358B
:10362300091270E8850A82850B8312669E1241C5D2
:10363300A3A3E0C0E0E5082414126696D0E0F07579
:103643000F00A90F740A026D19A3A3A3E0F8852143
:1036530082852283E02274F7120859E9FE8A828B5D
:1036630083A3A3A3A3A3A3E0540860338A828B8319
:10367300A3A3A3A3A3A3E0540260218A828B83A301
:10368300A3A3A3A3A3A3A3A3E06406600F74E96E9B
:10369300600A74CD6E600574F06E70031221FC0233
:1036A30049F574F012085974EF120E99740F121140
:1036B300091264517408121109E9F0ECFEEDFF746C
:1036C300051211091247BD1249E1A3E0F9121428AA
:1036D3007406121109126451740612110912561C50
:1036E30070030239601241EDE0FA7406121109E029
:1036F300F912213C1239C0F8A3E0F9E8497003023A
:103703003960EE2403F50AE43FF50BEE2406F508D1
:10371300E43FF5097C00850882F58312500A850A87
:1037230082850B83E0F912142E74031211091264BB
:1037330051850A82850B83E0C0E08521828522833F
:103743001239B9D0E0125731F985218285228312CB
:10375300405512528312364FFAA3E0CA2407F5826A
:10376300E43AF583E8F0A3E412645C2406F582E40A
:1037730038F583E41270F4124DF6120DE9EE12419E
:10378300A93F12614C7403121109124E022409124B
:103793007E24120E0074291211091271211234B001
:1037A3001257443A1270E8742B121109E0C0E085F5
:1037B30021828522831255E3D0E0F07402121109AD
:1037C300E4F0742512110978081210B20238B774A4
:1037D300031211091261148882F5831239A8A3A375
:1037E300A3125BDAFB121446850E82850F83A3EACC
:1037F300F0A3EBF074031211091239B9A31239A81B
:10380300125DE9A2E6500F850E82850F83A3A3A361
:10381300A3A3E0D2E1F07405121109E0706B850EE9
:1038230082850F83A31243509019ABE0687003A302
:10383300E0697055850E82850F83A3A3A312418887
:10384300750C00780C120DF17808120DE57429122D
:103853001109E0F50C780C120DF1742712110912FD
:103863000C5B9019B8120C5B7900741912110912D0
:103873004FDA122340740A120E00850E82850F83DD
:10388300A3A3A3A3A3E04405F07402121109E00467
:10389300FC8E828F831250048E828F83A3A3A3E0B6
:1038A300F912142E740312110912645174021211C5
:1038B30009E004F0740312110912561C60677402C4
:1038C300121109E0FA7406121109124350C3EA985F
:1038D300E49950517402121109123C928521828598
:1038E3002283E028F8A3E039F9E8240FF50EE43940
:1038F300F50F850E82F583E4F07403121109123972
:10390300B3640160030237D2740512110974011202
:103913006D07F07403121109125EDB123CB5E8F077
:10392300A3E90237F685218285228312500A1221E8
:1039330042852182852283120C5B7426121109E0D1
:10394300FD7425121109E0FC740A121109E0F9EE65
:10395300FAEFFB1221F67402120E0080438E828F5F
:1039630083A3A3A3E0C0E0740C121109D0E0F0120A
:103973006B70E0C0E0740D121109D0E0F074061210
:10398300110912561C7009740E12110974B98007BB
:10399300740E1211097410F07409120E8912233A6D
:1039A3007411026D19E0850E82850F83A3A3A322F0
:1039B300E0125709E022E0125709A3A322852182CE
:1039C300852283EAF0A3EB1256252274F0120859DC
:1039D30074E1120E997404121109E9F074031211BF
:1039E30009ECF07402121109EDF08A0E8B0F742F9B
:1039F3001211091233D1AA0CFB12213074011211D6
:103A030009E9F0AA0CAB0D1221367401121109E079
:103A13007003023C8D852182852283E480158E828A
:103A23008F83A3A3A3A3A3E0D2E3F08521828522FE
:103A330083E004126C5FF8852182852283E0C398BA
:103A43004003023C847401121109E07003023C84B8
:103A5300852182852283123C92E50C28F8E50D39F5
:103A6300F9E8240FFEE439FF8E82F583A3A3A3A311
:103A7300A3E0A2E040B5750800750A08750B007451
:103A830002121109E060037508207C087D007900AB
:103A93007405120E891218908E828F83E0603E9017
:103AA30019FBE06401701AE508D2E3F508750B1001
:103AB300123CA2121109E8F0A3E9125ACD74FF8057
:103AC3007643080C750A0C8E828F83A3123CAD12C9
:103AD30070EA740512110974FFF0A3805A7404127A
:103AE3001109E06009E508D2E6F508750A0A8E8235
:103AF3008F83A3E064FE7003A3E0F47030741212AA
:103B0300110974041266BCF8741D121109E8124EEF
:103B1300777412120E891220587D007C007900748C
:103B230015121109AA82AB83121E1E800B123CA22E
:103B3300121109E8F0A3E9F07407121109E508F07E
:103B43001241E4C0E07409121109D0E0F0740A12C2
:103B530011097401F07405120E891222FE741112F8
:103B63001109E06003023C62740D12110912572C13
:103B73008E828F83A3A3A3A3F0740D121109124E97
:103B830045E50AF0A3E50BF07403121109E0C0E068
:103B9300124DD6D0E0125DE960119019FBE0C0E050
:103BA300740D121109124E20D0E0F0740D12110998
:103BB300124350850C82850D83A3A3A3A3A3123CB8
:103BC3009B241C12644B127104123C9D125D9B39A1
:103BD300126B8FC0E0124DBDD0E0126C54C0E07484
:103BE3000D121109124903D0E0126955C0E0740D9A
:103BF3001211091248F9D0E0F0740D121109123CA8
:103C0300AD123C9B242A12644B850E82850F83A33D
:103C1300A3A3A3A3A3A3A3E01264441241D3C0E0CC
:103C23001248E5D0E0F0740D12110912500A850E06
:103C330082850F83126C6A2428F582E43B1270E8B4
:103C43001241DC126C7B120DE9126145EA1263DD4D
:103C53003B127E28120E007405120E891223048E65
:103C6300828F83A3A3A3A3A3E0D2E0F07411121164
:103C730009E06003023A217401121109E014023AC7
:103C83002D7900AA0CAB0D122202741F026D19E0EC
:103C930075F007A4F8A9F022A3A312500EE8228E10
:103CA300828F83A3124354740522E0123CB5A3A36D
:103CB300A322F8A3E0F9850E82850F83A32274F073
:103CC30012085974E8120E99E9852182852283F03E
:103CD3008A0E8B0F8A828B83A3A3A3A3A3A3A3A37D
:103CE300E0F912215A8A088B09EA4B7003023D9EC0
:103CF300E50E12559F1241FC1241938521828522C4
:103D030083E06003023DA17C04850E82850F83A3BB
:103D1300A3A3A3A3A3A3A3E0F9122160EE4F607BA7
:103D23008E828F83A3A3A3A3124350740712110996
:103D33001265821243507409121109124EA7C0E092
:103D43007411121109D0E0126933A3A3A3A3A3A38F
:103D5300A3124350740F1211091270EA7412121154
:103D630009E4126D0FC8241FF582E438F58312614C
:103D730010C413135403FC70027C048E828F83E0FF
:103D8300F97808120DED742059FD744059F9740344
:103D9300120E891221F67402120E00026D177C08AE
:103DA300850E82850F83A3A3A3A3A3A3A3A3E0F9F3
:103DB3001221608B0BEA4B7003023D1FEE4F60DB59
:103DC300852182852283E0F50C780C120DF185089C
:103DD30082850983A3A3A3A3A3A3A3E0F50C780C73
:103DE300120DF18A828B83A3A3A3E0FB8A82850B46
:103DF300831279478A82850B83E0FA8E828F83A3AD
:103E0300A3E0F9122A5A7402120E00023D2374F73A
:103E130012085974FA120E99E9FE780179017F00AC
:103E2300800379000F125186E0FCEFC39C5026EF0C
:103E330075F007A4FC85F008AD08EA2CFCEB3DFD0A
:103E4300124775E0A2E050DA540C60D6E0A2E250CB
:103E5300D3780080CF8A828B83A3A3A3A3A3A3E0F9
:103E6300703DE9A2E0400574016E70338A828B8352
:103E7300A3A3A3A3A3A37401124165E0C0E0740349
:103E8300121109D0E01247D4E0C0E0740412110902
:103E9300D0E0F07405121109E81260AF12233A74EE
:103EA300060249F2C082C0837901122202025EEB4C
:103EB30074F4120859EA4B901BE96019E4F08A087C
:103EC3008B09F50AF50B7808120DE57A021233D93E
:103ED300120E00800A7401F07A027B001233C602CC
:103EE30034C174F012085974F3120E997403121149
:103EF30009E4F0A3F090196B1241937401121109B4
:103F0300E4F0A3124E7C04F09019A5E0A2E3500361
:103F1300023FD812415974091211091210F274099F
:103F230012110978081210B290196D7808120E69EF
:103F3300740512110978081210A312405C7405125B
:103F43001109780812104650077A017B0002404994
:103F53007405121109780C1210B2901BD5E0F50903
:103F6300780C79081207EAA80CA90D901BD6E0C3B8
:103F730098E4995003E08001E8852182852283F04B
:103F8300740912110978081210B2C008C009C00AD6
:103F9300C00B7405121109780C1210B212405C7830
:103FA3000C79081207EAE4F50AF50BD00FD00ED00E
:103FB3000DD00C780C7908120F4190196D780C1202
:103FC30010A3801112404E1270EAEEFAEFFB1219A1
:103FD30044AE08AF09EE4F60658E828F8312364C74
:103FE300C398502DEE2403F8E43FF9E0FA88828960
:103FF30083E0C39AF0602374031211091244B67468
:1040030001121109EEF0A3EF12659DFEA3E0FF80FC
:10401300C48E828F83A3A3A3E4F08E828F83127D49
:10402300E1740112110912561C8E828F83A3A3A37C
:10403300A3609112657612110912405580897403A9
:1040430012110912500A740D026D1912435490197A
:104053006B2212613BA3A3A322901BD4127DE9E43C
:10406300F50AF50B2274F01208598A088B09890A9C
:104073007800790090196B124193FBEE4B601E0898
:104083008E828F83A3A3A3A3124FD4601008E8707A
:1040930001098E828F8312418FEA4F70E3901BD701
:1040A30012500AC3E89AE99B400302414C7A061274
:1040B300414FA80CA90DEA49700302414C8A828B37
:1040C30083E508F0A3E50912416EE50AF0901BD6DB
:1040D30012518E124165A3E4F0A3F090196B124FB5
:1040E300D4600D8E828F83A3A3A3A31270EA8017DB
:1040F30090196B1270EA9019A5E0A2E340091241EE
:104103005990196D1210F29019A5E0A2E3503A7A72
:10411300087B00901950E0F9121A16EA4B4C4D70C7
:1041230028901BD4E0F508A3E085080CF50DE4F511
:104133000EF50F780C120DE57A087B00901950E00C
:10414300F9121A0A7404120E00026D1C7B00121974
:104153003E8A0C8B0D22121A28EAF8EBF9ECFAEDE1
:10416300FB221241692212416EA322F08A828B83C1
:10417300A3A322E508F00249F5F08E828F83A3A35F
:10418300A3A3A3A322125A86A3A3F022A3A3A3A3A8
:10419300E0FEA3E0FF227F05020B8CF582E43509E4
:1041A300F583E0F922EA1241AD222410F582E422DC
:1041B3001241BBA3A3A3A3221243588508828509F6
:1041C30083221241C922F0850A82850B83A3A3228D
:1041D300E50E24111241F9E022E50E240E1241F9F5
:1041E30022E50E24101241F9E0221241F122EE12CF
:1041F30041AD3FF58322F582E4350FF58322240F89
:10420300F50AE43509F50B780A22E0F91218BA8A9F
:10421300088B09EA4B2274F2120859890B8A088B1E
:10422300098A828B8312500A122226EA4B60047990
:10423300B8806A122232E9F89031A3E493F9E8C313
:1042430099400479B280567A1512414FAE0CAF0DE6
:10425300EA4F7004791080458A828B83E4F0A312BD
:10426300416EE50BF0750A007808120DE97C127DAA
:1042730000EA2403126C26120E0090197112561CC8
:104283007008901971800C124350888289831242FE
:10429300A370F4EEF0A3EFF012224479000250F67B
:1042A30012500EEA4B8882898322C082C083901900
:1042B3007180048C828D83127948EC4D60288C8246
:1042C3008D83A3A3E069600574FF6970E68C828D1A
:1042D30083A3A3A3E06A7003A3E06B70D6EC24036B
:1042E300FAE43DFB80047A007B00025EEB74F71274
:1042F3000859E9FD74FE6D70047C0180027C009016
:10430300197180096D70027C018882898312561CA1
:10431300601F88828983A3A3A3E06A7003A3E06B71
:1043230070E7ECA2E088828983A3A3E050D6F980EA
:104333000279FE0249F5EEF9800CA3A3127DE9EEA2
:10434300227402120E007F02020B8CF58312435477
:104353002212435822E0F8A3E0F9221243588E8236
:104363008F8322120E007F03020B8CC082C08379DD
:1043730000901971800109E0FAA3E08A82F583E5D0
:1043830082458370F1025EEB74F6120859E4F50876
:10439300F5097808120DED9031A3E49375F013A499
:1043A300A9F01244AB127148120E00E9FE74096EB3
:1043B300700312223E02433974F612085974FE1236
:1043C3000E99852182852283E4F0A3F0A821A922F6
:1043D300880889097808120DED75080275090078B7
:1043E30008120DED126DB9120E0002434474F5125A
:1043F300085974EB120E99852182852283E4F0A378
:10440300F090197180748E828F83A3A3E0C0E0744F
:1044130002121109D0E0125ACDA982AA8389088A0F
:1044230009750A007808120DE97C127D00740612E2
:10443300110912710D120E007402120E818808897F
:10444300097808120DED7508137509007808120D27
:10445300ED74041211091255BF75F013A4F8AAF0F4
:1044630075F013E91244A7126DC1120E0085218263
:104473008522831244B68E828F83124193EE4F704E
:1044830085A821A922880889097808120DED7508E5
:10449300027509007808120DED126DB9120E007441
:1044A30015024366A42AF9E82402FCE439FD7A42A2
:1044B3007B0022E02401F0A3E03400F02274F41224
:1044C300085974EB120E997E007F00A821A9228857
:1044D3000889097808120DED7508028E097808120B
:1044E3000DED7C007D007A42127154120E00E970CA
:1044F3006C8E0880567402120E81880A890B780A22
:10450300120DED750A13750B00780A120DEDE5080F
:1045130075F013A4F8AAF075F013E5091244A71275
:104523007156120E00E9701B7403121109AA82ABB3
:10453300837402121109E0F9122220E970050EEECC
:1045430070010F0508E5087002050985218285229F
:1045530083124350C3E50898E509994098EEFAEFB2
:10456300FB74150234BE74F61208598C828D83A332
:10457300A31247C2F0EA1263E33BF583E0C0E01203
:10458300477FD0E0F0EA241DF582E43B12434E124C
:1045930047631247BDF0A3F0EA241FF582E43BF51D
:1045A30083124193EC1247563DF583EEF0A3EFF0EF
:1045B30012475C3BF58312478DA3A3A3A3A3A3EEEA
:1045C300F0A3EF12603EFE8C828D831247CC7403FE
:1045D3005EFEC394034003024749EE600874026E13
:1045E300600302466E8C828D83E0540CFE740C6E65
:1045F30070030246ADE0A2E4400D88828983E08C1B
:10460300828D83A31247E274086E60030246AD12E3
:10461300476D7401F08A828B83A3A3A3A3A3125AC9
:104623009370148C828D83E0440C1247D4A3A3129D
:10463300478DEEF0A3EFF08C828D83E0A2E4402B54
:10464300888212479B1247B0500109F58212479B9B
:10465300A3A3A3A3A3A3F0A3EF1247DC8C828D83B0
:10466300A3A3A3F0E82403F850010988828983E017
:10467300C0E0EC2411F582E43DF583D0E01247CC91
:104683008C828D83E0A2E7507588828983E0FE8C5B
:10469300828D831247E274FC5E700C8C828D83A33F
:1046A300E054036403701E02474912476DE4F0743B
:1046B3000C6E600302461888821247A11247B0505D
:1046C300010902463A8C828D83A3E0540360328849
:1046D300828983E0C0E0EC1247873DF583D0E01286
:1046E30047E38C828D83E0540364027014888289CB
:1046F30083E0C0E0124775D0E01247E38003A3E4F0
:10470300F0EC12558B3D1270E8EC2410FEE43DFFF3
:10471300EA241DF582E43BF583E0F5088E828F835E
:10472300E0C3982508F508F0EA2417F8E43BF98874
:1047330082F583E0C39508C0E0124763D0E01260BE
:104743003EC39508500A124763E4F012477FE4F032
:104753000243492415F582E422EA240DF582E4227A
:10476300EC240DF582E43DF58322EC1257443DF52C
:104773008322EC2414F582E43DF58322EC1241AD4F
:104783003DF583222413F582E422E0FEA3E0FF8CAF
:10479300828D83A3A3A3A3221247A1A3A322898368
:1047A300E0F508A3E0FFE5088C828D8322A3A3A391
:1047B300A3F0A3EFF0E82402F8221247C2A322E4F5
:1047C300F08C828D83A3A3A3221247EAA882A98334
:1047D30022124169A3A3A3A3221247EAA3E022A3BF
:1047E3001247EA08A98322126047A32274F412082D
:1047F3005974F3120E998A0A8B0BECFEEDFF8C822F
:10480300F583E0540CF508E0A2E75006E508D2E78B
:10481300F508E508D2E1F508125A937006E508D2C7
:10482300E4F508E0A2E55006E508D2E5F5087C08C2
:104833007D007900AA21AB2212189074021211098B
:10484300E5081270EEC0E07403121109D0E0124EB5
:104853007CE50AF0A3E50BF0740512110912695AFD
:10486300121109E070777408121109124E021260D6
:104873003038126975C0E07408121109124903D067
:10488300E0126955C0E074081211091248F9D0E02A
:10489300F074081211091248EFE0124E2A124EABBF
:1048A300126444EE2411125A5FC0E01248E5D0E0CE
:1048B300F0EE2414125A5FC0E07408121109124E6C
:1048C300022435F582E438F583D0E0124E4FC0E080
:1048D3007408121109124E06D0E01266AE740D026E
:1048E30034BEE82432F582E439F5832212435EA311
:1048F300A3A3A3A3A322124E16126B5438F583224B
:10490300124E162426F582E438F5832274F7120832
:10491300597E008A828B83A3A3A3A3A3A3A3A3A3E8
:10492300E0640460030249D112573CE0600302498A
:10493300D112559E3B12561A70030249D1888289BF
:1049430083E0540360030249D1E812574439F583E5
:10495300E0FA8C828D83A3A3E0FBA3E0CB2411F5C3
:1049630082E43BF583E06A706588828983A3A3A30D
:10497300A3A3A3A3A3A31249D5E06A7003A3E06B87
:10498300704C88828983A3A31249E1E0FFA3E0CF9F
:104993002406125A5F6A7003A3E06B703188828920
:1049A30083A3A3E0F88C828D83A3A3E0F9A3E0F5AE
:1049B300838982A3A3E06860138C828D83A3A3A35E
:1049C300E0F5838982E0540C640470027E01EEF901
:1049D30080201249D9221250128C828D8322A3A3E4
:1049E3001249D9A3A322740C121109E0F9740D1210
:1049F3000E007F01020B8C74F612085974FC120E20
:104A030099EAFEEBFFECFAEDFB8C82F583A3E0540D
:104A130003601690196712561C60597900EEFCEF7B
:104A2300FD12623B122A83804B852182852283EE0D
:104A3300F0A3EFF07402121109124E71AC21AD22F2
:104A43007A5C7B2212248A8A088B09A808A909EABE
:104A53004960218A828B83A3A3A3A3A3A3A3A3A3B4
:104A63007406F07A0088828B83124E02126404E08B
:104A7300F91223E8740402434674F212085974F3DA
:104A8300120E99EAFEEBFF8A82F583A3A3A3A3A3E5
:104A9300A3A3A3A3A3E0F50A901BE9E0700579BAE9
:104AA300024DBA750801750900750C00750D007C7F
:104AB300087D007900AA21AB221218907405121107
:104AC300097401124E84540460127402121109E035
:104AD300D2E6124E8454087003750803E054106044
:104AE3000674404508F508E0540860227402121168
:104AF30009E044C0124E845420600A740312110961
:104B0300E0D2E080087403121109E0D2E1F0EE2450
:104B130015125A5F124DEA70037401697006740826
:104B23004508F5088E828F83A3A3A3A3A3A3A3A3FE
:104B3300E070161224E48521828522831264517465
:104B430002121109E0D2E28030640F701074021275
:104B53001109124E8C74044508F508807F8E828FEC
:104B630083A3A3A3A3A3A3A3A3E064028E828F833F
:104B7300700A127121E8F0A3E9F08060A3A3A3A354
:104B8300A3A3A3A3E06403700DAC21AD22EEFAEF5F
:104B9300FB12229280468E828F83A3A3A3A3A3A397
:104BA300A3A3E0640170359019FBE0601074021256
:104BB3001109124E8C750910750AFF8018740212C0
:104BC3001109E0440C124E7C74FDF0A374FFF074E1
:104BD300044508F5088E828F831233D1EE24151213
:104BE3005A5FA2E0503F7402121109E0540C701B8B
:104BF3008E828F8312500A121EEAE9700579BB0276
:104C03004DBA7402121109E0D2E5F0EE2415125ADE
:104C13005FA2E050107402121109E0540C64047096
:104C230004E0D2E5F0EE2411125A5FC0E0740412DE
:104C33001109D0E012695C121109E06003024DB35F
:104C43007408121109124E45E508F0A3E509F012A4
:104C53004DE0E0C0E0124DD6D0E0F0124DC7E0C009
:104C6300E07408121109124E0212478738F583D0F7
:104C7300E0124EAB640170119019FBE0C0E07408C0
:104C8300121109124E20D0E0F07408121109124ECD
:104C930040124DD1FAE8241CF582E439F583EA1277
:104CA3004E77EE2415FAE43FFB8A82F583127948A6
:104CB300E8125D9B39F583124E71EE241C125A5F84
:104CC300C0E0124DBDD0E0125EE1124DEA700374F4
:104CD30001697013740812110912572CFAEE241D7E
:104CE300125A5FF91221668E828F83A3A3A3A3A313
:104CF300A3A3A3A3E0C0E07408121109124903D0CF
:104D0300E0F074081211091248F9E50AF074081268
:104D130011091255BF2428F582E439F583E50CF017
:104D2300A3E50D124E57124E2A125AD8126444EEBE
:104D3300124DD1C0E0E82433F582E439F583D0E0A5
:104D4300F0EE241B125A5FC0E07408121109124ED0
:104D530006D0E0F0EE241A125A5FC0E07408121174
:104D630009124E022432F582E438F583D0E0124E64
:104D73004F124DF6120DE9126B5A127948740B1249
:104D83001109124E02242F127E24120E00EE241556
:104D9300125A5F5440601290198712561C600AAA77
:104DA30021AB2212623B122A83AA21AB22122304D3
:104DB300740C121109E0F90250F1E82420F582E4A1
:104DC30039F58322EE2419F582E43FF58322126B31
:104DD30069E022E82412F582E439F58322EE2418EF
:104DE300F582E43FF583225480F8A3E05401F9747B
:104DF300806822F508A3E0F509750A0078082212F5
:104E03004E1622124E162434F582E438F58322A37B
:104E1300A3A3A3124E1A22E0F8A3E0C822124E164F
:104E230012475638F58322FAA3E0FBE8242AF582D9
:104E3300E439F583EAF0A3EB22A3A3A3A31243541B
:104E4300EE221255C31255A339F58322F0EE241333
:104E5300125AE022F0EE240D125AE022E0FC8A827C
:104E63008B83E02CFCA3E03400FD8A828B83ECF07F
:104E7300A3EDF022F0A3E4F022F0852182852283C2
:104E830022F0EE2415125AE022E0D2E3F0124E94FF
:104E9300228E828F83124358852182852283E8F0F4
:104EA300A3E9F022E8F0A3E9126597E02274F71270
:104EB30008598A828B83A3E0640170047E638002B5
:104EC3007E648A828B83E060087905124EE424F3C2
:104ED300FE9019A3E06007F9124EE424F2FE0249A2
:104EE300D11223ACE9F8EEC3982274F61208597470
:104EF300FE120E99852182852283126451E9FEEC0C
:104F0300FAEDFB90048A12561C6032A821A922886C
:104F13000889097808120DED7D01740E121109E05C
:104F2300FCEEF990048A126425122A837402120E8D
:104F330000EA4B60047900800679B2800279B602F8
:104F4300434474F7120859E9FE90195D12561C6028
:104F53001F7409121109E0F5087808120DF1EEF932
:104F630090195D126425122A837401120E008002C7
:104F730079B60249F574F71208598908ECFEEDFF7A
:104F830079B5E508245E602014600624F860348057
:104F93003D90048C124FD46035127165122A838EB2
:104FA300828F83126451802490195F127948EC4DEB
:104FB300601CEEFCEFFD90195F126425122A83E951
:104FC300F9800B90195B124FDA121A4079000249EB
:104FD300F512500EEA4B2212794CEEFAEFFB2274D3
:104FE300F7120859E9FE79B574AB6E700B90195B33
:104FF30012500A121A4079000249F58E828F83A358
:10500300A3A3A3A3A3A3A312500E2212501222E020
:10501300FAA3E0FB2274F1120859EAFEEBFF8C0AB3
:105023008D0B7508019019ABE06E7003A3E06F70F0
:105033000C1250E5AA0AAB0B121A40805E1224EA46
:10504300EE6A7002EF6B7009AA0AAB0B1224F080B0
:105053004AAC0AAD0BEEFAEFFB122034E9F50890E7
:105063001BDCE0703612298EE97030E508702C9055
:10507300197BE06E7003A3E06F7020EE4F601C7528
:105083000C73750D19750E00780C120DE97C087DF3
:1050930000AA0AAB0B127111120E00A908027A447E
:1050A30074F2120859EAFEEBFF8C088D09750A01A8
:1050B3001250E5EEFAEFFB121A3AE964017011900F
:1050C30019AB1243508508828509831270EA800E5A
:1050D300AC08AD09EEFAEFFB12203AE9F50AA90A8A
:1050E30080111224DE8A0C8B0DAC0CAD0D22740DD5
:1050F300120E007F06020B8C74F6120859EAFEEBBF
:10510300FF7A0D7B0012193EEA4B6062EE242412F3
:105113006DEEF0EE2425126DEEA31251B3126DF471
:10512300A3A3126B8712518EF0EE1251741251A386
:10513300E8F0A3E91251CA12519B1270EAEE125120
:105143007D126C4AA3A3A3A3F0EE2433125A5FC0CB
:10515300E0125186D0E012697912519BA3A3A3E810
:10516300F0A3E91251C2C0E012573CD0E0F0024371
:1051730049242AF582E43FF58322242EF582E43F75
:10518300F58322EA125BB53BF5832212519222E0AA
:105193008A828B83A3A3A322126CA9A3A3A3A32212
:1051A3001251A7221243588A828B83A3A3A3A3225B
:1051B300F01251B822EE2426F582E43FF58322F063
:1051C300EE2432125AE022F0EE242C125AE022741A
:1051D300F412085974FE120E99ECFEEDFFEC24163E
:1051E300125A5F64057010EC2406FCE43FFD1222A2
:1051F3008CE9700302527EAC21AD22126EA3121E03
:10520300F085218285228312561C606B8E828F83E8
:10521300E064017058E875F009A4F8AAF075F00984
:10522300E9A42AF974D328F8740639F9E8FAE9FBF2
:105233008882F58378081210B2EE125320121046BA
:105243004027852182852283124E40125A6D1252C5
:105253008378081210B29086697808120F7D8A82CB
:105263008B8378081210A3800A79A28010EE240F92
:105273001270E47900800679A1800279C80234BCF7
:10528300124EA1EE126B752274F21208598A0C8B1E
:105293000DECFEEDFFEC125A6DE4F0A3F09086D511
:1052A30078081210B2EC125320120EC56067EC247A
:1052B3000E125A66703478B39019A2E070289019D0
:1052C300D4E064017020EC2411125A5FF912239484
:1052D3008B09A909EE12559F3F12644FEA496004F6
:1052E3007800800278A18808802EE0600464027050
:1052F3000A12229EE9F5087007801DE0640370100E
:10530300EEFCEFFDAA0CAB0D121F14E9F5088008A3
:105313007508A180037508A3A9080250F6126B75DE
:1053230078082274F012085974F5120E99EAFEEB0C
:10533300FFEA240AFCE43F8C82F583127DE51255D3
:10534300A97403120E918A828B83126245E970035A
:1053530002540F7401120E917403120E89121EF07F
:10536300740112110912561C700302540FE875F0F0
:1053730009A4F8AAF075F009E9A42AF974CF28FC66
:10538300740639FDE508240E126696E4F004121142
:1053930009124350E50812559F35091270E88C82B3
:1053A3008D831210E6E50824121266961210F2900D
:1053B300866978081210B28C828D837808120FDC0C
:1053C3008C828D83780C1210B29086557808121057
:1053D300B2780C79081207EAE5084509450A450B36
:1053E300702A74011211091255BF75F009A4F8AAA5
:1053F300F075F009E9A42AF974D728F582740639FF
:10540300F5837401F07A007B081255CC8E828F836A
:10541300A3A3A3A3A3A3A3A3A3A3E02406FCA3E0A2
:105423003400FD8E828F83126245126967603EEEFF
:10543300240A125591124E457468124E77E812559C
:105443008B39F5837402F090198D1210E68C828DDE
:105453008312643E1260303CF5831210F290866929
:1054630078081210B290198D7808120FDC125607C3
:10547300705D90195B1255B7A3A3A3A3A3A3A3A322
:10548300A3A3126066121A3AE970101260249019ED
:105493005B126036700512696760348E828F83A356
:1054A300A3A3A3A3A3A3A3A3A31255B712500A12A2
:1054B3001F1AE960118E828F83A3A3A3A3A3A31250
:1054C30055F3E4F0A3F08E828F831255D9E4F012E2
:1054D300560760030255868E828F83A3A3A3A3A3DB
:1054E300A3127DE19019A2E0600302557B9019D4C9
:1054F300E06401600302557B750A3A750B00780A74
:10550300120DED7402120E81880A890B780A120DAE
:10551300ED1273E0120E00E9705BE508240E1266CB
:10552300967401125621C0E0E5082411126696D044
:10553300E0F0E508240F126696743A124E7790193C
:10554300891210E6E50824121266961210F290866C
:105553006978081210B29019897808120FDC9086C6
:105563006978081210B29019897808120EC570086C
:105573001255C880031255A91256077006125F27E9
:1055830074A1F0740B026D19240EF582E422F8E481
:105593003FF9E8FCE9FD8882F58322EA1255A3224C
:1055A300240FF582E422E5081255A33509F583E4B7
:1055B300F0A3F02212794C8E828F83221255C322DC
:1055C300124358E8227A007B02901833E0F912184C
:1055D300E4228A828B83A3A3A3A3A3A3A3A3A3A34A
:1055E3001255E722124E1A240EF582E438F583226F
:1055F300A3A3A3A31255FB22124E1A240FF582E490
:1056030038F583228E828F83A3A3A3A3A3A3124E71
:1056130012240FF582E438F5831255C3492212563A
:105623002522F0852182852283E02274F61208590F
:10563300EAFEEBFF7A237B0012193EEE240AF508FB
:10564300E43FF50985088212644F7C237D007900CD
:1056530012189085088285098312561C700302561E
:10566300EFEEFAEFFB1222AA12560760748E828FB6
:105673008312572264018E828F83A3A3A3A3A3A3C0
:105683007007125718740E802112561C701012697D
:1056930067700B8E828F83A3A3E0A2E0500712579B
:1056A3000E740D800512570E740512697954036444
:1056B3000170071256F67405800B9019A3E0C0E041
:1056C3001256F6D0E0125731F5838882125A8C8530
:1056D3000882850983124E021263E338F583E98059
:1056E3000E8508828509831264C8800312640BF057
:1056F3000243498E828F83A3A3A3A3A3A3A3A3A33C
:10570300A312570822E012642AA3228E828F83A356
:10571300A3A3A3A3A3124E121263E938F58322A312
:10572300A3A3A3A3A3A3A3A3A31255E7E022125702
:105733003522126EB8F8A3E022EA1257443BF583F0
:1057430022240CF582E42274F112085974E4120E37
:10575300998A0C8B0D8C088D097A237B0012193ED4
:105763008A0A8B0BAE0AAF0BEA4F7003025A471239
:1057730063EFE5082415125A78687003A3E0698E75
:10578300828F837004740280027401F0E508240D93
:10579300F8E43509F98882F583E0FAC3E49AFA95C7
:1057A300E0FB125A742AFAA3E03BFB8E828F83A399
:1057B300A3A3A312604D8E828F83A3A3F0EE2420B4
:1057C300F582E43FF583E4F0EE2421F582E43FF52E
:1057D30083E4F0EEFAEFFB12235E850882850983EA
:1057E300125A9370098E828F83A3740580069019D1
:1057F300A3125A81F0EE2417F50AE43FF50B8E82CB
:105803008F83125A8CE9850A82850B83F0EE241666
:10581300F8E43FF9E508240EFAE43509FB888289A8
:1058230083124E5FE5082410FAE43509FB850A82EA
:10583300850B83E0FC88828983E0F88A828B83E08E
:10584300C398C39CF8125ACDF0EEFCEFFDAA0CAB43
:105853000D1222A4E9F50B8E828F83E06402700699
:10586300126024125A51E50B6003025A3E750C0074
:10587300750D00901BDCE064016005E06402703F7D
:10588300125A636008EE2421125A6670328E828F98
:1058930083A3A3A3126411125A99EE2416125A5F1A
:1058A300125AC2FAE439FB124151EA4B6011126CED
:1058B30073120DE9125AA7AA0C127111120E00EEFF
:1058C300FAEFFB12236AE9F50B901BDCE06401603D
:1058D30008E064026003025A31E97003025A31E5B9
:1058E3000C450D7003025A3E8003850E0B125A635A
:1058F300600BEE2421125A666003025A37850B0EA1
:10590300850C08850D09750A007808120DE9125AED
:10591300A78E828F83A3A3A3A3127E2A120E00EE67
:105923002420125A5F600D125A6C7468124E77EE7F
:1059330024208015EE2421125A5F6015125A6C74CC
:1059430003F0A37401F0EE2421F582E43FF583E430
:10595300F0EEFAEFFB12236AE9F50B70907C137DEE
:105963000079007409120E89121890741A12110921
:105973007401125AD864687002A3E0704F8E828F4C
:10598300831255F3E0640560030258ED7C0879FF48
:105993008E828F83A3A3A3A3E0242A126069121922
:1059A3001AE970030258ED7C087D0079FF74011237
:1059B3000E891218907401120E917A007B0079AB54
:1059C300122286741912110974FC8015125A6CE0A4
:1059D30064037004A3E0640170087419121109745C
:1059E300FFF0E4F508F5097808120DED7402120EC4
:1059F300917413121109AA82AB8312654E120E0021
:105A0300852182852283E0602B7409120E81880828
:105A130089097808120DED750813750900780812C5
:105A23000DED7C007D00126DC1120E008006E50CA9
:105A3300450D6007AA0CAB0D121944EEFAEFFB12E9
:105A430019448003750B10A90B741C027A41EE24D0
:105A530006FAE43FFB121A4022EE240C125AE0220B
:105A6300EE2420125AE0640122EE1255A33FF5837F
:105A730022E508240EF582E43509F583E022125A63
:105A830086A322E08E828F8322A3E0F91223AC2225
:105A9300E05403640122125A9D22E0FAE82AF8E452
:105AA3003400F9228E828F83A3A3A3126415125AA2
:105AB3009DEE2416125AE0125AC2FCE439FD22FA72
:105AC300E82AF8E439F9E8240422125AD1221269A7
:105AD30088A3A3A322F0125ADD22EE240FF582E459
:105AE3003FF583E0227901020DB074F4120859EAFC
:105AF300FEEBFF8A82F583A3A3A3A3A3A3A3A3120D
:105B03004E022424F582E438F583125A93702E8AC8
:105B1300828B831257227025125BBBE06405701DD4
:105B2300125BBBA3E0F87401686005740668700734
