:020000040000FA
:060000000210B00205DC55
:03002B00020E249E
:03003300020A16A8
:0300530002050B98
:03006B000209CBBC
:03007B000209F483
:1000830002056D01010000000000F8FF07FFFF00FB
:10009300000504000000030001FF0020FD0002062C
:1000A300FFFF1E010000000000000000020100002D
:1000B300FFFF0801040000ED13000000E803000047
:1000C300FFFF3E140188130000E80300006400648E
:1000D30000B801A0BB0D00A0BB0D00020202070483
:1000E30001051E02051E020A0A010108080103B8E0
:1000F3000B02803E0102FEFFE8030A050001FFFF39
:10010300020A011401E08096184B0000803F0200B0
:100113000000050301010F030003000300030003B4
:1001230000030003000300030005000A0014002875
:10013300004F009E000000CD2A00000000A129000E
:10014300000000FF000000FF001210CF60461210F5
:10015300C0603DE9687008F618F618F618F62274C0
:100163008067F7120180090909748067F72212106A
:10017300C0601D1210CF7005191919801A120F884B
:10018300701F120F9CC37003E667331919194007D8
:100193001818182208080874FFF618F618F618F647
:1001A30022120F9C601712115D702192F0121166DA
:1001B3007019501720F014080808090909E7F61800
:1001C30019E7F61819E7F61819E7F622121166600F
:1001D300E6E869701F0808E62480F608E436F61896
:1001E300547FB47F0CE654806007F6E418F618F6E3
:1001F30022181822E9C6CC08C6CD08C6CE08C6CF39
:10020300C0E0E8C0E0EAC0E0EBC0E009E9F809E7D4
:10021300FA09E7FBE6F918E6F8C3EC98ED99EE9ACC
:10022300EBC2E7F5F0EFC2E795F0500E600CEBCFB1
:10023300FBEACEFAE9CDF9E8CCF8EAA2E7D2E7FA8D
:10024300EB33FB13F5F0EEA2E7D2E7FEEF33FFC586
:10025300F013A2E730E601B313C5F0C3C0E0C0F06A
:100263007F00C39BFB605E9418600F401D14601AEF
:10027300D0E023F9D0E0F80203528AF0E9486003A2
:10028300D2F0E4AFF0FAF9F8803BEB30E40D89F0FB
:10029300EA6003D2F0E4AFF0F9CAF8EB30E30D887B
:1002A300F0EF6002D2F0AFF0E4CAC9F8EB54076094
:1002B30014FBC3EA13FAE913F9E813F8EF13500236
:1002C300D2E0FFDBEDD0E0C0E030E739C3E49FFFCD
:1002D300F5F0EC98FC42F0ED99FD42F0EE9AFE4207
:1002E300F0D0E0F9D0E0F8E5F0607AE923F9EE2008
:1002F300E742D8028067C3EF33FFEC33FCED33FDF5
:10030300EE33FE80EAEC28FCED39FDEE3AFED0E058
:1003130023F9D0E0F84002801BC3EE13FEED13FD7A
:10032300EC13FCEF135002D2E0FF08B800067F7F06
:1003330074FF802EEF3350178CF020F00260100C06
:10034300BC000C0DBD00080EBE000408E860DFE928
:1003530033E813FFEE2313FE4F4D4C8008E954801E
:10036300FFE4FEFDFCEE33EF33F47004FCFD7E800E
:10037300D0E0FBD0E0FAD0E0F8D0E0CFC618CEC68C
:1003830018CDC618CCC6F922001210C0604F121047
:10039300CF6012E7548066F6120F88701112115D58
:1003A300703B090909F4F618F618F618F622120F2D
:1003B3009C701512116608080860EAE6447FF61877
:1003C300768018E4F618F622121166601612115D93
:1003D3007012E4F608F608F608E65480F6090909EF
:1003E30018181822EAC0E0EBC0E0ECC0E0EDC0E072
:1003F300E687F0A4FBACF008E687F0A42CFCE43518
:10040300F0FA1809E687F0A42C4B60027401CA3590
:10041300F0FCE433FB09E687F0D2F7A42CCB35F0EC
:10042300FC1908E687F0A42BCC35F0FBE433FD0878
:1004330019E687F0D2E7A42C4ACB35F0CD3400FC83
:1004430009E687F0D2E7A42DCC35F0FDE433FA09B1
:1004530018E687F0D2F7A42CCD35F0CA3400FC0897
:10046300E687F0D2E7D2F7A42ACC35F07A7E20E7EC
:100473000B0ACB33CBCD33CDCC33CC33CB3350146E
:100483007004ED30E00ED2F1E4CD3DCDCC3CCC3B5D
:100493005005DA05C2F1EB547FC63308E63392F018
:1004A300FBE73309E733C39A502D2B70190C0D4C1E
:1004B3004D70151806E608C333700D20F10AA2F03B
:1004C30013F6E418800B4024E4F630F0027680182B
:1004D300F618F618F68024D33B14501074FFA2F0DC
:1004E30013F6187680E418F618F6800FA2F013F6C8
:1004F30018E63303F618ECF618EDF6D0E0FDD0E07D
:10050300FCD0E0FBD0E0FA22C0E074F112096CA247
:10051300AFE433F509D2AF85A708AFA1EF5508FEC5
:1005230074105E600612140675A1EF74085E60080D
:1005330012140C75A1F78024EFA2E092F0E508A253
:10054300E082F05017906198E0F890050EE0C398B0
:10055300A2D265D0335002E8F075A1FE751A00E50A
:1005630009A2E092AF7F02020A2AC0E074F21209E4
:100573006CA2AFE433FED2AF9061A4E0F8759B00A8
:10058300E59158540860087591F712145A8023E5D1
:100593009158541060087591EF1214608014E5911E
:1005A300A2E092F0E8A2E082F05007E0C2E0F0128D
:1005B30015B69061A3E0F8E5E9585404600E1215EE
:1005C3008C75E9FB906193E0A2E640F2751A00EEA8
:1005D300A2E092AF7F01020A2AC0E074F212096C12
:1005E300A2AFE433FED2AF9061A5E0F8E5BF585463
:1005F30004600675BFFB1215CE80D1C3E498F8E4FE
:1006030099F912063F8026C3E49AFAE49BFBE9209A
:10061300E7E912063FE498F8E499F922C3E498F86D
:10062300E499F912063FE498F8E499F9C3E49AFAD5
:10063300E49BFB22EB20E7CFE920E7E0B90010BB06
:100643000008E88AF084F8AAF022E4FBC8FA22EB57
:1006530070227B10C833C8C933C9335007C39AC348
:10066300DBF280069A50012ADBEAC833F4C8C933A7
:10067300F4C9FA2275F008E4C833C8C933C933C9C9
:100683009AC99B5004C92AC93BD5F0ECFBC833F483
:10069300C8E4C9FA228A088B098C0A8D0B780812E0
:1006A30006E220F01430E72B74FFFCFBFA747F8022
:1006B30022E4FCFBFA7480801AB48008BC00F2BB0D
:1006C30000EF800F50EBF9E4C39AFAE49BFBE49C40
:1006D300FCE499C6CC18C6CB18C6CA18C6F922E4DE
:1006E300C9C608CAC608CBC6D3330308CCC63392DF
:1006F300F0C3947F402E94184019C9B90704CACB9C
:10070300CC225025C309CA33CACB33CBCC33CC3329
:10071300D9F422F4600DC9CCC313CB13CBCA13CACB
:10072300D9F6CC22E4FCFBFA2214FCFBFA220808DB
:1007330008EAC0E0EBC0E086F0E7A4FA180986F007
:10074300E7A42AFA180986F0E7A42AFA180986F01A
:10075300E7A42AFA1986F0E7A4FBE5F02AFA1908B8
:1007630086F0E7A42BFBE5F03AFA190886F0E7A434
:100773002BFBE5F03AFA18180986F0E7A4C5F02B2D
:10078300FBE43AFA1908E7C5F0C6A426F6E5F03B00
:10079300FBE43AFA1886F0E7A4F6E5F00826F6E457
:1007A3003B08F6E43A08F6D0E0FBD0E0FA2208086A
:1007B30008E630E711120F601207C9080808C6449B
:1007C30080C618181822181818E9799EC608CAC6D0
:1007D30008CBC608CCC6C370207996CACBCC701997
:1007E300798ECBCC70137986CC700EF9802ACA33FC
:1007F300CACB33CBCC33CC331930E7F2CCCBCA33AF
:1008030050147004EA30E00DE4CA3ACACB3BCBCCB7
:100813003CCC500209C3E913C6CC182313C6CB182A
:10082300C6CA18C6F922E4CFC0E0E4CEC0E0E4CDE6
:10083300C0E0E4CCC0E075F020E626F608E633F627
:1008430008E633F608E633F6181818EC33FCED33F4
:10085300FDEE33FEEF33FFC3EC9709ED9709EE97F7
:1008630009EF97191919400FFFEC97FC09ED97FD54
:1008730009EE97FE191906D5F0BFECF709EDF70954
:10088300EEF709EFF7191919D0E0FCD0E0FDD0E03D
:10089300FED0E0FF222518C582C0E0E51934FFC56C
:1008A30083C0E0E518C3958224F810AF0885831947
:1008B3008582188008858319858218D2AFCEF0A36C
:1008C300E520F0A37808E608F0A3DEFAEFF0A3E54D
:1008D3008124FAF8E608F0A3E608F0A3E608F0A3FB
:1008E3000808E608F0A3E608F0A315811581D0E017
:1008F300FED0E0F8158115811581E8C0E0EEC0E077
:1009030022121148B90003020956E490040178D970
:1009130079138002F0A3D8FCD9FA781A9000867A6A
:1009230001BA00028007E493A3F608DAF97AD97BC7
:100933001690008778C679018015E493A3AD82AE43
:10094300838A828B83F0A3AA82AB838D828E83D822
:10095300E9D9E775828B7583CB7404120E06758211
:100963009E7583277400120E06C0D02518C582C059
:10097300E0E51934FFC583C0E0E518C3958224F38D
:1009830010AF0885831985821880088583198582AD
:1009930018D2AFC8F0A3E9F0A3EAF0A3EBF0A37970
:1009A30008E709F0A3D8FAECF0A3EDF0A3EEF0A367
:1009B300EFF0A3D0E0F0A3D0E0F0A3D0E0F0A3E504
:1009C30020F0A3E5F0F0A322C0E074F212096CA2B8
:1009D300AFE433FED2AFE589540C600312132E53F8
:1009E30089F3C2C5751A00EEA2E092AF7F01020A35
:1009F3002AC0E0C0D0E8C0E0A8A8D2AFE58A858AC3
:100A03008AC2EB751A00E8A2E792AFD0E0F8D0D023
:100A1300D0E032C0E0C0D0E8C0E0A8A8D2AFE58BF8
:100A2300858B8BC2E880DC851983851882E0C0E062
:100A3300A3E0F9A3E0FAA3E0FBA37808E0F608A398
:100A4300DFFAE0FCA3E0FDA3E0FEA3E0FFA3E0C028
:100A5300E0A3E0C0E0A3E0F5D0A3E0F520A3E0A38A
:100A6300F5F010AF088583198582188008858319EE
:100A7300858218D2AFD082D083D0E0F8D0E032E4C0
:100A83007375F0108E218F22858226858325851824
:100A930082851983E0CEA3E0CF852682852583EB6B
:100AA300C9EAC8EDCBECCAC3E833C8E933C9EA33B2
:100AB300CAEB33CBC3EA9EF524EB9FF523B3500473
:100AC300AB23AA24EC33CCED33CDD5F0DAAE21AF92
:100AD30022221210C0601C1210CF60171211667010
:100AE3000712115D7001D322C0D012115D7006D0C0
:100AF300D0B322C32233D0D0501430E0F6C3E796EC
:100B03000809E7960809E7960809E796B32220E063
:100B1300D5E6970809E6970809E6970809E697B323
:100B230022D083D082ECC0E0EDC0E0E493A3FCE4E8
:100B330093A3FDED4C600D120C48EC24FFFCED3447
:100B4300FFFD80EFE493A3FCE493A3FDED4C600D64
:100B5300120D11EC24FFFCED34FFFD80EFD0E0FD1E
:100B6300D0E0FCE493A3C0E0E493C0E0221210C001
:100B7300601B1210CF6016121166700712115D60B0
:100B83000CB322C0D012115D7005D0D022C3223322
:100B9300D0D0501330E0EBC3E7960809E796080975
:100BA300E7960809E7962220E0E4E6970809E69726
:100BB3000809E6970809E69722851983851882E0D4
:100BC300A3FEE0A3F5207808E0A3F608DFFAE0A38C
:100BD300FFE0A3C0E0E0A3C0E0E0A3C0E0E0A3C067
:100BE300E0E0A3C0E010AF08858218858319800870
:100BF300858218858319D2AFD083D082020E0CD0A0
:100C030083D082E9C0E0E493A3C386F0C5F095F0F6
:100C1300F908E493A386F0C5F095F0700BE493A371
:100C2300C3994005E9048002A3E475F002A4258278
:100C3300F582E5F03583F583D0E0F9E493A3C0E0D2
:100C4300E493C0E022C0E0C3E49396087401939652
:100C530018400FE4936670080874019366187000D7
:100C63007019A3A3C3E49396087401939618A3A3DE
:100C7300400DD0E0D0E0D0E0020B60A3A3A3A3A378
:100C8300A3D0E0227404800474028000CCC0E0EDA1
:100C9300C0E0E518C39CCCAD1950011D10AF068C04
:100CA300188D1980068C188D19D2AF120D88D0E0DB
:100CB300FDD0E0FC2274028000CCC0E0EDC0E0E592
:100CC30018C39CCCAD1950011D10AF068C188D199B
:100CD30080068C188D19D2AF120D66D0E0FDD0E0DE
:100CE300FC221210C060251210CF60201211667012
:100CF3000302115D080808E76670101819E76670AB
:100D03000A1819E76670041819E76622F422C0E08E
:100D1300C0F088F0E4936670080874019366187055
:100D230000A8F0A3A3700BD0F0D0E0D0E0D0E00295
:100D33000B60A3A3D0F0D0E022D083D082CCC0E05C
:100D4300E493A36006120DC81470FAE493A360063B
:100D5300120EF51470FAD0E0FCE493A3C0E0E49320
:100D6300C0E022CAC0E0E493A3C582CCC582C58398
:100D7300CDC583F0A3C582CCC582C583CDC583DA37
:100D8300E5D0E0CA22CAC0E0E0A3C582CCC582C5D3
:100D930083CDC583F0A3C582CCC582C583CDC5836E
:100DA300DAE6D0E0CA22700908080822601618188B
:100DB30018C6C333C608C633C608C633C608C63307
:100DC300C6D5E0EA22C0E0E493A3D39C5010E49399
:100DD300A3C39C400AD0E0D0E0D0E0020D59A3A306
:100DE300A3D0E022C008C3E096F50808A3E096422A
:100DF3000808A3E096420808A3E09645087001D3CB
:100E0300D00822C09FF59FE473D09F22D083D08265
:100E1300C09FE493C0E0740193C0E0740293F59F14
:100E230022C0E0C0D0E8C0E0A8A8D2AFC2C7751AFC
:100E330000E8A2E792AFD0E0F8D0D0D0E032251896
:100E4300F58210AF08F518400C15198008F5184005
:100E5300021519D2AF851983227404800A740380A2
:100E630006740280027401C0E0F404120E41D0E063
:100E730012110B2200C0D0251810AF08F518500C22
:100E830005198008F51850020519D2AFD0D022BB3E
:100E93000102E722C082C08389828A83BB0003E008
:100EA3008002E493D083D082226016080808C6C368
:100EB30013C618C613C618C613C618C613C6D5E07C
:100EC300EA222518F8E43519F9222518FAE4351928
:100ED300FB222518FCE43519FD22C3E0C696F6086B
:100EE300A3E0C696F608A3E0C696F608A3E0C69666
:100EF300F622C0E0E493A36C7009D0E0D0E0D0E028
:100F0300020D59A3A3D0E022251810AF08F518400D
:100F13000C15198008F51840021519D2AF22C3E049
:100F23009608A3E09608A3E09608A3E096A2D265EC
:100F3300D03322E76670100809E766700A0809E7EC
:100F43006670040809E76622E066701008A3E0668D
:100F5300700A08A3E066700408A3E0662218181854
:100F6300E4C396F608E496F608E496F608E496F6E3
:100F730022C3E096F008A3E096F008A3E096F008F9
:100F8300A3E096F022181818E60846087009E6262A
:100F9300087005E633F4220822191919E7094709ED
:100FA3007009E727097005E733F4220922C3E6979E
:100FB300F60809E697F60809E697F60809E697F6AC
:100FC30022C3E493960874019396087402939608D7
:100FD3007403939622E627F60809E637F60809E62E
:100FE30037F60809E637F622700422600D18C6C3E7
:100FF30033C608C633C6D5E0F41822E657F6080907
:10100300E657F60809E657F60809E657F622E056CA
:10101300F008A3E056F008A3E056F008A3E056F06A
:1010230022E026F608A3E036F608A3E036F608A386
:10103300E036F622E026F008A3E036F008A3E03617
:10104300F008A3E036F022E647F60809E647F6087B
:1010530009E647F60809E647F622E056F608A3E054
:1010630056F608A3E056F608A3E056F622600D08EC
:10107300C6A2E713C618C613C6D5E0F322C6F4C644
:1010830008C6F4C608C6F4C608C6F4C622C3E79663
:101093000809E7960809E7960809E79622C3E09648
:1010A30008A3E09608A3E09608A3E0962275D00073
:1010B30075813F75180175190400020904E6084695
:1010C30008C3134608336002E633F422E7094709ED
:1010D300C3134709336002E733F422600C08C6C325
:1010E30013C618C613C6D5E0F422E6F008A3E6F04B
:1010F30008A3E6F008A3E6F022E0F608A3E0F6086A
:10110300A3E0F608A3E0F622CAC0E0E6F0A308DAFB
:10111300FAD0E0FA22E0FAA3E0FBA3E0FCA3E0FDAF
:1011230022EAF0A3EBF0A3ECF0A3EDF022E0F8A3A6
:10113300E0F9A3E0FAA3E0FB22E8F0A3E9F0A3EAD5
:10114300F0A3EBF022E5C754F84401F5C779012277
:101153002518F582E43519F58322E727194719473E
:10116300194722E62618461846184622C2AF75D6F6
:101173009F02000022120E0F7CE702120E0FFBE902
:1011830002120E0FB7EA02120E0FE7EA02120E0F57
:1011930034EB02120E0FC8EB02120E0F71EC0212A7
:1011A3000E0FC2EC02120E0F06ED02120E0FAAED85
:1011B30002120E0F17EE02120E0F46EE02120E0F60
:1011C30059EF02120E0F79EF02120E0FDDEF02122A
:1011D3000E0FB9F002120E0FE6F202120E0F94F385
:1011E30002120E0F2CF602120E0FB1F602120E0FA0
:1011F30028F902120E0F62F902120E0FBEFA021242
:101203000E0FD1FA02120E0F12FB02120E0FA9D704
:1012130003120E0F25D803120E0F58D803120E0F08
:1012230086D803120E0FCBDA03120E0FEADA03127B
:101233000E0F2FDB03120E0FC5DB03120E0F11DC93
:1012430003120E0FA3DC03120E0F7CDD03120E0F2D
:10125300CDDD03120E0F32DE03120E0FA5DE0312D5
:101263000E0FE9DE03120E0F41DF03120E0F63DFD1
:1012730003120E0FF3DF03120E0F84E003120E0F9F
:10128300D0E003120E0FFCE003120E0F3DE1031238
:101293000E0FD5E203120E0FC1E303120E0FA3E4E8
:1012A30003120E0FD6D404120E0FD9D404120E0F4C
:1012B30039D504120E0F8DD504120E0FAFD50412BB
:1012C3000E0FBCD804120E0FCDD804120E0F6BD91B
:1012D30004120E0F76D904120E0F90D904120E0FBA
:1012E300F27F00120E0FC9DE04120E0F9FD90412F3
:1012F3000E0FAFD904120E0FC4D904120E0F78DAF1
:1013030004120E0FD1D304120E0F55D404120E0F74
:10131300BDD404120E0FB5FE01120E0FDDFE011235
:101323000E0F00FF01120E0F58FF01120E0FA2FF46
:1013330001120E0FCDFF01120E0FE4FF01120E0F6B
:101343004BB504120E0F59B504120E0FD2B5041289
:101353000E0FA7B604120E0F79B804120E0FBEB803
:1013630004120E0FE3B804120E0FF87F00120E0FD3
:101373007EC904120E0FB6C904120E0F04CB041259
:101383000E0F88CB04120E0FDCDE04120E0FDFDE0D
:1013930004120E0FEBDE04120E0F68A204120E0FDE
:1013A30094A204120E0F2BA504120E0F6BA50412A8
:1013B3000E0FA7A504120E0FBBA504120E0FD4A582
:1013C30004120E0FC5A604120E0F77A704120E0FF8
:1013D3008BA704120E0F70CD04120E0F94CD0412BE
:1013E3000E0FADCD04120E0FEBCD04120E0F1BCE5C
:1013F30004120E0F48CE04120E0F52CE04120E0F1B
:10140300B8CE04120E0FBBCE04120E0FC5CE0412BB
:101413000E0FD2CE04120E0F44C204120E0F64C27A
:1014230004120E0FA3C204120E0FC1C204120E0F38
:10143300DCC204120E0F42C304120E0F4EC3041279
:101443000E0FABC304120E0FBAC304120E0FDEC38A
:1014530004120E0F9FC404120E0FACC404120E0F1D
:10146300BDC404120E0F75DD04120E0FBDDD041290
:101473000E0FE9DD04120E0FE1A704120E0F3BA9B4
:1014830004120E0F49A904120E0F5CA904120E0FC9
:1014930071A904120E0F86A904120E0F99A9041242
:1014A3000E0F15AA04120E0F7AAA04120E0F02AB26
:1014B30004120E0F7AAB04120E0F53AC04120E0F6C
:1014C30063AC04120E0F72AC04120E0FDADB0412BB
:1014D3000E0FFEDB04120E0F26DC04120E0F4EDC81
:1014E30004120E0FEBC404120E0F12C504120E0FDA
:1014F30030C504120E0F9FC504120E0F71BF0412E4
:101503000E0F8ABF04120E0F96BF04120E0FAABF4E
:1015130004120E0FC8BF04120E0FD2BF04120E0F17
:10152300DCBF04120E0FEFBF04120E0F75C00412BE
:101533000E0FEAC004120E0F19C104120E0F67C179
:1015430004120E0FB6C104120E0FD1C104120E0FF6
:10155300DBC104120E0FECC104120E0F2FC20412D2
:101563000E0FF4DD04120E0F3FDE04120E0F238A5A
:1015730004120E0F4F8A04120E0F6C8A04120E0F00
:101583007F8A04120E0F9A8A04120E0FF48A041231
:101593000E0F228B04120E0F328F04120E0F909037
:1015A30004120E0FC29004120E0F259104120E0F97
:1015B300919204120E0FB99204120E0FCE920412DE
:1015C3000E0FDE9204120E0F1E9304120E0F609381
:1015D30004120E0F709304120E0F83D104120E0F18
:1015E3009DD104120E0FC5D104120E0FDED10412C9
:1015F3000E0F02D204120E0F20D204120E0F37D296
:1016030004120E0F65D204120E0F80D204120E0FB5
:101613007EDA04120E0FC2DA04120E0FF6B80412A9
:101623000E0F06B904120E0F0BBA04120E0F3DBAB9
:1016330004120E0F6DBA04120E0F90BA04120E0F9D
:10164300A7BA04120E0FE1BA04120E0F46BB04121E
:101653000E0F88BB04120E0FCFBB04120E0FFCBB80
:1016630004120E0F27BC04120E0FDCCE04120E0F51
:10167300EECE04120E0F02D004120E0F05D0041288
:101683000E0FCED704120E0F04D804120E0F1CD85F
:1016930004120E0F5ED804120E0F6ED804120E0F32
:1016A300B2D804120E0F5E9B04120E0F989B041205
:1016B3000E0F019C04120E0F209C04120E0FC29CED
:1016C30004120E0FCB9C04120E0F1C9D04120E0F5E
:1016D300459D04120E0F529D04120E0FC39D04125A
:1016E3000E0F519E04120E0F9F9E04120E0FD59ED5
:1016F30004120E0F369F04120E0F5F9F04120E0F7B
:10170300D69F04120E0F32A004120E0F6FA0041204
:101713000E0FA6A004120E0FB8A004120E0FCAA03B
:1017230004120E0FE9A004120E0FF2A004120E0F02
:10173300B2A104120E0FFEA104120E0F3CA204125A
:101743000E0F32D004120E0F72D104120E0F4BDEA5
:1017530004120E0F40C704120E0F76C704120E0FA9
:10176300BEC704120E0F17C904120E0F6AC3031269
:101773000E0F9BC403120E0FD7C403120E0F91C694
:1017830003120E0FBBC603120E0F34C903120E0F42
:1017930074C903120E0F08CB03120E0FA7CB03124B
:1017A3000E0FFFCB03120E0F92CC03120E0FCCCCF5
:1017B30003120E0F0ECD03120E0F81CE03120E0F66
:1017C30001D003120E0F3ED203120E0F6CD203127E
:1017D3000E0F98D203120E0FA1D203120E0FFED2D8
:1017E30003120E0F8ED303120E0FCAD603120E0F5F
:1017F3004CD703120E0F30DB04120E0F48DB04121A
:101803000E0F52DB04120E0FA8DB04120E0F60FB47
:1018130003120E0F76FB03120E0F17FC03120E0FAB
:1018230056FC03120E0F73FC03120E0FA4FC0312DB
:101833000E0FF1FC03120E0F25FD03120E0F60FDB8
:1018430003120E0F5DFF03120E0FC3FF03120E0FE1
:10185300D7D504120E0F36D604120E0F74D6041207
:101863000E0FB5D604120E0FB9A502120E0FC5A5A1
:1018730002120E0F27A602120E0F31A602120E0F2E
:10188300BEA602120E0FFAA602120E0FFAA702123A
:101893000E0F61A802120E0F0AA902120E0F8AA9D7
:1018A30002120E0F47AB02120E0F69AD02120E0F9A
:1018B30092AE02120E0FF9B002120E0F82B2021292
:1018C3000E0F2AB302120E0F0DB802120E0F08B933
:1018D30002120E0F9EB902120E0FC3B902120E0F9F
:1018E30064BA02120E0F82BA02120E0FE8BA021283
:1018F3000E0F07BB02120E0F34BB02120E0FCCBC2D
:1019030002120E0FEDBC02120E0F93BD02120E0F48
:10191300DABD02120E0F4ABE02120E0FD8BE021219
:101923000E0F35BF02120E0FB0BF02120E0F40C1D1
:1019330002120E0FC1C302120E0F49C402120E0F80
:1019430077C402120E0FA09304120E0F7B9404129D
:101953000E0FA59504120E0FE29604120E0FA09817
:1019630004120E0F199904120E0FE99904120E0FA7
:10197300219A04120E0FD7D604120E0F89D7041220
:101983000E0F337A00120E0FC07A00120E0F397B3E
:1019930000120E0FD47B00120E0FF57B00120E0FF8
:1019A300C97C00120E0F3D7E00120E0F30AE0312E3
:1019B3000E0F5FAE03120E0FD7AE03120E0FE6AF7C
:1019C30003120E0F42B003120E0FB9B103120E0F22
:1019D300D5B103120E0F27B203120E0F6AB2031210
:1019E3000E0F7DB203120E0FD5B203120E0F97B373
:1019F30003120E0F05B403120E0F3CB403120E0FA5
:101A030074B403120E0F06B603120E0FE5B60312DB
:101A13000E0F33B803120E0F16B903120E0FA2B92D
:101A230003120E0FE2B903120E0F01BA03120E0FC7
:101A33004CBA03120E0F6CBA03120E0F05BB03123E
:101A43000E0F94BB03120E0FEFBB03120E0F2FBC2E
:101A530003120E0FACBE03120E0FD0BF03120E0FF4
:101A630016C003120E0F0BC103120E0F33C1031264
:101A73000E0F36C103120E0F40C103120E0F5CC1CD
:101A830003120E0FE4C103120E0F1DC203120E0F39
:101A930049C203120E0F70C203120E0F94C2031237
:101AA3000E0F05C303120E0F18C303120E0F4BC301
:101AB30003120E0FF6DC04120E0F02DD04120E0FDA
:101AC30040DD04120E0FEF7F00120E0FE197031299
:101AD3000E0F049803120E0F519903120E0F9A99C9
:101AE30003120E0FF89903120E0F5E9A03120E0FD4
:101AF300619A03120E0FB29A03120E0F2C9B03125C
:101B03000E0FAF9B03120E0FB29B03120E0F3A9CE4
:101B130003120E0F7D9C03120E0FA0A003120E0FD3
:101B230051A203120E0F92A203120E0F09A6031263
:101B33000E0F37A703120E0FB4A803120E0F3AA904
:101B430003120E0F2CAA03120E0FAFAC03120E0FCB
:101B530036EE01120E0FD6EE01120E0F42EF0112F6
:101B63000E0F5DEF01120E0FE7EF01120E0F40F0A3
:101B730001120E0F8BF001120E0FF2F001120E0F75
:101B830073F201120E0F8BF301120E0F0EF40112FA
:101B93000E0F16F601120E0FBAF601120E0F59F7B9
:101BA30001120E0F47F801120E0F008604120E0FDA
:101BB300C6FB01120E0F59FC01120E0F65FD011237
:101BC3000E0FAEC602120E0F11C702120E0F59C727
:101BD30002120E0F97C702120E0FF2C702120E0F58
:101BE3004FC802120E0F8AC802120E0F0CC902123E
:101BF3000E0F66C902120E0FDACA02120E0F64CB61
:101C030002120E0FB7CB02120E0FD1CB02120E0F20
:101C1300EBCB02120E0F45CC02120E0FCBCE0212EB
:101C23000E0FEACE02120E0F21E402120E0F0FD195
:101C330002120E0F8ED102120E0FC5D102120E0F19
:101C430034D202120E0FF5D202120E0FCED40212AC
:101C53000E0FCFD502120E0F40D702120E0F40D92E
:101C630002120E0FBBDB02120E0F95DD02120E0FD6
:101C730056DE02120E0FCEDE02120E0FE5DE021248
:101C83000E0FDFDF02120E0FD7E002120E0F46E136
:101C930002120E0F7FBC04120E0FD6BD04120E0FDC
:101CA30095BE04120E0FFDBE04120E0FF5FC0212B8
:101CB3000E0F10FD02120E0F54FD02120E0F7AFDCD
:101CC30002120E0FA1FD02120E0FB9FD02120E0F2A
:101CD3005BFE02120E0F70FE02120E0F92FF021233
:101CE3000E0F9BFF02120E0FA4FF02120E0FADFF89
:101CF30002120E0FA3AC04120E0FA5B004120E0FA6
:101D0300AAB004120E0FACB004120E0FFDCB0412D6
:101D13000E0FB4DE04120E0FB3D204120E0FD0FF57
:101D230003120E0F13B104120E0F96DE04120E0FE0
:101D330073DC04120E0F9DDC04120E0F00800212DE
:101D43000E0F338002120E0F9F8002120E0F3A8184
:101D530002120E0FD78102120E0F1C8202120E0FF7
:101D63003E8202120E0F578202120E0F7D82021262
:101D73000E0F9F8202120E0FDD8202120E0F2183BD
:101D830002120E0F438302120E0FA58302120E0FCF
:101D93006C8402120E0F238502120E0F9585021218
:101DA3000E0F608602120E0FB38602120E0F1987F2
:101DB30002120E0F538702120E0FA58702120E0F87
:101DC300138802120E0F7E8802120E0F81880212F0
:101DD3000E0F028902120E0F998902120E0F198A31
:101DE30002120E0F388A02120E0F9C8B02120E0F74
:101DF300A98B02120E0FB58C02120E0FC28C0212A7
:101E03000E0FCB8C02120E0FA38E02120E0FBD8F7C
:101E130002120E0F369002120E0FA89002120E0F2E
:101E2300CA9002120E0F5E9102120E0F329302122B
:101E33000E0F099702120E0F1D9702120E0F2D9708
:101E430002120E0F379702120E0F409702120E0F57
:101E5300499702120E0F539702120E0F8097021228
:101E63000E0FA99702120E0FB49702120E0FD897F6
:101E730002120E0FFC9702120E0F669802120E0F3B
:101E8300AC9802120E0FC99802120E0F4699021255
:101E93000E0F7D9902120E0FBC9902120E0F099AB2
:101EA30002120E0F8F9A02120E0F5D9C02120E0F7A
:101EB300E09C02120E0FC49D02120E0F2BA0021201
:101EC3000E0F84A002120E0FCEA002120E0F29A233
:101ED30002120E0F5EA202120E0FB0A202120E0F1A
:101EE30065A302120E0F14A402120E0F51A40212C4
:101EF3000E0FE6A402120E0F52A502120E0F762D3C
:101F030000120E0FA82D00120E0FD62D00120E0F69
:101F1300AC2F00120E0F8C3000120E0FE4300012A3
:101F23000E0F1F3200120E0F6B3200120E0F94357C
:101F330000120E0F873800120E0FD73900120E0F42
:101F43006D3A00120E0F793A00120E0FAB3A0012DF
:101F53000E0F2E3C00120E0FDF3D00120E0F733ECC
:101F630000120E0FB63E00120E0F343F00120E0F7A
:101F7300513F00120E0F813F00120E0FB63F0012A9
:101F83000E0F864000120E0F2F4100120E0FB543A5
:101F930000120E0FD54400120E0FC04500120E0F93
:101FA300424600120E0F764A00120E0FB34A001279
:101FB3000E0F0B4B00120E0F3E4B00120E0FA84BD1
:101FC30000120E0FDE4B00120E0F694C00120E0FA3
:101FD300C14C00120E0F984D00120E0F514E0012FD
:101FE3000E0FEC4E00120E0FF45100120E0F105391
:101FF30000120E0FB35600120E0FA75700120E0F4A
:10200300AA5700120E0FD95700120E0FDF590012F4
:102013000E0FB85A00120E0FFB5A00120E0F515C2E
:1020230000120E0F905C00120E0F195D00120E0FBE
:102033004D5D00120E0F125E00120E0F2A60001289
:102043000E0F9B6000120E0FDB6000120E0F696112
:1020530000120E0F8B6200120E0F4D6300120E0F53
:10206300546500120E0F6C6500120E0F806500128E
:102073000E0FB86500120E0FE66500120E0F6567AE
:1020830000120E0F8A6800120E0FE76800120E0F7F
:10209300996900120E0FC06900120E0F876A0012B1
:1020A3000E0F1F6B00120E0F456D00120E0F7A6D8F
:1020B30000120E0FDD6D00120E0F0C6F00120E0FCB
:1020C300B46F00120E0FE56F00120E0FFD6F0012BA
:1020D3000E0F8C7000120E0F407300120E0F187546
:1020E30000120E0F347500120E0F507500120E0FF2
:1020F3001E7600120E0F117A00120E0F5484011275
:102103000E0F868401120E0F758801120E0FC188FF
:1021130001120E0F078901120E0FA98901120E0F6A
:10212300058A01120E0F4A8A01120E0F918B0112BA
:102133000E0FA58C01120E0F949001120E0F189121
:1021430001120E0F259201120E0F819201120E0F32
:10215300719401120E0FE69401120E0FF094011206
:102163000E0FFD9401120E0F289501120E0F0F96FC
:1021730001120E0FB99601120E0F379701120E0FAF
:10218300579701120E0F809701120E0FA29701129B
:102193000E0F029A01120E0FC89A01120E0F0D9B19
:1021A30001120E0F8A9B01120E0F3B9C01120E0FA0
:1021B3006D9C01120E0FB39C01120E0FEF9C0112C6
:1021C3000E0F3F9D01120E0F939D01120E0FE99DFD
:1021D30001120E0F359E01120E0FA29E01120E0F59
:1021E3001D9F01120E0FE8A001120E0FE8A10112AC
:1021F3000E0F0DA301120E0F4CA601120E0F5FA9B5
:1022030001120E0F1CAA01120E0F60AA01120E0F6B
:1022130010AC01120E0F24AC01120E0F2EAC0112E2
:102223000E0F38AC01120E0F44AC01120E0F60AC4E
:1022330001120E0F0BAD01120E0F4AAD01120E0F5C
:1022430054AD01120E0F5EAD01120E0FCEAD011291
:102253000E0F19AE01120E0F2EAF01120E0F8AAF21
:1022630001120E0F0BB001120E0FCAB001120E0FA6
:10227300D3B101120E0F07B301120E0FF5B3011202
:102283000E0F0DB401120E0F68B401120E0F86B4B7
:1022930001120E0FCEB401120E0FF5B401120E0F80
:1022A30090B501120E0F56B601120E0FE8B60112C9
:1022B3000E0F62B701120E0F7CB801120E0F29B96F
:1022C30001120E0F51BA01120E0FA1BA01120E0F15
:1022D30005BB01120E0F67BB01120E0F95BB011256
:1022E3000E0FB9BB01120E0FEEBB01120E0F1FBC76
:1022F30001120E0F52BC01120E0F72BC01120E0F0F
:10230300DABC01120E0FCEBD01120E0F29BE01124F
:102313000E0F52BE01120E0FDABE01120E0F5DBF79
:1023230001120E0F88BF01120E0F6DC001120E0FA6
:102333007DE503120E0FB5E503120E0FD6E503126A
:102343000E0F18E603120E0F7AE603120E0F84E641
:1023530003120E0F94E603120E0FCFE603120E0FB5
:10236300AFEA03120E0F9CEC03120E0F82EE031260
:102373000E0F19EF03120E0FBBEF03120E0F6FC2F6
:1023830001120E0FEDC201120E0F49C301120E0FFF
:1023930094C301120E0FAFC301120E0FDAC3011261
:1023A3000E0FF7C301120E0F03C401120E0F9AC5CD
:1023B30001120E0FB3C501120E0F38C601120E0F14
:1023C3004BC601120E0F6AC601120E0F0EC7011281
:1023D3000E0F8FC801120E0F42CA01120E0FD8CA78
:1023E30001120E0FDBCA01120E0F4BCB01120E0F9F
:1023F30069CB01120E0F00CC01120E0F48CC011253
:102403000E0F4BCC01120E0F11CD01120E0F7ECD0C
:1024130001120E0FA4CD01120E0F2FCE01120E0FBB
:102423004DCE01120E0F93CE01120E0F47CF0112A4
:102433000E0F91CF01120E0FC0CF01120E0F1DD040
:1024430001120E0F52D001120E0F7ED001120E0F89
:102453008CD001120E0FD9D001120E0F49D10112E7
:102463000E0F92D101120E0FDED101120E0F0AD2FE
:1024730001120E0F15D201120E0F33D201120E0FDD
:102483001ED301120E0F28D301120E0F63D30112B4
:102493000E0F73D301120E0F7CD301120E0FD0D384
:1024A30001120E0FE4D301120E0F13D501120E0FFA
:1024B3002AD501120E0F3FD501120E0FCDD50112F1
:1024C3000E0F12D601120E0F9ED601120E0FA9D6B1
:1024D30001120E0FEBD701120E0F06D801120E0FC9
:1024E30052D801120E0FC1D801120E0FFAD80112E1
:1024F3000E0F14D901120E0F56D901120E0F26DC3E
:1025030001120E0FD3DC01120E0F40DD01120E0F6C
:1025130080DF01120E0F98DF01120E0F9BDF0112F5
:102523000E0FA7DF01120E0FBBDF01120E0FC3DF69
:1025330001120E0FF6DF01120E0FF8E001120E0F5B
:102543007FE101120E0FEFE101120E0F71E2011292
:102553000E0F32E301120E0F51E301120E0FF2E3DD
:1025630001120E0F4FE401120E0F52E401120E0F6F
:102573007FE401120E0F94E401120E0F08E501121D
:102583000E0F57E601120E0F5DE701120E0FE8E77B
:1025930001120E0F03E901120E0FCBE901120E0F08
:1025A300FCE901120E0F1FEA01120E0F28EA0112B5
:1025B3000E0F57EA01120E0FE7EA01120E0F9DEB01
:1025C30001120E0F12EC01120E0FB9EC01120E0FD5
:1025D3002EED01120E0F65ED01120E0FA3ED011288
:1025E3000E0FD9ED01120E0FEC8504120E0F498563
:1025F30004120E0F4F8404120E0F6A8304120E0F7F
:102603005E8104120E0F6C8004120E0F0A800412F6
:102613000E0FCD9703120E0FC39703120E0F56978B
:1026230003120E0F75E302120E0FD7E202120E0F02
:10263300879503120E0F459503120E0F91E20212B6
:102643000E0F5CE202120E0F539403120E0F279427
:1026530003120E0FDE9303120E0F1B9303120E0FC2
:10266300059003120E0FC88D03120E0F958D0312E2
:102673000E0F3C8D03120E0FCF8C03120E0F8E8C98
:1026830003120E0FC78B03120E0F618B03120E0F73
:10269300008B03120E0FA08A03120E0F7789031209
:1026A3000E0F0B8903120E0F638803120E0F5E8841
:1026B30003120E0F528803120E0F858403120E0F9E
:1026C3005F8403120E0F29E202120E0F14E20212AC
:1026D3000E0FE9E102120E0FDD8904120E0FA98914
:1026E30004120E0F528904120E0FC08704120E0F2C
:1026F300FD8303120E0F9E8303120E0F5F830312DB
:102703000E0F4C8303120E0F128704120E0F418318
:1027130003120E0F108303120E0FFD8003120E0F10
:10272300708003120E0F758604120E0F2C80031295
:102733000E0FD5CF02120E0F008003120E0F06FBF1
:1027430003120E0FD9FA03120E0FA6FA03120E0F7D
:102753007EFA03120E0F1FFA03120E0FFFF9031274
:102763000E0FCAF903120E0F8EF603120E0F63F447
:1027730003120E0F53F203120E0FD0F103120E0FBA
:1027830084F103120E0F38F103120E0F6B8604123D
:102793000E0F92F003120E0F25FA0100000080FBCA
:1027A3008F000100571787000100551735000400FB
:1027B3001E172500020022172600020024172700F7
:1027C30002002617280001003017290001003117E5
:1027D30084000400C91486000100E7162A000100E2
:1027E30032172B00010033172C00010037172D007F
:1027F3000800D5142E00010038172F0001003917E7
:10280300300001003A17310001003B17320001008C
:10281300DD1433000100DE14340001003C173600E0
:102823000100DF14380001003D173900010036179D
:1028330083000200531763000100EB1464000100DE
:1028430034176500010035176D000100EC147100A9
:102853000800CD146600010052174300010043171E
:1028630044000200441745000100461746000200D9
:10287300471747000800E3144800010049174B00BD
:1028830001004A17040001005617A10001005A175E
:102893003700010059178800010058173C00010058
:1028A300E0143D0001003E17490002004B1767008A
:1028B3000100ED144D0002004D174E0001004F17AB
:1028C3004F00020050173E00010042175100010063
:1028D300E114520001004017530001004117540056
:1028E3000100E2140000000000000001363601017F
:1028F30000010201000103010001040106060502B3
:102903000000070100340801000F090401010D0153
:1029130000FF0E08000017020000190100FF1A0152
:1029230000011B0100FE1C0100081D0200001F0125
:10293300000120010001210200002301000F2402F5
:1029430000002601000127010008280200FF2A01D8
:1029530000072B0102402C0100002D0100012E0174
:1029630000012F0100FF30010B1D310800003A0167
:1029730000083B01000F3C0100013D0100FF3E0444
:10298300000042040000460400004A0400004E0414
:10299300000052040000560400005A040000010322
:1029A3007103010301030103010301032203020372
:1029B30001031003000300030003000300030003EB
:1029C300000342030003240306030003000304037C
:1029D3001203250323032503230304030403000332
:1029E3000003000344030003000323030003650300
:1029F30021003503810300030503000300030003E3
:102A03000003250323030302710230016002110254
:102A130070020102020202028002100261023A0005
:102A23004100630273027202620243020002130254
:102A33003800000200020402120200020002000237
:102A4300000204020402370037003C024402000281
:102A53003900000200026502000235028102000211
:102A630005028202830200020101710101010101D9
:102A73001101010131010101010180011001610115
:102A83003B00140063017301720162014301000101
:102A9300130106013D01350004011201000100018B
:102AA3000001000104010401330133013C0144012D
:102AB300320136000001000165010001350081018A
:102AC300000105018201830100010300710030014F
:102AD30060001100700031022003500480001000D8
:102AE3006100000014006300730072006200430081
:102AF30000001300060000000000040012000000A4
:102B030000000000000004000400370037003C020E
:102B130044000000000000000000650000003500D4
:102B23008100000005000000830000003600010062
:102B3300060000000F00000000000000000000007D
:102B4300000003FFFF00000403FFFF0000FFFF0F6F
:102B5300F4010005C4040320000100000B00000081
:102B6300000000000003010F00000000000000004F
:102B73000000000000000000000000000000000052
:102B8300000000000000000000002219401928196D
:102B93008618000000000000000000000000000094
:102BA30000002E1986180000000034198618000052
:102BB3000000000000003A19861800000000000021
:102BC3000000000000000000000000000000000002
:102BD30000000000000000000000000000000000F2
:102BE30000000000000000000300200150840000EA
:102BF30000002001528400000400420166830000AB
:102C0300050042014883000007003001538400009F
:102C1300FDFF21014C8400000600420127830100CF
:102C230020002001051701002100200106170000E4
:102C33007A1B01007A1B0200F01A0280EA1A0300D1
:102C4300F61A0400FC1A0480021B0500081B060088
:102C5300141B3100261B33002C1B3400321BFFFFD7
:102C63000000030003000400080010001F003E00E2
:102C73007B00F600EC01D703AF075D0FB91E713D72
:102C8300000007ECFDFDFDECDCDCCCBCACAC9C9C9B
:102C93008C7C7C6C6C5C5C5C4C4C3C3C2C2C1C1C21
:102CA30003EAF5E5D5D5C5B5A5959585857575650E
:102CB3006555554545353525251515050A742102F4
:102CC3003E21054A210744210C26210D3221FF0014
:102CD3000000160F00000B150B020002220F330039
:102CE300000E0FD0D1D2D3D4D5D6D7D8D9DADBDCE6
:102CF300DDDEDF5A6967426565416C6C69616E634D
:102D0300653039303016181920231A1C1E30000381
:102D13004D4C4651181A25050200011916181616AE
:102D230018230300303017181921301B1D1F3000E2
:102D33003C40423A3F3F392F47300C0E020B040B05
:102D43000A0708000F020402010101010902E80356
:102D5300000000BE040A01000E000300E803FF04A4
:102D63000909031004030A0C041E0828020C0508B1
:102D7300151E14C082C08312120E9015167416F01D
:102D8300A3741FF0901518741CF0A3741FF0901512
:102D93001A7422F0A3741FF090151C7428F0A37406
:102DA3001FF0025AB174F712089890150AE4F0E97B
:102DB300901509F07CE37D147A0B7B151218629051
:102DC3001749E0901513F090151474CDF0A3741403
:102DD300023D3E74F0120898EAFEEBFF5480700344
:102DE300022F47901509123DD37003022F40EA24A6
:102DF3001B12563E707CEA241F12563E6413700267
:102E0300A3E0706E8A828B83122F95901524124B48
:102E1300D0750A00750B00800D123C14126CB012B1
:102E23001766AA0EAB0FEA4B60488A828B83E06574
:102E33000C7004A3E0650D702C8A828B83A3A3A37B
:102E4300A3E0F50EA3E0F50FE50A450B8A828B8319
:102E5300A3A3A3A360C3123F16850A82850B83A392
:102E6300A3A3A380B78A0A8B0B8A828B83124BCCD2
:102E730080B4E508242A12563EFCE5082402F8E44F
:102E83003509F9E8FAE9FB90152412307CA3A3E095
:102E93006402703C8A828B83124BD0800B888289B8
:102EA30083A3A3A3A3123F16E849601F88828983E3
:102EB300E06A7003A3E06B70E488828983A3A3E0D4
:102EC3006C70DA90174F12596E806BECF9121F5227
:102ED300850882850983E06401704FE50824181290
:102EE3002F7E120E68126258120C87E50824121204
:102EF3002F7E120E68E508123DC7120E64E5082402
:102F03000B12625C120C8BE5082417123D64E50872
:102F13002402FCE43509FDE5082419FAE43509FB2C
:102F2300122774740A120E77800CE064027007AAE9
:102F330008AB09122030AA08AB091216CAEEFAEF41
:102F43006480802DEA5402600C90176A7401F0EAE1
:102F53006402FA8023EA5408601A121F4CEA4B7089
:102F63000B9015261261337A08122F8BEE6408FA40
:102F7300EFFB80047A007B000268E2F582E4350906
:102F8300F583E0F50A780A22FB901509E0F9121897
:102F93003222A3A3E0F50CA3E0F50D227B009015EC
:102FA30009E0F912182674042274F41208988A08A6
:102FB3008B098A828B83A3A3A31249C8123D6F385E
:102FC300F583E02409FA12687A700302306F8A826B
:102FD3008B837402124A3D85088285098312307CF3
:102FE300E8F0A3E91264F48A828B83A3A3A3A3A3C7
:102FF300A3A3A3F0E5082403F8E435091230711202
:103003003D6F3AF583E08E828B83A3A3A3A3F0EEF7
:103013002409FAE43FFB8E828F83A3A3125C20F57D
:10302300838882E0A2E58E828F83A3A3A3A3A35008
:103033000474018001E4F0E5082403F58289831216
:103043004BD0EA1251513BF583126841120E6012C4
:103053003D6E3B125D128E828F83A3A31279F01211
:103063000E77EEFAEFFB9015091268C78016F98800
:1030730082F583E0FAA3E0CA22124D6DA3A3227462
:1030830002120E777F04020BBC74F21208988A08AE
:103093008B09ECFAEDFB740E121153E0FC12123E95
:1030A3008A0C8B0DAE0CAF0DEA4F6030AC08AD0946
:1030B30012122CE96026AC08AD09EEFAEFFB1212EE
:1030C30032E970148E828F83123F03FAEFFB1212E0
:1030D30026AA08AB091212567900800279B4024C71
:1030E300BC74F012089874F6120F0BEAFEEBFF8C17
:1030F300088D09750FB3851882851983E4F0750E61
:10310300008002050E902D75E493F8E50EC39840F8
:103113000302320BAA0E7B0012127A8A0A8B0BEA85
:103123004B60E08A828B83A3A312321228F0F8C388
:10313300EE98EF940050CC7C157D007900AA08AB83
:10314300091216B2850A82850B83A3A3A3A3126C6B
:10315300EDE0F8EEC3982925E0F8E433F9E50A2811
:10316300F582E50B39F583A3A3A3A3A3A3123D79AA
:10317300A31257958A0C8B0DAC0CAD0DAA08AB09A5
:10318300121862850A82850B83A3E06401700A1218
:1031930062587401123D8B80447401120ED5850A66
:1031A30082850B83124BCE121262E9603D740912C1
:1031B3001153E0C0E0126258D0E0F07409121153C9
:1031C300E0640370137401120ED5E508240BFAE4CE
:1031D3003509FB12186280127401121153123F1643
:1031E300E50812577B3509126CAE850A82850B837D
:1031F300126264123D8BA3A3E0C0E0E5082414121D
:10320300625CD0E0F0750F00A90F740A0268DFA3B7
:10321300A3A3E0F8851882851983E02274F71208C6
:1032230098E9FE8A828B83A3A3A3A3A3A3E05408F4
:1032330060338A828B83A3A3A3A3A3A3E054026076
:10324300218A828B83A3A3A3A3A3A3A3A3A3E06441
:1032530006600F74E96E600A74CD6E600574F06EDB
:103263007003121F340245BB74F012089874EF12F6
:103273000F0B740F1211531260177408121153E9D4
:10328300F0ECFEEDFF74051211531243831245A7B0
:10329300A3E0F912124A740612115312601774064E
:1032A3001211531251E27003023526123DB3E0FAB4
:1032B3007406121153E0F9121E74123586F8A3E056
:1032C300F9E8497003023526EE2403F50AE43FF5D5
:1032D3000BEE2406F508E43FF5097C00850882F52A
:1032E30083124BD0850A82850B83E0F91212507446
:1032F30003121153126017850A82850B83E0C0E025
:1033030085188285198312357FD0E01252F7F9852B
:103313001882851983123C1B124E49123215FAA3E7
:10332300E0CA2407F582E43AF583E8F0A3E41260E7
:10333300222406F582E438F583E4126CBA1249BC00
:10334300120E60EE123D6F3F125D127403121153A1
:103353001249C824091279EA120E777429121153FB
:10336300126CE712307612530A3A126CAE742B12B7
:103373001153E0C0E08518828519831251A9D0E06A
:10338300F07402121153E4F07425121153780812E9
:1033930010FC02347D7403121153125CDA8882F537
:1033A3008312356EA3A3A31257A0FB121268850ED6
:1033B30082850F83A3EAF0A3EBF074031211531277
:1033C300357FA312356E1259AFA2E6500F850E82D8
:1033D300850F83A3A3A3A3A3E0D2E1F07405121185
:1033E30053E0706B850E82850F83A3123F169015F1
:1033F30064E0687003A3E0697055850E82850F83CE
:10340300A3A3A3123D4E750C00780C120E68780826
:10341300120E5C7429121153E0F50C780C120E682D
:103423007427121153120C8B901571120C8B7900A7
:103433007419121153124BA0122078740A120E77CA
:10344300850E82850F83A3A3A3A3A3E04405F07491
:1034530002121153E004FC8E828F83124BCA8E82B8
:103463008F83A3A3A3E0F912125074031211531212
:1034730060177402121153E004F074031211531213
:1034830051E260677402121153E0FA740612115389
:10349300123F16C3EA98E499505174021211531261
:1034A3003858851882851983E028F8A3E039F9E8AC
:1034B300240FF50EE439F50F850E82F583E4F074DD
:1034C30003121153123579640160030233987405B2
:1034D30012115374011268CDF07403121153125A6E
:1034E300A112387BE8F0A3E90233BC851882851961
:1034F30083124BD0121E7A851882851983120C8B86
:103503007426121153E0FD7425121153E0FC740A62
:10351300121153E0F9EEFAEFFB121F2E7402120E92
:103523007780438E828F83A3A3A3E0C0E0740C1241
:103533001153D0E0F0126736E0C0E0740D1211535E
:10354300D0E0F074061211531251E27009740E1296
:10355300115374B98007740E1211537410F0740967
:10356300120ECD12207274110268DFE0850E82857F
:103573000F83A3A3A322E01252CFE022E01252CF83
:10358300A3A322851882851983EAF0A3EB1251EBDA
:103593002274F012089874E1120F0B740412115381
:1035A300E9F07403121153ECF07402121153EDF0AD
:1035B3008A0E8B0F742F121153122F97AA0CFB1222
:1035C3001E687401121153E9F0AA0CAB0D121E6EA2
:1035D3007401121153E07003023853851882851960
:1035E30083E480158E828F83A3A3A3A3A3E0D2E3F6
:1035F300F0851882851983E004126825F8851882FE
:10360300851983E0C398400302384A7401121153A9
:10361300E0700302384A851882851983123858E509
:103623000C28F8E50D39F9E8240FFEE439FF8E8202
:10363300F583A3A3A3A3A3E0A2E040B57508007597
:103643000A08750B007402121153E0600375082019
:103653007C087D0079007405120ECD1216B28E829D
:103663008F83E0603E9015B4E06401701AE508D2E0
:10367300E3F508750B10123868121153E8F0A3E94B
:1036830012569374FF807643080C750A0C8E828F52
:1036930083A3123873126CB0740512115374FFF0C4
:1036A300A3805A7404121153E06009E508D2E6F5C9
:1036B30008750A0A8E828F83A3E064FE7003A3E079
:1036C300F4703074121211537404126282F8741D70
:1036D300121153E8124A3D7412120ECD121D967D3B
:1036E300007C0079007415121153AA82AB83121B5C
:1036F30062800B123868121153E8F0A3E9F07407E3
:10370300121153E508F0123DAAC0E07409121153D7
:10371300D0E0F0740A1211537401F07405120ECD47
:103723001220367411121153E06003023828740D0D
:103733001211531252F28E828F83A3A3A3A3F074A8
:103743000D121153124A0BE50AF0A3E50BF07403B3
:10375300121153E0C0E012499CD0E01259AF60113E
:103763009015B4E0C0E0740D1211531249E6D0E095
:10377300F0740D121153123F16850C82850D83A32D
:10378300A3A3A3A3123861241C126011126CCA12E2
:10379300386312596139126755C0E0124983D0E08A
:1037A30012681AC0E0740D1211531244C9D0E0120A
:1037B300651BC0E0740D1211531244BFD0E0F074C6
:1037C3000D121153123873123861242A12601185B5
:1037D3000E82850F83A3A3A3A3A3A3A3A3E01260D5
:1037E3000A123D99C0E01244ABD0E0F0740D1211FF
:1037F30053124BD0850E82850F831268302428F52F
:1038030082E43B126CAE123DA2126841120E6012AA
:103813005D0BEA125FA33B1279EE120E7774051269
:103823000ECD12203C8E828F83A3A3A3A3A3E0D249
:10383300E0F07411121153E060030235E7740112D2
:103843001153E0140235F37900AA0CAB0D121F3AA1
:10385300741F0268DFE075F007A4F8A9F022A3A3A0
:10386300124BD4E8228E828F83A3123F1A7405224F
:10387300E012387BA3A3A322F8A3E0F9850E828587
:103883000F83A32274F012089874E8120F0BE985D2
:103893001882851983F08A0E8B0F8A828B83A3A3E8
:1038A300A3A3A3A3A3A3E0F9121E928A088B09EA98
:1038B3004B7003023964E50E125165123DC2123D8D
:1038C30059851882851983E060030239677C048572
:1038D3000E82850F83A3A3A3A3A3A3A3A3E0F9123B
:1038E3001E98EE4F607B8E828F83A3A3A3A3123F08
:1038F300167407121153126148123F1674091211FC
:1039030053124A6DC0E07411121153D0E01264F9DE
:10391300A3A3A3A3A3A3A3123F16740F12115312BD
:103923006CB07412121153E41268D5C8241FF582C7
:10393300E438F583125CD6C413135403FC70027C81
:10394300048E828F83E0F97808120E64742059FD87
:10395300744059F97403120ECD121F2E7402120E05
:10396300770268DD7C08850E82850F83A3A3A3A35A
:10397300A3A3A3A3E0F9121E988B0BEA4B700302D7
:1039830038E5EE4F60DB851882851983E0F50C7806
:103993000C120E68850882850983A3A3A3A3A3A39E
:1039A300A3E0F50C780C120E688A828B83A3A3A381
:1039B300E0FB8A82850B8312750D8A82850B83E077
:1039C300FA8E828F83A3A3E0F912277A7402120E70
:1039D300770238E974F712089874FA120F0BE9FEAC
:1039E300780179017F00800379000F124D4CE0FCD0
:1039F300EFC39C5026EF75F007A4FC85F008AD08D3
:103A0300EA2CFCEB3DFD12433BE0A2E050DA540C00
:103A130060D6E0A2E250D3780080CF8A828B83A362
:103A2300A3A3A3A3A3E0703DE9A2E0400574016E44
:103A330070338A828B83A3A3A3A3A3A37401123D30
:103A43002BE0C0E07403121153D0E012439AE0C09C
:103A5300E07404121153D0E0F07405121153E8120C
:103A63005C7512207274060245B8C082C083790166
:103A7300121F3A025AB174F4120898EA4B90176A6B
:103A83006019E4F08A088B09F50AF50B7808120E21
:103A93005C7A02122F9F120E77800A7401F07A0269
:103AA3007B00122F8C02308774F012089874F31283
:103AB3000F0B7403121153E4F0A3F0901524123D7D
:103AC300597401121153E4F0A3124A4204F0901501
:103AD3005EE0A2E35003023B9E123D1F74091211E4
:103AE3005312113C740912115378081210FC9015EB
:103AF300267808120EDD740512115378081210EDA2
:103B0300123C22740512115378081210A050077A40
:103B1300017B00023C0F7405121153780C1210FC48
:103B230090174EE0F509780C7908120829A80CA91A
:103B33000D90174FE0C398E4995003E08001E885A6
:103B43001882851983F0740912115378081210FC36
:103B5300C008C009C00AC00B7405121153780C12B7
:103B630010FC123C22780C7908120829E4F50AF5B6
:103B73000BD00FD00ED00DD00C780C7908120FB0EB
:103B8300901526780C1210ED8011123C14126CB0B3
:103B9300EEFAEFFB121766AE08AF09EE4F60658EC3
:103BA300828F83123212C398502DEE2403F8E43F20
:103BB300F9E0FA88828983E0C39AF06023740312E0
:103BC300115312407C7401121153EEF0A3EF1261F2
:103BD30063FEA3E0FF80C48E828F83A3A3A3E4F0DC
:103BE3008E828F831279A774011211531251E28EC0
:103BF300828F83A3A3A3A3609112613C121153127A
:103C03003C1B80897403121153124BD0740D02684C
:103C1300DF123F1A90152422125D01A3A3A3229061
:103C2300174D1279AFE4F50AF50B2274F0120898D8
:103C33008A088B09890A78007900901524123D5966
:103C4300FBEE4B601E088E828F83A3A3A3A3124BAC
:103C53009A601008E87001098E828F83123D55EA3D
:103C63004F70E3901750124BD0C3E89AE99B40037F
:103C7300023D127A06123D15A80CA90DEA497003FC
:103C8300023D128A828B83E508F0A3E509123D34D5
:103C9300E50AF090174F124D54123D2BA3E4F0A305
:103CA300F0901524124B9A600D8E828F83A3A3A3E9
:103CB300A3126CB08017901524126CB090155EE0BF
:103CC300A2E34009123D1F90152612113C90155E88
:103CD300E0A2E3503A7A087B00901509E0F9121844
:103CE30038EA4B4C4D702890174DE0F508A3E0855A
:103CF300080CF50DE4F50EF50F780C120E5C7A083E
:103D03007B00901509E0F912182C7404120E770247
:103D130068E27B001217608A0C8B0D2212184AEAA4
:103D2300F8EBF9ECFAEDFB22123D2F22123D34A3FE
:103D330022F08A828B83A3A322E508F00245BBF01D
:103D43008E828F83A3A3A3A3A3A32212564CA3A360
:103D5300F022A3A3A3A3E0FEA3E0FF227F05020BAF
:103D6300BCF582E43509F583E0F922EA123D7322BA
:103D73002410F582E422123D81A3A3A3A322123FC0
:103D83001E85088285098322123D8F22F0850A82CF
:103D9300850B83A3A322E50E2411123DBFE022E588
:103DA3000E240E123DBF22E50E2410123DBFE02269
:103DB300123DB722EE123D733FF58322F582E435BF
:103DC3000FF58322240FF50AE43509F50B780A224F
:103DD300E0F91216DC8A088B09EA4B2274F2120806
:103DE30098890B8A088B098A828B83124BD0121F06
:103DF3005EEA4B600479B8806A121F6AE9F8902D75
:103E030066E493F9E8C399400479B280567A1512AF
:103E13003D15AE0CAF0DEA4F7004791080458A82D0
:103E23008B83E4F0A3123D34E50BF0750A007808A8
:103E3300120E607C127D00EA24031267EC120E77E7
:103E430090152A1251E2700890152A800C123F1621
:103E530088828983123E6970F4EEF0A3EFF0121F9B
:103E63007C7900024CBC124BD4EA4B8882898322B2
:103E7300C082C08390152A80048C828D8312750EB4
:103E8300EC4D60288C828D83A3A3E069600574FFE9
:103E93006970E68C828D83A3A3A3E06A7003A3E019
:103EA3006B70D6EC2403FAE43DFB80047A007B00BC
:103EB300025AB174F7120898E9FD74FE6D70047C20
:103EC3000180027C0090152A80096D70027C0188B4
:103ED3008289831251E2601F88828983A3A3A3E0AE
:103EE3006A7003A3E06B70E7ECA2E088828983A386
:103EF300A3E050D6F9800279FE0245BBEEF9800CAF
:103F0300A3A31279AFEE227402120E777F02020B83
:103F1300BCF583123F1A22123F1E22E0F8A3E0F9F8
:103F230022123F1E8E828F8322120E777F03020B93
:103F3300BCC082C083790090152A800109E0FAA3EE
:103F4300E08A82F583E582458370F1025AB174F603
:103F5300120898E4F508F5097808120E64902D66A6
:103F6300E49375F013A4A9F0124071126D0E120EB2
:103F730077E9FE74096E7003121F76023EFF74F632
:103F830012089874FE120F0B851882851983E4F0CA
:103F9300A3F0A818A919880889097808120E64756E
:103FA30008027509007808120E6412697F120E77F1
:103FB300023F0A74F512089874EB120F0B851882EE
:103FC300851983E4F0A3F090152A80748E828F8381
:103FD300A3A3E0C0E07402121153D0E0125693A9D8
:103FE30082AA8389088A09750A007808120E607C00
:103FF300127D007406121153126CD3120E777402E1
:10400300120EC5880889097808120E64750813759D
:1040130009007808120E6474041211531251857545
:10402300F013A4F8AAF075F013E912406D12698732
:10403300120E7785188285198312407C8E828F83B6
:10404300123D59EE4F7085A818A919880889097877
:1040530008120E647508027509007808120E6412BE
:10406300697F120E777415023F2CA42AF9E8240203
:10407300FCE439FD7A427B0022E02401F0A3E03422
:1040830000F02274F412089874EB120F0B7E007F79
:1040930000A818A919880889097808120E647508F8
:1040A300028E097808120E647C007D007A42126D3C
:1040B3001A120E77E9706C8E0880567402120EC5C0
:1040C300880A890B780A120E64750A13750B007837
:1040D3000A120E64E50875F013A4F8AAF075F0133C
:1040E300E50912406D126D1C120E77E9701B740303
:1040F300121153AA82AB837402121153E0F9121FF7
:1041030058E970050EEE70010F0508E50870020509
:1041130009851882851983123F16C3E50898E509B6
:10412300994098EEFAEFFB741502308474F6120886
:10413300988C828D83A3A3124388F0EA125FA93B74
:10414300F583E0C0E0124345D0E0F0EA241DF58298
:10415300E43B123F14124329124383F0A3F0EA24F1
:104163001FF582E43BF583123D59EC12431C3DF5E8
:1041730083EEF0A3EFF01243223BF583124353A3E4
:10418300A3A3A3A3A3EEF0A3EF125C04FE8C828D82
:104193008312439274035EFEC39403400302430FEE
:1041A300EE600874026E60030242348C828D83E0F9
:1041B300540CFE740C6E7003024273E0A2E4400DD3
:1041C30088828983E08C828D83A31243A874086E4E
:1041D30060030242731243337401F08A828B83A318
:1041E300A3A3A3A312565970148C828D83E0440CAD
:1041F30012439AA3A3124353EEF0A3EFF08C828DE4
:1042030083E0A2E4402B888212436112437650017B
:1042130009F582124361A3A3A3A3A3A3F0A3EF12FF
:1042230043A28C828D83A3A3A3F0E82403F8500157
:104233000988828983E0C0E0EC2411F582E43DF52E
:1042430083D0E01243928C828D83E0A2E75075887D
:10425300828983E0FE8C828D831243A874FC5E7096
:104263000C8C828D83A3E054036403701E02430FFE
:10427300124333E4F0740C6E60030241DE88821251
:1042830043671243765001090242008C828D83A357
:10429300E05403603288828983E0C0E0EC12434D2E
:1042A3003DF583D0E01243A98C828D83E0540364EF
:1042B30002701488828983E0C0E012433BD0E0128D
:1042C30043A98003A3E4F0EC1251513D126CAEEC10
:1042D3002410FEE43DFFEA241DF582E43BF583E070
:1042E300F5088E828F83E0C3982508F508F0EA2449
:1042F30017F8E43BF98882F583E0C39508C0E01220
:104303004329D0E0125C04C39508500A124329E400
:10431300F0124345E4F0023F0F2415F582E422EA4C
:10432300240DF582E422EC240DF582E43DF583228D
:10433300EC12530A3DF58322EC2414F582E43DF597
:104343008322EC123D733DF583222413F582E4228C
:10435300E0FEA3E0FF8C828D83A3A3A3A3221243D9
:1043630067A3A3228983E0F508A3E0FFE5088C8215
:104373008D8322A3A3A3A3F0A3EFF0E82402F822E2
:10438300124388A322E4F08C828D83A3A3A3221279
:1043930043B0A882A98322123D2FA3A3A3A3221271
:1043A30043B0A3E022A31243B008A98322125C0DF9
:1043B300A32274F412089874F3120F0B8A0A8B0B5E
:1043C300ECFEEDFF8C82F583E0540CF508E0A2E7E8
:1043D3005006E508D2E7F508E508D2E1F5081256DC
:1043E300597006E508D2E4F508E0A2E55006E508B1
:1043F300D2E5F5087C087D007900AA18AB191216DE
:10440300B27402121153E508126CB4C0E0740312C3
:104413001153D0E0124A42E50AF0A3E50BF074050C
:10442300121153126520121153E0707774081211A0
:10443300531249C8125BF63812653BC0E074081288
:1044430011531244C9D0E012651BC0E07408121165
:10445300531244BFD0E0F074081211531244B5E074
:104463001249F0124A7112600AEE2411125625C045
:10447300E01244ABD0E0F0EE2414125625C0E074F1
:10448300081211531249C82435F582E438F583D054
:10449300E0124A15C0E074081211531249CCD0E05F
:1044A300126274740D023084E82432F582E439F523
:1044B3008322123F24A3A3A3A3A3A3221249DC12A2
:1044C300671A38F583221249DC2426F582E438F58D
:1044D300832274F71208987E008A828B83A3A3A396
:1044E300A3A3A3A3A3A3E064046003024597125309
:1044F30002E060030245971251643B1251E07003DE
:1045030002459788828983E054036003024597E854
:1045130012530A39F583E0FA8C828D83A3A3E0FB5F
:10452300A3E0CB2411F582E43BF583E06A70658850
:10453300828983A3A3A3A3A3A3A3A3A312459BE05D
:104543006A7003A3E06B704C88828983A3A312452E
:10455300A7E0FFA3E0CF24061256256A7003A3E069
:104563006B703188828983A3A3E0F88C828D83A347
:10457300A3E0F9A3E0F5838982A3A3E06860138C29
:10458300828D83A3A3A3E0F5838982E0540C6404A2
:1045930070027E01EEF9802012459F22124BD88CC7
:1045A300828D8322A3A312459FA3A322740C12110D
:1045B30053E0F9740D120E777F01020BBC74F612EF
:1045C300089874FC120F0BEAFEEBFFECFAEDFB8C80
:1045D30082F583A3E0540360169015201251E26024
:1045E300597900EEFCEFFD125E01120A82804B85C1
:1045F3001882851983EEF0A3EFF07402121153129F
:104603004A37AC18AD197A947B1F1221BC8A088BE8
:1046130009A808A909EA4960218A828B83A3A3A375
:10462300A3A3A3A3A3A37406F07A0088828B8312A7
:1046330049C8125FCAE0F912211A7404023F0C74CC
:10464300F212089874F3120F0BEAFEEBFF8A82F55D
:1046530083A3A3A3A3A3A3A3A3A3A3E0F50A9017F0
:104663006AE0700579BA0249807508017509007519
:104673000C00750D007C087D007900AA18AB191297
:1046830016B274051211537401124A4A540460128B
:104693007402121153E0D2E6124A4A5408700375A9
:1046A3000803E05410600674404508F508E0540818
:1046B30060227402121153E044C0124A4A5420602B
:1046C3000A7403121153E0D2E080087403121153E9
:1046D300E0D2E1F0EE24151256251249B0700374AE
:1046E3000169700674084508F5088E828F83A3A3B9
:1046F300A3A3A3A3A3A3E070161222168518828591
:1047030019831260177402121153E0D2E2803064ED
:104713000F70107402121153124A5274044508F5B3
:1047230008807F8E828F83A3A3A3A3A3A3A3A3E065
:1047330064028E828F83700A126CE7E8F0A3E9F0BB
:104743008060A3A3A3A3A3A3A3A3E06403700DACFE
:1047530018AD19EEFAEFFB121FCA80468E828F83C3
:10476300A3A3A3A3A3A3A3A3E0640170359015B4EB
:10477300E060107402121153124A52750910750A3F
:10478300FF80187402121153E0440C124A4274FD64
:10479300F0A374FFF074044508F5088E828F83122A
:1047A3002F97EE2415125625A2E0503F74021211E2
:1047B30053E0540C701B8E828F83124BD0121C2E2D
:1047C300E9700579BB0249807402121153E0D2E506
:1047D300F0EE2415125625A2E05010740212115364
:1047E300E0540C64047004E0D2E5F0EE2411125698
:1047F30025C0E07404121153D0E012652212115344
:10480300E060030249797408121153124A0BE50858
:10481300F0A3E509F01249A6E0C0E012499CD0E0FC
:10482300F012498DE0C0E074081211531249C81206
:10483300434D38F583D0E0124A716401701190152D
:10484300B4E0C0E074081211531249E6D0E0F074EA
:1048530008121153124A06124997FAE8241CF582EA
:10486300E439F583EA124A3DEE2415FAE43FFB8A64
:1048730082F58312750EE812596139F583124A37AE
:10488300EE241C125625C0E0124983D0E0125AA729
:104893001249B07003740169701374081211531232
:1048A30052F2FAEE241D125625F9121E9E8E828FA5
:1048B30083A3A3A3A3A3A3A3A3A3E0C0E0740812A9
:1048C30011531244C9D0E0F074081211531244BFBB
:1048D300E50AF074081211531251852428F582E475
:1048E30039F583E50CF0A3E50D124A1D1249F012C8
:1048F300569E12600AEE124997C0E0E82433F5820F
:10490300E439F583D0E0F0EE241B125625C0E074A1
:10491300081211531249CCD0E0F0EE241A12562596
:10492300C0E074081211531249C82432F582E438E6
:10493300F583D0E0124A151249BC120E60126720AB
:1049430012750E740B1211531249C8242F1279EAEF
:10495300120E77EE2415125625544060129015401E
:104963001251E2600AAA18AB19125E01120A82AA56
:1049730018AB1912203C740C121153E0F9024CB716
:10498300E82420F582E439F58322EE2419F582E444
:104993003FF5832212672FE022E82412F582E439DF
:1049A300F58322EE2418F582E43FF583225480F840
:1049B300A3E05401F974806822F508A3E0F50975B2
:1049C3000A007808221249DC221249DC2434F582D9
:1049D300E438F58322A3A3A3A31249E022E0F8A3BA
:1049E300E0C8221249DC12431C38F58322FAA3E003
:1049F300FBE8242AF582E439F583EAF0A3EB22A34A
:104A0300A3A3A3123F1AEE2212518912516939F559
:104A13008322F0EE24131256A622F0EE240D125632
:104A2300A622E0FC8A828B83E02CFCA3E03400FD09
:104A33008A828B83ECF0A3EDF022F0A3E4F022F062
:104A430085188285198322F0EE24151256A622E0DA
:104A5300D2E3F0124A5A228E828F83123F1E8518A8
:104A630082851983E8F0A3E9F022E8F0A3E9126153
:104A73005DE02274F71208988A828B83A3E06401B5
:104A830070047E6380027E648A828B83E06008798F
:104A930005124AAA24F3FE90155CE06007F9124A56
:104AA300AA24F2FE0245971220E4E9F8EEC3982205
:104AB30074F612089874FE120F0B851882851983F9
:104AC300126017E9FEECFAEDFB9004811251E260EB
:104AD30032A818A919880889097808120E647D017B
:104AE300740E121153E0FCEEF9900481125FEB1285
:104AF3000A827402120E77EA4B6004790080067909
:104B0300B2800279B6023F0A74F7120898E9FE9060
:104B130015161251E2601F7409121153E0F508785B
:104B230008120E68EEF9901516125FEB120A8274E2
:104B330001120E77800279B60245BB74F71208980A
:104B43008908ECFEEDFF79B5E508245E602014606A
:104B53000624F86034803D900483124B9A6035122A
:104B63006D2B120A828E828F831260178024901518
:104B73001812750EEC4D601CEEFCEFFD901518122B
:104B83005FEB120A82E9F9800B901514124BA01205
:104B9300186279000245BB124BD4EA4B22127512FC
:104BA300EEFAEFFB2274F7120898E9FE79B574ABBD
:104BB3006E700B901514124BD012186279000245D7
:104BC300BB8E828F83A3A3A3A3A3A3A3A3124BD4BC
:104BD30022124BD822E0FAA3E0FB2274F1120898C8
:104BE300EAFEEBFF8C0A8D0B750801901564E06EED
:104BF3007003A3E06F700C124CABAA0AAB0B121834
:104C030062805E12221CEE6A7002EF6B7009AA0AC0
:104C1300AB0B122222804AAC0AAD0BEEFAEFFB1269
:104C23001D72E9F508901755E070361226AEE9704B
:104C330030E508702C901534E06E7003A3E06F70BC
:104C430020EE4F601C750C2C750D15750E00780C3D
:104C5300120E607C087D00AA0AAB0B126CD7120EF1
:104C630077A90802760A74F2120898EAFEEBFF8C21
:104C7300088D09750A01124CABEEFAEFFB12185CB2
:104C8300E964017011901564123F16850882850945
:104C930083126CB0800EAC08AD09EEFAEFFB121D67
:104CA30078E9F50AA90A80111222108A0C8B0DAC3F
:104CB3000CAD0D22740D120E777F06020BBC74F639
:104CC300120898EAFEEBFF7A0D7B00121760EA4B9D
:104CD3006062EE24241269B4F0EE24251269B4A3B1
:104CE300124D791269BAA3A312674D124D54F0EE17
:104CF300124D3A124D69E8F0A3E9124D90124D613D
:104D0300126CB0EE124D43126810A3A3A3A3F0EEEE
:104D13002433125625C0E0124D4CD0E012653F12E9
:104D23004D61A3A3A3E8F0A3E9124D88C0E0125399
:104D330002D0E0F0023F0F242AF582E43FF58322FC
:104D4300242EF582E43FF58322EA12577B3BF58359
:104D530022124D5822E08A828B83A3A3A3221268D6
:104D63006FA3A3A3A322124D6D22123F1E8A828B2F
:104D730083A3A3A3A322F0124D7E22EE2426F58261
:104D8300E43FF58322F0EE24321256A622F0EE24FD
:104D93002C1256A62274F412089874FE120F0BEC10
:104DA300FEEDFFEC241612562564057010EC240664
:104DB300FCE43FFD121FC4E97003024E44AC18AD7E
:104DC30019126A69121C348518828519831251E2FB
:104DD300606B8E828F83E064017058E875F009A4DC
:104DE300F8AAF075F009E9A42AF9748D28F8740279
:104DF30039F9E8FAE9FB8882F58378081210FCEEAA
:104E0300124EE61210A04027851882851983124A94
:104E130006125633124E4978081210FC9083EA7832
:104E2300081210248A828B8378081210ED800A7985
:104E3300A28010EE240F126CAA7900800679A1805B
:104E43000279C8023082124A67EE12673B2274F27B
:104E53001208988A0C8B0DECFEEDFFEC125633E42E
:104E6300F0A3F09083B678081210FCEC124EE61211
:104E73000F4B6067EC240E12562C703478B39015E8
:104E83005BE0702890158DE064017020EC24111212
:104E93005625F91220CC8B09A909EE1251653F1250
:104EA3006015EA4960047800800278A18808802EA2
:104EB300E060046402700A121FD6E9F508700780E7
:104EC3001DE064037010EEFCEFFDAA0CAB0D121C89
:104ED30058E9F50880087508A180037508A3A90897
:104EE300024CBC12673B78082274F012089874F5E0
:104EF300120F0BEAFEEBFFEA240AFCE43F8C82F577
:104F0300831279AB12516F7403120ED58A828B838D
:104F1300125E0BE97003024FD57401120ED57403B0
:104F2300120ECD121C3474011211531251E270038C
:104F3300024FD5E875F009A4F8AAF075F009E9A4C1
:104F43002AF9748928FC740239FDE508240E1262DB
:104F53005CE4F004121153123F16E5081251653553
:104F630009126CAE8C828D83121130E50824121263
:104F7300625C12113C9083EA78081210FC8C828DDB
:104F83008378081210378C828D83780C1210FC9072
:104F930083C678081210FC780C7908120829E508F2
:104FA3004509450A450B702A7401121153125185A4
:104FB30075F009A4F8AAF075F009E9A42AF9749127
:104FC30028F582740239F5837401F07A007B0812A4
:104FD30051928E828F83A3A3A3A3A3A3A3A3A3A36B
:104FE300E02406FCA3E03400FD8E828F83125E0B67
:104FF30012652D603EEE240A125157124A0B746853
:10500300124A3DE812515139F5837402F090154666
:105013001211308C828D83126004125BF63CF5838F
:1050230012113C9083EA78081210FC901546780818
:105033001210371251CD705D90151412517DA3A338
:10504300A3A3A3A3A3A3A3A3125C2C12185CE970CC
:1050530010125BEA901514125BFC700512652D604B
:10506300348E828F83A3A3A3A3A3A3A3A3A3A31277
:10507300517D124BD0121C5EE960118E828F83A387
:10508300A3A3A3A3A31251B9E4F0A3F08E828F8349
:1050930012519FE4F01251CD600302514C8E828F66
:1050A30083A3A3A3A3A3A31279A790155BE0600333
:1050B30002514190158DE064016003025141750A6C
:1050C3003A750B00780A120E647402120EC5880A30
:1050D300890B780A120E64126FA6120E77E9705BC1
:1050E300E508240E12625C74011251E7C0E0E50882
:1050F300241112625CD0E0F0E508240F12625C74A4
:105103003A124A3D901542121130E50824121262F8
:105113005C12113C9083EA78081210FC90154278D7
:10512300081210379083EA78081210FC9015427821
:1051330008120F4B700812518E800312516F1251D7
:10514300CD7006125AED74A1F0740B0268DF240EC1
:10515300F582E422F8E43FF9E8FCE9FD8882F5836F
:1051630022EA12516922240FF582E422E508125142
:10517300693509F583E4F0A3F0221275128E828F4C
:10518300832212518922123F1EE8227A007B029069
:1051930013EDE0F9121706228A828B83A3A3A3A33C
:1051A300A3A3A3A3A3A31251AD221249E0240EF596
:1051B30082E438F58322A3A3A3A31251C122124987
:1051C300E0240FF582E438F583228E828F83A3A334
:1051D300A3A3A3A31249D8240FF582E438F58312BD
:1051E300518949221251EB22F0851882851983E0F7
:1051F3002274F6120898EAFEEBFF7A237B0012175B
:1052030060EE240AF508E43FF5098508821260156B
:105213007C237D0079001216B285088285098312EA
:1052230051E270030252B5EEFAEFFB121FE2125184
:10523300CD60748E828F831252E864018E828F83D5
:10524300A3A3A3A3A3A370071252DE740E8021129B
:1052530051E2701012652D700B8E828F83A3A3E031
:10526300A2E050071252D4740D80051252D4740573
:1052730012653F5403640170071252BC7405800B1E
:1052830090155CE0C0E01252BCD0E01252F7F583F7
:1052930088821256528508828509831249C8125F93
:1052A300A938F583E9800E85088285098312608E0B
:1052B3008003125FD1F0023F0F8E828F83A3A3A3DB
:1052C300A3A3A3A3A3A3A31252CE22E0125FF0A32E
:1052D300228E828F83A3A3A3A3A3A31249D8125F11
:1052E300AF38F58322A3A3A3A3A3A3A3A3A3A312CA
:1052F30051ADE0221252FB22126A7EF8A3E022EAA9
:1053030012530A3BF58322240CF582E42274F11232
:10531300089874E4120F0B8A0C8B0D8C088D097A94
:10532300237B001217608A0A8B0BAE0AAF0BEA4F7E
:10533300700302560D125FB5E508241512563E6838
:105343007003A3E0698E828F8370047402800274F9
:1053530001F0E508240DF8E43509F98882F583E0C6
:10536300FAC3E49AFA95E0FB12563A2AFAA3E03B11
:10537300FB8E828F83A3A3A3A3125C138E828F83DE
:10538300A3A3F0EE2420F582E43FF583E4F0EE24BA
:1053930021F582E43FF583E4F0EEFAEFFB12209669
:1053A30085088285098312565970098E828F83A3DB
:1053B3007405800690155C125647F0EE2417F50A23
:1053C300E43FF50B8E828F83125652E9850A82855C
:1053D3000B83F0EE2416F8E43FF9E508240EFAE413
:1053E3003509FB88828983124A25E5082410FAE4EB
:1053F3003509FB850A82850B83E0FC88828983E07B
:10540300F88A828B83E0C398C39CF8125693F0EE1C
:10541300FCEFFDAA0CAB0D121FDCE9F50B8E828F9E
:1054230083E064027006125BEA125617E50B600311
:10543300025604750C00750D00901755E064016069
:1054430005E06402703F1256296008EE24211256CB
:105453002C70328E828F83A3A3A3125FD712565F61
:10546300EE2416125625125688FAE439FB123D171C
:10547300EA4B6011126839120E6012566DAA0C12B3
:105483006CD7120E77EEFAEFFB1220A2E9F50B9020
:105493001755E064016008E0640260030255F7E910
:1054A30070030255F7E50C450D70030256048003A3
:1054B300850E0B125629600BEE242112562C600325
:1054C3000255FD850B0E850C08850D09750A0078BC
:1054D30008120E6012566D8E828F83A3A3A3A312AC
:1054E30079F0120E77EE2420125625600D125632F3
:1054F3007468124A3DEE24208015EE2421125625AD
:1055030060151256327403F0A37401F0EE2421F5F2
:1055130082E43FF583E4F0EEFAEFFB1220A2E9F513
:105523000B70907C137D0079007409120ECD121656
:10553300B2741A121153740112569E64687002A356
:10554300E0704F8E828F831251B9E06405600302CD
:1055530054B37C0879FF8E828F83A3A3A3A3E02493
:105563002A125C2F12173CE970030254B37C087DA6
:105573000079FF7401120ECD1216B27401120ED50A
:105583007A007B0079AB121FBE741912115374FC9D
:105593008015125632E064037004A3E064017008BE
:1055A300741912115374FFF0E4F508F50978081221
:1055B3000E647402120ED57413121153AA82AB83B4
:1055C300126114120E77851882851983E0602B749B
:1055D30009120EC5880889097808120E6475081324
:1055E3007509007808120E647C007D001269871229
:1055F3000E778006E50C450D6007AA0CAB0D12175C
:1056030066EEFAEFFB1217668003750B10A90B7495
:105613001C027607EE2406FAE43FFB12186222EE20
:10562300240C1256A622EE24201256A6640122EE62
:105633001251693FF58322E508240EF582E435090A
:10564300F583E02212564CA322E08E828F8322A39D
:10565300E0F91220E422E05403640122125663228B
:10566300E0FAE82AF8E43400F9228E828F83A3A3B8
:10567300A3125FDB125663EE24161256A612568847
:10568300FCE439FD22FAE82AF8E439F9E824042293
:105693001256972212654EA3A3A322F01256A322F9
:1056A300EE240FF582E43FF583E0227901020E0C2C
:1056B30074F4120898EAFEEBFF8A82F583A3A3A38E
:1056C300A3A3A3A3A31249C82424F582E438F58332
:1056D300125659702E8A828B831252E87025125704
:1056E30081E06405701D125781A3E0F874016860BE
:1056F30005740668700712519B7402800512519B52
:105703007403F0EA240A126082125FEBE4F0EA24E5
:1057130008F8E43F1230712431F582E43AF583E06E
:10572300C0E0126D22A3A3D0E01257A0CA242EF525
:1057330082E43AF583E0C0E0126D22A3A3A3D0E094
:10574300125CC6C812577B38123F14126D221257CF
:10575300958A0A8B0BAC0AAD0B85088285098312E7
:105763005C2C121862850882850983124BD01220A3
:10577300A212607DF0023087240BF582E4228A8234
:105783008B83A3A3A3A3A3A3A3A3126514F5838865
:105793008222A3A3A3A3124A6712221022125C0837
:1057A300FAA3E0220256AEC082C08390153674E895
:1057B300F0A3741FF090153874F4F0A3741FF090E5
:1057C300153A74FAF0A3741FF090153C74EEF0A32D
:1057D300741FF0025AB174F4120898EA2408FEE424
:1057E3003BFF8E82F583125185125FC1E0F5087489
:1057F300035508F509125C27F8A3E08882F583E5D1
:1058030008F0A3A882A983E5096009740265096009
:10581300030258C6740C5508FC600A74086C6005D2
:1058230074046C7026740265097006E508A2E440EE
:105833001A8A828B83A3A3A3A3A3A3A3A31259CCE2
:1058430012671A3D125967A308A983740C6C701C64
:105853001259C824281259B42428F582E43DF5834B
:10586300A3126348F0E82402F850010974026509A1
:105873007006E508A2E4404B1259C8242A1259B411
:10588300242AF582E43DF583A31259761259D212E4
:1058930063481259D2A312596EE82404F85001093F
:1058A300EC600F74086C600A740C6C600574046C13
:1058B3007011125FF82426F582E43C125967A3A8FD
:1058C30082A9838A828B83A3A3A3A3A3A3A3A312E3
:1058D300599654037014E508A2E1400E125FF812C2
:1058E30059613CF583E05480600812597C12596970
:1058F300801990150AE0C0E012597CD0E01259A932
:10590300888289831259A904125C0DA3A882A983F2
:10591300E508A2E750458E828F83125996888289C3
:10592300831259AF12599B54036030125FF8243429
:10593300F582E43C126346F0E508A2E1501D8A8239
:105943008B83A3A3A3A3A3A3A3A31230762435F528
:1059530082E43A126346A3F0E82403023087241E4C
:10596300F582E422F583125976F022125976A3A325
:10597300A3F022E088828983228A828B83A3A3A354
:10598300A3A3A3A3A3E0FCA3E0CC2432F582E43CCD
:10599300F58322E012599B22FCA3E0CC2425F58257
:1059A300E43CF583E022F090150AE02212654AE018
:1059B30022F582E43DF5831259761259C12212650C
:1059C3004E1259CC228E828F83E0FDA3E0CD22A319
:1059D3001259C1242CF582E43DF58322C082C08391
:1059E3008A828B83125AA1FC74035CF98A828B83AB
:1059F300A3A37401F0E960057402697061740C5C1F
:105A0300F8600A74086860057404687013740269A6
:105A13007005ECA2E440098A828B83A3A37402F08D
:105A2300740C68700A8A828B83A3A3E02402F07447
:105A330002697005ECA2E440258A828B83A3A3E06C
:105A43002404F0E8600F740868600A740C68600549
:105A530074046870098A828B83A3A3E004F0ECA228
:105A6300E7502A8A828B83A3A3E004125AA7123534
:105A730080E0540360178A828B83A3A3E004F0ECD5
:105A8300A2E150098A828B83A3A3E004F08A828B6C
:105A930083A3A3E004F0801685188285198312522C
:105AA300CEA3E022F08A828B83E022120E77D0838A
:105AB300D082020E0CC082C0838A828B83A3A3A3ED
:105AC300A3A3A3A3A3A3A31251E260098A828B8396
:105AD300A3A3125ADA80D7A3A3A3A3A3A3A3A312B6
:105AE3005AE622124BD812176622125AF122EE24DA
:105AF3000CF582E43FF5832274F612089874F412CD
:105B03000F0B125C36FCA3E0F5838C82A3E0C0E0AC
:105B13007402121153D0E0125CE4125CCD740412CF
:105B23001153126CB07402121153E0640470141216
