:020000040000FA
:060000000210360205E4C7
:03002B00020D982B
:030033000209A718
:0300530002051390
:03006B0002095C2B
:03007B00020985F2
:1000830002057501010000000000F8FF07FFFF00F3
:10009300000504000000030001FF0020FD0002062C
:1000A300FFFF1E1410270000381900000000000095
:1000B300000000000000000000000000000000003D
:1000C300FFFF0C01040000D715000000E803000047
:1000D300FFFF28160188130000E803000064006492
:1000E30000B801A0BB0D00A0BB0D00020202070473
:1000F30001051E02051E020A0A010108080103B8D0
:100103000B02803E0102FEFFE8030A050001FFFF28
:10011300020A011401E002000000050301010F03BC
:1001230000030003000300030003000300030003B4
:100133000005000A00140028004F009E000000ED97
:100143002B00000000C12A00000000FF000000FF98
:10015300001210556046121046603DE9687008F6BB
:1001630018F618F618F622748067F7120188090941
:1001730009748067F722121046601D12105570052E
:10018300191919801A120F25701F120EE9C3700373
:10019300E667331919194007181818220808087454
:1001A300FFF618F618F618F622120EE96017121069
:1001B300E3702192F01210EC7019501720F014081C
:1001C3000808090909E7F61819E7F61819E7F618F0
:1001D30019E7F6221210EC60E6E869701F0808E6DA
:1001E3002480F608E436F618547FB47F0CE6548076
:1001F3006007F6E418F618F622181822E9C6CC08A8
:10020300C6CD08C6CE08C6CFC0E0E8C0E0EAC0E06D
:10021300EBC0E009E9F809E7FA09E7FBE6F918E6B4
:10022300F8C3EC98ED99EE9AEBC2E7F5F0EFC2E76D
:1002330095F0500E600CEBCFFBEACEFAE9CDF9E86E
:10024300CCF8EAA2E7D2E7FAEB33FB13F5F0EEA220
:10025300E7D2E7FEEF33FFC5F013A2E730E601B3C1
:1002630013C5F0C3C0E0C0F07F00C39BFB605E9486
:1002730018600F401D14601AD0E023F9D0E0F80293
:10028300035A8AF0E9486003D2F0E4AFF0FAF9F8D0
:10029300803BEB30E40D89F0EA6003D2F0E4AFF089
:1002A300F9CAF8EB30E30D88F0EF6002D2F0AFF05B
:1002B300E4CAC9F8EB54076014FBC3EA13FAE91361
:1002C300F9E813F8EF135002D2E0FFDBEDD0E0C002
:1002D300E030E739C3E49FFFF5F0EC98FC42F0ED22
:1002E30099FD42F0EE9AFE42F0D0E0F9D0E0F8E555
:1002F300F0607AE923F9EE20E742D8028067C3EF82
:1003030033FFEC33FCED33FDEE33FE80EAEC28FCE7
:10031300ED39FDEE3AFED0E023F9D0E0F84002805B
:100323001BC3EE13FEED13FDEC13FCEF135002D2CF
:10033300E0FF08B800067F7F74FF802EEF3350176D
:100343008CF020F00260100CBC000C0DBD00080EF8
:10035300BE000408E860DFE933E813FFEE2313FE71
:100363004F4D4C8008E95480FFE4FEFDFCEE33EF73
:1003730033F47004FCFD7E80D0E0FBD0E0FAD0E0E3
:10038300F8D0E0CFC618CEC618CDC618CCC6F92211
:1003930000121046604F1210556012E7548066F643
:1003A300120F2570111210E3703B090909F4F618B6
:1003B300F618F618F622120EE970151210EC08085A
:1003C3000860EAE6447FF618768018E4F618F62209
:1003D3001210EC60161210E37012E4F608F608F639
:1003E30008E65480F609090918181822EAC0E0EB58
:1003F300C0E0ECC0E0EDC0E0E687F0A4FBACF008A1
:10040300E687F0A42CFCE435F0FA1809E687F0A49B
:100413002C4B60027401CA35F0FCE433FB09E68718
:10042300F0D2F7A42CCB35F0FC1908E687F0A42B07
:10043300CC35F0FBE433FD0819E687F0D2E7A42CB2
:100443004ACB35F0CD3400FC09E687F0D2E7A42D82
:10045300CC35F0FDE433FA0918E687F0D2F7A42C83
:10046300CD35F0CA3400FC08E687F0D2E7D2F7A412
:100473002ACC35F07A7E20E70B0ACB33CBCD33CDB4
:10048300CC33CC33CB3350147004ED30E00ED2F1C7
:10049300E4CD3DCDCC3CCC3B5005DA05C2F1EB5469
:1004A3007FC63308E63392F0FBE73309E733C39A99
:1004B300502D2B70190C0D4C4D70151806E608C302
:1004C30033700D20F10AA2F013F6E418800B4024D8
:1004D300E4F630F002768018F618F618F68024D386
:1004E3003B14501074FFA2F013F6187680E418F64C
:1004F30018F6800FA2F013F618E63303F618ECF69D
:1005030018EDF6D0E0FDD0E0FCD0E0FBD0E0FA221D
:10051300C0E074F11208FDA2AFE433F509D2AF8550
:10052300A708AFA1EF5508FE74105E60061213B062
:1005330075A1EF74085E60081213B675A1F78024E5
:10054300EFA2E092F0E508A2E082F05017906198E4
:10055300E0F890040EE0C398A2D265D0335002E8CD
:10056300F075A1FE752300E509A2E092AF7F0202B8
:100573000A18C0E074F21208FDA2AFE433FED2AF52
:100583009061A4E0F8759B00E591585408600875E4
:1005930091F71214048023E5915854106008759163
:1005A300EF12140A8014E591A2E092F0E8A2E0822F
:1005B300F05007E0C2E0F01215609061A3E0F8E5A7
:1005C300E9585404600E12153675E9FB906193E007
:1005D300A2E640F2752300EEA2E092AF7F01020A89
:1005E30018C0E074F21208FDA2AFE433FED2AF905C
:1005F30061A5E0F8E5BF585404600675BFFB12150A
:100603007880D1C3E498F8E499F91206478026C3A9
:10061300E49AFAE49BFBE920E7E9120647E498F839
:10062300E499F922C3E498F8E499F9120647E498A7
:10063300F8E499F9C3E49AFAE49BFB22EB20E7CFB1
:10064300E920E7E0B90010BB0008E88AF084F8AAC3
:10065300F022E4FBC8FA22EB70227B10C833C8C92E
:1006630033C9335007C39AC3DBF280069A50012A79
:10067300DBEAC833F4C8C933F4C9FA2275F008E4D5
:10068300C833C8C933C933C99AC99B5004C92AC9D5
:100693003BD5F0ECFBC833F4C8E4C9FA221206EBED
:1006A30030F03912073080341206EB20F01430E7B3
:1006B3002B74FFFCFBFA747F8022E4FCFBFA74804A
:1006C300801AB48008BC00F2BB00EF800F50EBF936
:1006D300E4C39AFAE49BFBE49CFCE499C6CC18C6F9
:1006E300CB18C6CA18C6F922E4C9C608CAC608CBBD
:1006F300C6D3330308CCC63392F0C3947F402E9401
:10070300184019C9B90704CACBCC225025C309CA5A
:1007130033CACB33CBCC33CC33D9F422F4600DC9F9
:10072300CCC313CB13CBCA13CAD9F6CC22E4FCFB3C
:10073300FA2214FCFBFA22080808EAC0E0EBC0E046
:1007430086F0E7A4FA180986F0E7A42AFA180986BE
:10075300F0E7A42AFA180986F0E7A42AFA1986F022
:10076300E7A4FBE5F02AFA190886F0E7A42BFBE5DA
:10077300F03AFA190886F0E7A42BFBE5F03AFA18E9
:10078300180986F0E7A4C5F02BFBE43AFA1908E749
:10079300C5F0C6A426F6E5F03BFBE43AFA1886F06A
:1007A300E7A4F6E5F00826F6E43B08F6E43A08F693
:1007B300D0E0FBD0E0FA22E4CFC0E0E4CEC0E0E436
:1007C300CDC0E0E4CCC0E075F020E626F608E633C1
:1007D300F608E633F608E633F6181818EC33FCEDA2
:1007E30033FDEE33FEEF33FFC3EC9709ED9709EECC
:1007F3009709EF97191919400FFFEC97FC09ED972B
:10080300FD09EE97FE191906D5F0BFECF709EDF7D0
:1008130009EEF709EFF7191919D0E0FCD0E0FDD084
:10082300E0FED0E0FF222521C582C0E0E52234FFAF
:10083300C583C0E0E521C3958224F810AF08858302
:10084300228582218008858322858221D2AFCEF042
:10085300A3E520F0A37808E608F0A3DEFAEFF0A3FF
:10086300E58124FAF8E608F0A3E608F0A3E608F029
:10087300A30808E608F0A3E608F0A315811581D0C4
:10088300E0FED0E0F8158115811581E8C0E0EEC0E7
:10089300E0221210CEB900030208E7E490030178C6
:1008A300C379168002F0A3D8FCD9FA782390008686
:1008B3007A01BA00028007E493A3F608DAF97AC34F
:1008C3007B1890008778CE79018015E493A3AD82DD
:1008D300AE838A828B83F0A3AA82AB838D828E83BD
:1008E300D8E9D9E77582177583FE7401120D7A75FD
:1008F300829C7583277400120D7AC0D02521C5828E
:10090300C0E0E52234FFC583C0E0E521C39582241E
:10091300F310AF0885832285822180088583228591
:100923008221D2AFC8F0A3E9F0A3EAF0A3EBF0A3CE
:100933007908E709F0A3D8FAECF0A3EDF0A3EEF001
:10094300A3EFF0A3D0E0F0A3D0E0F0A3D0E0F0A3B6
:10095300E520F0A3E5F0F0A322C0E074F21208FD55
:10096300A2AFE433FED2AFE589541C60031212D860
:100973005389E3C2C5752300EEA2E092AF7F010263
:100983000A18C0E0C0D0E8C0E0A8A8D2AFE58A85C5
:100993008A8AC2EB752300E8A2E792AFD0E0F8D0D1
:1009A300D0D0E032C0E0C0D0E8C0E0A8A8D2AFE524
:1009B3008B858B8BC2E880DCE9799EC608CAC608A2
:1009C300CBC608CCC6C370207996CACBCC70197934
:1009D3008ECBCC70137986CC700EF9802ACA33CAB9
:1009E300CB33CBCC33CC331930E7F2CCCBCA335037
:1009F300147004EA30E00DE4CA3ACACB3BCBCC3CDA
:100A0300CC500209C3E913C6CC182313C6CB18C6AE
:100A1300CA18C6F922852283852182E0C0E0A3E0BB
:100A2300F9A3E0FAA3E0FBA37808E0F608A3DFFA52
:100A3300E0FCA3E0FDA3E0FEA3E0FFA3E0C0E0A38E
:100A4300E0C0E0A3E0F5D0A3E0F520A3E0A3F5F038
:100A530010AF0885832285822180088583228582C1
:100A630021D2AFD082D083D0E0F8D0E03275F0103D
:100A73008E248F258582298583288521828522835B
:100A8300E0CEA3E0CF852982852883EBC9EAC8EDB0
:100A9300CBECCAC3E833C8E933C9EA33CAEB33CB77
:100AA300C3EA9EF527EB9FF526B35004AB26AA278E
:100AB300EC33CCED33CDD5F0DAAE24AF25221210D2
:100AC30046601C12105560171210EC70071210E3E9
:100AD3007001D322C0D01210E37006D0D0B322C36A
:100AE3002233D0D0501430E0F6C3E7960809E796D6
:100AF3000809E7960809E796B32220E0D5E69708A8
:100B030009E6970809E6970809E697B322D083D048
:100B130082ECC0E0EDC0E0E493A3FCE493A3FDED1D
:100B23004C600D120BE8EC24FFFCED34FFFD80EF6D
:100B3300E493A3FCE493A3FDED4C600D120C85EC50
:100B430024FFFCED34FFFD80EFD0E0FDD0E0FCE4BA
:100B530093A3C0E0E493C0E022852283852182E051
:100B6300A3FEE0A3F5207808E0A3F608DFFAE0A3EC
:100B7300FFE0A3C0E0E0A3C0E0E0A3C0E0E0A3C0C7
:100B8300E0E0A3C0E010AF088582218583228008BE
:100B9300858221858322D2AFD083D082020D80D07B
:100BA30083D082E9C0E0E493A3C386F0C5F095F057
:100BB300F908E493A386F0C5F095F0700BE493A3D2
:100BC300C3994005E9048002A3E475F002A42582D9
:100BD300F582E5F03583F583D0E0F9E493A3C0E033
:100BE300E493C0E022C0E0C3E493960874019396B3
:100BF30018400FE493667008087401936618700038
:100C03007019A3A3C3E49396087401939618A3A33E
:100C1300400DD0E0D0E0D0E0020B4CA3A3A3A3A3EC
:100C2300A3D0E0227404800474028000CCC0E0ED01
:100C3300C0E0E521C39CCCAD2250011D10AF068C52
:100C4300218D2280068C218D22D2AF120CFCD0E0A4
:100C5300FDD0E0FC2274028000CCC0E0EDC0E0E5F2
:100C630021C39CCCAD2250011D10AF068C218D22D7
:100C730080068C218D22D2AF120CDAD0E0FDD0E0B9
:100C8300FC22C0E0C0F088F0E493667008087401A9
:100C93009366187000A8F0A3A3700BD0F0D0E0D037
:100CA300E0D0E0020B4CA3A3D0F0D0E022D083D05D
:100CB30082CCC0E0E493A36006120D5B1470FAE4E7
:100CC30093A36006120E7F1470FAD0E0FCE493A3A2
:100CD300C0E0E493C0E022CAC0E0E493A3C582CCA1
:100CE300C582C583CDC583F0A3C582CCC582C58328
:100CF300CDC583DAE5D0E0CA22CAC0E0E0A3C5824D
:100D0300CCC582C583CDC583F0A3C582CCC582C5BE
:100D130083CDC583DAE6D0E0CA2270090808082229
:100D23006016181818C6C333C608C633C608C633B8
:100D3300C608C633C6D5E0EA22C008C3E096F50864
:100D430008A3E096420808A3E096420808A3E096A9
:100D530045087001D3D00822C0E0E493A3D39C508C
:100D630010E493A3C39C400AD0E0D0E0D0E0020C8F
:100D7300CDA3A3A3D0E022C09FF59FE473D09F220D
:100D8300D083D082C09FE493C0E0740193C0E07429
:100D93000293F59F22C0E0C0D0E8C0E0A8A8D2AF7C
:100DA300C2C7752300E8A2E792AFD0E0F8D0D0D055
:100DB300E0327404800A74038006740280027401B2
:100DC300C0E0F404120DEBD0E01210912200C0D069
:100DD300252110AF08F521500C05228008F521507C
:100DE300020522D2AFD0D0222521F58210AF08F51B
:100DF30021400C15228008F52140021522D2AF852F
:100E0300228322BB0102E722C082C08389828A83B4
:100E1300BB0003E08002E493D083D08222601608F3
:100E23000808C6C313C618C613C618C613C618C601
:100E330013C6D5E0EA22C3E0C696F608A3E0C69639
:100E4300F608A3E0C696F608A3E0C696F622252187
:100E5300F8E43522F9222521FAE43522FB22252163
:100E6300FCE43522FD22252110AF08F521400C15A5
:100E7300228008F52140021522D2AF22C0E0E4937C
:100E8300A36C7009D0E0D0E0D0E0020CCDA3A3D0D6
:100E9300E022E066701008A3E066700A08A3E0662B
:100EA300700408A3E06622C3E09608A3E09608A3B3
:100EB300E09608A3E096A2D265D03322C3E7960852
:100EC30009E7960809E7960809E796A2D265D033A1
:100ED30022E76670100809E766700A0809E766707A
:100EE300040809E76622191919E70947097009E790
:100EF30027097005E733F4220922C3E096F008A31B
:100F0300E096F008A3E096F008A3E096F022C3E68B
:100F130097F60809E697F60809E697F60809E697AB
:100F2300F622181818E60846087009E62608700520
:100F3300E633F4220822C3E49396087401939608D7
:100F430074029396087403939622E026F608A3E0AE
:100F530036F608A3E036F608A3E036F622E627F6CF
:100F63000809E637F60809E637F60809E637F622F0
:100F7300700422600D18C6C333C608C633C6D5E055
:100F8300F41822E056F008A3E056F008A3E056F068
:100F930008A3E056F022E657F60809E657F60809D3
:100FA300E657F60809E657F622E026F008A3E036EE
:100FB300F008A3E036F008A3E036F022E056F60886
:100FC300A3E056F608A3E056F608A3E056F622E699
:100FD30047F60809E647F60809E647F60809E6472B
:100FE300F622E4C396F608E496F608E496F608E4D7
:100FF30096F622600D08C6A2E713C618C613C6D517
:10100300E0F322C6F4C608C6F4C608C6F4C608C68A
:10101300F4C622C3E09608A3E09608A3E09608A3CB
:10102300E09622C3E7960809E7960809E7960809B8
:10103300E7962275D00075813F7521017522030063
:10104300020895E6084608C3134608336002E633F0
:10105300F422E7094709C3134709336002E733F46E
:1010630022600C08C6C313C618C613C6D5E0F42203
:10107300E6F008A3E6F008A3E6F008A3E6F022E012
:10108300F608A3E0F608A3E0F608A3E0F622CAC038
:10109300E0E6F0A308DAFAD0E0FA22E0FAA3E0FBF4
:1010A300A3E0FCA3E0FD22EAF0A3EBF0A3ECF0A3A2
:1010B300EDF022E0F8A3E0F9A3E0FAA3E0FB22E8D5
:1010C300F0A3E9F0A3EAF0A3EBF022E5C754F84458
:1010D30001F5C77901222521F582E43522F5832222
:1010E300E72719471947194722E6261846184618CD
:1010F3004622C2AF75D69F02000022120D8394D4FC
:1011030002120D83EDD702120D836BDA02120D83E7
:1011130017DB02120D8347DB02120D83ACDB0212D5
:101123000D8340DC02120D83F3DC02120D8344DDD8
:1011330002120D8388DD02120D8322DE02120D835B
:101143008FDE02120D83BEDE02120D83C4DF021294
:101153000D83E8DF02120D833CE002120D8310E1E0
:1011630002120D833BE302120D83E9E302120D83A6
:101173005EE602120D83E3E602120D835AE90212C0
:101183000D8390EB02120D83D4EB02120D832DED30
:1011930002120D8340ED02120D8385ED02120D83C1
:1011A30051EF02120D83857F00120D83C47F00125D
:1011B3000D8310F001120D838CF001120D83BFF02B
:1011C30001120D83EDF001120D832BF101120D833A
:1011D30068F301120D8387F301120D83CCF301121F
:1011E3000D8362F401120D83AEF401120D8342F5F7
:1011F30001120D831BF601120D8377F601120D8385
:10120300D5F601120D8348F701120D838CF70112F5
:101213000D83E4F701120D8306F801120D8396F88E
:1012230001120D8327F901120D8373F901120D8346
:101233009FF901120D83E0F901120D8376FB011270
:101243000D8362FC01120D833DFD01120D8361EBE1
:1012530004120D8364EB04120D83C2EB04120D839D
:1012630016EC04120D8338EC04120D834EED0412B8
:101273000D835FED04120D83FDED04120D8308EE63
:1012830004120D8322EE04120D83F57F00120D83E9
:10129300E9FF02120D8331EE04120D8341EE0412B5
:1012A3000D8356EE04120D830AEF04120D835CE9DD
:1012B30004120D83E0E904120D8348EA04120D833E
:1012C300A6E504120D83CEE504120D83F1E50412A5
:1012D3000D8349E604120D8393E604120D83BEE6E3
:1012E30004120D83D5E604120D831DFC02120D8337
:1012F3002BFC02120D83A4FC02120D837DFD02124E
:101303000D8340FF02120D8385FF02120D83AAFF96
:1013130002120D83F87F00120D8386DF04120D8302
:10132300BEDF04120D830CE104120D8390E104125D
:101333000D8328F304120D832BF304120D8337F36B
:1013430004120D8376BB04120D83A2BB04120D831A
:101353000CBE04120D834CBE04120D8388BE04120E
:101363000D839CBE04120D83B5BE04120D83A7BF6B
:1013730004120D835AC004120D836EC004120D8330
:1013830093E104120D83B7E104120D83D0E104123B
:101393000D830EE204120D833EE204120D836BE211
:1013A30004120D8375E204120D83DBE204120D8334
:1013B300DEE204120D83E8E204120D83F5E2041267
:1013C3000D83A1DA04120D83C1DA04120D8300DB4D
:1013D30004120D831EDB04120D8339DB04120D830B
:1013E3009FDB04120D83ABDB04120D8308DC0412B4
:1013F3000D8317DC04120D833BDC04120D83FCDC2C
:1014030004120D8309DD04120D831ADD04120D830A
:1014130007F204120D834FF204120D837BF20412C0
:101423000D83C4C004120D831EC204120D832CC28B
:1014330004120D833FC204120D8354C204120D83A0
:1014430069C204120D837CC204120D83F8C2041214
:101453000D835DC304120D83E5C304120D835DC4C4
:1014630004120D8336C504120D8346C504120D8381
:1014730055C504120D836CF004120D8390F0041211
:101483000D83B8F004120D83E0F004120D837FFD89
:1014930003120D83A6FD03120D83C4FD03120D83F6
:1014A30033FE03120D83CED704120D83E7D7041244
:1014B3000D83F3D704120D8307D804120D8325D8A7
:1014C30004120D832FD804120D8339D804120D830F
:1014D3004CD804120D83D2D804120D8347D90412B9
:1014E3000D8376D904120D83C4D904120D8313DA44
:1014F30004120D832EDA04120D8338DA04120D83DD
:1015030049DA04120D838CDA04120D8386F2041275
:101513000D83D1F204120D8344A504120D8370A52B
:1015230004120D838DA504120D83A0A504120D834F
:10153300BBA504120D8315A604120D8343A6041242
:101543000D8353AA04120D83B1AB04120D83E3ABD5
:1015530004120D8346AC04120D83B2AD04120D8345
:10156300DAAD04120D83EFAD04120D83FFAD041247
:101573000D833FAE04120D8381AE04120D8391AE31
:1015830004120D832CE804120D8346E804120D8324
:101593006EE804120D8387E804120D83ABE804128E
:1015A3000D83C9E804120D83E0E804120D830EE9EC
:1015B30004120D8329E904120D8310EF04120D8325
:1015C30054EF04120D832ECE04120D833ECE04126B
:1015D3000D8343CF04120D8375CF04120D83A5CF62
:1015E30004120D83C8CF04120D83DFCF04120D83C1
:1015F30019D004120D837ED004120D83C0D00412BF
:101603000D8307D104120D8334D104120D835FD1EE
:1016130004120D83FFE204120D8311E304120D8300
:1016230025E404120D8328E404120D8360EC0412F4
:101633000D8396EC04120D83AEEC04120D83F0ECD3
:1016430004120D8300ED04120D8344ED04120D8387
:10165300C1AE04120D8304AF04120D8369AF0412EB
:101663000D8388AF04120D832AB004120D8333B0A7
:1016730004120D8384B004120D83ADB004120D83E4
:10168300BAB004120D832CB104120D83BAB1041243
:101693000D83FFB104120D8338B204120D839DB282
:1016A30004120D83C6B204120D833DB304120D83DD
:1016B3008CB304120D83C9B304120D83FEB3041259
:1016C3000D8310B404120D8322B404120D8341B4AC
:1016D30004120D834AB404120D830BB504120D8357
:1016E3004EB504120D838CB504120D8355E4041218
:1016F3000D8395E504120D83DDF204120D8348DD9D
:1017030004120D837EDD04120D83C6DD04120D83E6
:101713001FDF04120D8378DE03120D839EDF031295
:101723000D83DADF03120D8398E103120D83C6E103
:1017330003120D8330E403120D8370E403120D834F
:1017430012E603120D83A8E603120D8302E70312C8
:101753000D8392E703120D83D6E703120D8318E876
:1017630003120D837DE903120D83FDEA03120D833A
:101773003EED03120D836CED03120D8398ED0312FE
:101783000D83A1ED03120D83FEED03120D8397EE7E
:1017930003120D83AEF103120D8334F203120D8392
:1017A300C2EF04120D83DAEF04120D83E4EF041287
:1017B3000D833AF004120D8386C504120D839CC574
:1017C30004120D833DC604120D837CC604120D83DF
:1017D30099C604120D83CAC604120D8317C70412D7
:1017E3000D834BC704120D8386C704120D8383C96F
:1017F30004120D83E9C904120D8361EA04120D83F7
:10180300C0EA04120D83FEEA04120D833FEB0412B7
:101813000D83008002120D830C8002120D836E80F3
:1018230002120D83788002120D83078102120D8349
:10183300438102120D833C8202120D8399820212AC
:101843000D83278302120D83788302120D83F8839D
:1018530002120D83BA8502120D83BF8702120D8314
:10186300B98802120D83EB8902120D833D8C02129B
:101873000D83808D02120D83258E02120D83D39268
:1018830002120D83C99302120D835F9402120D831A
:10189300849402120D83219502120D833E95021248
:1018A3000D835E9502120D83CC9502120D83E9958B
:1018B30002120D83179602120D83AF9702120D8346
:1018C300D09702120D83769802120D83BE980212EE
:1018D3000D831C9902120D83BF9902120D83249A62
:1018E30002120D83839A02120D83359B02120D831C
:1018F300A49B02120D83DF9B02120D83539C0212E1
:101903000D839E9D02120D832E9F02120D83CD9F88
:1019130002120D830DA202120D836FA202120D8318
:101923009DA202120D83C0A402120D836AA70212A4
:101933000D837DA802120D83699004120D837390A9
:1019430004120D83BA9004120D83A59204120D8321
:10195300C59204120D83E59204120D833094041290
:101963000D83D59504120D83C49804120D835199E8
:1019730004120D83999A04120D83EBE604120D836E
:1019830098E704120D83FCE704120D83B8B5041223
:101993000D8345B604120D83BEB604120D8359B7E9
:1019A30004120D837AB704120D834EB804120D830B
:1019B300C8B904120D8347C903120D8376C90312F4
:1019C3000D83EEC903120D83FDCA03120D8359CB98
:1019D30003120D83C6CC03120D83E2CC03120D83D5
:1019E30034CD03120D8377CD03120D838ACD0312F9
:1019F3000D83E2CD03120D83A4CE03120D8320CFFA
:101A030003120D8357CF03120D838FCF03120D8360
:101A130021D103120D8300D203120D834ED303127F
:101A23000D8331D403120D83BDD403120D83FDD472
:101A330003120D831CD503120D8367D503120D8387
:101A430087D503120D8320D603120D83A6D6031266
:101A53000D8301D703120D8341D703120D83D7D909
:101A630003120D83F0DA03120D8336DB03120D83A9
:101A73002BDC03120D8353DC03120D8356DC03129C
:101A83000D8360DC03120D837CDC03120D83F6DC13
:101A930003120D832FDD03120D835BDD03120D8310
:101AA30082DD03120D83A6DD03120D8317DE0312FD
:101AB3000D832ADE03120D8359DE03120D8388F191
:101AC30004120D8394F104120D83D2F104120D83D9
:101AD300F27F00120D8318B303120D833BB303127D
:101AE3000D8388B403120D83D1B403120D833DB566
:101AF30003120D839BB503120D839EB503120D8351
:101B0300EFB503120D8364B603120D83E9B6031216
:101B13000D83ECB603120D836DB703120D83AEB7BD
:101B230003120D839ABB03120D8344BD03120D836D
:101B330094BD03120D831BC103120D834EC2031206
:101B43000D83C8C303120D8365C403120D8350C5EF
:101B530003120D83A5C703120D83008004120D83A6
:101B6300AA8004120D83158104120D8311A104129E
:101B73000D83B58104120D830F8204120D835682E7
:101B830004120D83BD8204120D833C8404120D8361
:101B93006B8504120D83F38504120D83FC870412F5
:101BA3000D83A98804120D834D8904120D831E8AA7
:101BB30004120D83D98B04120D83718D04120D83CE
:101BC300048E04120D832A8F04120D8300800312E6
:101BD3000D83638003120D83AB8003120D83EF80AB
:101BE30003120D834A8103120D83E8D302120D837E
:101BF300E28103120D83648203120D83BE820312FA
:101C03000D833C8403120D83BC8403120D8317855B
:101C130003120D83318503120D83528503120D8345
:101C2300AC8503120D83288803120D8347880312A2
:101C33000D83378903120D836A8A03120D83E98AA0
:101C430003120D83258B03120D83948B03120D83D3
:101C5300498C03120D83218E03120D83288F0312E7
:101C63000D83A09003120D83969203120D830C959E
:101C730003120D83E69603120D83A79703120D83B8
:101C83001F9803120D83369803120D832D990312A7
:101C93000D83219A03120D83909A03120D83DCD4D2
:101CA30004120D8333D604120D83F2D604120D836E
:101CB3005AD704120D83B7D104120D83D2D1041263
:101CC3000D8316D204120D833CD204120D8363D20A
:101CD30004120D837BD204120D831DD304120D83D2
:101CE30032D304120D8355D404120D835ED404122F
:101CF3000D8367D404120D8370D404120D837AD438
:101D030004120D830B7B00120D83177F00120D83CA
:101D13001C7F00120D831E7F00120D8389FE0112AA
:101D23000D83BDFF02120D83F6C904120D83D4FF88
:101D330003120D8305F104120D832FF104120D8399
:101D43009EAC02120D83D1AC02120D833DAD021283
:101D53000D83D8AD02120D8375AE02120D83BAAE98
:101D630002120D83DCAE02120D83F5AE02120D8357
:101D73001BAF02120D833DAF02120D837BAF021224
:101D83000D83BFAF02120D83E1AF02120D8343B087
:101D930002120D830AB102120D83C1B102120D8327
:101DA30033B202120D83FEB202120D8351B302123B
:101DB3000D83B7B302120D83F1B302120D8343B443
:101DC30002120D83B1B402120D831CB502120D83EE
:101DD3001FB502120D83A0B502120D8337B602128E
:101DE3000D83B7B602120D83D6B602120D833AB82D
:101DF30002120D8347B802120D8353B902120D83E9
:101E030060B902120D8369B902120D8341BB02123C
:101E13000D835BBC02120D83D4BC02120D8346BD3D
:101E230002120D8368BD02120D83FCBD02120D83E5
:101E3300D0BF02120D83A7C302120D83BBC30212CC
:101E43000D83CBC302120D83D5C302120D83DEC3F0
:101E530002120D83E7C302120D83F1C302120D8335
:101E63001EC402120D8347C402120D8352C4021210
:101E73000D8376C402120D839AC402120D8304C526
:101E830002120D834AC502120D8367C502120D8328
:101E9300E4C502120D831BC602120D835AC6021239
:101EA3000D83A7C602120D832DC702120D83FBC833
:101EB30002120D837EC902120D8362CA02120D83C0
:101EC300C9CC02120D8322CD02120D836CCD0212F6
:101ED3000D83C7CE02120D83FCCE02120D834ECFAB
:101EE30002120D8303D002120D83B2D002120D83AE
:101EF300EFD002120D8384D102120D83F0D10212AE
:101F03000D834E2E00120D83802E00120D83AE2EF4
:101F130000120D83843000120D83643100120D838F
:101F2300BC3100120D83F73200120D8343330012CC
:101F33000D836C3600120D835F3900120D83AF3AA7
:101F430000120D83453B00120D83513B00120D839C
:101F5300833B00120D83063D00120D83B73E001232
:101F63000D834B3F00120D838E3F00120D830C40F7
:101F730000120D83294000120D83594000120D8376
:101F83008E4000120D835E4100120D830742001242
:101F93000D838D4400120D83AD4500120D839846C9
:101FA30000120D831A4700120D834E4B00120D834E
:101FB3008B4B00120D83E34B00120D83164C001262
:101FC3000D83804C00120D83B64C00120D83414DDE
:101FD30000120D83994D00120D83704E00120D8374
:101FE300294F00120D83C44F00120D83CC520012EF
:101FF3000D83E85300120D838B5700120D837F5816
:1020030000120D83825800120D83B15800120D8304
:10201300B75A00120D83905B00120D83D35B00123D
:102023000D83295D00120D83685D00120D83F15D40
:1020330000120D83255E00120D83EA5E00120D83EC
:10204300026100120D83736100120D83B3610012EC
:102053000D83416200120D83636300120D832564B7
:1020630000120D832C6600120D83446600120D834B
:10207300586600120D83906600120D83BE6600122F
:102083000D833D6800120D83626900120D83BF69E1
:1020930000120D83716A00120D83986A00120D837A
:1020A3005F6B00120D83F76B00120D831D6E001220
:1020B3000D83526E00120D83B56E00120D83E46F13
:1020C30000120D838C7000120D83BD7000120D83FE
:1020D300D57000120D83647100120D831874001201
:1020E3000D83F07500120D830C7600120D83287694
:1020F30000120D83F67600120D83E97A00120D8328
:102103002E8601120D83608601120D834F8A011200
:102113000D839B8A01120D83E18A01120D83838B48
:1021230001120D83DF8B01120D83248C01120D83A9
:102133006B8D01120D837F8E01120D836E9201123E
:102143000D83F29201120D83FF9301120D835B94B1
:1021530001120D834B9601120D83C09601120D835C
:10216300CA9601120D83D79601120D8302970112AD
:102173000D83E99701120D83939801120D83119931
:1021830001120D83319901120D835A9901120D83A6
:102193007C9901120D83DC9B01120D83A29C011219
:1021A3000D83E79C01120D83649D01120D83159E1F
:1021B30001120D83479E01120D838D9E01120D8323
:1021C300C99E01120D83199F01120D836D9F011288
:1021D3000D83C39F01120D830FA001120D837CA0F9
:1021E30001120D83F7A001120D83C2A201120D8308
:1021F300C2A301120D83E7A401120D8326A80112C5
:102203000D8339AB01120D83F6AB01120D833AAC8A
:1022130001120D83EAAD01120D83FEAD01120D8390
:1022230008AE01120D8312AE01120D831EAE011210
:102233000D833AAE01120D83E5AE01120D8324AF77
:1022430001120D832EAF01120D8338AF01120D83DE
:10225300A8AF01120D83F3AF01120D8308B1011270
:102263000D8364B101120D83E5B101120D83A4B294
:1022730001120D83ADB301120D83E1B401120D837D
:10228300CFB501120D83E7B501120D8342B60112DA
:102293000D8360B601120D83A8B601120D83CFB66C
:1022A30001120D836AB701120D8330B801120D8339
:1022B300C2B801120D833CB901120D8356BA011243
:1022C3000D8303BB01120D832BBC01120D837BBC59
:1022D30001120D83DFBC01120D8341BD01120D8379
:1022E3006FBD01120D8393BD01120D83C8BD011291
:1022F3000D83F9BD01120D832CBE01120D834CBE5B
:1023030001120D83B4BE01120D83A8BF01120D8308
:1023130003C001120D832CC001120D83B4C001123E
:102323000D8337C101120D8362C101120D8347C2B0
:1023330001120D8308F102120D8340F102120D8385
:1023430061F102120D83A3F102120D8305F2021251
:102353000D830FF202120D831FF202120D835AF244
:1023630002120D833AF602120D8327F802120D832F
:102373000DFA02120D83A4FA02120D8346FB021218
:102383000D8349C401120D83C7C401120D8323C5F4
:1023930001120D836EC501120D8389C501120D83D0
:1023A300B4C501120D83D1C501120D83DDC5011220
:1023B3000D8374C701120D838DC701120D8312C8DB
:1023C30001120D8325C801120D8344C801120D8328
:1023D300E8C801120D8369CA01120D831CCC0112D6
:1023E3000D83B2CC01120D83B5CC01120D8325CD23
:1023F30001120D8343CD01120D83DACD01120D833A
:1024030022CE01120D8325CE01120D83EBCE0112D4
:102413000D8358CF01120D837ECF01120D8309D096
:1024230001120D8327D001120D836DD001120D838C
:1024330021D101120D836BD101120D839AD10112A7
:102443000D83F7D101120D832CD201120D8358D2C3
:1024530001120D8366D201120D83B3D201120D83D3
:1024630023D301120D836CD301120D83B8D3011250
:102473000D83E4D301120D83EFD301120D830DD429
:1024830001120D83F8D401120D8302D501120D83BD
:102493003DD501120D834DD501120D8356D5011281
:1024A3000D83AAD501120D83BED501120D83EDD67E
:1024B30001120D8304D701120D8319D701120D8365
:1024C300A7D701120D83ECD701120D8378D801121F
:1024D3000D8383D801120D83C5D901120D83E0D971
:1024E30001120D832CDA01120D839BDA01120D8385
:1024F300D4DA01120D83EEDA01120D8330DB0112FF
:102503000D8300DE01120D83ADDE01120D831ADF90
:1025130001120D835AE101120D8372E101120D8341
:1025230075E101120D8381E101120D8395E1011221
:102533000D839DE101120D83D0E101120D83D2E2DF
:1025430001120D8359E301120D83C9E301120D83B7
:102553004BE401120D830CE501120D832BE50112EF
:102563000D83CCE501120D8329E601120D832CE6C0
:1025730001120D8359E601120D836EE601120D83DC
:10258300E2E601120D8331E801120D8337E90112EE
:102593000D83C2E901120D83DDEA01120D83A5EB60
:1025A30001120D83D6EB01120D83F9EB01120D839A
:1025B30002EC01120D8331EC01120D83C1EC011207
:1025C3000D8377ED01120D83ECED01120D8393EE74
:1025D30001120D8308EF01120D833FEF01120D83EA
:1025E3007DEF01120D83B3EF01120D836EA0041270
:1025F3000D836E9F04120D83879E04120D83779CB7
:1026030004120D83859B04120D83239B04120D83F7
:1026130004B303120D83FAB203120D838FB20312B4
:102623000D83C0B003120D837EB003120D8345D317
:1026330002120D83FFD202120D8382AF03120D83A8
:1026430056AF03120D83CAD202120D8397D2021220
:102653000D830DAF03120D834EAE03120D833AAB00
:1026630003120D83FBA803120D83C8A803120D8365
:102673006FA803120D8302A803120D83C1A70312CF
:102683000D83FAA603120D8394A603120D8333A6BA
:1026930003120D83D3A503120D83AAA403120D8382
:1026A3003EA403120D8396A303120D8391A3031279
:1026B3000D8385A303120D83B89F03120D83929F8D
:1026C30003120D8382D202120D8357D202120D839D
:1026D300FEA404120D83CAA404120D8373A404126E
:1026E3000D83E1A204120D8333A204120D83309FE4
:1026F30003120D83D19E03120D83929E03120D8349
:102703007F9E03120D8396A104120D83749E031200
:102713000D83439E03120D83309C03120D83A39BF1
:1027230003120D838CA104120D835F9B03120D838F
:10273300A78103120D83339B03120D8319FD03122B
:102743000D83ECFC03120D83B9FC03120D8391FC82
:1027530003120D8332FC03120D8312FC03120D834B
:10276300DDFB03120D8389F803120D8371F6031247
:102773000D835BF403120D83DBF303120D8387F3E5
:1027830003120D833BF303120D8325A104120D8362
:1027930093F203120D8330810400000080FBE47385
:1027A3008F0001005119870001004F193500040003
:1027B3001819250002001C19260002001E19270003
:1027C30002002019280001002A19290001002B19F1
:1027D30084000400B31686000100D1182A0001000A
:1027E3002C192B0001002D192C00010031192D008B
:1027F3000800BF162E00010032192F000100331903
:102803003000010034193100010035193200010094
:10281300C71633000100C81634000100361936000C
:102823000100C916380001003719390001003019B9
:10283300830002004D1963000100D51664000100F6
:102843002E19650001002F196D000100D6167100C5
:102853000800B716660001004C19430001003D193A
:10286300440002003E1945000100401946000200E1
:10287300411947000800CD164800010043194B00D9
:1028830001004419040001005019A100010054196A
:102893003700010053198800010052193C00010060
:1028A300CA163D00010038194900020045196700A6
:1028B3000100D7164D00020047194E0001004919C7
:1028C3004F0002004A193E0001003C19510001006B
:1028D300CB16520001003A19530001003B19540072
:1028E3000100CC1600000000000000013636010193
:1028F30000010201000103010001040106060502B3
:102903000000070100340801000F090401010D0153
:1029130000FF0E08000017020000190100FF1A0152
:1029230000011B0100FE1C0100081D0200001F0125
:10293300000120010001210200002301000F2402F5
:1029430000002601000127010008280200FF2A01D8
:1029530000072B0102402C0100002D0100012E0174
:1029630000012F0100FF30010B1D310800003A0167
:1029730000083B01000F3C0100013D0100FF3E0444
:10298300000042040000460400004A0400004E0414
:10299300000052040000560400005A04000007001F
:1029A3000000302310150700100030230415070022
:1029B3000000302311150700100030230515070010
:1029C30000003023121507001000302306150700FE
:1029D30000003023131507001000302307150700EC
:1029E30000003023141507001000302308150700DA
:1029F30000003023151507001000302309150700C8
:102A03000000302316150700100030230A150700B5
:102A13000000302317150700100030230B150700A3
:102A23000000302318150700100030230C15070091
:102A33000000302319150700100030230D1507007F
:102A4300000030231A150700100030230E15000074
:102A5300010020012D8600000200200128860000CD
:102A63000300200129860000000020012C860000BD
:102A7300040042012885000005004201FE84000095
:102A8300070030012A860000FDFF21012486000093
:102A930006004201CC840000004020012D86010085
:102AA30020002005FF180100210020050019070060
:102AB300000030230F150700100030230315010316
:102AC3007103010301030103010301032203020351
:102AD30001031003000300030003000300030003CA
:102AE300000342030003240306030003000304035B
:102AF3001203250323032503230304030403000311
:102B030000030003440300030003230300036503DE
:102B130021003503810300030503000300030003C1
:102B230000032503230301017101010101011101C7
:102B330001013101010101018001100161013B002B
:102B43001400630173017201620143010001130167
:102B530006013D01350004011201000100010001DD
:102B6300000104010401330133013C01440132013A
:102B730036000001000165010001350081010001FB
:102B83000501820183010001030271023001600229
:102B930011027002010202020202800210026102AB
:102BA3003A004100630273027202620243020002AE
:102BB30013023800000200020402120200020002A3
:102BC3000002000204020402370037003C02440200
:102BD3000002390000020002650200023502810290
:102BE3000002050282028302000203007100300129
:102BF30060001100700031022003500480001000B7
:102C0300610000001400630073007200620043005F
:102C13000000130006000000000004001200000082
:102C230000000000000004000400370037003C02ED
:102C330044000000000000000000650000003500B3
:102C43008100000005000000830000003600010041
:102C5300060000000F00000000000000000000005C
:102C6300000003FFFF00000403FFFF0000FFFF0F4E
:102C7300F4010005C4040320000100000B00000060
:102C8300000000000003010F00000000000000002E
:102C93000000000000000000000000000000000031
:102CA30000000000000000000000F6182019FC18C6
:102CB3003018021926190219321908193018021985
:102CC30026190E19301800000000141930180000DE
:102CD3000000000000001A19301800000000000076
:102CE30000000000000000000000000000000000E1
:102CF30000000000000000000000000000000000D1
:102D03000000000000000000841B0100841B02007F
:102D1300FA1A0280F41A0300001B0400061B048045
:102D23000C1B0500121B06001E1B3100301B330059
:102D3300361B34003C1BFFFF0000030003000400AC
:102D4300080010001F003E007B00F600EC01D703D3
:102D5300AF075D0FB91E713D000007ECFDFDFDECF3
:102D6300DCDCCCBCACAC9C9C8C7C7C6C6C5C5C5C20
:102D73004C4C3C3C2C2C1C1C03EAF5E5D5D5C5B5C5
:102D8300A5959585857575656555554545353525F0
:102D9300251515050A7821024221054E21074821F0
:102DA3000C2A210D3621FF000000160F00000B1521
:102DB3000B020002220F3300000E0F5A69674265AF
:102DC30065416C6C69616E63653039D0D1D2D3D4FF
:102DD300D5D6D7D8D9DADBDCDDDEDF3030161819EB
:102DE30020231A1C1E3000034D4C4651181A25058A
:102DF300020001191618161618230300303017188D
:102E03001921301B1D1F30003C40423A3F3F392FF0
:102E130047300C0E020B040B0A0708000F020402D2
:102E2300010101010902E803000000BE040A0E00CB
:102E330001000300E803FF04090E031E1E03100C28
:102E430004180828020C0508150A04C082C083125E
:102E530011B2901700741AF0A3741FF09017027444
:102E630020F0A3741FF09017047426F0A3741FF0CE
:102E7300901706742CF0A3741FF0025B8974F71289
:102E830008299016F4E4F0E99016F3F07CCD7D1652
:102E93007AF57B1612180C901943E09016FDF0900A
:102EA30016FE74B7F0A37416023E1674F0120829C6
:102EB300EAFEEBFF5480700302301F9016F3123EBC
:102EC300AB7003023018EA241B125716707CEA24F5
:102ED3001F12571664137002A3E0706E8A828B83ED
:102EE30012306D90170E124CA8750A00750B0080F6
:102EF3000D123CEC126D88121710AA0EAB0FEA4BA1
:102F030060488A828B83E0650C7004A3E0650D70D2
:102F13002C8A828B83A3A3A3A3E0F50EA3E0F50F72
:102F2300E50A450B8A828B83A3A3A3A360C3123F45
:102F3300EE850A82850B83A3A3A3A380B78A0A8B9A
:102F43000B8A828B83124CA480B4E508242A12577F
:102F530016FCE5082402F8E43509F9E8FAE9FB90E0
:102F6300170E123154A3A3E06402703C8A828B8350
:102F7300124CA8800B88828983A3A3A3A3123FEEDC
:102F8300E849601F88828983E06A7003A3E06B705D
:102F9300E488828983A3A3E06C70DA901949125AFA
:102FA30046806BECF9121F56850882850983E0641D
:102FB30001704FE5082418123056120DC112633008
:102FC300120C27E5082412123056120DC1E508121F
:102FD3003E9F120DBDE508240B126334120C2BE542
:102FE300082417123E3CE5082402FCE43509FDE5FC
:102FF300082419FAE43509FB122772740A120DD05A
:10300300800CE064027007AA08AB09122034AA08F6
:10301300AB09121674EEFAEF6480802DEA54026055
:103023000C90195C7401F0EA6402FA8023EA5408F4
:10303300601A121F50EA4B700B90171012620B7A32
:1030430008123063EE6408FAEFFB80047A007B0019
:103053000269BAF582E43509F583E0F50A780A22B4
:10306300FB9016F3E0F91217DC22A3A3E0F50CA3FF
:10307300E0F50D227B009016F3E0F91217D07404EB
:103083002274F41208298A088B098A828B83A3A3EA
:10309300A3124AA0123E4738F583E02409FA1269C5
:1030A3005270030231478A828B837402124B158557
:1030B3000882850983123154E8F0A3E91265CC8AAA
:1030C300828B83A3A3A3A3A3A3A3A3F0E508240351
:1030D300F8E43509123149123E473AF583E08E820E
:1030E3008B83A3A3A3A3F0EE2409FAE43FFB8E8210
:1030F3008F83A3A3125CF8F5838882E0A2E58E8216
:103103008F83A3A3A3A3A3500474018001E4F0E578
:10311300082403F5828983124CA8EA1252293BF54D
:1031230083126919120DB9123E463B125DEA8E8273
:103133008F83A3A3127AC8120DD0EEFAEFFB901679
:10314300F312699F8016F98882F583E0FAA3E0CA37
:1031530022124E45A3A3227402120DD07F04020B48
:103163005C74F21208298A088B09ECFAEDFB740EE1
:103173001210D9E0FC1211E88A0C8B0DAE0CAF0DC6
:10318300EA4F6030AC08AD091211D6E96026AC08ED
:10319300AD09EEFAEFFB1211DCE970148E828F8316
:1031A300123FDBFAEFFB1211D0AA08AB091212008F
:1031B3007900800279B4024D9474F012082974F6F0
:1031C300120E69EAFEEBFF8C088D09750FB385219A
:1031D30082852283E4F0750E008002050E902E4452
:1031E300E493F8E50EC39840030232E3AA0E7B0092
:1031F3001212248A0A8B0BEA4B60E08A828B83A328
:10320300A31232EA28F0F8C3EE98EF940050CC7C76
:10321300157D007900AA08AB0912165C850A828520
:103223000B83A3A3A3A3126DC5E0F8EEC3982925CE
:10323300E0F8E433F9E50A28F582E50B39F583A3D1
:10324300A3A3A3A3A3123E51A312586D8A0C8B0D03
:10325300AC0CAD0DAA08AB0912180C850A82850BBC
:1032630083A3E06401700A1263307401123E638029
:10327300447401120E61850A82850B83124CA612D7
:10328300120CE9603D74091210D9E0C0E0126330FA
:10329300D0E0F074091210D9E064037013740112C2
:1032A3000E61E508240BFAE43509FB12180C8012B1
:1032B30074011210D9123FEEE50812585335091262
:1032C3006D86850A82850B8312633C123E63A3A33A
:1032D300E0C0E0E5082414126334D0E0F0750F0079
:1032E300A90F740A0269B7A3A3A3E0F88521828515
:1032F3002283E02274F7120829E9FE8A828B83A3D2
:10330300A3A3A3A3A3E0540860338A828B83A3A35C
:10331300A3A3A3A3E0540260218A828B83A3A3A364
:10332300A3A3A3A3A3A3E06406600F74E96E600ADA
:1033330074CD6E600574F06E7003121F38024693ED
:1033430074F012082974EF120E69740F1210D91257
:1033530060EF74081210D9E9F0ECFEEDFF7405126A
:1033630010D912445B12467FA3E0F91211F47406DC
:103373001210D91260EF74061210D91252BA7003E8
:103383000235FE123E8BE0FA74061210D9E0F912F0
:103393001E7812365EF8A3E0F9E84970030235FEA1
:1033A300EE2403F50AE43FF50BEE2406F508E43FAB
:1033B300F5097C00850882F583124CA8850A82856D
:1033C3000B83E0F91211FA74031210D91260EF851E
:1033D3000A82850B83E0C0E0852182852283123631
:1033E30057D0E01253CFF9852182852283123CF313
:1033F300124F211232EDFAA3E0CA2407F582E43A10
:10340300F583E8F0A3E41260FA2406F582E438F5C4
:1034130083E4126D92124A94120DB9EE123E473FA5
:10342300125DEA74031210D9124AA02409127AC257
:10343300120DD074291210D9126DBF12314E1253CE
:10344300E23A126D86742B1210D9E0C0E085218216
:10345300852283125281D0E0F074021210D9E4F075
:1034630074251210D978081210820235557403128C
:1034730010D9125DB28882F583123646A3A3A31234
:103483005878FB121212850E82850F83A3EAF0A3EC
:10349300EBF074031210D9123657A3123646125AA0
:1034A30087A2E6500F850E82850F83A3A3A3A3A350
:1034B300E0D2E1F074051210D9E0706B850E8285BD
:1034C3000F83A3123FEE90174EE0687003A3E069E9
:1034D3007055850E82850F83A3A3A3123E26750C18
:1034E30000780C120DC17808120DB574291210D989
:1034F300E0F50C780C120DC174271210D9120C2BA5
:1035030090175B120C2B790074191210D9124C7896
:1035130012207C740A120DD0850E82850F83A3A31B
:10352300A3A3A3E04405F074021210D9E004FC8EB7
:10353300828F83124CA28E828F83A3A3A3E0F912FE
:1035430011FA74031210D91260EF74021210D9E049
:1035530004F074031210D91252BA60677402121085
:10356300D9E0FA74061210D9123FEEC3EA98E4992F
:10357300505174021210D912393085218285228369
:10358300E028F8A3E039F9E8240FF50EE439F50F44
:10359300850E82F583E4F074031210D91236516458
:1035A30001600302347074051210D974011269A505
:1035B300F074031210D9125B79123953E8F0A3E9BE
:1035C300023494852182852283124CA8121E7E85A3
:1035D3002182852283120C2B74261210D9E0FD74EC
:1035E300251210D9E0FC740A1210D9E0F9EEFAEFB3
:1035F300FB121F327402120DD080438E828F83A37D
:10360300A3A3E0C0E0740C1210D9D0E0F012680E4E
:10361300E0C0E0740D1210D9D0E0F074061210D996
:103623001252BA7009740E1210D974B98007740E4D
:103633001210D97410F07409120E591220767411F5
:103643000269B7E0850E82850F83A3A3A322E0124C
:1036530053A7E022E01253A7A3A322852182852248
:1036630083EAF0A3EB1252C32274F012082974E127
:10367300120E6974041210D9E9F074031210D9EC14
:10368300F074021210D9EDF08A0E8B0F742F121002
:10369300D912306FAA0CFB121E6C74011210D9E9F7
:1036A300F0AA0CAB0D121E7274011210D9E0700354
:1036B30002392B852182852283E480158E828F83B4
:1036C300A3A3A3A3A3E0D2E3F0852182852283E011
:1036D300041268FDF8852182852283E0C3984003A4
:1036E30002392274011210D9E070030239228521B4
:1036F30082852283123930E50C28F8E50D39F9E883
:10370300240FFEE439FF8E82F583A3A3A3A3A3E0D2
:10371300A2E040B5750800750A08750B0074021223
:1037230010D9E060037508207C087D0079007405DA
:10373300120E5912165C8E828F83E0603E90179EA4
:10374300E06401701AE508D2E3F508750B1012392D
:10375300401210D9E8F0A3E912576B74FF80764347
:10376300080C750A0C8E828F83A312394B126D8855
:1037730074051210D974FFF0A3805A74041210D97F
:10378300E06009E508D2E6F508750A0A8E828F83A0
:10379300A3E064FE7003A3E0F4703074121210D936
:1037A300740412635AF8741D1210D9E8124B15747D
:1037B30012120E59121D9A7D007C007900741512A5
:1037C30010D9AA82AB83122796800B1239401210AC
:1037D300D9E8F0A3E9F074071210D9E508F0123E16
:1037E30082C0E074091210D9D0E0F0740A1210D923
:1037F3007401F07405120E5912203A74111210D983
:10380300E06003023900740D1210D91253CA8E827C
:103813008F83A3A3A3A3F0740D1210D9124AE3E577
:103823000AF0A3E50BF074031210D9E0C0E0124ACA
:1038330074D0E0125A87601190179EE0C0E0740DB7
:103843001210D9124ABED0E0F0740D1210D9123FF3
:10385300EE850C82850D83A3A3A3A3A31239392478
:103863001C1260E9126DA212393B125A39391268DF
:103873002DC0E0124A5BD0E01268F2C0E0740D1272
:1038830010D91245A1D0E01265F3C0E0740D1210F7
:10389300D9124597D0E0F0740D1210D912394B129A
:1038A3003939242A1260E9850E82850F83A3A3A3E5
:1038B300A3A3A3A3A3E01260E2123E71C0E01245EA
:1038C30083D0E0F0740D1210D9124CA8850E8285B6
:1038D3000F831269082428F582E43B126D86123E99
:1038E3007A126919120DB9125DE3EA12607B3B1279
:1038F3007AC6120DD07405120E591220408E828F93
:1039030083A3A3A3A3A3E0D2E0F074111210D9E020
:1039130060030236BF74011210D9E0140236CB796A
:1039230000AA0CAB0D121F3E741F0269B7E075F0BD
:1039330007A4F8A9F022A3A3124CACE8228E828F2D
:1039430083A3123FF2740522E0123953A3A3A322E7
:10395300F8A3E0F9850E82850F83A32274F0120881
:103963002974E8120E69E9852182852283F08A0E83
:103973008B0F8A828B83A3A3A3A3A3A3A3A3E0F99F
:10398300121E968A088B09EA4B7003023A3CE50E35
:1039930012523D123E9A123E31852182852283E0E6
:1039A3006003023A3F7C04850E82850F83A3A3A3A1
:1039B300A3A3A3A3A3E0F9121E9CEE4F607B8E8208
:1039C3008F83A3A3A3A3123FEE74071210D912622D
:1039D30020123FEE74091210D9124B45C0E0741146
:1039E3001210D9D0E01265D1A3A3A3A3A3A3A3125A
:1039F3003FEE740F1210D9126D8874121210D9E4AD
:103A03001269ADC8241FF582E438F583125DAEC494
:103A130013135403FC70027C048E828F83E0F978C5
:103A230008120DBD742059FD744059F97403120E28
:103A330059121F327402120DD00269B57C08850E2B
:103A430082850F83A3A3A3A3A3A3A3A3E0F9121EB9
:103A53009C8B0BEA4B70030239BDEE4F60DB852173
:103A630082852283E0F50C780C120DC185088285CE
:103A73000983A3A3A3A3A3A3A3E0F50C780C120DBE
:103A8300C18A828B83A3A3A3E0FB8A82850B831263
:103A930075E58A82850B83E0FA8E828F83A3A3E088
:103AA300F91227787402120DD00239C174F7120883
:103AB3002974FA120E69E9FE780179017F00800307
:103AC30079000F124E24E0FCEFC39C5026EF75F0F3
:103AD30007A4FC85F008AD08EA2CFCEB3DFD12447D
:103AE30013E0A2E050DA540C60D6E0A2E250D3789F
:103AF3000080CF8A828B83A3A3A3A3A3A3E0703DFB
:103B0300E9A2E0400574016E70338A828B83A3A31C
:103B1300A3A3A3A37401123E03E0C0E07403121035
:103B2300D9D0E0124472E0C0E074041210D9D0E09E
:103B3300F074051210D9E8125D4D12207674060256
:103B43004690C082C0837901121F3E025B8974F4E0
:103B5300120829EA4B90195C6019E4F08A088B0972
:103B6300F50AF50B7808120DB57A02123077120DAB
:103B7300D0800A7401F07A027B0012306402315F54
:103B830074F012082974F3120E6974031210D9E445
:103B9300F0A3F090170E123E3174011210D9E4F025
:103BA300A3124B1A04F0901748E0A2E35003023C1F
:103BB30076123DF774091210D91210C2740912104B
:103BC300D978081210829017107808120E397405EC
:103BD3001210D97808121073123CFA74051210D916
:103BE300780812101650077A017B00023CE774052F
:103BF3001210D9780C121082901948E0F509780C4C
:103C030079081207BAA80CA90D901949E0C398E4E2
:103C1300995003E08001E8852182852283F07409AD
:103C23001210D97808121082C008C009C00AC00B4C
:103C330074051210D9780C121082123CFA780C79A0
:103C4300081207BAE4F50AF50BD00FD00ED00DD049
:103C53000C780C7908120F11901710780C1210734E
:103C63008011123CEC126D88EEFAEFFB121710AEC6
:103C730008AF09EE4F60658E828F831232EAC398D4
:103C8300502DEE2403F8E43FF9E0FA88828983E0BB
:103C9300C39AF0602374031210D9124154740112B1
:103CA30010D9EEF0A3EF12623BFEA3E0FF80C48EB7
:103CB300828F83A3A3A3E4F08E828F83127A7F740F
:103CC300011210D91252BA8E828F83A3A3A3A360C9
:103CD300911262141210D9123CF3808974031210EA
:103CE300D9124CA8740D0269B7123FF290170E2235
:103CF300125DD9A3A3A322901947127A87E4F50A88
:103D0300F50B2274F01208298A088B09890A7800B6
:103D1300790090170E123E31FBEE4B601E088E8227
:103D23008F83A3A3A3A3124C72601008E870010948
:103D33008E828F83123E2DEA4F70E390194A124C04
:103D4300A8C3E89AE99B4003023DEA7A06123DEDD7
:103D5300A80CA90DEA497003023DEA8A828B83E528
:103D630008F0A3E509123E0CE50AF0901949124E3A
:103D73002C123E03A3E4F0A3F090170E124C7260D2
:103D83000D8E828F83A3A3A3A3126D888017901730
:103D93000E126D88901748E0A2E34009123DF79098
:103DA30017101210C2901748E0A2E3503A7A087B2A
:103DB300009016F3E0F91217E2EA4B4C4D7028908D
:103DC3001947E0F508A3E085080CF50DE4F50EF5B9
:103DD3000F780C120DB57A087B009016F3E0F912F8
:103DE30017D67404120DD00269BA7B0012170A8A1F
:103DF3000C8B0D221217F4EAF8EBF9ECFAEDFB2227
:103E0300123E0722123E0CA322F08A828B83A3A3C5
:103E130022E508F0024693F08E828F83A3A3A3A327
:103E2300A3A322125724A3A3F022A3A3A3A3E0FED8
:103E3300A3E0FF227F05020B5CF582E43509F583DD
:103E4300E0F922EA123E4B222410F582E422123ECC
:103E530059A3A3A3A322123FF685088285098322CF
:103E6300123E6722F0850A82850B83A3A322E50E07
:103E73002411123E97E022E50E240E123E9722E50E
:103E83000E2410123E97E022123E8F22EE123E4B7A
:103E93003FF58322F582E4350FF58322240FF50ADB
:103EA300E43509F50B780A22E0F91216868A088BA5
:103EB30009EA4B2274F2120829890B8A088B098AB2
:103EC300828B83124CA8121F62EA4B600479B8807C
:103ED3006A121F6EE9F8902E41E493F9E8C3994002
:103EE3000479B280567A15123DEDAE0CAF0DEA4F50
:103EF3007004791080458A828B83E4F0A3123E0C10
:103F0300E50BF0750A007808120DB97C127D00EA02
:103F130024031268C4120DD09017141252BA7008F9
:103F2300901714800C123FEE88828983123F4170F0
:103F3300F4EEF0A3EFF0121F807900024D94124CBF
:103F4300ACEA4B8882898322C082C0839017148095
:103F5300048C828D831275E6EC4D60288C828D83F0
:103F6300A3A3E069600574FF6970E68C828D83A367
:103F7300A3A3E06A7003A3E06B70D6EC2403FAE416
:103F83003DFB80047A007B00025B8974F7120829E9
:103F9300E9FD74FE6D70047C0180027C00901714AF
:103FA30080096D70027C01888289831252BA601F76
:103FB30088828983A3A3A3E06A7003A3E06B70E7FD
:103FC300ECA2E088828983A3A3E050D6F98002792A
:103FD300FE024693EEF9800CA3A3127A87EE2274B5
:103FE30002120DD07F02020B5CF583123FF2221204
:103FF3003FF622E0F8A3E0F922123FF68E828F8388
:1040030022120DD07F03020B5CC082C08379009023
:104013001714800109E0FAA3E08A82F583E582455B
:104023008370F1025B8974F6120829E4F508F50937
:104033007808120DBD902E41E49375F013A4A9F0F6
:10404300124149126DE6120DD0E9FE74096E700338
:10405300121F7A023FD774F612082974FE120E69F2
:10406300852182852283E4F0A3F0A821A922880870
:1040730089097808120DBD750802750900780812C0
:104083000DBD126A57120DD0023FE274F5120829D2
:1040930074EB120E69852182852283E4F0A3F090EC
:1040A300171480748E828F83A3A3E0C0E07402127E
:1040B30010D9D0E012576BA982AA8389088A09759F
:1040C3000A007808120DB97C127D0074061210D90B
:1040D300126DAB120DD07402120E51880889097843
:1040E30008120DBD7508137509007808120DBD740B
:1040F300041210D912525D75F013A4F8AAF075F0EA
:1041030013E9124145126A5F120DD085218285227F
:10411300831241548E828F83123E31EE4F7085A8F5
:1041230021A922880889097808120DBD750802752E
:1041330009007808120DBD126A57120DD0741502CA
:104143004004A42AF9E82402FCE439FD7A427B0006
:1041530022E02401F0A3E03400F02274F4120829D1
:1041630074EB120E697E007F00A821A922880889BA
:10417300097808120DBD7508028E097808120DBD65
:104183007C007D007A42126DF2120DD0E9706C8EC4
:104193000880567402120E51880A890B780A120D90
:1041A300BD750A13750B00780A120DBDE50875F08D
:1041B30013A4F8AAF075F013E509124145126DF442
:1041C300120DD0E9701B74031210D9AA82AB837449
:1041D300021210D9E0F9121F5CE970050EEE7001AE
:1041E3000F0508E5087002050985218285228312DF
:1041F3003FEEC3E50898E509994098EEFAEFFB74A2
:104203001502315C74F61208298C828D83A3A312E4
:104213004460F0EA1260813BF583E0C0E012441D84
:10422300D0E0F0EA241DF582E43B123FEC12440196
:1042330012445BF0A3F0EA241FF582E43BF58312FA
:104243003E31EC1243F43DF583EEF0A3EFF012435D
:10425300FA3BF58312442BA3A3A3A3A3A3EEF0A3DA
:10426300EF125CDCFE8C828D8312446A74035EFE63
:10427300C3940340030243E7EE600874026E6003D5
:1042830002430C8C828D83E0540CFE740C6E70031D
:1042930002434BE0A2E4400D88828983E08C828D47
:1042A30083A312448074086E600302434B12440BD1
:1042B3007401F08A828B83A3A3A3A3A31257317043
:1042C300148C828D83E0440C124472A3A312442BFA
:1042D300EEF0A3EFF08C828D83E0A2E4402B888282
:1042E30012443912444E500109F582124439A3A3F2
:1042F300A3A3A3A3F0A3EF12447A8C828D83A3A379
:10430300A3F0E82403F850010988828983E0C0E020
:10431300EC2411F582E43DF583D0E012446A8C82EB
:104323008D83E0A2E7507588828983E0FE8C828DBD
:104333008312448074FC5E700C8C828D83A3E054E2
:10434300036403701E0243E712440BE4F0740C6E23
:1043530060030242B6888212443F12444E50010960
:104363000242D88C828D83A3E05403603288828911
:1043730083E0C0E0EC1244253DF583D0E012448194
:104383008C828D83E054036402701488828983E0F5
:10439300C0E0124413D0E01244818003A3E4F0ECA4
:1043A3001252293D126D86EC2410FEE43DFFEA24EF
:1043B3001DF582E43BF583E0F5088E828F83E0C32D
:1043C300982508F508F0EA2417F8E43BF98882F504
:1043D30083E0C39508C0E0124401D0E0125CDCC363
:1043E3009508500A124401E4F012441DE4F0023F20
:1043F300E72415F582E422EA240DF582E422EC2475
:104403000DF582E43DF58322EC1253E23DF5832260
:10441300EC2414F582E43DF58322EC123E4B3DF58A
:1044230083222413F582E422E0FEA3E0FF8C828D35
:1044330083A3A3A3A32212443FA3A3228983E0F56A
:1044430008A3E0FFE5088C828D8322A3A3A3A3F036
:10445300A3EFF0E82402F822124460A322E4F08CD4
:10446300828D83A3A3A322124488A882A983221244
:104473003E07A3A3A3A322124488A3E022A31244CA
:104483008808A98322125CE5A32274F41208297414
:10449300F3120E698A0A8B0BECFEEDFF8C82F58317
:1044A300E0540CF508E0A2E75006E508D2E7F5086A
:1044B300E508D2E1F5081257317006E508D2E4F5B4
:1044C30008E0A2E55006E508D2E5F5087C087D0082
:1044D3007900AA21AB2212165C74021210D9E508E6
:1044E300126D8CC0E074031210D9D0E0124B1AE5A0
:1044F3000AF0A3E50BF074051210D91265F8121037
:10450300D9E0707774081210D9124AA0125CCE3821
:10451300126613C0E074081210D91245A1D0E0123C
:1045230065F3C0E074081210D9124597D0E0F07417
:10453300081210D912458DE0124AC8124B49126075
:10454300E2EE24111256FDC0E0124583D0E0F0EEF6
:1045530024141256FDC0E074081210D9124AA02484
:1045630035F582E438F583D0E0124AEDC0E07408F3
:104573001210D9124AA4D0E012634C740D02315CBC
:10458300E82432F582E439F58322123FFCA3A3A386
:10459300A3A3A322124AB41267F238F58322124A64
:1045A300B42426F582E438F5832274F71208297EB1
:1045B300008A828B83A3A3A3A3A3A3A3A3A3E064DF
:1045C30004600302466F1253DAE0600302466F127F
:1045D300523C3B1252B8700302466F88828983E0D3
:1045E3005403600302466FE81253E239F583E0FA9D
:1045F3008C828D83A3A3E0FBA3E0CB2411F582E49B
:104603003BF583E06A706588828983A3A3A3A3A390
:10461300A3A3A3A3124673E06A7003A3E06B704CD9
:1046230088828983A3A312467FE0FFA3E0CF2406F9
:104633001256FD6A7003A3E06B703188828983A3ED
:10464300A3E0F88C828D83A3A3E0F9A3E0F583892B
:1046530082A3A3E06860138C828D83A3A3A3E0F5F8
:10466300838982E0540C640470027E01EEF9802099
:1046730012467722124CB08C828D8322A3A312465A
:1046830077A3A322740C1210D9E0F9740D120DD084
:104693007F01020B5C74F612082974FC120E69EA9E
:1046A300FEEBFFECFAEDFB8C82F583A3E054036091
:1046B3001690170A1252BA60597900EEFCEFFD12F8
:1046C3005ED91227A1804B852182852283EEF0A338
:1046D300EFF074021210D9124B0FAC21AD227A986D
:1046E3007B1F1221C08A088B09A808A909EA49601F
:1046F300218A828B83A3A3A3A3A3A3A3A3A3740647
:10470300F07A0088828B83124AA01260A2E0F91229
:10471300211E7404023FE474F212082974F3120E8A
:1047230069EAFEEBFF8A82F583A3A3A3A3A3A3A352
:10473300A3A3A3E0F50A90195CE0700579BA024AD5
:1047430058750801750900750C00750D007C087D0E
:10475300007900AA21AB2212165C74051210D974D9
:1047630001124B225404601274021210D9E0D2E6F3
:10477300124B2254087003750803E054106006744A
:10478300404508F508E05408602274021210D9E08D
:1047930044C0124B225420600A74031210D9E0D291
:1047A300E0800874031210D9E0D2E1F0EE24151270
:1047B30056FD124A8870037401697006740845082F
:1047C300F5088E828F83A3A3A3A3A3A3A3A3E0705F
:1047D3001612221A8521828522831260EF74021237
:1047E30010D9E0D2E28030640F701074021210D935
:1047F300124B2A74044508F508807F8E828F83A3A9
:10480300A3A3A3A3A3A3A3E064028E828F83700A4E
:10481300126DBFE8F0A3E9F08060A3A3A3A3A3A351
:10482300A3A3E06403700DAC21AD22EEFAEFFB12FB
:104833001FCE80468E828F83A3A3A3A3A3A3A3A388
:10484300E06401703590179EE0601074021210D975
:10485300124B2A750910750AFF801874021210D9B9
:10486300E0440C124B1A74FDF0A374FFF07404457A
:1048730008F5088E828F8312306FEE24151256FDD1
:10488300A2E0503F74021210D9E0540C701B8E82C8
:104893008F83124CA8121C38E9700579BB024A5861
:1048A30074021210D9E0D2E5F0EE24151256FDA2DF
:1048B300E0501074021210D9E0540C64047004E048
:1048C300D2E5F0EE24111256FDC0E074041210D9A3
:1048D300D0E01265FA1210D9E06003024A5174085D
:1048E3001210D9124AE3E508F0A3E509F0124A7E53
:1048F300E0C0E0124A74D0E0F0124A65E0C0E07410
:10490300081210D9124AA012442538F583D0E012B8
:104913004B496401701190179EE0C0E074081210B7
:10492300D9124ABED0E0F074081210D9124ADE122E
:104933004A6FFAE8241CF582E439F583EA124B1531
:10494300EE2415FAE43FFB8A82F5831275E6E8123A
:104953005A3939F583124B0FEE241C1256FDC0E071
:10496300124A5BD0E0125B7F124A887003740169BC
:10497300701374081210D91253CAFAEE241D12567A
:10498300FDF9121EA28E828F83A3A3A3A3A3A3A3C5
:10499300A3A3E0C0E074081210D91245A1D0E0F03F
:1049A30074081210D9124597E50AF074081210D949
:1049B30012525D2428F582E439F583E50CF0A3E572
:1049C3000D124AF5124AC81257761260E2EE124AE5
:1049D3006FC0E0E82433F582E439F583D0E0F0EEEC
:1049E300241B1256FDC0E074081210D9124AA4D039
:1049F300E0F0EE241A1256FDC0E074081210D9122A
:104A03004AA02432F582E438F583D0E0124AED124D
:104A13004A94120DB91267F81275E6740B1210D985
:104A2300124AA0242F127AC2120DD0EE2415125668
:104A3300FD5440601290172A1252BA600AAA21ABA1
:104A430022125ED91227A1AA21AB22122040740C94
:104A53001210D9E0F9024D8FE82420F582E439F5EC
:104A63008322EE2419F582E43FF58322126807E0DE
:104A730022E82412F582E439F58322EE2418F58224
:104A8300E43FF583225480F8A3E05401F97480686D
:104A930022F508A3E0F509750A00780822124AB442
:104AA30022124AB42434F582E438F58322A3A3A363
:104AB300A3124AB822E0F8A3E0C822124AB4124370
:104AC300F438F58322FAA3E0FBE8242AF582E439DB
:104AD300F583EAF0A3EB22A3A3A3A3123FF2EE22F2
:104AE30012526112524139F58322F0EE2413125708
:104AF3007E22F0EE240D12577E22E0FC8A828B8305
:104B0300E02CFCA3E03400FD8A828B83ECF0A3ED60
:104B1300F022F0A3E4F022F085218285228322F0A3
:104B2300EE241512577E22E0D2E3F0124B32228E8E
:104B3300828F83123FF6852182852283E8F0A3E9E1
:104B4300F022E8F0A3E9126235E02274F712082993
:104B53008A828B83A3E0640170047E6380027E6497
:104B63008A828B83E060087905124B8224F3FE90DE
:104B73001746E06007F9124B8224F2FE02466F12D9
:104B830020E8E9F8EEC3982274F612082974FE129D
:104B93000E698521828522831260EFE9FEECFAED2E
:104BA300FB9003811252BA6032A821A92288088996
:104BB300097808120DBD7D01740E1210D9E0FCEEC8
:104BC300F99003811260C31227A17402120DD0EA77
:104BD3004B60047900800679B2800279B6023FE225
:104BE30074F7120829E9FE9017001252BA601F7475
:104BF300091210D9E0F5087808120DC1EEF99017E3
:104C0300001260C31227A17401120DD0800279B67D
:104C130002469374F71208298908ECFEEDFF79B573
:104C2300E508245E602014600624F86034803D901B
:104C33000383124C726035126E031227A18E828F8A
:104C4300831260EF80249017021275E6EC4D601C0E
:104C5300EEFCEFFD9017021260C31227A1E9F98061
:104C63000B9016FE124C7812180C79000246931220
:104C73004CACEA4B221275EAEEFAEFFB2274F71200
:104C83000829E9FE79B574AB6E700B9016FE124CD1
:104C9300A812180C79000246938E828F83A3A3A3D4
:104CA300A3A3A3A3A3124CAC22124CB022E0FAA3F9
:104CB300E0FB2274F1120829EAFEEBFF8C0A8D0B4C
:104CC30075080190174EE06E7003A3E06F700C122D
:104CD3004D83AA0AAB0B12180C805E122220EE6AD7
:104CE3007002EF6B7009AA0AAB0B122226804AAC42
:104CF3000AAD0BEEFAEFFB121D76E9F50890194F9A
:104D0300E070361226ACE97030E508702C90171E5F
:104D1300E06E7003A3E06F7020EE4F601C750C16FD
:104D2300750D17750E00780C120DB97C087D00AA5D
:104D33000AAB0B126DAF120DD0A9080276E274F222
:104D4300120829EAFEEBFF8C088D09750A01124D42
:104D530083EEFAEFFB121806E96401701190174E07
:104D6300123FEE850882850983126D88800EAC0898
:104D7300AD09EEFAEFFB121D7CE9F50AA90A8011D1
:104D83001222148A0C8B0DAC0CAD0D22740D120D76
:104D9300D07F06020B5C74F6120829EAFEEBFF7A59
:104DA3000D7B0012170AEA4B6062EE2424126A8C10
:104DB300F0EE2425126A8CA3124E51126A92A3A319
:104DC300126825124E2CF0EE124E12124E41E8F0EC
:104DD300A3E9124E68124E39126D88EE124E1B1261
:104DE30068E8A3A3A3A3F0EE24331256FDC0E01298
:104DF3004E24D0E0126617124E39A3A3A3E8F0A302
:104E0300E9124E60C0E01253DAD0E0F0023FE7242B
:104E13002AF582E43FF58322242EF582E43FF583CD
:104E230022EA1258533BF58322124E3022E08A8243
:104E33008B83A3A3A322126947A3A3A3A322124E86
:104E43004522123FF68A828B83A3A3A3A322F012E7
:104E53004E5622EE2426F582E43FF58322F0EE241B
:104E63003212577E22F0EE242C12577E2274F41253
:104E7300082974FE120E69ECFEEDFFEC241612569F
:104E8300FD64057010EC2406FCE43FFD121FC8E925
:104E93007003024F1CAC21AD22126B41121C3E85E4
:104EA30021828522831252BA606B8E828F83E064E3
:104EB300017058E875F009A4F8AAF075F009E9A49F
:104EC3002AF9747728F8740439F9E8FAE9FB888237
:104ED300F5837808121082EE124FBE121016402787
:104EE300852182852283124ADE12570B124F2178C5
:104EF3000812108290858C7808120F4D8A828B835A
:104F03007808121073800A79A28010EE240F126DB4
:104F1300827900800679A1800279C802315A124B46
:104F23003FEE1268132274F21208298A0C8B0DECDF
:104F3300FEEDFFEC12570BE4F0A3F09085F8780830
:104F4300121082EC124FBE120E956067EC240E1203
:104F53005704703478B3901745E07028901777E0C2
:104F630064017020EC24111256FDF91220D08B0934
:104F7300A909EE12523D3F1260EDEA496004780040
:104F8300800278A18808802EE060046402700A120F
:104F93001FDAE9F5087007801DE064037010EEFC6A
:104FA300EFFDAA0CAB0D121C62E9F5088008750829
:104FB300A180037508A3A908024D94126813780809
:104FC3002274F012082974F5120E69EAFEEBFFEA67
:104FD300240AFCE43F8C82F583127A8312524774CD
:104FE30003120E618A828B83125EE3E9700302501F
:104FF300AD7401120E617403120E59121C3E74013A
:105003001210D91252BA70030250ADE875F009A418
:10501300F8AAF075F009E9A42AF9747328FC74045A
:1050230039FDE508240E126334E4F0041210D9129A
:105033003FEEE50812523D3509126D868C828D8351
:105043001210B6E50824121263341210C290858C34
:1050530078081210828C828D837808120FAC8C82B0
:105063008D83780C121082908580780812108278D4
:105073000C79081207BAE5084509450A450B702A59
:1050830074011210D912525D75F009A4F8AAF075D3
:10509300F009E9A42AF9747B28F582740439F583AD
:1050A3007401F07A007B0812526A8E828F83A3A365
:1050B300A3A3A3A3A3A3A3A3E02406FCA3E0340018
:1050C300FD8E828F83125EE3126605603EEE240A34
:1050D30012522F124AE37468124B15E812522939FF
:1050E300F5837402F09017301210B68C828D831200
:1050F30060DC125CCE3CF5831210C290858C78087C
:105103001210829017307808120FAC1252A5705DFE
:105113009016FE125255A3A3A3A3A3A3A3A3A3A3D1
:10512300125D04121806E97010125CC29016FE128A
:105133005CD4700512660560348E828F83A3A3A3AB
:10514300A3A3A3A3A3A3A3125255124CA8121C6892
:10515300E960118E828F83A3A3A3A3A3A312529109
:10516300E4F0A3F08E828F83125277E4F01252A5FB
:1051730060030252248E828F83A3A3A3A3A3A3124B
:105183007A7F901745E06003025219901777E06425
:10519300016003025219750A3A750B00780A120D61
:1051A300BD7402120E51880A890B780A120DBD12C2
:1051B300707E120DD0E9705BE508240E126334741F
:1051C300011252BFC0E0E5082411126334D0E0F0AD
:1051D300E508240F126334743A124B1590172C12FE
:1051E30010B6E50824121263341210C290858C782D
:1051F3000812108290172C7808120FAC90858C78C7
:105203000812108290172C7808120E95700812520B
:105213006680031252471252A57006125BC574A131
:10522300F0740B0269B7240EF582E422F8E43FF927
:10523300E8FCE9FD8882F58322EA12524122240F19
:10524300F582E422E5081252413509F583E4F0A31F
:10525300F0221275EA8E828F832212526122123F4C
:10526300F6E8227A007B029015D7E0F91216B022F5
:105273008A828B83A3A3A3A3A3A3A3A3A3A312524F
:105283008522124AB8240EF582E438F58322A3A3BB
:10529300A3A312529922124AB8240FF582E438F5D7
:1052A30083228E828F83A3A3A3A3A3A3124AB02432
:1052B3000FF582E438F58312526149221252C32258
:1052C300F0852182852283E02274F6120829EAFE02
:1052D300EBFF7A237B0012170AEE240AF508E43F5A
:1052E300F5098508821260ED7C237D007900121692
:1052F3005C8508828509831252BA700302538DEECE
:10530300FAEFFB121FE61252A560748E828F83128E
:1053130053C064018E828F83A3A3A3A3A3A37007A7
:105323001253B6740E80211252BA701012660570B1
:105333000B8E828F83A3A3E0A2E050071253AC74B9
:105343000D80051253AC7405126617540364017083
:10535300071253947405800B901746E0C0E0125374
:1053630094D0E01253CFF583888212572A8508829E
:10537300850983124AA012608138F583E9800E857E
:10538300088285098312616680031260A9F0023FD7
:10539300E78E828F83A3A3A3A3A3A3A3A3A3A31291
:1053A30053A622E01260C8A3228E828F83A3A3A3F5
:1053B300A3A3A3124AB012608738F58322A3A3A341
:1053C300A3A3A3A3A3A3A3125285E0221253D32220
:1053D300126B56F8A3E022EA1253E23BF583222430
:1053E3000CF582E42274F112082974E4120E698A1E
:1053F3000C8B0D8C088D097A237B0012170A8A0AFD
:105403008B0BAE0AAF0BEA4F70030256E512608DA9
:10541300E5082415125716687003A3E0698E828F7E
:10542300837004740280027401F0E508240DF8E42B
:105433003509F98882F583E0FAC3E49AFA95E0FB2B
:105443001257122AFAA3E03BFB8E828F83A3A3A3F6
:10545300A3125CEB8E828F83A3A3F0EE2420F5824C
:10546300E43FF583E4F0EE2421F582E43FF583E4A1
:10547300F0EEFAEFFB12209A850882850983125712
:105483003170098E828F83A37405800690174612AC
:10549300571FF0EE2417F50AE43FF50B8E828F8336
:1054A30012572AE9850A82850B83F0EE2416F8E465
:1054B3003FF9E508240EFAE43509FB888289831253
:1054C3004AFDE5082410FAE43509FB850A82850BB9
:1054D30083E0FC88828983E0F88A828B83E0C39827
:1054E300C39CF812576BF0EEFCEFFDAA0CAB0D1248
:1054F3001FE0E9F50B8E828F83E064027006125C75
:10550300C21256EFE50B60030256DC750C00750DF5
:105513000090194FE064016005E06402703F125788
:10552300016008EE242112570470328E828F83A308
:10553300A3A31260AF125737EE24161256FD12576B
:1055430060FAE439FB123DEFEA4B60111269111264
:105553000DB9125745AA0C126DAF120DD0EEFAEF2A
:10556300FB1220A6E9F50B90194FE064016008E0F7
:10557300640260030256CFE970030256CFE50C457F
:105583000D70030256DC8003850E0B125701600B6E
:10559300EE242112570460030256D5850B0E850CA9
:1055A30008850D09750A007808120DB91257458E42
:1055B300828F83A3A3A3A3127AC8120DD0EE242053
:1055C3001256FD600D12570A7468124B15EE242013
:1055D3008015EE24211256FD601512570A7403F04C
:1055E300A37401F0EE2421F582E43FF583E4F0EEA9
:1055F300FAEFFB1220A6E9F50B70907C137D00797E
:10560300007409120E5912165C741A1210D974011F
:1056130012577664687002A3E0704F8E828F8312F4
:105623005291E06405600302558B7C0879FF8E82FA
:105633008F83A3A3A3A3E0242A125D071216E6E92E
:10564300700302558B7C087D0079FF7401120E599B
:1056530012165C7401120E617A007B0079AB121F83
:10566300C274191210D974FC801512570AE064032E
:105673007004A3E06401700874191210D974FFF068
:10568300E4F508F5097808120DBD7402120E617471
:10569300131210D9AA82AB831261EC120DD08521AB
:1056A30082852283E0602B7409120E5188088909D0
:1056B3007808120DBD7508137509007808120DBD21
:1056C3007C007D00126A5F120DD08006E50C450D4B
:1056D3006007AA0CAB0D121710EEFAEFFB121710AE
:1056E3008003750B10A90B741C0276DFEE2406FAF7
:1056F300E43FFB12180C22EE240C12577E22EE24F8
:105703002012577E640122EE1252413FF58322E5B7
:1057130008240EF582E43509F583E022125724A309
:1057230022E08E828F8322A3E0F91220E822E05444
:105733000364012212573B22E0FAE82AF8E434001A
:10574300F9228E828F83A3A3A31260B312573BEE79
:10575300241612577E125760FCE439FD22FAE82A18
:10576300F8E439F9E824042212576F22126626A3BB
:10577300A3A322F012577B22EE240FF582E43FF518
:1057830083E0227901020D8074F4120829EAFEEB0A
:10579300FF8A82F583A3A3A3A3A3A3A3A3124AA06F
:1057A3002424F582E438F583125731702E8A828BD4
:1057B300831253C07025125859E06405701D1258A6
:1057C30059A3E0F874016860057406687007125203
:1057D30073740280051252737403F0EA240A12618F
:1057E3005A1260C3E4F0EA2408F8E43F1231492472
:1057F30031F582E43AF583E0C0E0126DFAA3A3D059
:10580300E0125878CA242EF582E43AF583E0C0E02A
:10581300126DFAA3A3A3D0E0125D9EC812585338A9
:10582300123FEC126DFA12586D8A0A8B0BAC0AAD5B
:105833000B850882850983125D0412180C85088282
:10584300850983124CA81220A6126155F002315F1C
:10585300240BF582E4228A828B83A3A3A3A3A3A3AD
:10586300A3A31265ECF583888222A3A3A3A3124BFF
:105873003F12221422125CE0FAA3E022025786C0F0
:1058830082C08390172074ECF0A3741FF09017224A
:1058930074F8F0A3741FF090172474FEF0A3741F20
:1058A300F090172674F2F0A3741FF0025B8974F46E
:1058B300120829EA2408FEE43BFF8E82F583125284
:1058C3005D126099E0F50874035508F509125CFF51
:1058D300F8A3E08882F583E508F0A3A882A983E50D
:1058E30009600974026509600302599E740C550826
:1058F300FC600A74086C600574046C70267402659D
:10590300097006E508A2E4401A8A828B83A3A3A345
:10591300A3A3A3A3A3125AA41267F23D125A3FA34F
:1059230008A983740C6C701C125AA02428125A8C78
:105933002428F582E43DF583A3126420F0E82402D1
:10594300F8500109740265097006E508A2E4404BAA
:10595300125AA0242A125A8C242AF582E43DF58394
:10596300A3125A4E125AAA126420125AAAA3125A06
:1059730046E82404F8500109EC600F74086C600ACF
:10598300740C6C600574046C70111260D02426F5DD
:1059930082E43C125A3FA3A882A9838A828B83A301
:1059A300A3A3A3A3A3A3A3125A6E54037014E508DD
:1059B300A2E1400E1260D0125A393CF583E05480C4
:1059C3006008125A54125A4180199016F4E0C0E04C
:1059D300125A54D0E0125A8188828983125A810460
:1059E300125CE5A3A882A983E508A2E750458E824D
:1059F3008F83125A6E88828983125A87125A73547C
:105A03000360301260D02434F582E43C12641EF04B
:105A1300E508A2E1501D8A828B83A3A3A3A3A3A3BA
:105A2300A3A312314E2435F582E43A12641EA3F087
:105A3300E8240302315F241EF582E422F583125A1F
:105A43004EF022125A4EA3A3A3F022E08882898348
:105A5300228A828B83A3A3A3A3A3A3A3A3E0FCA370
:105A6300E0CC2432F582E43CF58322E0125A73221F
:105A7300FCA3E0CC2425F582E43CF583E022F090FE
:105A830016F4E022126622E022F582E43DF5831249
:105A93005A4E125A9922126626125AA4228E828FC5
:105AA30083E0FDA3E0CD22A3125A99242CF582E4CE
:105AB3003DF58322C082C0838A828B83125B79FC8B
:105AC30074035CF98A828B83A3A37401F0E96005F4
:105AD3007402697061740C5CF8600A74086860058C
:105AE30074046870137402697005ECA2E440098AB7
:105AF300828B83A3A37402F0740C68700A8A828B6E
:105B030083A3A3E02402F07402697005ECA2E440CD
:105B1300258A828B83A3A3E02404F0E8600F740832
:105B230068600A740C68600574046870098A828B63
